{
  "_format": "hh-sol-artifact-1",
  "contractName": "ERC20A",
  "sourceName": "contracts/tokens/ERC20A.sol",
  "abi": [
    {
      "inputs": [
        {
          "internalType": "string",
          "name": "_name",
          "type": "string"
        },
        {
          "internalType": "string",
          "name": "_symbol",
          "type": "string"
        },
        {
          "internalType": "uint256",
          "name": "initialSupply",
          "type": "uint256"
        },
        {
          "internalType": "address",
          "name": "_owner",
          "type": "address"
        }
      ],
      "stateMutability": "nonpayable",
      "type": "constructor"
    },
    {
      "anonymous": false,
      "inputs": [
        {
          "indexed": true,
          "internalType": "address",
          "name": "owner",
          "type": "address"
        },
        {
          "indexed": true,
          "internalType": "address",
          "name": "spender",
          "type": "address"
        },
        {
          "indexed": false,
          "internalType": "uint256",
          "name": "value",
          "type": "uint256"
        }
      ],
      "name": "Approval",
      "type": "event"
    },
    {
      "anonymous": false,
      "inputs": [
        {
          "indexed": true,
          "internalType": "bytes32",
          "name": "role",
          "type": "bytes32"
        },
        {
          "indexed": true,
          "internalType": "bytes32",
          "name": "previousAdminRole",
          "type": "bytes32"
        },
        {
          "indexed": true,
          "internalType": "bytes32",
          "name": "newAdminRole",
          "type": "bytes32"
        }
      ],
      "name": "RoleAdminChanged",
      "type": "event"
    },
    {
      "anonymous": false,
      "inputs": [
        {
          "indexed": true,
          "internalType": "bytes32",
          "name": "role",
          "type": "bytes32"
        },
        {
          "indexed": true,
          "internalType": "address",
          "name": "account",
          "type": "address"
        },
        {
          "indexed": true,
          "internalType": "address",
          "name": "sender",
          "type": "address"
        }
      ],
      "name": "RoleGranted",
      "type": "event"
    },
    {
      "anonymous": false,
      "inputs": [
        {
          "indexed": true,
          "internalType": "bytes32",
          "name": "role",
          "type": "bytes32"
        },
        {
          "indexed": true,
          "internalType": "address",
          "name": "account",
          "type": "address"
        },
        {
          "indexed": true,
          "internalType": "address",
          "name": "sender",
          "type": "address"
        }
      ],
      "name": "RoleRevoked",
      "type": "event"
    },
    {
      "anonymous": false,
      "inputs": [
        {
          "indexed": false,
          "internalType": "uint256",
          "name": "id",
          "type": "uint256"
        }
      ],
      "name": "Snapshot",
      "type": "event"
    },
    {
      "anonymous": false,
      "inputs": [
        {
          "indexed": true,
          "internalType": "address",
          "name": "from",
          "type": "address"
        },
        {
          "indexed": true,
          "internalType": "address",
          "name": "to",
          "type": "address"
        },
        {
          "indexed": false,
          "internalType": "uint256",
          "name": "value",
          "type": "uint256"
        }
      ],
      "name": "Transfer",
      "type": "event"
    },
    {
      "inputs": [],
      "name": "DEFAULT_ADMIN_ROLE",
      "outputs": [
        {
          "internalType": "bytes32",
          "name": "",
          "type": "bytes32"
        }
      ],
      "stateMutability": "view",
      "type": "function"
    },
    {
      "inputs": [],
      "name": "DOMAIN_SEPARATOR",
      "outputs": [
        {
          "internalType": "bytes32",
          "name": "",
          "type": "bytes32"
        }
      ],
      "stateMutability": "view",
      "type": "function"
    },
    {
      "inputs": [],
      "name": "MINTER_ROLE",
      "outputs": [
        {
          "internalType": "bytes32",
          "name": "",
          "type": "bytes32"
        }
      ],
      "stateMutability": "view",
      "type": "function"
    },
    {
      "inputs": [],
      "name": "SNAPSHOT_ROLE",
      "outputs": [
        {
          "internalType": "bytes32",
          "name": "",
          "type": "bytes32"
        }
      ],
      "stateMutability": "view",
      "type": "function"
    },
    {
      "inputs": [],
      "name": "_INTERFACE_ID_ERC20",
      "outputs": [
        {
          "internalType": "bytes4",
          "name": "",
          "type": "bytes4"
        }
      ],
      "stateMutability": "view",
      "type": "function"
    },
    {
      "inputs": [],
      "name": "_PERMIT_TYPEHASH",
      "outputs": [
        {
          "internalType": "bytes32",
          "name": "",
          "type": "bytes32"
        }
      ],
      "stateMutability": "view",
      "type": "function"
    },
    {
      "inputs": [
        {
          "internalType": "address",
          "name": "",
          "type": "address"
        }
      ],
      "name": "_nonces",
      "outputs": [
        {
          "internalType": "uint256",
          "name": "_value",
          "type": "uint256"
        }
      ],
      "stateMutability": "view",
      "type": "function"
    },
    {
      "inputs": [
        {
          "internalType": "bytes4",
          "name": "",
          "type": "bytes4"
        }
      ],
      "name": "_supportedInterfaces",
      "outputs": [
        {
          "internalType": "bool",
          "name": "",
          "type": "bool"
        }
      ],
      "stateMutability": "view",
      "type": "function"
    },
    {
      "inputs": [
        {
          "internalType": "address",
          "name": "owner",
          "type": "address"
        },
        {
          "internalType": "address",
          "name": "spender",
          "type": "address"
        }
      ],
      "name": "allowance",
      "outputs": [
        {
          "internalType": "uint256",
          "name": "",
          "type": "uint256"
        }
      ],
      "stateMutability": "view",
      "type": "function"
    },
    {
      "inputs": [
        {
          "internalType": "address",
          "name": "spender",
          "type": "address"
        },
        {
          "internalType": "uint256",
          "name": "amount",
          "type": "uint256"
        }
      ],
      "name": "approve",
      "outputs": [
        {
          "internalType": "bool",
          "name": "",
          "type": "bool"
        }
      ],
      "stateMutability": "nonpayable",
      "type": "function"
    },
    {
      "inputs": [
        {
          "internalType": "address",
          "name": "spender",
          "type": "address"
        },
        {
          "internalType": "uint256",
          "name": "amount",
          "type": "uint256"
        },
        {
          "internalType": "bytes",
          "name": "data",
          "type": "bytes"
        }
      ],
      "name": "approveAndCall",
      "outputs": [
        {
          "internalType": "bool",
          "name": "",
          "type": "bool"
        }
      ],
      "stateMutability": "nonpayable",
      "type": "function"
    },
    {
      "inputs": [
        {
          "internalType": "address",
          "name": "account",
          "type": "address"
        }
      ],
      "name": "balanceOf",
      "outputs": [
        {
          "internalType": "uint256",
          "name": "",
          "type": "uint256"
        }
      ],
      "stateMutability": "view",
      "type": "function"
    },
    {
      "inputs": [
        {
          "internalType": "address",
          "name": "account",
          "type": "address"
        },
        {
          "internalType": "uint256",
          "name": "snapshotId",
          "type": "uint256"
        }
      ],
      "name": "balanceOfAt",
      "outputs": [
        {
          "internalType": "uint256",
          "name": "",
          "type": "uint256"
        }
      ],
      "stateMutability": "view",
      "type": "function"
    },
    {
      "inputs": [
        {
          "internalType": "uint256",
          "name": "amount",
          "type": "uint256"
        }
      ],
      "name": "burn",
      "outputs": [],
      "stateMutability": "nonpayable",
      "type": "function"
    },
    {
      "inputs": [
        {
          "internalType": "address",
          "name": "account",
          "type": "address"
        },
        {
          "internalType": "uint256",
          "name": "amount",
          "type": "uint256"
        }
      ],
      "name": "burnFrom",
      "outputs": [],
      "stateMutability": "nonpayable",
      "type": "function"
    },
    {
      "inputs": [],
      "name": "currentSnapshotId",
      "outputs": [
        {
          "internalType": "uint256",
          "name": "",
          "type": "uint256"
        }
      ],
      "stateMutability": "view",
      "type": "function"
    },
    {
      "inputs": [],
      "name": "decimals",
      "outputs": [
        {
          "internalType": "uint8",
          "name": "",
          "type": "uint8"
        }
      ],
      "stateMutability": "view",
      "type": "function"
    },
    {
      "inputs": [
        {
          "internalType": "address",
          "name": "spender",
          "type": "address"
        },
        {
          "internalType": "uint256",
          "name": "subtractedValue",
          "type": "uint256"
        }
      ],
      "name": "decreaseAllowance",
      "outputs": [
        {
          "internalType": "bool",
          "name": "",
          "type": "bool"
        }
      ],
      "stateMutability": "nonpayable",
      "type": "function"
    },
    {
      "inputs": [
        {
          "internalType": "bytes32",
          "name": "role",
          "type": "bytes32"
        }
      ],
      "name": "getRoleAdmin",
      "outputs": [
        {
          "internalType": "bytes32",
          "name": "",
          "type": "bytes32"
        }
      ],
      "stateMutability": "view",
      "type": "function"
    },
    {
      "inputs": [
        {
          "internalType": "bytes32",
          "name": "role",
          "type": "bytes32"
        },
        {
          "internalType": "address",
          "name": "account",
          "type": "address"
        }
      ],
      "name": "grantRole",
      "outputs": [],
      "stateMutability": "nonpayable",
      "type": "function"
    },
    {
      "inputs": [
        {
          "internalType": "bytes32",
          "name": "role",
          "type": "bytes32"
        },
        {
          "internalType": "address",
          "name": "account",
          "type": "address"
        }
      ],
      "name": "hasRole",
      "outputs": [
        {
          "internalType": "bool",
          "name": "",
          "type": "bool"
        }
      ],
      "stateMutability": "view",
      "type": "function"
    },
    {
      "inputs": [
        {
          "internalType": "address",
          "name": "spender",
          "type": "address"
        },
        {
          "internalType": "uint256",
          "name": "addedValue",
          "type": "uint256"
        }
      ],
      "name": "increaseAllowance",
      "outputs": [
        {
          "internalType": "bool",
          "name": "",
          "type": "bool"
        }
      ],
      "stateMutability": "nonpayable",
      "type": "function"
    },
    {
      "inputs": [
        {
          "internalType": "address",
          "name": "account",
          "type": "address"
        },
        {
          "internalType": "uint256",
          "name": "amount",
          "type": "uint256"
        }
      ],
      "name": "mint",
      "outputs": [
        {
          "internalType": "bool",
          "name": "",
          "type": "bool"
        }
      ],
      "stateMutability": "nonpayable",
      "type": "function"
    },
    {
      "inputs": [],
      "name": "name",
      "outputs": [
        {
          "internalType": "string",
          "name": "",
          "type": "string"
        }
      ],
      "stateMutability": "view",
      "type": "function"
    },
    {
      "inputs": [
        {
          "internalType": "address",
          "name": "owner",
          "type": "address"
        }
      ],
      "name": "nonces",
      "outputs": [
        {
          "internalType": "uint256",
          "name": "",
          "type": "uint256"
        }
      ],
      "stateMutability": "view",
      "type": "function"
    },
    {
      "inputs": [
        {
          "internalType": "address",
          "name": "owner",
          "type": "address"
        },
        {
          "internalType": "address",
          "name": "spender",
          "type": "address"
        },
        {
          "internalType": "uint256",
          "name": "value",
          "type": "uint256"
        },
        {
          "internalType": "uint256",
          "name": "deadline",
          "type": "uint256"
        },
        {
          "internalType": "uint8",
          "name": "v",
          "type": "uint8"
        },
        {
          "internalType": "bytes32",
          "name": "r",
          "type": "bytes32"
        },
        {
          "internalType": "bytes32",
          "name": "s",
          "type": "bytes32"
        }
      ],
      "name": "permit",
      "outputs": [],
      "stateMutability": "nonpayable",
      "type": "function"
    },
    {
      "inputs": [
        {
          "internalType": "bytes32",
          "name": "role",
          "type": "bytes32"
        },
        {
          "internalType": "address",
          "name": "account",
          "type": "address"
        }
      ],
      "name": "renounceRole",
      "outputs": [],
      "stateMutability": "nonpayable",
      "type": "function"
    },
    {
      "inputs": [
        {
          "internalType": "bytes32",
          "name": "role",
          "type": "bytes32"
        },
        {
          "internalType": "address",
          "name": "account",
          "type": "address"
        }
      ],
      "name": "revokeRole",
      "outputs": [],
      "stateMutability": "nonpayable",
      "type": "function"
    },
    {
      "inputs": [
        {
          "internalType": "address",
          "name": "recipient",
          "type": "address"
        },
        {
          "internalType": "uint256",
          "name": "amount",
          "type": "uint256"
        }
      ],
      "name": "safeTransfer",
      "outputs": [],
      "stateMutability": "nonpayable",
      "type": "function"
    },
    {
      "inputs": [
        {
          "internalType": "address",
          "name": "recipient",
          "type": "address"
        },
        {
          "internalType": "uint256",
          "name": "amount",
          "type": "uint256"
        },
        {
          "internalType": "bytes",
          "name": "data",
          "type": "bytes"
        }
      ],
      "name": "safeTransfer",
      "outputs": [],
      "stateMutability": "nonpayable",
      "type": "function"
    },
    {
      "inputs": [
        {
          "internalType": "address",
          "name": "sender",
          "type": "address"
        },
        {
          "internalType": "address",
          "name": "recipient",
          "type": "address"
        },
        {
          "internalType": "uint256",
          "name": "amount",
          "type": "uint256"
        }
      ],
      "name": "safeTransferFrom",
      "outputs": [],
      "stateMutability": "nonpayable",
      "type": "function"
    },
    {
      "inputs": [
        {
          "internalType": "address",
          "name": "sender",
          "type": "address"
        },
        {
          "internalType": "address",
          "name": "recipient",
          "type": "address"
        },
        {
          "internalType": "uint256",
          "name": "amount",
          "type": "uint256"
        },
        {
          "internalType": "bytes",
          "name": "data",
          "type": "bytes"
        }
      ],
      "name": "safeTransferFrom",
      "outputs": [],
      "stateMutability": "nonpayable",
      "type": "function"
    },
    {
      "inputs": [],
      "name": "snapshot",
      "outputs": [
        {
          "internalType": "uint256",
          "name": "",
          "type": "uint256"
        }
      ],
      "stateMutability": "nonpayable",
      "type": "function"
    },
    {
      "inputs": [
        {
          "internalType": "bytes4",
          "name": "interfaceId",
          "type": "bytes4"
        }
      ],
      "name": "supportsInterface",
      "outputs": [
        {
          "internalType": "bool",
          "name": "",
          "type": "bool"
        }
      ],
      "stateMutability": "view",
      "type": "function"
    },
    {
      "inputs": [],
      "name": "symbol",
      "outputs": [
        {
          "internalType": "string",
          "name": "",
          "type": "string"
        }
      ],
      "stateMutability": "view",
      "type": "function"
    },
    {
      "inputs": [],
      "name": "totalSupply",
      "outputs": [
        {
          "internalType": "uint256",
          "name": "",
          "type": "uint256"
        }
      ],
      "stateMutability": "view",
      "type": "function"
    },
    {
      "inputs": [
        {
          "internalType": "uint256",
          "name": "snapshotId",
          "type": "uint256"
        }
      ],
      "name": "totalSupplyAt",
      "outputs": [
        {
          "internalType": "uint256",
          "name": "",
          "type": "uint256"
        }
      ],
      "stateMutability": "view",
      "type": "function"
    },
    {
      "inputs": [
        {
          "internalType": "address",
          "name": "recipient",
          "type": "address"
        },
        {
          "internalType": "uint256",
          "name": "amount",
          "type": "uint256"
        }
      ],
      "name": "transfer",
      "outputs": [
        {
          "internalType": "bool",
          "name": "",
          "type": "bool"
        }
      ],
      "stateMutability": "nonpayable",
      "type": "function"
    },
    {
      "inputs": [
        {
          "internalType": "address",
          "name": "sender",
          "type": "address"
        },
        {
          "internalType": "address",
          "name": "recipient",
          "type": "address"
        },
        {
          "internalType": "uint256",
          "name": "amount",
          "type": "uint256"
        }
      ],
      "name": "transferFrom",
      "outputs": [
        {
          "internalType": "bool",
          "name": "",
          "type": "bool"
        }
      ],
      "stateMutability": "nonpayable",
      "type": "function"
    }
  ],
  "bytecode": "0x6101606040527f6e71edae12b1b97f4d1f60370fef10105fa2faae0126114a169c64845d6126c9610140523480156200003757600080fd5b5060405162002fef38038062002fef8339810160408190526200005a91620006f0565b83604051806040016040528060018152602001603160f81b8152508181878781600490805190602001906200009192919062000597565b508051620000a790600590602084019062000597565b50620000be91506380ac58cd60e01b9050620001e5565b815160208084019190912082518383012060e08290526101008190524660a0818152604080517f8b73c3c69bb8fe3d512ecc4cf759cc79239f7b179b0ffacaa9a75d522b39400f81880181905281830187905260608201869052608082019490945230818401528151808203909301835260c00190528051940193909320919290916080523060601b60c0526101205250620001649450859350869250506200026a9050565b620001716000826200035e565b6200019d7f9f2df0fed2c77648de5860a4cc508cd0818c85b8b8a1ab4ceeef8d981c8956a6826200035e565b620001c97f5fdbd35e8da83ee755d5e62a539e5ed7f47126abede0b8b10f9ea43dc6eed07f826200035e565b620001db634fc3585960e01b620001e5565b505050506200081f565b6001600160e01b03198082161415620002455760405162461bcd60e51b815260206004820152601c60248201527f4552433136353a20696e76616c696420696e746572666163652069640000000060448201526064015b60405180910390fd5b6001600160e01b0319166000908152600660205260409020805460ff19166001179055565b6001600160a01b038216620002c25760405162461bcd60e51b815260206004820152601f60248201527f45524332303a206d696e7420746f20746865207a65726f20616464726573730060448201526064016200023c565b620002d0600083836200036a565b8060036000828254620002e4919062000781565b90915550506001600160a01b038216600090815260016020526040812080548392906200031390849062000781565b90915550506040518181526001600160a01b038316906000907fddf252ad1be2c89b69c2b068fc378daa952ba7f163c4a11628f55a4df523b3ef9060200160405180910390a35b5050565b6200035a8282620003db565b62000382838383620003a660201b6200073a1760201c565b6001600160a01b038316620003ab576200039c826200047b565b620003a6620004c0565b505050565b6001600160a01b038216620003c5576200039c836200047b565b620003d0836200047b565b620003a6826200047b565b6000828152602081815260408083206001600160a01b038516845290915290205460ff166200035a576000828152602081815260408083206001600160a01b03851684529091529020805460ff19166001179055620004373390565b6001600160a01b0316816001600160a01b0316837f2f8788117e7eff1d82e926ec794901d17c78024a50270940304540a733656f0d60405160405180910390a45050565b620004bd6200049e826001600160a01b0316600090815260086020526040902090565b6001600160a01b038316600090815260016020526040902054620004d1565b50565b620004cf6009600354620004d1565b565b6000620004dd62000520565b905080620004eb846200053e565b1015620003a6578254600180820185556000858152602080822090930193909355938401805494850181558252902090910155565b600062000539600b6200059360201b62000b901760201c565b905090565b80546000906200055057506000919050565b8154829062000562906001906200079c565b815481106200058157634e487b7160e01b600052603260045260246000fd5b90600052602060002001549050919050565b5490565b828054620005a590620007b6565b90600052602060002090601f016020900481019282620005c9576000855562000614565b82601f10620005e457805160ff191683800117855562000614565b8280016001018555821562000614579182015b8281111562000614578251825591602001919060010190620005f7565b506200062292915062000626565b5090565b5b8082111562000622576000815560010162000627565b600082601f8301126200064e578081fd5b81516001600160401b03808211156200066b576200066b62000809565b604051601f8301601f19908116603f0116810190828211818310171562000696576200069662000809565b81604052838152602092508683858801011115620006b2578485fd5b8491505b83821015620006d55785820183015181830184015290820190620006b6565b83821115620006e657848385830101525b9695505050505050565b6000806000806080858703121562000706578384fd5b84516001600160401b03808211156200071d578586fd5b6200072b888389016200063d565b9550602087015191508082111562000741578485fd5b5062000750878288016200063d565b60408701516060880151919550935090506001600160a01b038116811462000776578182fd5b939692955090935050565b60008219821115620007975762000797620007f3565b500190565b600082821015620007b157620007b1620007f3565b500390565b600181811c90821680620007cb57607f821691505b60208210811415620007ed57634e487b7160e01b600052602260045260246000fd5b50919050565b634e487b7160e01b600052601160045260246000fd5b634e487b7160e01b600052604160045260246000fd5b60805160a05160c05160601c60e05161010051610120516101405161276b620008846000396000818161043901526116b201526000611026015260006110750152600061105001526000610fa901526000610fd301526000610ffd015261276b6000f3fe608060405234801561001057600080fd5b506004361061022d5760003560e01c80637ecebe001161013b578063a9059cbb116100b8578063d53913931161007c578063d5391393146104e2578063d547741f14610509578063dd62ed3e1461051c578063eb79554914610555578063ef1944351461056857600080fd5b8063a9059cbb14610476578063b88d4fde14610489578063b9844d8d1461049c578063cae9ca51146104bc578063d505accf146104cf57600080fd5b80639711715a116100ff5780639711715a14610419578063981b24d014610421578063982aaf6b14610434578063a217fddf1461045b578063a457c2d71461046357600080fd5b80637ecebe00146103c857806391d14854146103db5780639321478c146103ee57806395d89b4114610409578063970875ce1461041157600080fd5b806336568abe116101c957806342966c681161018d57806342966c68146103555780634ee2cd7e146103685780637028e2cd1461037b57806370a08231146103a257806379cc6790146103b557600080fd5b806336568abe146102f6578063395093511461030957806340c10f191461031c578063423f6cef1461032f57806342842e0e1461034257600080fd5b806301ffc9a71461023257806306fdde031461025a578063095ea7b31461026f57806318160ddd1461028257806323b872dd14610294578063248a9ca3146102a75780632f2ff15d146102ca578063313ce567146102df5780633644e515146102ee575b600080fd5b610245610240366004612453565b61058b565b60405190151581526020015b60405180910390f35b6102626105bd565b604051610251919061258a565b61024561027d36600461237b565b61064f565b6003545b604051908152602001610251565b6102456102a2366004612269565b610665565b6102866102b5366004612419565b60009081526020819052604090206001015490565b6102dd6102d8366004612431565b610714565b005b60405160128152602001610251565b61028661073f565b6102dd610304366004612431565b61074e565b61024561031736600461237b565b6107cc565b61024561032a36600461237b565b610808565b6102dd61033d36600461237b565b610849565b6102dd610350366004612269565b610863565b6102dd610363366004612419565b61087e565b61028661037636600461237b565b61088b565b6102867f5fdbd35e8da83ee755d5e62a539e5ed7f47126abede0b8b10f9ea43dc6eed07f81565b6102866103b036600461221d565b6108bc565b6102dd6103c336600461237b565b6108d7565b6102866103d636600461221d565b610958565b6102456103e9366004612431565b610976565b6103fc6380ac58cd60e01b81565b6040516102519190612575565b61026261099f565b6102866109ae565b6102866109b9565b61028661042f366004612419565b6109f4565b6102867f000000000000000000000000000000000000000000000000000000000000000081565b610286600081565b61024561047136600461237b565b610a1d565b61024561048436600461237b565b610aac565b6102dd6104973660046122a4565b610ab9565b6102866104aa36600461221d565b60076020526000908152604090205481565b6102456104ca3660046123a4565b610af3565b6102dd6104dd36600461230a565b610b14565b6102867f9f2df0fed2c77648de5860a4cc508cd0818c85b8b8a1ab4ceeef8d981c8956a681565b6102dd610517366004612431565b610b37565b61028661052a366004612237565b6001600160a01b03918216600090815260026020908152604080832093909416825291909152205490565b6102dd6105633660046123a4565b610b5d565b610245610576366004612453565b60066020526000908152604090205460ff1681565b6001600160e01b0319811660009081526006602052604081205460ff16806105b757506105b782610b94565b92915050565b6060600480546105cc9061269e565b80601f01602080910402602001604051908101604052809291908181526020018280546105f89061269e565b80156106455780601f1061061a57610100808354040283529160200191610645565b820191906000526020600020905b81548152906001019060200180831161062857829003601f168201915b5050505050905090565b600061065c338484610bc9565b50600192915050565b6000610672848484610ced565b6001600160a01b0384166000908152600260209081526040808320338452909152902054828110156106fc5760405162461bcd60e51b815260206004820152602860248201527f45524332303a207472616e7366657220616d6f756e74206578636565647320616044820152676c6c6f77616e636560c01b60648201526084015b60405180910390fd5b6107098533858403610bc9565b506001949350505050565b6000828152602081905260409020600101546107308133610eb4565b61073a8383610f18565b505050565b6000610749610f9c565b905090565b6001600160a01b03811633146107be5760405162461bcd60e51b815260206004820152602f60248201527f416363657373436f6e74726f6c3a2063616e206f6e6c792072656e6f756e636560448201526e103937b632b9903337b91039b2b63360891b60648201526084016106f3565b6107c882826110c3565b5050565b3360008181526002602090815260408083206001600160a01b0387168452909152812054909161065c9185906108039086906125ed565b610bc9565b60007f9f2df0fed2c77648de5860a4cc508cd0818c85b8b8a1ab4ceeef8d981c8956a66108358133610eb4565b61083f8484611128565b5060019392505050565b6107c8828260405180602001604052806000815250610b5d565b61073a83838360405180602001604052806000815250610ab9565b6108883382611201565b50565b600080600061089a8585611349565b91509150816108b1576108ac856108bc565b6108b3565b805b95945050505050565b6001600160a01b031660009081526001602052604090205490565b60006108e3833361052a565b9050818110156109415760405162461bcd60e51b8152602060048201526024808201527f45524332303a206275726e20616d6f756e74206578636565647320616c6c6f77604482015263616e636560e01b60648201526084016106f3565b61094e8333848403610bc9565b61073a8383611201565b6001600160a01b0381166000908152600760205260408120546105b7565b6000918252602082815260408084206001600160a01b0393909316845291905290205460ff1690565b6060600580546105cc9061269e565b6000610749600b5490565b60007f5fdbd35e8da83ee755d5e62a539e5ed7f47126abede0b8b10f9ea43dc6eed07f6109e68133610eb4565b6109ee611381565b91505090565b6000806000610a02846113db565b9150915081610a1357600354610a15565b805b949350505050565b3360009081526002602090815260408083206001600160a01b038616845290915281205482811015610a9f5760405162461bcd60e51b815260206004820152602560248201527f45524332303a2064656372656173656420616c6c6f77616e63652062656c6f77604482015264207a65726f60d81b60648201526084016106f3565b61083f3385858403610bc9565b600061065c338484610ced565b610ac4848484610665565b50610ad1848484846113f8565b610aed5760405162461bcd60e51b81526004016106f39061259d565b50505050565b6000610aff848461064f565b610b0857600080fd5b61083f338585856114b6565b610b238787878787878761165e565b610b2e878787610bc9565b50505050505050565b600082815260208190526040902060010154610b538133610eb4565b61073a83836110c3565b610b678383610aac565b50610b74338484846113f8565b61073a5760405162461bcd60e51b81526004016106f39061259d565b5490565b60006001600160e01b03198216637965db0b60e01b14806105b757506301ffc9a760e01b6001600160e01b03198316146105b7565b6001600160a01b038316610c2b5760405162461bcd60e51b8152602060048201526024808201527f45524332303a20617070726f76652066726f6d20746865207a65726f206164646044820152637265737360e01b60648201526084016106f3565b6001600160a01b038216610c8c5760405162461bcd60e51b815260206004820152602260248201527f45524332303a20617070726f766520746f20746865207a65726f206164647265604482015261737360f01b60648201526084016106f3565b6001600160a01b0383811660008181526002602090815260408083209487168084529482529182902085905590518481527f8c5be1e5ebec7d5bd14f71427d1e84f3dd0314c0f7b2291e5b200ac8c7c3b925910160405180910390a3505050565b6001600160a01b038316610d515760405162461bcd60e51b815260206004820152602560248201527f45524332303a207472616e736665722066726f6d20746865207a65726f206164604482015264647265737360d81b60648201526084016106f3565b6001600160a01b038216610db35760405162461bcd60e51b815260206004820152602360248201527f45524332303a207472616e7366657220746f20746865207a65726f206164647260448201526265737360e81b60648201526084016106f3565b610dbe8383836117b7565b6001600160a01b03831660009081526001602052604090205481811015610e365760405162461bcd60e51b815260206004820152602660248201527f45524332303a207472616e7366657220616d6f756e7420657863656564732062604482015265616c616e636560d01b60648201526084016106f3565b6001600160a01b03808516600090815260016020526040808220858503905591851681529081208054849290610e6d9084906125ed565b92505081905550826001600160a01b0316846001600160a01b031660008051602061271683398151915284604051610ea791815260200190565b60405180910390a3610aed565b610ebe8282610976565b6107c857610ed6816001600160a01b031660146117ff565b610ee18360206117ff565b604051602001610ef29291906124d3565b60408051601f198184030181529082905262461bcd60e51b82526106f39160040161258a565b610f228282610976565b6107c8576000828152602081815260408083206001600160a01b03851684529091529020805460ff19166001179055610f583390565b6001600160a01b0316816001600160a01b0316837f2f8788117e7eff1d82e926ec794901d17c78024a50270940304540a733656f0d60405160405180910390a45050565b6000306001600160a01b037f000000000000000000000000000000000000000000000000000000000000000016148015610ff557507f000000000000000000000000000000000000000000000000000000000000000046145b1561101f57507f000000000000000000000000000000000000000000000000000000000000000090565b50604080517f00000000000000000000000000000000000000000000000000000000000000006020808301919091527f0000000000000000000000000000000000000000000000000000000000000000828401527f000000000000000000000000000000000000000000000000000000000000000060608301524660808301523060a0808401919091528351808403909101815260c0909201909252805191012090565b6110cd8282610976565b156107c8576000828152602081815260408083206001600160a01b0385168085529252808320805460ff1916905551339285917ff6391f5c32d9c69d2a47ea670b442974b53935d1edc7fd64eb21e047a839171b9190a45050565b6001600160a01b03821661117e5760405162461bcd60e51b815260206004820152601f60248201527f45524332303a206d696e7420746f20746865207a65726f20616464726573730060448201526064016106f3565b61118a600083836117b7565b806003600082825461119c91906125ed565b90915550506001600160a01b038216600090815260016020526040812080548392906111c99084906125ed565b90915550506040518181526001600160a01b038316906000906000805160206127168339815191529060200160405180910390a35050565b6001600160a01b0382166112615760405162461bcd60e51b815260206004820152602160248201527f45524332303a206275726e2066726f6d20746865207a65726f206164647265736044820152607360f81b60648201526084016106f3565b61126d826000836117b7565b6001600160a01b038216600090815260016020526040902054818110156112e15760405162461bcd60e51b815260206004820152602260248201527f45524332303a206275726e20616d6f756e7420657863656564732062616c616e604482015261636560f01b60648201526084016106f3565b6001600160a01b0383166000908152600160205260408120838303905560038054849290611310908490612644565b90915550506040518281526000906001600160a01b038516906000805160206127168339815191529060200160405180910390a3505050565b6001600160a01b03821660009081526008602052604081208190819081906113729086906119e8565b909450925050505b9250929050565b6000611391600b80546001019055565b600061139b6109ae565b90507f8030e83b04d87bef53480e26263266d6ca66863aa8506aca6f2559d18aa1cb67816040516113ce91815260200190565b60405180910390a1919050565b6000806000806113ec8560096119e8565b90969095509350505050565b60006001600160a01b0384163b61141157506001610a15565b604051634fc3585960e01b81526000906001600160a01b03861690634fc35859906114469033908a9089908990600401612542565b602060405180830381600087803b15801561146057600080fd5b505af1158015611474573d6000803e3d6000fd5b505050506040513d601f19601f82011682018060405250810190611498919061246f565b6001600160e01b031916634fc3585960e01b14915050949350505050565b632139e50b60e11b6114c88482611aea565b61152e5760405162461bcd60e51b815260206004820152603160248201527f617070726f7665416e6443616c6c3a207370656e64657220646f65736e277420604482015270737570706f7274206f6e417070726f766560781b60648201526084016106f3565b600080856001600160a01b031683888888886040516024016115539493929190612542565b60408051601f198184030181529181526020820180516001600160e01b03166001600160e01b031990941693909317909252905161159191906124b7565b6000604051808303816000865af19150503d80600081146115ce576040519150601f19603f3d011682016040523d82523d6000602084013e6115d3565b606091505b50915091508181906115f85760405162461bcd60e51b81526004016106f3919061258a565b506020810151915081610b2e5760405162461bcd60e51b815260206004820152602860248201527f617070726f7665416e6443616c6c3a206661696c656420746f2063616c6c206f6044820152676e417070726f766560c01b60648201526084016106f3565b834211156116ae5760405162461bcd60e51b815260206004820152601d60248201527f45524332305065726d69743a206578706972656420646561646c696e6500000060448201526064016106f3565b60007f00000000000000000000000000000000000000000000000000000000000000008888886116dd8c611b06565b6040805160208101969096526001600160a01b0394851690860152929091166060840152608083015260a082015260c0810186905260e001604051602081830303815290604052805190602001209050600061173882611b2e565b9050600061174882878787611b7c565b9050896001600160a01b0316816001600160a01b0316146117ab5760405162461bcd60e51b815260206004820152601e60248201527f45524332305065726d69743a20696e76616c6964207369676e6174757265000060448201526064016106f3565b50505050505050505050565b6001600160a01b0383166117d6576117ce82611ba4565b61073a611bd3565b6001600160a01b0382166117ed576117ce83611ba4565b6117f683611ba4565b61073a82611ba4565b6060600061180e836002612625565b6118199060026125ed565b67ffffffffffffffff81111561183f57634e487b7160e01b600052604160045260246000fd5b6040519080825280601f01601f191660200182016040528015611869576020820181803683370190505b509050600360fc1b8160008151811061189257634e487b7160e01b600052603260045260246000fd5b60200101906001600160f81b031916908160001a905350600f60fb1b816001815181106118cf57634e487b7160e01b600052603260045260246000fd5b60200101906001600160f81b031916908160001a90535060006118f3846002612625565b6118fe9060016125ed565b90505b6001811115611992576f181899199a1a9b1b9c1cb0b131b232b360811b85600f166010811061194057634e487b7160e01b600052603260045260246000fd5b1a60f81b82828151811061196457634e487b7160e01b600052603260045260246000fd5b60200101906001600160f81b031916908160001a90535060049490941c9361198b81612687565b9050611901565b5083156119e15760405162461bcd60e51b815260206004820181905260248201527f537472696e67733a20686578206c656e67746820696e73756666696369656e7460448201526064016106f3565b9392505050565b60008060008411611a345760405162461bcd60e51b815260206004820152601660248201527504552433230536e617073686f743a20696420697320360541b60448201526064016106f3565b611a3c6109ae565b841115611a8b5760405162461bcd60e51b815260206004820152601d60248201527f4552433230536e617073686f743a206e6f6e6578697374656e7420696400000060448201526064016106f3565b6000611a978486611be2565b8454909150811415611ab057600080925092505061137a565b6001846001018281548110611ad557634e487b7160e01b600052603260045260246000fd5b9060005260206000200154925092505061137a565b6000611af583611cc1565b80156119e157506119e18383611cf4565b6001600160a01b03811660009081526007602052604090208054600181018255905b50919050565b60006105b7611b3b610f9c565b8360405161190160f01b6020820152602281018390526042810182905260009060620160405160208183030381529060405280519060200120905092915050565b6000806000611b8d87878787611de5565b91509150611b9a81611ec8565b5095945050505050565b610888611bc5826001600160a01b0316600090815260086020526040902090565b611bce836108bc565b6120c4565b611be060096003546120c4565b565b8154600090611bf3575060006105b7565b82546000905b80821015611c5d576000611c0d838361210e565b905084868281548110611c3057634e487b7160e01b600052603260045260246000fd5b90600052602060002001541115611c4957809150611c57565b611c548160016125ed565b92505b50611bf9565b600082118015611ca057508385611c75600185612644565b81548110611c9357634e487b7160e01b600052603260045260246000fd5b9060005260206000200154145b15611cb957611cb0600183612644565b925050506105b7565b5090506105b7565b6000611cd4826301ffc9a760e01b611cf4565b80156105b75750611ced826001600160e01b0319611cf4565b1592915050565b6000806301ffc9a760e01b83604051602401611d109190612575565b604051602081830303815290604052906001600160e01b0319166020820180516001600160e01b0383818316178352505050509050600080856001600160a01b031661753084604051611d6391906124b7565b6000604051808303818686fa925050503d8060008114611d9f576040519150601f19603f3d011682016040523d82523d6000602084013e611da4565b606091505b5091509150602081511015611dbf57600093505050506105b7565b818015611ddb575080806020019051810190611ddb91906123f9565b9695505050505050565b6000806fa2a8918ca85bafe22016d0b997e4df60600160ff1b03831115611e125750600090506003611ebf565b8460ff16601b14158015611e2a57508460ff16601c14155b15611e3b5750600090506004611ebf565b6040805160008082526020820180845289905260ff881692820192909252606081018690526080810185905260019060a0016020604051602081039080840390855afa158015611e8f573d6000803e3d6000fd5b5050604051601f1901519150506001600160a01b038116611eb857600060019250925050611ebf565b9150600090505b94509492505050565b6000816004811115611eea57634e487b7160e01b600052602160045260246000fd5b1415611ef35750565b6001816004811115611f1557634e487b7160e01b600052602160045260246000fd5b1415611f5e5760405162461bcd60e51b815260206004820152601860248201527745434453413a20696e76616c6964207369676e617475726560401b60448201526064016106f3565b6002816004811115611f8057634e487b7160e01b600052602160045260246000fd5b1415611fce5760405162461bcd60e51b815260206004820152601f60248201527f45434453413a20696e76616c6964207369676e6174757265206c656e6774680060448201526064016106f3565b6003816004811115611ff057634e487b7160e01b600052602160045260246000fd5b14156120495760405162461bcd60e51b815260206004820152602260248201527f45434453413a20696e76616c6964207369676e6174757265202773272076616c604482015261756560f01b60648201526084016106f3565b600481600481111561206b57634e487b7160e01b600052602160045260246000fd5b14156108885760405162461bcd60e51b815260206004820152602260248201527f45434453413a20696e76616c6964207369676e6174757265202776272076616c604482015261756560f01b60648201526084016106f3565b60006120ce6109ae565b9050806120da84612129565b101561073a578254600180820185556000858152602080822090930193909355938401805494850181558252902090910155565b600061211d6002848418612605565b6119e1908484166125ed565b805460009061213a57506000919050565b8154829061214a90600190612644565b8154811061216857634e487b7160e01b600052603260045260246000fd5b90600052602060002001549050919050565b919050565b80356001600160a01b038116811461217a57600080fd5b600082601f8301126121a6578081fd5b813567ffffffffffffffff808211156121c1576121c16126e9565b604051601f8301601f19908116603f011681019082821181831017156121e9576121e96126e9565b81604052838152866020858801011115612201578485fd5b8360208701602083013792830160200193909352509392505050565b60006020828403121561222e578081fd5b6119e18261217f565b60008060408385031215612249578081fd5b6122528361217f565b91506122606020840161217f565b90509250929050565b60008060006060848603121561227d578081fd5b6122868461217f565b92506122946020850161217f565b9150604084013590509250925092565b600080600080608085870312156122b9578081fd5b6122c28561217f565b93506122d06020860161217f565b925060408501359150606085013567ffffffffffffffff8111156122f2578182fd5b6122fe87828801612196565b91505092959194509250565b600080600080600080600060e0888a031215612324578283fd5b61232d8861217f565b965061233b6020890161217f565b95506040880135945060608801359350608088013560ff8116811461235e578384fd5b9699959850939692959460a0840135945060c09093013592915050565b6000806040838503121561238d578182fd5b6123968361217f565b946020939093013593505050565b6000806000606084860312156123b8578283fd5b6123c18461217f565b925060208401359150604084013567ffffffffffffffff8111156123e3578182fd5b6123ef86828701612196565b9150509250925092565b60006020828403121561240a578081fd5b815180151581146119e1578182fd5b60006020828403121561242a578081fd5b5035919050565b60008060408385031215612443578182fd5b823591506122606020840161217f565b600060208284031215612464578081fd5b81356119e1816126ff565b600060208284031215612480578081fd5b81516119e1816126ff565b600081518084526124a381602086016020860161265b565b601f01601f19169290920160200192915050565b600082516124c981846020870161265b565b9190910192915050565b76020b1b1b2b9b9a1b7b73a3937b61d1030b1b1b7bab73a1604d1b81526000835161250581601785016020880161265b565b7001034b99036b4b9b9b4b733903937b6329607d1b601791840191820152835161253681602884016020880161265b565b01602801949350505050565b6001600160a01b0385811682528416602082015260408101839052608060608201819052600090611ddb9083018461248b565b6001600160e01b031991909116815260200190565b6020815260006119e1602083018461248b565b60208082526030908201527f45524332303a207472616e7366657220746f206e6f6e2045524332305265636560408201526f34bb32b91034b6b83632b6b2b73a32b960811b606082015260800190565b60008219821115612600576126006126d3565b500190565b60008261262057634e487b7160e01b81526012600452602481fd5b500490565b600081600019048311821515161561263f5761263f6126d3565b500290565b600082821015612656576126566126d3565b500390565b60005b8381101561267657818101518382015260200161265e565b83811115610aed5750506000910152565b600081612696576126966126d3565b506000190190565b600181811c908216806126b257607f821691505b60208210811415611b2857634e487b7160e01b600052602260045260246000fd5b634e487b7160e01b600052601160045260246000fd5b634e487b7160e01b600052604160045260246000fd5b6001600160e01b03198116811461088857600080fdfeddf252ad1be2c89b69c2b068fc378daa952ba7f163c4a11628f55a4df523b3efa264697066735822122094bea00ed5b6c834ff4bf16da76e3043800e7feee983b1ea9309192ba4937c7064736f6c63430008040033",
  "linkReferences": {},
  "deployedLinkReferences": {}
}