{
  "_format": "hh-sol-artifact-1",
  "contractName": "ERC20Recorder",
  "sourceName": "contracts/tokens/ERC20Recorder.sol",
  "abi": [
    {
      "inputs": [
        {
          "internalType": "string",
          "name": "_name",
          "type": "string"
        },
        {
          "internalType": "string",
          "name": "_symbol",
          "type": "string"
        },
        {
          "internalType": "address",
          "name": "_owner",
          "type": "address"
        },
        {
          "internalType": "address",
          "name": "_depositManager",
          "type": "address"
        }
      ],
      "stateMutability": "nonpayable",
      "type": "constructor"
    },
    {
      "anonymous": false,
      "inputs": [
        {
          "indexed": true,
          "internalType": "address",
          "name": "owner",
          "type": "address"
        },
        {
          "indexed": true,
          "internalType": "address",
          "name": "spender",
          "type": "address"
        },
        {
          "indexed": false,
          "internalType": "uint256",
          "name": "value",
          "type": "uint256"
        }
      ],
      "name": "Approval",
      "type": "event"
    },
    {
      "anonymous": false,
      "inputs": [
        {
          "indexed": true,
          "internalType": "bytes32",
          "name": "role",
          "type": "bytes32"
        },
        {
          "indexed": true,
          "internalType": "bytes32",
          "name": "previousAdminRole",
          "type": "bytes32"
        },
        {
          "indexed": true,
          "internalType": "bytes32",
          "name": "newAdminRole",
          "type": "bytes32"
        }
      ],
      "name": "RoleAdminChanged",
      "type": "event"
    },
    {
      "anonymous": false,
      "inputs": [
        {
          "indexed": true,
          "internalType": "bytes32",
          "name": "role",
          "type": "bytes32"
        },
        {
          "indexed": true,
          "internalType": "address",
          "name": "account",
          "type": "address"
        },
        {
          "indexed": true,
          "internalType": "address",
          "name": "sender",
          "type": "address"
        }
      ],
      "name": "RoleGranted",
      "type": "event"
    },
    {
      "anonymous": false,
      "inputs": [
        {
          "indexed": true,
          "internalType": "bytes32",
          "name": "role",
          "type": "bytes32"
        },
        {
          "indexed": true,
          "internalType": "address",
          "name": "account",
          "type": "address"
        },
        {
          "indexed": true,
          "internalType": "address",
          "name": "sender",
          "type": "address"
        }
      ],
      "name": "RoleRevoked",
      "type": "event"
    },
    {
      "anonymous": false,
      "inputs": [
        {
          "indexed": false,
          "internalType": "uint256",
          "name": "id",
          "type": "uint256"
        }
      ],
      "name": "Snapshot",
      "type": "event"
    },
    {
      "anonymous": false,
      "inputs": [
        {
          "indexed": true,
          "internalType": "address",
          "name": "from",
          "type": "address"
        },
        {
          "indexed": true,
          "internalType": "address",
          "name": "to",
          "type": "address"
        },
        {
          "indexed": false,
          "internalType": "uint256",
          "name": "value",
          "type": "uint256"
        }
      ],
      "name": "Transfer",
      "type": "event"
    },
    {
      "inputs": [],
      "name": "BURNER_ROLE",
      "outputs": [
        {
          "internalType": "bytes32",
          "name": "",
          "type": "bytes32"
        }
      ],
      "stateMutability": "view",
      "type": "function"
    },
    {
      "inputs": [],
      "name": "DEFAULT_ADMIN_ROLE",
      "outputs": [
        {
          "internalType": "bytes32",
          "name": "",
          "type": "bytes32"
        }
      ],
      "stateMutability": "view",
      "type": "function"
    },
    {
      "inputs": [],
      "name": "MINTER_ROLE",
      "outputs": [
        {
          "internalType": "bytes32",
          "name": "",
          "type": "bytes32"
        }
      ],
      "stateMutability": "view",
      "type": "function"
    },
    {
      "inputs": [],
      "name": "SNAPSHOT_ROLE",
      "outputs": [
        {
          "internalType": "bytes32",
          "name": "",
          "type": "bytes32"
        }
      ],
      "stateMutability": "view",
      "type": "function"
    },
    {
      "inputs": [
        {
          "internalType": "address",
          "name": "owner",
          "type": "address"
        },
        {
          "internalType": "address",
          "name": "spender",
          "type": "address"
        }
      ],
      "name": "allowance",
      "outputs": [
        {
          "internalType": "uint256",
          "name": "",
          "type": "uint256"
        }
      ],
      "stateMutability": "view",
      "type": "function"
    },
    {
      "inputs": [
        {
          "internalType": "address",
          "name": "spender",
          "type": "address"
        },
        {
          "internalType": "uint256",
          "name": "amount",
          "type": "uint256"
        }
      ],
      "name": "approve",
      "outputs": [
        {
          "internalType": "bool",
          "name": "",
          "type": "bool"
        }
      ],
      "stateMutability": "nonpayable",
      "type": "function"
    },
    {
      "inputs": [
        {
          "internalType": "address",
          "name": "account",
          "type": "address"
        }
      ],
      "name": "balanceOf",
      "outputs": [
        {
          "internalType": "uint256",
          "name": "",
          "type": "uint256"
        }
      ],
      "stateMutability": "view",
      "type": "function"
    },
    {
      "inputs": [
        {
          "internalType": "address",
          "name": "account",
          "type": "address"
        },
        {
          "internalType": "uint256",
          "name": "snapshotId",
          "type": "uint256"
        }
      ],
      "name": "balanceOfAt",
      "outputs": [
        {
          "internalType": "uint256",
          "name": "",
          "type": "uint256"
        }
      ],
      "stateMutability": "view",
      "type": "function"
    },
    {
      "inputs": [
        {
          "internalType": "uint256",
          "name": "amount",
          "type": "uint256"
        }
      ],
      "name": "burn",
      "outputs": [],
      "stateMutability": "nonpayable",
      "type": "function"
    },
    {
      "inputs": [
        {
          "internalType": "address",
          "name": "account",
          "type": "address"
        },
        {
          "internalType": "uint256",
          "name": "amount",
          "type": "uint256"
        }
      ],
      "name": "burnFrom",
      "outputs": [
        {
          "internalType": "bool",
          "name": "",
          "type": "bool"
        }
      ],
      "stateMutability": "nonpayable",
      "type": "function"
    },
    {
      "inputs": [],
      "name": "currentSnapshotId",
      "outputs": [
        {
          "internalType": "uint256",
          "name": "",
          "type": "uint256"
        }
      ],
      "stateMutability": "view",
      "type": "function"
    },
    {
      "inputs": [],
      "name": "decimals",
      "outputs": [
        {
          "internalType": "uint8",
          "name": "",
          "type": "uint8"
        }
      ],
      "stateMutability": "view",
      "type": "function"
    },
    {
      "inputs": [
        {
          "internalType": "address",
          "name": "spender",
          "type": "address"
        },
        {
          "internalType": "uint256",
          "name": "subtractedValue",
          "type": "uint256"
        }
      ],
      "name": "decreaseAllowance",
      "outputs": [
        {
          "internalType": "bool",
          "name": "",
          "type": "bool"
        }
      ],
      "stateMutability": "nonpayable",
      "type": "function"
    },
    {
      "inputs": [
        {
          "internalType": "bytes32",
          "name": "role",
          "type": "bytes32"
        }
      ],
      "name": "getRoleAdmin",
      "outputs": [
        {
          "internalType": "bytes32",
          "name": "",
          "type": "bytes32"
        }
      ],
      "stateMutability": "view",
      "type": "function"
    },
    {
      "inputs": [
        {
          "internalType": "bytes32",
          "name": "role",
          "type": "bytes32"
        },
        {
          "internalType": "address",
          "name": "account",
          "type": "address"
        }
      ],
      "name": "grantRole",
      "outputs": [],
      "stateMutability": "nonpayable",
      "type": "function"
    },
    {
      "inputs": [
        {
          "internalType": "bytes32",
          "name": "role",
          "type": "bytes32"
        },
        {
          "internalType": "address",
          "name": "account",
          "type": "address"
        }
      ],
      "name": "hasRole",
      "outputs": [
        {
          "internalType": "bool",
          "name": "",
          "type": "bool"
        }
      ],
      "stateMutability": "view",
      "type": "function"
    },
    {
      "inputs": [
        {
          "internalType": "address",
          "name": "spender",
          "type": "address"
        },
        {
          "internalType": "uint256",
          "name": "addedValue",
          "type": "uint256"
        }
      ],
      "name": "increaseAllowance",
      "outputs": [
        {
          "internalType": "bool",
          "name": "",
          "type": "bool"
        }
      ],
      "stateMutability": "nonpayable",
      "type": "function"
    },
    {
      "inputs": [
        {
          "internalType": "address",
          "name": "account",
          "type": "address"
        },
        {
          "internalType": "uint256",
          "name": "amount",
          "type": "uint256"
        }
      ],
      "name": "mint",
      "outputs": [
        {
          "internalType": "bool",
          "name": "",
          "type": "bool"
        }
      ],
      "stateMutability": "nonpayable",
      "type": "function"
    },
    {
      "inputs": [
        {
          "internalType": "address[]",
          "name": "accounts",
          "type": "address[]"
        },
        {
          "internalType": "uint256[]",
          "name": "amounts",
          "type": "uint256[]"
        }
      ],
      "name": "mintBatch",
      "outputs": [
        {
          "internalType": "bool",
          "name": "",
          "type": "bool"
        }
      ],
      "stateMutability": "nonpayable",
      "type": "function"
    },
    {
      "inputs": [],
      "name": "name",
      "outputs": [
        {
          "internalType": "string",
          "name": "",
          "type": "string"
        }
      ],
      "stateMutability": "view",
      "type": "function"
    },
    {
      "inputs": [
        {
          "internalType": "bytes32",
          "name": "role",
          "type": "bytes32"
        },
        {
          "internalType": "address",
          "name": "account",
          "type": "address"
        }
      ],
      "name": "renounceRole",
      "outputs": [],
      "stateMutability": "nonpayable",
      "type": "function"
    },
    {
      "inputs": [
        {
          "internalType": "bytes32",
          "name": "role",
          "type": "bytes32"
        },
        {
          "internalType": "address",
          "name": "account",
          "type": "address"
        }
      ],
      "name": "revokeRole",
      "outputs": [],
      "stateMutability": "nonpayable",
      "type": "function"
    },
    {
      "inputs": [],
      "name": "snapshot",
      "outputs": [
        {
          "internalType": "uint256",
          "name": "",
          "type": "uint256"
        }
      ],
      "stateMutability": "nonpayable",
      "type": "function"
    },
    {
      "inputs": [
        {
          "internalType": "bytes4",
          "name": "interfaceId",
          "type": "bytes4"
        }
      ],
      "name": "supportsInterface",
      "outputs": [
        {
          "internalType": "bool",
          "name": "",
          "type": "bool"
        }
      ],
      "stateMutability": "view",
      "type": "function"
    },
    {
      "inputs": [],
      "name": "symbol",
      "outputs": [
        {
          "internalType": "string",
          "name": "",
          "type": "string"
        }
      ],
      "stateMutability": "view",
      "type": "function"
    },
    {
      "inputs": [],
      "name": "totalSupply",
      "outputs": [
        {
          "internalType": "uint256",
          "name": "",
          "type": "uint256"
        }
      ],
      "stateMutability": "view",
      "type": "function"
    },
    {
      "inputs": [
        {
          "internalType": "uint256",
          "name": "snapshotId",
          "type": "uint256"
        }
      ],
      "name": "totalSupplyAt",
      "outputs": [
        {
          "internalType": "uint256",
          "name": "",
          "type": "uint256"
        }
      ],
      "stateMutability": "view",
      "type": "function"
    },
    {
      "inputs": [
        {
          "internalType": "address",
          "name": "recipient",
          "type": "address"
        },
        {
          "internalType": "uint256",
          "name": "amount",
          "type": "uint256"
        }
      ],
      "name": "transfer",
      "outputs": [
        {
          "internalType": "bool",
          "name": "",
          "type": "bool"
        }
      ],
      "stateMutability": "nonpayable",
      "type": "function"
    },
    {
      "inputs": [
        {
          "internalType": "address",
          "name": "sender",
          "type": "address"
        },
        {
          "internalType": "address",
          "name": "recipient",
          "type": "address"
        },
        {
          "internalType": "uint256",
          "name": "amount",
          "type": "uint256"
        }
      ],
      "name": "transferFrom",
      "outputs": [
        {
          "internalType": "bool",
          "name": "",
          "type": "bool"
        }
      ],
      "stateMutability": "nonpayable",
      "type": "function"
    }
  ],
  "bytecode": "0x60806040523480156200001157600080fd5b50604051620019d8380380620019d8833981016040819052620000349162000337565b8351849084906200004d906003906020850190620001c1565b50805162000063906004906020840190620001c1565b5062000075915060009050836200010d565b620000a17f5fdbd35e8da83ee755d5e62a539e5ed7f47126abede0b8b10f9ea43dc6eed07f836200010d565b620000bc600080516020620019b8833981519152836200010d565b620000d7600080516020620019b8833981519152826200010d565b620001037f3c11d16cbaffd01df69ce1c404f6340ee057498f5f00246190ea54220576a848826200010d565b5050505062000416565b6200011982826200011d565b5050565b60008281526009602090815260408083206001600160a01b038516845290915290205460ff16620001195760008281526009602090815260408083206001600160a01b03851684529091529020805460ff191660011790556200017d3390565b6001600160a01b0316816001600160a01b0316837f2f8788117e7eff1d82e926ec794901d17c78024a50270940304540a733656f0d60405160405180910390a45050565b828054620001cf90620003c3565b90600052602060002090601f016020900481019282620001f357600085556200023e565b82601f106200020e57805160ff19168380011785556200023e565b828001600101855582156200023e579182015b828111156200023e57825182559160200191906001019062000221565b506200024c92915062000250565b5090565b5b808211156200024c576000815560010162000251565b80516001600160a01b03811681146200027f57600080fd5b919050565b600082601f83011262000295578081fd5b81516001600160401b0380821115620002b257620002b262000400565b604051601f8301601f19908116603f01168101908282118183101715620002dd57620002dd62000400565b81604052838152602092508683858801011115620002f9578485fd5b8491505b838210156200031c5785820183015181830184015290820190620002fd565b838211156200032d57848385830101525b9695505050505050565b600080600080608085870312156200034d578384fd5b84516001600160401b038082111562000364578586fd5b620003728883890162000284565b9550602087015191508082111562000388578485fd5b50620003978782880162000284565b935050620003a86040860162000267565b9150620003b86060860162000267565b905092959194509250565b600181811c90821680620003d857607f821691505b60208210811415620003fa57634e487b7160e01b600052602260045260246000fd5b50919050565b634e487b7160e01b600052604160045260246000fd5b61159280620004266000396000f3fe608060405234801561001057600080fd5b506004361061018f5760003560e01c80637028e2cd116100e45780639711715a116100925780639711715a1461034d578063981b24d014610355578063a217fddf14610368578063a457c2d7146101d1578063a9059cbb146101d1578063d539139314610370578063d547741f14610385578063dd62ed3e1461039857600080fd5b80637028e2cd146102ca57806370a08231146102f157806379cc6790146103045780637c88e3d91461031757806391d148541461032a57806395d89b411461033d578063970875ce1461034557600080fd5b80632f2ff15d116101415780632f2ff15d1461025a578063313ce5671461026f57806336568abe1461027e57806339509351146101d157806340c10f191461029157806342966c68146102a45780634ee2cd7e146102b757600080fd5b806301ffc9a71461019457806306fdde03146101bc578063095ea7b3146101d157806318160ddd146101e757806323b872dd146101f9578063248a9ca314610210578063282c51f314610233575b600080fd5b6101a76101a23660046112e6565b6103a6565b60405190151581526020015b60405180910390f35b6101c46103dd565b6040516101b3919061137d565b6101a76101df3660046111c2565b600092915050565b6002545b6040519081526020016101b3565b6101a7610207366004611187565b60009392505050565b6101eb61021e3660046112ac565b60009081526009602052604090206001015490565b6101eb7f3c11d16cbaffd01df69ce1c404f6340ee057498f5f00246190ea54220576a84881565b61026d6102683660046112c4565b61046f565b005b604051601281526020016101b3565b61026d61028c3660046112c4565b61049a565b6101a761029f3660046111c2565b61051d565b61026d6102b23660046112ac565b61054c565b6101eb6102c53660046111c2565b610559565b6101eb7f5fdbd35e8da83ee755d5e62a539e5ed7f47126abede0b8b10f9ea43dc6eed07f81565b6101eb6102ff36600461113b565b6105a2565b6101a76103123660046111c2565b6105bd565b6101a76103253660046111eb565b6105f4565b6101a76103383660046112c4565b6106d0565b6101c46106fb565b6101eb61070a565b6101eb610719565b6101eb6103633660046112ac565b610754565b6101eb600081565b6101eb60008051602061153d83398151915281565b61026d6103933660046112c4565b61077f565b6101eb6101df366004611155565b60006001600160e01b03198216637965db0b60e01b14806103d757506301ffc9a760e01b6001600160e01b03198316145b92915050565b6060600380546103ec906114ba565b80601f0160208091040260200160405190810160405280929190818152602001828054610418906114ba565b80156104655780601f1061043a57610100808354040283529160200191610465565b820191906000526020600020905b81548152906001019060200180831161044857829003601f168201915b5050505050905090565b60008281526009602052604090206001015461048b81336107a5565b6104958383610809565b505050565b6001600160a01b038116331461050f5760405162461bcd60e51b815260206004820152602f60248201527f416363657373436f6e74726f6c3a2063616e206f6e6c792072656e6f756e636560448201526e103937b632b9903337b91039b2b63360891b60648201526084015b60405180910390fd5b610519828261088f565b5050565b600060008051602061153d83398151915261053881336107a5565b61054284846108f6565b5060019392505050565b61055633826109e1565b50565b6001600160a01b038216600090815260056020526040812081908190610580908590610b3b565b915091508161059757610592856105a2565b610599565b805b95945050505050565b6001600160a01b031660009081526020819052604090205490565b60007f3c11d16cbaffd01df69ce1c404f6340ee057498f5f00246190ea54220576a8486105ea81336107a5565b61054284846109e1565b600060008051602061153d83398151915261060f81336107a5565b82518451146106515760405162461bcd60e51b815260206004820152600e60248201526d09cde40e6c2daca40d8cadccee8d60931b6044820152606401610506565b60005b84518110156106c5576106b585828151811061068057634e487b7160e01b600052603260045260246000fd5b60200260200101518583815181106106a857634e487b7160e01b600052603260045260246000fd5b60200260200101516108f6565b6106be816114f5565b9050610654565b506001949350505050565b60009182526009602090815260408084206001600160a01b0393909316845291905290205460ff1690565b6060600480546103ec906114ba565b6000610714610c40565b905090565b60007f5fdbd35e8da83ee755d5e62a539e5ed7f47126abede0b8b10f9ea43dc6eed07f61074681336107a5565b61074e610c4b565b91505090565b6000806000610764846006610b3b565b915091508161077557600254610777565b805b949350505050565b60008281526009602052604090206001015461079b81336107a5565b610495838361088f565b6107af82826106d0565b610519576107c7816001600160a01b03166014610ca5565b6107d2836020610ca5565b6040516020016107e392919061130e565b60408051601f198184030181529082905262461bcd60e51b82526105069160040161137d565b61081382826106d0565b6105195760008281526009602090815260408083206001600160a01b03851684529091529020805460ff1916600117905561084b3390565b6001600160a01b0316816001600160a01b0316837f2f8788117e7eff1d82e926ec794901d17c78024a50270940304540a733656f0d60405160405180910390a45050565b61089982826106d0565b156105195760008281526009602090815260408083206001600160a01b0385168085529252808320805460ff1916905551339285917ff6391f5c32d9c69d2a47ea670b442974b53935d1edc7fd64eb21e047a839171b9190a45050565b6001600160a01b03821661094c5760405162461bcd60e51b815260206004820152601f60248201527f45524332303a206d696e7420746f20746865207a65726f2061646472657373006044820152606401610506565b61095860008383610e8e565b806002600082825461096a9190611405565b90915550506001600160a01b03821660009081526020819052604081208054839290610997908490611405565b90915550506040518181526001600160a01b038316906000907fddf252ad1be2c89b69c2b068fc378daa952ba7f163c4a11628f55a4df523b3ef9060200160405180910390a35050565b6001600160a01b038216610a415760405162461bcd60e51b815260206004820152602160248201527f45524332303a206275726e2066726f6d20746865207a65726f206164647265736044820152607360f81b6064820152608401610506565b610a4d82600083610e8e565b6001600160a01b03821660009081526020819052604090205481811015610ac15760405162461bcd60e51b815260206004820152602260248201527f45524332303a206275726e20616d6f756e7420657863656564732062616c616e604482015261636560f01b6064820152608401610506565b6001600160a01b0383166000908152602081905260408120838303905560028054849290610af090849061145c565b90915550506040518281526000906001600160a01b038516907fddf252ad1be2c89b69c2b068fc378daa952ba7f163c4a11628f55a4df523b3ef9060200160405180910390a3505050565b60008060008411610b875760405162461bcd60e51b815260206004820152601660248201527504552433230536e617073686f743a20696420697320360541b6044820152606401610506565b610b8f610c40565b841115610bde5760405162461bcd60e51b815260206004820152601d60248201527f4552433230536e617073686f743a206e6f6e6578697374656e742069640000006044820152606401610506565b6000610bea8486610e99565b8454909150811415610c03576000809250925050610c39565b6001846001018281548110610c2857634e487b7160e01b600052603260045260246000fd5b906000526020600020015492509250505b9250929050565b600061071460085490565b6000610c5b600880546001019055565b6000610c65610c40565b90507f8030e83b04d87bef53480e26263266d6ca66863aa8506aca6f2559d18aa1cb6781604051610c9891815260200190565b60405180910390a1919050565b60606000610cb483600261143d565b610cbf906002611405565b67ffffffffffffffff811115610ce557634e487b7160e01b600052604160045260246000fd5b6040519080825280601f01601f191660200182016040528015610d0f576020820181803683370190505b509050600360fc1b81600081518110610d3857634e487b7160e01b600052603260045260246000fd5b60200101906001600160f81b031916908160001a905350600f60fb1b81600181518110610d7557634e487b7160e01b600052603260045260246000fd5b60200101906001600160f81b031916908160001a9053506000610d9984600261143d565b610da4906001611405565b90505b6001811115610e38576f181899199a1a9b1b9c1cb0b131b232b360811b85600f1660108110610de657634e487b7160e01b600052603260045260246000fd5b1a60f81b828281518110610e0a57634e487b7160e01b600052603260045260246000fd5b60200101906001600160f81b031916908160001a90535060049490941c93610e31816114a3565b9050610da7565b508315610e875760405162461bcd60e51b815260206004820181905260248201527f537472696e67733a20686578206c656e67746820696e73756666696369656e746044820152606401610506565b9392505050565b610495838383610f78565b8154600090610eaa575060006103d7565b82546000905b80821015610f14576000610ec48383610fc0565b905084868281548110610ee757634e487b7160e01b600052603260045260246000fd5b90600052602060002001541115610f0057809150610f0e565b610f0b816001611405565b92505b50610eb0565b600082118015610f5757508385610f2c60018561145c565b81548110610f4a57634e487b7160e01b600052603260045260246000fd5b9060005260206000200154145b15610f7057610f6760018361145c565b925050506103d7565b5090506103d7565b6001600160a01b038316610f9757610f8f82610fdb565b610495611005565b6001600160a01b038216610fae57610f8f83610fdb565b610fb783610fdb565b61049582610fdb565b6000610fcf600284841861141d565b610e8790848416611405565b6001600160a01b038116600090815260056020526040902061055690611000836105a2565b611015565b611013600661100060025490565b565b600061101f610c40565b90508061102b8461105f565b1015610495578254600180820185556000858152602080822090930193909355938401805494850181558252902090910155565b805460009061107057506000919050565b815482906110809060019061145c565b8154811061109e57634e487b7160e01b600052603260045260246000fd5b90600052602060002001549050919050565b919050565b80356001600160a01b03811681146110b057600080fd5b600082601f8301126110dc578081fd5b813560206110f16110ec836113e1565b6113b0565b80838252828201915082860187848660051b8901011115611110578586fd5b855b8581101561112e57813584529284019290840190600101611112565b5090979650505050505050565b60006020828403121561114c578081fd5b610e87826110b5565b60008060408385031215611167578081fd5b611170836110b5565b915061117e602084016110b5565b90509250929050565b60008060006060848603121561119b578081fd5b6111a4846110b5565b92506111b2602085016110b5565b9150604084013590509250925092565b600080604083850312156111d4578182fd5b6111dd836110b5565b946020939093013593505050565b600080604083850312156111fd578182fd5b823567ffffffffffffffff80821115611214578384fd5b818501915085601f830112611227578384fd5b813560206112376110ec836113e1565b8083825282820191508286018a848660051b8901011115611256578889fd5b8896505b8487101561127f5761126b816110b5565b83526001969096019591830191830161125a565b5096505086013592505080821115611295578283fd5b506112a2858286016110cc565b9150509250929050565b6000602082840312156112bd578081fd5b5035919050565b600080604083850312156112d6578182fd5b8235915061117e602084016110b5565b6000602082840312156112f7578081fd5b81356001600160e01b031981168114610e87578182fd5b76020b1b1b2b9b9a1b7b73a3937b61d1030b1b1b7bab73a1604d1b815260008351611340816017850160208801611473565b7001034b99036b4b9b9b4b733903937b6329607d1b6017918401918201528351611371816028840160208801611473565b01602801949350505050565b602081526000825180602084015261139c816040850160208701611473565b601f01601f19169190910160400192915050565b604051601f8201601f1916810167ffffffffffffffff811182821017156113d9576113d9611526565b604052919050565b600067ffffffffffffffff8211156113fb576113fb611526565b5060051b60200190565b6000821982111561141857611418611510565b500190565b60008261143857634e487b7160e01b81526012600452602481fd5b500490565b600081600019048311821515161561145757611457611510565b500290565b60008282101561146e5761146e611510565b500390565b60005b8381101561148e578181015183820152602001611476565b8381111561149d576000848401525b50505050565b6000816114b2576114b2611510565b506000190190565b600181811c908216806114ce57607f821691505b602082108114156114ef57634e487b7160e01b600052602260045260246000fd5b50919050565b600060001982141561150957611509611510565b5060010190565b634e487b7160e01b600052601160045260246000fd5b634e487b7160e01b600052604160045260246000fdfe9f2df0fed2c77648de5860a4cc508cd0818c85b8b8a1ab4ceeef8d981c8956a6a26469706673582212206e5ca7a456635688034412c07032a741c5fe8f12fd03fef70872fe00ed15875b64736f6c634300080400339f2df0fed2c77648de5860a4cc508cd0818c85b8b8a1ab4ceeef8d981c8956a6",
  "linkReferences": {},
  "deployedLinkReferences": {}
}