{
  "_format": "hh-sol-artifact-1",
  "contractName": "Initializer",
  "sourceName": "contracts/Initializer.sol",
  "abi": [
    {
      "inputs": [],
      "stateMutability": "nonpayable",
      "type": "constructor"
    },
    {
      "inputs": [
        {
          "components": [
            {
              "internalType": "address",
              "name": "target",
              "type": "address"
            },
            {
              "internalType": "bytes",
              "name": "callData",
              "type": "bytes"
            }
          ],
          "internalType": "struct Initializer.Call[]",
          "name": "calls",
          "type": "tuple[]"
        }
      ],
      "name": "initialize",
      "outputs": [
        {
          "internalType": "uint256",
          "name": "blockNumber",
          "type": "uint256"
        },
        {
          "components": [
            {
              "internalType": "bool",
              "name": "success",
              "type": "bool"
            },
            {
              "internalType": "bytes",
              "name": "returnData",
              "type": "bytes"
            }
          ],
          "internalType": "struct Initializer.Result[]",
          "name": "returnData",
          "type": "tuple[]"
        }
      ],
      "stateMutability": "nonpayable",
      "type": "function"
    }
  ],
  "bytecode": "0x608060405234801561001057600080fd5b50610a05806100206000396000f3fe608060405234801561001057600080fd5b506004361061002b5760003560e01c8063ff1ba0f214610030575b600080fd5b61004361003e3660046106b0565b61005a565b604051610051929190610835565b60405180910390f35b805143906060906001600160401b0381111561008657634e487b7160e01b600052604160045260246000fd5b6040519080825280602002602001820160405280156100cc57816020015b6040805180820190915260008152606060208201528152602001906001900390816100a45790505b50905060005b83518110156104075760008482815181106100fd57634e487b7160e01b600052603260045260246000fd5b6020026020010151600001516001600160a01b03166324d7806c306040518263ffffffff1660e01b8152600401610134919061080e565b60206040518083038186803b15801561014c57600080fd5b505afa158015610160573d6000803e3d6000fd5b505050506040513d601f19601f820116820180604052508101906101849190610771565b905060008583815181106101a857634e487b7160e01b600052603260045260246000fd5b6020026020010151600001516001600160a01b03166324d7806c336040518263ffffffff1660e01b81526004016101df919061080e565b60206040518083038186803b1580156101f757600080fd5b505afa15801561020b573d6000803e3d6000fd5b505050506040513d601f19601f8201168201806040525081019061022f9190610771565b905081801561023b5750805b6102785760405162461bcd60e51b81526020600482015260096024820152683737ba1030b236b4b760b91b60448201526064015b60405180910390fd5b60008087858151811061029b57634e487b7160e01b600052603260045260246000fd5b6020026020010151600001516001600160a01b03168886815181106102d057634e487b7160e01b600052603260045260246000fd5b6020026020010151602001516040516102e991906107bd565b6000604051808303816000865af19150503d8060008114610326576040519150601f19603f3d011682016040523d82523d6000602084013e61032b565b606091505b50915091508161037089878151811061035457634e487b7160e01b600052603260045260246000fd5b6020026020010151600001516001600160a01b0316601461040d565b60405160200161038091906107d9565b604051602081830303815290604052906103ad5760405162461bcd60e51b815260040161026f9190610822565b5060405180604001604052808315158152602001828152508686815181106103e557634e487b7160e01b600052603260045260246000fd5b60200260200101819052505050505080806103ff90610988565b9150506100d2565b50915091565b6060600061041c836002610922565b61042790600261090a565b6001600160401b0381111561044c57634e487b7160e01b600052604160045260246000fd5b6040519080825280601f01601f191660200182016040528015610476576020820181803683370190505b509050600360fc1b8160008151811061049f57634e487b7160e01b600052603260045260246000fd5b60200101906001600160f81b031916908160001a905350600f60fb1b816001815181106104dc57634e487b7160e01b600052603260045260246000fd5b60200101906001600160f81b031916908160001a9053506000610500846002610922565b61050b90600161090a565b90505b600181111561059f576f181899199a1a9b1b9c1cb0b131b232b360811b85600f166010811061054d57634e487b7160e01b600052603260045260246000fd5b1a60f81b82828151811061057157634e487b7160e01b600052603260045260246000fd5b60200101906001600160f81b031916908160001a90535060049490941c9361059881610971565b905061050e565b5083156105ee5760405162461bcd60e51b815260206004820181905260248201527f537472696e67733a20686578206c656e67746820696e73756666696369656e74604482015260640161026f565b9392505050565b600060408284031215610606578081fd5b61060e6108b2565b905081356001600160a01b038116811461062757600080fd5b81526020828101356001600160401b038082111561064457600080fd5b818501915085601f83011261065857600080fd5b81358181111561066a5761066a6109b9565b61067c601f8201601f191685016108da565b9150808252868482850101111561069257600080fd5b80848401858401376000908201840152918301919091525092915050565b600060208083850312156106c2578182fd5b82356001600160401b03808211156106d8578384fd5b818501915085601f8301126106eb578384fd5b8135818111156106fd576106fd6109b9565b8060051b61070c8582016108da565b8281528581019085870183870188018b1015610726578889fd5b8893505b848410156107635780358681111561074057898afd5b61074e8c8a838b01016105f5565b8452506001939093019291870191870161072a565b509998505050505050505050565b600060208284031215610782578081fd5b815180151581146105ee578182fd5b600081518084526107a9816020860160208601610941565b601f01601f19169290920160200192915050565b600082516107cf818460208701610941565b9190910192915050565b6c031b0b636103330b4b632b21d1609d1b81526000825161080181600d850160208701610941565b91909101600d0192915050565b6001600160a01b0391909116815260200190565b6020815260006105ee6020830184610791565b600060408083018584526020828186015281865180845260608701915060608160051b8801019350828801865b828110156108a357888603605f19018452815180511515875285015185870188905261089088880182610791565b9650509284019290840190600101610862565b50939998505050505050505050565b604080519081016001600160401b03811182821017156108d4576108d46109b9565b60405290565b604051601f8201601f191681016001600160401b0381118282101715610902576109026109b9565b604052919050565b6000821982111561091d5761091d6109a3565b500190565b600081600019048311821515161561093c5761093c6109a3565b500290565b60005b8381101561095c578181015183820152602001610944565b8381111561096b576000848401525b50505050565b600081610980576109806109a3565b506000190190565b600060001982141561099c5761099c6109a3565b5060010190565b634e487b7160e01b600052601160045260246000fd5b634e487b7160e01b600052604160045260246000fdfea2646970667358221220c16c4f18d49dc4dac04962ea911689d8896bb92da4aae89c5fcc658fe673e53864736f6c63430008040033",
  "linkReferences": {},
  "deployedLinkReferences": {}
}