{
  "_format": "hh-sol-artifact-1",
  "contractName": "InitialLiquidityVaultFactory",
  "sourceName": "contracts/InitialLiquidityVaultFactory.sol",
  "abi": [
    {
      "inputs": [],
      "stateMutability": "nonpayable",
      "type": "constructor"
    },
    {
      "anonymous": false,
      "inputs": [
        {
          "indexed": false,
          "internalType": "address",
          "name": "contractAddress",
          "type": "address"
        },
        {
          "indexed": false,
          "internalType": "string",
          "name": "name",
          "type": "string"
        }
      ],
      "name": "CreatedInitialLiquidityVault",
      "type": "event"
    },
    {
      "anonymous": false,
      "inputs": [
        {
          "indexed": true,
          "internalType": "bytes32",
          "name": "role",
          "type": "bytes32"
        },
        {
          "indexed": true,
          "internalType": "bytes32",
          "name": "previousAdminRole",
          "type": "bytes32"
        },
        {
          "indexed": true,
          "internalType": "bytes32",
          "name": "newAdminRole",
          "type": "bytes32"
        }
      ],
      "name": "RoleAdminChanged",
      "type": "event"
    },
    {
      "anonymous": false,
      "inputs": [
        {
          "indexed": true,
          "internalType": "bytes32",
          "name": "role",
          "type": "bytes32"
        },
        {
          "indexed": true,
          "internalType": "address",
          "name": "account",
          "type": "address"
        },
        {
          "indexed": true,
          "internalType": "address",
          "name": "sender",
          "type": "address"
        }
      ],
      "name": "RoleGranted",
      "type": "event"
    },
    {
      "anonymous": false,
      "inputs": [
        {
          "indexed": true,
          "internalType": "bytes32",
          "name": "role",
          "type": "bytes32"
        },
        {
          "indexed": true,
          "internalType": "address",
          "name": "account",
          "type": "address"
        },
        {
          "indexed": true,
          "internalType": "address",
          "name": "sender",
          "type": "address"
        }
      ],
      "name": "RoleRevoked",
      "type": "event"
    },
    {
      "inputs": [],
      "name": "ADMIN_ROLE",
      "outputs": [
        {
          "internalType": "bytes32",
          "name": "",
          "type": "bytes32"
        }
      ],
      "stateMutability": "view",
      "type": "function"
    },
    {
      "inputs": [],
      "name": "BURNER_ROLE",
      "outputs": [
        {
          "internalType": "bytes32",
          "name": "",
          "type": "bytes32"
        }
      ],
      "stateMutability": "view",
      "type": "function"
    },
    {
      "inputs": [],
      "name": "CLAIMER_ROLE",
      "outputs": [
        {
          "internalType": "bytes32",
          "name": "",
          "type": "bytes32"
        }
      ],
      "stateMutability": "view",
      "type": "function"
    },
    {
      "inputs": [],
      "name": "DEFAULT_ADMIN_ROLE",
      "outputs": [
        {
          "internalType": "bytes32",
          "name": "",
          "type": "bytes32"
        }
      ],
      "stateMutability": "view",
      "type": "function"
    },
    {
      "inputs": [],
      "name": "MINTER_ROLE",
      "outputs": [
        {
          "internalType": "bytes32",
          "name": "",
          "type": "bytes32"
        }
      ],
      "stateMutability": "view",
      "type": "function"
    },
    {
      "inputs": [
        {
          "internalType": "address",
          "name": "account",
          "type": "address"
        }
      ],
      "name": "addAdmin",
      "outputs": [],
      "stateMutability": "nonpayable",
      "type": "function"
    },
    {
      "inputs": [
        {
          "internalType": "string",
          "name": "_name",
          "type": "string"
        },
        {
          "internalType": "address",
          "name": "_token",
          "type": "address"
        },
        {
          "internalType": "address",
          "name": "_admin",
          "type": "address"
        },
        {
          "internalType": "uint256",
          "name": "tosPrice",
          "type": "uint256"
        },
        {
          "internalType": "uint256",
          "name": "tokenPrice",
          "type": "uint256"
        }
      ],
      "name": "create",
      "outputs": [
        {
          "internalType": "address",
          "name": "",
          "type": "address"
        }
      ],
      "stateMutability": "nonpayable",
      "type": "function"
    },
    {
      "inputs": [
        {
          "internalType": "uint256",
          "name": "",
          "type": "uint256"
        }
      ],
      "name": "createdContracts",
      "outputs": [
        {
          "internalType": "address",
          "name": "contractAddress",
          "type": "address"
        },
        {
          "internalType": "string",
          "name": "name",
          "type": "string"
        }
      ],
      "stateMutability": "view",
      "type": "function"
    },
    {
      "inputs": [],
      "name": "fee",
      "outputs": [
        {
          "internalType": "uint24",
          "name": "",
          "type": "uint24"
        }
      ],
      "stateMutability": "view",
      "type": "function"
    },
    {
      "inputs": [
        {
          "internalType": "uint256",
          "name": "_index",
          "type": "uint256"
        }
      ],
      "name": "getContracts",
      "outputs": [
        {
          "internalType": "address",
          "name": "contractAddress",
          "type": "address"
        },
        {
          "internalType": "string",
          "name": "name",
          "type": "string"
        }
      ],
      "stateMutability": "view",
      "type": "function"
    },
    {
      "inputs": [
        {
          "internalType": "bytes32",
          "name": "role",
          "type": "bytes32"
        }
      ],
      "name": "getRoleAdmin",
      "outputs": [
        {
          "internalType": "bytes32",
          "name": "",
          "type": "bytes32"
        }
      ],
      "stateMutability": "view",
      "type": "function"
    },
    {
      "inputs": [
        {
          "internalType": "bytes32",
          "name": "role",
          "type": "bytes32"
        },
        {
          "internalType": "address",
          "name": "account",
          "type": "address"
        }
      ],
      "name": "grantRole",
      "outputs": [],
      "stateMutability": "nonpayable",
      "type": "function"
    },
    {
      "inputs": [
        {
          "internalType": "bytes32",
          "name": "role",
          "type": "bytes32"
        },
        {
          "internalType": "address",
          "name": "account",
          "type": "address"
        }
      ],
      "name": "hasRole",
      "outputs": [
        {
          "internalType": "bool",
          "name": "",
          "type": "bool"
        }
      ],
      "stateMutability": "view",
      "type": "function"
    },
    {
      "inputs": [
        {
          "internalType": "address",
          "name": "account",
          "type": "address"
        }
      ],
      "name": "isAdmin",
      "outputs": [
        {
          "internalType": "bool",
          "name": "",
          "type": "bool"
        }
      ],
      "stateMutability": "view",
      "type": "function"
    },
    {
      "inputs": [],
      "name": "lastestCreated",
      "outputs": [
        {
          "internalType": "address",
          "name": "contractAddress",
          "type": "address"
        },
        {
          "internalType": "string",
          "name": "name",
          "type": "string"
        }
      ],
      "stateMutability": "view",
      "type": "function"
    },
    {
      "inputs": [],
      "name": "logEventAddress",
      "outputs": [
        {
          "internalType": "address",
          "name": "",
          "type": "address"
        }
      ],
      "stateMutability": "view",
      "type": "function"
    },
    {
      "inputs": [],
      "name": "nonfungiblePositionManager",
      "outputs": [
        {
          "internalType": "address",
          "name": "",
          "type": "address"
        }
      ],
      "stateMutability": "view",
      "type": "function"
    },
    {
      "inputs": [
        {
          "internalType": "address",
          "name": "account",
          "type": "address"
        }
      ],
      "name": "removeAdmin",
      "outputs": [],
      "stateMutability": "nonpayable",
      "type": "function"
    },
    {
      "inputs": [
        {
          "internalType": "bytes32",
          "name": "role",
          "type": "bytes32"
        },
        {
          "internalType": "address",
          "name": "account",
          "type": "address"
        }
      ],
      "name": "renounceRole",
      "outputs": [],
      "stateMutability": "nonpayable",
      "type": "function"
    },
    {
      "inputs": [
        {
          "internalType": "bytes32",
          "name": "role",
          "type": "bytes32"
        },
        {
          "internalType": "address",
          "name": "account",
          "type": "address"
        }
      ],
      "name": "revokeRole",
      "outputs": [],
      "stateMutability": "nonpayable",
      "type": "function"
    },
    {
      "inputs": [
        {
          "internalType": "address",
          "name": "addr",
          "type": "address"
        }
      ],
      "name": "setLogEventAddress",
      "outputs": [],
      "stateMutability": "nonpayable",
      "type": "function"
    },
    {
      "inputs": [
        {
          "internalType": "address",
          "name": "_logic",
          "type": "address"
        }
      ],
      "name": "setLogic",
      "outputs": [],
      "stateMutability": "nonpayable",
      "type": "function"
    },
    {
      "inputs": [
        {
          "internalType": "address[2]",
          "name": "addrs",
          "type": "address[2]"
        },
        {
          "internalType": "address",
          "name": "_tos",
          "type": "address"
        },
        {
          "internalType": "uint24",
          "name": "_fee",
          "type": "uint24"
        }
      ],
      "name": "setUniswapInfoNTokens",
      "outputs": [],
      "stateMutability": "nonpayable",
      "type": "function"
    },
    {
      "inputs": [
        {
          "internalType": "address",
          "name": "addr",
          "type": "address"
        }
      ],
      "name": "setUpgradeAdmin",
      "outputs": [],
      "stateMutability": "nonpayable",
      "type": "function"
    },
    {
      "inputs": [
        {
          "internalType": "bytes4",
          "name": "interfaceId",
          "type": "bytes4"
        }
      ],
      "name": "supportsInterface",
      "outputs": [
        {
          "internalType": "bool",
          "name": "",
          "type": "bool"
        }
      ],
      "stateMutability": "view",
      "type": "function"
    },
    {
      "inputs": [],
      "name": "tos",
      "outputs": [
        {
          "internalType": "address",
          "name": "",
          "type": "address"
        }
      ],
      "stateMutability": "view",
      "type": "function"
    },
    {
      "inputs": [],
      "name": "totalCreatedContracts",
      "outputs": [
        {
          "internalType": "uint256",
          "name": "",
          "type": "uint256"
        }
      ],
      "stateMutability": "view",
      "type": "function"
    },
    {
      "inputs": [
        {
          "internalType": "address",
          "name": "newAdmin",
          "type": "address"
        }
      ],
      "name": "transferAdmin",
      "outputs": [],
      "stateMutability": "nonpayable",
      "type": "function"
    },
    {
      "inputs": [],
      "name": "uniswapV3Factory",
      "outputs": [
        {
          "internalType": "address",
          "name": "",
          "type": "address"
        }
      ],
      "stateMutability": "view",
      "type": "function"
    },
    {
      "inputs": [],
      "name": "upgradeAdmin",
      "outputs": [
        {
          "internalType": "address",
          "name": "",
          "type": "address"
        }
      ],
      "stateMutability": "view",
      "type": "function"
    },
    {
      "inputs": [
        {
          "internalType": "address",
          "name": "_contract",
          "type": "address"
        },
        {
          "internalType": "bytes4[]",
          "name": "_selectors",
          "type": "bytes4[]"
        },
        {
          "internalType": "address",
          "name": "_imp",
          "type": "address"
        }
      ],
      "name": "upgradeContractFunction",
      "outputs": [],
      "stateMutability": "nonpayable",
      "type": "function"
    },
    {
      "inputs": [
        {
          "internalType": "address",
          "name": "_contract",
          "type": "address"
        },
        {
          "internalType": "address",
          "name": "_logic",
          "type": "address"
        },
        {
          "internalType": "uint256",
          "name": "_index",
          "type": "uint256"
        },
        {
          "internalType": "bool",
          "name": "_alive",
          "type": "bool"
        }
      ],
      "name": "upgradeContractLogic",
      "outputs": [],
      "stateMutability": "nonpayable",
      "type": "function"
    },
    {
      "inputs": [],
      "name": "vaultLogic",
      "outputs": [
        {
          "internalType": "address",
          "name": "",
          "type": "address"
        }
      ],
      "stateMutability": "view",
      "type": "function"
    }
  ],
  "bytecode": "0x60806040523480156200001157600080fd5b50600060015562000032600080516020620045c88339815191528062000065565b6200004d600080516020620045c883398151915233620000b0565b600380546001600160a01b0319163317905562000160565b600082815260208190526040808220600101805490849055905190918391839186917fbd79b86ffe0ab8e8776151514217cd7cacd52c909f66475c3af44e129f0b00ff9190a4505050565b620000bc8282620000c0565b5050565b6000828152602081815260408083206001600160a01b038516845290915290205460ff16620000bc576000828152602081815260408083206001600160a01b03851684529091529020805460ff191660011790556200011c3390565b6001600160a01b0316816001600160a01b0316837f2f8788117e7eff1d82e926ec794901d17c78024a50270940304540a733656f0d60405160405180910390a45050565b61445880620001706000396000f3fe60806040523480156200001157600080fd5b5060043610620001e15760003560e01c80637e2826f6116200010f578063bda5b5d411620000aa578063bda5b5d4146200044c578063c4d5608a1462000463578063d05261871462000477578063d53913931462000481578063d547741f14620004a9578063ddca3f4314620004c0578063eaa2a00c14620004ec578063eab73ca11462000503578063fc5f18d3146200051757600080fd5b80637e2826f614620003ab57806389f395de14620003c257806391d1485414620003d65780639342f41714620003ed578063a217fddf1462000404578063b078147a146200040d578063b44a27221462000421578063b4d40280146200043557600080fd5b806336568abe116200018057806336568abe14620002e7578063439e23fd14620002fe5780635b549182146200031557806367c5f8de146200033857806370480275146200034f57806371857000146200036657806375829def146200037d57806375b238fc146200039457600080fd5b806301ffc9a714620001e65780630881139714620002125780631785f53c1462000239578063248a9ca3146200025257806324d7806c1462000287578063282c51f3146200029e5780632f2ff15d14620002c6578063338bad5f14620002dd575b600080fd5b620001fd620001f736600462001be5565b6200053f565b60405190151581526020015b60405180910390f35b620002296200022336600462001b9e565b62000577565b6040516200020992919062001ddb565b620002506200024a36600462001a36565b6200062e565b005b620002786200026336600462001b9e565b60009081526020819052604090206001015490565b60405190815260200162000209565b620001fd6200029836600462001a36565b6200067f565b620002787f9667e80708b6eeeb0053fa0cca44e028ff548e2a9f029edfeac87c118b08b7c881565b62000250620002d736600462001bb7565b6200069c565b62000229620006cb565b62000250620002f836600462001bb7565b620007e4565b620002296200030f36600462001b9e565b62000866565b60065462000329906001600160a01b031681565b60405162000209919062001d74565b620002506200034936600462001a53565b6200094c565b620002506200036036600462001a36565b62000a0d565b620002506200037736600462001a36565b62000a52565b620002506200038e36600462001a36565b62000b24565b620002786000805160206200440383398151915281565b62000250620003bc36600462001a36565b62000c2b565b60085462000329906001600160a01b031681565b620001fd620003e736600462001bb7565b62000cd3565b62000250620003fe36600462001a36565b62000cfc565b62000278600081565b60045462000329906001600160a01b031681565b60075462000329906001600160a01b031681565b620002506200044636600462001aab565b62000da4565b620003296200045d36600462001c02565b62000e2a565b60035462000329906001600160a01b031681565b6200027860015481565b620002787ff0887ba65ee2024ea881d91b74c2450ef19e1557f03bed3ea9f16b037cbe2dc981565b62000250620004ba36600462001bb7565b6200146e565b600854620004d790600160a01b900462ffffff1681565b60405162ffffff909116815260200162000209565b62000250620004fd36600462001b46565b62001498565b60055462000329906001600160a01b031681565b620002787fe5667d34d7ea8d6fdb3aa71a0a5b85e4cf7f68356dd003cd638556b0eea2bce581565b60006001600160e01b03198216637965db0b60e01b14806200057157506301ffc9a760e01b6001600160e01b03198316145b92915050565b600260205260009081526040902080546001820180546001600160a01b039092169291620005a59062002037565b80601f0160208091040260200160405190810160405280929190818152602001828054620005d39062002037565b8015620006245780601f10620005f85761010080835404028352916020019162000624565b820191906000526020600020905b8154815290600101906020018083116200060657829003601f168201915b5050505050905082565b62000639336200067f565b620006615760405162461bcd60e51b8152600401620006589062001f51565b60405180910390fd5b6200067c6000805160206200440383398151915282620007e4565b50565b600062000571600080516020620044038339815191528362000cd3565b600082815260208190526040902060010154620006ba8133620015f0565b620006c683836200165f565b505050565b6000606060006001541115620007cf576002600060018054620006ef919062001fd0565b81526020810191909152604001600090812054600180546001600160a01b03909216926002929091620007229162001fd0565b8152602001908152602001600020600101808054620007419062002037565b80601f01602080910402602001604051908101604052809291908181526020018280546200076f9062002037565b8015620007c05780601f106200079457610100808354040283529160200191620007c0565b820191906000526020600020905b815481529060010190602001808311620007a257829003601f168201915b50505050509050915091509091565b50506040805160208101909152600080825291565b6001600160a01b0381163314620008565760405162461bcd60e51b815260206004820152602f60248201527f416363657373436f6e74726f6c3a2063616e206f6e6c792072656e6f756e636560448201526e103937b632b9903337b91039b2b63360891b606482015260840162000658565b620008628282620016e7565b5050565b60006060600154831015620009345760008381526002602052604090208054600190910180546001600160a01b03909216918190620008a59062002037565b80601f0160208091040260200160405190810160405280929190818152602001828054620008d39062002037565b8015620009245780601f10620008f85761010080835404028352916020019162000924565b820191906000526020600020905b8154815290600101906020018083116200090657829003601f168201915b5050505050905091509150915091565b50506040805160208101909152600080825292909150565b62000957336200067f565b620009765760405162461bcd60e51b8152600401620006589062001f51565b836001600160a01b038116620009a05760405162461bcd60e51b8152600401620006589062001f25565b604051637cd5f66360e01b81526001600160a01b03861690637cd5f66390620009d29087908790879060040162001d88565b600060405180830381600087803b158015620009ed57600080fd5b505af115801562000a02573d6000803e3d6000fd5b505050505050505050565b62000a18336200067f565b62000a375760405162461bcd60e51b8152600401620006589062001f51565b6200067c60008051602062004403833981519152826200069c565b806001600160a01b03811662000a7c5760405162461bcd60e51b8152600401620006589062001f25565b62000a87336200067f565b62000aa65760405162461bcd60e51b8152600401620006589062001f51565b6004546001600160a01b038381169116141562000b015760405162461bcd60e51b815260206004820152601860248201527730b63932b0b23c9039b2ba103a3434b9903b32b939b4b7b760411b604482015260640162000658565b50600480546001600160a01b0319166001600160a01b0392909216919091179055565b62000b2f336200067f565b62000b4e5760405162461bcd60e51b8152600401620006589062001f51565b6001600160a01b03811662000ba15760405162461bcd60e51b815260206004820152601860248201527741636365737369626c653a207a65726f206164647265737360401b604482015260640162000658565b336001600160a01b038216141562000bf55760405162461bcd60e51b815260206004820152601660248201527520b1b1b2b9b9b4b136329d1039b0b6b29030b236b4b760511b604482015260640162000658565b62000c1060008051602062004403833981519152826200069c565b6200067c6000805160206200440383398151915233620007e4565b62000c36336200067f565b62000c555760405162461bcd60e51b8152600401620006589062001f51565b806001600160a01b03811662000c7f5760405162461bcd60e51b8152600401620006589062001f25565b6005546001600160a01b038381169116141562000cb05760405162461bcd60e51b8152600401620006589062001f01565b50600580546001600160a01b0319166001600160a01b0392909216919091179055565b6000918252602082815260408084206001600160a01b0393909316845291905290205460ff1690565b62000d07336200067f565b62000d265760405162461bcd60e51b8152600401620006589062001f51565b806001600160a01b03811662000d505760405162461bcd60e51b8152600401620006589062001f25565b6003546001600160a01b038381169116141562000d815760405162461bcd60e51b8152600401620006589062001f01565b50600380546001600160a01b0319166001600160a01b0392909216919091179055565b62000daf336200067f565b62000dce5760405162461bcd60e51b8152600401620006589062001f51565b836001600160a01b03811662000df85760405162461bcd60e51b8152600401620006589062001f25565b604051634a5df50f60e01b81526001600160a01b03861690634a5df50f90620009d29087908790879060040162001e09565b6004546000906001600160a01b03168062000e595760405162461bcd60e51b8152600401620006589062001f25565b6003546001600160a01b03168062000e855760405162461bcd60e51b8152600401620006589062001f25565b8762000ec45760405162461bcd60e51b815260206004820152600d60248201526c6e616d6520697320656d70747960981b604482015260640162000658565b600060405162000ed4906200194c565b604051809103906000f08015801562000ef1573d6000803e3d6000fd5b5090506001600160a01b03811662000f4c5760405162461bcd60e51b815260206004820152601f60248201527f496e697469616c4c69717569646974795661756c7450726f7879207a65726f00604482015260640162000658565b6003546040516325bc555f60e21b81526001600160a01b03838116926396f1557c9262000f80929091169060040162001d74565b600060405180830381600087803b15801562000f9b57600080fd5b505af115801562000fb0573d6000803e3d6000fd5b5050600354604051637048027560e01b81526001600160a01b0380861694506370480275935062000fe692169060040162001d74565b600060405180830381600087803b1580156200100157600080fd5b505af115801562001016573d6000803e3d6000fd5b505060048054604051637cd5f66360e01b81526001600160a01b038087169550637cd5f663945062001052939216916000916001910162001d88565b600060405180830381600087803b1580156200106d57600080fd5b505af115801562001082573d6000803e3d6000fd5b5050600554604051630b8717f760e11b81526001600160a01b03918216600482015260016024820152908416925063170e2fee9150604401600060405180830381600087803b158015620010d557600080fd5b505af1158015620010ea573d6000803e3d6000fd5b505060405163ce0c4c5160e01b81526001600160a01b038416925063ce0c4c51915062001126908d908d908d908d908d908d9060040162001ea8565b600060405180830381600087803b1580156200114157600080fd5b505af115801562001156573d6000803e3d6000fd5b50506006546007546040516301c9398760e21b81526001600160a01b03928316600482015290821660248201529084169250630724e61c9150604401600060405180830381600087803b158015620011ad57600080fd5b505af1158015620011c2573d6000803e3d6000fd5b505060085460405163128efbd160e11b81526001600160a01b038083166004830152600160a01b90920462ffffff166024820152908416925063251df7a29150604401600060405180830381600087803b1580156200122057600080fd5b505af115801562001235573d6000803e3d6000fd5b50505050806001600160a01b0316639a202d476040518163ffffffff1660e01b8152600401600060405180830381600087803b1580156200127557600080fd5b505af11580156200128a573d6000803e3d6000fd5b505050506040518060400160405280826001600160a01b031681526020018b8b8080601f0160208091040260200160405190810160405280939291908181526020018383808284376000920182905250939094525050600180548252600260209081526040909220845181546001600160a01b0319166001600160a01b0390911617815584830151805191945062001328939285019201906200195a565b505060018054915060006200133d8362002074565b9190505550600560009054906101000a90046001600160a01b03166001600160a01b031663beee31bf7fcef663f96a50fb65151a343d90fa0c559ef87c327635e2e9e7ffa49e15cddcf77f6d5a72f3f1338adda1e36ff4249e30f4de96011aee91572f65a2cc63fc1be96f30858f8f604051602001620013c09392919062001dab565b6040516020818303038152906040526040518563ffffffff1660e01b8152600401620013f0949392919062001e6f565b600060405180830381600087803b1580156200140b57600080fd5b505af115801562001420573d6000803e3d6000fd5b505050507f4fe258ada83935d965ec2774f9f672c624e217fb2b644e406c6dfdb5ae2631e5818b8b604051620014599392919062001dab565b60405180910390a19998505050505050505050565b6000828152602081905260409020600101546200148c8133620015f0565b620006c68383620016e7565b620014a3336200067f565b620014c25760405162461bcd60e51b8152600401620006589062001f51565b620014d1602084018462001a36565b6001600160a01b038116620014fa5760405162461bcd60e51b8152600401620006589062001f25565b6200150c604085016020860162001a36565b6001600160a01b038116620015355760405162461bcd60e51b8152600401620006589062001f25565b836001600160a01b0381166200155f5760405162461bcd60e51b8152600401620006589062001f25565b6200156e602087018762001a36565b600680546001600160a01b0319166001600160a01b0392909216919091179055620015a0604087016020880162001a36565b600780546001600160a01b039283166001600160a01b03199091161790556008805462ffffff909616600160a01b026001600160b81b031990961696909116959095179390931790935550505050565b620015fc828262000cd3565b620008625762001617816001600160a01b031660146200174f565b620016248360206200174f565b6040516020016200163792919062001d01565b60408051601f198184030181529082905262461bcd60e51b8252620006589160040162001eec565b6200166b828262000cd3565b62000862576000828152602081815260408083206001600160a01b03851684529091529020805460ff19166001179055620016a33390565b6001600160a01b0316816001600160a01b0316837f2f8788117e7eff1d82e926ec794901d17c78024a50270940304540a733656f0d60405160405180910390a45050565b620016f3828262000cd3565b1562000862576000828152602081815260408083206001600160a01b0385168085529252808320805460ff1916905551339285917ff6391f5c32d9c69d2a47ea670b442974b53935d1edc7fd64eb21e047a839171b9190a45050565b606060006200176083600262001fae565b6200176d90600262001f93565b67ffffffffffffffff8111156200179457634e487b7160e01b600052604160045260246000fd5b6040519080825280601f01601f191660200182016040528015620017bf576020820181803683370190505b509050600360fc1b81600081518110620017e957634e487b7160e01b600052603260045260246000fd5b60200101906001600160f81b031916908160001a905350600f60fb1b816001815181106200182757634e487b7160e01b600052603260045260246000fd5b60200101906001600160f81b031916908160001a90535060006200184d84600262001fae565b6200185a90600162001f93565b90505b6001811115620018f4576f181899199a1a9b1b9c1cb0b131b232b360811b85600f16601081106200189e57634e487b7160e01b600052603260045260246000fd5b1a60f81b828281518110620018c357634e487b7160e01b600052603260045260246000fd5b60200101906001600160f81b031916908160001a90535060049490941c93620018ec816200201d565b90506200185d565b508315620019455760405162461bcd60e51b815260206004820181905260248201527f537472696e67733a20686578206c656e67746820696e73756666696369656e74604482015260640162000658565b9392505050565b61235a80620020a983390190565b828054620019689062002037565b90600052602060002090601f0160209004810192826200198c5760008555620019d7565b82601f10620019a757805160ff1916838001178555620019d7565b82800160010185558215620019d7579182015b82811115620019d7578251825591602001919060010190620019ba565b50620019e5929150620019e9565b5090565b5b80821115620019e55760008155600101620019ea565b80356001600160a01b038116811462001a1857600080fd5b919050565b80356001600160e01b03198116811462001a1857600080fd5b60006020828403121562001a48578081fd5b620019458262001a00565b6000806000806080858703121562001a69578283fd5b62001a748562001a00565b935062001a846020860162001a00565b9250604085013591506060850135801515811462001aa0578182fd5b939692955090935050565b6000806000806060858703121562001ac1578384fd5b62001acc8562001a00565b9350602085013567ffffffffffffffff8082111562001ae9578485fd5b818701915087601f83011262001afd578485fd5b81358181111562001b0c578586fd5b8860208260051b850101111562001b21578586fd5b60208301955080945050505062001b3b6040860162001a00565b905092959194509250565b60008060006080848603121562001b5b578283fd5b604084018581111562001b6c578384fd5b84935062001b7a8162001a00565b925050606084013562ffffff8116811462001b93578182fd5b809150509250925092565b60006020828403121562001bb0578081fd5b5035919050565b6000806040838503121562001bca578182fd5b8235915062001bdc6020840162001a00565b90509250929050565b60006020828403121562001bf7578081fd5b620019458262001a1d565b60008060008060008060a0878903121562001c1b578182fd5b863567ffffffffffffffff8082111562001c33578384fd5b818901915089601f83011262001c47578384fd5b81358181111562001c56578485fd5b8a602082850101111562001c68578485fd5b60209283019850965062001c80918901905062001a00565b935062001c906040880162001a00565b925060608701359150608087013590509295509295509295565b6000815180845262001cc481602086016020860162001fea565b601f01601f19169290920160200192915050565b81835281816020850137506000828201602090810191909152601f909101601f19169091010190565b76020b1b1b2b9b9a1b7b73a3937b61d1030b1b1b7bab73a1604d1b81526000835162001d3581601785016020880162001fea565b7001034b99036b4b9b9b4b733903937b6329607d1b601791840191820152835162001d6881602884016020880162001fea565b01602801949350505050565b6001600160a01b0391909116815260200190565b6001600160a01b0393909316835260208301919091521515604082015260600190565b6001600160a01b038416815260406020820181905260009062001dd2908301848662001cd8565b95945050505050565b6001600160a01b038316815260406020820181905260009062001e019083018462001caa565b949350505050565b6040808252810183905260008460608301825b8681101562001e4f576001600160e01b031962001e398462001a1d565b1682526020928301929091019060010162001e1c565b506001600160a01b03949094166020939093019290925250909392505050565b84815283602082015260018060a01b038316604082015260806060820152600062001e9e608083018462001caa565b9695505050505050565b60a08152600062001ebe60a08301888a62001cd8565b6001600160a01b03968716602084015294909516604082015260608101929092526080909101529392505050565b60208152600062001945602083018462001caa565b6020808252600a908201526973616d6520616464727360b01b604082015260600190565b6020808252601290820152715661756c74466163746f72793a207a65726f60701b604082015260600190565b60208082526022908201527f41636365737369626c653a2043616c6c6572206973206e6f7420616e2061646d60408201526134b760f11b606082015260800190565b6000821982111562001fa95762001fa962002092565b500190565b600081600019048311821515161562001fcb5762001fcb62002092565b500290565b60008282101562001fe55762001fe562002092565b500390565b60005b838110156200200757818101518382015260200162001fed565b8381111562002017576000848401525b50505050565b6000816200202f576200202f62002092565b506000190190565b600181811c908216806200204c57607f821691505b602082108114156200206e57634e487b7160e01b600052602260045260246000fd5b50919050565b60006000198214156200208b576200208b62002092565b5060010190565b634e487b7160e01b600052601160045260246000fdfe608060405260006010553480156200001657600080fd5b506001600055620000487f52eafc11f6f81f86878bffd31109a0d92f37506527754f00788853ff9f63b1308062000087565b620000747f52eafc11f6f81f86878bffd31109a0d92f37506527754f00788853ff9f63b13033620000d2565b62000081600033620000d2565b62000186565b600082815260196020526040808220600101805490849055905190918391839186917fbd79b86ffe0ab8e8776151514217cd7cacd52c909f66475c3af44e129f0b00ff9190a4505050565b620000de8282620000e2565b5050565b60008281526019602090815260408083206001600160a01b038516845290915290205460ff16620000de5760008281526019602090815260408083206001600160a01b03851684529091529020805460ff19166001179055620001423390565b6001600160a01b0316816001600160a01b0316837f2f8788117e7eff1d82e926ec794901d17c78024a50270940304540a733656f0d60405160405180910390a45050565b6121c480620001966000396000f3fe6080604052600436106102d95760003560e01c80636befec3f1161017b578063a217fddf116100d7578063ddca3f4311610085578063ddca3f431461092e578063eab73ca114610965578063eb582d131461098a578063ed5131f5146109aa578063f47f2f1d146109ca578063f8646408146109ea578063fc0c546a14610a0a57610322565b8063a217fddf14610858578063b911135f1461086d578063be72f2d3146108a3578063ce0c4c51146108b8578063cfc412be146108d8578063d547741f146108ee578063d7cb416f1461090e57610322565b806381f41eb21161013457806381f41eb2146107835780638356ca4f146107a35780638b8f4a65146107c35780638d4fdb40146107e357806391d148541461080357806396f1557c146108235780639a202d471461084357610322565b80636befec3f146106c357806370480275146106e357806375829def146107035780637cb00d25146107235780637cd5f663146107435780637ff36fbe1461076357610322565b80632ca0228a11610235578063526aef94116101e3578063526aef94146105e4578063550d01a31461061857806355640008146106485780635c60da1b1461065e5780635cc797d8146106735780635fcbd2851461069357806363a8fd89146106a957610322565b80632ca0228a146104f65780632f2ff15d1461050c57806336568abe1461052c5780633659cfe61461054c57806341c04d5e1461056c5780634a5df50f1461058e57806350d2a276146105ae57610322565b80630f4388c0116102925780630f4388c01461041a578063117ab8741461043a57806316f0115b14610450578063170e2fee14610470578063248a9ca31461049057806324d7806c146104c0578063256019d6146104e057610322565b806301ffc9a71461032c5780630284ec8f146103615780630411b9491461038257806306fdde03146103ba5780630a59fa08146103dc5780630a6aae11146103f657610322565b366103225760405162461bcd60e51b815260206004820152601460248201527331b0b73737ba103932b1b2b4bb329022ba3432b960611b60448201526064015b60405180910390fd5b61032a610a2a565b005b34801561033857600080fd5b5061034c610347366004611ddd565b610ad3565b60405190151581526020015b60405180910390f35b34801561036d57600080fd5b50600a5461034c90600160b81b900460ff1681565b34801561038e57600080fd5b506003546103a2906001600160a01b031681565b6040516001600160a01b039091168152602001610358565b3480156103c657600080fd5b506103cf610b0a565b6040516103589190611f53565b3480156103e857600080fd5b5060185461034c9060ff1681565b34801561040257600080fd5b5061040c60085481565b604051908152602001610358565b34801561042657600080fd5b5061040c610435366004611da3565b610b98565b34801561044657600080fd5b5061040c60105481565b34801561045c57600080fd5b506005546103a2906001600160a01b031681565b34801561047c57600080fd5b5061032a61048b366004611ca6565b610bb9565b34801561049c57600080fd5b5061040c6104ab366004611da3565b60009081526019602052604090206001015490565b3480156104cc57600080fd5b5061034c6104db366004611c8c565b610c92565b3480156104ec57600080fd5b5061040c600f5481565b34801561050257600080fd5b5061040c60095481565b34801561051857600080fd5b5061032a610527366004611dbb565b610cac565b34801561053857600080fd5b5061032a610547366004611dbb565b610cd2565b34801561055857600080fd5b5061032a610567366004611c8c565b610d4c565b34801561057857600080fd5b5061040c60008051602061216f83398151915281565b34801561059a57600080fd5b5061032a6105a9366004611d13565b610e52565b3480156105ba57600080fd5b506103a26105c9366004611ddd565b6017602052600090815260409020546001600160a01b031681565b3480156105f057600080fd5b50600a5461060590600160a01b900460020b81565b60405160029190910b8152602001610358565b34801561062457600080fd5b5061034c610633366004611c8c565b60166020526000908152604090205460ff1681565b34801561065457600080fd5b5061040c600e5481565b34801561066a57600080fd5b506103a26110da565b34801561067f57600080fd5b5061032a61068e366004611ca6565b6110eb565b34801561069f57600080fd5b5061040c600b5481565b3480156106b557600080fd5b5060145461034c9060ff1681565b3480156106cf57600080fd5b5061032a6106de366004611d89565b61111a565b3480156106ef57600080fd5b5061032a6106fe366004611c8c565b6111f2565b34801561070f57600080fd5b5061032a61071e366004611c8c565b611232565b34801561072f57600080fd5b5061032a61073e366004611d89565b6112e5565b34801561074f57600080fd5b5061032a61075e366004611cd8565b61132c565b34801561076f57600080fd5b506006546103a2906001600160a01b031681565b34801561078f57600080fd5b50600a546103a2906001600160a01b031681565b3480156107af57600080fd5b5061032a6107be366004611c8c565b61135c565b3480156107cf57600080fd5b506103a26107de366004611da3565b6113e6565b3480156107ef57600080fd5b506103a26107fe366004611ddd565b6113f1565b34801561080f57600080fd5b5061034c61081e366004611dbb565b6114ed565b34801561082f57600080fd5b5061032a61083e366004611c8c565b611518565b34801561084f57600080fd5b5061032a611548565b34801561086457600080fd5b5061040c600081565b34801561087957600080fd5b506103a2610888366004611da3565b6015602052600090815260409020546001600160a01b031681565b3480156108af57600080fd5b5061032a611596565b3480156108c457600080fd5b5061032a6108d3366004611e05565b6115c6565b3480156108e457600080fd5b5061040c60115481565b3480156108fa57600080fd5b5061032a610909366004611dbb565b61174a565b34801561091a57600080fd5b506007546103a2906001600160a01b031681565b34801561093a57600080fd5b5060045461095190600160a01b900462ffffff1681565b60405162ffffff9091168152602001610358565b34801561097157600080fd5b506018546103a29061010090046001600160a01b031681565b34801561099657600080fd5b506004546103a2906001600160a01b031681565b3480156109b657600080fd5b5061040c6109c5366004611da3565b611770565b3480156109d657600080fd5b5061034c6109e5366004611c8c565b611780565b3480156109f657600080fd5b506002546103a2906001600160a01b031681565b348015610a1657600080fd5b506001546103a2906001600160a01b031681565b6000610a416000356001600160e01b0319166113f1565b90506001600160a01b03811615801590610a5e575060145460ff16155b610aaa5760405162461bcd60e51b815260206004820152601d60248201527f50726f78793a20696d706c204f522070726f78792069732066616c73650000006044820152606401610319565b3660008037600080366000845af43d6000803e808015610ac9573d6000f35b3d6000fd5b505050565b60006001600160e01b03198216637965db0b60e01b1480610b0457506301ffc9a760e01b6001600160e01b03198316145b92915050565b600d8054610b17906120ec565b80601f0160208091040260200160405190810160405280929190818152602001828054610b43906120ec565b8015610b905780601f10610b6557610100808354040283529160200191610b90565b820191906000526020600020905b815481529060010190602001808311610b7357829003601f168201915b505050505081565b60138181548110610ba857600080fd5b600091825260209091200154905081565b610bc233611780565b610bde5760405162461bcd60e51b815260040161031990611ffa565b6018546001600160a01b038381166101009092041614801590610c0957506001600160a01b03821615155b610c4a5760405162461bcd60e51b815260206004820152601260248201527173616d652076616c7565206f72207a65726f60701b6044820152606401610319565b601880546001600160a01b03841661010002610100600160a81b03198216811790925560ff918216911617151581151514610c8e576018805460ff19168215151790555b5050565b6000610b0460008051602061216f833981519152836114ed565b600082815260196020526040902060010154610cc8813361178c565b610ace83836117f0565b6001600160a01b0381163314610d425760405162461bcd60e51b815260206004820152602f60248201527f416363657373436f6e74726f6c3a2063616e206f6e6c792072656e6f756e636560448201526e103937b632b9903337b91039b2b63360891b6064820152608401610319565b610c8e8282611876565b610d5533611780565b610d715760405162461bcd60e51b815260040161031990611ffa565b6001600160a01b038116610db75760405162461bcd60e51b815260206004820152600d60248201526c696e707574206973207a65726f60981b6044820152606401610319565b806001600160a01b0316610dcb60006118dd565b6001600160a01b03161415610e0e5760405162461bcd60e51b815260206004820152600960248201526839b0b6b29030b2323960b91b6044820152606401610319565b610e1b81600060016118f8565b6040516001600160a01b038216907fbc7cd75a20ee27fd9adebab32041f755214dbc6bffa90cc0225b39da2e5c2d3b90600090a250565b610e5b33611780565b610e775760405162461bcd60e51b815260040161031990611ffa565b81610ec45760405162461bcd60e51b815260206004820181905260248201527f50726f78793a205f73656c6563746f727327732073697a65206973207a65726f6044820152606401610319565b6001600160a01b03811660009081526016602052604090205460ff16610f275760405162461bcd60e51b815260206004820152601860248201527750726f78793a205f696d70206973206e6f7420616c69766560401b6044820152606401610319565b60005b828110156110d457816001600160a01b031660176000868685818110610f6057634e487b7160e01b600052603260045260246000fd5b9050602002016020810190610f759190611ddd565b6001600160e01b03191681526020810191909152604001600020546001600160a01b03161415610fe75760405162461bcd60e51b815260206004820152601d60248201527f4c69717569646974795661756c7450726f78793a2073616d6520696d700000006044820152606401610319565b816017600086868581811061100c57634e487b7160e01b600052603260045260246000fd5b90506020020160208101906110219190611ddd565b6001600160e01b0319168152602081019190915260400160002080546001600160a01b0319166001600160a01b03928316179055821684848381811061107757634e487b7160e01b600052603260045260246000fd5b905060200201602081019061108c9190611ddd565b6001600160e01b0319167f14ebc1c32aa68f4d766e89f3e546cee249f7df25183fc10ab1568d91c2ce9b7b60405160405180910390a3806110cc81612127565b915050610f2a565b50505050565b60006110e660006118dd565b905090565b6110f433611780565b6111105760405162461bcd60e51b815260040161031990611ffa565b610c8e828261197a565b61112333611780565b61113f5760405162461bcd60e51b815260040161031990611ffa565b60185460ff16151581151514156111855760405162461bcd60e51b815260206004820152600a60248201526973616d652076616c756560b01b6044820152606401610319565b80156111df5760185461010090046001600160a01b03166111df5760405162461bcd60e51b81526020600482015260146024820152737a65726f206c6f674576656e744164647265737360601b6044820152606401610319565b6018805460ff1916911515919091179055565b6111fb33611780565b6112175760405162461bcd60e51b815260040161031990611ffa565b61122f60008051602061216f83398151915282610cac565b50565b61123b33610c92565b8061124a575061124a33611780565b6112665760405162461bcd60e51b815260040161031990611f86565b6001600160a01b03811661128c5760405162461bcd60e51b815260040161031990611fc8565b336001600160a01b03821614156112b55760405162461bcd60e51b815260040161031990612042565b6112cd60008051602061216f83398151915282610cac565b61122f60008051602061216f83398151915233610cd2565b6112ee33610c92565b806112fd57506112fd33611780565b6113195760405162461bcd60e51b815260040161031990611f86565b6014805460ff1916911515919091179055565b61133533611780565b6113515760405162461bcd60e51b815260040161031990611ffa565b610ace8383836118f8565b61136533611780565b6113815760405162461bcd60e51b815260040161031990611ffa565b6001600160a01b0381166113a75760405162461bcd60e51b815260040161031990611fc8565b336001600160a01b03821614156113d05760405162461bcd60e51b815260040161031990612042565b6113db600082610cac565b61122f600033610cd2565b6000610b04826118dd565b6001600160e01b031981166000908152601760205260408120546001600160a01b03166114515750506000805260156020527fa31547ce6245cdb9ecea19cf8c7eb9f5974025bb4075011409251ae855b30aed546001600160a01b031690565b6001600160e01b031982166000908152601760209081526040808320546001600160a01b03168352601690915290205460ff16156114af57506001600160e01b0319166000908152601760205260409020546001600160a01b031690565b50506000805260156020527fa31547ce6245cdb9ecea19cf8c7eb9f5974025bb4075011409251ae855b30aed546001600160a01b031690565b919050565b60009182526019602090815260408084206001600160a01b0393909316845291905290205460ff1690565b61152133611780565b61153d5760405162461bcd60e51b815260040161031990611ffa565b61122f6000826119d9565b61155133610c92565b80611560575061156033611780565b61157c5760405162461bcd60e51b815260040161031990611f86565b61159460008051602061216f83398151915233610cd2565b565b61159f33611780565b6115bb5760405162461bcd60e51b815260040161031990611ffa565b611594600033610cd2565b6115cf33610c92565b806115de57506115de33611780565b6115fa5760405162461bcd60e51b815260040161031990611f86565b600d8054611607906120ec565b1590506116445760405162461bcd60e51b815260206004820152600b60248201526a185b1c9958591e481cd95d60aa1b6044820152606401610319565b6001600160a01b0384161580159061166457506001600160a01b03831615155b61169f5760405162461bcd60e51b815260206004820152600c60248201526b7a65726f206164647265737360a01b6044820152606401610319565b6000821180156116af5750600081115b6116e85760405162461bcd60e51b815260206004820152600a6024820152697a65726f20707269636560b01b6044820152606401610319565b84516116fb90600d906020880190611bcc565b50600180546001600160a01b0319166001600160a01b03861617905561172083610c92565b61173c5761173c60008051602061216f833981519152846119d9565b600891909155600955505050565b600082815260196020526040902060010154611766813361178c565b610ace8383611876565b60128181548110610ba857600080fd5b6000610b0481836114ed565b61179682826114ed565b610c8e576117ae816001600160a01b031660146119e3565b6117b98360206119e3565b6040516020016117ca929190611ee4565b60408051601f198184030181529082905262461bcd60e51b825261031991600401611f53565b6117fa82826114ed565b610c8e5760008281526019602090815260408083206001600160a01b03851684529091529020805460ff191660011790556118323390565b6001600160a01b0316816001600160a01b0316837f2f8788117e7eff1d82e926ec794901d17c78024a50270940304540a733656f0d60405160405180910390a45050565b61188082826114ed565b15610c8e5760008281526019602090815260408083206001600160a01b0385168085529252808320805460ff1916905551339285917ff6391f5c32d9c69d2a47ea670b442974b53935d1edc7fd64eb21e047a839171b9190a45050565b6000908152601560205260409020546001600160a01b031690565b823b6119465760405162461bcd60e51b815260206004820152601b60248201527f50726f78793a206e6f7420636f6e7472616374206164647265737300000000006044820152606401610319565b801561197457600082815260156020526040902080546001600160a01b0319166001600160a01b0385161790555b610ace83825b6001600160a01b038216600081815260166020908152604091829020805460ff191685151590811790915591519182527f72558d9bfba4210f9ef095c782589484151f6d90f7a81bb3cb9b33efc695d324910160405180910390a25050565b610c8e82826117f0565b606060006119f283600261208a565b6119fd906002612072565b67ffffffffffffffff811115611a2357634e487b7160e01b600052604160045260246000fd5b6040519080825280601f01601f191660200182016040528015611a4d576020820181803683370190505b509050600360fc1b81600081518110611a7657634e487b7160e01b600052603260045260246000fd5b60200101906001600160f81b031916908160001a905350600f60fb1b81600181518110611ab357634e487b7160e01b600052603260045260246000fd5b60200101906001600160f81b031916908160001a9053506000611ad784600261208a565b611ae2906001612072565b90505b6001811115611b76576f181899199a1a9b1b9c1cb0b131b232b360811b85600f1660108110611b2457634e487b7160e01b600052603260045260246000fd5b1a60f81b828281518110611b4857634e487b7160e01b600052603260045260246000fd5b60200101906001600160f81b031916908160001a90535060049490941c93611b6f816120d5565b9050611ae5565b508315611bc55760405162461bcd60e51b815260206004820181905260248201527f537472696e67733a20686578206c656e67746820696e73756666696369656e746044820152606401610319565b9392505050565b828054611bd8906120ec565b90600052602060002090601f016020900481019282611bfa5760008555611c40565b82601f10611c1357805160ff1916838001178555611c40565b82800160010185558215611c40579182015b82811115611c40578251825591602001919060010190611c25565b50611c4c929150611c50565b5090565b5b80821115611c4c5760008155600101611c51565b80356001600160a01b03811681146114e857600080fd5b803580151581146114e857600080fd5b600060208284031215611c9d578081fd5b611bc582611c65565b60008060408385031215611cb8578081fd5b611cc183611c65565b9150611ccf60208401611c7c565b90509250929050565b600080600060608486031215611cec578081fd5b611cf584611c65565b925060208401359150611d0a60408501611c7c565b90509250925092565b600080600060408486031215611d27578283fd5b833567ffffffffffffffff80821115611d3e578485fd5b818601915086601f830112611d51578485fd5b813581811115611d5f578586fd5b8760208260051b8501011115611d73578586fd5b602092830195509350611d0a9186019050611c65565b600060208284031215611d9a578081fd5b611bc582611c7c565b600060208284031215611db4578081fd5b5035919050565b60008060408385031215611dcd578182fd5b82359150611ccf60208401611c65565b600060208284031215611dee578081fd5b81356001600160e01b031981168114611bc5578182fd5b600080600080600060a08688031215611e1c578081fd5b853567ffffffffffffffff80821115611e33578283fd5b818801915088601f830112611e46578283fd5b813581811115611e5857611e58612158565b604051601f8201601f19908116603f01168101908382118183101715611e8057611e80612158565b816040528281528b6020848701011115611e98578586fd5b8260208601602083013785602084830101528099505050505050611ebe60208701611c65565b9350611ecc60408701611c65565b94979396509394606081013594506080013592915050565b76020b1b1b2b9b9a1b7b73a3937b61d1030b1b1b7bab73a1604d1b815260008351611f168160178501602088016120a9565b7001034b99036b4b9b9b4b733903937b6329607d1b6017918401918201528351611f478160288401602088016120a9565b01602801949350505050565b6020815260008251806020840152611f728160408501602087016120a9565b601f01601f19169190910160400192915050565b60208082526022908201527f41636365737369626c653a2043616c6c6572206973206e6f7420616e2061646d60408201526134b760f11b606082015260800190565b60208082526018908201527741636365737369626c653a207a65726f206164647265737360401b604082015260600190565b60208082526028908201527f41636365737369626c653a2043616c6c6572206973206e6f7420616e2070726f6040820152673c3c9030b236b4b760c11b606082015260800190565b60208082526016908201527520b1b1b2b9b9b4b136329d1039b0b6b29030b236b4b760511b604082015260600190565b6000821982111561208557612085612142565b500190565b60008160001904831182151516156120a4576120a4612142565b500290565b60005b838110156120c45781810151838201526020016120ac565b838111156110d45750506000910152565b6000816120e4576120e4612142565b506000190190565b600181811c9082168061210057607f821691505b6020821081141561212157634e487b7160e01b600052602260045260246000fd5b50919050565b600060001982141561213b5761213b612142565b5060010190565b634e487b7160e01b600052601160045260246000fd5b634e487b7160e01b600052604160045260246000fdfe52eafc11f6f81f86878bffd31109a0d92f37506527754f00788853ff9f63b130a264697066735822122078d32a3256a1aa4094e6abf1c55949e40cd8bcfa98d7accb21681b00e59889b264736f6c63430008040033df8b4c520ffe197c5343c6f5aec59570151ef9a492f2c624fd45ddde6135ec42a264697066735822122036d3761c390e85688acec31a7fe98f6ee92214d4be38b7b9b45206c6eef5c6bf64736f6c63430008040033df8b4c520ffe197c5343c6f5aec59570151ef9a492f2c624fd45ddde6135ec42",
  "linkReferences": {},
  "deployedLinkReferences": {}
}