{
  "_format": "hh-sol-artifact-1",
  "contractName": "InitialLiquidityVault",
  "sourceName": "contracts/typeFVault/InitialLiquidityVault.sol",
  "abi": [
    {
      "inputs": [],
      "stateMutability": "nonpayable",
      "type": "constructor"
    },
    {
      "anonymous": false,
      "inputs": [
        {
          "indexed": false,
          "internalType": "address",
          "name": "token",
          "type": "address"
        }
      ],
      "name": "ChangedToken",
      "type": "event"
    },
    {
      "anonymous": false,
      "inputs": [
        {
          "indexed": true,
          "internalType": "uint256",
          "name": "tokenId",
          "type": "uint256"
        },
        {
          "indexed": false,
          "internalType": "uint256",
          "name": "amount0",
          "type": "uint256"
        },
        {
          "indexed": false,
          "internalType": "uint256",
          "name": "amount1",
          "type": "uint256"
        }
      ],
      "name": "CollectInVault",
      "type": "event"
    },
    {
      "anonymous": false,
      "inputs": [
        {
          "indexed": true,
          "internalType": "uint256",
          "name": "tokenId",
          "type": "uint256"
        },
        {
          "indexed": false,
          "internalType": "uint128",
          "name": "liquidity",
          "type": "uint128"
        },
        {
          "indexed": false,
          "internalType": "uint256",
          "name": "amount0",
          "type": "uint256"
        },
        {
          "indexed": false,
          "internalType": "uint256",
          "name": "amount1",
          "type": "uint256"
        }
      ],
      "name": "IncreaseLiquidityInVault",
      "type": "event"
    },
    {
      "anonymous": false,
      "inputs": [
        {
          "indexed": false,
          "internalType": "uint256",
          "name": "_totalAllocatedAmount",
          "type": "uint256"
        }
      ],
      "name": "Initialized",
      "type": "event"
    },
    {
      "anonymous": false,
      "inputs": [
        {
          "indexed": true,
          "internalType": "address",
          "name": "caller",
          "type": "address"
        },
        {
          "indexed": false,
          "internalType": "uint256",
          "name": "tokenId",
          "type": "uint256"
        },
        {
          "indexed": false,
          "internalType": "uint128",
          "name": "liquidity",
          "type": "uint128"
        },
        {
          "indexed": false,
          "internalType": "uint256",
          "name": "amount0",
          "type": "uint256"
        },
        {
          "indexed": false,
          "internalType": "uint256",
          "name": "amount1",
          "type": "uint256"
        }
      ],
      "name": "MintedInVault",
      "type": "event"
    },
    {
      "anonymous": false,
      "inputs": [
        {
          "indexed": true,
          "internalType": "bytes32",
          "name": "role",
          "type": "bytes32"
        },
        {
          "indexed": true,
          "internalType": "bytes32",
          "name": "previousAdminRole",
          "type": "bytes32"
        },
        {
          "indexed": true,
          "internalType": "bytes32",
          "name": "newAdminRole",
          "type": "bytes32"
        }
      ],
      "name": "RoleAdminChanged",
      "type": "event"
    },
    {
      "anonymous": false,
      "inputs": [
        {
          "indexed": true,
          "internalType": "bytes32",
          "name": "role",
          "type": "bytes32"
        },
        {
          "indexed": true,
          "internalType": "address",
          "name": "account",
          "type": "address"
        },
        {
          "indexed": true,
          "internalType": "address",
          "name": "sender",
          "type": "address"
        }
      ],
      "name": "RoleGranted",
      "type": "event"
    },
    {
      "anonymous": false,
      "inputs": [
        {
          "indexed": true,
          "internalType": "bytes32",
          "name": "role",
          "type": "bytes32"
        },
        {
          "indexed": true,
          "internalType": "address",
          "name": "account",
          "type": "address"
        },
        {
          "indexed": true,
          "internalType": "address",
          "name": "sender",
          "type": "address"
        }
      ],
      "name": "RoleRevoked",
      "type": "event"
    },
    {
      "anonymous": false,
      "inputs": [
        {
          "indexed": false,
          "internalType": "string",
          "name": "name",
          "type": "string"
        },
        {
          "indexed": false,
          "internalType": "address",
          "name": "token",
          "type": "address"
        },
        {
          "indexed": false,
          "internalType": "address",
          "name": "owner",
          "type": "address"
        }
      ],
      "name": "SetBaseInfo",
      "type": "event"
    },
    {
      "anonymous": false,
      "inputs": [
        {
          "indexed": false,
          "internalType": "bool",
          "name": "boolReadyToCreatePool",
          "type": "bool"
        }
      ],
      "name": "SetBoolReadyToCreatePool",
      "type": "event"
    },
    {
      "anonymous": false,
      "inputs": [
        {
          "indexed": false,
          "internalType": "uint256",
          "name": "tosPrice",
          "type": "uint256"
        },
        {
          "indexed": false,
          "internalType": "uint256",
          "name": "tokenPrice",
          "type": "uint256"
        },
        {
          "indexed": false,
          "internalType": "uint160",
          "name": "initSqrtPrice",
          "type": "uint160"
        }
      ],
      "name": "SetInitialPrice",
      "type": "event"
    },
    {
      "anonymous": false,
      "inputs": [
        {
          "indexed": false,
          "internalType": "address",
          "name": "pool",
          "type": "address"
        },
        {
          "indexed": false,
          "internalType": "address",
          "name": "token0",
          "type": "address"
        },
        {
          "indexed": false,
          "internalType": "address",
          "name": "token1",
          "type": "address"
        }
      ],
      "name": "SetPool",
      "type": "event"
    },
    {
      "anonymous": false,
      "inputs": [
        {
          "indexed": false,
          "internalType": "uint160",
          "name": "inSqrtPriceX96",
          "type": "uint160"
        }
      ],
      "name": "SetPoolInitialized",
      "type": "event"
    },
    {
      "anonymous": false,
      "inputs": [
        {
          "indexed": false,
          "internalType": "address",
          "name": "tos",
          "type": "address"
        },
        {
          "indexed": false,
          "internalType": "uint24",
          "name": "fee",
          "type": "uint24"
        },
        {
          "indexed": false,
          "internalType": "int24",
          "name": "tickSpacings",
          "type": "int24"
        }
      ],
      "name": "SetTokens",
      "type": "event"
    },
    {
      "anonymous": false,
      "inputs": [
        {
          "indexed": false,
          "internalType": "address",
          "name": "poolfactory",
          "type": "address"
        },
        {
          "indexed": false,
          "internalType": "address",
          "name": "npm",
          "type": "address"
        }
      ],
      "name": "SetUniswapInfo",
      "type": "event"
    },
    {
      "anonymous": false,
      "inputs": [
        {
          "indexed": false,
          "internalType": "address",
          "name": "caller",
          "type": "address"
        },
        {
          "indexed": false,
          "internalType": "address",
          "name": "tokenAddress",
          "type": "address"
        },
        {
          "indexed": false,
          "internalType": "address",
          "name": "to",
          "type": "address"
        },
        {
          "indexed": false,
          "internalType": "uint256",
          "name": "amount",
          "type": "uint256"
        }
      ],
      "name": "WithdrawalInVault",
      "type": "event"
    },
    {
      "inputs": [],
      "name": "DEFAULT_ADMIN_ROLE",
      "outputs": [
        {
          "internalType": "bytes32",
          "name": "",
          "type": "bytes32"
        }
      ],
      "stateMutability": "view",
      "type": "function"
    },
    {
      "inputs": [],
      "name": "NonfungiblePositionManager",
      "outputs": [
        {
          "internalType": "contract INonfungiblePositionManager",
          "name": "",
          "type": "address"
        }
      ],
      "stateMutability": "view",
      "type": "function"
    },
    {
      "inputs": [],
      "name": "PROJECT_ADMIN_ROLE",
      "outputs": [
        {
          "internalType": "bytes32",
          "name": "",
          "type": "bytes32"
        }
      ],
      "stateMutability": "view",
      "type": "function"
    },
    {
      "inputs": [],
      "name": "TOS",
      "outputs": [
        {
          "internalType": "contract IERC20",
          "name": "",
          "type": "address"
        }
      ],
      "stateMutability": "view",
      "type": "function"
    },
    {
      "inputs": [],
      "name": "UniswapV3Factory",
      "outputs": [
        {
          "internalType": "contract IUniswapV3Factory",
          "name": "",
          "type": "address"
        }
      ],
      "stateMutability": "view",
      "type": "function"
    },
    {
      "inputs": [
        {
          "internalType": "address",
          "name": "account",
          "type": "address"
        }
      ],
      "name": "addAdmin",
      "outputs": [],
      "stateMutability": "nonpayable",
      "type": "function"
    },
    {
      "inputs": [
        {
          "internalType": "address",
          "name": "_owner",
          "type": "address"
        }
      ],
      "name": "addProxyAdmin",
      "outputs": [],
      "stateMutability": "nonpayable",
      "type": "function"
    },
    {
      "inputs": [
        {
          "internalType": "address",
          "name": "",
          "type": "address"
        }
      ],
      "name": "aliveImplementation",
      "outputs": [
        {
          "internalType": "bool",
          "name": "",
          "type": "bool"
        }
      ],
      "stateMutability": "view",
      "type": "function"
    },
    {
      "inputs": [],
      "name": "boolLogEvent",
      "outputs": [
        {
          "internalType": "bool",
          "name": "",
          "type": "bool"
        }
      ],
      "stateMutability": "view",
      "type": "function"
    },
    {
      "inputs": [],
      "name": "boolReadyToCreatePool",
      "outputs": [
        {
          "internalType": "bool",
          "name": "",
          "type": "bool"
        }
      ],
      "stateMutability": "view",
      "type": "function"
    },
    {
      "inputs": [
        {
          "internalType": "address",
          "name": "_token",
          "type": "address"
        }
      ],
      "name": "changeToken",
      "outputs": [],
      "stateMutability": "nonpayable",
      "type": "function"
    },
    {
      "inputs": [
        {
          "internalType": "uint256",
          "name": "",
          "type": "uint256"
        }
      ],
      "name": "claimAmounts",
      "outputs": [
        {
          "internalType": "uint256",
          "name": "",
          "type": "uint256"
        }
      ],
      "stateMutability": "view",
      "type": "function"
    },
    {
      "inputs": [
        {
          "internalType": "uint256",
          "name": "",
          "type": "uint256"
        }
      ],
      "name": "claimTimes",
      "outputs": [
        {
          "internalType": "uint256",
          "name": "",
          "type": "uint256"
        }
      ],
      "stateMutability": "view",
      "type": "function"
    },
    {
      "inputs": [],
      "name": "collect",
      "outputs": [],
      "stateMutability": "nonpayable",
      "type": "function"
    },
    {
      "inputs": [
        {
          "internalType": "address",
          "name": "tokenA",
          "type": "address"
        },
        {
          "internalType": "address",
          "name": "tokenB",
          "type": "address"
        },
        {
          "internalType": "uint24",
          "name": "_fee",
          "type": "uint24"
        }
      ],
      "name": "computePoolAddress",
      "outputs": [
        {
          "internalType": "address",
          "name": "pool",
          "type": "address"
        },
        {
          "internalType": "address",
          "name": "token0",
          "type": "address"
        },
        {
          "internalType": "address",
          "name": "token1",
          "type": "address"
        }
      ],
      "stateMutability": "view",
      "type": "function"
    },
    {
      "inputs": [],
      "name": "fee",
      "outputs": [
        {
          "internalType": "uint24",
          "name": "",
          "type": "uint24"
        }
      ],
      "stateMutability": "view",
      "type": "function"
    },
    {
      "inputs": [],
      "name": "getMaxTick",
      "outputs": [
        {
          "internalType": "int24",
          "name": "",
          "type": "int24"
        }
      ],
      "stateMutability": "view",
      "type": "function"
    },
    {
      "inputs": [],
      "name": "getMinTick",
      "outputs": [
        {
          "internalType": "int24",
          "name": "",
          "type": "int24"
        }
      ],
      "stateMutability": "view",
      "type": "function"
    },
    {
      "inputs": [
        {
          "internalType": "bytes32",
          "name": "role",
          "type": "bytes32"
        }
      ],
      "name": "getRoleAdmin",
      "outputs": [
        {
          "internalType": "bytes32",
          "name": "",
          "type": "bytes32"
        }
      ],
      "stateMutability": "view",
      "type": "function"
    },
    {
      "inputs": [
        {
          "internalType": "int24",
          "name": "tick",
          "type": "int24"
        }
      ],
      "name": "getSqrtRatioAtTick",
      "outputs": [
        {
          "internalType": "uint160",
          "name": "",
          "type": "uint160"
        }
      ],
      "stateMutability": "pure",
      "type": "function"
    },
    {
      "inputs": [
        {
          "internalType": "uint160",
          "name": "sqrtPriceX96",
          "type": "uint160"
        }
      ],
      "name": "getTickAtSqrtRatio",
      "outputs": [
        {
          "internalType": "int24",
          "name": "",
          "type": "int24"
        }
      ],
      "stateMutability": "pure",
      "type": "function"
    },
    {
      "inputs": [
        {
          "internalType": "bytes32",
          "name": "role",
          "type": "bytes32"
        },
        {
          "internalType": "address",
          "name": "account",
          "type": "address"
        }
      ],
      "name": "grantRole",
      "outputs": [],
      "stateMutability": "nonpayable",
      "type": "function"
    },
    {
      "inputs": [
        {
          "internalType": "bytes32",
          "name": "role",
          "type": "bytes32"
        },
        {
          "internalType": "address",
          "name": "account",
          "type": "address"
        }
      ],
      "name": "hasRole",
      "outputs": [
        {
          "internalType": "bool",
          "name": "",
          "type": "bool"
        }
      ],
      "stateMutability": "view",
      "type": "function"
    },
    {
      "inputs": [],
      "name": "initSqrtPriceX96",
      "outputs": [
        {
          "internalType": "uint160",
          "name": "",
          "type": "uint160"
        }
      ],
      "stateMutability": "view",
      "type": "function"
    },
    {
      "inputs": [],
      "name": "initialTokenPrice",
      "outputs": [
        {
          "internalType": "uint256",
          "name": "",
          "type": "uint256"
        }
      ],
      "stateMutability": "view",
      "type": "function"
    },
    {
      "inputs": [],
      "name": "initialTosPrice",
      "outputs": [
        {
          "internalType": "uint256",
          "name": "",
          "type": "uint256"
        }
      ],
      "stateMutability": "view",
      "type": "function"
    },
    {
      "inputs": [
        {
          "internalType": "uint256",
          "name": "_totalAllocatedAmount",
          "type": "uint256"
        }
      ],
      "name": "initialize",
      "outputs": [],
      "stateMutability": "nonpayable",
      "type": "function"
    },
    {
      "inputs": [
        {
          "internalType": "address",
          "name": "account",
          "type": "address"
        }
      ],
      "name": "isAdmin",
      "outputs": [
        {
          "internalType": "bool",
          "name": "",
          "type": "bool"
        }
      ],
      "stateMutability": "view",
      "type": "function"
    },
    {
      "inputs": [
        {
          "internalType": "address",
          "name": "account",
          "type": "address"
        }
      ],
      "name": "isProxyAdmin",
      "outputs": [
        {
          "internalType": "bool",
          "name": "",
          "type": "bool"
        }
      ],
      "stateMutability": "view",
      "type": "function"
    },
    {
      "inputs": [],
      "name": "logEventAddress",
      "outputs": [
        {
          "internalType": "address",
          "name": "",
          "type": "address"
        }
      ],
      "stateMutability": "view",
      "type": "function"
    },
    {
      "inputs": [],
      "name": "lpToken",
      "outputs": [
        {
          "internalType": "uint256",
          "name": "",
          "type": "uint256"
        }
      ],
      "stateMutability": "view",
      "type": "function"
    },
    {
      "inputs": [],
      "name": "mint",
      "outputs": [],
      "stateMutability": "nonpayable",
      "type": "function"
    },
    {
      "inputs": [],
      "name": "name",
      "outputs": [
        {
          "internalType": "string",
          "name": "",
          "type": "string"
        }
      ],
      "stateMutability": "view",
      "type": "function"
    },
    {
      "inputs": [],
      "name": "nowClaimRound",
      "outputs": [
        {
          "internalType": "uint256",
          "name": "",
          "type": "uint256"
        }
      ],
      "stateMutability": "view",
      "type": "function"
    },
    {
      "inputs": [],
      "name": "pauseProxy",
      "outputs": [
        {
          "internalType": "bool",
          "name": "",
          "type": "bool"
        }
      ],
      "stateMutability": "view",
      "type": "function"
    },
    {
      "inputs": [],
      "name": "pool",
      "outputs": [
        {
          "internalType": "contract IUniswapV3Pool",
          "name": "",
          "type": "address"
        }
      ],
      "stateMutability": "view",
      "type": "function"
    },
    {
      "inputs": [
        {
          "internalType": "uint256",
          "name": "",
          "type": "uint256"
        }
      ],
      "name": "proxyImplementation",
      "outputs": [
        {
          "internalType": "address",
          "name": "",
          "type": "address"
        }
      ],
      "stateMutability": "view",
      "type": "function"
    },
    {
      "inputs": [],
      "name": "removeAdmin",
      "outputs": [],
      "stateMutability": "nonpayable",
      "type": "function"
    },
    {
      "inputs": [],
      "name": "removeProxyAdmin",
      "outputs": [],
      "stateMutability": "nonpayable",
      "type": "function"
    },
    {
      "inputs": [
        {
          "internalType": "bytes32",
          "name": "role",
          "type": "bytes32"
        },
        {
          "internalType": "address",
          "name": "account",
          "type": "address"
        }
      ],
      "name": "renounceRole",
      "outputs": [],
      "stateMutability": "nonpayable",
      "type": "function"
    },
    {
      "inputs": [
        {
          "internalType": "bytes32",
          "name": "role",
          "type": "bytes32"
        },
        {
          "internalType": "address",
          "name": "account",
          "type": "address"
        }
      ],
      "name": "revokeRole",
      "outputs": [],
      "stateMutability": "nonpayable",
      "type": "function"
    },
    {
      "inputs": [
        {
          "internalType": "bytes4",
          "name": "",
          "type": "bytes4"
        }
      ],
      "name": "selectorImplementation",
      "outputs": [
        {
          "internalType": "address",
          "name": "",
          "type": "address"
        }
      ],
      "stateMutability": "view",
      "type": "function"
    },
    {
      "inputs": [
        {
          "internalType": "string",
          "name": "_name",
          "type": "string"
        },
        {
          "internalType": "address",
          "name": "_token",
          "type": "address"
        },
        {
          "internalType": "address",
          "name": "_owner",
          "type": "address"
        }
      ],
      "name": "setBaseInfo",
      "outputs": [],
      "stateMutability": "nonpayable",
      "type": "function"
    },
    {
      "inputs": [
        {
          "internalType": "bool",
          "name": "_boolReadyToCreatePool",
          "type": "bool"
        }
      ],
      "name": "setBoolReadyToCreatePool",
      "outputs": [],
      "stateMutability": "nonpayable",
      "type": "function"
    },
    {
      "inputs": [
        {
          "internalType": "uint256",
          "name": "tosPrice",
          "type": "uint256"
        },
        {
          "internalType": "uint256",
          "name": "tokenPrice",
          "type": "uint256"
        },
        {
          "internalType": "uint160",
          "name": "initSqrtPrice",
          "type": "uint160"
        }
      ],
      "name": "setInitialPrice",
      "outputs": [],
      "stateMutability": "nonpayable",
      "type": "function"
    },
    {
      "inputs": [],
      "name": "setPool",
      "outputs": [],
      "stateMutability": "nonpayable",
      "type": "function"
    },
    {
      "inputs": [
        {
          "internalType": "uint160",
          "name": "inSqrtPriceX96",
          "type": "uint160"
        }
      ],
      "name": "setPoolInitialize",
      "outputs": [],
      "stateMutability": "nonpayable",
      "type": "function"
    },
    {
      "inputs": [
        {
          "internalType": "address",
          "name": "tos",
          "type": "address"
        },
        {
          "internalType": "uint24",
          "name": "_fee",
          "type": "uint24"
        }
      ],
      "name": "setTokens",
      "outputs": [],
      "stateMutability": "nonpayable",
      "type": "function"
    },
    {
      "inputs": [
        {
          "internalType": "address",
          "name": "poolfactory",
          "type": "address"
        },
        {
          "internalType": "address",
          "name": "npm",
          "type": "address"
        }
      ],
      "name": "setUniswapInfo",
      "outputs": [],
      "stateMutability": "nonpayable",
      "type": "function"
    },
    {
      "inputs": [
        {
          "internalType": "bytes4",
          "name": "interfaceId",
          "type": "bytes4"
        }
      ],
      "name": "supportsInterface",
      "outputs": [
        {
          "internalType": "bool",
          "name": "",
          "type": "bool"
        }
      ],
      "stateMutability": "view",
      "type": "function"
    },
    {
      "inputs": [],
      "name": "tickIntervalMinimum",
      "outputs": [
        {
          "internalType": "int24",
          "name": "",
          "type": "int24"
        }
      ],
      "stateMutability": "view",
      "type": "function"
    },
    {
      "inputs": [],
      "name": "token",
      "outputs": [
        {
          "internalType": "contract IERC20",
          "name": "",
          "type": "address"
        }
      ],
      "stateMutability": "view",
      "type": "function"
    },
    {
      "inputs": [],
      "name": "token0Address",
      "outputs": [
        {
          "internalType": "address",
          "name": "",
          "type": "address"
        }
      ],
      "stateMutability": "view",
      "type": "function"
    },
    {
      "inputs": [],
      "name": "token1Address",
      "outputs": [
        {
          "internalType": "address",
          "name": "",
          "type": "address"
        }
      ],
      "stateMutability": "view",
      "type": "function"
    },
    {
      "inputs": [],
      "name": "totalAllocatedAmount",
      "outputs": [
        {
          "internalType": "uint256",
          "name": "",
          "type": "uint256"
        }
      ],
      "stateMutability": "view",
      "type": "function"
    },
    {
      "inputs": [],
      "name": "totalClaimCounts",
      "outputs": [
        {
          "internalType": "uint256",
          "name": "",
          "type": "uint256"
        }
      ],
      "stateMutability": "view",
      "type": "function"
    },
    {
      "inputs": [],
      "name": "totalClaimsAmount",
      "outputs": [
        {
          "internalType": "uint256",
          "name": "",
          "type": "uint256"
        }
      ],
      "stateMutability": "view",
      "type": "function"
    },
    {
      "inputs": [
        {
          "internalType": "address",
          "name": "newAdmin",
          "type": "address"
        }
      ],
      "name": "transferAdmin",
      "outputs": [],
      "stateMutability": "nonpayable",
      "type": "function"
    },
    {
      "inputs": [
        {
          "internalType": "address",
          "name": "newAdmin",
          "type": "address"
        }
      ],
      "name": "transferProxyAdmin",
      "outputs": [],
      "stateMutability": "nonpayable",
      "type": "function"
    },
    {
      "inputs": [
        {
          "internalType": "address",
          "name": "_token",
          "type": "address"
        },
        {
          "internalType": "address",
          "name": "_account",
          "type": "address"
        },
        {
          "internalType": "uint256",
          "name": "_amount",
          "type": "uint256"
        }
      ],
      "name": "withdraw",
      "outputs": [],
      "stateMutability": "nonpayable",
      "type": "function"
    }
  ],
  "bytecode": "0x6080604052600060105534801561001557600080fd5b50600160005561487b8061002a6000396000f3fe608060405234801561001057600080fd5b50600436106103245760003560e01c8063671884fe116101a9578063b911135f116100ef578063e52253811161009d578063e522538114610723578063eab73ca11461072b578063eb582d1314610743578063ed5131f514610756578063f47f2f1d14610769578063f86464081461077c578063fc0c546a1461078f578063fe4b84df146107a257600080fd5b8063b911135f14610686578063be72f2d3146106af578063cfc412be146106b7578063d547741f146106c0578063d7cb416f146106d3578063d9caed12146106e6578063ddca3f43146106f957600080fd5b80638356ca4f116101575780638356ca4f1461060457806384963f9e146106175780638eee461a1461062a57806391d148541461063d57806396f1557c14610650578063986cfba3146106635780639a202d4714610676578063a217fddf1461067e57600080fd5b8063671884fe14610595578063704802751461059d57806375829def146105b0578063771ff381146105c35780637ff36fbe146105cb5780638158f0c0146105de57806381f41eb2146105f157600080fd5b8063256019d61161026e578063526aef941161021c578063526aef94146104f757806352a1d8291461050b578063550d01a31461051e578063556400081461054157806355ecf5a81461054a5780635fcbd2851461056c57806363a8fd891461057557806366829b161461058257600080fd5b8063256019d61461046e5780632ca0228a146104775780632f2ff15d1461048057806336568abe1461049357806341c04d5e146104a65780634f76c058146104bb57806350d2a276146104ce57600080fd5b80630f4388c0116102d65780630f4388c0146103d3578063117ab874146103e65780631249c58b146103ef57806316daa663146103f757806316f0115b14610412578063248a9ca31461042557806324d7806c14610448578063251df7a21461045b57600080fd5b806301ffc9a7146103295780630284ec8f146103515780630411b9491461036557806306fdde03146103855780630724e61c1461039a5780630a59fa08146103af5780630a6aae11146103bc575b600080fd5b61033c610337366004613c9d565b6107b5565b60405190151581526020015b60405180910390f35b600a5461033c90600160b81b900460ff1681565b600354610378906001600160a01b031681565b60405161034891906140b1565b61038d6107ec565b6040516103489190614143565b6103ad6103a8366004613b3a565b61087a565b005b60185461033c9060ff1681565b6103c560085481565b604051908152602001610348565b6103c56103e1366004613c61565b6109ed565b6103c560105481565b6103ad610a0e565b6103ff610bd9565b60405160029190910b8152602001610348565b600554610378906001600160a01b031681565b6103c5610433366004613c61565b60009081526019602052604090206001015490565b61033c610456366004613b02565b610c09565b6103ad610469366004613bfc565b610c23565b6103c5600f5481565b6103c560095481565b6103ad61048e366004613c79565b610dd6565b6103ad6104a1366004613c79565b610e01565b6103c560008051602061482683398151915281565b6103ff6104c9366004613b02565b610e7f565b6103786104dc366004613c9d565b6017602052600090815260409020546001600160a01b031681565b600a546103ff90600160a01b900460020b81565b6103ad610519366004613ce1565b610e8a565b61033c61052c366004613b02565b60166020526000908152604090205460ff1681565b6103c5600e5481565b61055d610558366004613b72565b610fc6565b604051610348939291906140df565b6103c5600b5481565b60145461033c9060ff1681565b6103ad610590366004613b02565b6110ab565b6103ff61115f565b6103ad6105ab366004613b02565b611176565b6103ad6105be366004613b02565b6111b6565b6103ad611269565b600654610378906001600160a01b031681565b6103ad6105ec366004613b02565b611624565b600a54610378906001600160a01b031681565b6103ad610612366004613b02565b61179e565b6103ad610625366004613eee565b611828565b6103ad610638366004613c29565b6118ed565b61033c61064b366004613c79565b6119cf565b6103ad61065e366004613b02565b6119fa565b610378610671366004613cc5565b611a2a565b6103ad611a35565b6103c5600081565b610378610694366004613c61565b6015602052600090815260409020546001600160a01b031681565b6103ad611a83565b6103c560115481565b6103ad6106ce366004613c79565b611ab3565b600754610378906001600160a01b031681565b6103ad6106f4366004613bbc565b611ad9565b60045461070f90600160a01b900462ffffff1681565b60405162ffffff9091168152602001610348565b6103ad611d9e565b6018546103789061010090046001600160a01b031681565b600454610378906001600160a01b031681565b6103c5610764366004613c61565b612030565b61033c610777366004613b02565b612040565b600254610378906001600160a01b031681565b600154610378906001600160a01b031681565b6103ad6107b0366004613c61565b61204c565b60006001600160e01b03198216637965db0b60e01b14806107e657506301ffc9a760e01b6001600160e01b03198316145b92915050565b600d80546107f990614716565b80601f016020809104026020016040519081016040528092919081815260200182805461082590614716565b80156108725780601f1061084757610100808354040283529160200191610872565b820191906000526020600020905b81548152906001019060200180831161085557829003601f168201915b505050505081565b61088333612040565b6108a85760405162461bcd60e51b815260040161089f90614258565b60405180910390fd5b6001600160a01b038216158015906108ce57506003546001600160a01b03838116911614155b61091a5760405162461bcd60e51b815260206004820152601d60248201527f7a65726f206f722073616d6520556e69737761705633466163746f7279000000604482015260640161089f565b6001600160a01b0381161580159061094057506004546001600160a01b03828116911614155b61097f5760405162461bcd60e51b815260206004820152601060248201526f7a65726f206f722073616d65206e706d60801b604482015260640161089f565b600380546001600160a01b038085166001600160a01b03199283161790925560048054928416929091169190911790556040517f5fc0ec65c13a954263aac9f4f69b985fb5882ef912527cb4010c8ffd07be6172906109e190849084906140c5565b60405180910390a15050565b601381815481106109fd57600080fd5b600091825260209091200154905081565b600a54600160b81b900460ff16610a375760405162461bcd60e51b815260040161089f906142d0565b60026000541415610a5a5760405162461bcd60e51b815260040161089f906143ac565b60026000556005546001600160a01b031680610a885760405162461bcd60e51b815260040161089f90614189565b6006546001600160a01b031680610ab15760405162461bcd60e51b815260040161089f90614189565b6007546001600160a01b031680610ada5760405162461bcd60e51b815260040161089f90614189565b60055460408051633850c7bd60e01b815290516000926001600160a01b031691633850c7bd9160048083019260e0929190829003018186803b158015610b1f57600080fd5b505afa158015610b33573d6000803e3d6000fd5b505050506040513d601f19601f82011682018060405250810190610b579190613de2565b50505050505090506000816001600160a01b031611610bb25760405162461bcd60e51b81526020600482015260176024820152761c1bdbdb081a5cc81b9bdd081a5b9a5d1a585b1a5e9959604a1b604482015260640161089f565b600b54610bc657610bc16121d4565b610bce565b610bce612552565b505060016000555050565b600c5460009060020b80610bf0620d89e719614765565b610bfa9190614500565b610c04919061454e565b905090565b60006107e6600080516020614826833981519152836119cf565b610c2c33612040565b610c485760405162461bcd60e51b815260040161089f90614258565b600a54600160b81b900460ff1615610c725760405162461bcd60e51b815260040161089f9061436a565b6001600160a01b03821615801590610c9857506002546001600160a01b03838116911614155b610ccf5760405162461bcd60e51b815260206004820152600860248201526773616d6520746f7360c01b604482015260640161089f565b600280546001600160a01b0319166001600160a01b0384161790556004805462ffffff60a01b1916600160a01b62ffffff84811682029290921792839055909104166101f41415610d2e57600c805462ffffff1916600a179055610d82565b600454600160a01b900462ffffff16610bb81415610d5a57600c805462ffffff1916603c179055610d82565b600454600160a01b900462ffffff166127101415610d8257600c805462ffffff191660c81790555b600c54604080516001600160a01b038516815262ffffff84166020820152600292830b90920b908201527fa5edbc8e8d441c0b1b4f4791110f6ba4ea2e5feaee81d0c3ac25ac9011cf1e31906060016109e1565b600082815260196020526040902060010154610df2813361283b565b610dfc838361289f565b505050565b6001600160a01b0381163314610e715760405162461bcd60e51b815260206004820152602f60248201527f416363657373436f6e74726f6c3a2063616e206f6e6c792072656e6f756e636560448201526e103937b632b9903337b91039b2b63360891b606482015260840161089f565b610e7b8282612925565b5050565b60006107e68261298c565b610e9333610c09565b80610ea25750610ea233612040565b610ebe5760405162461bcd60e51b815260040161089f906141b6565b600a54600160b81b900460ff1615610ee85760405162461bcd60e51b815260040161089f9061436a565b600d8054610ef590614716565b159050610f325760405162461bcd60e51b815260206004820152600b60248201526a185b1c9958591e481cd95d60aa1b604482015260640161089f565b8251610f4590600d906020860190613a0f565b50600180546001600160a01b0319166001600160a01b038416179055610f6a81610c09565b610f8657610f8660008051602061482683398151915282612cc6565b7fb3339816308632da1d741d52460a9100d0cc3768e3bc357b03cba9fccaac38fd838383604051610fb993929190614156565b60405180910390a1505050565b600083837fe34f199b19b2b4f47f68442619d555527d244f78a3297ea89325f843f87b8b546001600160a01b038083169084161115611006578592508691505b6003546040516001600160a01b039091169061102a90859085908990602001614102565b6040516020818303038152906040528051906020012082604051602001611086939291906001600160f81b0319815260609390931b6bffffffffffffffffffffffff191660018401526015830191909152603582015260550190565b6040516020818303038152906040528051906020012060001c93505093509350939050565b6110b433610c09565b806110c357506110c333612040565b6110df5760405162461bcd60e51b815260040161089f906141b6565b600a54600160b81b900460ff16156111095760405162461bcd60e51b815260040161089f9061436a565b600180546001600160a01b0319166001600160a01b0383161790556040517f72d0261c3befe2241e8198d47b6093163fa025dbdf8e170ff5163a03e62a6b5b906111549083906140b1565b60405180910390a150565b600c5460009060020b610bfa81620d89e719614500565b61117f33612040565b61119b5760405162461bcd60e51b815260040161089f90614258565b6111b360008051602061482683398151915282610dd6565b50565b6111bf33610c09565b806111ce57506111ce33612040565b6111ea5760405162461bcd60e51b815260040161089f906141b6565b6001600160a01b0381166112105760405162461bcd60e51b815260040161089f906141f8565b336001600160a01b03821614156112395760405162461bcd60e51b815260040161089f906142a0565b61125160008051602061482683398151915282610dd6565b6111b360008051602061482683398151915233610e01565b6003546001600160a01b03161580159061128d57506004546001600160a01b031615155b80156112a357506002546001600160a01b031615155b6112bf5760405162461bcd60e51b815260040161089f90614338565b600a54600160b81b900460ff166112e85760405162461bcd60e51b815260040161089f906142d0565b60035460025460015460048054604051630b4c774160e11b81526000956001600160a01b0390811695631698ee82956113369591831694921692600160a01b90920462ffffff169101614102565b60206040518083038186803b15801561134e57600080fd5b505afa158015611362573d6000803e3d6000fd5b505050506040513d601f19601f820116820180604052508101906113869190613b1e565b90506001600160a01b038116611483576003546002546001546004805460405163a167129560e01b81526000956001600160a01b039081169563a1671295956113e49591831694921692600160a01b90920462ffffff169101614102565b602060405180830381600087803b1580156113fe57600080fd5b505af1158015611412573d6000803e3d6000fd5b505050506040513d601f19601f820116820180604052508101906114369190613b1e565b90506001600160a01b0381166114805760405162461bcd60e51b815260206004820152600f60248201526e18dc99585d19541bdbdb0819985a5b608a1b604482015260640161089f565b90505b600580546001600160a01b0319166001600160a01b03831690811790915560408051630dfe168160e01b81529051630dfe168191600480820192602092909190829003018186803b1580156114d757600080fd5b505afa1580156114eb573d6000803e3d6000fd5b505050506040513d601f19601f8201168201806040525081019061150f9190613b1e565b600680546001600160a01b0319166001600160a01b039283161790556005546040805163d21220a760e01b81529051919092169163d21220a7916004808301926020929190829003018186803b15801561156857600080fd5b505afa15801561157c573d6000803e3d6000fd5b505050506040513d601f19601f820116820180604052508101906115a09190613b1e565b600780546001600160a01b0319166001600160a01b03928316179055600a5416156115da57600a546115da906001600160a01b0316611624565b6005546006546007546040517f87686ebed73b2bf2a483156cdc52a73ebd37e11a1e0adb90f09e4216e0dd541593611154936001600160a01b0391821693908216929116906140df565b6005546001600160a01b03168061164d5760405162461bcd60e51b815260040161089f90614189565b600a54600160b81b900460ff166116765760405162461bcd60e51b815260040161089f906142d0565b60055460408051633850c7bd60e01b815290516000926001600160a01b031691633850c7bd9160048083019260e0929190829003018186803b1580156116bb57600080fd5b505afa1580156116cf573d6000803e3d6000fd5b505050506040513d601f19601f820116820180604052508101906116f39190613de2565b5050505050509050806001600160a01b031660001415610dfc5760055460405163f637731d60e01b81526001600160a01b039091169063f637731d9061173d9086906004016140b1565b600060405180830381600087803b15801561175757600080fd5b505af115801561176b573d6000803e3d6000fd5b505050507fd4a3cdac99f6deac6f6631c09a884550f28be2e33585b71c2b777ebdc6bcc48283604051610fb991906140b1565b6117a733612040565b6117c35760405162461bcd60e51b815260040161089f90614258565b6001600160a01b0381166117e95760405162461bcd60e51b815260040161089f906141f8565b336001600160a01b03821614156118125760405162461bcd60e51b815260040161089f906142a0565b61181d600082610dd6565b6111b3600033610e01565b61183133610c09565b80611840575061184033612040565b61185c5760405162461bcd60e51b815260040161089f906141b6565b600a54600160b81b900460ff16156118865760405162461bcd60e51b815260040161089f9061436a565b60088390556009829055600a80546001600160a01b0319166001600160a01b0383169081179091556040805185815260208101859052908101919091527fc6bad1b6d2fd191de5848ad7eaaf2ddc559c9b96622381e15bd4b2f1175d1cb790606001610fb9565b6118f633610c09565b80611905575061190533612040565b6119215760405162461bcd60e51b815260040161089f906141b6565b600a5460ff600160b81b90910416151581151514156119825760405162461bcd60e51b815260206004820152601a60248201527f73616d6520626f6f6c5265616479546f437265617465506f6f6c000000000000604482015260640161089f565b600a8054821515600160b81b0260ff60b81b199091161790556040517fb617cf12ee2262dc406f2998cca847640b8b72357f6032b86e6821ccd05a896b9061115490831515815260200190565b60009182526019602090815260408084206001600160a01b0393909316845291905290205460ff1690565b611a0333612040565b611a1f5760405162461bcd60e51b815260040161089f90614258565b6111b3600082612cc6565b60006107e682612cd0565b611a3e33610c09565b80611a4d5750611a4d33612040565b611a695760405162461bcd60e51b815260040161089f906141b6565b611a8160008051602061482683398151915233610e01565b565b611a8c33612040565b611aa85760405162461bcd60e51b815260040161089f90614258565b611a81600033610e01565b600082815260196020526040902060010154611acf813361283b565b610dfc8383612925565b60026000541415611afc5760405162461bcd60e51b815260040161089f906143ac565b6002600055611b0a33610c09565b80611b195750611b1933612040565b611b355760405162461bcd60e51b815260040161089f906141b6565b6002546001600160a01b0384811691161415611b6d576000600b5411611b6d5760405162461bcd60e51b815260040161089f9061422a565b6001546040516370a0823160e01b8152670de0b6b3a7640000916001600160a01b0316906370a0823190611ba59030906004016140b1565b60206040518083038186803b158015611bbd57600080fd5b505afa158015611bd1573d6000803e3d6000fd5b505050506040513d601f19601f82011682018060405250810190611bf59190613e78565b10611c375760405162461bcd60e51b81526020600482015260126024820152714861732070726f6a65637420746f6b656e7360701b604482015260640161089f565b6001546001600160a01b0384811691161415611c955760405162461bcd60e51b815260206004820152601e60248201527f70726f6a65637420746f6b656e2063616e206e6f742077697468647261770000604482015260640161089f565b6040516370a0823160e01b81526001600160a01b038416906370a0823190611cc19030906004016140b1565b60206040518083038186803b158015611cd957600080fd5b505afa158015611ced573d6000803e3d6000fd5b505050506040513d601f19601f82011682018060405250810190611d119190613e78565b811115611d305760405162461bcd60e51b815260040161089f90614307565b611d446001600160a01b03841683836130e3565b604080513381526001600160a01b0385811660208301528416818301526060810183905290517f7ea2180e5f63eca6b7c9de00e784536f91424389046f8b8d29e76ef3c52537439181900360800190a15050600160005550565b6005546001600160a01b031680611dc75760405162461bcd60e51b815260040161089f90614189565b60026000541415611dea5760405162461bcd60e51b815260040161089f906143ac565b6002600055600b54611e0e5760405162461bcd60e51b815260040161089f9061422a565b60048054600b5460405163133f757160e31b81529283015260009182916001600160a01b0316906399fbab88906024016101806040518083038186803b158015611e5757600080fd5b505afa158015611e6b573d6000803e3d6000fd5b505050506040513d601f19601f82011682018060405250810190611e8f9190613f1b565b9b509b50505050505050505050506000826001600160801b03161180611ebe57506000816001600160801b0316115b611f0a5760405162461bcd60e51b815260206004820152601e60248201527f7468657265206973206e6f20636f6c6c65637461626c6520616d6f756e740000604482015260640161089f565b6004805460408051608081018252600b54815230602082019081526001600160801b0387811683850190815287821660608501908152945163fc6f786560e01b815293519684019690965290516001600160a01b039081166024840152945181166044830152915190911660648201526000928392169063fc6f7865906084016040805180830381600087803b158015611fa357600080fd5b505af1158015611fb7573d6000803e3d6000fd5b505050506040513d601f19601f82011682018060405250810190611fdb9190613ecb565b91509150600b547f59943dc7329fdfb15044f95cef4cae4efe6e3b1b8a4e0858bf7f7f3515090f35838360405161201c929190918252602082015260400190565b60405180910390a250506001600055505050565b601281815481106109fd57600080fd5b60006107e681836119cf565b61205533610c09565b80612064575061206433612040565b6120805760405162461bcd60e51b815260040161089f906141b6565b6003546001600160a01b0316158015906120a457506004546001600160a01b031615155b80156120ba57506002546001600160a01b031615155b6120d65760405162461bcd60e51b815260040161089f90614338565b6001546040516370a0823160e01b81526001600160a01b03909116906370a08231906121069030906004016140b1565b60206040518083038186803b15801561211e57600080fd5b505afa158015612132573d6000803e3d6000fd5b505050506040513d601f19601f820116820180604052508101906121569190613e78565b81111561219f5760405162461bcd60e51b81526020600482015260176024820152763732b2b2103a379034b7383aba103a3432903a37b5b2b760491b604482015260640161089f565b600e8190556040518181527fbe9b076dc5b65990cca9dd9d7366682482e7817a6f6bc7f4faf4dc32af497f3290602001611154565b600b54156122155760405162461bcd60e51b815260206004820152600e60248201526d185b1c9958591e481b5a5b9d195960921b604482015260640161089f565b6002546040516370a0823160e01b81526000916001600160a01b0316906370a08231906122469030906004016140b1565b60206040518083038186803b15801561225e57600080fd5b505afa158015612272573d6000803e3d6000fd5b505050506040513d601f19601f820116820180604052508101906122969190613e78565b6001546040516370a0823160e01b81529192506000916001600160a01b03909116906370a08231906122cc9030906004016140b1565b60206040518083038186803b1580156122e457600080fd5b505afa1580156122f8573d6000803e3d6000fd5b505050506040513d601f19601f8201168201806040525081019061231c9190613e78565b9050670de0b6b3a76400008211801561233c5750670de0b6b3a764000081115b6123585760405162461bcd60e51b815260040161089f90614307565b6123628282613139565b600061236c61115f565b90506000612378610bd9565b600254600654919250859185916001600160a01b0391821691161461239d5750839050845b60045460408051610160810182526006546001600160a01b0390811682526007548116602083015262ffffff600160a01b85041692820192909252600287810b606083015286900b608082015260a0810185905260c08101849052600060e08201819052610100820181905230610120830152928392839283929190911690638831645690610140810161243442620186a06144e8565b8152506040518263ffffffff1660e01b815260040161245391906143e3565b608060405180830381600087803b15801561246d57600080fd5b505af1158015612481573d6000803e3d6000fd5b505050506040513d601f19601f820116820180604052508101906124a59190613e90565b9350935093509350600084116124ef5760405162461bcd60e51b815260206004820152600f60248201526e746f6b656e4964206973207a65726f60881b604482015260640161089f565b600b849055604080518581526001600160801b03851660208201529081018390526060810182905233907f7e4faa9ec81dd9000071b6dbc47dedaad9cd0745b9f0243f2b474b916f6229f39060800160405180910390a250505050505050505050565b6000600b54116125745760405162461bcd60e51b815260040161089f9061422a565b6002546040516370a0823160e01b81526000916001600160a01b0316906370a08231906125a59030906004016140b1565b60206040518083038186803b1580156125bd57600080fd5b505afa1580156125d1573d6000803e3d6000fd5b505050506040513d601f19601f820116820180604052508101906125f59190613e78565b6001546040516370a0823160e01b81529192506000916001600160a01b03909116906370a082319061262b9030906004016140b1565b60206040518083038186803b15801561264357600080fd5b505afa158015612657573d6000803e3d6000fd5b505050506040513d601f19601f8201168201806040525081019061267b9190613e78565b9050670de0b6b3a764000082118061269a5750670de0b6b3a764000081115b6126b65760405162461bcd60e51b815260040161089f90614307565b6126c08282613139565b600254600654839183916001600160a01b039081169116146126e25750819050825b6004546040805160c081018252600b548152602081018590529081018390526000606082018190526080820181905291829182916001600160a01b03169063219f5d179060a0810161273742620186a06144e8565b9052604080516001600160e01b031960e085901b1681528251600482015260208301516024820152908201516044820152606082015160648201526080820151608482015260a09091015160a482015260c401606060405180830381600087803b1580156127a457600080fd5b505af11580156127b8573d6000803e3d6000fd5b505050506040513d601f19601f820116820180604052508101906127dc9190613dae565b600b54604080516001600160801b0386168152602081018590529081018390529396509194509250907fa88ed384c96385e07d5f3ba9385866f17995177886d1a5601601d8c8d69872519060600160405180910390a250505050505050565b61284582826119cf565b610e7b5761285d816001600160a01b03166014613649565b612868836020613649565b604051602001612879929190614042565b60408051601f198184030181529082905262461bcd60e51b825261089f91600401614143565b6128a982826119cf565b610e7b5760008281526019602090815260408083206001600160a01b03851684529091529020805460ff191660011790556128e13390565b6001600160a01b0316816001600160a01b0316837f2f8788117e7eff1d82e926ec794901d17c78024a50270940304540a733656f0d60405160405180910390a45050565b61292f82826119cf565b15610e7b5760008281526019602090815260408083206001600160a01b0385168085529252808320805460ff1916905551339285917ff6391f5c32d9c69d2a47ea670b442974b53935d1edc7fd64eb21e047a839171b9190a45050565b60006401000276a36001600160a01b038316108015906129c8575073fffd8963efd1fc6a506488495d951d5263988d266001600160a01b038316105b6129f85760405162461bcd60e51b81526020600482015260016024820152602960f91b604482015260640161089f565b640100000000600160c01b03602083901b166001600160801b03811160071b81811c67ffffffffffffffff811160061b90811c63ffffffff811160051b90811c61ffff811160041b90811c60ff8111600390811b91821c600f811160021b90811c918211600190811b92831c97908811961790941790921717909117171760808110612a9357612a89607f826146b8565b83901c9150612aa4565b612a9e81607f6146b8565b83901b91505b60006040612ab3608084614679565b901b9050828302607f1c92508260801c80603f1b8217915083811c935050828302607f1c92508260801c80603e1b8217915083811c935050828302607f1c92508260801c80603d1b8217915083811c935050828302607f1c92508260801c80603c1b8217915083811c935050828302607f1c92508260801c80603b1b8217915083811c935050828302607f1c92508260801c80603a1b8217915083811c935050828302607f1c92508260801c8060391b8217915083811c935050828302607f1c92508260801c8060381b8217915083811c935050828302607f1c92508260801c8060371b8217915083811c935050828302607f1c92508260801c8060361b8217915083811c935050828302607f1c92508260801c8060351b8217915083811c935050828302607f1c92508260801c8060341b8217915083811c935050828302607f1c92508260801c8060331b8217915083811c935050828302607f1c92508260801c8060321b8217915050600081693627a301d71055774c85612c3691906145d7565b905060006080612c566f028f6481ab7f045a5af012a19d003aaa84614679565b901d905060006080612c78846fdb2df09e81959a81455e260799a0632f6144a7565b901d90508060020b8260020b14612cb757886001600160a01b0316612c9c82612cd0565b6001600160a01b03161115612cb15781612cb9565b80612cb9565b815b9998505050505050505050565b610e7b828261289f565b60008060008360020b12612ce7578260020b612cf4565b8260020b612cf490614786565b9050612d03620d89e719614765565b60020b811115612d395760405162461bcd60e51b81526020600482015260016024820152601560fa1b604482015260640161089f565b600060018216612d4d57600160801b612d5f565b6ffffcb933bd6fad37aa2d162d1a5940015b6001600160881b031690506002821615612d94576080612d8f826ffff97272373d413259a46990580e213a61465a565b901c90505b6004821615612dbe576080612db9826ffff2e50f5f656932ef12357cf3c7fdcc61465a565b901c90505b6008821615612de8576080612de3826fffe5caca7e10e4e61c3624eaa0941cd061465a565b901c90505b6010821615612e12576080612e0d826fffcb9843d60f6159c9db58835c92664461465a565b901c90505b6020821615612e3c576080612e37826fff973b41fa98c081472e6896dfb254c061465a565b901c90505b6040821615612e66576080612e61826fff2ea16466c96a3843ec78b326b5286161465a565b901c90505b6080821615612e90576080612e8b826ffe5dee046a99a2a811c461f1969c305361465a565b901c90505b610100821615612ebb576080612eb6826ffcbe86c7900a88aedcffc83b479aa3a461465a565b901c90505b610200821615612ee6576080612ee1826ff987a7253ac413176f2b074cf7815e5461465a565b901c90505b610400821615612f11576080612f0c826ff3392b0822b70005940c7a398e4b70f361465a565b901c90505b610800821615612f3c576080612f37826fe7159475a2c29b7443b29c7fa6e889d961465a565b901c90505b611000821615612f67576080612f62826fd097f3bdfd2022b8845ad8f792aa582561465a565b901c90505b612000821615612f92576080612f8d826fa9f746462d870fdf8a65dc1f90e061e561465a565b901c90505b614000821615612fbd576080612fb8826f70d869a156d2a1b890bb3df62baf32f761465a565b901c90505b618000821615612fe8576080612fe3826f31be135f97d08fd981231505542fcfa661465a565b901c90505b6201000082161561301457608061300f826f09aa508b5b7a84e1c677de54f3e99bc961465a565b901c90505b6202000082161561303f57608061303a826e5d6af8dedb81196699c329225ee60461465a565b901c90505b62040000821615613069576080613064826d2216e584f5fa1ea926041bedfe9861465a565b901c90505b6208000082161561309157608061308c826b048a170391f7dc42444e8fa261465a565b901c90505b60008460020b13156130ac576130a98160001961453a565b90505b6130bb64010000000082614751565b156130c75760016130ca565b60005b6130db9060ff16602083901c6144e8565b949350505050565b610dfc8363a9059cbb60e01b848460405160240161310292919061412a565b60408051601f198184030181529190526020810180516001600160e01b03166001600160e01b031990931692909217909152613832565b6002546040516370a0823160e01b815283916001600160a01b0316906370a08231906131699030906004016140b1565b60206040518083038186803b15801561318157600080fd5b505afa158015613195573d6000803e3d6000fd5b505050506040513d601f19601f820116820180604052508101906131b99190613e78565b10156131fe5760405162461bcd60e51b81526020600482015260146024820152733a37b99034b99034b739bab33334b1b4b2b73a1760611b604482015260640161089f565b6001546040516370a0823160e01b815282916001600160a01b0316906370a082319061322e9030906004016140b1565b60206040518083038186803b15801561324657600080fd5b505afa15801561325a573d6000803e3d6000fd5b505050506040513d601f19601f8201168201806040525081019061327e9190613e78565b10156132c55760405162461bcd60e51b81526020600482015260166024820152753a37b5b2b71034b99034b739bab33334b1b4b2b73a1760511b604482015260640161089f565b60025460048054604051636eb1769f60e11b81526001600160a01b039384169363dd62ed3e936132fa933093921691016140c5565b60206040518083038186803b15801561331257600080fd5b505afa158015613326573d6000803e3d6000fd5b505050506040513d601f19601f8201168201806040525081019061334a9190613e78565b8211156134865760025460048054604080516318160ddd60e01b815290516001600160a01b039485169463095ea7b39493169285926318160ddd9281830192602092829003018186803b1580156133a057600080fd5b505afa1580156133b4573d6000803e3d6000fd5b505050506040513d601f19601f820116820180604052508101906133d89190613e78565b6040518363ffffffff1660e01b81526004016133f592919061412a565b602060405180830381600087803b15801561340f57600080fd5b505af1158015613423573d6000803e3d6000fd5b505050506040513d601f19601f820116820180604052508101906134479190613c45565b6134865760405162461bcd60e51b815260206004820152601060248201526f1513d4c8185c1c1c9bdd994819985a5b60821b604482015260640161089f565b60015460048054604051636eb1769f60e11b81526001600160a01b039384169363dd62ed3e936134bb933093921691016140c5565b60206040518083038186803b1580156134d357600080fd5b505afa1580156134e7573d6000803e3d6000fd5b505050506040513d601f19601f8201168201806040525081019061350b9190613e78565b811115610e7b5760015460048054604080516318160ddd60e01b815290516001600160a01b039485169463095ea7b39493169285926318160ddd9281830192602092829003018186803b15801561356157600080fd5b505afa158015613575573d6000803e3d6000fd5b505050506040513d601f19601f820116820180604052508101906135999190613e78565b6040518363ffffffff1660e01b81526004016135b692919061412a565b602060405180830381600087803b1580156135d057600080fd5b505af11580156135e4573d6000803e3d6000fd5b505050506040513d601f19601f820116820180604052508101906136089190613c45565b610e7b5760405162461bcd60e51b81526020600482015260126024820152711d1bdad95b88185c1c1c9bdd994819985a5b60721b604482015260640161089f565b6060600061365883600261465a565b6136639060026144e8565b67ffffffffffffffff81111561368957634e487b7160e01b600052604160045260246000fd5b6040519080825280601f01601f1916602001820160405280156136b3576020820181803683370190505b509050600360fc1b816000815181106136dc57634e487b7160e01b600052603260045260246000fd5b60200101906001600160f81b031916908160001a905350600f60fb1b8160018151811061371957634e487b7160e01b600052603260045260246000fd5b60200101906001600160f81b031916908160001a905350600061373d84600261465a565b6137489060016144e8565b90505b60018111156137dc576f181899199a1a9b1b9c1cb0b131b232b360811b85600f166010811061378a57634e487b7160e01b600052603260045260246000fd5b1a60f81b8282815181106137ae57634e487b7160e01b600052603260045260246000fd5b60200101906001600160f81b031916908160001a90535060049490941c936137d5816146ff565b905061374b565b50831561382b5760405162461bcd60e51b815260206004820181905260248201527f537472696e67733a20686578206c656e67746820696e73756666696369656e74604482015260640161089f565b9392505050565b6000613887826040518060400160405280602081526020017f5361666545524332303a206c6f772d6c6576656c2063616c6c206661696c6564815250856001600160a01b03166139049092919063ffffffff16565b805190915015610dfc57808060200190518101906138a59190613c45565b610dfc5760405162461bcd60e51b815260206004820152602a60248201527f5361666545524332303a204552433230206f7065726174696f6e20646964206e6044820152691bdd081cdd58d8d9595960b21b606482015260840161089f565b60606130db848460008585843b61395d5760405162461bcd60e51b815260206004820152601d60248201527f416464726573733a2063616c6c20746f206e6f6e2d636f6e7472616374000000604482015260640161089f565b600080866001600160a01b031685876040516139799190614026565b60006040518083038185875af1925050503d80600081146139b6576040519150601f19603f3d011682016040523d82523d6000602084013e6139bb565b606091505b50915091506139cb8282866139d6565b979650505050505050565b606083156139e557508161382b565b8251156139f55782518084602001fd5b8160405162461bcd60e51b815260040161089f9190614143565b828054613a1b90614716565b90600052602060002090601f016020900481019282613a3d5760008555613a83565b82601f10613a5657805160ff1916838001178555613a83565b82800160010185558215613a83579182015b82811115613a83578251825591602001919060010190613a68565b50613a8f929150613a93565b5090565b5b80821115613a8f5760008155600101613a94565b8035613ab3816147e2565b919050565b8051613ab3816147e2565b8051613ab381614805565b80516001600160801b0381168114613ab357600080fd5b805161ffff81168114613ab357600080fd5b8051613ab381614814565b600060208284031215613b13578081fd5b813561382b816147e2565b600060208284031215613b2f578081fd5b815161382b816147e2565b60008060408385031215613b4c578081fd5b8235613b57816147e2565b91506020830135613b67816147e2565b809150509250929050565b600080600060608486031215613b86578081fd5b8335613b91816147e2565b92506020840135613ba1816147e2565b91506040840135613bb181614814565b809150509250925092565b600080600060608486031215613bd0578283fd5b8335613bdb816147e2565b92506020840135613beb816147e2565b929592945050506040919091013590565b60008060408385031215613c0e578182fd5b8235613c19816147e2565b91506020830135613b6781614814565b600060208284031215613c3a578081fd5b813561382b816147f7565b600060208284031215613c56578081fd5b815161382b816147f7565b600060208284031215613c72578081fd5b5035919050565b60008060408385031215613c8b578182fd5b823591506020830135613b67816147e2565b600060208284031215613cae578081fd5b81356001600160e01b03198116811461382b578182fd5b600060208284031215613cd6578081fd5b813561382b81614805565b600080600060608486031215613cf5578081fd5b833567ffffffffffffffff80821115613d0c578283fd5b818601915086601f830112613d1f578283fd5b813581811115613d3157613d316147cc565b604051601f8201601f19908116603f01168101908382118183101715613d5957613d596147cc565b81604052828152896020848701011115613d71578586fd5b8260208601602083013785602084830101528097505050505050613d9760208501613aa8565b9150613da560408501613aa8565b90509250925092565b600080600060608486031215613dc2578081fd5b613dcb84613ace565b925060208401519150604084015190509250925092565b600080600080600080600060e0888a031215613dfc578485fd5b8751613e07816147e2565b6020890151909750613e1881614805565b9550613e2660408901613ae5565b9450613e3460608901613ae5565b9350613e4260808901613ae5565b925060a088015160ff81168114613e57578283fd5b60c0890151909250613e68816147f7565b8091505092959891949750929550565b600060208284031215613e89578081fd5b5051919050565b60008060008060808587031215613ea5578182fd5b84519350613eb560208601613ace565b6040860151606090960151949790965092505050565b60008060408385031215613edd578182fd5b505080516020909101519092909150565b600080600060608486031215613f02578081fd5b83359250602084013591506040840135613bb1816147e2565b6000806000806000806000806000806000806101808d8f031215613f3d578586fd5b8c516bffffffffffffffffffffffff81168114613f58578687fd5b9b50613f6660208e01613ab8565b9a50613f7460408e01613ab8565b9950613f8260608e01613ab8565b9850613f9060808e01613af7565b9750613f9e60a08e01613ac3565b9650613fac60c08e01613ac3565b9550613fba60e08e01613ace565b94506101008d015193506101208d01519250613fd96101408e01613ace565b9150613fe86101608e01613ace565b90509295989b509295989b509295989b565b600081518084526140128160208601602086016146cf565b601f01601f19169290920160200192915050565b600082516140388184602087016146cf565b9190910192915050565b76020b1b1b2b9b9a1b7b73a3937b61d1030b1b1b7bab73a1604d1b8152600083516140748160178501602088016146cf565b7001034b99036b4b9b9b4b733903937b6329607d1b60179184019182015283516140a58160288401602088016146cf565b01602801949350505050565b6001600160a01b0391909116815260200190565b6001600160a01b0392831681529116602082015260400190565b6001600160a01b0393841681529183166020830152909116604082015260600190565b6001600160a01b03938416815291909216602082015262ffffff909116604082015260600190565b6001600160a01b03929092168252602082015260400190565b60208152600061382b6020830184613ffa565b6060815260006141696060830186613ffa565b6001600160a01b0394851660208401529290931660409091015292915050565b6020808252601390820152725661756c743a207a65726f206164647265737360681b604082015260600190565b60208082526022908201527f41636365737369626c653a2043616c6c6572206973206e6f7420616e2061646d60408201526134b760f11b606082015260800190565b60208082526018908201527741636365737369626c653a207a65726f206164647265737360401b604082015260600190565b602080825260149082015273125d081a5cc81b9bdd081b5a5b9d1959081e595d60621b604082015260600190565b60208082526028908201527f41636365737369626c653a2043616c6c6572206973206e6f7420616e2070726f6040820152673c3c9030b236b4b760c11b606082015260800190565b60208082526016908201527520b1b1b2b9b9b4b136329d1039b0b6b29030b236b4b760511b604082015260600190565b6020808252601e908201527f5661756c743a206e6f7420726561647920746f20437265617465506f6f6c0000604082015260600190565b60208082526017908201527618985b185b98d9481a5cc81a5b9cdd59999a58da595b9d604a1b604082015260600190565b60208082526018908201527705661756c743a206265666f726520736574556e69737761760441b604082015260600190565b60208082526022908201527f5661756c743a20616c726561647920726561647920746f20437265617465506f6040820152611bdb60f21b606082015260800190565b6020808252601f908201527f5265656e7472616e637947756172643a207265656e7472616e742063616c6c00604082015260600190565b81516001600160a01b031681526101608101602083015161440f60208401826001600160a01b03169052565b506040830151614426604084018262ffffff169052565b50606083015161443b606084018260020b9052565b506080830151614450608084018260020b9052565b5060a083015160a083015260c083015160c083015260e083015160e083015261010080840151818401525061012080840151614496828501826001600160a01b03169052565b505061014092830151919092015290565b600080821280156001600160ff1b03849003851316156144c9576144c96147a0565b600160ff1b83900384128116156144e2576144e26147a0565b50500190565b600082198211156144fb576144fb6147a0565b500190565b60008160020b8360020b80614517576145176147b6565b627fffff19821460001982141615614531576145316147a0565b90059392505050565b600082614549576145496147b6565b500490565b60008160020b8360020b627fffff83821384841383830485118282161615614578576145786147a0565b627fffff1986851282811687830587121615614596576145966147a0565b8787129250858205871284841616156145b1576145b16147a0565b858505871281841616156145c7576145c76147a0565b5050509290910295945050505050565b60006001600160ff1b03818413828413808216868404861116156145fd576145fd6147a0565b600160ff1b8487128281168783058912161561461b5761461b6147a0565b858712925087820587128484161615614636576146366147a0565b8785058712818416161561464c5761464c6147a0565b505050929093029392505050565b6000816000190483118215151615614674576146746147a0565b500290565b60008083128015600160ff1b850184121615614697576146976147a0565b6001600160ff1b03840183138116156146b2576146b26147a0565b50500390565b6000828210156146ca576146ca6147a0565b500390565b60005b838110156146ea5781810151838201526020016146d2565b838111156146f9576000848401525b50505050565b60008161470e5761470e6147a0565b506000190190565b600181811c9082168061472a57607f821691505b6020821081141561474b57634e487b7160e01b600052602260045260246000fd5b50919050565b600082614760576147606147b6565b500690565b60008160020b627fffff1981141561477f5761477f6147a0565b9003919050565b6000600160ff1b82141561479c5761479c6147a0565b0390565b634e487b7160e01b600052601160045260246000fd5b634e487b7160e01b600052601260045260246000fd5b634e487b7160e01b600052604160045260246000fd5b6001600160a01b03811681146111b357600080fd5b80151581146111b357600080fd5b8060020b81146111b357600080fd5b62ffffff811681146111b357600080fdfe52eafc11f6f81f86878bffd31109a0d92f37506527754f00788853ff9f63b130a264697066735822122004fea0f9a440f8f90f796c2b8c00cca82397a0023fa2dc5183acaaefcba39f4164736f6c63430008040033",
  "linkReferences": {},
  "deployedLinkReferences": {}
}