{
  "_format": "hh-sol-artifact-1",
  "contractName": "InitialLiquidityVaultFactory",
  "sourceName": "contracts/InitialLiquidityVaultFactory.sol",
  "abi": [
    {
      "inputs": [],
      "stateMutability": "nonpayable",
      "type": "constructor"
    },
    {
      "anonymous": false,
      "inputs": [
        {
          "indexed": false,
          "internalType": "address",
          "name": "contractAddress",
          "type": "address"
        },
        {
          "indexed": false,
          "internalType": "string",
          "name": "name",
          "type": "string"
        }
      ],
      "name": "CreatedInitialLiquidityVault",
      "type": "event"
    },
    {
      "anonymous": false,
      "inputs": [
        {
          "indexed": true,
          "internalType": "bytes32",
          "name": "role",
          "type": "bytes32"
        },
        {
          "indexed": true,
          "internalType": "bytes32",
          "name": "previousAdminRole",
          "type": "bytes32"
        },
        {
          "indexed": true,
          "internalType": "bytes32",
          "name": "newAdminRole",
          "type": "bytes32"
        }
      ],
      "name": "RoleAdminChanged",
      "type": "event"
    },
    {
      "anonymous": false,
      "inputs": [
        {
          "indexed": true,
          "internalType": "bytes32",
          "name": "role",
          "type": "bytes32"
        },
        {
          "indexed": true,
          "internalType": "address",
          "name": "account",
          "type": "address"
        },
        {
          "indexed": true,
          "internalType": "address",
          "name": "sender",
          "type": "address"
        }
      ],
      "name": "RoleGranted",
      "type": "event"
    },
    {
      "anonymous": false,
      "inputs": [
        {
          "indexed": true,
          "internalType": "bytes32",
          "name": "role",
          "type": "bytes32"
        },
        {
          "indexed": true,
          "internalType": "address",
          "name": "account",
          "type": "address"
        },
        {
          "indexed": true,
          "internalType": "address",
          "name": "sender",
          "type": "address"
        }
      ],
      "name": "RoleRevoked",
      "type": "event"
    },
    {
      "inputs": [],
      "name": "ADMIN_ROLE",
      "outputs": [
        {
          "internalType": "bytes32",
          "name": "",
          "type": "bytes32"
        }
      ],
      "stateMutability": "view",
      "type": "function"
    },
    {
      "inputs": [],
      "name": "BURNER_ROLE",
      "outputs": [
        {
          "internalType": "bytes32",
          "name": "",
          "type": "bytes32"
        }
      ],
      "stateMutability": "view",
      "type": "function"
    },
    {
      "inputs": [],
      "name": "CLAIMER_ROLE",
      "outputs": [
        {
          "internalType": "bytes32",
          "name": "",
          "type": "bytes32"
        }
      ],
      "stateMutability": "view",
      "type": "function"
    },
    {
      "inputs": [],
      "name": "DEFAULT_ADMIN_ROLE",
      "outputs": [
        {
          "internalType": "bytes32",
          "name": "",
          "type": "bytes32"
        }
      ],
      "stateMutability": "view",
      "type": "function"
    },
    {
      "inputs": [],
      "name": "MINTER_ROLE",
      "outputs": [
        {
          "internalType": "bytes32",
          "name": "",
          "type": "bytes32"
        }
      ],
      "stateMutability": "view",
      "type": "function"
    },
    {
      "inputs": [
        {
          "internalType": "address",
          "name": "account",
          "type": "address"
        }
      ],
      "name": "addAdmin",
      "outputs": [],
      "stateMutability": "nonpayable",
      "type": "function"
    },
    {
      "inputs": [
        {
          "internalType": "string",
          "name": "_name",
          "type": "string"
        },
        {
          "internalType": "address",
          "name": "_token",
          "type": "address"
        },
        {
          "internalType": "address",
          "name": "_admin",
          "type": "address"
        },
        {
          "internalType": "uint256",
          "name": "tosPrice",
          "type": "uint256"
        },
        {
          "internalType": "uint256",
          "name": "tokenPrice",
          "type": "uint256"
        }
      ],
      "name": "create",
      "outputs": [
        {
          "internalType": "address",
          "name": "",
          "type": "address"
        }
      ],
      "stateMutability": "nonpayable",
      "type": "function"
    },
    {
      "inputs": [
        {
          "internalType": "uint256",
          "name": "",
          "type": "uint256"
        }
      ],
      "name": "createdContracts",
      "outputs": [
        {
          "internalType": "address",
          "name": "contractAddress",
          "type": "address"
        },
        {
          "internalType": "string",
          "name": "name",
          "type": "string"
        }
      ],
      "stateMutability": "view",
      "type": "function"
    },
    {
      "inputs": [],
      "name": "fee",
      "outputs": [
        {
          "internalType": "uint24",
          "name": "",
          "type": "uint24"
        }
      ],
      "stateMutability": "view",
      "type": "function"
    },
    {
      "inputs": [
        {
          "internalType": "uint256",
          "name": "_index",
          "type": "uint256"
        }
      ],
      "name": "getContracts",
      "outputs": [
        {
          "internalType": "address",
          "name": "contractAddress",
          "type": "address"
        },
        {
          "internalType": "string",
          "name": "name",
          "type": "string"
        }
      ],
      "stateMutability": "view",
      "type": "function"
    },
    {
      "inputs": [
        {
          "internalType": "bytes32",
          "name": "role",
          "type": "bytes32"
        }
      ],
      "name": "getRoleAdmin",
      "outputs": [
        {
          "internalType": "bytes32",
          "name": "",
          "type": "bytes32"
        }
      ],
      "stateMutability": "view",
      "type": "function"
    },
    {
      "inputs": [
        {
          "internalType": "bytes32",
          "name": "role",
          "type": "bytes32"
        },
        {
          "internalType": "address",
          "name": "account",
          "type": "address"
        }
      ],
      "name": "grantRole",
      "outputs": [],
      "stateMutability": "nonpayable",
      "type": "function"
    },
    {
      "inputs": [
        {
          "internalType": "bytes32",
          "name": "role",
          "type": "bytes32"
        },
        {
          "internalType": "address",
          "name": "account",
          "type": "address"
        }
      ],
      "name": "hasRole",
      "outputs": [
        {
          "internalType": "bool",
          "name": "",
          "type": "bool"
        }
      ],
      "stateMutability": "view",
      "type": "function"
    },
    {
      "inputs": [
        {
          "internalType": "address",
          "name": "account",
          "type": "address"
        }
      ],
      "name": "isAdmin",
      "outputs": [
        {
          "internalType": "bool",
          "name": "",
          "type": "bool"
        }
      ],
      "stateMutability": "view",
      "type": "function"
    },
    {
      "inputs": [],
      "name": "lastestCreated",
      "outputs": [
        {
          "internalType": "address",
          "name": "contractAddress",
          "type": "address"
        },
        {
          "internalType": "string",
          "name": "name",
          "type": "string"
        }
      ],
      "stateMutability": "view",
      "type": "function"
    },
    {
      "inputs": [],
      "name": "logEventAddress",
      "outputs": [
        {
          "internalType": "address",
          "name": "",
          "type": "address"
        }
      ],
      "stateMutability": "view",
      "type": "function"
    },
    {
      "inputs": [],
      "name": "nonfungiblePositionManager",
      "outputs": [
        {
          "internalType": "address",
          "name": "",
          "type": "address"
        }
      ],
      "stateMutability": "view",
      "type": "function"
    },
    {
      "inputs": [
        {
          "internalType": "address",
          "name": "account",
          "type": "address"
        }
      ],
      "name": "removeAdmin",
      "outputs": [],
      "stateMutability": "nonpayable",
      "type": "function"
    },
    {
      "inputs": [
        {
          "internalType": "bytes32",
          "name": "role",
          "type": "bytes32"
        },
        {
          "internalType": "address",
          "name": "account",
          "type": "address"
        }
      ],
      "name": "renounceRole",
      "outputs": [],
      "stateMutability": "nonpayable",
      "type": "function"
    },
    {
      "inputs": [
        {
          "internalType": "bytes32",
          "name": "role",
          "type": "bytes32"
        },
        {
          "internalType": "address",
          "name": "account",
          "type": "address"
        }
      ],
      "name": "revokeRole",
      "outputs": [],
      "stateMutability": "nonpayable",
      "type": "function"
    },
    {
      "inputs": [
        {
          "internalType": "address",
          "name": "addr",
          "type": "address"
        }
      ],
      "name": "setLogEventAddress",
      "outputs": [],
      "stateMutability": "nonpayable",
      "type": "function"
    },
    {
      "inputs": [
        {
          "internalType": "address",
          "name": "_logic",
          "type": "address"
        }
      ],
      "name": "setLogic",
      "outputs": [],
      "stateMutability": "nonpayable",
      "type": "function"
    },
    {
      "inputs": [
        {
          "internalType": "address[2]",
          "name": "addrs",
          "type": "address[2]"
        },
        {
          "internalType": "address",
          "name": "_tos",
          "type": "address"
        },
        {
          "internalType": "uint24",
          "name": "_fee",
          "type": "uint24"
        }
      ],
      "name": "setUniswapInfoNTokens",
      "outputs": [],
      "stateMutability": "nonpayable",
      "type": "function"
    },
    {
      "inputs": [
        {
          "internalType": "address",
          "name": "addr",
          "type": "address"
        }
      ],
      "name": "setUpgradeAdmin",
      "outputs": [],
      "stateMutability": "nonpayable",
      "type": "function"
    },
    {
      "inputs": [
        {
          "internalType": "bytes4",
          "name": "interfaceId",
          "type": "bytes4"
        }
      ],
      "name": "supportsInterface",
      "outputs": [
        {
          "internalType": "bool",
          "name": "",
          "type": "bool"
        }
      ],
      "stateMutability": "view",
      "type": "function"
    },
    {
      "inputs": [],
      "name": "tos",
      "outputs": [
        {
          "internalType": "address",
          "name": "",
          "type": "address"
        }
      ],
      "stateMutability": "view",
      "type": "function"
    },
    {
      "inputs": [],
      "name": "totalCreatedContracts",
      "outputs": [
        {
          "internalType": "uint256",
          "name": "",
          "type": "uint256"
        }
      ],
      "stateMutability": "view",
      "type": "function"
    },
    {
      "inputs": [
        {
          "internalType": "address",
          "name": "newAdmin",
          "type": "address"
        }
      ],
      "name": "transferAdmin",
      "outputs": [],
      "stateMutability": "nonpayable",
      "type": "function"
    },
    {
      "inputs": [],
      "name": "uniswapV3Factory",
      "outputs": [
        {
          "internalType": "address",
          "name": "",
          "type": "address"
        }
      ],
      "stateMutability": "view",
      "type": "function"
    },
    {
      "inputs": [],
      "name": "upgradeAdmin",
      "outputs": [
        {
          "internalType": "address",
          "name": "",
          "type": "address"
        }
      ],
      "stateMutability": "view",
      "type": "function"
    },
    {
      "inputs": [
        {
          "internalType": "address",
          "name": "_contract",
          "type": "address"
        },
        {
          "internalType": "bytes4[]",
          "name": "_selectors",
          "type": "bytes4[]"
        },
        {
          "internalType": "address",
          "name": "_imp",
          "type": "address"
        }
      ],
      "name": "upgradeContractFunction",
      "outputs": [],
      "stateMutability": "nonpayable",
      "type": "function"
    },
    {
      "inputs": [
        {
          "internalType": "address",
          "name": "_contract",
          "type": "address"
        },
        {
          "internalType": "address",
          "name": "_logic",
          "type": "address"
        },
        {
          "internalType": "uint256",
          "name": "_index",
          "type": "uint256"
        },
        {
          "internalType": "bool",
          "name": "_alive",
          "type": "bool"
        }
      ],
      "name": "upgradeContractLogic",
      "outputs": [],
      "stateMutability": "nonpayable",
      "type": "function"
    },
    {
      "inputs": [],
      "name": "vaultLogic",
      "outputs": [
        {
          "internalType": "address",
          "name": "",
          "type": "address"
        }
      ],
      "stateMutability": "view",
      "type": "function"
    }
  ],
  "bytecode": "0x60806040523480156200001157600080fd5b50600060015562000032600080516020620046698339815191528062000065565b6200004d6000805160206200466983398151915233620000b0565b600380546001600160a01b0319163317905562000160565b600082815260208190526040808220600101805490849055905190918391839186917fbd79b86ffe0ab8e8776151514217cd7cacd52c909f66475c3af44e129f0b00ff9190a4505050565b620000bc8282620000c0565b5050565b6000828152602081815260408083206001600160a01b038516845290915290205460ff16620000bc576000828152602081815260408083206001600160a01b03851684529091529020805460ff191660011790556200011c3390565b6001600160a01b0316816001600160a01b0316837f2f8788117e7eff1d82e926ec794901d17c78024a50270940304540a733656f0d60405160405180910390a45050565b6144f980620001706000396000f3fe60806040523480156200001157600080fd5b5060043610620001e15760003560e01c80637e2826f6116200010f578063bda5b5d411620000aa578063bda5b5d4146200044c578063c4d5608a1462000463578063d05261871462000477578063d53913931462000481578063d547741f14620004a9578063ddca3f4314620004c0578063eaa2a00c14620004ec578063eab73ca11462000503578063fc5f18d3146200051757600080fd5b80637e2826f614620003ab57806389f395de14620003c257806391d1485414620003d65780639342f41714620003ed578063a217fddf1462000404578063b078147a146200040d578063b44a27221462000421578063b4d40280146200043557600080fd5b806336568abe116200018057806336568abe14620002e7578063439e23fd14620002fe5780635b549182146200031557806367c5f8de146200033857806370480275146200034f57806371857000146200036657806375829def146200037d57806375b238fc146200039457600080fd5b806301ffc9a714620001e65780630881139714620002125780631785f53c1462000239578063248a9ca3146200025257806324d7806c1462000287578063282c51f3146200029e5780632f2ff15d14620002c6578063338bad5f14620002dd575b600080fd5b620001fd620001f736600462001be5565b6200053f565b60405190151581526020015b60405180910390f35b620002296200022336600462001b9e565b62000577565b6040516200020992919062001ddb565b620002506200024a36600462001a36565b6200062e565b005b620002786200026336600462001b9e565b60009081526020819052604090206001015490565b60405190815260200162000209565b620001fd6200029836600462001a36565b6200067f565b620002787f9667e80708b6eeeb0053fa0cca44e028ff548e2a9f029edfeac87c118b08b7c881565b62000250620002d736600462001bb7565b6200069c565b62000229620006cb565b62000250620002f836600462001bb7565b620007e4565b620002296200030f36600462001b9e565b62000866565b60065462000329906001600160a01b031681565b60405162000209919062001d74565b620002506200034936600462001a53565b6200094c565b620002506200036036600462001a36565b62000a0d565b620002506200037736600462001a36565b62000a52565b620002506200038e36600462001a36565b62000b24565b62000278600080516020620044a483398151915281565b62000250620003bc36600462001a36565b62000c2b565b60085462000329906001600160a01b031681565b620001fd620003e736600462001bb7565b62000cd3565b62000250620003fe36600462001a36565b62000cfc565b62000278600081565b60045462000329906001600160a01b031681565b60075462000329906001600160a01b031681565b620002506200044636600462001aab565b62000da4565b620003296200045d36600462001c02565b62000e2a565b60035462000329906001600160a01b031681565b6200027860015481565b620002787ff0887ba65ee2024ea881d91b74c2450ef19e1557f03bed3ea9f16b037cbe2dc981565b62000250620004ba36600462001bb7565b6200146e565b600854620004d790600160a01b900462ffffff1681565b60405162ffffff909116815260200162000209565b62000250620004fd36600462001b46565b62001498565b60055462000329906001600160a01b031681565b620002787fe5667d34d7ea8d6fdb3aa71a0a5b85e4cf7f68356dd003cd638556b0eea2bce581565b60006001600160e01b03198216637965db0b60e01b14806200057157506301ffc9a760e01b6001600160e01b03198316145b92915050565b600260205260009081526040902080546001820180546001600160a01b039092169291620005a59062002037565b80601f0160208091040260200160405190810160405280929190818152602001828054620005d39062002037565b8015620006245780601f10620005f85761010080835404028352916020019162000624565b820191906000526020600020905b8154815290600101906020018083116200060657829003601f168201915b5050505050905082565b62000639336200067f565b620006615760405162461bcd60e51b8152600401620006589062001f51565b60405180910390fd5b6200067c600080516020620044a483398151915282620007e4565b50565b600062000571600080516020620044a48339815191528362000cd3565b600082815260208190526040902060010154620006ba8133620015f0565b620006c683836200165f565b505050565b6000606060006001541115620007cf576002600060018054620006ef919062001fd0565b81526020810191909152604001600090812054600180546001600160a01b03909216926002929091620007229162001fd0565b8152602001908152602001600020600101808054620007419062002037565b80601f01602080910402602001604051908101604052809291908181526020018280546200076f9062002037565b8015620007c05780601f106200079457610100808354040283529160200191620007c0565b820191906000526020600020905b815481529060010190602001808311620007a257829003601f168201915b50505050509050915091509091565b50506040805160208101909152600080825291565b6001600160a01b0381163314620008565760405162461bcd60e51b815260206004820152602f60248201527f416363657373436f6e74726f6c3a2063616e206f6e6c792072656e6f756e636560448201526e103937b632b9903337b91039b2b63360891b606482015260840162000658565b620008628282620016e7565b5050565b60006060600154831015620009345760008381526002602052604090208054600190910180546001600160a01b03909216918190620008a59062002037565b80601f0160208091040260200160405190810160405280929190818152602001828054620008d39062002037565b8015620009245780601f10620008f85761010080835404028352916020019162000924565b820191906000526020600020905b8154815290600101906020018083116200090657829003601f168201915b5050505050905091509150915091565b50506040805160208101909152600080825292909150565b62000957336200067f565b620009765760405162461bcd60e51b8152600401620006589062001f51565b836001600160a01b038116620009a05760405162461bcd60e51b8152600401620006589062001f25565b604051637cd5f66360e01b81526001600160a01b03861690637cd5f66390620009d29087908790879060040162001d88565b600060405180830381600087803b158015620009ed57600080fd5b505af115801562000a02573d6000803e3d6000fd5b505050505050505050565b62000a18336200067f565b62000a375760405162461bcd60e51b8152600401620006589062001f51565b6200067c600080516020620044a4833981519152826200069c565b806001600160a01b03811662000a7c5760405162461bcd60e51b8152600401620006589062001f25565b62000a87336200067f565b62000aa65760405162461bcd60e51b8152600401620006589062001f51565b6004546001600160a01b038381169116141562000b015760405162461bcd60e51b815260206004820152601860248201527730b63932b0b23c9039b2ba103a3434b9903b32b939b4b7b760411b604482015260640162000658565b50600480546001600160a01b0319166001600160a01b0392909216919091179055565b62000b2f336200067f565b62000b4e5760405162461bcd60e51b8152600401620006589062001f51565b6001600160a01b03811662000ba15760405162461bcd60e51b815260206004820152601860248201527741636365737369626c653a207a65726f206164647265737360401b604482015260640162000658565b336001600160a01b038216141562000bf55760405162461bcd60e51b815260206004820152601660248201527520b1b1b2b9b9b4b136329d1039b0b6b29030b236b4b760511b604482015260640162000658565b62000c10600080516020620044a4833981519152826200069c565b6200067c600080516020620044a483398151915233620007e4565b62000c36336200067f565b62000c555760405162461bcd60e51b8152600401620006589062001f51565b806001600160a01b03811662000c7f5760405162461bcd60e51b8152600401620006589062001f25565b6005546001600160a01b038381169116141562000cb05760405162461bcd60e51b8152600401620006589062001f01565b50600580546001600160a01b0319166001600160a01b0392909216919091179055565b6000918252602082815260408084206001600160a01b0393909316845291905290205460ff1690565b62000d07336200067f565b62000d265760405162461bcd60e51b8152600401620006589062001f51565b806001600160a01b03811662000d505760405162461bcd60e51b8152600401620006589062001f25565b6003546001600160a01b038381169116141562000d815760405162461bcd60e51b8152600401620006589062001f01565b50600380546001600160a01b0319166001600160a01b0392909216919091179055565b62000daf336200067f565b62000dce5760405162461bcd60e51b8152600401620006589062001f51565b836001600160a01b03811662000df85760405162461bcd60e51b8152600401620006589062001f25565b604051634a5df50f60e01b81526001600160a01b03861690634a5df50f90620009d29087908790879060040162001e09565b6004546000906001600160a01b03168062000e595760405162461bcd60e51b8152600401620006589062001f25565b6003546001600160a01b03168062000e855760405162461bcd60e51b8152600401620006589062001f25565b8762000ec45760405162461bcd60e51b815260206004820152600d60248201526c6e616d6520697320656d70747960981b604482015260640162000658565b600060405162000ed4906200194c565b604051809103906000f08015801562000ef1573d6000803e3d6000fd5b5090506001600160a01b03811662000f4c5760405162461bcd60e51b815260206004820152601f60248201527f496e697469616c4c69717569646974795661756c7450726f7879207a65726f00604482015260640162000658565b6003546040516325bc555f60e21b81526001600160a01b03838116926396f1557c9262000f80929091169060040162001d74565b600060405180830381600087803b15801562000f9b57600080fd5b505af115801562000fb0573d6000803e3d6000fd5b5050600354604051637048027560e01b81526001600160a01b0380861694506370480275935062000fe692169060040162001d74565b600060405180830381600087803b1580156200100157600080fd5b505af115801562001016573d6000803e3d6000fd5b505060048054604051637cd5f66360e01b81526001600160a01b038087169550637cd5f663945062001052939216916000916001910162001d88565b600060405180830381600087803b1580156200106d57600080fd5b505af115801562001082573d6000803e3d6000fd5b5050600554604051630b8717f760e11b81526001600160a01b03918216600482015260016024820152908416925063170e2fee9150604401600060405180830381600087803b158015620010d557600080fd5b505af1158015620010ea573d6000803e3d6000fd5b505060405163ce0c4c5160e01b81526001600160a01b038416925063ce0c4c51915062001126908d908d908d908d908d908d9060040162001ea8565b600060405180830381600087803b1580156200114157600080fd5b505af115801562001156573d6000803e3d6000fd5b50506006546007546040516301c9398760e21b81526001600160a01b03928316600482015290821660248201529084169250630724e61c9150604401600060405180830381600087803b158015620011ad57600080fd5b505af1158015620011c2573d6000803e3d6000fd5b505060085460405163128efbd160e11b81526001600160a01b038083166004830152600160a01b90920462ffffff166024820152908416925063251df7a29150604401600060405180830381600087803b1580156200122057600080fd5b505af115801562001235573d6000803e3d6000fd5b50505050806001600160a01b0316639a202d476040518163ffffffff1660e01b8152600401600060405180830381600087803b1580156200127557600080fd5b505af11580156200128a573d6000803e3d6000fd5b505050506040518060400160405280826001600160a01b031681526020018b8b8080601f0160208091040260200160405190810160405280939291908181526020018383808284376000920182905250939094525050600180548252600260209081526040909220845181546001600160a01b0319166001600160a01b0390911617815584830151805191945062001328939285019201906200195a565b505060018054915060006200133d8362002074565b9190505550600560009054906101000a90046001600160a01b03166001600160a01b031663beee31bf7fcef663f96a50fb65151a343d90fa0c559ef87c327635e2e9e7ffa49e15cddcf77f6d5a72f3f1338adda1e36ff4249e30f4de96011aee91572f65a2cc63fc1be96f30858f8f604051602001620013c09392919062001dab565b6040516020818303038152906040526040518563ffffffff1660e01b8152600401620013f0949392919062001e6f565b600060405180830381600087803b1580156200140b57600080fd5b505af115801562001420573d6000803e3d6000fd5b505050507f4fe258ada83935d965ec2774f9f672c624e217fb2b644e406c6dfdb5ae2631e5818b8b604051620014599392919062001dab565b60405180910390a19998505050505050505050565b6000828152602081905260409020600101546200148c8133620015f0565b620006c68383620016e7565b620014a3336200067f565b620014c25760405162461bcd60e51b8152600401620006589062001f51565b620014d1602084018462001a36565b6001600160a01b038116620014fa5760405162461bcd60e51b8152600401620006589062001f25565b6200150c604085016020860162001a36565b6001600160a01b038116620015355760405162461bcd60e51b8152600401620006589062001f25565b836001600160a01b0381166200155f5760405162461bcd60e51b8152600401620006589062001f25565b6200156e602087018762001a36565b600680546001600160a01b0319166001600160a01b0392909216919091179055620015a0604087016020880162001a36565b600780546001600160a01b039283166001600160a01b03199091161790556008805462ffffff909616600160a01b026001600160b81b031990961696909116959095179390931790935550505050565b620015fc828262000cd3565b620008625762001617816001600160a01b031660146200174f565b620016248360206200174f565b6040516020016200163792919062001d01565b60408051601f198184030181529082905262461bcd60e51b8252620006589160040162001eec565b6200166b828262000cd3565b62000862576000828152602081815260408083206001600160a01b03851684529091529020805460ff19166001179055620016a33390565b6001600160a01b0316816001600160a01b0316837f2f8788117e7eff1d82e926ec794901d17c78024a50270940304540a733656f0d60405160405180910390a45050565b620016f3828262000cd3565b1562000862576000828152602081815260408083206001600160a01b0385168085529252808320805460ff1916905551339285917ff6391f5c32d9c69d2a47ea670b442974b53935d1edc7fd64eb21e047a839171b9190a45050565b606060006200176083600262001fae565b6200176d90600262001f93565b67ffffffffffffffff8111156200179457634e487b7160e01b600052604160045260246000fd5b6040519080825280601f01601f191660200182016040528015620017bf576020820181803683370190505b509050600360fc1b81600081518110620017e957634e487b7160e01b600052603260045260246000fd5b60200101906001600160f81b031916908160001a905350600f60fb1b816001815181106200182757634e487b7160e01b600052603260045260246000fd5b60200101906001600160f81b031916908160001a90535060006200184d84600262001fae565b6200185a90600162001f93565b90505b6001811115620018f4576f181899199a1a9b1b9c1cb0b131b232b360811b85600f16601081106200189e57634e487b7160e01b600052603260045260246000fd5b1a60f81b828281518110620018c357634e487b7160e01b600052603260045260246000fd5b60200101906001600160f81b031916908160001a90535060049490941c93620018ec816200201d565b90506200185d565b508315620019455760405162461bcd60e51b815260206004820181905260248201527f537472696e67733a20686578206c656e67746820696e73756666696369656e74604482015260640162000658565b9392505050565b6123fb80620020a983390190565b828054620019689062002037565b90600052602060002090601f0160209004810192826200198c5760008555620019d7565b82601f10620019a757805160ff1916838001178555620019d7565b82800160010185558215620019d7579182015b82811115620019d7578251825591602001919060010190620019ba565b50620019e5929150620019e9565b5090565b5b80821115620019e55760008155600101620019ea565b80356001600160a01b038116811462001a1857600080fd5b919050565b80356001600160e01b03198116811462001a1857600080fd5b60006020828403121562001a48578081fd5b620019458262001a00565b6000806000806080858703121562001a69578283fd5b62001a748562001a00565b935062001a846020860162001a00565b9250604085013591506060850135801515811462001aa0578182fd5b939692955090935050565b6000806000806060858703121562001ac1578384fd5b62001acc8562001a00565b9350602085013567ffffffffffffffff8082111562001ae9578485fd5b818701915087601f83011262001afd578485fd5b81358181111562001b0c578586fd5b8860208260051b850101111562001b21578586fd5b60208301955080945050505062001b3b6040860162001a00565b905092959194509250565b60008060006080848603121562001b5b578283fd5b604084018581111562001b6c578384fd5b84935062001b7a8162001a00565b925050606084013562ffffff8116811462001b93578182fd5b809150509250925092565b60006020828403121562001bb0578081fd5b5035919050565b6000806040838503121562001bca578182fd5b8235915062001bdc6020840162001a00565b90509250929050565b60006020828403121562001bf7578081fd5b620019458262001a1d565b60008060008060008060a0878903121562001c1b578182fd5b863567ffffffffffffffff8082111562001c33578384fd5b818901915089601f83011262001c47578384fd5b81358181111562001c56578485fd5b8a602082850101111562001c68578485fd5b60209283019850965062001c80918901905062001a00565b935062001c906040880162001a00565b925060608701359150608087013590509295509295509295565b6000815180845262001cc481602086016020860162001fea565b601f01601f19169290920160200192915050565b81835281816020850137506000828201602090810191909152601f909101601f19169091010190565b76020b1b1b2b9b9a1b7b73a3937b61d1030b1b1b7bab73a1604d1b81526000835162001d3581601785016020880162001fea565b7001034b99036b4b9b9b4b733903937b6329607d1b601791840191820152835162001d6881602884016020880162001fea565b01602801949350505050565b6001600160a01b0391909116815260200190565b6001600160a01b0393909316835260208301919091521515604082015260600190565b6001600160a01b038416815260406020820181905260009062001dd2908301848662001cd8565b95945050505050565b6001600160a01b038316815260406020820181905260009062001e019083018462001caa565b949350505050565b6040808252810183905260008460608301825b8681101562001e4f576001600160e01b031962001e398462001a1d565b1682526020928301929091019060010162001e1c565b506001600160a01b03949094166020939093019290925250909392505050565b84815283602082015260018060a01b038316604082015260806060820152600062001e9e608083018462001caa565b9695505050505050565b60a08152600062001ebe60a08301888a62001cd8565b6001600160a01b03968716602084015294909516604082015260608101929092526080909101529392505050565b60208152600062001945602083018462001caa565b6020808252600a908201526973616d6520616464727360b01b604082015260600190565b6020808252601290820152715661756c74466163746f72793a207a65726f60701b604082015260600190565b60208082526022908201527f41636365737369626c653a2043616c6c6572206973206e6f7420616e2061646d60408201526134b760f11b606082015260800190565b6000821982111562001fa95762001fa962002092565b500190565b600081600019048311821515161562001fcb5762001fcb62002092565b500290565b60008282101562001fe55762001fe562002092565b500390565b60005b838110156200200757818101518382015260200162001fed565b8381111562002017576000848401525b50505050565b6000816200202f576200202f62002092565b506000190190565b600181811c908216806200204c57607f821691505b602082108114156200206e57634e487b7160e01b600052602260045260246000fd5b50919050565b60006000198214156200208b576200208b62002092565b5060010190565b634e487b7160e01b600052601160045260246000fdfe608060405260006010553480156200001657600080fd5b506001600055620000487f52eafc11f6f81f86878bffd31109a0d92f37506527754f00788853ff9f63b1308062000087565b620000747f52eafc11f6f81f86878bffd31109a0d92f37506527754f00788853ff9f63b13033620000d2565b62000081600033620000d2565b62000186565b600082815260196020526040808220600101805490849055905190918391839186917fbd79b86ffe0ab8e8776151514217cd7cacd52c909f66475c3af44e129f0b00ff9190a4505050565b620000de8282620000e2565b5050565b60008281526019602090815260408083206001600160a01b038516845290915290205460ff16620000de5760008281526019602090815260408083206001600160a01b03851684529091529020805460ff19166001179055620001423390565b6001600160a01b0316816001600160a01b0316837f2f8788117e7eff1d82e926ec794901d17c78024a50270940304540a733656f0d60405160405180910390a45050565b61226580620001966000396000f3fe6080604052600436106102d95760003560e01c80636befec3f1161017b578063a217fddf116100d7578063ddca3f4311610085578063ddca3f431461092e578063eab73ca114610965578063eb582d131461098a578063ed5131f5146109aa578063f47f2f1d146109ca578063f8646408146109ea578063fc0c546a14610a0a57610322565b8063a217fddf14610858578063b911135f1461086d578063be72f2d3146108a3578063ce0c4c51146108b8578063cfc412be146108d8578063d547741f146108ee578063d7cb416f1461090e57610322565b806381f41eb21161013457806381f41eb2146107835780638356ca4f146107a35780638b8f4a65146107c35780638d4fdb40146107e357806391d148541461080357806396f1557c146108235780639a202d471461084357610322565b80636befec3f146106c357806370480275146106e357806375829def146107035780637cb00d25146107235780637cd5f663146107435780637ff36fbe1461076357610322565b80632ca0228a11610235578063526aef94116101e3578063526aef94146105e4578063550d01a31461061857806355640008146106485780635c60da1b1461065e5780635cc797d8146106735780635fcbd2851461069357806363a8fd89146106a957610322565b80632ca0228a146104f65780632f2ff15d1461050c57806336568abe1461052c5780633659cfe61461054c57806341c04d5e1461056c5780634a5df50f1461058e57806350d2a276146105ae57610322565b80630f4388c0116102925780630f4388c01461041a578063117ab8741461043a57806316f0115b14610450578063170e2fee14610470578063248a9ca31461049057806324d7806c146104c0578063256019d6146104e057610322565b806301ffc9a71461032c5780630284ec8f146103615780630411b9491461038257806306fdde03146103ba5780630a59fa08146103dc5780630a6aae11146103f657610322565b366103225760405162461bcd60e51b815260206004820152601460248201527331b0b73737ba103932b1b2b4bb329022ba3432b960611b60448201526064015b60405180910390fd5b61032a610a2a565b005b34801561033857600080fd5b5061034c610347366004611e7e565b610ae7565b60405190151581526020015b60405180910390f35b34801561036d57600080fd5b50600a5461034c90600160b81b900460ff1681565b34801561038e57600080fd5b506003546103a2906001600160a01b031681565b6040516001600160a01b039091168152602001610358565b3480156103c657600080fd5b506103cf610b1e565b6040516103589190611ff4565b3480156103e857600080fd5b5060185461034c9060ff1681565b34801561040257600080fd5b5061040c60085481565b604051908152602001610358565b34801561042657600080fd5b5061040c610435366004611e44565b610bac565b34801561044657600080fd5b5061040c60105481565b34801561045c57600080fd5b506005546103a2906001600160a01b031681565b34801561047c57600080fd5b5061032a61048b366004611d47565b610bcd565b34801561049c57600080fd5b5061040c6104ab366004611e44565b60009081526019602052604090206001015490565b3480156104cc57600080fd5b5061034c6104db366004611d2d565b610ca6565b3480156104ec57600080fd5b5061040c600f5481565b34801561050257600080fd5b5061040c60095481565b34801561051857600080fd5b5061032a610527366004611e5c565b610cc0565b34801561053857600080fd5b5061032a610547366004611e5c565b610ce6565b34801561055857600080fd5b5061032a610567366004611d2d565b610d60565b34801561057857600080fd5b5061040c60008051602061221083398151915281565b34801561059a57600080fd5b5061032a6105a9366004611db4565b610e89565b3480156105ba57600080fd5b506103a26105c9366004611e7e565b6017602052600090815260409020546001600160a01b031681565b3480156105f057600080fd5b50600a5461060590600160a01b900460020b81565b60405160029190910b8152602001610358565b34801561062457600080fd5b5061034c610633366004611d2d565b60166020526000908152604090205460ff1681565b34801561065457600080fd5b5061040c600e5481565b34801561066a57600080fd5b506103a261113c565b34801561067f57600080fd5b5061032a61068e366004611d47565b61114d565b34801561069f57600080fd5b5061040c600b5481565b3480156106b557600080fd5b5060145461034c9060ff1681565b3480156106cf57600080fd5b5061032a6106de366004611e2a565b61117c565b3480156106ef57600080fd5b5061032a6106fe366004611d2d565b611254565b34801561070f57600080fd5b5061032a61071e366004611d2d565b611294565b34801561072f57600080fd5b5061032a61073e366004611e2a565b611347565b34801561074f57600080fd5b5061032a61075e366004611d79565b61138e565b34801561076f57600080fd5b506006546103a2906001600160a01b031681565b34801561078f57600080fd5b50600a546103a2906001600160a01b031681565b3480156107af57600080fd5b5061032a6107be366004611d2d565b6113be565b3480156107cf57600080fd5b506103a26107de366004611e44565b611448565b3480156107ef57600080fd5b506103a26107fe366004611e7e565b611453565b34801561080f57600080fd5b5061034c61081e366004611e5c565b61154f565b34801561082f57600080fd5b5061032a61083e366004611d2d565b61157a565b34801561084f57600080fd5b5061032a6115aa565b34801561086457600080fd5b5061040c600081565b34801561087957600080fd5b506103a2610888366004611e44565b6015602052600090815260409020546001600160a01b031681565b3480156108af57600080fd5b5061032a6115f8565b3480156108c457600080fd5b5061032a6108d3366004611ea6565b611628565b3480156108e457600080fd5b5061040c60115481565b3480156108fa57600080fd5b5061032a610909366004611e5c565b6117ac565b34801561091a57600080fd5b506007546103a2906001600160a01b031681565b34801561093a57600080fd5b5060045461095190600160a01b900462ffffff1681565b60405162ffffff9091168152602001610358565b34801561097157600080fd5b506018546103a29061010090046001600160a01b031681565b34801561099657600080fd5b506004546103a2906001600160a01b031681565b3480156109b657600080fd5b5061040c6109c5366004611e44565b6117d2565b3480156109d657600080fd5b5061034c6109e5366004611d2d565b6117e2565b3480156109f657600080fd5b506002546103a2906001600160a01b031681565b348015610a1657600080fd5b506001546103a2906001600160a01b031681565b6000610a416000356001600160e01b031916611453565b90506001600160a01b03811615801590610a5e575060145460ff16155b610abe5760405162461bcd60e51b815260206004820152602b60248201527f4c69717569646974795661756c7450726f78793a20696d706c204f522070726f60448201526a78792069732066616c736560a81b6064820152608401610319565b3660008037600080366000845af43d6000803e808015610add573d6000f35b3d6000fd5b505050565b60006001600160e01b03198216637965db0b60e01b1480610b1857506301ffc9a760e01b6001600160e01b03198316145b92915050565b600d8054610b2b9061218d565b80601f0160208091040260200160405190810160405280929190818152602001828054610b579061218d565b8015610ba45780601f10610b7957610100808354040283529160200191610ba4565b820191906000526020600020905b815481529060010190602001808311610b8757829003601f168201915b505050505081565b60138181548110610bbc57600080fd5b600091825260209091200154905081565b610bd6336117e2565b610bf25760405162461bcd60e51b81526004016103199061209b565b6018546001600160a01b038381166101009092041614801590610c1d57506001600160a01b03821615155b610c5e5760405162461bcd60e51b815260206004820152601260248201527173616d652076616c7565206f72207a65726f60701b6044820152606401610319565b601880546001600160a01b03841661010002610100600160a81b03198216811790925560ff918216911617151581151514610ca2576018805460ff19168215151790555b5050565b6000610b186000805160206122108339815191528361154f565b600082815260196020526040902060010154610cdc81336117ee565b610ae28383611852565b6001600160a01b0381163314610d565760405162461bcd60e51b815260206004820152602f60248201527f416363657373436f6e74726f6c3a2063616e206f6e6c792072656e6f756e636560448201526e103937b632b9903337b91039b2b63360891b6064820152608401610319565b610ca282826118d8565b610d69336117e2565b610d855760405162461bcd60e51b81526004016103199061209b565b6001600160a01b038116610dcb5760405162461bcd60e51b815260206004820152600d60248201526c696e707574206973207a65726f60981b6044820152606401610319565b806001600160a01b0316610ddf600061193f565b6001600160a01b03161415610e455760405162461bcd60e51b815260206004820152602660248201527f54686520696e70757420616464726573732069732073616d652061732074686560448201526520737461746560d01b6064820152608401610319565b610e52816000600161195a565b6040516001600160a01b038216907fbc7cd75a20ee27fd9adebab32041f755214dbc6bffa90cc0225b39da2e5c2d3b90600090a250565b610e92336117e2565b610eae5760405162461bcd60e51b81526004016103199061209b565b81610f125760405162461bcd60e51b815260206004820152602e60248201527f4c69717569646974795661756c7450726f78793a205f73656c6563746f72732760448201526d732073697a65206973207a65726f60901b6064820152608401610319565b6001600160a01b03811660009081526016602052604090205460ff16610f895760405162461bcd60e51b815260206004820152602660248201527f4c69717569646974795661756c7450726f78793a205f696d70206973206e6f7460448201526520616c69766560d01b6064820152608401610319565b60005b8281101561113657816001600160a01b031660176000868685818110610fc257634e487b7160e01b600052603260045260246000fd5b9050602002016020810190610fd79190611e7e565b6001600160e01b03191681526020810191909152604001600020546001600160a01b031614156110495760405162461bcd60e51b815260206004820152601d60248201527f4c69717569646974795661756c7450726f78793a2073616d6520696d700000006044820152606401610319565b816017600086868581811061106e57634e487b7160e01b600052603260045260246000fd5b90506020020160208101906110839190611e7e565b6001600160e01b0319168152602081019190915260400160002080546001600160a01b0319166001600160a01b0392831617905582168484838181106110d957634e487b7160e01b600052603260045260246000fd5b90506020020160208101906110ee9190611e7e565b6001600160e01b0319167f14ebc1c32aa68f4d766e89f3e546cee249f7df25183fc10ab1568d91c2ce9b7b60405160405180910390a38061112e816121c8565b915050610f8c565b50505050565b6000611148600061193f565b905090565b611156336117e2565b6111725760405162461bcd60e51b81526004016103199061209b565b610ca28282611a1b565b611185336117e2565b6111a15760405162461bcd60e51b81526004016103199061209b565b60185460ff16151581151514156111e75760405162461bcd60e51b815260206004820152600a60248201526973616d652076616c756560b01b6044820152606401610319565b80156112415760185461010090046001600160a01b03166112415760405162461bcd60e51b81526020600482015260146024820152737a65726f206c6f674576656e744164647265737360601b6044820152606401610319565b6018805460ff1916911515919091179055565b61125d336117e2565b6112795760405162461bcd60e51b81526004016103199061209b565b61129160008051602061221083398151915282610cc0565b50565b61129d33610ca6565b806112ac57506112ac336117e2565b6112c85760405162461bcd60e51b815260040161031990612027565b6001600160a01b0381166112ee5760405162461bcd60e51b815260040161031990612069565b336001600160a01b03821614156113175760405162461bcd60e51b8152600401610319906120e3565b61132f60008051602061221083398151915282610cc0565b61129160008051602061221083398151915233610ce6565b61135033610ca6565b8061135f575061135f336117e2565b61137b5760405162461bcd60e51b815260040161031990612027565b6014805460ff1916911515919091179055565b611397336117e2565b6113b35760405162461bcd60e51b81526004016103199061209b565b610ae283838361195a565b6113c7336117e2565b6113e35760405162461bcd60e51b81526004016103199061209b565b6001600160a01b0381166114095760405162461bcd60e51b815260040161031990612069565b336001600160a01b03821614156114325760405162461bcd60e51b8152600401610319906120e3565b61143d600082610cc0565b611291600033610ce6565b6000610b188261193f565b6001600160e01b031981166000908152601760205260408120546001600160a01b03166114b35750506000805260156020527fa31547ce6245cdb9ecea19cf8c7eb9f5974025bb4075011409251ae855b30aed546001600160a01b031690565b6001600160e01b031982166000908152601760209081526040808320546001600160a01b03168352601690915290205460ff161561151157506001600160e01b0319166000908152601760205260409020546001600160a01b031690565b50506000805260156020527fa31547ce6245cdb9ecea19cf8c7eb9f5974025bb4075011409251ae855b30aed546001600160a01b031690565b919050565b60009182526019602090815260408084206001600160a01b0393909316845291905290205460ff1690565b611583336117e2565b61159f5760405162461bcd60e51b81526004016103199061209b565b611291600082611a7a565b6115b333610ca6565b806115c257506115c2336117e2565b6115de5760405162461bcd60e51b815260040161031990612027565b6115f660008051602061221083398151915233610ce6565b565b611601336117e2565b61161d5760405162461bcd60e51b81526004016103199061209b565b6115f6600033610ce6565b61163133610ca6565b806116405750611640336117e2565b61165c5760405162461bcd60e51b815260040161031990612027565b600d80546116699061218d565b1590506116a65760405162461bcd60e51b815260206004820152600b60248201526a185b1c9958591e481cd95d60aa1b6044820152606401610319565b6001600160a01b038416158015906116c657506001600160a01b03831615155b6117015760405162461bcd60e51b815260206004820152600c60248201526b7a65726f206164647265737360a01b6044820152606401610319565b6000821180156117115750600081115b61174a5760405162461bcd60e51b815260206004820152600a6024820152697a65726f20707269636560b01b6044820152606401610319565b845161175d90600d906020880190611c6d565b50600180546001600160a01b0319166001600160a01b03861617905561178283610ca6565b61179e5761179e60008051602061221083398151915284611a7a565b600891909155600955505050565b6000828152601960205260409020600101546117c881336117ee565b610ae283836118d8565b60128181548110610bbc57600080fd5b6000610b18818361154f565b6117f8828261154f565b610ca257611810816001600160a01b03166014611a84565b61181b836020611a84565b60405160200161182c929190611f85565b60408051601f198184030181529082905262461bcd60e51b825261031991600401611ff4565b61185c828261154f565b610ca25760008281526019602090815260408083206001600160a01b03851684529091529020805460ff191660011790556118943390565b6001600160a01b0316816001600160a01b0316837f2f8788117e7eff1d82e926ec794901d17c78024a50270940304540a733656f0d60405160405180910390a45050565b6118e2828261154f565b15610ca25760008281526019602090815260408083206001600160a01b0385168085529252808320805460ff1916905551339285917ff6391f5c32d9c69d2a47ea670b442974b53935d1edc7fd64eb21e047a839171b9190a45050565b6000908152601560205260409020546001600160a01b031690565b823b6119e75760405162461bcd60e51b815260206004820152605060248201527f4c69717569646974795661756c7450726f78793a2043616e6e6f74207365742060448201527f612070726f787920696d706c656d656e746174696f6e20746f2061206e6f6e2d60648201526f636f6e7472616374206164647265737360801b608482015260a401610319565b8015611a1557600082815260156020526040902080546001600160a01b0319166001600160a01b0385161790555b610ae283825b6001600160a01b038216600081815260166020908152604091829020805460ff191685151590811790915591519182527f72558d9bfba4210f9ef095c782589484151f6d90f7a81bb3cb9b33efc695d324910160405180910390a25050565b610ca28282611852565b60606000611a9383600261212b565b611a9e906002612113565b67ffffffffffffffff811115611ac457634e487b7160e01b600052604160045260246000fd5b6040519080825280601f01601f191660200182016040528015611aee576020820181803683370190505b509050600360fc1b81600081518110611b1757634e487b7160e01b600052603260045260246000fd5b60200101906001600160f81b031916908160001a905350600f60fb1b81600181518110611b5457634e487b7160e01b600052603260045260246000fd5b60200101906001600160f81b031916908160001a9053506000611b7884600261212b565b611b83906001612113565b90505b6001811115611c17576f181899199a1a9b1b9c1cb0b131b232b360811b85600f1660108110611bc557634e487b7160e01b600052603260045260246000fd5b1a60f81b828281518110611be957634e487b7160e01b600052603260045260246000fd5b60200101906001600160f81b031916908160001a90535060049490941c93611c1081612176565b9050611b86565b508315611c665760405162461bcd60e51b815260206004820181905260248201527f537472696e67733a20686578206c656e67746820696e73756666696369656e746044820152606401610319565b9392505050565b828054611c799061218d565b90600052602060002090601f016020900481019282611c9b5760008555611ce1565b82601f10611cb457805160ff1916838001178555611ce1565b82800160010185558215611ce1579182015b82811115611ce1578251825591602001919060010190611cc6565b50611ced929150611cf1565b5090565b5b80821115611ced5760008155600101611cf2565b80356001600160a01b038116811461154a57600080fd5b8035801515811461154a57600080fd5b600060208284031215611d3e578081fd5b611c6682611d06565b60008060408385031215611d59578081fd5b611d6283611d06565b9150611d7060208401611d1d565b90509250929050565b600080600060608486031215611d8d578081fd5b611d9684611d06565b925060208401359150611dab60408501611d1d565b90509250925092565b600080600060408486031215611dc8578283fd5b833567ffffffffffffffff80821115611ddf578485fd5b818601915086601f830112611df2578485fd5b813581811115611e00578586fd5b8760208260051b8501011115611e14578586fd5b602092830195509350611dab9186019050611d06565b600060208284031215611e3b578081fd5b611c6682611d1d565b600060208284031215611e55578081fd5b5035919050565b60008060408385031215611e6e578182fd5b82359150611d7060208401611d06565b600060208284031215611e8f578081fd5b81356001600160e01b031981168114611c66578182fd5b600080600080600060a08688031215611ebd578081fd5b853567ffffffffffffffff80821115611ed4578283fd5b818801915088601f830112611ee7578283fd5b813581811115611ef957611ef96121f9565b604051601f8201601f19908116603f01168101908382118183101715611f2157611f216121f9565b816040528281528b6020848701011115611f39578586fd5b8260208601602083013785602084830101528099505050505050611f5f60208701611d06565b9350611f6d60408701611d06565b94979396509394606081013594506080013592915050565b76020b1b1b2b9b9a1b7b73a3937b61d1030b1b1b7bab73a1604d1b815260008351611fb781601785016020880161214a565b7001034b99036b4b9b9b4b733903937b6329607d1b6017918401918201528351611fe881602884016020880161214a565b01602801949350505050565b602081526000825180602084015261201381604085016020870161214a565b601f01601f19169190910160400192915050565b60208082526022908201527f41636365737369626c653a2043616c6c6572206973206e6f7420616e2061646d60408201526134b760f11b606082015260800190565b60208082526018908201527741636365737369626c653a207a65726f206164647265737360401b604082015260600190565b60208082526028908201527f41636365737369626c653a2043616c6c6572206973206e6f7420616e2070726f6040820152673c3c9030b236b4b760c11b606082015260800190565b60208082526016908201527520b1b1b2b9b9b4b136329d1039b0b6b29030b236b4b760511b604082015260600190565b60008219821115612126576121266121e3565b500190565b6000816000190483118215151615612145576121456121e3565b500290565b60005b8381101561216557818101518382015260200161214d565b838111156111365750506000910152565b600081612185576121856121e3565b506000190190565b600181811c908216806121a157607f821691505b602082108114156121c257634e487b7160e01b600052602260045260246000fd5b50919050565b60006000198214156121dc576121dc6121e3565b5060010190565b634e487b7160e01b600052601160045260246000fd5b634e487b7160e01b600052604160045260246000fdfe52eafc11f6f81f86878bffd31109a0d92f37506527754f00788853ff9f63b130a2646970667358221220c7b01691038b29668a34da8769d336fc1cbdb9f4083f8e0e142fa713e34b8d6d64736f6c63430008040033df8b4c520ffe197c5343c6f5aec59570151ef9a492f2c624fd45ddde6135ec42a2646970667358221220b741d84b586e9349588f92ca6d7c8e0423b3c3da4ffe70ce4de2ff78923e182064736f6c63430008040033df8b4c520ffe197c5343c6f5aec59570151ef9a492f2c624fd45ddde6135ec42",
  "linkReferences": {},
  "deployedLinkReferences": {}
}