{
  "_format": "hh-sol-artifact-1",
  "contractName": "InitialLiquidityVault1",
  "sourceName": "contracts/typeFVault/InitialLiquidityVault1.sol",
  "abi": [
    {
      "inputs": [],
      "stateMutability": "nonpayable",
      "type": "constructor"
    },
    {
      "anonymous": false,
      "inputs": [
        {
          "indexed": false,
          "internalType": "address",
          "name": "token",
          "type": "address"
        }
      ],
      "name": "ChangedToken",
      "type": "event"
    },
    {
      "anonymous": false,
      "inputs": [
        {
          "indexed": true,
          "internalType": "uint256",
          "name": "tokenId",
          "type": "uint256"
        },
        {
          "indexed": false,
          "internalType": "uint256",
          "name": "amount0",
          "type": "uint256"
        },
        {
          "indexed": false,
          "internalType": "uint256",
          "name": "amount1",
          "type": "uint256"
        }
      ],
      "name": "CollectInVault",
      "type": "event"
    },
    {
      "anonymous": false,
      "inputs": [
        {
          "indexed": true,
          "internalType": "uint256",
          "name": "tokenId",
          "type": "uint256"
        },
        {
          "indexed": false,
          "internalType": "uint128",
          "name": "liquidity",
          "type": "uint128"
        },
        {
          "indexed": false,
          "internalType": "uint256",
          "name": "amount0",
          "type": "uint256"
        },
        {
          "indexed": false,
          "internalType": "uint256",
          "name": "amount1",
          "type": "uint256"
        }
      ],
      "name": "IncreaseLiquidityInVault",
      "type": "event"
    },
    {
      "anonymous": false,
      "inputs": [
        {
          "indexed": false,
          "internalType": "uint256",
          "name": "_totalAllocatedAmount",
          "type": "uint256"
        }
      ],
      "name": "Initialized",
      "type": "event"
    },
    {
      "anonymous": false,
      "inputs": [
        {
          "indexed": true,
          "internalType": "address",
          "name": "caller",
          "type": "address"
        },
        {
          "indexed": false,
          "internalType": "uint256",
          "name": "tokenId",
          "type": "uint256"
        },
        {
          "indexed": false,
          "internalType": "uint128",
          "name": "liquidity",
          "type": "uint128"
        },
        {
          "indexed": false,
          "internalType": "uint256",
          "name": "amount0",
          "type": "uint256"
        },
        {
          "indexed": false,
          "internalType": "uint256",
          "name": "amount1",
          "type": "uint256"
        }
      ],
      "name": "MintedInVault",
      "type": "event"
    },
    {
      "anonymous": false,
      "inputs": [
        {
          "indexed": true,
          "internalType": "bytes32",
          "name": "role",
          "type": "bytes32"
        },
        {
          "indexed": true,
          "internalType": "bytes32",
          "name": "previousAdminRole",
          "type": "bytes32"
        },
        {
          "indexed": true,
          "internalType": "bytes32",
          "name": "newAdminRole",
          "type": "bytes32"
        }
      ],
      "name": "RoleAdminChanged",
      "type": "event"
    },
    {
      "anonymous": false,
      "inputs": [
        {
          "indexed": true,
          "internalType": "bytes32",
          "name": "role",
          "type": "bytes32"
        },
        {
          "indexed": true,
          "internalType": "address",
          "name": "account",
          "type": "address"
        },
        {
          "indexed": true,
          "internalType": "address",
          "name": "sender",
          "type": "address"
        }
      ],
      "name": "RoleGranted",
      "type": "event"
    },
    {
      "anonymous": false,
      "inputs": [
        {
          "indexed": true,
          "internalType": "bytes32",
          "name": "role",
          "type": "bytes32"
        },
        {
          "indexed": true,
          "internalType": "address",
          "name": "account",
          "type": "address"
        },
        {
          "indexed": true,
          "internalType": "address",
          "name": "sender",
          "type": "address"
        }
      ],
      "name": "RoleRevoked",
      "type": "event"
    },
    {
      "anonymous": false,
      "inputs": [
        {
          "indexed": false,
          "internalType": "string",
          "name": "name",
          "type": "string"
        },
        {
          "indexed": false,
          "internalType": "address",
          "name": "token",
          "type": "address"
        },
        {
          "indexed": false,
          "internalType": "address",
          "name": "owner",
          "type": "address"
        }
      ],
      "name": "SetBaseInfo",
      "type": "event"
    },
    {
      "anonymous": false,
      "inputs": [
        {
          "indexed": false,
          "internalType": "bool",
          "name": "boolReadyToCreatePool",
          "type": "bool"
        }
      ],
      "name": "SetBoolReadyToCreatePool",
      "type": "event"
    },
    {
      "anonymous": false,
      "inputs": [
        {
          "indexed": false,
          "internalType": "uint256",
          "name": "tosPrice",
          "type": "uint256"
        },
        {
          "indexed": false,
          "internalType": "uint256",
          "name": "tokenPrice",
          "type": "uint256"
        },
        {
          "indexed": false,
          "internalType": "uint160",
          "name": "initSqrtPrice",
          "type": "uint160"
        }
      ],
      "name": "SetInitialPrice",
      "type": "event"
    },
    {
      "anonymous": false,
      "inputs": [
        {
          "indexed": false,
          "internalType": "address",
          "name": "pool",
          "type": "address"
        },
        {
          "indexed": false,
          "internalType": "address",
          "name": "token0",
          "type": "address"
        },
        {
          "indexed": false,
          "internalType": "address",
          "name": "token1",
          "type": "address"
        }
      ],
      "name": "SetPool",
      "type": "event"
    },
    {
      "anonymous": false,
      "inputs": [
        {
          "indexed": false,
          "internalType": "uint160",
          "name": "inSqrtPriceX96",
          "type": "uint160"
        }
      ],
      "name": "SetPoolInitialized",
      "type": "event"
    },
    {
      "anonymous": false,
      "inputs": [
        {
          "indexed": false,
          "internalType": "uint256",
          "name": "_startTime",
          "type": "uint256"
        }
      ],
      "name": "SetStartTime",
      "type": "event"
    },
    {
      "anonymous": false,
      "inputs": [
        {
          "indexed": false,
          "internalType": "address",
          "name": "tos",
          "type": "address"
        },
        {
          "indexed": false,
          "internalType": "uint24",
          "name": "fee",
          "type": "uint24"
        },
        {
          "indexed": false,
          "internalType": "int24",
          "name": "tickSpacings",
          "type": "int24"
        }
      ],
      "name": "SetTokens",
      "type": "event"
    },
    {
      "anonymous": false,
      "inputs": [
        {
          "indexed": false,
          "internalType": "address",
          "name": "poolfactory",
          "type": "address"
        },
        {
          "indexed": false,
          "internalType": "address",
          "name": "npm",
          "type": "address"
        }
      ],
      "name": "SetUniswapInfo",
      "type": "event"
    },
    {
      "anonymous": false,
      "inputs": [
        {
          "indexed": false,
          "internalType": "address",
          "name": "caller",
          "type": "address"
        },
        {
          "indexed": false,
          "internalType": "address",
          "name": "tokenAddress",
          "type": "address"
        },
        {
          "indexed": false,
          "internalType": "address",
          "name": "to",
          "type": "address"
        },
        {
          "indexed": false,
          "internalType": "uint256",
          "name": "amount",
          "type": "uint256"
        }
      ],
      "name": "WithdrawalInVault",
      "type": "event"
    },
    {
      "inputs": [],
      "name": "DEFAULT_ADMIN_ROLE",
      "outputs": [
        {
          "internalType": "bytes32",
          "name": "",
          "type": "bytes32"
        }
      ],
      "stateMutability": "view",
      "type": "function"
    },
    {
      "inputs": [],
      "name": "NonfungiblePositionManager",
      "outputs": [
        {
          "internalType": "contract INonfungiblePositionManager",
          "name": "",
          "type": "address"
        }
      ],
      "stateMutability": "view",
      "type": "function"
    },
    {
      "inputs": [],
      "name": "PROJECT_ADMIN_ROLE",
      "outputs": [
        {
          "internalType": "bytes32",
          "name": "",
          "type": "bytes32"
        }
      ],
      "stateMutability": "view",
      "type": "function"
    },
    {
      "inputs": [],
      "name": "TOS",
      "outputs": [
        {
          "internalType": "contract IERC20",
          "name": "",
          "type": "address"
        }
      ],
      "stateMutability": "view",
      "type": "function"
    },
    {
      "inputs": [],
      "name": "UniswapV3Factory",
      "outputs": [
        {
          "internalType": "contract IUniswapV3Factory",
          "name": "",
          "type": "address"
        }
      ],
      "stateMutability": "view",
      "type": "function"
    },
    {
      "inputs": [
        {
          "internalType": "address",
          "name": "account",
          "type": "address"
        }
      ],
      "name": "addAdmin",
      "outputs": [],
      "stateMutability": "nonpayable",
      "type": "function"
    },
    {
      "inputs": [
        {
          "internalType": "address",
          "name": "_owner",
          "type": "address"
        }
      ],
      "name": "addProxyAdmin",
      "outputs": [],
      "stateMutability": "nonpayable",
      "type": "function"
    },
    {
      "inputs": [
        {
          "internalType": "address",
          "name": "",
          "type": "address"
        }
      ],
      "name": "aliveImplementation",
      "outputs": [
        {
          "internalType": "bool",
          "name": "",
          "type": "bool"
        }
      ],
      "stateMutability": "view",
      "type": "function"
    },
    {
      "inputs": [],
      "name": "allClaimInfos",
      "outputs": [
        {
          "internalType": "uint256",
          "name": "",
          "type": "uint256"
        },
        {
          "internalType": "uint256[]",
          "name": "",
          "type": "uint256[]"
        },
        {
          "internalType": "uint256[]",
          "name": "",
          "type": "uint256[]"
        },
        {
          "internalType": "uint256",
          "name": "",
          "type": "uint256"
        }
      ],
      "stateMutability": "view",
      "type": "function"
    },
    {
      "inputs": [],
      "name": "boolLogEvent",
      "outputs": [
        {
          "internalType": "bool",
          "name": "",
          "type": "bool"
        }
      ],
      "stateMutability": "view",
      "type": "function"
    },
    {
      "inputs": [],
      "name": "boolReadyToCreatePool",
      "outputs": [
        {
          "internalType": "bool",
          "name": "",
          "type": "bool"
        }
      ],
      "stateMutability": "view",
      "type": "function"
    },
    {
      "inputs": [
        {
          "internalType": "uint256",
          "name": "",
          "type": "uint256"
        }
      ],
      "name": "claimAmounts",
      "outputs": [
        {
          "internalType": "uint256",
          "name": "",
          "type": "uint256"
        }
      ],
      "stateMutability": "view",
      "type": "function"
    },
    {
      "inputs": [
        {
          "internalType": "uint256",
          "name": "",
          "type": "uint256"
        }
      ],
      "name": "claimTimes",
      "outputs": [
        {
          "internalType": "uint256",
          "name": "",
          "type": "uint256"
        }
      ],
      "stateMutability": "view",
      "type": "function"
    },
    {
      "inputs": [],
      "name": "collect",
      "outputs": [],
      "stateMutability": "nonpayable",
      "type": "function"
    },
    {
      "inputs": [
        {
          "internalType": "address",
          "name": "tokenA",
          "type": "address"
        },
        {
          "internalType": "address",
          "name": "tokenB",
          "type": "address"
        },
        {
          "internalType": "uint24",
          "name": "_fee",
          "type": "uint24"
        }
      ],
      "name": "computePoolAddress",
      "outputs": [
        {
          "internalType": "address",
          "name": "pool",
          "type": "address"
        },
        {
          "internalType": "address",
          "name": "token0",
          "type": "address"
        },
        {
          "internalType": "address",
          "name": "token1",
          "type": "address"
        }
      ],
      "stateMutability": "view",
      "type": "function"
    },
    {
      "inputs": [],
      "name": "currentTick",
      "outputs": [
        {
          "internalType": "uint160",
          "name": "sqrtPriceX96",
          "type": "uint160"
        },
        {
          "internalType": "int24",
          "name": "tick",
          "type": "int24"
        }
      ],
      "stateMutability": "view",
      "type": "function"
    },
    {
      "inputs": [],
      "name": "fee",
      "outputs": [
        {
          "internalType": "uint24",
          "name": "",
          "type": "uint24"
        }
      ],
      "stateMutability": "view",
      "type": "function"
    },
    {
      "inputs": [
        {
          "internalType": "address",
          "name": "token0",
          "type": "address"
        },
        {
          "internalType": "address",
          "name": "token1",
          "type": "address"
        }
      ],
      "name": "getDecimals",
      "outputs": [
        {
          "internalType": "uint256",
          "name": "token0Decimals",
          "type": "uint256"
        },
        {
          "internalType": "uint256",
          "name": "token1Decimals",
          "type": "uint256"
        }
      ],
      "stateMutability": "view",
      "type": "function"
    },
    {
      "inputs": [],
      "name": "getMaxTick",
      "outputs": [
        {
          "internalType": "int24",
          "name": "",
          "type": "int24"
        }
      ],
      "stateMutability": "view",
      "type": "function"
    },
    {
      "inputs": [],
      "name": "getMinTick",
      "outputs": [
        {
          "internalType": "int24",
          "name": "",
          "type": "int24"
        }
      ],
      "stateMutability": "view",
      "type": "function"
    },
    {
      "inputs": [
        {
          "internalType": "address",
          "name": "poolAddress",
          "type": "address"
        }
      ],
      "name": "getPriceToken0",
      "outputs": [
        {
          "internalType": "uint256",
          "name": "priceX96",
          "type": "uint256"
        }
      ],
      "stateMutability": "view",
      "type": "function"
    },
    {
      "inputs": [
        {
          "internalType": "address",
          "name": "poolAddress",
          "type": "address"
        }
      ],
      "name": "getPriceToken1",
      "outputs": [
        {
          "internalType": "uint256",
          "name": "priceX96",
          "type": "uint256"
        }
      ],
      "stateMutability": "view",
      "type": "function"
    },
    {
      "inputs": [
        {
          "internalType": "uint160",
          "name": "sqrtPriceX96",
          "type": "uint160"
        }
      ],
      "name": "getPriceX96FromSqrtPriceX96",
      "outputs": [
        {
          "internalType": "uint256",
          "name": "priceX96",
          "type": "uint256"
        }
      ],
      "stateMutability": "view",
      "type": "function"
    },
    {
      "inputs": [
        {
          "internalType": "bytes32",
          "name": "role",
          "type": "bytes32"
        }
      ],
      "name": "getRoleAdmin",
      "outputs": [
        {
          "internalType": "bytes32",
          "name": "",
          "type": "bytes32"
        }
      ],
      "stateMutability": "view",
      "type": "function"
    },
    {
      "inputs": [
        {
          "internalType": "int24",
          "name": "tick",
          "type": "int24"
        }
      ],
      "name": "getSqrtRatioAtTick",
      "outputs": [
        {
          "internalType": "uint160",
          "name": "",
          "type": "uint160"
        }
      ],
      "stateMutability": "pure",
      "type": "function"
    },
    {
      "inputs": [
        {
          "internalType": "uint160",
          "name": "sqrtPriceX96",
          "type": "uint160"
        }
      ],
      "name": "getTickAtSqrtRatio",
      "outputs": [
        {
          "internalType": "int24",
          "name": "",
          "type": "int24"
        }
      ],
      "stateMutability": "pure",
      "type": "function"
    },
    {
      "inputs": [
        {
          "internalType": "bytes32",
          "name": "role",
          "type": "bytes32"
        },
        {
          "internalType": "address",
          "name": "account",
          "type": "address"
        }
      ],
      "name": "grantRole",
      "outputs": [],
      "stateMutability": "nonpayable",
      "type": "function"
    },
    {
      "inputs": [
        {
          "internalType": "bytes32",
          "name": "role",
          "type": "bytes32"
        },
        {
          "internalType": "address",
          "name": "account",
          "type": "address"
        }
      ],
      "name": "hasRole",
      "outputs": [
        {
          "internalType": "bool",
          "name": "",
          "type": "bool"
        }
      ],
      "stateMutability": "view",
      "type": "function"
    },
    {
      "inputs": [],
      "name": "initSqrtPriceX96",
      "outputs": [
        {
          "internalType": "uint160",
          "name": "",
          "type": "uint160"
        }
      ],
      "stateMutability": "view",
      "type": "function"
    },
    {
      "inputs": [],
      "name": "initialTokenPrice",
      "outputs": [
        {
          "internalType": "uint256",
          "name": "",
          "type": "uint256"
        }
      ],
      "stateMutability": "view",
      "type": "function"
    },
    {
      "inputs": [],
      "name": "initialTosPrice",
      "outputs": [
        {
          "internalType": "uint256",
          "name": "",
          "type": "uint256"
        }
      ],
      "stateMutability": "view",
      "type": "function"
    },
    {
      "inputs": [
        {
          "internalType": "uint256",
          "name": "_totalAllocatedAmount",
          "type": "uint256"
        },
        {
          "internalType": "uint256",
          "name": "tosPrice",
          "type": "uint256"
        },
        {
          "internalType": "uint256",
          "name": "tokenPrice",
          "type": "uint256"
        },
        {
          "internalType": "uint160",
          "name": "initSqrtPrice",
          "type": "uint160"
        },
        {
          "internalType": "uint256",
          "name": "_startTime",
          "type": "uint256"
        }
      ],
      "name": "initialize",
      "outputs": [],
      "stateMutability": "nonpayable",
      "type": "function"
    },
    {
      "inputs": [
        {
          "internalType": "address",
          "name": "account",
          "type": "address"
        }
      ],
      "name": "isAdmin",
      "outputs": [
        {
          "internalType": "bool",
          "name": "",
          "type": "bool"
        }
      ],
      "stateMutability": "view",
      "type": "function"
    },
    {
      "inputs": [
        {
          "internalType": "address",
          "name": "account",
          "type": "address"
        }
      ],
      "name": "isProxyAdmin",
      "outputs": [
        {
          "internalType": "bool",
          "name": "",
          "type": "bool"
        }
      ],
      "stateMutability": "view",
      "type": "function"
    },
    {
      "inputs": [],
      "name": "logEventAddress",
      "outputs": [
        {
          "internalType": "address",
          "name": "",
          "type": "address"
        }
      ],
      "stateMutability": "view",
      "type": "function"
    },
    {
      "inputs": [],
      "name": "lpToken",
      "outputs": [
        {
          "internalType": "uint256",
          "name": "",
          "type": "uint256"
        }
      ],
      "stateMutability": "view",
      "type": "function"
    },
    {
      "inputs": [
        {
          "internalType": "uint256",
          "name": "tosAmount",
          "type": "uint256"
        },
        {
          "internalType": "uint8",
          "name": "slippage",
          "type": "uint8"
        },
        {
          "internalType": "int24",
          "name": "curTick",
          "type": "int24"
        }
      ],
      "name": "mint",
      "outputs": [],
      "stateMutability": "nonpayable",
      "type": "function"
    },
    {
      "inputs": [],
      "name": "name",
      "outputs": [
        {
          "internalType": "string",
          "name": "",
          "type": "string"
        }
      ],
      "stateMutability": "view",
      "type": "function"
    },
    {
      "inputs": [],
      "name": "nowClaimRound",
      "outputs": [
        {
          "internalType": "uint256",
          "name": "",
          "type": "uint256"
        }
      ],
      "stateMutability": "view",
      "type": "function"
    },
    {
      "inputs": [],
      "name": "pauseProxy",
      "outputs": [
        {
          "internalType": "bool",
          "name": "",
          "type": "bool"
        }
      ],
      "stateMutability": "view",
      "type": "function"
    },
    {
      "inputs": [],
      "name": "pool",
      "outputs": [
        {
          "internalType": "contract IUniswapV3Pool",
          "name": "",
          "type": "address"
        }
      ],
      "stateMutability": "view",
      "type": "function"
    },
    {
      "inputs": [
        {
          "internalType": "uint256",
          "name": "",
          "type": "uint256"
        }
      ],
      "name": "proxyImplementation",
      "outputs": [
        {
          "internalType": "address",
          "name": "",
          "type": "address"
        }
      ],
      "stateMutability": "view",
      "type": "function"
    },
    {
      "inputs": [],
      "name": "removeAdmin",
      "outputs": [],
      "stateMutability": "nonpayable",
      "type": "function"
    },
    {
      "inputs": [],
      "name": "removeProxyAdmin",
      "outputs": [],
      "stateMutability": "nonpayable",
      "type": "function"
    },
    {
      "inputs": [
        {
          "internalType": "bytes32",
          "name": "role",
          "type": "bytes32"
        },
        {
          "internalType": "address",
          "name": "account",
          "type": "address"
        }
      ],
      "name": "renounceRole",
      "outputs": [],
      "stateMutability": "nonpayable",
      "type": "function"
    },
    {
      "inputs": [
        {
          "internalType": "bytes32",
          "name": "role",
          "type": "bytes32"
        },
        {
          "internalType": "address",
          "name": "account",
          "type": "address"
        }
      ],
      "name": "revokeRole",
      "outputs": [],
      "stateMutability": "nonpayable",
      "type": "function"
    },
    {
      "inputs": [
        {
          "internalType": "bytes4",
          "name": "",
          "type": "bytes4"
        }
      ],
      "name": "selectorImplementation",
      "outputs": [
        {
          "internalType": "address",
          "name": "",
          "type": "address"
        }
      ],
      "stateMutability": "view",
      "type": "function"
    },
    {
      "inputs": [
        {
          "internalType": "bool",
          "name": "_boolReadyToCreatePool",
          "type": "bool"
        }
      ],
      "name": "setBoolReadyToCreatePool",
      "outputs": [],
      "stateMutability": "nonpayable",
      "type": "function"
    },
    {
      "inputs": [],
      "name": "setCreatePool",
      "outputs": [],
      "stateMutability": "nonpayable",
      "type": "function"
    },
    {
      "inputs": [],
      "name": "setPool",
      "outputs": [],
      "stateMutability": "nonpayable",
      "type": "function"
    },
    {
      "inputs": [
        {
          "internalType": "uint160",
          "name": "inSqrtPriceX96",
          "type": "uint160"
        }
      ],
      "name": "setPoolInitialize",
      "outputs": [],
      "stateMutability": "nonpayable",
      "type": "function"
    },
    {
      "inputs": [
        {
          "internalType": "uint256",
          "name": "_startTime",
          "type": "uint256"
        }
      ],
      "name": "setStartTime",
      "outputs": [],
      "stateMutability": "nonpayable",
      "type": "function"
    },
    {
      "inputs": [
        {
          "internalType": "address",
          "name": "tos",
          "type": "address"
        },
        {
          "internalType": "uint24",
          "name": "_fee",
          "type": "uint24"
        }
      ],
      "name": "setTokens",
      "outputs": [],
      "stateMutability": "nonpayable",
      "type": "function"
    },
    {
      "inputs": [
        {
          "internalType": "address",
          "name": "poolfactory",
          "type": "address"
        },
        {
          "internalType": "address",
          "name": "npm",
          "type": "address"
        }
      ],
      "name": "setUniswapInfo",
      "outputs": [],
      "stateMutability": "nonpayable",
      "type": "function"
    },
    {
      "inputs": [],
      "name": "startTime",
      "outputs": [
        {
          "internalType": "uint256",
          "name": "",
          "type": "uint256"
        }
      ],
      "stateMutability": "view",
      "type": "function"
    },
    {
      "inputs": [
        {
          "internalType": "bytes4",
          "name": "interfaceId",
          "type": "bytes4"
        }
      ],
      "name": "supportsInterface",
      "outputs": [
        {
          "internalType": "bool",
          "name": "",
          "type": "bool"
        }
      ],
      "stateMutability": "view",
      "type": "function"
    },
    {
      "inputs": [],
      "name": "tickIntervalMinimum",
      "outputs": [
        {
          "internalType": "int24",
          "name": "",
          "type": "int24"
        }
      ],
      "stateMutability": "view",
      "type": "function"
    },
    {
      "inputs": [],
      "name": "token",
      "outputs": [
        {
          "internalType": "contract IERC20",
          "name": "",
          "type": "address"
        }
      ],
      "stateMutability": "view",
      "type": "function"
    },
    {
      "inputs": [],
      "name": "token0Address",
      "outputs": [
        {
          "internalType": "address",
          "name": "",
          "type": "address"
        }
      ],
      "stateMutability": "view",
      "type": "function"
    },
    {
      "inputs": [],
      "name": "token1Address",
      "outputs": [
        {
          "internalType": "address",
          "name": "",
          "type": "address"
        }
      ],
      "stateMutability": "view",
      "type": "function"
    },
    {
      "inputs": [],
      "name": "totalAllocatedAmount",
      "outputs": [
        {
          "internalType": "uint256",
          "name": "",
          "type": "uint256"
        }
      ],
      "stateMutability": "view",
      "type": "function"
    },
    {
      "inputs": [],
      "name": "totalClaimCounts",
      "outputs": [
        {
          "internalType": "uint256",
          "name": "",
          "type": "uint256"
        }
      ],
      "stateMutability": "view",
      "type": "function"
    },
    {
      "inputs": [],
      "name": "totalClaimsAmount",
      "outputs": [
        {
          "internalType": "uint256",
          "name": "",
          "type": "uint256"
        }
      ],
      "stateMutability": "view",
      "type": "function"
    },
    {
      "inputs": [
        {
          "internalType": "address",
          "name": "newAdmin",
          "type": "address"
        }
      ],
      "name": "transferAdmin",
      "outputs": [],
      "stateMutability": "nonpayable",
      "type": "function"
    },
    {
      "inputs": [
        {
          "internalType": "address",
          "name": "newAdmin",
          "type": "address"
        }
      ],
      "name": "transferProxyAdmin",
      "outputs": [],
      "stateMutability": "nonpayable",
      "type": "function"
    }
  ],
  "bytecode": "0x6080604052600060105534801561001557600080fd5b5060016000556155538061002a6000396000f3fe608060405234801561001057600080fd5b506004361061035b5760003560e01c806355ecf5a8116101ca578063986cfba311610105578063dcd7772e116100a8578063dcd7772e146107c1578063ddca3f43146107c9578063e5225381146107f3578063eab73ca1146107fb578063eb582d1314610813578063ed5131f514610826578063f47f2f1d14610839578063f86464081461084c578063fc0c546a1461085f57600080fd5b8063986cfba31461073e5780639a202d4714610751578063a217fddf14610759578063b911135f14610761578063be72f2d31461078a578063cfc412be14610792578063d547741f1461079b578063d7cb416f146107ae57600080fd5b806378e979251161016d57806378e97925146106b05780637ff36fbe146106b95780638158f0c0146106cc57806381f41eb2146106df5780638356ca4f146106f25780638eee461a1461070557806391d148541461071857806396f1557c1461072b57600080fd5b806355ecf5a81461061a5780635fcbd2851461063c57806363a8fd8914610645578063671884fe14610652578063704802751461065a578063740fcd201461066d57806375829def14610695578063771ff381146106a857600080fd5b8063256019d61161029a578063486a586a1161023d578063486a586a146105655780634dbd31f9146105785780634e09a6101461058b5780634f76c0581461059e57806350d2a276146105b1578063526aef94146105da578063550d01a3146105ee578063556400081461061157600080fd5b8063256019d6146104da5780632ca0228a146104e35780632f2ff15d146104ec57806331e88e10146104ff57806334b38cc31461051257806336568abe1461052a5780633e0a322d1461053d57806341c04d5e1461055057600080fd5b80630a6aae11116103025780630a6aae111461043e5780630f4388c014610447578063117ab8741461045a57806316daa6631461046357806316f0115b1461047e578063248a9ca31461049157806324d7806c146104b4578063251df7a2146104c757600080fd5b806301ffc9a7146103605780630284ec8f146103885780630411b9491461039c5780630446db5d146103bc578063065e5360146103dd57806306fdde03146104075780630724e61c1461041c5780630a59fa0814610431575b600080fd5b61037361036e366004614811565b610872565b60405190151581526020015b60405180910390f35b600a5461037390600160b81b900460ff1681565b6003546103af906001600160a01b031681565b60405161037f9190614b96565b6103cf6103ca3660046146b6565b6108a9565b60405190815260200161037f565b6103e5610b0d565b604080516001600160a01b03909316835260029190910b60208301520161037f565b61040f610cfc565b60405161037f9190614c0f565b61042f61042a3660046146ee565b610d8a565b005b6018546103739060ff1681565b6103cf60085481565b6103cf6104553660046147d5565b610efd565b6103cf60105481565b61046b610f1e565b60405160029190910b815260200161037f565b6005546103af906001600160a01b031681565b6103cf61049f3660046147d5565b60009081526019602052604090206001015490565b6103736104c23660046146b6565b610f4e565b61042f6104d5366004614770565b610f68565b6103cf600f5481565b6103cf60095481565b61042f6104fa3660046147ed565b61111b565b61042f61050d366004614990565b611146565b61051a611435565b60405161037f9493929190614fca565b61042f6105383660046147ed565b6114f8565b61042f61054b3660046147d5565b611576565b6103cf6000805160206154fe83398151915281565b6103cf6105733660046146b6565b61162c565b61042f6105863660046149d8565b6117a3565b6103cf6105993660046146b6565b611a39565b61046b6105ac3660046146b6565b611a53565b6103af6105bf366004614811565b6017602052600090815260409020546001600160a01b031681565b600a5461046b90600160a01b900460020b81565b6103736105fc3660046146b6565b60166020526000908152604090205460ff1681565b6103cf600e5481565b61062d610628366004614726565b611a5e565b60405161037f93929190614bc4565b6103cf600b5481565b6014546103739060ff1681565b61046b611b43565b61042f6106683660046146b6565b611b5a565b61068061067b3660046146ee565b611b9a565b6040805192835260208301919091520161037f565b61042f6106a33660046146b6565b611c8a565b61042f611d3d565b6103cf601a5481565b6006546103af906001600160a01b031681565b61042f6106da3660046146b6565b612153565b600a546103af906001600160a01b031681565b61042f6107003660046146b6565b612329565b61042f61071336600461479d565b6123b3565b6103736107263660046147ed565b612495565b61042f6107393660046146b6565b6124c0565b6103af61074c366004614839565b6124f0565b61042f6124fb565b6103cf600081565b6103af61076f3660046147d5565b6015602052600090815260409020546001600160a01b031681565b61042f612549565b6103cf60115481565b61042f6107a93660046147ed565b612579565b6007546103af906001600160a01b031681565b61042f61259f565b6004546107df90600160a01b900462ffffff1681565b60405162ffffff909116815260200161037f565b61042f6127f0565b6018546103af9061010090046001600160a01b031681565b6004546103af906001600160a01b031681565b6103cf6108343660046147d5565b612a82565b6103736108473660046146b6565b612a92565b6002546103af906001600160a01b031681565b6001546103af906001600160a01b031681565b60006001600160e01b03198216637965db0b60e01b14806108a357506301ffc9a760e01b6001600160e01b03198316145b92915050565b600080826001600160a01b0316633850c7bd6040518163ffffffff1660e01b815260040160e06040518083038186803b1580156108e557600080fd5b505afa1580156108f9573d6000803e3d6000fd5b505050506040513d601f19601f8201168201806040525081019061091d9190614889565b50505050509150506000610a0c846001600160a01b0316630dfe16816040518163ffffffff1660e01b815260040160206040518083038186803b15801561096357600080fd5b505afa158015610977573d6000803e3d6000fd5b505050506040513d601f19601f8201168201806040525081019061099b91906146d2565b856001600160a01b031663d21220a76040518163ffffffff1660e01b815260040160206040518083038186803b1580156109d457600080fd5b505afa1580156109e8573d6000803e3d6000fd5b505050506040513d601f19601f8201168201806040525081019061067b91906146d2565b509050610b0582610a1e83600a615138565b866001600160a01b0316630dfe16816040518163ffffffff1660e01b815260040160206040518083038186803b158015610a5757600080fd5b505afa158015610a6b573d6000803e3d6000fd5b505050506040513d601f19601f82011682018060405250810190610a8f91906146d2565b876001600160a01b031663d21220a76040518163ffffffff1660e01b815260040160206040518083038186803b158015610ac857600080fd5b505afa158015610adc573d6000803e3d6000fd5b505050506040513d601f19601f82011682018060405250810190610b0091906146d2565b612a9e565b949350505050565b60055460009081906001600160a01b0316610c625760035460025460015460048054604051630b4c774160e11b81526000956001600160a01b0390811695631698ee8295610b709591831694921692600160a01b90920462ffffff169101614be7565b60206040518083038186803b158015610b8857600080fd5b505afa158015610b9c573d6000803e3d6000fd5b505050506040513d601f19601f82011682018060405250810190610bc091906146d2565b90506001600160a01b03811615610c5757600080826001600160a01b0316633850c7bd6040518163ffffffff1660e01b815260040160e06040518083038186803b158015610c0d57600080fd5b505afa158015610c21573d6000803e3d6000fd5b505050506040513d601f19601f82011682018060405250810190610c459190614889565b50949a93995092975050505050505050565b506000928392509050565b600080600560009054906101000a90046001600160a01b03166001600160a01b0316633850c7bd6040518163ffffffff1660e01b815260040160e06040518083038186803b158015610cb357600080fd5b505afa158015610cc7573d6000803e3d6000fd5b505050506040513d601f19601f82011682018060405250810190610ceb9190614889565b509499939850929650505050505050565b600d8054610d09906153f5565b80601f0160208091040260200160405190810160405280929190818152602001828054610d35906153f5565b8015610d825780601f10610d5757610100808354040283529160200191610d82565b820191906000526020600020905b815481529060010190602001808311610d6557829003601f168201915b505050505081565b610d9333612a92565b610db85760405162461bcd60e51b8152600401610daf90614d48565b60405180910390fd5b6001600160a01b03821615801590610dde57506003546001600160a01b03838116911614155b610e2a5760405162461bcd60e51b815260206004820152601d60248201527f7a65726f206f722073616d6520556e69737761705633466163746f72790000006044820152606401610daf565b6001600160a01b03811615801590610e5057506004546001600160a01b03828116911614155b610e8f5760405162461bcd60e51b815260206004820152601060248201526f7a65726f206f722073616d65206e706d60801b6044820152606401610daf565b600380546001600160a01b038085166001600160a01b03199283161790925560048054928416929091169190911790556040517f5fc0ec65c13a954263aac9f4f69b985fb5882ef912527cb4010c8ffd07be617290610ef19084908490614baa565b60405180910390a15050565b60138181548110610f0d57600080fd5b600091825260209091200154905081565b600c5460009060020b80610f35620d89e719615444565b610f3f9190615086565b610f4991906151e0565b905090565b60006108a36000805160206154fe83398151915283612495565b610f7133612a92565b610f8d5760405162461bcd60e51b8152600401610daf90614d48565b600a54600160b81b900460ff1615610fb75760405162461bcd60e51b8152600401610daf90614e8d565b6001600160a01b03821615801590610fdd57506002546001600160a01b03838116911614155b6110145760405162461bcd60e51b815260206004820152600860248201526773616d6520746f7360c01b6044820152606401610daf565b600280546001600160a01b0319166001600160a01b0384161790556004805462ffffff60a01b1916600160a01b62ffffff84811682029290921792839055909104166101f4141561107357600c805462ffffff1916600a1790556110c7565b600454600160a01b900462ffffff16610bb8141561109f57600c805462ffffff1916603c1790556110c7565b600454600160a01b900462ffffff1661271014156110c757600c805462ffffff191660c81790555b600c54604080516001600160a01b038516815262ffffff84166020820152600292830b90920b908201527fa5edbc8e8d441c0b1b4f4791110f6ba4ea2e5feaee81d0c3ac25ac9011cf1e3190606001610ef1565b6000828152601960205260409020600101546111378133612ba7565b6111418383612c0b565b505050565b61114f33610f4e565b8061115e575061115e33612a92565b61117a5760405162461bcd60e51b8152600401610daf90614ca6565b6003546001600160a01b03161580159061119e57506004546001600160a01b031615155b80156111b457506002546001600160a01b031615155b6111d05760405162461bcd60e51b8152600401610daf90614e5b565b6001600160a01b0382161561121d5760405162461bcd60e51b8152602060048201526013602482015272185b1c9958591e481a5b9a5d1a585b1a5e9959606a1b6044820152606401610daf565b6001546040516370a0823160e01b81526001600160a01b03909116906370a082319061124d903090600401614b96565b60206040518083038186803b15801561126557600080fd5b505afa158015611279573d6000803e3d6000fd5b505050506040513d601f19601f8201168201806040525081019061129d919061491a565b8511156112e65760405162461bcd60e51b81526020600482015260176024820152763732b2b2103a379034b7383aba103a3432903a37b5b2b760491b6044820152606401610daf565b6000841180156112f65750600083115b801561130b57506000826001600160a01b0316115b61137d5760405162461bcd60e51b815260206004820152603c60248201527f7a65726f20746f735072696365206f7220746f6b656e5072696365206f72206960448201527f6e6974537172745072696365583936206f7220737461727454696d65000000006064820152608401610daf565b600e85905560088490556009839055600a80546001600160a01b0319166001600160a01b038416179055601a546113b390611576565b6040518581527fbe9b076dc5b65990cca9dd9d7366682482e7817a6f6bc7f4faf4dc32af497f329060200160405180910390a160408051858152602081018590526001600160a01b0384168183015290517fc6bad1b6d2fd191de5848ad7eaaf2ddc559c9b96622381e15bd4b2f1175d1cb79181900360600190a15050505050565b60006060806000600f54601260136010548280548060200260200160405190810160405280929190818152602001828054801561149157602002820191906000526020600020905b81548152602001906001019080831161147d575b50505050509250818054806020026020016040519081016040528092919081815260200182805480156114e357602002820191906000526020600020905b8154815260200190600101908083116114cf575b50505050509150935093509350935090919293565b6001600160a01b03811633146115685760405162461bcd60e51b815260206004820152602f60248201527f416363657373436f6e74726f6c3a2063616e206f6e6c792072656e6f756e636560448201526e103937b632b9903337b91039b2b63360891b6064820152608401610daf565b6115728282612c91565b5050565b61157f33610f4e565b8061158e575061158e33612a92565b6115aa5760405162461bcd60e51b8152600401610daf90614ca6565b4281116115f05760405162461bcd60e51b815260206004820152601460248201527314dd185c9d151a5b59481a185cc81c185cdcd95960621b6044820152606401610daf565b601a8190556040518181527f191dde3e99ae398f28f0457d7346866a4fa04805ac0b57190b944935b5aa7550906020015b60405180910390a150565b600080826001600160a01b0316633850c7bd6040518163ffffffff1660e01b815260040160e06040518083038186803b15801561166857600080fd5b505afa15801561167c573d6000803e3d6000fd5b505050506040513d601f19601f820116820180604052508101906116a09190614889565b505050505091505060006116e6846001600160a01b0316630dfe16816040518163ffffffff1660e01b815260040160206040518083038186803b15801561096357600080fd5b9150610b059050826116f983600a615138565b866001600160a01b031663d21220a76040518163ffffffff1660e01b815260040160206040518083038186803b15801561173257600080fd5b505afa158015611746573d6000803e3d6000fd5b505050506040513d601f19601f8201168201806040525081019061176a91906146d2565b876001600160a01b0316630dfe16816040518163ffffffff1660e01b815260040160206040518083038186803b158015610ac857600080fd5b600a54600160b81b900460ff166117cc5760405162461bcd60e51b8152600401610daf90614df3565b600260005414156117ef5760405162461bcd60e51b8152600401610daf90614ecf565b60026000556005546001600160a01b03168061181d5760405162461bcd60e51b8152600401610daf90614c42565b6006546001600160a01b0316806118465760405162461bcd60e51b8152600401610daf90614c42565b6007546001600160a01b03168061186f5760405162461bcd60e51b8152600401610daf90614c42565b60008560ff161180156118865750600a8560ff1611155b6118d25760405162461bcd60e51b815260206004820152601b60248201527f4974206973206e6f7420616c6c6f77656420736c6970706167652e00000000006044820152606401610daf565b600080600560009054906101000a90046001600160a01b03166001600160a01b0316633850c7bd6040518163ffffffff1660e01b815260040160e06040518083038186803b15801561192357600080fd5b505afa158015611937573d6000803e3d6000fd5b505050506040513d601f19601f8201168201806040525081019061195b9190614889565b5050505050915091506000826001600160a01b0316116119b75760405162461bcd60e51b81526020600482015260176024820152761c1bdbdb081a5cc81b9bdd081a5b9a5d1a585b1a5e9959604a1b6044820152606401610daf565b8560020b8160020b14611a085760405162461bcd60e51b815260206004820152601960248201527830b63932b0b23c903a34b1b5903bb0b99031b430b733b2b21760391b6044820152606401610daf565b600b54611a1f57611a1a888884612cf8565b611a2a565b611a2a88888461319b565b50506001600055505050505050565b60006108a36001600160a01b03831680600160601b61373e565b60006108a382613808565b600083837fe34f199b19b2b4f47f68442619d555527d244f78a3297ea89325f843f87b8b546001600160a01b038083169084161115611a9e578592508691505b6003546040516001600160a01b0390911690611ac290859085908990602001614be7565b6040516020818303038152906040528051906020012082604051602001611b1e939291906001600160f81b0319815260609390931b6bffffffffffffffffffffffff191660018401526015830191909152603582015260550190565b6040516020818303038152906040528051906020012060001c93505093509350939050565b600c5460009060020b610f3f81620d89e719615086565b611b6333612a92565b611b7f5760405162461bcd60e51b8152600401610daf90614d48565b611b976000805160206154fe8339815191528261111b565b50565b600080836001600160a01b031663313ce5676040518163ffffffff1660e01b815260040160206040518083038186803b158015611bd657600080fd5b505afa158015611bea573d6000803e3d6000fd5b505050506040513d601f19601f82011682018060405250810190611c0e919061491a565b836001600160a01b031663313ce5676040518163ffffffff1660e01b815260040160206040518083038186803b158015611c4757600080fd5b505afa158015611c5b573d6000803e3d6000fd5b505050506040513d601f19601f82011682018060405250810190611c7f919061491a565b915091509250929050565b611c9333610f4e565b80611ca25750611ca233612a92565b611cbe5760405162461bcd60e51b8152600401610daf90614ca6565b6001600160a01b038116611ce45760405162461bcd60e51b8152600401610daf90614ce8565b336001600160a01b0382161415611d0d5760405162461bcd60e51b8152600401610daf90614d90565b611d256000805160206154fe8339815191528261111b565b611b976000805160206154fe833981519152336114f8565b6003546001600160a01b031615801590611d6157506004546001600160a01b031615155b8015611d7757506002546001600160a01b031615155b611d935760405162461bcd60e51b8152600401610daf90614e5b565b600a54600160b81b900460ff16611dbc5760405162461bcd60e51b8152600401610daf90614df3565b6000601a54118015611dcf575042601a54105b611e175760405162461bcd60e51b815260206004820152601960248201527829ba30b93a2a34b6b2903430b9903737ba103830b9b9b2b21760391b6044820152606401610daf565b60035460025460015460048054604051630b4c774160e11b81526000956001600160a01b0390811695631698ee8295611e659591831694921692600160a01b90920462ffffff169101614be7565b60206040518083038186803b158015611e7d57600080fd5b505afa158015611e91573d6000803e3d6000fd5b505050506040513d601f19601f82011682018060405250810190611eb591906146d2565b90506001600160a01b038116611fb2576003546002546001546004805460405163a167129560e01b81526000956001600160a01b039081169563a167129595611f139591831694921692600160a01b90920462ffffff169101614be7565b602060405180830381600087803b158015611f2d57600080fd5b505af1158015611f41573d6000803e3d6000fd5b505050506040513d601f19601f82011682018060405250810190611f6591906146d2565b90506001600160a01b038116611faf5760405162461bcd60e51b815260206004820152600f60248201526e18dc99585d19541bdbdb0819985a5b608a1b6044820152606401610daf565b90505b600580546001600160a01b0319166001600160a01b03831690811790915560408051630dfe168160e01b81529051630dfe168191600480820192602092909190829003018186803b15801561200657600080fd5b505afa15801561201a573d6000803e3d6000fd5b505050506040513d601f19601f8201168201806040525081019061203e91906146d2565b600680546001600160a01b0319166001600160a01b039283161790556005546040805163d21220a760e01b81529051919092169163d21220a7916004808301926020929190829003018186803b15801561209757600080fd5b505afa1580156120ab573d6000803e3d6000fd5b505050506040513d601f19601f820116820180604052508101906120cf91906146d2565b600780546001600160a01b0319166001600160a01b03928316179055600a54161561210957600a54612109906001600160a01b0316612153565b6005546006546007546040517f87686ebed73b2bf2a483156cdc52a73ebd37e11a1e0adb90f09e4216e0dd541593611621936001600160a01b039182169390821692911690614bc4565b6005546001600160a01b03168061217c5760405162461bcd60e51b8152600401610daf90614c42565b600a54600160b81b900460ff166121a55760405162461bcd60e51b8152600401610daf90614df3565b6000826001600160a01b0316116121f45760405162461bcd60e51b81526020600482015260136024820152723d32b9379034b729b8b93a283934b1b2ac1c9b60691b6044820152606401610daf565b60055460408051633850c7bd60e01b815290516000926001600160a01b031691633850c7bd9160048083019260e0929190829003018186803b15801561223957600080fd5b505afa15801561224d573d6000803e3d6000fd5b505050506040513d601f19601f820116820180604052508101906122719190614889565b5050505050509050806001600160a01b0316600014156111415760055460405163f637731d60e01b81526001600160a01b039091169063f637731d906122bb908690600401614b96565b600060405180830381600087803b1580156122d557600080fd5b505af11580156122e9573d6000803e3d6000fd5b505050507fd4a3cdac99f6deac6f6631c09a884550f28be2e33585b71c2b777ebdc6bcc4828360405161231c9190614b96565b60405180910390a1505050565b61233233612a92565b61234e5760405162461bcd60e51b8152600401610daf90614d48565b6001600160a01b0381166123745760405162461bcd60e51b8152600401610daf90614ce8565b336001600160a01b038216141561239d5760405162461bcd60e51b8152600401610daf90614d90565b6123a860008261111b565b611b976000336114f8565b6123bc33610f4e565b806123cb57506123cb33612a92565b6123e75760405162461bcd60e51b8152600401610daf90614ca6565b600a5460ff600160b81b90910416151581151514156124485760405162461bcd60e51b815260206004820152601a60248201527f73616d6520626f6f6c5265616479546f437265617465506f6f6c0000000000006044820152606401610daf565b600a8054821515600160b81b0260ff60b81b199091161790556040517fb617cf12ee2262dc406f2998cca847640b8b72357f6032b86e6821ccd05a896b9061162190831515815260200190565b60009182526019602090815260408084206001600160a01b0393909316845291905290205460ff1690565b6124c933612a92565b6124e55760405162461bcd60e51b8152600401610daf90614d48565b611b97600082613b42565b60006108a382613b4c565b61250433610f4e565b80612513575061251333612a92565b61252f5760405162461bcd60e51b8152600401610daf90614ca6565b6125476000805160206154fe833981519152336114f8565b565b61255233612a92565b61256e5760405162461bcd60e51b8152600401610daf90614d48565b6125476000336114f8565b6000828152601960205260409020600101546125958133612ba7565b6111418383612c91565b600a54600160b81b900460ff16156125c95760405162461bcd60e51b8152600401610daf90614e8d565b600a546001600160a01b03166126195760405162461bcd60e51b81526020600482015260156024820152743d32b9379034b734ba29b8b93a283934b1b2ac1c9b60591b6044820152606401610daf565b61262360016123b3565b61262b611d3d565b60035460025460015460048054604051630b4c774160e11b81526000956001600160a01b0390811695631698ee82956126799591831694921692600160a01b90920462ffffff169101614be7565b60206040518083038186803b15801561269157600080fd5b505afa1580156126a5573d6000803e3d6000fd5b505050506040513d601f19601f820116820180604052508101906126c991906146d2565b6005549091506001600160a01b038083169116146127225760405162461bcd60e51b8152602060048201526016602482015275646966666572656e7420706f6f6c206164647265737360501b6044820152606401610daf565b60055460408051633850c7bd60e01b815290516000926001600160a01b031691633850c7bd9160048083019260e0929190829003018186803b15801561276757600080fd5b505afa15801561277b573d6000803e3d6000fd5b505050506040513d601f19601f8201168201806040525081019061279f9190614889565b50505050505090506000816001600160a01b0316116115725760405162461bcd60e51b815260206004820152600d60248201526c7072696365206973207a65726f60981b6044820152606401610daf565b6005546001600160a01b0316806128195760405162461bcd60e51b8152600401610daf90614c42565b6002600054141561283c5760405162461bcd60e51b8152600401610daf90614ecf565b6002600055600b546128605760405162461bcd60e51b8152600401610daf90614d1a565b60048054600b5460405163133f757160e31b81529283015260009182916001600160a01b0316906399fbab88906024016101806040518083038186803b1580156128a957600080fd5b505afa1580156128bd573d6000803e3d6000fd5b505050506040513d601f19601f820116820180604052508101906128e19190614a0e565b9b509b50505050505050505050506000826001600160801b0316118061291057506000816001600160801b0316115b61295c5760405162461bcd60e51b815260206004820152601e60248201527f7468657265206973206e6f20636f6c6c65637461626c6520616d6f756e7400006044820152606401610daf565b6004805460408051608081018252600b54815230602082019081526001600160801b0387811683850190815287821660608501908152945163fc6f786560e01b815293519684019690965290516001600160a01b039081166024840152945181166044830152915190911660648201526000928392169063fc6f7865906084016040805180830381600087803b1580156129f557600080fd5b505af1158015612a09573d6000803e3d6000fd5b505050506040513d601f19601f82011682018060405250810190612a2d919061496d565b91509150600b547f59943dc7329fdfb15044f95cef4cae4efe6e3b1b8a4e0858bf7f7f3515090f358383604051612a6e929190918252602082015260400190565b60405180910390a250506001600055505050565b60128181548110610f0d57600080fd5b60006108a38183612495565b600080612aaa86613b4c565b90506001600160801b036001600160a01b03821611612b30576000612ad86001600160a01b03831680615316565b9050836001600160a01b0316856001600160a01b031610612b1057612b0b600160c01b876001600160801b03168361373e565b612b28565b612b2881876001600160801b0316600160c01b61373e565b925050612b9e565b6000612b4a6001600160a01b03831680600160401b61373e565b9050836001600160a01b0316856001600160a01b031610612b8257612b7d600160801b876001600160801b03168361373e565b612b9a565b612b9a81876001600160801b0316600160801b61373e565b9250505b50949350505050565b612bb18282612495565b61157257612bc9816001600160a01b03166014613f57565b612bd4836020613f57565b604051602001612be5929190614b27565b60408051601f198184030181529082905262461bcd60e51b8252610daf91600401614c0f565b612c158282612495565b6115725760008281526019602090815260408083206001600160a01b03851684529091529020805460ff19166001179055612c4d3390565b6001600160a01b0316816001600160a01b0316837f2f8788117e7eff1d82e926ec794901d17c78024a50270940304540a733656f0d60405160405180910390a45050565b612c9b8282612495565b156115725760008281526019602090815260408083206001600160a01b0385168085529252808320805460ff1916905551339285917ff6391f5c32d9c69d2a47ea670b442974b53935d1edc7fd64eb21e047a839171b9190a45050565b600b5415612d395760405162461bcd60e51b815260206004820152600e60248201526d185b1c9958591e481b5a5b9d195960921b6044820152606401610daf565b6002546040516370a0823160e01b81526000916001600160a01b0316906370a0823190612d6a903090600401614b96565b60206040518083038186803b158015612d8257600080fd5b505afa158015612d96573d6000803e3d6000fd5b505050506040513d601f19601f82011682018060405250810190612dba919061491a565b6001546040516370a0823160e01b81529192506000916001600160a01b03909116906370a0823190612df0903090600401614b96565b60206040518083038186803b158015612e0857600080fd5b505afa158015612e1c573d6000803e3d6000fd5b505050506040513d601f19601f82011682018060405250810190612e40919061491a565b9050670de0b6b3a7640000821180612e5f5750670de0b6b3a764000081115b612e7b5760405162461bcd60e51b8152600401610daf90614e2a565b81851115612e9b5760405162461bcd60e51b8152600401610daf90614dc0565b6002546006546000918291829182916001600160a01b03908116911614612f2357600554670de0b6b3a764000090612edb906001600160a01b031661162c565b612ee5908b615316565b612eef91906150e1565b915088905084821115612f145760405162461bcd60e51b8152600401610daf90614c6f565b612f1e8183614139565b612f85565b600554899250670de0b6b3a764000090612f45906001600160a01b03166108a9565b612f4f908b615316565b612f5991906150e1565b905084811115612f7b5760405162461bcd60e51b8152600401610daf90614c6f565b612f858282614139565b876000612f9189611a39565b90506064612fa260ff8c1686615316565b612fac91906150e1565b95506064612fbd60ff8c1685615316565b612fc791906150e1565b94506000612fd3611b43565b90506000612fdf610f1e565b60045460408051610160810182526006546001600160a01b0390811682526007548116602083015262ffffff600160a01b85041692820192909252600286810b606083015284900b608082015260a081018a905260c0810189905260e081018c905261010081018b9052306101208201529293506000928392839283929116906388316456906101408101613076426103e861506e565b8152506040518263ffffffff1660e01b81526004016130959190614f06565b608060405180830381600087803b1580156130af57600080fd5b505af11580156130c3573d6000803e3d6000fd5b505050506040513d601f19601f820116820180604052508101906130e79190614932565b9350935093509350600084116131315760405162461bcd60e51b815260206004820152600f60248201526e746f6b656e4964206973207a65726f60881b6044820152606401610daf565b600b849055604080518581526001600160801b03851660208201529081018390526060810182905233907f7e4faa9ec81dd9000071b6dbc47dedaad9cd0745b9f0243f2b474b916f6229f39060800160405180910390a25050505050505050505050505050505050565b6000600b54116131bd5760405162461bcd60e51b8152600401610daf90614d1a565b6002546040516370a0823160e01b81526000916001600160a01b0316906370a08231906131ee903090600401614b96565b60206040518083038186803b15801561320657600080fd5b505afa15801561321a573d6000803e3d6000fd5b505050506040513d601f19601f8201168201806040525081019061323e919061491a565b6001546040516370a0823160e01b81529192506000916001600160a01b03909116906370a0823190613274903090600401614b96565b60206040518083038186803b15801561328c57600080fd5b505afa1580156132a0573d6000803e3d6000fd5b505050506040513d601f19601f820116820180604052508101906132c4919061491a565b9050670de0b6b3a76400008211806132e35750670de0b6b3a764000081115b6132ff5760405162461bcd60e51b8152600401610daf90614e2a565b8185111561331f5760405162461bcd60e51b8152600401610daf90614dc0565b6002546006546000918291829182916001600160a01b039081169116146133a757600554670de0b6b3a76400009061335f906001600160a01b031661162c565b613369908b615316565b61337391906150e1565b9150889050848211156133985760405162461bcd60e51b8152600401610daf90614c6f565b6133a28183614139565b613409565b600554899250670de0b6b3a7640000906133c9906001600160a01b03166108a9565b6133d3908b615316565b6133dd91906150e1565b9050848111156133ff5760405162461bcd60e51b8152600401610daf90614c6f565b6134098282614139565b87600061341589611a39565b9050606461342660ff8c1686615316565b61343091906150e1565b9550606461344160ff8c1685615316565b61344b91906150e1565b94506000806000600460009054906101000a90046001600160a01b03166001600160a01b031663219f5d176040518060c00160405280600b5481526020018a81526020018981526020018c81526020018b8152602001426103e86134af919061506e565b9052604080516001600160e01b031960e085901b1681528251600482015260208301516024820152908201516044820152606082015160648201526080820151608482015260a09091015160a482015260c401606060405180830381600087803b15801561351c57600080fd5b505af1158015613530573d6000803e3d6000fd5b505050506040513d601f19601f820116820180604052508101906135549190614855565b925092509250600080600560009054906101000a90046001600160a01b03166001600160a01b0316633850c7bd6040518163ffffffff1660e01b815260040160e06040518083038186803b1580156135ab57600080fd5b505afa1580156135bf573d6000803e3d6000fd5b505050506040513d601f19601f820116820180604052508101906135e39190614889565b50505050509150915060006135f783611a39565b905060006103e860c861360d60ff8c16836152ec565b61361791906150c0565b613623906103e8615374565b6136319061ffff168a615316565b61363b91906150e1565b905060006103e860c861365160ff8d16836152ec565b61365b91906150c0565b613667906103e8615048565b6136759061ffff168b615316565b61367f91906150e1565b905082821115801561369057508083105b6136dc5760405162461bcd60e51b815260206004820152601d60248201527f6f7574206f662061636365707461626c652070726963652072616e67650000006044820152606401610daf565b600b54604080516001600160801b038b168152602081018a90529081018890527fa88ed384c96385e07d5f3ba9385866f17995177886d1a5601601d8c8d69872519060600160405180910390a250505050505050505050505050505050505050565b600080821161374c57600080fd5b600080600019858709858702925082811083820303915050806000141561377857508290049050613801565b80841161378457600080fd5b6000848688098084039381119092039190506000856137a581600019615397565b6137b090600161506e565b16958690049560026003880281188089028203028089028203028089028203028089028203028089028203028089029091030260008290038290046001019490940294049390931791909102925050505b9392505050565b60006401000276a36001600160a01b03831610801590613844575073fffd8963efd1fc6a506488495d951d5263988d266001600160a01b038316105b6138745760405162461bcd60e51b81526020600482015260016024820152602960f91b6044820152606401610daf565b640100000000600160c01b03602083901b166001600160801b03811160071b81811c67ffffffffffffffff811160061b90811c63ffffffff811160051b90811c61ffff811160041b90811c60ff8111600390811b91821c600f811160021b90811c918211600190811b92831c9790881196179094179092171790911717176080811061390f57613905607f82615397565b83901c9150613920565b61391a81607f615397565b83901b91505b6000604061392f608084615335565b901b9050828302607f1c92508260801c80603f1b8217915083811c935050828302607f1c92508260801c80603e1b8217915083811c935050828302607f1c92508260801c80603d1b8217915083811c935050828302607f1c92508260801c80603c1b8217915083811c935050828302607f1c92508260801c80603b1b8217915083811c935050828302607f1c92508260801c80603a1b8217915083811c935050828302607f1c92508260801c8060391b8217915083811c935050828302607f1c92508260801c8060381b8217915083811c935050828302607f1c92508260801c8060371b8217915083811c935050828302607f1c92508260801c8060361b8217915083811c935050828302607f1c92508260801c8060351b8217915083811c935050828302607f1c92508260801c8060341b8217915083811c935050828302607f1c92508260801c8060331b8217915083811c935050828302607f1c92508260801c8060321b8217915050600081693627a301d71055774c85613ab29190615269565b905060006080613ad26f028f6481ab7f045a5af012a19d003aaa84615335565b901d905060006080613af4846fdb2df09e81959a81455e260799a0632f615007565b901d90508060020b8260020b14613b3357886001600160a01b0316613b1882613b4c565b6001600160a01b03161115613b2d5781613b35565b80613b35565b815b9998505050505050505050565b6115728282612c0b565b60008060008360020b12613b63578260020b613b70565b8260020b613b7090615465565b9050613b7f620d89e719615444565b60020b811115613bb55760405162461bcd60e51b81526020600482015260016024820152601560fa1b6044820152606401610daf565b600060018216613bc957600160801b613bdb565b6ffffcb933bd6fad37aa2d162d1a5940015b6001600160881b031690506002821615613c10576080613c0b826ffff97272373d413259a46990580e213a615316565b901c90505b6004821615613c3a576080613c35826ffff2e50f5f656932ef12357cf3c7fdcc615316565b901c90505b6008821615613c64576080613c5f826fffe5caca7e10e4e61c3624eaa0941cd0615316565b901c90505b6010821615613c8e576080613c89826fffcb9843d60f6159c9db58835c926644615316565b901c90505b6020821615613cb8576080613cb3826fff973b41fa98c081472e6896dfb254c0615316565b901c90505b6040821615613ce2576080613cdd826fff2ea16466c96a3843ec78b326b52861615316565b901c90505b6080821615613d0c576080613d07826ffe5dee046a99a2a811c461f1969c3053615316565b901c90505b610100821615613d37576080613d32826ffcbe86c7900a88aedcffc83b479aa3a4615316565b901c90505b610200821615613d62576080613d5d826ff987a7253ac413176f2b074cf7815e54615316565b901c90505b610400821615613d8d576080613d88826ff3392b0822b70005940c7a398e4b70f3615316565b901c90505b610800821615613db8576080613db3826fe7159475a2c29b7443b29c7fa6e889d9615316565b901c90505b611000821615613de3576080613dde826fd097f3bdfd2022b8845ad8f792aa5825615316565b901c90505b612000821615613e0e576080613e09826fa9f746462d870fdf8a65dc1f90e061e5615316565b901c90505b614000821615613e39576080613e34826f70d869a156d2a1b890bb3df62baf32f7615316565b901c90505b618000821615613e64576080613e5f826f31be135f97d08fd981231505542fcfa6615316565b901c90505b62010000821615613e90576080613e8b826f09aa508b5b7a84e1c677de54f3e99bc9615316565b901c90505b62020000821615613ebb576080613eb6826e5d6af8dedb81196699c329225ee604615316565b901c90505b62040000821615613ee5576080613ee0826d2216e584f5fa1ea926041bedfe98615316565b901c90505b62080000821615613f0d576080613f08826b048a170391f7dc42444e8fa2615316565b901c90505b60008460020b1315613f2857613f25816000196150e1565b90505b613f3764010000000082615430565b15613f43576001613f46565b60005b610b059060ff16602083901c61506e565b60606000613f66836002615316565b613f7190600261506e565b67ffffffffffffffff811115613f9757634e487b7160e01b600052604160045260246000fd5b6040519080825280601f01601f191660200182016040528015613fc1576020820181803683370190505b509050600360fc1b81600081518110613fea57634e487b7160e01b600052603260045260246000fd5b60200101906001600160f81b031916908160001a905350600f60fb1b8160018151811061402757634e487b7160e01b600052603260045260246000fd5b60200101906001600160f81b031916908160001a905350600061404b846002615316565b61405690600161506e565b90505b60018111156140ea576f181899199a1a9b1b9c1cb0b131b232b360811b85600f166010811061409857634e487b7160e01b600052603260045260246000fd5b1a60f81b8282815181106140bc57634e487b7160e01b600052603260045260246000fd5b60200101906001600160f81b031916908160001a90535060049490941c936140e3816153de565b9050614059565b5083156138015760405162461bcd60e51b815260206004820181905260248201527f537472696e67733a20686578206c656e67746820696e73756666696369656e746044820152606401610daf565b6002546040516370a0823160e01b815283916001600160a01b0316906370a0823190614169903090600401614b96565b60206040518083038186803b15801561418157600080fd5b505afa158015614195573d6000803e3d6000fd5b505050506040513d601f19601f820116820180604052508101906141b9919061491a565b10156141fe5760405162461bcd60e51b81526020600482015260146024820152733a37b99034b99034b739bab33334b1b4b2b73a1760611b6044820152606401610daf565b6001546040516370a0823160e01b815282916001600160a01b0316906370a082319061422e903090600401614b96565b60206040518083038186803b15801561424657600080fd5b505afa15801561425a573d6000803e3d6000fd5b505050506040513d601f19601f8201168201806040525081019061427e919061491a565b10156142c55760405162461bcd60e51b81526020600482015260166024820152753a37b5b2b71034b99034b739bab33334b1b4b2b73a1760511b6044820152606401610daf565b60025460048054604051636eb1769f60e11b81526001600160a01b039384169363dd62ed3e936142fa93309392169101614baa565b60206040518083038186803b15801561431257600080fd5b505afa158015614326573d6000803e3d6000fd5b505050506040513d601f19601f8201168201806040525081019061434a919061491a565b8211156144955760025460048054604080516318160ddd60e01b815290516001600160a01b039485169463095ea7b39493169285926318160ddd9281830192602092829003018186803b1580156143a057600080fd5b505afa1580156143b4573d6000803e3d6000fd5b505050506040513d601f19601f820116820180604052508101906143d8919061491a565b6040516001600160e01b031960e085901b1681526001600160a01b0390921660048301526024820152604401602060405180830381600087803b15801561441e57600080fd5b505af1158015614432573d6000803e3d6000fd5b505050506040513d601f19601f8201168201806040525081019061445691906147b9565b6144955760405162461bcd60e51b815260206004820152601060248201526f1513d4c8185c1c1c9bdd994819985a5b60821b6044820152606401610daf565b60015460048054604051636eb1769f60e11b81526001600160a01b039384169363dd62ed3e936144ca93309392169101614baa565b60206040518083038186803b1580156144e257600080fd5b505afa1580156144f6573d6000803e3d6000fd5b505050506040513d601f19601f8201168201806040525081019061451a919061491a565b8111156115725760015460048054604080516318160ddd60e01b815290516001600160a01b039485169463095ea7b39493169285926318160ddd9281830192602092829003018186803b15801561457057600080fd5b505afa158015614584573d6000803e3d6000fd5b505050506040513d601f19601f820116820180604052508101906145a8919061491a565b6040516001600160e01b031960e085901b1681526001600160a01b0390921660048301526024820152604401602060405180830381600087803b1580156145ee57600080fd5b505af1158015614602573d6000803e3d6000fd5b505050506040513d601f19601f8201168201806040525081019061462691906147b9565b6115725760405162461bcd60e51b81526020600482015260126024820152711d1bdad95b88185c1c1c9bdd994819985a5b60721b6044820152606401610daf565b8051614672816154ab565b919050565b8051614672816154ce565b80516001600160801b038116811461467257600080fd5b805161ffff8116811461467257600080fd5b8051614672816154dd565b6000602082840312156146c7578081fd5b8135613801816154ab565b6000602082840312156146e3578081fd5b8151613801816154ab565b60008060408385031215614700578081fd5b823561470b816154ab565b9150602083013561471b816154ab565b809150509250929050565b60008060006060848603121561473a578081fd5b8335614745816154ab565b92506020840135614755816154ab565b91506040840135614765816154dd565b809150509250925092565b60008060408385031215614782578182fd5b823561478d816154ab565b9150602083013561471b816154dd565b6000602082840312156147ae578081fd5b8135613801816154c0565b6000602082840312156147ca578081fd5b8151613801816154c0565b6000602082840312156147e6578081fd5b5035919050565b600080604083850312156147ff578182fd5b82359150602083013561471b816154ab565b600060208284031215614822578081fd5b81356001600160e01b031981168114613801578182fd5b60006020828403121561484a578081fd5b8135613801816154ce565b600080600060608486031215614869578081fd5b61487284614682565b925060208401519150604084015190509250925092565b600080600080600080600060e0888a0312156148a3578485fd5b87516148ae816154ab565b60208901519097506148bf816154ce565b95506148cd60408901614699565b94506148db60608901614699565b93506148e960808901614699565b925060a08801516148f9816154ee565b60c089015190925061490a816154c0565b8091505092959891949750929550565b60006020828403121561492b578081fd5b5051919050565b60008060008060808587031215614947578182fd5b8451935061495760208601614682565b6040860151606090960151949790965092505050565b6000806040838503121561497f578182fd5b505080516020909101519092909150565b600080600080600060a086880312156149a7578283fd5b85359450602086013593506040860135925060608601356149c7816154ab565b949793965091946080013592915050565b6000806000606084860312156149ec578081fd5b8335925060208401356149fe816154ee565b91506040840135614765816154ce565b6000806000806000806000806000806000806101808d8f031215614a30578586fd5b8c516bffffffffffffffffffffffff81168114614a4b578687fd5b9b50614a5960208e01614667565b9a50614a6760408e01614667565b9950614a7560608e01614667565b9850614a8360808e016146ab565b9750614a9160a08e01614677565b9650614a9f60c08e01614677565b9550614aad60e08e01614682565b94506101008d015193506101208d01519250614acc6101408e01614682565b9150614adb6101608e01614682565b90509295989b509295989b509295989b565b6000815180845260208085019450808401835b83811015614b1c57815187529582019590820190600101614b00565b509495945050505050565b76020b1b1b2b9b9a1b7b73a3937b61d1030b1b1b7bab73a1604d1b815260008351614b598160178501602088016153ae565b7001034b99036b4b9b9b4b733903937b6329607d1b6017918401918201528351614b8a8160288401602088016153ae565b01602801949350505050565b6001600160a01b0391909116815260200190565b6001600160a01b0392831681529116602082015260400190565b6001600160a01b0393841681529183166020830152909116604082015260600190565b6001600160a01b03938416815291909216602082015262ffffff909116604082015260600190565b6020815260008251806020840152614c2e8160408501602087016153ae565b601f01601f19169190910160400192915050565b6020808252601390820152725661756c743a207a65726f206164647265737360681b604082015260600190565b6020808252601c908201527f746f6b656e42616c616e636520697320696e73756666696369656e7400000000604082015260600190565b60208082526022908201527f41636365737369626c653a2043616c6c6572206973206e6f7420616e2061646d60408201526134b760f11b606082015260800190565b60208082526018908201527741636365737369626c653a207a65726f206164647265737360401b604082015260600190565b602080825260149082015273125d081a5cc81b9bdd081b5a5b9d1959081e595d60621b604082015260600190565b60208082526028908201527f41636365737369626c653a2043616c6c6572206973206e6f7420616e2070726f6040820152673c3c9030b236b4b760c11b606082015260800190565b60208082526016908201527520b1b1b2b9b9b4b136329d1039b0b6b29030b236b4b760511b604082015260600190565b6020808252601990820152781d1bd0985b185b98d9481a5cc81a5b9cdd59999a58da595b9d603a1b604082015260600190565b6020808252601e908201527f5661756c743a206e6f7420726561647920746f20437265617465506f6f6c0000604082015260600190565b60208082526017908201527618985b185b98d9481a5cc81a5b9cdd59999a58da595b9d604a1b604082015260600190565b60208082526018908201527705661756c743a206265666f726520736574556e69737761760441b604082015260600190565b60208082526022908201527f5661756c743a20616c726561647920726561647920746f20437265617465506f6040820152611bdb60f21b606082015260800190565b6020808252601f908201527f5265656e7472616e637947756172643a207265656e7472616e742063616c6c00604082015260600190565b81516001600160a01b0316815261016081016020830151614f3260208401826001600160a01b03169052565b506040830151614f49604084018262ffffff169052565b506060830151614f5e606084018260020b9052565b506080830151614f73608084018260020b9052565b5060a083015160a083015260c083015160c083015260e083015160e083015261010080840151818401525061012080840151614fb9828501826001600160a01b03169052565b505061014092830151919092015290565b848152608060208201526000614fe36080830186614aed565b8281036040840152614ff58186614aed565b91505082606083015295945050505050565b600080821280156001600160ff1b03849003851316156150295761502961547f565b600160ff1b83900384128116156150425761504261547f565b50500190565b600061ffff8083168185168083038211156150655761506561547f565b01949350505050565b600082198211156150815761508161547f565b500190565b60008160020b8360020b8061509d5761509d615495565b627fffff198214600019821416156150b7576150b761547f565b90059392505050565b600061ffff808416806150d5576150d5615495565b92169190910492915050565b6000826150f0576150f0615495565b500490565b600181815b808511156151305781600019048211156151165761511661547f565b8085161561512357918102915b93841c93908002906150fa565b509250929050565b6000613801838360008261514e575060016108a3565b8161515b575060006108a3565b8160018114615171576002811461517b57615197565b60019150506108a3565b60ff84111561518c5761518c61547f565b50506001821b6108a3565b5060208310610133831016604e8410600b84101617156151ba575081810a6108a3565b6151c483836150f5565b80600019048211156151d8576151d861547f565b029392505050565b60008160020b8360020b627fffff8382138484138383048511828216161561520a5761520a61547f565b627fffff19868512828116878305871216156152285761522861547f565b8787129250858205871284841616156152435761524361547f565b858505871281841616156152595761525961547f565b5050509290910295945050505050565b60006001600160ff1b038184138284138082168684048611161561528f5761528f61547f565b600160ff1b848712828116878305891216156152ad576152ad61547f565b8587129250878205871284841616156152c8576152c861547f565b878505871281841616156152de576152de61547f565b505050929093029392505050565b600061ffff8083168185168183048111821515161561530d5761530d61547f565b02949350505050565b60008160001904831182151516156153305761533061547f565b500290565b60008083128015600160ff1b8501841216156153535761535361547f565b6001600160ff1b038401831381161561536e5761536e61547f565b50500390565b600061ffff8381169083168181101561538f5761538f61547f565b039392505050565b6000828210156153a9576153a961547f565b500390565b60005b838110156153c95781810151838201526020016153b1565b838111156153d8576000848401525b50505050565b6000816153ed576153ed61547f565b506000190190565b600181811c9082168061540957607f821691505b6020821081141561542a57634e487b7160e01b600052602260045260246000fd5b50919050565b60008261543f5761543f615495565b500690565b60008160020b627fffff1981141561545e5761545e61547f565b9003919050565b6000600160ff1b82141561547b5761547b61547f565b0390565b634e487b7160e01b600052601160045260246000fd5b634e487b7160e01b600052601260045260246000fd5b6001600160a01b0381168114611b9757600080fd5b8015158114611b9757600080fd5b8060020b8114611b9757600080fd5b62ffffff81168114611b9757600080fd5b60ff81168114611b9757600080fdfe52eafc11f6f81f86878bffd31109a0d92f37506527754f00788853ff9f63b130a2646970667358221220b753377f37dd65271f7dc60e9bf634dd256c3f38df1d88937bdde2a84ae7308b64736f6c63430008040033",
  "linkReferences": {},
  "deployedLinkReferences": {}
}