{
  "_format": "hh-sol-artifact-1",
  "contractName": "LiquidityAmounts",
  "sourceName": "contracts/libraries/LiquidityAmounts.sol",
  "abi": [
    {
      "inputs": [
        {
          "internalType": "uint160",
          "name": "sqrtRatioAX96",
          "type": "uint160"
        },
        {
          "internalType": "uint160",
          "name": "sqrtRatioBX96",
          "type": "uint160"
        },
        {
          "internalType": "uint128",
          "name": "liquidity",
          "type": "uint128"
        }
      ],
      "name": "getAmount0ForLiquidity",
      "outputs": [
        {
          "internalType": "uint256",
          "name": "amount0",
          "type": "uint256"
        }
      ],
      "stateMutability": "pure",
      "type": "function"
    },
    {
      "inputs": [
        {
          "internalType": "uint160",
          "name": "sqrtRatioAX96",
          "type": "uint160"
        },
        {
          "internalType": "uint160",
          "name": "sqrtRatioBX96",
          "type": "uint160"
        },
        {
          "internalType": "uint128",
          "name": "liquidity",
          "type": "uint128"
        }
      ],
      "name": "getAmount1ForLiquidity",
      "outputs": [
        {
          "internalType": "uint256",
          "name": "amount1",
          "type": "uint256"
        }
      ],
      "stateMutability": "pure",
      "type": "function"
    },
    {
      "inputs": [
        {
          "internalType": "uint160",
          "name": "sqrtRatioX96",
          "type": "uint160"
        },
        {
          "internalType": "uint160",
          "name": "sqrtRatioAX96",
          "type": "uint160"
        },
        {
          "internalType": "uint160",
          "name": "sqrtRatioBX96",
          "type": "uint160"
        },
        {
          "internalType": "uint128",
          "name": "liquidity",
          "type": "uint128"
        }
      ],
      "name": "getAmountsForLiquidity",
      "outputs": [
        {
          "internalType": "uint256",
          "name": "amount0",
          "type": "uint256"
        },
        {
          "internalType": "uint256",
          "name": "amount1",
          "type": "uint256"
        }
      ],
      "stateMutability": "pure",
      "type": "function"
    },
    {
      "inputs": [
        {
          "internalType": "uint160",
          "name": "sqrtRatioAX96",
          "type": "uint160"
        },
        {
          "internalType": "uint160",
          "name": "sqrtRatioBX96",
          "type": "uint160"
        },
        {
          "internalType": "uint256",
          "name": "amount0",
          "type": "uint256"
        }
      ],
      "name": "getLiquidityForAmount0",
      "outputs": [
        {
          "internalType": "uint128",
          "name": "liquidity",
          "type": "uint128"
        }
      ],
      "stateMutability": "pure",
      "type": "function"
    },
    {
      "inputs": [
        {
          "internalType": "uint160",
          "name": "sqrtRatioAX96",
          "type": "uint160"
        },
        {
          "internalType": "uint160",
          "name": "sqrtRatioBX96",
          "type": "uint160"
        },
        {
          "internalType": "uint256",
          "name": "amount1",
          "type": "uint256"
        }
      ],
      "name": "getLiquidityForAmount1",
      "outputs": [
        {
          "internalType": "uint128",
          "name": "liquidity",
          "type": "uint128"
        }
      ],
      "stateMutability": "pure",
      "type": "function"
    },
    {
      "inputs": [
        {
          "internalType": "uint160",
          "name": "sqrtRatioX96",
          "type": "uint160"
        },
        {
          "internalType": "uint160",
          "name": "sqrtRatioAX96",
          "type": "uint160"
        },
        {
          "internalType": "uint160",
          "name": "sqrtRatioBX96",
          "type": "uint160"
        },
        {
          "internalType": "uint256",
          "name": "amount0",
          "type": "uint256"
        },
        {
          "internalType": "uint256",
          "name": "amount1",
          "type": "uint256"
        }
      ],
      "name": "getLiquidityForAmounts",
      "outputs": [
        {
          "internalType": "uint128",
          "name": "liquidity",
          "type": "uint128"
        }
      ],
      "stateMutability": "pure",
      "type": "function"
    },
    {
      "inputs": [
        {
          "internalType": "uint256",
          "name": "x",
          "type": "uint256"
        }
      ],
      "name": "toUint128",
      "outputs": [
        {
          "internalType": "uint128",
          "name": "y",
          "type": "uint128"
        }
      ],
      "stateMutability": "pure",
      "type": "function"
    }
  ],
  "bytecode": "0x61070b61003a600b82828239805160001a60731461002d57634e487b7160e01b600052600060045260246000fd5b30600052607381538281f3fe73000000000000000000000000000000000000000030146080604052600436106100775760003560e01c806308c0f7951461007c57806329e24cb7146100ac5780636098fd4a146100cd57806367df6e89146100e05780636ac69a8e146100f3578063809fdd3314610106578063c72e160b14610119575b600080fd5b61008f61008a3660046105f5565b610141565b6040516001600160801b0390911681526020015b60405180910390f35b6100bf6100ba36600461050c565b61018f565b6040519081526020016100a3565b61008f6100db3660046105a1565b6101d9565b61008f6100ee3660046105f5565b61029d565b6100bf61010136600461050c565b6102f4565b61008f610114366004610630565b61035e565b61012c61012736600461054e565b610379565b604080519283526020830191909152016100a3565b6000826001600160a01b0316846001600160a01b03161115610161579192915b61018561011483600160601b6101778888610680565b6001600160a01b0316610415565b90505b9392505050565b6000826001600160a01b0316846001600160a01b031611156101af579192915b6101856001600160801b0383166101c68686610680565b6001600160a01b0316600160601b610415565b6000836001600160a01b0316856001600160a01b031611156101f9579293925b846001600160a01b0316866001600160a01b0316116102245761021d85858561029d565b9050610294565b836001600160a01b0316866001600160a01b0316101561028657600061024b87868661029d565b9050600061025a878986610141565b9050806001600160801b0316826001600160801b03161061027b578061027d565b815b92505050610294565b610291858584610141565b90505b95945050505050565b6000826001600160a01b0316846001600160a01b031611156102bd579192915b60006102e0856001600160a01b0316856001600160a01b0316600160601b610415565b905061029461011484836101778989610680565b6000826001600160a01b0316846001600160a01b03161115610314579192915b6001600160a01b038416610354600160601b600160e01b03606085901b1661033c8787610680565b6001600160a01b0316866001600160a01b0316610415565b6101859190610660565b806001600160801b038116811461037457600080fd5b919050565b600080836001600160a01b0316856001600160a01b0316111561039a579293925b846001600160a01b0316866001600160a01b0316116103c5576103be8585856102f4565b915061040c565b836001600160a01b0316866001600160a01b031610156103fe576103ea8685856102f4565b91506103f785878561018f565b905061040c565b61040985858561018f565b90505b94509492505050565b600080821161042357600080fd5b600080600019858709858702925082811083820303915050806000141561044f57508290049050610188565b80841161045b57600080fd5b60008486880980840393811190920391905060008561047c816000196106a8565b610487906001610648565b16958690049560026003880281188089028203028089028203028089028203028089028203028089028203028089029091030260008290038290046001019490940294049390931791909102925050509392505050565b80356001600160801b038116811461037457600080fd5b80356001600160a01b038116811461037457600080fd5b600080600060608486031215610520578283fd5b610529846104f5565b9250610537602085016104f5565b9150610545604085016104de565b90509250925092565b60008060008060808587031215610563578081fd5b61056c856104f5565b935061057a602086016104f5565b9250610588604086016104f5565b9150610596606086016104de565b905092959194509250565b600080600080600060a086880312156105b8578081fd5b6105c1866104f5565b94506105cf602087016104f5565b93506105dd604087016104f5565b94979396509394606081013594506080013592915050565b600080600060608486031215610609578283fd5b610612846104f5565b9250610620602085016104f5565b9150604084013590509250925092565b600060208284031215610641578081fd5b5035919050565b6000821982111561065b5761065b6106bf565b500190565b60008261067b57634e487b7160e01b81526012600452602481fd5b500490565b60006001600160a01b03838116908316818110156106a0576106a06106bf565b039392505050565b6000828210156106ba576106ba6106bf565b500390565b634e487b7160e01b600052601160045260246000fdfea26469706673582212202e1f81da0f486d4540bb8dc92af57281227e911b43d5bdb63b5c3455c6c1bced64736f6c63430008040033",
  "linkReferences": {},
  "deployedLinkReferences": {}
}