{
  "_format": "hh-sol-artifact-1",
  "contractName": "LiquidityVault",
  "sourceName": "contracts/typeDVault/LiquidityVault.sol",
  "abi": [
    {
      "inputs": [],
      "stateMutability": "nonpayable",
      "type": "constructor"
    },
    {
      "anonymous": false,
      "inputs": [
        {
          "indexed": true,
          "internalType": "uint256",
          "name": "tokenId",
          "type": "uint256"
        },
        {
          "indexed": false,
          "internalType": "uint256",
          "name": "amount",
          "type": "uint256"
        },
        {
          "indexed": false,
          "internalType": "uint256",
          "name": "totalClaimsAmount",
          "type": "uint256"
        }
      ],
      "name": "Claimed",
      "type": "event"
    },
    {
      "anonymous": false,
      "inputs": [
        {
          "indexed": true,
          "internalType": "uint256",
          "name": "tokenId",
          "type": "uint256"
        },
        {
          "indexed": false,
          "internalType": "uint256",
          "name": "amount0",
          "type": "uint256"
        },
        {
          "indexed": false,
          "internalType": "uint256",
          "name": "amount1",
          "type": "uint256"
        }
      ],
      "name": "Collect",
      "type": "event"
    },
    {
      "anonymous": false,
      "inputs": [
        {
          "indexed": true,
          "internalType": "uint256",
          "name": "tokenId",
          "type": "uint256"
        },
        {
          "indexed": false,
          "internalType": "uint128",
          "name": "liquidity",
          "type": "uint128"
        },
        {
          "indexed": false,
          "internalType": "uint256",
          "name": "amount0",
          "type": "uint256"
        },
        {
          "indexed": false,
          "internalType": "uint256",
          "name": "amount1",
          "type": "uint256"
        }
      ],
      "name": "DecreaseLiquidity",
      "type": "event"
    },
    {
      "anonymous": false,
      "inputs": [
        {
          "indexed": false,
          "internalType": "address",
          "name": "tokenIn",
          "type": "address"
        },
        {
          "indexed": false,
          "internalType": "address",
          "name": "tokenOut",
          "type": "address"
        },
        {
          "indexed": false,
          "internalType": "uint256",
          "name": "amountIn",
          "type": "uint256"
        },
        {
          "indexed": false,
          "internalType": "uint256",
          "name": "amountExchangedOut",
          "type": "uint256"
        },
        {
          "indexed": false,
          "internalType": "uint256",
          "name": "totalClaimsAmount",
          "type": "uint256"
        }
      ],
      "name": "Exchanged",
      "type": "event"
    },
    {
      "anonymous": false,
      "inputs": [
        {
          "indexed": true,
          "internalType": "uint256",
          "name": "tokenId",
          "type": "uint256"
        },
        {
          "indexed": false,
          "internalType": "uint128",
          "name": "liquidity",
          "type": "uint128"
        },
        {
          "indexed": false,
          "internalType": "uint256",
          "name": "amount0",
          "type": "uint256"
        },
        {
          "indexed": false,
          "internalType": "uint256",
          "name": "amount1",
          "type": "uint256"
        }
      ],
      "name": "IncreaseLiquidity",
      "type": "event"
    },
    {
      "anonymous": false,
      "inputs": [
        {
          "indexed": false,
          "internalType": "uint256",
          "name": "_totalAllocatedAmount",
          "type": "uint256"
        },
        {
          "indexed": false,
          "internalType": "uint256",
          "name": "_claimCounts",
          "type": "uint256"
        },
        {
          "indexed": false,
          "internalType": "uint256[]",
          "name": "_claimTimes",
          "type": "uint256[]"
        },
        {
          "indexed": false,
          "internalType": "uint256[]",
          "name": "_claimAmounts",
          "type": "uint256[]"
        }
      ],
      "name": "Initialized",
      "type": "event"
    },
    {
      "anonymous": false,
      "inputs": [
        {
          "indexed": true,
          "internalType": "address",
          "name": "caller",
          "type": "address"
        },
        {
          "indexed": false,
          "internalType": "uint256",
          "name": "tokenId",
          "type": "uint256"
        },
        {
          "indexed": false,
          "internalType": "uint128",
          "name": "liquidity",
          "type": "uint128"
        },
        {
          "indexed": false,
          "internalType": "uint256",
          "name": "amount0",
          "type": "uint256"
        },
        {
          "indexed": false,
          "internalType": "uint256",
          "name": "amount1",
          "type": "uint256"
        }
      ],
      "name": "Minted",
      "type": "event"
    },
    {
      "anonymous": false,
      "inputs": [
        {
          "indexed": true,
          "internalType": "bytes32",
          "name": "role",
          "type": "bytes32"
        },
        {
          "indexed": true,
          "internalType": "bytes32",
          "name": "previousAdminRole",
          "type": "bytes32"
        },
        {
          "indexed": true,
          "internalType": "bytes32",
          "name": "newAdminRole",
          "type": "bytes32"
        }
      ],
      "name": "RoleAdminChanged",
      "type": "event"
    },
    {
      "anonymous": false,
      "inputs": [
        {
          "indexed": true,
          "internalType": "bytes32",
          "name": "role",
          "type": "bytes32"
        },
        {
          "indexed": true,
          "internalType": "address",
          "name": "account",
          "type": "address"
        },
        {
          "indexed": true,
          "internalType": "address",
          "name": "sender",
          "type": "address"
        }
      ],
      "name": "RoleGranted",
      "type": "event"
    },
    {
      "anonymous": false,
      "inputs": [
        {
          "indexed": true,
          "internalType": "bytes32",
          "name": "role",
          "type": "bytes32"
        },
        {
          "indexed": true,
          "internalType": "address",
          "name": "account",
          "type": "address"
        },
        {
          "indexed": true,
          "internalType": "address",
          "name": "sender",
          "type": "address"
        }
      ],
      "name": "RoleRevoked",
      "type": "event"
    },
    {
      "anonymous": false,
      "inputs": [
        {
          "indexed": false,
          "internalType": "address",
          "name": "caller",
          "type": "address"
        },
        {
          "indexed": false,
          "internalType": "address",
          "name": "tokenAddress",
          "type": "address"
        },
        {
          "indexed": false,
          "internalType": "address",
          "name": "to",
          "type": "address"
        },
        {
          "indexed": false,
          "internalType": "uint256",
          "name": "amount",
          "type": "uint256"
        }
      ],
      "name": "Withdrawal",
      "type": "event"
    },
    {
      "inputs": [],
      "name": "ADMIN_ROLE",
      "outputs": [
        {
          "internalType": "bytes32",
          "name": "",
          "type": "bytes32"
        }
      ],
      "stateMutability": "view",
      "type": "function"
    },
    {
      "inputs": [],
      "name": "BURNER_ROLE",
      "outputs": [
        {
          "internalType": "bytes32",
          "name": "",
          "type": "bytes32"
        }
      ],
      "stateMutability": "view",
      "type": "function"
    },
    {
      "inputs": [],
      "name": "CLAIMER_ROLE",
      "outputs": [
        {
          "internalType": "bytes32",
          "name": "",
          "type": "bytes32"
        }
      ],
      "stateMutability": "view",
      "type": "function"
    },
    {
      "inputs": [],
      "name": "DEFAULT_ADMIN_ROLE",
      "outputs": [
        {
          "internalType": "bytes32",
          "name": "",
          "type": "bytes32"
        }
      ],
      "stateMutability": "view",
      "type": "function"
    },
    {
      "inputs": [],
      "name": "MAX_SQRT_RATIO",
      "outputs": [
        {
          "internalType": "uint160",
          "name": "",
          "type": "uint160"
        }
      ],
      "stateMutability": "pure",
      "type": "function"
    },
    {
      "inputs": [],
      "name": "MINTER_ROLE",
      "outputs": [
        {
          "internalType": "bytes32",
          "name": "",
          "type": "bytes32"
        }
      ],
      "stateMutability": "view",
      "type": "function"
    },
    {
      "inputs": [],
      "name": "MIN_SQRT_RATIO",
      "outputs": [
        {
          "internalType": "uint160",
          "name": "",
          "type": "uint160"
        }
      ],
      "stateMutability": "pure",
      "type": "function"
    },
    {
      "inputs": [],
      "name": "NonfungiblePositionManager",
      "outputs": [
        {
          "internalType": "contract INonfungiblePositionManager",
          "name": "",
          "type": "address"
        }
      ],
      "stateMutability": "view",
      "type": "function"
    },
    {
      "inputs": [],
      "name": "SwapRouter",
      "outputs": [
        {
          "internalType": "contract ISwapRouter",
          "name": "",
          "type": "address"
        }
      ],
      "stateMutability": "view",
      "type": "function"
    },
    {
      "inputs": [],
      "name": "TOS",
      "outputs": [
        {
          "internalType": "contract IERC20",
          "name": "",
          "type": "address"
        }
      ],
      "stateMutability": "view",
      "type": "function"
    },
    {
      "inputs": [],
      "name": "UniswapV3Factory",
      "outputs": [
        {
          "internalType": "contract IUniswapV3Factory",
          "name": "",
          "type": "address"
        }
      ],
      "stateMutability": "view",
      "type": "function"
    },
    {
      "inputs": [],
      "name": "WETHUSDCPool",
      "outputs": [
        {
          "internalType": "contract IUniswapV3Pool",
          "name": "",
          "type": "address"
        }
      ],
      "stateMutability": "view",
      "type": "function"
    },
    {
      "inputs": [],
      "name": "WTON",
      "outputs": [
        {
          "internalType": "contract IERC20",
          "name": "",
          "type": "address"
        }
      ],
      "stateMutability": "view",
      "type": "function"
    },
    {
      "inputs": [],
      "name": "WTONTOSPool",
      "outputs": [
        {
          "internalType": "contract IUniswapV3Pool",
          "name": "",
          "type": "address"
        }
      ],
      "stateMutability": "view",
      "type": "function"
    },
    {
      "inputs": [],
      "name": "WTONWETHPool",
      "outputs": [
        {
          "internalType": "contract IUniswapV3Pool",
          "name": "",
          "type": "address"
        }
      ],
      "stateMutability": "view",
      "type": "function"
    },
    {
      "inputs": [
        {
          "internalType": "address",
          "name": "account",
          "type": "address"
        }
      ],
      "name": "addAdmin",
      "outputs": [],
      "stateMutability": "nonpayable",
      "type": "function"
    },
    {
      "inputs": [
        {
          "internalType": "uint256",
          "name": "",
          "type": "uint256"
        }
      ],
      "name": "addAmounts",
      "outputs": [
        {
          "internalType": "uint256",
          "name": "",
          "type": "uint256"
        }
      ],
      "stateMutability": "view",
      "type": "function"
    },
    {
      "inputs": [
        {
          "internalType": "address",
          "name": "account",
          "type": "address"
        }
      ],
      "name": "addBurner",
      "outputs": [],
      "stateMutability": "nonpayable",
      "type": "function"
    },
    {
      "inputs": [
        {
          "internalType": "address",
          "name": "account",
          "type": "address"
        }
      ],
      "name": "addClaimer",
      "outputs": [],
      "stateMutability": "nonpayable",
      "type": "function"
    },
    {
      "inputs": [
        {
          "internalType": "address",
          "name": "account",
          "type": "address"
        }
      ],
      "name": "addMinter",
      "outputs": [],
      "stateMutability": "nonpayable",
      "type": "function"
    },
    {
      "inputs": [
        {
          "internalType": "address",
          "name": "token",
          "type": "address"
        },
        {
          "internalType": "address",
          "name": "to",
          "type": "address"
        },
        {
          "internalType": "uint256",
          "name": "amount",
          "type": "uint256"
        }
      ],
      "name": "approveERC20",
      "outputs": [
        {
          "internalType": "bool",
          "name": "",
          "type": "bool"
        }
      ],
      "stateMutability": "nonpayable",
      "type": "function"
    },
    {
      "inputs": [
        {
          "internalType": "uint256",
          "name": "_round",
          "type": "uint256"
        }
      ],
      "name": "availableUseAmount",
      "outputs": [
        {
          "internalType": "uint256",
          "name": "amount",
          "type": "uint256"
        }
      ],
      "stateMutability": "view",
      "type": "function"
    },
    {
      "inputs": [
        {
          "internalType": "uint256",
          "name": "_round",
          "type": "uint256"
        }
      ],
      "name": "calculateClaimAmount",
      "outputs": [
        {
          "internalType": "uint256",
          "name": "amount",
          "type": "uint256"
        }
      ],
      "stateMutability": "view",
      "type": "function"
    },
    {
      "inputs": [
        {
          "internalType": "address",
          "name": "_token",
          "type": "address"
        }
      ],
      "name": "changeToken",
      "outputs": [],
      "stateMutability": "nonpayable",
      "type": "function"
    },
    {
      "inputs": [
        {
          "internalType": "uint256",
          "name": "tosBalance",
          "type": "uint256"
        },
        {
          "internalType": "uint256",
          "name": "tokenBalance",
          "type": "uint256"
        }
      ],
      "name": "checkBalance",
      "outputs": [],
      "stateMutability": "view",
      "type": "function"
    },
    {
      "inputs": [
        {
          "internalType": "uint256",
          "name": "",
          "type": "uint256"
        }
      ],
      "name": "claimAmounts",
      "outputs": [
        {
          "internalType": "uint256",
          "name": "",
          "type": "uint256"
        }
      ],
      "stateMutability": "view",
      "type": "function"
    },
    {
      "inputs": [
        {
          "internalType": "uint256",
          "name": "",
          "type": "uint256"
        }
      ],
      "name": "claimTimes",
      "outputs": [
        {
          "internalType": "uint256",
          "name": "",
          "type": "uint256"
        }
      ],
      "stateMutability": "view",
      "type": "function"
    },
    {
      "inputs": [],
      "name": "clean",
      "outputs": [],
      "stateMutability": "nonpayable",
      "type": "function"
    },
    {
      "inputs": [
        {
          "internalType": "uint256",
          "name": "tokenId",
          "type": "uint256"
        },
        {
          "internalType": "uint128",
          "name": "amount0Max",
          "type": "uint128"
        },
        {
          "internalType": "uint128",
          "name": "amount1Max",
          "type": "uint128"
        }
      ],
      "name": "collect",
      "outputs": [
        {
          "internalType": "uint256",
          "name": "amount0",
          "type": "uint256"
        },
        {
          "internalType": "uint256",
          "name": "amount1",
          "type": "uint256"
        }
      ],
      "stateMutability": "nonpayable",
      "type": "function"
    },
    {
      "inputs": [],
      "name": "currentRound",
      "outputs": [
        {
          "internalType": "uint256",
          "name": "round",
          "type": "uint256"
        }
      ],
      "stateMutability": "view",
      "type": "function"
    },
    {
      "inputs": [
        {
          "internalType": "uint256",
          "name": "tokenId",
          "type": "uint256"
        },
        {
          "internalType": "uint128",
          "name": "liquidity",
          "type": "uint128"
        },
        {
          "internalType": "uint256",
          "name": "amount0Min",
          "type": "uint256"
        },
        {
          "internalType": "uint256",
          "name": "amount1Min",
          "type": "uint256"
        },
        {
          "internalType": "uint256",
          "name": "deadline",
          "type": "uint256"
        }
      ],
      "name": "decreaseLiquidity",
      "outputs": [
        {
          "internalType": "uint256",
          "name": "amount0",
          "type": "uint256"
        },
        {
          "internalType": "uint256",
          "name": "amount1",
          "type": "uint256"
        }
      ],
      "stateMutability": "nonpayable",
      "type": "function"
    },
    {
      "inputs": [],
      "name": "fee",
      "outputs": [
        {
          "internalType": "uint24",
          "name": "",
          "type": "uint24"
        }
      ],
      "stateMutability": "view",
      "type": "function"
    },
    {
      "inputs": [
        {
          "internalType": "bytes32",
          "name": "role",
          "type": "bytes32"
        }
      ],
      "name": "getRoleAdmin",
      "outputs": [
        {
          "internalType": "bytes32",
          "name": "",
          "type": "bytes32"
        }
      ],
      "stateMutability": "view",
      "type": "function"
    },
    {
      "inputs": [
        {
          "internalType": "int24",
          "name": "tick",
          "type": "int24"
        }
      ],
      "name": "getSqrtRatioAtTick",
      "outputs": [
        {
          "internalType": "uint160",
          "name": "",
          "type": "uint160"
        }
      ],
      "stateMutability": "pure",
      "type": "function"
    },
    {
      "inputs": [
        {
          "internalType": "uint160",
          "name": "sqrtPriceX96",
          "type": "uint160"
        }
      ],
      "name": "getTickAtSqrtRatio",
      "outputs": [
        {
          "internalType": "int24",
          "name": "",
          "type": "int24"
        }
      ],
      "stateMutability": "pure",
      "type": "function"
    },
    {
      "inputs": [
        {
          "internalType": "bytes32",
          "name": "role",
          "type": "bytes32"
        },
        {
          "internalType": "address",
          "name": "account",
          "type": "address"
        }
      ],
      "name": "grantRole",
      "outputs": [],
      "stateMutability": "nonpayable",
      "type": "function"
    },
    {
      "inputs": [
        {
          "internalType": "bytes32",
          "name": "role",
          "type": "bytes32"
        },
        {
          "internalType": "address",
          "name": "account",
          "type": "address"
        }
      ],
      "name": "hasRole",
      "outputs": [
        {
          "internalType": "bool",
          "name": "",
          "type": "bool"
        }
      ],
      "stateMutability": "view",
      "type": "function"
    },
    {
      "inputs": [
        {
          "internalType": "uint256",
          "name": "tokenId",
          "type": "uint256"
        },
        {
          "internalType": "uint256",
          "name": "amount0Desired",
          "type": "uint256"
        },
        {
          "internalType": "uint256",
          "name": "amount1Desired",
          "type": "uint256"
        },
        {
          "internalType": "uint256",
          "name": "deadline",
          "type": "uint256"
        }
      ],
      "name": "increaseLiquidity",
      "outputs": [
        {
          "internalType": "uint128",
          "name": "liquidity",
          "type": "uint128"
        },
        {
          "internalType": "uint256",
          "name": "amount0",
          "type": "uint256"
        },
        {
          "internalType": "uint256",
          "name": "amount1",
          "type": "uint256"
        }
      ],
      "stateMutability": "nonpayable",
      "type": "function"
    },
    {
      "inputs": [],
      "name": "initialTokenPrice",
      "outputs": [
        {
          "internalType": "uint256",
          "name": "",
          "type": "uint256"
        }
      ],
      "stateMutability": "view",
      "type": "function"
    },
    {
      "inputs": [],
      "name": "initialTosPrice",
      "outputs": [
        {
          "internalType": "uint256",
          "name": "",
          "type": "uint256"
        }
      ],
      "stateMutability": "view",
      "type": "function"
    },
    {
      "inputs": [
        {
          "internalType": "uint256",
          "name": "_totalAllocatedAmount",
          "type": "uint256"
        },
        {
          "internalType": "uint256",
          "name": "_claimCounts",
          "type": "uint256"
        },
        {
          "internalType": "uint256[]",
          "name": "_claimTimes",
          "type": "uint256[]"
        },
        {
          "internalType": "uint256[]",
          "name": "_claimAmounts",
          "type": "uint256[]"
        }
      ],
      "name": "initialize",
      "outputs": [],
      "stateMutability": "nonpayable",
      "type": "function"
    },
    {
      "inputs": [
        {
          "internalType": "address",
          "name": "account",
          "type": "address"
        }
      ],
      "name": "isAdmin",
      "outputs": [
        {
          "internalType": "bool",
          "name": "",
          "type": "bool"
        }
      ],
      "stateMutability": "view",
      "type": "function"
    },
    {
      "inputs": [
        {
          "internalType": "address",
          "name": "account",
          "type": "address"
        }
      ],
      "name": "isBurner",
      "outputs": [
        {
          "internalType": "bool",
          "name": "",
          "type": "bool"
        }
      ],
      "stateMutability": "view",
      "type": "function"
    },
    {
      "inputs": [
        {
          "internalType": "address",
          "name": "account",
          "type": "address"
        }
      ],
      "name": "isClaimer",
      "outputs": [
        {
          "internalType": "bool",
          "name": "",
          "type": "bool"
        }
      ],
      "stateMutability": "view",
      "type": "function"
    },
    {
      "inputs": [
        {
          "internalType": "address",
          "name": "account",
          "type": "address"
        }
      ],
      "name": "isMinter",
      "outputs": [
        {
          "internalType": "bool",
          "name": "",
          "type": "bool"
        }
      ],
      "stateMutability": "view",
      "type": "function"
    },
    {
      "inputs": [
        {
          "internalType": "int24",
          "name": "tickLower",
          "type": "int24"
        },
        {
          "internalType": "int24",
          "name": "tickUpper",
          "type": "int24"
        },
        {
          "internalType": "uint256",
          "name": "tosUseAmount",
          "type": "uint256"
        },
        {
          "internalType": "uint256",
          "name": "tokenUseAmount",
          "type": "uint256"
        }
      ],
      "name": "mint",
      "outputs": [],
      "stateMutability": "nonpayable",
      "type": "function"
    },
    {
      "inputs": [],
      "name": "name",
      "outputs": [
        {
          "internalType": "string",
          "name": "",
          "type": "string"
        }
      ],
      "stateMutability": "view",
      "type": "function"
    },
    {
      "inputs": [],
      "name": "nowClaimRound",
      "outputs": [
        {
          "internalType": "uint256",
          "name": "",
          "type": "uint256"
        }
      ],
      "stateMutability": "view",
      "type": "function"
    },
    {
      "inputs": [],
      "name": "owner",
      "outputs": [
        {
          "internalType": "address",
          "name": "",
          "type": "address"
        }
      ],
      "stateMutability": "view",
      "type": "function"
    },
    {
      "inputs": [],
      "name": "pauseProxy",
      "outputs": [
        {
          "internalType": "bool",
          "name": "",
          "type": "bool"
        }
      ],
      "stateMutability": "view",
      "type": "function"
    },
    {
      "inputs": [],
      "name": "pool",
      "outputs": [
        {
          "internalType": "contract IUniswapV3Pool",
          "name": "",
          "type": "address"
        }
      ],
      "stateMutability": "view",
      "type": "function"
    },
    {
      "inputs": [
        {
          "internalType": "address",
          "name": "account",
          "type": "address"
        }
      ],
      "name": "removeAdmin",
      "outputs": [],
      "stateMutability": "nonpayable",
      "type": "function"
    },
    {
      "inputs": [
        {
          "internalType": "address",
          "name": "account",
          "type": "address"
        }
      ],
      "name": "removeBurner",
      "outputs": [],
      "stateMutability": "nonpayable",
      "type": "function"
    },
    {
      "inputs": [
        {
          "internalType": "address",
          "name": "account",
          "type": "address"
        }
      ],
      "name": "removeClaimer",
      "outputs": [],
      "stateMutability": "nonpayable",
      "type": "function"
    },
    {
      "inputs": [
        {
          "internalType": "address",
          "name": "account",
          "type": "address"
        }
      ],
      "name": "removeMinter",
      "outputs": [],
      "stateMutability": "nonpayable",
      "type": "function"
    },
    {
      "inputs": [
        {
          "internalType": "bytes32",
          "name": "role",
          "type": "bytes32"
        },
        {
          "internalType": "address",
          "name": "account",
          "type": "address"
        }
      ],
      "name": "renounceRole",
      "outputs": [],
      "stateMutability": "nonpayable",
      "type": "function"
    },
    {
      "inputs": [
        {
          "internalType": "bytes32",
          "name": "role",
          "type": "bytes32"
        },
        {
          "internalType": "address",
          "name": "account",
          "type": "address"
        }
      ],
      "name": "revokeRole",
      "outputs": [],
      "stateMutability": "nonpayable",
      "type": "function"
    },
    {
      "inputs": [
        {
          "internalType": "string",
          "name": "_name",
          "type": "string"
        },
        {
          "internalType": "address",
          "name": "_token",
          "type": "address"
        },
        {
          "internalType": "address",
          "name": "_owner",
          "type": "address"
        }
      ],
      "name": "setBaseInfo",
      "outputs": [],
      "stateMutability": "nonpayable",
      "type": "function"
    },
    {
      "inputs": [
        {
          "internalType": "uint256",
          "name": "tosPrice",
          "type": "uint256"
        },
        {
          "internalType": "uint256",
          "name": "tokenPrice",
          "type": "uint256"
        }
      ],
      "name": "setInitialPrice",
      "outputs": [],
      "stateMutability": "nonpayable",
      "type": "function"
    },
    {
      "inputs": [],
      "name": "setPool",
      "outputs": [],
      "stateMutability": "nonpayable",
      "type": "function"
    },
    {
      "inputs": [
        {
          "internalType": "address",
          "name": "wethUsdcPool",
          "type": "address"
        },
        {
          "internalType": "address",
          "name": "wtonWethPool",
          "type": "address"
        },
        {
          "internalType": "address",
          "name": "wtonTosPool",
          "type": "address"
        },
        {
          "internalType": "address",
          "name": "wton",
          "type": "address"
        },
        {
          "internalType": "address",
          "name": "tos",
          "type": "address"
        },
        {
          "internalType": "uint24",
          "name": "_fee",
          "type": "uint24"
        }
      ],
      "name": "setPoolInfo",
      "outputs": [],
      "stateMutability": "nonpayable",
      "type": "function"
    },
    {
      "inputs": [
        {
          "internalType": "uint160",
          "name": "inSqrtPriceX96",
          "type": "uint160"
        }
      ],
      "name": "setPoolInitialize",
      "outputs": [],
      "stateMutability": "nonpayable",
      "type": "function"
    },
    {
      "inputs": [
        {
          "internalType": "uint256",
          "name": "_percentage",
          "type": "uint256"
        }
      ],
      "name": "setTickIntervalPercaentage",
      "outputs": [],
      "stateMutability": "nonpayable",
      "type": "function"
    },
    {
      "inputs": [
        {
          "internalType": "address",
          "name": "poolfactory",
          "type": "address"
        },
        {
          "internalType": "address",
          "name": "npm",
          "type": "address"
        },
        {
          "internalType": "address",
          "name": "swapRouter",
          "type": "address"
        }
      ],
      "name": "setUniswapInfo",
      "outputs": [],
      "stateMutability": "nonpayable",
      "type": "function"
    },
    {
      "inputs": [],
      "name": "settingCheck",
      "outputs": [
        {
          "internalType": "bool",
          "name": "",
          "type": "bool"
        }
      ],
      "stateMutability": "view",
      "type": "function"
    },
    {
      "inputs": [
        {
          "internalType": "bytes4",
          "name": "interfaceId",
          "type": "bytes4"
        }
      ],
      "name": "supportsInterface",
      "outputs": [
        {
          "internalType": "bool",
          "name": "",
          "type": "bool"
        }
      ],
      "stateMutability": "view",
      "type": "function"
    },
    {
      "inputs": [
        {
          "internalType": "bool",
          "name": "tosToToken",
          "type": "bool"
        },
        {
          "internalType": "uint256",
          "name": "amountIn",
          "type": "uint256"
        },
        {
          "internalType": "uint256",
          "name": "amountOut",
          "type": "uint256"
        },
        {
          "internalType": "uint160",
          "name": "sqrtPriceLimitX96",
          "type": "uint160"
        }
      ],
      "name": "swap",
      "outputs": [],
      "stateMutability": "nonpayable",
      "type": "function"
    },
    {
      "inputs": [],
      "name": "tickBaseInfos",
      "outputs": [
        {
          "internalType": "int24",
          "name": "",
          "type": "int24"
        },
        {
          "internalType": "int24",
          "name": "",
          "type": "int24"
        },
        {
          "internalType": "uint24",
          "name": "",
          "type": "uint24"
        }
      ],
      "stateMutability": "view",
      "type": "function"
    },
    {
      "inputs": [
        {
          "internalType": "int24",
          "name": "tick",
          "type": "int24"
        }
      ],
      "name": "tickInfos",
      "outputs": [
        {
          "internalType": "int24",
          "name": "",
          "type": "int24"
        },
        {
          "internalType": "int24",
          "name": "",
          "type": "int24"
        },
        {
          "internalType": "uint128",
          "name": "",
          "type": "uint128"
        }
      ],
      "stateMutability": "view",
      "type": "function"
    },
    {
      "inputs": [],
      "name": "tickIntervalPercaentage",
      "outputs": [
        {
          "internalType": "uint256",
          "name": "",
          "type": "uint256"
        }
      ],
      "stateMutability": "view",
      "type": "function"
    },
    {
      "inputs": [],
      "name": "tickSpace",
      "outputs": [
        {
          "internalType": "int24",
          "name": "",
          "type": "int24"
        }
      ],
      "stateMutability": "view",
      "type": "function"
    },
    {
      "inputs": [],
      "name": "token",
      "outputs": [
        {
          "internalType": "contract IERC20",
          "name": "",
          "type": "address"
        }
      ],
      "stateMutability": "view",
      "type": "function"
    },
    {
      "inputs": [],
      "name": "token0Address",
      "outputs": [
        {
          "internalType": "address",
          "name": "",
          "type": "address"
        }
      ],
      "stateMutability": "view",
      "type": "function"
    },
    {
      "inputs": [],
      "name": "token1Address",
      "outputs": [
        {
          "internalType": "address",
          "name": "",
          "type": "address"
        }
      ],
      "stateMutability": "view",
      "type": "function"
    },
    {
      "inputs": [],
      "name": "totalAllocatedAmount",
      "outputs": [
        {
          "internalType": "uint256",
          "name": "",
          "type": "uint256"
        }
      ],
      "stateMutability": "view",
      "type": "function"
    },
    {
      "inputs": [],
      "name": "totalClaimCounts",
      "outputs": [
        {
          "internalType": "uint256",
          "name": "",
          "type": "uint256"
        }
      ],
      "stateMutability": "view",
      "type": "function"
    },
    {
      "inputs": [],
      "name": "totalClaimsAmount",
      "outputs": [
        {
          "internalType": "uint256",
          "name": "",
          "type": "uint256"
        }
      ],
      "stateMutability": "view",
      "type": "function"
    },
    {
      "inputs": [
        {
          "internalType": "address",
          "name": "newAdmin",
          "type": "address"
        }
      ],
      "name": "transferAdmin",
      "outputs": [],
      "stateMutability": "nonpayable",
      "type": "function"
    },
    {
      "inputs": [
        {
          "internalType": "address",
          "name": "_token",
          "type": "address"
        },
        {
          "internalType": "address",
          "name": "user1",
          "type": "address"
        },
        {
          "internalType": "address",
          "name": "user2",
          "type": "address"
        },
        {
          "internalType": "uint256",
          "name": "amount",
          "type": "uint256"
        }
      ],
      "name": "transferAtoB",
      "outputs": [],
      "stateMutability": "nonpayable",
      "type": "function"
    },
    {
      "inputs": [
        {
          "internalType": "address",
          "name": "_token",
          "type": "address"
        },
        {
          "internalType": "address",
          "name": "_account",
          "type": "address"
        },
        {
          "internalType": "uint256",
          "name": "_amount",
          "type": "uint256"
        }
      ],
      "name": "withdraw",
      "outputs": [],
      "stateMutability": "nonpayable",
      "type": "function"
    }
  ],
  "bytecode": "0x608060405260006013553480156200001657600080fd5b5060108054610100600160a81b031916336101000217905562000049600080516020620058eb8339815191528062000081565b6010546200007690600080516020620058eb8339815191529061010090046001600160a01b0316620000cc565b6019600f5562000180565b600082815260196020526040808220600101805490849055905190918391839186917fbd79b86ffe0ab8e8776151514217cd7cacd52c909f66475c3af44e129f0b00ff9190a4505050565b620000d88282620000dc565b5050565b60008281526019602090815260408083206001600160a01b038516845290915290205460ff16620000d85760008281526019602090815260408083206001600160a01b03851684529091529020805460ff191660011790556200013c3390565b6001600160a01b0316816001600160a01b0316837f2f8788117e7eff1d82e926ec794901d17c78024a50270940304540a733656f0d60405160405180910390a45050565b61575b80620001906000396000f3fe608060405234801561001057600080fd5b50600436106104805760003560e01c8063807f773811610257578063d539139311610146578063ed5131f5116100c3578063f4cb505c11610087578063f4cb505c14610a7d578063f864640814610a90578063fc0c546a14610aa3578063fc4333cd14610ab6578063fc5f18d314610abe57600080fd5b8063ed5131f5146109fa578063ee8847ff14610a0d578063f0490b8a14610a18578063f44637ba14610a2b578063f45e203814610a3e57600080fd5b8063d9caed121161010a578063d9caed121461097f578063daba5b1814610992578063ddca3f431461099b578063e78a432f146109c5578063eb582d13146109e757600080fd5b8063d53913931461091e578063d547741f14610933578063d61ee8c614610946578063d61f78a914610959578063d7cb416f1461096c57600080fd5b8063a217fddf116101d4578063b471f40a11610198578063b471f40a146108c9578063b4cded81146108dc578063bf642322146108ef578063ccf4bfa614610902578063cfc412be1461091557600080fd5b8063a217fddf14610875578063a77a29fc1461087d578063a8e5e4aa14610890578063aa271e1a146108a3578063afe742c3146108b657600080fd5b806391d148541161021b57806391d14854146108215780639460fa6a1461083457806397aca93b1461083c578063983b2d561461084f578063986cfba31461086257600080fd5b8063807f7738146107c85780638158f0c0146107db57806382bfda45146107ee5780638a19c8bc146108015780638da5cb5b1461080957600080fd5b80632ea664011161037357806363a8fd89116102f057806375829def116102b457806375829def1461075557806375b238fc14610768578063771ff3811461077d5780637881decb146107855780637ff36fbe146107b557600080fd5b806363a8fd89146106f557806366829b16146107025780636b967146146107155780636d2cc30414610728578063704802751461074257600080fd5b80634334614a116103375780634334614a1461068d5780634dc32eff146106a05780634f76c058146106b357806352a1d829146106d957806355640008146106ec57600080fd5b80632ea664011461062e5780632f2ff15d146106415780633092afd51461065457806336568abe14610667578063412f25bc1461067a57600080fd5b806316f0115b11610401578063248a9ca3116103c5578063248a9ca3146105d157806324d7806c146105f4578063256019d614610607578063282c51f3146106105780632ca0228a1461062557600080fd5b806316f0115b146105785780631785f53c1461058b57806318a723db1461059e5780631ddfc2ff146105b157806321cf4370146105c457600080fd5b80630a6aae11116104485780630a6aae111461051f5780630f4388c01461053657806310a8aecd14610549578063117ab8741461055c57806313b6eb091461056557600080fd5b806301ffc9a71461048557806302846858146104ad57806303a3f2ab146104c25780630411b949146104ea57806306fdde031461050a575b600080fd5b610498610493366004614a35565b610ad3565b60405190151581526020015b60405180910390f35b6104c06104bb3660046147ef565b610b0a565b005b6104d56104d0366004614ce2565b610b53565b604080519283526020830191909152016104a4565b6007546104fd906001600160a01b031681565b6040516104a49190614ed5565b610512610d92565b6040516104a49190614f2a565b610528600d5481565b6040519081526020016104a4565b6105286105443660046149ee565b610e20565b6104986105573660046147ef565b610e41565b61052860135481565b6105286105733660046149ee565b610e5b565b600a546104fd906001600160a01b031681565b6104c06105993660046147ef565b610f29565b6005546104fd906001600160a01b031681565b6104c06105bf366004614827565b610f66565b6010546104989060ff1681565b6105286105df3660046149ee565b60009081526019602052604090206001015490565b6104986106023660046147ef565b6110ec565b61052860125481565b6105286000805160206156d883398151915281565b610528600e5481565b6104c061063c3660046147ef565b611106565b6104c061064f366004614a06565b61113f565b6104c06106623660046147ef565b61116a565b6104c0610675366004614a06565b6111a7565b6104c06106883660046149a5565b611225565b61049861069b3660046147ef565b61141f565b6009546104fd906001600160a01b031681565b6106c66106c13660046147ef565b611439565b60405160029190910b81526020016104a4565b6104c06106e7366004614abe565b611444565b61052860115481565b6018546104989060ff1681565b6104c06107103660046147ef565b611511565b6006546104fd906001600160a01b031681565b73fffd8963efd1fc6a506488495d951d5263988d266104fd565b6104c06107503660046147ef565b611558565b6104c06107633660046147ef565b611595565b6105286000805160206156b883398151915281565b6104c061168d565b61078d611a2d565b60408051600294850b81529290930b602083015262ffffff16918101919091526060016104a4565b600b546104fd906001600160a01b031681565b6104d56107d6366004614c6f565b611acb565b6104c06107e93660046147ef565b611cb4565b6104c06107fc366004614871565b611ddb565b61052861206f565b6010546104fd9061010090046001600160a01b031681565b61049861082f366004614a06565b612170565b6106c661219b565b61052861084a3660046149ee565b6121c9565b6104c061085d3660046147ef565b612258565b6104fd610870366004614a5d565b612295565b610528600081565b6104c061088b366004614d6d565b6122a0565b61049861089e366004614949565b6125e4565b6104986108b13660046147ef565b612704565b6104c06108c4366004614d29565b61271e565b6104c06108d7366004614d29565b61274e565b6105286108ea3660046149ee565b6128da565b6004546104fd906001600160a01b031681565b6104c06109103660046149ee565b6128ea565b61052860145481565b61052860008051602061567883398151915281565b6104c0610941366004614a06565b612957565b6104c06109543660046148f9565b61297d565b6002546104fd906001600160a01b031681565b600c546104fd906001600160a01b031681565b6104c061098d366004614949565b612a0e565b610528600f5481565b6009546109b190600160a01b900462ffffff1681565b60405162ffffff90911681526020016104a4565b6109d86109d3366004614ded565b612ba2565b6040516104a493929190615168565b6008546104fd906001600160a01b031681565b610528610a083660046149ee565b612ef1565b6401000276a36104fd565b6104c0610a263660046147ef565b612f01565b6104c0610a393660046147ef565b612f3e565b610a51610a4c366004614a5d565b612f7b565b60408051600294850b81529290930b60208301526001600160801b0316918101919091526060016104a4565b6104c0610a8b366004614a79565b613054565b6003546104fd906001600160a01b031681565b6001546104fd906001600160a01b031681565b6104c0613894565b61052860008051602061569883398151915281565b60006001600160e01b03198216637965db0b60e01b1480610b0457506301ffc9a760e01b6001600160e01b03198316145b92915050565b610b13336110ec565b610b385760405162461bcd60e51b8152600401610b2f90614fd0565b60405180910390fd5b610b506000805160206156d883398151915282612957565b50565b600a5460009081906001600160a01b031680610b815760405162461bcd60e51b8152600401610b2f90614f6c565b600b546001600160a01b031680610baa5760405162461bcd60e51b8152600401610b2f90614f6c565b600c546001600160a01b031680610bd35760405162461bcd60e51b8152600401610b2f90614f6c565b6008546040805160a0810182528c81526001600160801b038c8116602083019081528284018d8152606084018d8152608085018d81529551630624e65f60e11b8152945160048601529151909216602484015290516044830152516064820152905160848201526001600160a01b0390911690630c49ccbe9060a4016040805180830381600087803b158015610c6857600080fd5b505af1158015610c7c573d6000803e3d6000fd5b505050506040513d601f19601f82011682018060405250810190610ca09190614d4a565b600154600b549297509095506001600160a01b039182169116148015610cc65750600085115b15610ce15784601454610cd991906154a3565b601455610d49565b600154600c546001600160a01b039081169116148015610d015750600084115b15610d495783601454610d1491906154a3565b60148190556040518b9160008051602061562683398151915291610d4091888252602082015260400190565b60405180910390a25b897f26f6a048ee9138f2c0ce266f322cb99228e8d619ae2bff30c67f8dcf9d2377b48a8787604051610d7d93929190615168565b60405180910390a25050509550959350505050565b60008054610d9f906154fd565b80601f0160208091040260200160405190810160405280929190818152602001828054610dcb906154fd565b8015610e185780601f10610ded57610100808354040283529160200191610e18565b820191906000526020600020905b815481529060010190602001808311610dfb57829003601f168201915b505050505081565b60168181548110610e3057600080fd5b600091825260209091200154905081565b6000610b0460008051602061569883398151915283612170565b60008060005b83811015610eb45760168181548110610e8a57634e487b7160e01b600052603260045260246000fd5b906000526020600020015482610ea09190615237565b915080610eac81615532565b915050610e61565b508260011415610ef2576016600081548110610ee057634e487b7160e01b600052603260045260246000fd5b90600052602060002001549150610f23565b826012541415610f1357601454601154610f0c91906154a3565b9150610f23565b601454610f2090826154a3565b91505b50919050565b610f32336110ec565b610f4e5760405162461bcd60e51b8152600401610b2f90614fd0565b610b506000805160206156b8833981519152826111a7565b610f6f336110ec565b610f8b5760405162461bcd60e51b8152600401610b2f90614fd0565b6001600160a01b03831615801590610fb157506007546001600160a01b03848116911614155b610fec5760405162461bcd60e51b815260206004820152600c60248201526b73616d6520666163746f727960a01b6044820152606401610b2f565b6001600160a01b0382161580159061101257506008546001600160a01b03838116911614155b6110495760405162461bcd60e51b815260206004820152600860248201526773616d65206e706d60c01b6044820152606401610b2f565b6001600160a01b0381161580159061106f57506009546001600160a01b03828116911614155b6110ad5760405162461bcd60e51b815260206004820152600f60248201526e39b0b6b29039bbb0b82937baba32b960891b6044820152606401610b2f565b600780546001600160a01b039485166001600160a01b031991821617909155600880549385169382169390931790925560098054919093169116179055565b6000610b046000805160206156b883398151915283612170565b61110f336110ec565b61112b5760405162461bcd60e51b8152600401610b2f90614fd0565b610b50600080516020615698833981519152825b60008281526019602052604090206001015461115b8133613984565b61116583836139e8565b505050565b611173336110ec565b61118f5760405162461bcd60e51b8152600401610b2f90614fd0565b610b5060008051602061567883398151915282612957565b6001600160a01b03811633146112175760405162461bcd60e51b815260206004820152602f60248201527f416363657373436f6e74726f6c3a2063616e206f6e6c792072656e6f756e636560448201526e103937b632b9903337b91039b2b63360891b6064820152608401610b2f565b6112218282613a6e565b5050565b6003546001546000916001600160a01b039081169116866112565750506001546003546001600160a01b0391821691165b60095460408051610100810182526001600160a01b038581168252848116602083015262ffffff600160a01b8504169282019290925230606082015291169063414bf38990608081016112ab42612710615237565b815260208082018b905260408083018b90526001600160a01b038a8116606094850152815160e087811b6001600160e01b031916825286518316600483015293860151821660248201529185015162ffffff16604483015292840151831660648201526080840151608482015260a084015160a482015260c084015160c48201529201511660e482015261010401602060405180830381600087803b15801561135357600080fd5b505af1158015611367573d6000803e3d6000fd5b505050506040513d601f19601f8201168201806040525081019061138b9190614c57565b925086156113a957826014546113a19190615237565b6014556113bb565b856014546113b791906154a3565b6014555b601454604080516001600160a01b03858116825284166020820152808201899052606081018690526080810192909252517f8c0c4740096f74d0c98e75294b923e153984810c6df0b0aa2a96d81aeec231329181900360a00190a150505050505050565b6000610b046000805160206156d883398151915283612170565b6000610b0482613ad5565b61144d336110ec565b6114695760405162461bcd60e51b8152600401610b2f90614fd0565b825161147c9060009060208601906146f3565b50600180546001600160a01b0319166001600160a01b038481169190911790915560105461010090048116908216146111655760108054610100600160a81b0319166101006001600160a01b038416021790556114e76000805160206156b883398151915280613e0f565b601054611165906000805160206156b88339815191529061010090046001600160a01b0316613e5a565b61151a336110ec565b6115365760405162461bcd60e51b8152600401610b2f90614fd0565b600180546001600160a01b0319166001600160a01b0392909216919091179055565b611561336110ec565b61157d5760405162461bcd60e51b8152600401610b2f90614fd0565b610b506000805160206156b88339815191528261113f565b61159e336110ec565b6115ba5760405162461bcd60e51b8152600401610b2f90614fd0565b6001600160a01b03811661160b5760405162461bcd60e51b815260206004820152601860248201527741636365737369626c653a207a65726f206164647265737360401b6044820152606401610b2f565b336001600160a01b038216141561165d5760405162461bcd60e51b815260206004820152601660248201527520b1b1b2b9b9b4b136329d1039b0b6b29030b236b4b760511b6044820152606401610b2f565b6116756000805160206156b88339815191528261113f565b610b506000805160206156b8833981519152336111a7565b6007546001600160a01b0316158015906116b157506008546001600160a01b031615155b80156116c757506009546001600160a01b031615155b80156116dd57506002546001600160a01b031615155b80156116f357506003546001600160a01b031615155b801561170957506004546001600160a01b031615155b801561171f57506005546001600160a01b031615155b801561173557506006546001600160a01b031615155b6117515760405162461bcd60e51b8152600401610b2f90615072565b600754600354600154600954604051630b4c774160e11b81526000946001600160a01b0390811694631698ee82946117a09491831693921691600160a01b90910462ffffff1690600401614ee9565b60206040518083038186803b1580156117b857600080fd5b505afa1580156117cc573d6000803e3d6000fd5b505050506040513d601f19601f820116820180604052508101906117f0919061480b565b90506001600160a01b0381166118ed5760075460035460015460095460405163a167129560e01b81526000946001600160a01b039081169463a16712959461184f9491831693921691600160a01b90910462ffffff1690600401614ee9565b602060405180830381600087803b15801561186957600080fd5b505af115801561187d573d6000803e3d6000fd5b505050506040513d601f19601f820116820180604052508101906118a1919061480b565b90506001600160a01b0381166118eb5760405162461bcd60e51b815260206004820152600f60248201526e18dc99585d19541bdbdb0819985a5b608a1b6044820152606401610b2f565b505b600a80546001600160a01b0319166001600160a01b03831690811790915560408051630dfe168160e01b81529051630dfe168191600480820192602092909190829003018186803b15801561194157600080fd5b505afa158015611955573d6000803e3d6000fd5b505050506040513d601f19601f82011682018060405250810190611979919061480b565b600b80546001600160a01b0319166001600160a01b03928316179055600a546040805163d21220a760e01b81529051919092169163d21220a7916004808301926020929190829003018186803b1580156119d257600080fd5b505afa1580156119e6573d6000803e3d6000fd5b505050506040513d601f19601f82011682018060405250810190611a0a919061480b565b600c80546001600160a01b0319166001600160a01b039290921691909117905550565b600080600080600960149054906101000a900462ffffff16611a4d61219b565b611a59906000196152c3565b611a6391906152c3565b600954909150600090600160a01b900462ffffff16611a8061219b565b611a8a91906152c3565b600954909150600090600160a01b900462ffffff16611aa9848461541d565b611ab3919061524f565b611abe906001615210565b9296919550919350915050565b6008546040805160808101825285815230602082019081526001600160801b0386811683850190815286821660608501908152945163fc6f786560e01b81529351600485015291516001600160a01b039081166024850152915181166044840152925190921660648201526000928392169063fc6f7865906084016040805180830381600087803b158015611b5f57600080fd5b505af1158015611b73573d6000803e3d6000fd5b505050506040513d601f19601f82011682018060405250810190611b979190614d4a565b600154600b549294509092506001600160a01b039182169116148015611bbd5750600082115b15611c095781601454611bd09190615237565b6014819055604051869160008051602061562683398151915291611bfc91868252602082015260400190565b60405180910390a2611c71565b600154600c546001600160a01b039081169116148015611c295750600081115b15611c715780601454611c3c9190615237565b6014819055604051869160008051602061562683398151915291611c6891858252602082015260400190565b60405180910390a25b604080518381526020810183905286917f8197a21f6433687c876eb0abd2bbe09ec2b9a677ff4af87e87185816ab16b061910160405180910390a2935093915050565b600a546001600160a01b031680611cdd5760405162461bcd60e51b8152600401610b2f90614f6c565b600a5460408051633850c7bd60e01b815290516000926001600160a01b031691633850c7bd9160048083019260e0929190829003018186803b158015611d2257600080fd5b505afa158015611d36573d6000803e3d6000fd5b505050506040513d601f19601f82011682018060405250810190611d5a9190614bc1565b5050505050509050806001600160a01b03166000141561116557600a5460405163f637731d60e01b81526001600160a01b039091169063f637731d90611da4908690600401614ed5565b600060405180830381600087803b158015611dbe57600080fd5b505af1158015611dd2573d6000803e3d6000fd5b50505050505050565b611de4336110ec565b611e005760405162461bcd60e51b8152600401610b2f90614fd0565b6001600160a01b03861615801590611e2657506004546001600160a01b03878116911614155b611e665760405162461bcd60e51b81526020600482015260116024820152701cd85b59481dd95d1a155cd918d41bdbdb607a1b6044820152606401610b2f565b6001600160a01b03851615801590611e8c57506005546001600160a01b03868116911614155b611ecc5760405162461bcd60e51b81526020600482015260116024820152701cd85b59481ddd1bdb95d95d1a141bdbdb607a1b6044820152606401610b2f565b6001600160a01b03841615801590611ef257506006546001600160a01b03858116911614155b611f315760405162461bcd60e51b815260206004820152601060248201526f1cd85b59481ddd1bdb951bdcd41bdbdb60821b6044820152606401610b2f565b6001600160a01b03831615801590611f5757506002546001600160a01b03848116911614155b611f8f5760405162461bcd60e51b815260206004820152600960248201526839b0b6b2903bba37b760b91b6044820152606401610b2f565b6001600160a01b03821615801590611fb557506003546001600160a01b03838116911614155b611fec5760405162461bcd60e51b815260206004820152600860248201526773616d6520746f7360c01b6044820152606401610b2f565b600480546001600160a01b03199081166001600160a01b03988916179091556005805482169688169690961790955560068054861694871694909417909355600280548516928616929092179091556003805490931693169290921790556009805462ffffff60a01b1916600160a01b62ffffff90931692909202919091179055565b6012546000905b801561216c57601560008154811061209e57634e487b7160e01b600052603260045260246000fd5b90600052602060002001544210156120b9576000915061215a565b60156120c66001836154a3565b815481106120e457634e487b7160e01b600052603260045260246000fd5b9060005260206000200154421080156120fc57508015155b156121135761210c6001826154a3565b915061215a565b6015600160125461212491906154a3565b8154811061214257634e487b7160e01b600052603260045260246000fd5b906000526020600020015442111561215a5760125491505b80612164816154e6565b915050612076565b5090565b60009182526019602090815260408084206001600160a01b0393909316845291905290205460ff1690565b600954600090600160a01b900462ffffff166121ba620d89e719615561565b6121c4919061524f565b905090565b60008060005b83811015610eb457601781815481106121f857634e487b7160e01b600052603260045260246000fd5b90600052602060002001546016828154811061222457634e487b7160e01b600052603260045260246000fd5b90600052602060002001548361223a9190615237565b6122449190615237565b91508061225081615532565b9150506121cf565b612261336110ec565b61227d5760405162461bcd60e51b8152600401610b2f90614fd0565b610b506000805160206156788339815191528261113f565b6000610b0482613e64565b6122a9336110ec565b6122c55760405162461bcd60e51b8152600401610b2f90614fd0565b6007546001600160a01b0316158015906122e957506008546001600160a01b031615155b80156122ff57506009546001600160a01b031615155b801561231557506002546001600160a01b031615155b801561232b57506003546001600160a01b031615155b801561234157506004546001600160a01b031615155b801561235757506005546001600160a01b031615155b801561236d57506006546001600160a01b031615155b6123895760405162461bcd60e51b8152600401610b2f90615072565b6001546040516370a0823160e01b81526001600160a01b03909116906370a08231906123b9903090600401614ed5565b60206040518083038186803b1580156123d157600080fd5b505afa1580156123e5573d6000803e3d6000fd5b505050506040513d601f19601f820116820180604052508101906124099190614c57565b8611156124525760405162461bcd60e51b81526020600482015260176024820152763732b2b2103a379034b7383aba103a3432903a37b5b2b760491b6044820152606401610b2f565b6011869055601285905560005b85811015611dd257601585858381811061248957634e487b7160e01b600052603260045260246000fd5b835460018101855560009485526020948590209185029390930135920191909155506040805160608101909152602e80825261251f926156f89083013982601584815481106124e857634e487b7160e01b600052603260045260246000fd5b906000526020600020015488888681811061251357634e487b7160e01b600052603260045260246000fd5b90506020020135614277565b601683838381811061254157634e487b7160e01b600052603260045260246000fd5b83546001810185556000948552602094859020918502939093013592019190915550604080516060810190915260328082526125a0926156469083013982601584815481106124e857634e487b7160e01b600052603260045260246000fd5b6017805460018101825560009182527fc624b66cc0138b8fabc209247f72d758e1cf3343756d543badbf24212bed8c150155806125dc81615532565b91505061245f565b6000836001600160a01b03811661260d5760405162461bcd60e51b8152600401610b2f90614f6c565b836001600160a01b0381166126345760405162461bcd60e51b8152600401610b2f90614f6c565b83600081116126795760405162461bcd60e51b81526020600482015260116024820152705661756c743a207a65726f2076616c756560781b6044820152606401610b2f565b60405163095ea7b360e01b81526001600160a01b0388169063095ea7b3906126a79089908990600401614f11565b602060405180830381600087803b1580156126c157600080fd5b505af11580156126d5573d6000803e3d6000fd5b505050506040513d601f19601f820116820180604052508101906126f99190614989565b979650505050505050565b6000610b0460008051602061567883398151915283612170565b612727336110ec565b6127435760405162461bcd60e51b8152600401610b2f90614fd0565b600d91909155600e55565b6003546040516370a0823160e01b815283916001600160a01b0316906370a082319061277e903090600401614ed5565b60206040518083038186803b15801561279657600080fd5b505afa1580156127aa573d6000803e3d6000fd5b505050506040513d601f19601f820116820180604052508101906127ce9190614c57565b10156128135760405162461bcd60e51b81526020600482015260146024820152733a37b99034b99034b739bab33334b1b4b2b73a1760611b6044820152606401610b2f565b6001546040516370a0823160e01b815282916001600160a01b0316906370a0823190612843903090600401614ed5565b60206040518083038186803b15801561285b57600080fd5b505afa15801561286f573d6000803e3d6000fd5b505050506040513d601f19601f820116820180604052508101906128939190614c57565b10156112215760405162461bcd60e51b81526020600482015260166024820152753a37b5b2b71034b99034b739bab33334b1b4b2b73a1760511b6044820152606401610b2f565b60178181548110610e3057600080fd5b6128f3336110ec565b61290f5760405162461bcd60e51b8152600401610b2f90614fd0565b600081116129525760405162461bcd60e51b815260206004820152601060248201526f7a65726f205f70657263656e7461676560801b6044820152606401610b2f565b600f55565b6000828152601960205260409020600101546129738133613984565b6111658383613a6e565b6040516323b872dd60e01b81526001600160a01b0384811660048301528381166024830152604482018390528516906323b872dd90606401602060405180830381600087803b1580156129cf57600080fd5b505af11580156129e3573d6000803e3d6000fd5b505050506040513d601f19601f82011682018060405250810190612a079190614989565b5050505050565b612a17336110ec565b612a335760405162461bcd60e51b8152600401610b2f90614fd0565b6014546011541115612a745760405162461bcd60e51b815260206004820152600a6024820152691b9bdd0818db1bdcd95960b21b6044820152606401610b2f565b6040516370a0823160e01b815281906001600160a01b038516906370a0823190612aa2903090600401614ed5565b60206040518083038186803b158015612aba57600080fd5b505afa158015612ace573d6000803e3d6000fd5b505050506040513d601f19601f82011682018060405250810190612af29190614c57565b1015612b395760405162461bcd60e51b81526020600482015260166024820152752b30bab63a1d103237b73a103430bb32903a37b5b2b760511b6044820152606401610b2f565b612b4d6001600160a01b03841683836142c6565b604080513381526001600160a01b0385811660208301528416818301526060810183905290517f342e7ff505a8a0364cd0dc2ff195c315e43bce86b204846ecd36913e117b109e9181900360800190a1505050565b600a54600090819081906001600160a01b031680612bd25760405162461bcd60e51b8152600401610b2f90614f6c565b600b546001600160a01b031680612bfb5760405162461bcd60e51b8152600401610b2f90614f6c565b600c546001600160a01b031680612c245760405162461bcd60e51b8152600401610b2f90614f6c565b6015600081548110612c4657634e487b7160e01b600052603260045260246000fd5b90600052602060002001544211612c6f5760405162461bcd60e51b8152600401610b2f90615012565b60145460115411612c925760405162461bcd60e51b8152600401610b2f90615042565b6000612c9c61206f565b90506000612ca9826121c9565b600354600b549192506001600160a01b03918216911614612ce957808b1115612ce45760405162461bcd60e51b8152600401610b2f90614f99565b612d09565b808a1115612d095760405162461bcd60e51b8152600401610b2f90614f99565b60138290556008546040805160c0810182528e8152602081018e90528082018d9052600060608201819052608082015260a081018c9052905163219f5d1760e01b81526001600160a01b039092169163219f5d1791612da991600401600060c082019050825182526020830151602083015260408301516040830152606083015160608301526080830151608083015260a083015160a083015292915050565b606060405180830381600087803b158015612dc357600080fd5b505af1158015612dd7573d6000803e3d6000fd5b505050506040513d601f19601f82011682018060405250810190612dfb9190614b8b565b600154600b54939b5091995097506001600160a01b0391821691161415612e635786601454612e2a9190615237565b60148190556040518d9160008051602061562683398151915291612e56918b8252602082015260400190565b60405180910390a2612ea6565b85601454612e719190615237565b60148190556040518d9160008051602061562683398151915291612e9d918a8252602082015260400190565b60405180910390a25b8b7f3067048beee31b25b2f1681f88dac838c8bba36af25bfb2b7cf7473a5847e35f898989604051612eda93929190615168565b60405180910390a250505050509450945094915050565b60158181548110610e3057600080fd5b612f0a336110ec565b612f265760405162461bcd60e51b8152600401610b2f90614fd0565b610b5060008051602061569883398151915282612957565b612f47336110ec565b612f635760405162461bcd60e51b8152600401610b2f90614fd0565b610b506000805160206156d88339815191528261113f565b600080600080600080612f8c611a2d565b92509250925060006103e8600f548362ffffff16612faa91906153cf565b612fb49190615289565b600954909150600090612fd390600160a01b900462ffffff16836152c3565b90506000612fe1828b61541d565b90506000612fef838c615189565b905060028b900b6130008489615189565b60020b131561300d578691505b60028b900b61301c848861541d565b60020b12156130285750845b818161304062ffffff88166001600160801b03615289565b995099509950505050505050509193909250565b600a546001600160a01b03168061307d5760405162461bcd60e51b8152600401610b2f90614f6c565b600b546001600160a01b0316806130a65760405162461bcd60e51b8152600401610b2f90614f6c565b600c546001600160a01b0316806130cf5760405162461bcd60e51b8152600401610b2f90614f6c565b60156000815481106130f157634e487b7160e01b600052603260045260246000fd5b9060005260206000200154421161311a5760405162461bcd60e51b8152600401610b2f90615012565b6014546011541161313d5760405162461bcd60e51b8152600401610b2f90615042565b600061314761206f565b90506000613154826121c9565b9050808611156131765760405162461bcd60e51b8152600401610b2f90614f99565b6013829055600a5460408051633850c7bd60e01b815290516000926001600160a01b031691633850c7bd9160048083019260e0929190829003018186803b1580156131c057600080fd5b505afa1580156131d4573d6000803e3d6000fd5b505050506040513d601f19601f820116820180604052508101906131f89190614bc1565b50505050509150508060020b8a60020b12801561321a57508860020b8160020b125b6132555760405162461bcd60e51b815260206004820152600c60248201526b6f7574206f662072616e676560a01b6044820152606401610b2f565b6000881180156132655750600087115b6132bd5760405162461bcd60e51b815260206004820152602360248201527f7a65726f20746f73557365416d6f756e74206f7220746f6b656e557365416d6f6044820152621d5b9d60ea1b6064820152608401610b2f565b600354600b54899189916001600160a01b039081169116146132df5750879050885b6132e98a8a61274e565b600354600854604051636eb1769f60e11b81523060048201526001600160a01b03918216602482015291169063dd62ed3e9060440160206040518083038186803b15801561333657600080fd5b505afa15801561334a573d6000803e3d6000fd5b505050506040513d601f19601f8201168201806040525081019061336e9190614c57565b8a11156134ad57600354600854604080516318160ddd60e01b815290516001600160a01b039384169363095ea7b393169184916318160ddd91600480820192602092909190829003018186803b1580156133c757600080fd5b505afa1580156133db573d6000803e3d6000fd5b505050506040513d601f19601f820116820180604052508101906133ff9190614c57565b6040518363ffffffff1660e01b815260040161341c929190614f11565b602060405180830381600087803b15801561343657600080fd5b505af115801561344a573d6000803e3d6000fd5b505050506040513d601f19601f8201168201806040525081019061346e9190614989565b6134ad5760405162461bcd60e51b815260206004820152601060248201526f1513d4c8185c1c1c9bdd994819985a5b60821b6044820152606401610b2f565b600154600854604051636eb1769f60e11b81523060048201526001600160a01b03918216602482015291169063dd62ed3e9060440160206040518083038186803b1580156134fa57600080fd5b505afa15801561350e573d6000803e3d6000fd5b505050506040513d601f19601f820116820180604052508101906135329190614c57565b89111561367357600154600854604080516318160ddd60e01b815290516001600160a01b039384169363095ea7b393169184916318160ddd91600480820192602092909190829003018186803b15801561358b57600080fd5b505afa15801561359f573d6000803e3d6000fd5b505050506040513d601f19601f820116820180604052508101906135c39190614c57565b6040518363ffffffff1660e01b81526004016135e0929190614f11565b602060405180830381600087803b1580156135fa57600080fd5b505af115801561360e573d6000803e3d6000fd5b505050506040513d601f19601f820116820180604052508101906136329190614989565b6136735760405162461bcd60e51b81526020600482015260126024820152711d1bdad95b88185c1c1c9bdd994819985a5b60721b6044820152606401610b2f565b6008546040805161016081018252600b546001600160a01b039081168252600c5481166020830152600954600160a01b900462ffffff169282019290925260028f810b60608301528e900b608082015260a0810185905260c08101849052600060e082018190526101008201819052306101208301528f938f939192839283928392911690638831645690610140810161371042620186a0615237565b8152506040518263ffffffff1660e01b815260040161372f91906150a4565b608060405180830381600087803b15801561374957600080fd5b505af115801561375d573d6000803e3d6000fd5b505050506040513d601f19601f820116820180604052508101906137819190614ca5565b600354600b5494985092965090945092506001600160a01b039182169116146137eb57816014546137b29190615237565b60148190556040518591600080516020615626833981519152916137de91868252602082015260400190565b60405180910390a261382e565b806014546137f99190615237565b601481905560405185916000805160206156268339815191529161382591858252602082015260400190565b60405180910390a25b604080518581526001600160801b03851660208201529081018390526060810182905233907f71659f3c37bc384517d2440e2bcc5bb9753186ff4379336074763d3c0dbd0e4b9060800160405180910390a2505050505050505050505050505050505050565b61389d336110ec565b6138b95760405162461bcd60e51b8152600401610b2f90614fd0565b6007546001600160a01b0316158015906138dd57506008546001600160a01b031615155b80156138f357506009546001600160a01b031615155b801561390957506002546001600160a01b031615155b801561391f57506003546001600160a01b031615155b801561393557506004546001600160a01b031615155b801561394b57506005546001600160a01b031615155b801561396157506006546001600160a01b031615155b61397d5760405162461bcd60e51b8152600401610b2f90615072565b6000601455565b61398e8282612170565b611221576139a6816001600160a01b0316601461431c565b6139b183602061431c565b6040516020016139c2929190614e66565b60408051601f198184030181529082905262461bcd60e51b8252610b2f91600401614f2a565b6139f28282612170565b6112215760008281526019602090815260408083206001600160a01b03851684529091529020805460ff19166001179055613a2a3390565b6001600160a01b0316816001600160a01b0316837f2f8788117e7eff1d82e926ec794901d17c78024a50270940304540a733656f0d60405160405180910390a45050565b613a788282612170565b156112215760008281526019602090815260408083206001600160a01b0385168085529252808320805460ff1916905551339285917ff6391f5c32d9c69d2a47ea670b442974b53935d1edc7fd64eb21e047a839171b9190a45050565b60006401000276a36001600160a01b03831610801590613b11575073fffd8963efd1fc6a506488495d951d5263988d266001600160a01b038316105b613b415760405162461bcd60e51b81526020600482015260016024820152602960f91b6044820152606401610b2f565b640100000000600160c01b03602083901b166001600160801b03811160071b81811c67ffffffffffffffff811160061b90811c63ffffffff811160051b90811c61ffff811160041b90811c60ff8111600390811b91821c600f811160021b90811c918211600190811b92831c97908811961790941790921717909117171760808110613bdc57613bd2607f826154a3565b83901c9150613bed565b613be781607f6154a3565b83901b91505b60006040613bfc608084615464565b901b9050828302607f1c92508260801c80603f1b8217915083811c935050828302607f1c92508260801c80603e1b8217915083811c935050828302607f1c92508260801c80603d1b8217915083811c935050828302607f1c92508260801c80603c1b8217915083811c935050828302607f1c92508260801c80603b1b8217915083811c935050828302607f1c92508260801c80603a1b8217915083811c935050828302607f1c92508260801c8060391b8217915083811c935050828302607f1c92508260801c8060381b8217915083811c935050828302607f1c92508260801c8060371b8217915083811c935050828302607f1c92508260801c8060361b8217915083811c935050828302607f1c92508260801c8060351b8217915083811c935050828302607f1c92508260801c8060341b8217915083811c935050828302607f1c92508260801c8060331b8217915083811c935050828302607f1c92508260801c8060321b8217915050600081693627a301d71055774c85613d7f919061534c565b905060006080613d9f6f028f6481ab7f045a5af012a19d003aaa84615464565b901d905060006080613dc1846fdb2df09e81959a81455e260799a0632f6151cf565b901d90508060020b8260020b14613e0057886001600160a01b0316613de582613e64565b6001600160a01b03161115613dfa5781613e02565b80613e02565b815b9998505050505050505050565b600082815260196020526040808220600101805490849055905190918391839186917fbd79b86ffe0ab8e8776151514217cd7cacd52c909f66475c3af44e129f0b00ff9190a4505050565b61122182826139e8565b60008060008360020b12613e7b578260020b613e88565b8260020b613e8890615582565b9050613e97620d89e719615561565b60020b811115613ecd5760405162461bcd60e51b81526020600482015260016024820152601560fa1b6044820152606401610b2f565b600060018216613ee157600160801b613ef3565b6ffffcb933bd6fad37aa2d162d1a5940015b6001600160881b031690506002821615613f28576080613f23826ffff97272373d413259a46990580e213a6153fe565b901c90505b6004821615613f52576080613f4d826ffff2e50f5f656932ef12357cf3c7fdcc6153fe565b901c90505b6008821615613f7c576080613f77826fffe5caca7e10e4e61c3624eaa0941cd06153fe565b901c90505b6010821615613fa6576080613fa1826fffcb9843d60f6159c9db58835c9266446153fe565b901c90505b6020821615613fd0576080613fcb826fff973b41fa98c081472e6896dfb254c06153fe565b901c90505b6040821615613ffa576080613ff5826fff2ea16466c96a3843ec78b326b528616153fe565b901c90505b608082161561402457608061401f826ffe5dee046a99a2a811c461f1969c30536153fe565b901c90505b61010082161561404f57608061404a826ffcbe86c7900a88aedcffc83b479aa3a46153fe565b901c90505b61020082161561407a576080614075826ff987a7253ac413176f2b074cf7815e546153fe565b901c90505b6104008216156140a55760806140a0826ff3392b0822b70005940c7a398e4b70f36153fe565b901c90505b6108008216156140d05760806140cb826fe7159475a2c29b7443b29c7fa6e889d96153fe565b901c90505b6110008216156140fb5760806140f6826fd097f3bdfd2022b8845ad8f792aa58256153fe565b901c90505b612000821615614126576080614121826fa9f746462d870fdf8a65dc1f90e061e56153fe565b901c90505b61400082161561415157608061414c826f70d869a156d2a1b890bb3df62baf32f76153fe565b901c90505b61800082161561417c576080614177826f31be135f97d08fd981231505542fcfa66153fe565b901c90505b620100008216156141a85760806141a3826f09aa508b5b7a84e1c677de54f3e99bc96153fe565b901c90505b620200008216156141d35760806141ce826e5d6af8dedb81196699c329225ee6046153fe565b901c90505b620400008216156141fd5760806141f8826d2216e584f5fa1ea926041bedfe986153fe565b901c90505b62080000821615614225576080614220826b048a170391f7dc42444e8fa26153fe565b901c90505b60008460020b13156142405761423d816000196152af565b90505b61424f6401000000008261554d565b1561425b57600161425e565b60005b61426f9060ff16602083901c615237565b949350505050565b6142c0848484846040516024016142919493929190614f3d565b60408051601f198184030181529190526020810180516001600160e01b03166304772b3360e11b179052614505565b50505050565b6111658363a9059cbb60e01b84846040516024016142e5929190614f11565b60408051601f198184030181529190526020810180516001600160e01b03166001600160e01b031990931692909217909152614526565b6060600061432b8360026153fe565b614336906002615237565b67ffffffffffffffff81111561435c57634e487b7160e01b600052604160045260246000fd5b6040519080825280601f01601f191660200182016040528015614386576020820181803683370190505b509050600360fc1b816000815181106143af57634e487b7160e01b600052603260045260246000fd5b60200101906001600160f81b031916908160001a905350600f60fb1b816001815181106143ec57634e487b7160e01b600052603260045260246000fd5b60200101906001600160f81b031916908160001a90535060006144108460026153fe565b61441b906001615237565b90505b60018111156144af576f181899199a1a9b1b9c1cb0b131b232b360811b85600f166010811061445d57634e487b7160e01b600052603260045260246000fd5b1a60f81b82828151811061448157634e487b7160e01b600052603260045260246000fd5b60200101906001600160f81b031916908160001a90535060049490941c936144a8816154e6565b905061441e565b5083156144fe5760405162461bcd60e51b815260206004820181905260248201527f537472696e67733a20686578206c656e67746820696e73756666696369656e746044820152606401610b2f565b9392505050565b80516a636f6e736f6c652e6c6f67602083016000808483855afa5050505050565b600061457b826040518060400160405280602081526020017f5361666545524332303a206c6f772d6c6576656c2063616c6c206661696c6564815250856001600160a01b03166145f89092919063ffffffff16565b80519091501561116557808060200190518101906145999190614989565b6111655760405162461bcd60e51b815260206004820152602a60248201527f5361666545524332303a204552433230206f7065726174696f6e20646964206e6044820152691bdd081cdd58d8d9595960b21b6064820152608401610b2f565b606061426f848460008585843b6146515760405162461bcd60e51b815260206004820152601d60248201527f416464726573733a2063616c6c20746f206e6f6e2d636f6e74726163740000006044820152606401610b2f565b600080866001600160a01b0316858760405161466d9190614e4a565b60006040518083038185875af1925050503d80600081146146aa576040519150601f19603f3d011682016040523d82523d6000602084013e6146af565b606091505b50915091506126f9828286606083156146c95750816144fe565b8251156146d95782518084602001fd5b8160405162461bcd60e51b8152600401610b2f9190614f2a565b8280546146ff906154fd565b90600052602060002090601f0160209004810192826147215760008555614767565b82601f1061473a57805160ff1916838001178555614767565b82800160010185558215614767579182015b8281111561476757825182559160200191906001019061474c565b5061216c9291505b8082111561216c576000815560010161476f565b803561478e816155de565b919050565b60008083601f8401126147a4578081fd5b50813567ffffffffffffffff8111156147bb578182fd5b6020830191508360208260051b85010111156147d657600080fd5b9250929050565b805161ffff8116811461478e57600080fd5b600060208284031215614800578081fd5b81356144fe816155de565b60006020828403121561481c578081fd5b81516144fe816155de565b60008060006060848603121561483b578182fd5b8335614846816155de565b92506020840135614856816155de565b91506040840135614866816155de565b809150509250925092565b60008060008060008060c08789031215614889578182fd5b8635614894816155de565b955060208701356148a4816155de565b945060408701356148b4816155de565b935060608701356148c4816155de565b925060808701356148d4816155de565b915060a087013562ffffff811681146148eb578182fd5b809150509295509295509295565b6000806000806080858703121561490e578384fd5b8435614919816155de565b93506020850135614929816155de565b92506040850135614939816155de565b9396929550929360600135925050565b60008060006060848603121561495d578283fd5b8335614968816155de565b92506020840135614978816155de565b929592945050506040919091013590565b60006020828403121561499a578081fd5b81516144fe816155f3565b600080600080608085870312156149ba578182fd5b84356149c5816155f3565b9350602085013592506040850135915060608501356149e3816155de565b939692955090935050565b6000602082840312156149ff578081fd5b5035919050565b60008060408385031215614a18578182fd5b823591506020830135614a2a816155de565b809150509250929050565b600060208284031215614a46578081fd5b81356001600160e01b0319811681146144fe578182fd5b600060208284031215614a6e578081fd5b81356144fe81615601565b60008060008060808587031215614a8e578182fd5b8435614a9981615601565b93506020850135614aa981615601565b93969395505050506040820135916060013590565b600080600060608486031215614ad2578081fd5b833567ffffffffffffffff80821115614ae9578283fd5b818601915086601f830112614afc578283fd5b813581811115614b0e57614b0e6155c8565b604051601f8201601f19908116603f01168101908382118183101715614b3657614b366155c8565b81604052828152896020848701011115614b4e578586fd5b8260208601602083013785602084830101528097505050505050614b7460208501614783565b9150614b8260408501614783565b90509250925092565b600080600060608486031215614b9f578081fd5b8351614baa81615610565b602085015160409095015190969495509392505050565b600080600080600080600060e0888a031215614bdb578485fd5b8751614be6816155de565b6020890151909750614bf781615601565b9550614c05604089016147dd565b9450614c13606089016147dd565b9350614c21608089016147dd565b925060a088015160ff81168114614c36578182fd5b60c0890151909250614c47816155f3565b8091505092959891949750929550565b600060208284031215614c68578081fd5b5051919050565b600080600060608486031215614c83578081fd5b833592506020840135614c9581615610565b9150604084013561486681615610565b60008060008060808587031215614cba578182fd5b845193506020850151614ccc81615610565b6040860151606090960151949790965092505050565b600080600080600060a08688031215614cf9578283fd5b853594506020860135614d0b81615610565b94979496505050506040830135926060810135926080909101359150565b60008060408385031215614d3b578182fd5b50508035926020909101359150565b60008060408385031215614d5c578182fd5b505080516020909101519092909150565b60008060008060008060808789031215614d85578384fd5b8635955060208701359450604087013567ffffffffffffffff80821115614daa578586fd5b614db68a838b01614793565b90965094506060890135915080821115614dce578384fd5b50614ddb89828a01614793565b979a9699509497509295939492505050565b60008060008060808587031215614e02578182fd5b5050823594602084013594506040840135936060013592509050565b60008151808452614e368160208601602086016154ba565b601f01601f19169290920160200192915050565b60008251614e5c8184602087016154ba565b9190910192915050565b76020b1b1b2b9b9a1b7b73a3937b61d1030b1b1b7bab73a1604d1b815260008351614e988160178501602088016154ba565b7001034b99036b4b9b9b4b733903937b6329607d1b6017918401918201528351614ec98160288401602088016154ba565b01602801949350505050565b6001600160a01b0391909116815260200190565b6001600160a01b03938416815291909216602082015262ffffff909116604082015260600190565b6001600160a01b03929092168252602082015260400190565b6020815260006144fe6020830184614e1e565b608081526000614f506080830187614e1e565b6020830195909552506040810192909252606090910152919050565b6020808252601390820152725661756c743a207a65726f206164647265737360681b604082015260600190565b6020808252601a908201527f65786365656420746f20636c61696d61626c6520616d6f756e74000000000000604082015260600190565b60208082526022908201527f41636365737369626c653a2043616c6c6572206973206e6f7420616e2061646d60408201526134b760f11b606082015260800190565b60208082526016908201527515985d5b1d0e881b9bdd081cdd185c9d1959081e595d60521b604082015260600190565b60208082526016908201527515985d5b1d0e88185b1c9958591e48105b1b0819d95d60521b604082015260600190565b60208082526018908201527705661756c743a206265666f726520736574556e69737761760441b604082015260600190565b81516001600160a01b03168152610160810160208301516150d060208401826001600160a01b03169052565b5060408301516150e7604084018262ffffff169052565b5060608301516150fc606084018260020b9052565b506080830151615111608084018260020b9052565b5060a083015160a083015260c083015160c083015260e083015160e083015261010080840151818401525061012080840151615157828501826001600160a01b03169052565b505061014092830151919092015290565b6001600160801b039390931683526020830191909152604082015260600190565b60008160020b8360020b82821282627fffff038213811516156151ae576151ae61559c565b82627fffff190382128116156151c6576151c661559c565b50019392505050565b600080821280156001600160ff1b03849003851316156151f1576151f161559c565b600160ff1b839003841281161561520a5761520a61559c565b50500190565b600062ffffff80831681851680830382111561522e5761522e61559c565b01949350505050565b6000821982111561524a5761524a61559c565b500190565b60008160020b8360020b80615266576152666155b2565b627fffff198214600019821416156152805761528061559c565b90059392505050565b60006001600160801b03838116806152a3576152a36155b2565b92169190910492915050565b6000826152be576152be6155b2565b500490565b60008160020b8360020b627fffff838213848413838304851182821616156152ed576152ed61559c565b627fffff198685128281168783058712161561530b5761530b61559c565b8787129250858205871284841616156153265761532661559c565b8585058712818416161561533c5761533c61559c565b5050509290910295945050505050565b60006001600160ff1b03818413828413808216868404861116156153725761537261559c565b600160ff1b848712828116878305891216156153905761539061559c565b8587129250878205871284841616156153ab576153ab61559c565b878505871281841616156153c1576153c161559c565b505050929093029392505050565b60006001600160801b03828116848216811515828404821116156153f5576153f561559c565b02949350505050565b60008160001904831182151516156154185761541861559c565b500290565b60008160020b8360020b82811281627fffff19018312811516156154435761544361559c565b81627fffff01831381161561545a5761545a61559c565b5090039392505050565b60008083128015600160ff1b8501841216156154825761548261559c565b6001600160ff1b038401831381161561549d5761549d61559c565b50500390565b6000828210156154b5576154b561559c565b500390565b60005b838110156154d55781810151838201526020016154bd565b838111156142c05750506000910152565b6000816154f5576154f561559c565b506000190190565b600181811c9082168061551157607f821691505b60208210811415610f2357634e487b7160e01b600052602260045260246000fd5b60006000198214156155465761554661559c565b5060010190565b60008261555c5761555c6155b2565b500690565b60008160020b627fffff1981141561557b5761557b61559c565b9003919050565b6000600160ff1b8214156155985761559861559c565b0390565b634e487b7160e01b600052601160045260246000fd5b634e487b7160e01b600052601260045260246000fd5b634e487b7160e01b600052604160045260246000fd5b6001600160a01b0381168114610b5057600080fd5b8015158114610b5057600080fd5b8060020b8114610b5057600080fd5b6001600160801b0381168114610b5057600080fdfed16b1baf5a6367aef04997ff7695583fd3c7b775ba5d24a74c7ae3f33582f32c636c61696d416d6f756e74735b272573275d203a20272573272c205f636c61696d416d6f756e74735b695d203a2027257327f0887ba65ee2024ea881d91b74c2450ef19e1557f03bed3ea9f16b037cbe2dc9e5667d34d7ea8d6fdb3aa71a0a5b85e4cf7f68356dd003cd638556b0eea2bce5df8b4c520ffe197c5343c6f5aec59570151ef9a492f2c624fd45ddde6135ec429667e80708b6eeeb0053fa0cca44e028ff548e2a9f029edfeac87c118b08b7c8636c61696d54696d65735b272573275d203a20272573272c205f636c61696d54696d65735b695d203a2027257327a2646970667358221220251b416e61e891ee4a8a1d65792e9323ba7f42b9433d2223a15d997fd49c08e364736f6c63430008040033df8b4c520ffe197c5343c6f5aec59570151ef9a492f2c624fd45ddde6135ec42",
  "linkReferences": {},
  "deployedLinkReferences": {}
}