{
  "_format": "hh-sol-artifact-1",
  "contractName": "LiquidityVault",
  "sourceName": "contracts/typeDVault/LiquidityVault.sol",
  "abi": [
    {
      "inputs": [],
      "stateMutability": "nonpayable",
      "type": "constructor"
    },
    {
      "anonymous": false,
      "inputs": [
        {
          "indexed": true,
          "internalType": "uint256",
          "name": "tokenId",
          "type": "uint256"
        },
        {
          "indexed": false,
          "internalType": "uint256",
          "name": "amount",
          "type": "uint256"
        },
        {
          "indexed": false,
          "internalType": "uint256",
          "name": "totalClaimsAmount",
          "type": "uint256"
        }
      ],
      "name": "Claimed",
      "type": "event"
    },
    {
      "anonymous": false,
      "inputs": [
        {
          "indexed": true,
          "internalType": "uint256",
          "name": "tokenId",
          "type": "uint256"
        },
        {
          "indexed": false,
          "internalType": "uint256",
          "name": "amount0",
          "type": "uint256"
        },
        {
          "indexed": false,
          "internalType": "uint256",
          "name": "amount1",
          "type": "uint256"
        }
      ],
      "name": "CollectInVault",
      "type": "event"
    },
    {
      "anonymous": false,
      "inputs": [
        {
          "indexed": true,
          "internalType": "uint256",
          "name": "tokenId",
          "type": "uint256"
        },
        {
          "indexed": false,
          "internalType": "uint128",
          "name": "liquidity",
          "type": "uint128"
        },
        {
          "indexed": false,
          "internalType": "uint256",
          "name": "amount0",
          "type": "uint256"
        },
        {
          "indexed": false,
          "internalType": "uint256",
          "name": "amount1",
          "type": "uint256"
        }
      ],
      "name": "DecreaseLiquidityInVault",
      "type": "event"
    },
    {
      "anonymous": false,
      "inputs": [
        {
          "indexed": true,
          "internalType": "uint256",
          "name": "tokenId",
          "type": "uint256"
        },
        {
          "indexed": false,
          "internalType": "uint128",
          "name": "liquidity",
          "type": "uint128"
        },
        {
          "indexed": false,
          "internalType": "uint256",
          "name": "amount0",
          "type": "uint256"
        },
        {
          "indexed": false,
          "internalType": "uint256",
          "name": "amount1",
          "type": "uint256"
        }
      ],
      "name": "IncreaseLiquidityInVault",
      "type": "event"
    },
    {
      "anonymous": false,
      "inputs": [
        {
          "indexed": false,
          "internalType": "uint256",
          "name": "_totalAllocatedAmount",
          "type": "uint256"
        },
        {
          "indexed": false,
          "internalType": "uint256",
          "name": "_claimCounts",
          "type": "uint256"
        },
        {
          "indexed": false,
          "internalType": "uint256[]",
          "name": "_claimTimes",
          "type": "uint256[]"
        },
        {
          "indexed": false,
          "internalType": "uint256[]",
          "name": "_claimAmounts",
          "type": "uint256[]"
        }
      ],
      "name": "Initialized",
      "type": "event"
    },
    {
      "anonymous": false,
      "inputs": [
        {
          "indexed": true,
          "internalType": "address",
          "name": "caller",
          "type": "address"
        },
        {
          "indexed": false,
          "internalType": "uint256",
          "name": "tokenId",
          "type": "uint256"
        },
        {
          "indexed": false,
          "internalType": "uint128",
          "name": "liquidity",
          "type": "uint128"
        },
        {
          "indexed": false,
          "internalType": "uint256",
          "name": "amount0",
          "type": "uint256"
        },
        {
          "indexed": false,
          "internalType": "uint256",
          "name": "amount1",
          "type": "uint256"
        }
      ],
      "name": "MintedInVault",
      "type": "event"
    },
    {
      "anonymous": false,
      "inputs": [
        {
          "indexed": true,
          "internalType": "bytes32",
          "name": "role",
          "type": "bytes32"
        },
        {
          "indexed": true,
          "internalType": "bytes32",
          "name": "previousAdminRole",
          "type": "bytes32"
        },
        {
          "indexed": true,
          "internalType": "bytes32",
          "name": "newAdminRole",
          "type": "bytes32"
        }
      ],
      "name": "RoleAdminChanged",
      "type": "event"
    },
    {
      "anonymous": false,
      "inputs": [
        {
          "indexed": true,
          "internalType": "bytes32",
          "name": "role",
          "type": "bytes32"
        },
        {
          "indexed": true,
          "internalType": "address",
          "name": "account",
          "type": "address"
        },
        {
          "indexed": true,
          "internalType": "address",
          "name": "sender",
          "type": "address"
        }
      ],
      "name": "RoleGranted",
      "type": "event"
    },
    {
      "anonymous": false,
      "inputs": [
        {
          "indexed": true,
          "internalType": "bytes32",
          "name": "role",
          "type": "bytes32"
        },
        {
          "indexed": true,
          "internalType": "address",
          "name": "account",
          "type": "address"
        },
        {
          "indexed": true,
          "internalType": "address",
          "name": "sender",
          "type": "address"
        }
      ],
      "name": "RoleRevoked",
      "type": "event"
    },
    {
      "anonymous": false,
      "inputs": [
        {
          "indexed": false,
          "internalType": "address",
          "name": "caller",
          "type": "address"
        },
        {
          "indexed": false,
          "internalType": "address",
          "name": "tokenAddress",
          "type": "address"
        },
        {
          "indexed": false,
          "internalType": "address",
          "name": "to",
          "type": "address"
        },
        {
          "indexed": false,
          "internalType": "uint256",
          "name": "amount",
          "type": "uint256"
        }
      ],
      "name": "WithdrawalInVault",
      "type": "event"
    },
    {
      "inputs": [],
      "name": "DEFAULT_ADMIN_ROLE",
      "outputs": [
        {
          "internalType": "bytes32",
          "name": "",
          "type": "bytes32"
        }
      ],
      "stateMutability": "view",
      "type": "function"
    },
    {
      "inputs": [],
      "name": "MAX_SQRT_RATIO",
      "outputs": [
        {
          "internalType": "uint160",
          "name": "",
          "type": "uint160"
        }
      ],
      "stateMutability": "pure",
      "type": "function"
    },
    {
      "inputs": [],
      "name": "MIN_SQRT_RATIO",
      "outputs": [
        {
          "internalType": "uint160",
          "name": "",
          "type": "uint160"
        }
      ],
      "stateMutability": "pure",
      "type": "function"
    },
    {
      "inputs": [],
      "name": "NonfungiblePositionManager",
      "outputs": [
        {
          "internalType": "contract INonfungiblePositionManager",
          "name": "",
          "type": "address"
        }
      ],
      "stateMutability": "view",
      "type": "function"
    },
    {
      "inputs": [],
      "name": "PROJECT_ADMIN_ROLE",
      "outputs": [
        {
          "internalType": "bytes32",
          "name": "",
          "type": "bytes32"
        }
      ],
      "stateMutability": "view",
      "type": "function"
    },
    {
      "inputs": [],
      "name": "SwapRouter",
      "outputs": [
        {
          "internalType": "contract ISwapRouter",
          "name": "",
          "type": "address"
        }
      ],
      "stateMutability": "view",
      "type": "function"
    },
    {
      "inputs": [],
      "name": "TOS",
      "outputs": [
        {
          "internalType": "contract IERC20",
          "name": "",
          "type": "address"
        }
      ],
      "stateMutability": "view",
      "type": "function"
    },
    {
      "inputs": [],
      "name": "UniswapV3Factory",
      "outputs": [
        {
          "internalType": "contract IUniswapV3Factory",
          "name": "",
          "type": "address"
        }
      ],
      "stateMutability": "view",
      "type": "function"
    },
    {
      "inputs": [],
      "name": "WETHUSDCPool",
      "outputs": [
        {
          "internalType": "contract IUniswapV3Pool",
          "name": "",
          "type": "address"
        }
      ],
      "stateMutability": "view",
      "type": "function"
    },
    {
      "inputs": [],
      "name": "WTON",
      "outputs": [
        {
          "internalType": "contract IERC20",
          "name": "",
          "type": "address"
        }
      ],
      "stateMutability": "view",
      "type": "function"
    },
    {
      "inputs": [],
      "name": "WTONTOSPool",
      "outputs": [
        {
          "internalType": "contract IUniswapV3Pool",
          "name": "",
          "type": "address"
        }
      ],
      "stateMutability": "view",
      "type": "function"
    },
    {
      "inputs": [],
      "name": "WTONWETHPool",
      "outputs": [
        {
          "internalType": "contract IUniswapV3Pool",
          "name": "",
          "type": "address"
        }
      ],
      "stateMutability": "view",
      "type": "function"
    },
    {
      "inputs": [
        {
          "internalType": "address",
          "name": "account",
          "type": "address"
        }
      ],
      "name": "addAdmin",
      "outputs": [],
      "stateMutability": "nonpayable",
      "type": "function"
    },
    {
      "inputs": [
        {
          "internalType": "uint256",
          "name": "",
          "type": "uint256"
        }
      ],
      "name": "addAmounts",
      "outputs": [
        {
          "internalType": "uint256",
          "name": "",
          "type": "uint256"
        }
      ],
      "stateMutability": "view",
      "type": "function"
    },
    {
      "inputs": [
        {
          "internalType": "address",
          "name": "_owner",
          "type": "address"
        }
      ],
      "name": "addProxyAdmin",
      "outputs": [],
      "stateMutability": "nonpayable",
      "type": "function"
    },
    {
      "inputs": [
        {
          "internalType": "address",
          "name": "",
          "type": "address"
        }
      ],
      "name": "aliveImplementation",
      "outputs": [
        {
          "internalType": "bool",
          "name": "",
          "type": "bool"
        }
      ],
      "stateMutability": "view",
      "type": "function"
    },
    {
      "inputs": [
        {
          "internalType": "address",
          "name": "token",
          "type": "address"
        },
        {
          "internalType": "address",
          "name": "to",
          "type": "address"
        },
        {
          "internalType": "uint256",
          "name": "amount",
          "type": "uint256"
        }
      ],
      "name": "approveERC20",
      "outputs": [
        {
          "internalType": "bool",
          "name": "",
          "type": "bool"
        }
      ],
      "stateMutability": "nonpayable",
      "type": "function"
    },
    {
      "inputs": [
        {
          "internalType": "uint256",
          "name": "_round",
          "type": "uint256"
        }
      ],
      "name": "availableUseAmount",
      "outputs": [
        {
          "internalType": "uint256",
          "name": "amount",
          "type": "uint256"
        }
      ],
      "stateMutability": "view",
      "type": "function"
    },
    {
      "inputs": [
        {
          "internalType": "address",
          "name": "_token",
          "type": "address"
        }
      ],
      "name": "changeToken",
      "outputs": [],
      "stateMutability": "nonpayable",
      "type": "function"
    },
    {
      "inputs": [
        {
          "internalType": "uint256",
          "name": "",
          "type": "uint256"
        }
      ],
      "name": "claimAmounts",
      "outputs": [
        {
          "internalType": "uint256",
          "name": "",
          "type": "uint256"
        }
      ],
      "stateMutability": "view",
      "type": "function"
    },
    {
      "inputs": [
        {
          "internalType": "uint256",
          "name": "",
          "type": "uint256"
        }
      ],
      "name": "claimTimes",
      "outputs": [
        {
          "internalType": "uint256",
          "name": "",
          "type": "uint256"
        }
      ],
      "stateMutability": "view",
      "type": "function"
    },
    {
      "inputs": [
        {
          "internalType": "uint256",
          "name": "tokenId",
          "type": "uint256"
        },
        {
          "internalType": "uint128",
          "name": "amount0Max",
          "type": "uint128"
        },
        {
          "internalType": "uint128",
          "name": "amount1Max",
          "type": "uint128"
        }
      ],
      "name": "collect",
      "outputs": [
        {
          "internalType": "uint256",
          "name": "amount0",
          "type": "uint256"
        },
        {
          "internalType": "uint256",
          "name": "amount1",
          "type": "uint256"
        }
      ],
      "stateMutability": "nonpayable",
      "type": "function"
    },
    {
      "inputs": [
        {
          "internalType": "address",
          "name": "tokenA",
          "type": "address"
        },
        {
          "internalType": "address",
          "name": "tokenB",
          "type": "address"
        },
        {
          "internalType": "uint24",
          "name": "_fee",
          "type": "uint24"
        }
      ],
      "name": "computePoolAddress",
      "outputs": [
        {
          "internalType": "address",
          "name": "pool",
          "type": "address"
        },
        {
          "internalType": "address",
          "name": "token0",
          "type": "address"
        },
        {
          "internalType": "address",
          "name": "token1",
          "type": "address"
        }
      ],
      "stateMutability": "view",
      "type": "function"
    },
    {
      "inputs": [],
      "name": "currentRound",
      "outputs": [
        {
          "internalType": "uint256",
          "name": "round",
          "type": "uint256"
        }
      ],
      "stateMutability": "view",
      "type": "function"
    },
    {
      "inputs": [
        {
          "internalType": "uint256",
          "name": "tokenId",
          "type": "uint256"
        },
        {
          "internalType": "uint128",
          "name": "liquidity",
          "type": "uint128"
        },
        {
          "internalType": "uint256",
          "name": "amount0Min",
          "type": "uint256"
        },
        {
          "internalType": "uint256",
          "name": "amount1Min",
          "type": "uint256"
        },
        {
          "internalType": "uint256",
          "name": "deadline",
          "type": "uint256"
        }
      ],
      "name": "decreaseLiquidity",
      "outputs": [
        {
          "internalType": "uint256",
          "name": "amount0",
          "type": "uint256"
        },
        {
          "internalType": "uint256",
          "name": "amount1",
          "type": "uint256"
        }
      ],
      "stateMutability": "nonpayable",
      "type": "function"
    },
    {
      "inputs": [],
      "name": "fee",
      "outputs": [
        {
          "internalType": "uint24",
          "name": "",
          "type": "uint24"
        }
      ],
      "stateMutability": "view",
      "type": "function"
    },
    {
      "inputs": [],
      "name": "getClaimInfo",
      "outputs": [
        {
          "internalType": "uint256",
          "name": "_totalClaimCounts",
          "type": "uint256"
        },
        {
          "internalType": "uint256[]",
          "name": "_claimTimes",
          "type": "uint256[]"
        },
        {
          "internalType": "uint256[]",
          "name": "_claimAmounts",
          "type": "uint256[]"
        },
        {
          "internalType": "uint256",
          "name": "_totalClaimsAmount",
          "type": "uint256"
        },
        {
          "internalType": "uint256[]",
          "name": "_addAmounts",
          "type": "uint256[]"
        }
      ],
      "stateMutability": "view",
      "type": "function"
    },
    {
      "inputs": [
        {
          "internalType": "bytes32",
          "name": "role",
          "type": "bytes32"
        }
      ],
      "name": "getRoleAdmin",
      "outputs": [
        {
          "internalType": "bytes32",
          "name": "",
          "type": "bytes32"
        }
      ],
      "stateMutability": "view",
      "type": "function"
    },
    {
      "inputs": [
        {
          "internalType": "int24",
          "name": "tick",
          "type": "int24"
        }
      ],
      "name": "getSqrtRatioAtTick",
      "outputs": [
        {
          "internalType": "uint160",
          "name": "",
          "type": "uint160"
        }
      ],
      "stateMutability": "pure",
      "type": "function"
    },
    {
      "inputs": [
        {
          "internalType": "uint160",
          "name": "sqrtPriceX96",
          "type": "uint160"
        }
      ],
      "name": "getTickAtSqrtRatio",
      "outputs": [
        {
          "internalType": "int24",
          "name": "",
          "type": "int24"
        }
      ],
      "stateMutability": "pure",
      "type": "function"
    },
    {
      "inputs": [
        {
          "internalType": "bytes32",
          "name": "role",
          "type": "bytes32"
        },
        {
          "internalType": "address",
          "name": "account",
          "type": "address"
        }
      ],
      "name": "grantRole",
      "outputs": [],
      "stateMutability": "nonpayable",
      "type": "function"
    },
    {
      "inputs": [
        {
          "internalType": "bytes32",
          "name": "role",
          "type": "bytes32"
        },
        {
          "internalType": "address",
          "name": "account",
          "type": "address"
        }
      ],
      "name": "hasRole",
      "outputs": [
        {
          "internalType": "bool",
          "name": "",
          "type": "bool"
        }
      ],
      "stateMutability": "view",
      "type": "function"
    },
    {
      "inputs": [
        {
          "internalType": "uint256",
          "name": "tokenId",
          "type": "uint256"
        },
        {
          "internalType": "uint256",
          "name": "amount0Desired",
          "type": "uint256"
        },
        {
          "internalType": "uint256",
          "name": "amount1Desired",
          "type": "uint256"
        },
        {
          "internalType": "uint256",
          "name": "deadline",
          "type": "uint256"
        }
      ],
      "name": "increaseLiquidity",
      "outputs": [
        {
          "internalType": "uint128",
          "name": "liquidity",
          "type": "uint128"
        },
        {
          "internalType": "uint256",
          "name": "amount0",
          "type": "uint256"
        },
        {
          "internalType": "uint256",
          "name": "amount1",
          "type": "uint256"
        }
      ],
      "stateMutability": "nonpayable",
      "type": "function"
    },
    {
      "inputs": [],
      "name": "initSqrtPriceX96",
      "outputs": [
        {
          "internalType": "uint160",
          "name": "",
          "type": "uint160"
        }
      ],
      "stateMutability": "view",
      "type": "function"
    },
    {
      "inputs": [],
      "name": "initialTokenPrice",
      "outputs": [
        {
          "internalType": "uint256",
          "name": "",
          "type": "uint256"
        }
      ],
      "stateMutability": "view",
      "type": "function"
    },
    {
      "inputs": [],
      "name": "initialTosPrice",
      "outputs": [
        {
          "internalType": "uint256",
          "name": "",
          "type": "uint256"
        }
      ],
      "stateMutability": "view",
      "type": "function"
    },
    {
      "inputs": [
        {
          "internalType": "uint256",
          "name": "_totalAllocatedAmount",
          "type": "uint256"
        },
        {
          "internalType": "uint256",
          "name": "_claimCounts",
          "type": "uint256"
        },
        {
          "internalType": "uint256[]",
          "name": "_claimTimes",
          "type": "uint256[]"
        },
        {
          "internalType": "uint256[]",
          "name": "_claimAmounts",
          "type": "uint256[]"
        }
      ],
      "name": "initialize",
      "outputs": [],
      "stateMutability": "nonpayable",
      "type": "function"
    },
    {
      "inputs": [
        {
          "internalType": "address",
          "name": "account",
          "type": "address"
        }
      ],
      "name": "isAdmin",
      "outputs": [
        {
          "internalType": "bool",
          "name": "",
          "type": "bool"
        }
      ],
      "stateMutability": "view",
      "type": "function"
    },
    {
      "inputs": [
        {
          "internalType": "address",
          "name": "account",
          "type": "address"
        }
      ],
      "name": "isProxyAdmin",
      "outputs": [
        {
          "internalType": "bool",
          "name": "",
          "type": "bool"
        }
      ],
      "stateMutability": "view",
      "type": "function"
    },
    {
      "inputs": [
        {
          "internalType": "int24",
          "name": "tickLower",
          "type": "int24"
        },
        {
          "internalType": "int24",
          "name": "tickUpper",
          "type": "int24"
        }
      ],
      "name": "mint",
      "outputs": [],
      "stateMutability": "nonpayable",
      "type": "function"
    },
    {
      "inputs": [
        {
          "internalType": "int24",
          "name": "tickLower",
          "type": "int24"
        },
        {
          "internalType": "int24",
          "name": "tickUpper",
          "type": "int24"
        },
        {
          "internalType": "uint256",
          "name": "tosUseAmount",
          "type": "uint256"
        },
        {
          "internalType": "uint256",
          "name": "tokenUseAmount",
          "type": "uint256"
        }
      ],
      "name": "mintToken",
      "outputs": [],
      "stateMutability": "nonpayable",
      "type": "function"
    },
    {
      "inputs": [],
      "name": "name",
      "outputs": [
        {
          "internalType": "string",
          "name": "",
          "type": "string"
        }
      ],
      "stateMutability": "view",
      "type": "function"
    },
    {
      "inputs": [],
      "name": "nowClaimRound",
      "outputs": [
        {
          "internalType": "uint256",
          "name": "",
          "type": "uint256"
        }
      ],
      "stateMutability": "view",
      "type": "function"
    },
    {
      "inputs": [],
      "name": "pauseProxy",
      "outputs": [
        {
          "internalType": "bool",
          "name": "",
          "type": "bool"
        }
      ],
      "stateMutability": "view",
      "type": "function"
    },
    {
      "inputs": [],
      "name": "pool",
      "outputs": [
        {
          "internalType": "contract IUniswapV3Pool",
          "name": "",
          "type": "address"
        }
      ],
      "stateMutability": "view",
      "type": "function"
    },
    {
      "inputs": [
        {
          "internalType": "uint256",
          "name": "",
          "type": "uint256"
        }
      ],
      "name": "proxyImplementation",
      "outputs": [
        {
          "internalType": "address",
          "name": "",
          "type": "address"
        }
      ],
      "stateMutability": "view",
      "type": "function"
    },
    {
      "inputs": [],
      "name": "removeAdmin",
      "outputs": [],
      "stateMutability": "nonpayable",
      "type": "function"
    },
    {
      "inputs": [],
      "name": "removeProxyAdmin",
      "outputs": [],
      "stateMutability": "nonpayable",
      "type": "function"
    },
    {
      "inputs": [
        {
          "internalType": "bytes32",
          "name": "role",
          "type": "bytes32"
        },
        {
          "internalType": "address",
          "name": "account",
          "type": "address"
        }
      ],
      "name": "renounceRole",
      "outputs": [],
      "stateMutability": "nonpayable",
      "type": "function"
    },
    {
      "inputs": [
        {
          "internalType": "bytes32",
          "name": "role",
          "type": "bytes32"
        },
        {
          "internalType": "address",
          "name": "account",
          "type": "address"
        }
      ],
      "name": "revokeRole",
      "outputs": [],
      "stateMutability": "nonpayable",
      "type": "function"
    },
    {
      "inputs": [
        {
          "internalType": "bytes4",
          "name": "",
          "type": "bytes4"
        }
      ],
      "name": "selectorImplementation",
      "outputs": [
        {
          "internalType": "address",
          "name": "",
          "type": "address"
        }
      ],
      "stateMutability": "view",
      "type": "function"
    },
    {
      "inputs": [
        {
          "internalType": "string",
          "name": "_name",
          "type": "string"
        },
        {
          "internalType": "address",
          "name": "_token",
          "type": "address"
        },
        {
          "internalType": "address",
          "name": "_owner",
          "type": "address"
        }
      ],
      "name": "setBaseInfo",
      "outputs": [],
      "stateMutability": "nonpayable",
      "type": "function"
    },
    {
      "inputs": [
        {
          "internalType": "uint256",
          "name": "tosPrice",
          "type": "uint256"
        },
        {
          "internalType": "uint256",
          "name": "tokenPrice",
          "type": "uint256"
        },
        {
          "internalType": "uint160",
          "name": "initSqrtPrice",
          "type": "uint160"
        }
      ],
      "name": "setInitialPrice",
      "outputs": [],
      "stateMutability": "nonpayable",
      "type": "function"
    },
    {
      "inputs": [],
      "name": "setPool",
      "outputs": [],
      "stateMutability": "nonpayable",
      "type": "function"
    },
    {
      "inputs": [
        {
          "internalType": "address",
          "name": "wethUsdcPool",
          "type": "address"
        },
        {
          "internalType": "address",
          "name": "wtonWethPool",
          "type": "address"
        },
        {
          "internalType": "address",
          "name": "wtonTosPool",
          "type": "address"
        }
      ],
      "name": "setPoolInfo",
      "outputs": [],
      "stateMutability": "nonpayable",
      "type": "function"
    },
    {
      "inputs": [
        {
          "internalType": "uint160",
          "name": "inSqrtPriceX96",
          "type": "uint160"
        }
      ],
      "name": "setPoolInitialize",
      "outputs": [],
      "stateMutability": "nonpayable",
      "type": "function"
    },
    {
      "inputs": [
        {
          "internalType": "int24",
          "name": "_interval",
          "type": "int24"
        }
      ],
      "name": "setTickIntervalMinimum",
      "outputs": [],
      "stateMutability": "nonpayable",
      "type": "function"
    },
    {
      "inputs": [
        {
          "internalType": "address",
          "name": "wton",
          "type": "address"
        },
        {
          "internalType": "address",
          "name": "tos",
          "type": "address"
        },
        {
          "internalType": "uint24",
          "name": "_fee",
          "type": "uint24"
        }
      ],
      "name": "setTokens",
      "outputs": [],
      "stateMutability": "nonpayable",
      "type": "function"
    },
    {
      "inputs": [
        {
          "internalType": "address",
          "name": "poolfactory",
          "type": "address"
        },
        {
          "internalType": "address",
          "name": "npm",
          "type": "address"
        },
        {
          "internalType": "address",
          "name": "swapRouter",
          "type": "address"
        }
      ],
      "name": "setUniswapInfo",
      "outputs": [],
      "stateMutability": "nonpayable",
      "type": "function"
    },
    {
      "inputs": [],
      "name": "settingCheck",
      "outputs": [
        {
          "internalType": "bool",
          "name": "",
          "type": "bool"
        }
      ],
      "stateMutability": "view",
      "type": "function"
    },
    {
      "inputs": [
        {
          "internalType": "bytes4",
          "name": "interfaceId",
          "type": "bytes4"
        }
      ],
      "name": "supportsInterface",
      "outputs": [
        {
          "internalType": "bool",
          "name": "",
          "type": "bool"
        }
      ],
      "stateMutability": "view",
      "type": "function"
    },
    {
      "inputs": [],
      "name": "tickIntervalMinimum",
      "outputs": [
        {
          "internalType": "int24",
          "name": "",
          "type": "int24"
        }
      ],
      "stateMutability": "view",
      "type": "function"
    },
    {
      "inputs": [],
      "name": "token",
      "outputs": [
        {
          "internalType": "contract IERC20",
          "name": "",
          "type": "address"
        }
      ],
      "stateMutability": "view",
      "type": "function"
    },
    {
      "inputs": [],
      "name": "token0Address",
      "outputs": [
        {
          "internalType": "address",
          "name": "",
          "type": "address"
        }
      ],
      "stateMutability": "view",
      "type": "function"
    },
    {
      "inputs": [],
      "name": "token1Address",
      "outputs": [
        {
          "internalType": "address",
          "name": "",
          "type": "address"
        }
      ],
      "stateMutability": "view",
      "type": "function"
    },
    {
      "inputs": [
        {
          "internalType": "uint256",
          "name": "",
          "type": "uint256"
        }
      ],
      "name": "tokenIds",
      "outputs": [
        {
          "internalType": "uint256",
          "name": "",
          "type": "uint256"
        }
      ],
      "stateMutability": "view",
      "type": "function"
    },
    {
      "inputs": [],
      "name": "totalAllocatedAmount",
      "outputs": [
        {
          "internalType": "uint256",
          "name": "",
          "type": "uint256"
        }
      ],
      "stateMutability": "view",
      "type": "function"
    },
    {
      "inputs": [],
      "name": "totalClaimCounts",
      "outputs": [
        {
          "internalType": "uint256",
          "name": "",
          "type": "uint256"
        }
      ],
      "stateMutability": "view",
      "type": "function"
    },
    {
      "inputs": [],
      "name": "totalClaimsAmount",
      "outputs": [
        {
          "internalType": "uint256",
          "name": "",
          "type": "uint256"
        }
      ],
      "stateMutability": "view",
      "type": "function"
    },
    {
      "inputs": [
        {
          "internalType": "address",
          "name": "newAdmin",
          "type": "address"
        }
      ],
      "name": "transferAdmin",
      "outputs": [],
      "stateMutability": "nonpayable",
      "type": "function"
    },
    {
      "inputs": [
        {
          "internalType": "address",
          "name": "newAdmin",
          "type": "address"
        }
      ],
      "name": "transferProxyAdmin",
      "outputs": [],
      "stateMutability": "nonpayable",
      "type": "function"
    },
    {
      "inputs": [
        {
          "internalType": "address",
          "name": "_token",
          "type": "address"
        },
        {
          "internalType": "address",
          "name": "_account",
          "type": "address"
        },
        {
          "internalType": "uint256",
          "name": "_amount",
          "type": "uint256"
        }
      ],
      "name": "withdraw",
      "outputs": [],
      "stateMutability": "nonpayable",
      "type": "function"
    }
  ],
  "bytecode": "0x6080604052600060145534801561001557600080fd5b50600f805462ffffff60a01b1916905561566980620000356000396000f3fe608060405234801561001057600080fd5b50600436106103a85760003560e01c8063807f7738116101eb578063bf64232211610110578063d9caed12116100a8578063d9caed12146108bd578063ddca3f43146108d0578063e78a432f146108fa578063eb582d131461091c578063ed5131f51461092f578063ee8847ff14610942578063f47f2f1d1461094d578063f864640814610960578063fc0c546a1461097357600080fd5b8063bf6423221461081c578063c06a582d1461082f578063cfc412be14610842578063d547741f1461084b578063d58778d61461085e578063d61e3f1614610871578063d61f78a914610884578063d64dad1414610897578063d7cb416f146108aa57600080fd5b806397aca93b1161018357806397aca93b1461077c578063986cfba31461078f5780639a202d47146107a2578063a217fddf146107aa578063a77a29fc146107b2578063a8e5e4aa146107c5578063b4cded81146107d8578063b911135f146107eb578063be72f2d31461081457600080fd5b8063807f7738146106d65780638158f0c0146106e957806381f41eb2146106fc5780638356ca4f1461070f57806384963f9e1461072257806385182416146107355780638a19c8bc1461074e57806391d148541461075657806396f1557c1461076957600080fd5b806341c04d5e116102d157806355ecf5a81161026957806355ecf5a81461060b57806363a8fd891461064857806366829b16146106555780636b967146146106685780636d2cc3041461067b578063704802751461069557806375829def146106a8578063771ff381146106bb5780637ff36fbe146106c357600080fd5b806341c04d5e1461052e5780634dc32eff146105435780634f76c0581461055657806350d2a2761461057c578063526aef94146105a557806352a1d829146105b95780635415e9df146105cc578063550d01a3146105df578063556400081461060257600080fd5b80631ddfc2ff116103445780631ddfc2ff1461048b57806321cf4370146104a0578063248a9ca3146104ad57806324d7806c146104d0578063256019d6146104e35780632ca0228a146104ec5780632ed21cf2146104f55780632f2ff15d1461050857806336568abe1461051b57600080fd5b806301ffc9a7146103ad57806303a3f2ab146103d55780630411b949146103fd57806306fdde031461041d5780630a6aae11146104325780630f4388c014610449578063117ab8741461045c57806316f0115b1461046557806318a723db14610478575b600080fd5b6103c06103bb36600461494a565b610986565b60405190151581526020015b60405180910390f35b6103e86103e3366004614c1f565b6109bd565b604080519283526020830191909152016103cc565b600754610410906001600160a01b031681565b6040516103cc9190614f0b565b610425610c0e565b6040516103cc9190614f60565b61043b600d5481565b6040519081526020016103cc565b61043b610457366004614903565b610c9c565b61043b60145481565b600a54610410906001600160a01b031681565b600554610410906001600160a01b031681565b61049e610499366004614820565b610cbd565b005b6011546103c09060ff1681565b61043b6104bb366004614903565b6000908152601d602052604090206001015490565b6103c06104de3660046147e8565b610e52565b61043b60135481565b61043b600e5481565b61049e610503366004614820565b610e6c565b61049e61051636600461491b565b611010565b61049e61052936600461491b565b61103b565b61043b60008051602061561483398151915281565b600954610410906001600160a01b031681565b6105696105643660046147e8565b6110b9565b60405160029190910b81526020016103cc565b61041061058a36600461494a565b601c602052600090815260409020546001600160a01b031681565b600f5461056990600160a01b900460020b81565b61049e6105c7366004614a00565b6110c4565b61049e6105da36600461486a565b61114c565b6103c06105ed3660046147e8565b601b6020526000908152604090205460ff1681565b61043b60125481565b61061e61061936600461486a565b61128f565b604080516001600160a01b03948516815292841660208401529216918101919091526060016103cc565b6019546103c09060ff1681565b61049e6106633660046147e8565b611392565b600654610410906001600160a01b031681565b73fffd8963efd1fc6a506488495d951d5263988d26610410565b61049e6106a33660046147e8565b6113e8565b61049e6106b63660046147e8565b611437565b61049e6114ea565b600b54610410906001600160a01b031681565b6103e86106e4366004614bac565b611860565b61049e6106f73660046147e8565b611a49565b600f54610410906001600160a01b031681565b61049e61071d3660046147e8565b611b70565b61049e610730366004614d09565b611bfa565b61073d611c58565b6040516103cc959493929190615288565b61043b611d74565b6103c061076436600461491b565b611e75565b61049e6107773660046147e8565b611ea0565b61043b61078a366004614903565b611ed0565b61041061079d366004614972565b611fda565b61049e611fe5565b61043b600081565b61049e6107c0366004614c89565b612033565b6103c06107d33660046148a9565b61228b565b61043b6107e6366004614903565b6123ab565b6104106107f9366004614903565b601a602052600090815260409020546001600160a01b031681565b61049e6123bb565b600454610410906001600160a01b031681565b61049e61083d36600461498e565b6123eb565b61043b60155481565b61049e61085936600461491b565b6124fe565b61043b61086c366004614903565b612524565b61049e61087f3660046149bb565b612534565b600254610410906001600160a01b031681565b61049e6108a5366004614972565b612c67565b600c54610410906001600160a01b031681565b61049e6108cb3660046148a9565b612d07565b6009546108e690600160a01b900462ffffff1681565b60405162ffffff90911681526020016103cc565b61090d610908366004614d36565b612eaa565b6040516103cc93929190615267565b600854610410906001600160a01b031681565b61043b61093d366004614903565b613200565b6401000276a3610410565b6103c061095b3660046147e8565b613210565b600354610410906001600160a01b031681565b600154610410906001600160a01b031681565b60006001600160e01b03198216637965db0b60e01b14806109b757506301ffc9a760e01b6001600160e01b03198316145b92915050565b600a5460009081906001600160a01b0316806109f45760405162461bcd60e51b81526004016109eb90614f93565b60405180910390fd5b600b546001600160a01b031680610a1d5760405162461bcd60e51b81526004016109eb90614f93565b600c546001600160a01b031680610a465760405162461bcd60e51b81526004016109eb90614f93565b610a4f8a61321c565b6008546040805160a0810182528c81526001600160801b038c8116602083019081528284018d8152606084018d8152608085018d81529551630624e65f60e11b8152945160048601529151909216602484015290516044830152516064820152905160848201526001600160a01b0390911690630c49ccbe9060a4016040805180830381600087803b158015610ae457600080fd5b505af1158015610af8573d6000803e3d6000fd5b505050506040513d601f19601f82011682018060405250810190610b1c9190614c66565b600154600b549297509095506001600160a01b039182169116148015610b425750600085115b15610b5d5784601554610b55919061546e565b601555610bc5565b600154600c546001600160a01b039081169116148015610b7d5750600084115b15610bc55783601554610b90919061546e565b60158190556040518b916000805160206155f483398151915291610bbc91888252602082015260400190565b60405180910390a25b897fd2c1a8dfa2a4d0c26f376f3ad28a6d3572ffbf482cac90c25a4c6b31a18ffde88a8787604051610bf993929190615267565b60405180910390a25050509550959350505050565b60008054610c1b906154c8565b80601f0160208091040260200160405190810160405280929190818152602001828054610c47906154c8565b8015610c945780601f10610c6957610100808354040283529160200191610c94565b820191906000526020600020905b815481529060010190602001808311610c7757829003601f168201915b505050505081565b60178181548110610cac57600080fd5b600091825260209091200154905081565b610cc633610e52565b80610cd55750610cd533613210565b610cf15760405162461bcd60e51b81526004016109eb90614ff7565b6001600160a01b03831615801590610d1757506007546001600160a01b03848116911614155b610d525760405162461bcd60e51b815260206004820152600c60248201526b73616d6520666163746f727960a01b60448201526064016109eb565b6001600160a01b03821615801590610d7857506008546001600160a01b03838116911614155b610daf5760405162461bcd60e51b815260206004820152600860248201526773616d65206e706d60c01b60448201526064016109eb565b6001600160a01b03811615801590610dd557506009546001600160a01b03828116911614155b610e135760405162461bcd60e51b815260206004820152600f60248201526e39b0b6b29039bbb0b82937baba32b960891b60448201526064016109eb565b600780546001600160a01b039485166001600160a01b031991821617909155600880549385169382169390931790925560098054919093169116179055565b60006109b760008051602061561483398151915283611e75565b610e7533610e52565b80610e845750610e8433613210565b610ea05760405162461bcd60e51b81526004016109eb90614ff7565b6001600160a01b03831615801590610ec657506004546001600160a01b03848116911614155b610f065760405162461bcd60e51b81526020600482015260116024820152701cd85b59481dd95d1a155cd918d41bdbdb607a1b60448201526064016109eb565b6001600160a01b03821615801590610f2c57506005546001600160a01b03838116911614155b610f6c5760405162461bcd60e51b81526020600482015260116024820152701cd85b59481ddd1bdb95d95d1a141bdbdb607a1b60448201526064016109eb565b6001600160a01b03811615801590610f9257506006546001600160a01b03828116911614155b610fd15760405162461bcd60e51b815260206004820152601060248201526f1cd85b59481ddd1bdb951bdcd41bdbdb60821b60448201526064016109eb565b600480546001600160a01b039485166001600160a01b031991821617909155600580549385169382169390931790925560068054919093169116179055565b6000828152601d602052604090206001015461102c8133613399565b61103683836133fd565b505050565b6001600160a01b03811633146110ab5760405162461bcd60e51b815260206004820152602f60248201527f416363657373436f6e74726f6c3a2063616e206f6e6c792072656e6f756e636560448201526e103937b632b9903337b91039b2b63360891b60648201526084016109eb565b6110b58282613483565b5050565b60006109b7826134ea565b6110cd33610e52565b806110dc57506110dc33613210565b6110f85760405162461bcd60e51b81526004016109eb90614ff7565b825161110b9060009060208601906146b0565b50600180546001600160a01b0319166001600160a01b03841617905561113081610e52565b6110365761103660008051602061561483398151915282613824565b61115533610e52565b80611164575061116433613210565b6111805760405162461bcd60e51b81526004016109eb90614ff7565b6001600160a01b038316158015906111a657506002546001600160a01b03848116911614155b6111de5760405162461bcd60e51b815260206004820152600960248201526839b0b6b2903bba37b760b91b60448201526064016109eb565b6001600160a01b0382161580159061120457506003546001600160a01b03838116911614155b61123b5760405162461bcd60e51b815260206004820152600860248201526773616d6520746f7360c01b60448201526064016109eb565b600280546001600160a01b039485166001600160a01b03199182161790915560038054939094169216919091179091556009805462ffffff909216600160a01b0262ffffff60a01b19909216919091179055565b600083837fe34f199b19b2b4f47f68442619d555527d244f78a3297ea89325f843f87b8b546001600160a01b0380831690841611156112cf578592508691505b816001600160a01b0316836001600160a01b0316106112ed57600080fd5b6007546040516001600160a01b039091169061131190859085908990602001614f1f565b604051602081830303815290604052805190602001208260405160200161136d939291906001600160f81b0319815260609390931b6bffffffffffffffffffffffff191660018401526015830191909152603582015260550190565b6040516020818303038152906040528051906020012060001c93505093509350939050565b61139b33610e52565b806113aa57506113aa33613210565b6113c65760405162461bcd60e51b81526004016109eb90614ff7565b600180546001600160a01b0319166001600160a01b0392909216919091179055565b6113f133610e52565b80611400575061140033613210565b61141c5760405162461bcd60e51b81526004016109eb90614ff7565b61143460008051602061561483398151915282611010565b50565b61144033610e52565b8061144f575061144f33613210565b61146b5760405162461bcd60e51b81526004016109eb90614ff7565b6001600160a01b0381166114915760405162461bcd60e51b81526004016109eb90615039565b336001600160a01b03821614156114ba5760405162461bcd60e51b81526004016109eb90615141565b6114d260008051602061561483398151915282611010565b6114346000805160206156148339815191523361103b565b6007546001600160a01b03161580159061150e57506008546001600160a01b031615155b801561152457506009546001600160a01b031615155b801561153a57506002546001600160a01b031615155b801561155057506003546001600160a01b031615155b61156c5760405162461bcd60e51b81526004016109eb90615171565b600754600354600154600954604051630b4c774160e11b81526000946001600160a01b0390811694631698ee82946115bb9491831693921691600160a01b90910462ffffff1690600401614f1f565b60206040518083038186803b1580156115d357600080fd5b505afa1580156115e7573d6000803e3d6000fd5b505050506040513d601f19601f8201168201806040525081019061160b9190614804565b90506001600160a01b0381166117095760075460035460015460095460405163a167129560e01b81526000946001600160a01b039081169463a16712959461166a9491831693921691600160a01b90910462ffffff1690600401614f1f565b602060405180830381600087803b15801561168457600080fd5b505af1158015611698573d6000803e3d6000fd5b505050506040513d601f19601f820116820180604052508101906116bc9190614804565b90506001600160a01b0381166117065760405162461bcd60e51b815260206004820152600f60248201526e18dc99585d19541bdbdb0819985a5b608a1b60448201526064016109eb565b90505b600a80546001600160a01b0319166001600160a01b03831690811790915560408051630dfe168160e01b81529051630dfe168191600480820192602092909190829003018186803b15801561175d57600080fd5b505afa158015611771573d6000803e3d6000fd5b505050506040513d601f19601f820116820180604052508101906117959190614804565b600b80546001600160a01b0319166001600160a01b03928316179055600a546040805163d21220a760e01b81529051919092169163d21220a7916004808301926020929190829003018186803b1580156117ee57600080fd5b505afa158015611802573d6000803e3d6000fd5b505050506040513d601f19601f820116820180604052508101906118269190614804565b600c80546001600160a01b0319166001600160a01b03928316179055600f54161561143457600f54611434906001600160a01b0316611a49565b6008546040805160808101825285815230602082019081526001600160801b0386811683850190815286821660608501908152945163fc6f786560e01b81529351600485015291516001600160a01b039081166024850152915181166044840152925190921660648201526000928392169063fc6f7865906084016040805180830381600087803b1580156118f457600080fd5b505af1158015611908573d6000803e3d6000fd5b505050506040513d601f19601f8201168201806040525081019061192c9190614c66565b600154600b549294509092506001600160a01b0391821691161480156119525750600082115b1561199e5781601554611965919061531a565b601581905560405186916000805160206155f48339815191529161199191868252602082015260400190565b60405180910390a2611a06565b600154600c546001600160a01b0390811691161480156119be5750600081115b15611a0657806015546119d1919061531a565b601581905560405186916000805160206155f4833981519152916119fd91858252602082015260400190565b60405180910390a25b604080518381526020810183905286917f59943dc7329fdfb15044f95cef4cae4efe6e3b1b8a4e0858bf7f7f3515090f35910160405180910390a2935093915050565b600a546001600160a01b031680611a725760405162461bcd60e51b81526004016109eb90614f93565b600a5460408051633850c7bd60e01b815290516000926001600160a01b031691633850c7bd9160048083019260e0929190829003018186803b158015611ab757600080fd5b505afa158015611acb573d6000803e3d6000fd5b505050506040513d601f19601f82011682018060405250810190611aef9190614b03565b5050505050509050806001600160a01b03166000141561103657600a5460405163f637731d60e01b81526001600160a01b039091169063f637731d90611b39908690600401614f0b565b600060405180830381600087803b158015611b5357600080fd5b505af1158015611b67573d6000803e3d6000fd5b50505050505050565b611b7933613210565b611b955760405162461bcd60e51b81526004016109eb906150cb565b6001600160a01b038116611bbb5760405162461bcd60e51b81526004016109eb90615039565b336001600160a01b0382161415611be45760405162461bcd60e51b81526004016109eb90615141565b611bef600082611010565b61143460003361103b565b611c0333610e52565b80611c125750611c1233613210565b611c2e5760405162461bcd60e51b81526004016109eb90614ff7565b600d92909255600e55600f80546001600160a01b0319166001600160a01b03909216919091179055565b60006060806000606060135460166017601554601883805480602002602001604051908101604052809291908181526020018280548015611cb857602002820191906000526020600020905b815481526020019060010190808311611ca4575b5050505050935082805480602002602001604051908101604052809291908181526020018280548015611d0a57602002820191906000526020600020905b815481526020019060010190808311611cf6575b5050505050925080805480602002602001604051908101604052809291908181526020018280548015611d5c57602002820191906000526020600020905b815481526020019060010190808311611d48575b50505050509050945094509450945094509091929394565b6013546000905b8015611e71576016600081548110611da357634e487b7160e01b600052603260045260246000fd5b9060005260206000200154421015611dbe5760009150611e5f565b6016611dcb60018361546e565b81548110611de957634e487b7160e01b600052603260045260246000fd5b906000526020600020015442108015611e0157508015155b15611e1857611e1160018261546e565b9150611e5f565b60166001601354611e29919061546e565b81548110611e4757634e487b7160e01b600052603260045260246000fd5b9060005260206000200154421115611e5f5760135491505b80611e69816154b1565b915050611d7b565b5090565b6000918252601d602090815260408084206001600160a01b0393909316845291905290205460ff1690565b611ea933613210565b611ec55760405162461bcd60e51b81526004016109eb906150cb565b611434600082613824565b60008060005b83811015611f5f5760188181548110611eff57634e487b7160e01b600052603260045260246000fd5b906000526020600020015460178281548110611f2b57634e487b7160e01b600052603260045260246000fd5b906000526020600020015483611f41919061531a565b611f4b919061531a565b915080611f57816154fd565b915050611ed6565b508260011415611faa576015546017600081548110611f8e57634e487b7160e01b600052603260045260246000fd5b9060005260206000200154611fa3919061546e565b9150611fd4565b826013541415611fc457601554601254611fa3919061546e565b601554611fd1908261546e565b91505b50919050565b60006109b78261382e565b611fee33610e52565b80611ffd5750611ffd33613210565b6120195760405162461bcd60e51b81526004016109eb90614ff7565b6120316000805160206156148339815191523361103b565b565b61203c33610e52565b8061204b575061204b33613210565b6120675760405162461bcd60e51b81526004016109eb90614ff7565b6007546001600160a01b03161580159061208b57506008546001600160a01b031615155b80156120a157506009546001600160a01b031615155b80156120b757506002546001600160a01b031615155b80156120cd57506003546001600160a01b031615155b6120e95760405162461bcd60e51b81526004016109eb90615171565b6001546040516370a0823160e01b81526001600160a01b03909116906370a0823190612119903090600401614f0b565b60206040518083038186803b15801561213157600080fd5b505afa158015612145573d6000803e3d6000fd5b505050506040513d601f19601f820116820180604052508101906121699190614b94565b8611156121b25760405162461bcd60e51b81526020600482015260176024820152763732b2b2103a379034b7383aba103a3432903a37b5b2b760491b60448201526064016109eb565b6012869055601385905560005b85811015611b675760168585838181106121e957634e487b7160e01b600052603260045260246000fd5b83546001810185556000948552602094859020919094029290920135919092015550601783838381811061222d57634e487b7160e01b600052603260045260246000fd5b83546001818101865560009586526020808720930294909401359101555060188054918201815582527fb13d2d76d1f4b7be834882e410b3e3a8afaf69f83600ae24db354391d2378d2e015580612283816154fd565b9150506121bf565b6000836001600160a01b0381166122b45760405162461bcd60e51b81526004016109eb90614f93565b836001600160a01b0381166122db5760405162461bcd60e51b81526004016109eb90614f93565b83600081116123205760405162461bcd60e51b81526020600482015260116024820152705661756c743a207a65726f2076616c756560781b60448201526064016109eb565b60405163095ea7b360e01b81526001600160a01b0388169063095ea7b39061234e9089908990600401614f47565b602060405180830381600087803b15801561236857600080fd5b505af115801561237c573d6000803e3d6000fd5b505050506040513d601f19601f820116820180604052508101906123a091906148e9565b979650505050505050565b60188181548110610cac57600080fd5b6123c433613210565b6123e05760405162461bcd60e51b81526004016109eb906150cb565b61203160003361103b565b6003546040516370a0823160e01b81526110b591849184916001600160a01b0316906370a0823190612421903090600401614f0b565b60206040518083038186803b15801561243957600080fd5b505afa15801561244d573d6000803e3d6000fd5b505050506040513d601f19601f820116820180604052508101906124719190614b94565b6013546001546040516370a0823160e01b81526001600160a01b03909116906370a08231906124a4903090600401614f0b565b60206040518083038186803b1580156124bc57600080fd5b505afa1580156124d0573d6000803e3d6000fd5b505050506040513d601f19601f820116820180604052508101906124f49190614b94565b61087f9190615332565b6000828152601d602052604090206001015461251a8133613399565b6110368383613483565b60108181548110610cac57600080fd5b600a546001600160a01b03168061255d5760405162461bcd60e51b81526004016109eb90614f93565b600b546001600160a01b0316806125865760405162461bcd60e51b81526004016109eb90614f93565b600c546001600160a01b0316806125af5760405162461bcd60e51b81526004016109eb90614f93565b60166000815481106125d157634e487b7160e01b600052603260045260246000fd5b906000526020600020015442116125fa5760405162461bcd60e51b81526004016109eb9061506b565b670de0b6b3a764000084116126465760405162461bcd60e51b81526020600482015260126024820152711cdb585b1b081d1bdad95b88185b5bdd5b9d60721b60448201526064016109eb565b600f54600160a01b9004600290810b900b61266188886153e8565b60020b12156126d05760405162461bcd60e51b815260206004820152603560248201527f5661756c743a207469636b20696e74657276616c206973206c657373207468616044820152746e207469636b496e74657276616c4d696e696d756d60581b60648201526084016109eb565b601554601254116126f35760405162461bcd60e51b81526004016109eb9061509b565b60006126fd611d74565b9050600061270a82611ed0565b90508086111561272c5760405162461bcd60e51b81526004016109eb90614fc0565b600081116127765760405162461bcd60e51b8152602060048201526017602482015276636c61696d61626c6520746f6b656e206973207a65726f60481b60448201526064016109eb565b600086116127bf5760405162461bcd60e51b8152602060048201526016602482015275746f6b656e557365416d6f756e74206973207a65726f60501b60448201526064016109eb565b6003546040516370a0823160e01b81526000916001600160a01b0316906370a08231906127f0903090600401614f0b565b60206040518083038186803b15801561280857600080fd5b505afa15801561281c573d6000803e3d6000fd5b505050506040513d601f19601f820116820180604052508101906128409190614b94565b90508781101580156128525750600088115b6128945760405162461bcd60e51b8152602060048201526013602482015272746f732062616c616e6365206973207a65726f60681b60448201526064016109eb565b6014839055600a5460408051633850c7bd60e01b815290516000926001600160a01b031691633850c7bd9160048083019260e0929190829003018186803b1580156128de57600080fd5b505afa1580156128f2573d6000803e3d6000fd5b505050506040513d601f19601f820116820180604052508101906129169190614b03565b50505050509150508060020b8b60020b12801561293857508960020b8160020b125b6129545760405162461bcd60e51b81526004016109eb90615113565b600354600b548a918a916001600160a01b039081169116146129765750889050895b6129808b8b613c41565b60008d905060008d9050600080600080600860009054906101000a90046001600160a01b03166001600160a01b03166388316456604051806101600160405280600b60009054906101000a90046001600160a01b03166001600160a01b03168152602001600c60009054906101000a90046001600160a01b03166001600160a01b03168152602001600960149054906101000a900462ffffff1662ffffff1681526020018960020b81526020018860020b81526020018b81526020018a81526020016000815260200160008152602001306001600160a01b0316815260200142620186a0612a6e919061531a565b8152506040518263ffffffff1660e01b8152600401612a8d91906151a3565b608060405180830381600087803b158015612aa757600080fd5b505af1158015612abb573d6000803e3d6000fd5b505050506040513d601f19601f82011682018060405250810190612adf9190614be2565b935093509350935060008411612b295760405162461bcd60e51b815260206004820152600f60248201526e746f6b656e4964206973207a65726f60881b60448201526064016109eb565b601080546001810182556000919091527f1b6847dc741a1b0cd08d278845f9d819d87b734759afb55fe2de5cb82a9ae67201849055600354600b546001600160a01b03908116911614612bbd5781601554612b84919061531a565b601581905560405185916000805160206155f483398151915291612bb091868252602082015260400190565b60405180910390a2612c00565b80601554612bcb919061531a565b601581905560405185916000805160206155f483398151915291612bf791858252602082015260400190565b60405180910390a25b604080518581526001600160801b03851660208201529081018390526060810182905233907f7e4faa9ec81dd9000071b6dbc47dedaad9cd0745b9f0243f2b474b916f6229f39060800160405180910390a250505050505050505050505050505050505050565b612c7033610e52565b80612c7f5750612c7f33613210565b612c9b5760405162461bcd60e51b81526004016109eb90614ff7565b60008160020b13612cdf5760405162461bcd60e51b815260206004820152600e60248201526d1e995c9bc817da5b9d195c9d985b60921b60448201526064016109eb565b600f805460029290920b62ffffff16600160a01b0262ffffff60a01b19909216919091179055565b612d1033610e52565b80612d1f5750612d1f33613210565b612d3b5760405162461bcd60e51b81526004016109eb90614ff7565b6015546012541115612d7c5760405162461bcd60e51b815260206004820152600a6024820152691b9bdd0818db1bdcd95960b21b60448201526064016109eb565b6040516370a0823160e01b815281906001600160a01b038516906370a0823190612daa903090600401614f0b565b60206040518083038186803b158015612dc257600080fd5b505afa158015612dd6573d6000803e3d6000fd5b505050506040513d601f19601f82011682018060405250810190612dfa9190614b94565b1015612e415760405162461bcd60e51b81526020600482015260166024820152752b30bab63a1d103237b73a103430bb32903a37b5b2b760511b60448201526064016109eb565b612e556001600160a01b0384168383614157565b604080513381526001600160a01b0385811660208301528416818301526060810183905290517f7ea2180e5f63eca6b7c9de00e784536f91424389046f8b8d29e76ef3c52537439181900360800190a1505050565b600a54600090819081906001600160a01b031680612eda5760405162461bcd60e51b81526004016109eb90614f93565b600b546001600160a01b031680612f035760405162461bcd60e51b81526004016109eb90614f93565b600c546001600160a01b031680612f2c5760405162461bcd60e51b81526004016109eb90614f93565b6016600081548110612f4e57634e487b7160e01b600052603260045260246000fd5b90600052602060002001544211612f775760405162461bcd60e51b81526004016109eb9061506b565b60155460125411612f9a5760405162461bcd60e51b81526004016109eb9061509b565b612fa38a6141ad565b612fab611d74565b6014819055600090612fbc90611ed0565b600354600b549192506001600160a01b0391821691161461300657808a1115612ff75760405162461bcd60e51b81526004016109eb90614fc0565b613001898b613c41565b613030565b808911156130265760405162461bcd60e51b81526004016109eb90614fc0565b6130308a8a613c41565b6008546040805160c0810182528d8152602081018d81528183018d81526000606084018181526080850191825260a085018f8152955163219f5d1760e01b815294516004860152925160248501529051604484015290516064830152516084820152905160a48201528c918c918c918c916001600160a01b039091169063219f5d179060c401606060405180830381600087803b1580156130d057600080fd5b505af11580156130e4573d6000803e3d6000fd5b505050506040513d601f19601f820116820180604052508101906131089190614acd565b600354600b54939e50919c509a506001600160a01b0391821691161461316f5789601554613136919061531a565b601581905560405185916000805160206155f483398151915291613162918e8252602082015260400190565b60405180910390a26131b2565b8860155461317d919061531a565b601581905560405185916000805160206155f4833981519152916131a9918d8252602082015260400190565b60405180910390a25b837fa88ed384c96385e07d5f3ba9385866f17995177886d1a5601601d8c8d69872518c8c8c6040516131e693929190615267565b60405180910390a250505050505050509450945094915050565b60168181548110610cac57600080fd5b60006109b78183611e75565b600a5460408051633850c7bd60e01b815290516000926001600160a01b031691633850c7bd9160048083019260e0929190829003018186803b15801561326157600080fd5b505afa158015613275573d6000803e3d6000fd5b505050506040513d601f19601f820116820180604052508101906132999190614b03565b505060085460405163133f757160e31b8152600481018990529496506000955085946001600160a01b0390911693506399fbab88925060240190506101806040518083038186803b1580156132ed57600080fd5b505afa158015613301573d6000803e3d6000fd5b505050506040513d601f19601f820116820180604052508101906133259190614d67565b50505050509650965050505050508160020b8360020b128061334c57508260020b8160020b125b6133935760405162461bcd60e51b81526020600482015260186024820152777469636b206973206e6f74206f7574206f662072616e676560401b60448201526064016109eb565b50505050565b6133a38282611e75565b6110b5576133bb816001600160a01b031660146142fa565b6133c68360206142fa565b6040516020016133d7929190614e9c565b60408051601f198184030181529082905262461bcd60e51b82526109eb91600401614f60565b6134078282611e75565b6110b5576000828152601d602090815260408083206001600160a01b03851684529091529020805460ff1916600117905561343f3390565b6001600160a01b0316816001600160a01b0316837f2f8788117e7eff1d82e926ec794901d17c78024a50270940304540a733656f0d60405160405180910390a45050565b61348d8282611e75565b156110b5576000828152601d602090815260408083206001600160a01b0385168085529252808320805460ff1916905551339285917ff6391f5c32d9c69d2a47ea670b442974b53935d1edc7fd64eb21e047a839171b9190a45050565b60006401000276a36001600160a01b03831610801590613526575073fffd8963efd1fc6a506488495d951d5263988d266001600160a01b038316105b6135565760405162461bcd60e51b81526020600482015260016024820152602960f91b60448201526064016109eb565b640100000000600160c01b03602083901b166001600160801b03811160071b81811c67ffffffffffffffff811160061b90811c63ffffffff811160051b90811c61ffff811160041b90811c60ff8111600390811b91821c600f811160021b90811c918211600190811b92831c979088119617909417909217179091171717608081106135f1576135e7607f8261546e565b83901c9150613602565b6135fc81607f61546e565b83901b91505b6000604061361160808461542f565b901b9050828302607f1c92508260801c80603f1b8217915083811c935050828302607f1c92508260801c80603e1b8217915083811c935050828302607f1c92508260801c80603d1b8217915083811c935050828302607f1c92508260801c80603c1b8217915083811c935050828302607f1c92508260801c80603b1b8217915083811c935050828302607f1c92508260801c80603a1b8217915083811c935050828302607f1c92508260801c8060391b8217915083811c935050828302607f1c92508260801c8060381b8217915083811c935050828302607f1c92508260801c8060371b8217915083811c935050828302607f1c92508260801c8060361b8217915083811c935050828302607f1c92508260801c8060351b8217915083811c935050828302607f1c92508260801c8060341b8217915083811c935050828302607f1c92508260801c8060331b8217915083811c935050828302607f1c92508260801c8060321b8217915050600081693627a301d71055774c856137949190615346565b9050600060806137b46f028f6481ab7f045a5af012a19d003aaa8461542f565b901d9050600060806137d6846fdb2df09e81959a81455e260799a0632f6152d9565b901d90508060020b8260020b1461381557886001600160a01b03166137fa8261382e565b6001600160a01b0316111561380f5781613817565b80613817565b815b9998505050505050505050565b6110b582826133fd565b60008060008360020b12613845578260020b613852565b8260020b6138529061554d565b9050613861620d89e71961552c565b60020b8111156138975760405162461bcd60e51b81526020600482015260016024820152601560fa1b60448201526064016109eb565b6000600182166138ab57600160801b6138bd565b6ffffcb933bd6fad37aa2d162d1a5940015b6001600160881b0316905060028216156138f25760806138ed826ffff97272373d413259a46990580e213a6153c9565b901c90505b600482161561391c576080613917826ffff2e50f5f656932ef12357cf3c7fdcc6153c9565b901c90505b6008821615613946576080613941826fffe5caca7e10e4e61c3624eaa0941cd06153c9565b901c90505b601082161561397057608061396b826fffcb9843d60f6159c9db58835c9266446153c9565b901c90505b602082161561399a576080613995826fff973b41fa98c081472e6896dfb254c06153c9565b901c90505b60408216156139c45760806139bf826fff2ea16466c96a3843ec78b326b528616153c9565b901c90505b60808216156139ee5760806139e9826ffe5dee046a99a2a811c461f1969c30536153c9565b901c90505b610100821615613a19576080613a14826ffcbe86c7900a88aedcffc83b479aa3a46153c9565b901c90505b610200821615613a44576080613a3f826ff987a7253ac413176f2b074cf7815e546153c9565b901c90505b610400821615613a6f576080613a6a826ff3392b0822b70005940c7a398e4b70f36153c9565b901c90505b610800821615613a9a576080613a95826fe7159475a2c29b7443b29c7fa6e889d96153c9565b901c90505b611000821615613ac5576080613ac0826fd097f3bdfd2022b8845ad8f792aa58256153c9565b901c90505b612000821615613af0576080613aeb826fa9f746462d870fdf8a65dc1f90e061e56153c9565b901c90505b614000821615613b1b576080613b16826f70d869a156d2a1b890bb3df62baf32f76153c9565b901c90505b618000821615613b46576080613b41826f31be135f97d08fd981231505542fcfa66153c9565b901c90505b62010000821615613b72576080613b6d826f09aa508b5b7a84e1c677de54f3e99bc96153c9565b901c90505b62020000821615613b9d576080613b98826e5d6af8dedb81196699c329225ee6046153c9565b901c90505b62040000821615613bc7576080613bc2826d2216e584f5fa1ea926041bedfe986153c9565b901c90505b62080000821615613bef576080613bea826b048a170391f7dc42444e8fa26153c9565b901c90505b60008460020b1315613c0a57613c0781600019615332565b90505b613c1964010000000082615518565b15613c25576001613c28565b60005b613c399060ff16602083901c61531a565b949350505050565b6003546040516370a0823160e01b815283916001600160a01b0316906370a0823190613c71903090600401614f0b565b60206040518083038186803b158015613c8957600080fd5b505afa158015613c9d573d6000803e3d6000fd5b505050506040513d601f19601f82011682018060405250810190613cc19190614b94565b1015613d065760405162461bcd60e51b81526020600482015260146024820152733a37b99034b99034b739bab33334b1b4b2b73a1760611b60448201526064016109eb565b6001546040516370a0823160e01b815282916001600160a01b0316906370a0823190613d36903090600401614f0b565b60206040518083038186803b158015613d4e57600080fd5b505afa158015613d62573d6000803e3d6000fd5b505050506040513d601f19601f82011682018060405250810190613d869190614b94565b1015613dcd5760405162461bcd60e51b81526020600482015260166024820152753a37b5b2b71034b99034b739bab33334b1b4b2b73a1760511b60448201526064016109eb565b600354600854604051636eb1769f60e11b81523060048201526001600160a01b03918216602482015291169063dd62ed3e9060440160206040518083038186803b158015613e1a57600080fd5b505afa158015613e2e573d6000803e3d6000fd5b505050506040513d601f19601f82011682018060405250810190613e529190614b94565b821115613f9157600354600854604080516318160ddd60e01b815290516001600160a01b039384169363095ea7b393169184916318160ddd91600480820192602092909190829003018186803b158015613eab57600080fd5b505afa158015613ebf573d6000803e3d6000fd5b505050506040513d601f19601f82011682018060405250810190613ee39190614b94565b6040518363ffffffff1660e01b8152600401613f00929190614f47565b602060405180830381600087803b158015613f1a57600080fd5b505af1158015613f2e573d6000803e3d6000fd5b505050506040513d601f19601f82011682018060405250810190613f5291906148e9565b613f915760405162461bcd60e51b815260206004820152601060248201526f1513d4c8185c1c1c9bdd994819985a5b60821b60448201526064016109eb565b600154600854604051636eb1769f60e11b81523060048201526001600160a01b03918216602482015291169063dd62ed3e9060440160206040518083038186803b158015613fde57600080fd5b505afa158015613ff2573d6000803e3d6000fd5b505050506040513d601f19601f820116820180604052508101906140169190614b94565b8111156110b557600154600854604080516318160ddd60e01b815290516001600160a01b039384169363095ea7b393169184916318160ddd91600480820192602092909190829003018186803b15801561406f57600080fd5b505afa158015614083573d6000803e3d6000fd5b505050506040513d601f19601f820116820180604052508101906140a79190614b94565b6040518363ffffffff1660e01b81526004016140c4929190614f47565b602060405180830381600087803b1580156140de57600080fd5b505af11580156140f2573d6000803e3d6000fd5b505050506040513d601f19601f8201168201806040525081019061411691906148e9565b6110b55760405162461bcd60e51b81526020600482015260126024820152711d1bdad95b88185c1c1c9bdd994819985a5b60721b60448201526064016109eb565b6110368363a9059cbb60e01b8484604051602401614176929190614f47565b60408051601f198184030181529190526020810180516001600160e01b03166001600160e01b0319909316929092179091526144e3565b600a5460408051633850c7bd60e01b815290516000926001600160a01b031691633850c7bd9160048083019260e0929190829003018186803b1580156141f257600080fd5b505afa158015614206573d6000803e3d6000fd5b505050506040513d601f19601f8201168201806040525081019061422a9190614b03565b505060085460405163133f757160e31b8152600481018990529496506000955085946001600160a01b0390911693506399fbab88925060240190506101806040518083038186803b15801561427e57600080fd5b505afa158015614292573d6000803e3d6000fd5b505050506040513d601f19601f820116820180604052508101906142b69190614d67565b50505050509650965050505050508260020b8260020b1280156142de57508060020b8360020b125b6133935760405162461bcd60e51b81526004016109eb90615113565b606060006143098360026153c9565b61431490600261531a565b67ffffffffffffffff81111561433a57634e487b7160e01b600052604160045260246000fd5b6040519080825280601f01601f191660200182016040528015614364576020820181803683370190505b509050600360fc1b8160008151811061438d57634e487b7160e01b600052603260045260246000fd5b60200101906001600160f81b031916908160001a905350600f60fb1b816001815181106143ca57634e487b7160e01b600052603260045260246000fd5b60200101906001600160f81b031916908160001a90535060006143ee8460026153c9565b6143f990600161531a565b90505b600181111561448d576f181899199a1a9b1b9c1cb0b131b232b360811b85600f166010811061443b57634e487b7160e01b600052603260045260246000fd5b1a60f81b82828151811061445f57634e487b7160e01b600052603260045260246000fd5b60200101906001600160f81b031916908160001a90535060049490941c93614486816154b1565b90506143fc565b5083156144dc5760405162461bcd60e51b815260206004820181905260248201527f537472696e67733a20686578206c656e67746820696e73756666696369656e7460448201526064016109eb565b9392505050565b6000614538826040518060400160405280602081526020017f5361666545524332303a206c6f772d6c6576656c2063616c6c206661696c6564815250856001600160a01b03166145b59092919063ffffffff16565b805190915015611036578080602001905181019061455691906148e9565b6110365760405162461bcd60e51b815260206004820152602a60248201527f5361666545524332303a204552433230206f7065726174696f6e20646964206e6044820152691bdd081cdd58d8d9595960b21b60648201526084016109eb565b6060613c39848460008585843b61460e5760405162461bcd60e51b815260206004820152601d60248201527f416464726573733a2063616c6c20746f206e6f6e2d636f6e747261637400000060448201526064016109eb565b600080866001600160a01b0316858760405161462a9190614e80565b60006040518083038185875af1925050503d8060008114614667576040519150601f19603f3d011682016040523d82523d6000602084013e61466c565b606091505b50915091506123a0828286606083156146865750816144dc565b8251156146965782518084602001fd5b8160405162461bcd60e51b81526004016109eb9190614f60565b8280546146bc906154c8565b90600052602060002090601f0160209004810192826146de5760008555614724565b82601f106146f757805160ff1916838001178555614724565b82800160010185558215614724579182015b82811115614724578251825591602001919060010190614709565b50611e719291505b80821115611e71576000815560010161472c565b803561474b816155a9565b919050565b805161474b816155a9565b60008083601f84011261476c578081fd5b50813567ffffffffffffffff811115614783578182fd5b6020830191508360208260051b850101111561479e57600080fd5b9250929050565b8051801515811461474b57600080fd5b805161474b816155be565b805161474b816155cd565b805161ffff8116811461474b57600080fd5b805161474b816155e2565b6000602082840312156147f9578081fd5b81356144dc816155a9565b600060208284031215614815578081fd5b81516144dc816155a9565b600080600060608486031215614834578182fd5b833561483f816155a9565b9250602084013561484f816155a9565b9150604084013561485f816155a9565b809150509250925092565b60008060006060848603121561487e578283fd5b8335614889816155a9565b92506020840135614899816155a9565b9150604084013561485f816155e2565b6000806000606084860312156148bd578283fd5b83356148c8816155a9565b925060208401356148d8816155a9565b929592945050506040919091013590565b6000602082840312156148fa578081fd5b6144dc826147a5565b600060208284031215614914578081fd5b5035919050565b6000806040838503121561492d578182fd5b82359150602083013561493f816155a9565b809150509250929050565b60006020828403121561495b578081fd5b81356001600160e01b0319811681146144dc578182fd5b600060208284031215614983578081fd5b81356144dc816155be565b600080604083850312156149a0578182fd5b82356149ab816155be565b9150602083013561493f816155be565b600080600080608085870312156149d0578182fd5b84356149db816155be565b935060208501356149eb816155be565b93969395505050506040820135916060013590565b600080600060608486031215614a14578081fd5b833567ffffffffffffffff80821115614a2b578283fd5b818601915086601f830112614a3e578283fd5b813581811115614a5057614a50615593565b604051601f8201601f19908116603f01168101908382118183101715614a7857614a78615593565b81604052828152896020848701011115614a90578586fd5b8260208601602083013785602084830101528097505050505050614ab660208501614740565b9150614ac460408501614740565b90509250925092565b600080600060608486031215614ae1578081fd5b8351614aec816155cd565b602085015160409095015190969495509392505050565b600080600080600080600060e0888a031215614b1d578485fd5b8751614b28816155a9565b6020890151909750614b39816155be565b9550614b47604089016147cb565b9450614b55606089016147cb565b9350614b63608089016147cb565b925060a088015160ff81168114614b78578283fd5b9150614b8660c089016147a5565b905092959891949750929550565b600060208284031215614ba5578081fd5b5051919050565b600080600060608486031215614bc0578081fd5b833592506020840135614bd2816155cd565b9150604084013561485f816155cd565b60008060008060808587031215614bf7578182fd5b845193506020850151614c09816155cd565b6040860151606090960151949790965092505050565b600080600080600060a08688031215614c36578283fd5b853594506020860135614c48816155cd565b94979496505050506040830135926060810135926080909101359150565b60008060408385031215614c78578182fd5b505080516020909101519092909150565b60008060008060008060808789031215614ca1578384fd5b8635955060208701359450604087013567ffffffffffffffff80821115614cc6578586fd5b614cd28a838b0161475b565b90965094506060890135915080821115614cea578384fd5b50614cf789828a0161475b565b979a9699509497509295939492505050565b600080600060608486031215614d1d578081fd5b8335925060208401359150604084013561485f816155a9565b60008060008060808587031215614d4b578182fd5b5050823594602084013594506040840135936060013592509050565b6000806000806000806000806000806000806101808d8f031215614d89578586fd5b8c516bffffffffffffffffffffffff81168114614da4578687fd5b9b50614db260208e01614750565b9a50614dc060408e01614750565b9950614dce60608e01614750565b9850614ddc60808e016147dd565b9750614dea60a08e016147b5565b9650614df860c08e016147b5565b9550614e0660e08e016147c0565b94506101008d015193506101208d01519250614e256101408e016147c0565b9150614e346101608e016147c0565b90509295989b509295989b509295989b565b6000815180845260208085019450808401835b83811015614e7557815187529582019590820190600101614e59565b509495945050505050565b60008251614e92818460208701615485565b9190910192915050565b76020b1b1b2b9b9a1b7b73a3937b61d1030b1b1b7bab73a1604d1b815260008351614ece816017850160208801615485565b7001034b99036b4b9b9b4b733903937b6329607d1b6017918401918201528351614eff816028840160208801615485565b01602801949350505050565b6001600160a01b0391909116815260200190565b6001600160a01b03938416815291909216602082015262ffffff909116604082015260600190565b6001600160a01b03929092168252602082015260400190565b6020815260008251806020840152614f7f816040850160208701615485565b601f01601f19169190910160400192915050565b6020808252601390820152725661756c743a207a65726f206164647265737360681b604082015260600190565b6020808252601a908201527f65786365656420746f20636c61696d61626c6520616d6f756e74000000000000604082015260600190565b60208082526022908201527f41636365737369626c653a2043616c6c6572206973206e6f7420616e2061646d60408201526134b760f11b606082015260800190565b60208082526018908201527741636365737369626c653a207a65726f206164647265737360401b604082015260600190565b60208082526016908201527515985d5b1d0e881b9bdd081cdd185c9d1959081e595d60521b604082015260600190565b60208082526016908201527515985d5b1d0e88185b1c9958591e48105b1b0819d95d60521b604082015260600190565b60208082526028908201527f41636365737369626c653a2043616c6c6572206973206e6f7420616e2070726f6040820152673c3c9030b236b4b760c11b606082015260800190565b6020808252601490820152737469636b206973206f7574206f662072616e676560601b604082015260600190565b60208082526016908201527520b1b1b2b9b9b4b136329d1039b0b6b29030b236b4b760511b604082015260600190565b60208082526018908201527705661756c743a206265666f726520736574556e69737761760441b604082015260600190565b81516001600160a01b03168152610160810160208301516151cf60208401826001600160a01b03169052565b5060408301516151e6604084018262ffffff169052565b5060608301516151fb606084018260020b9052565b506080830151615210608084018260020b9052565b5060a083015160a083015260c083015160c083015260e083015160e083015261010080840151818401525061012080840151615256828501826001600160a01b03169052565b505061014092830151919092015290565b6001600160801b039390931683526020830191909152604082015260600190565b85815260a0602082015260006152a160a0830187614e46565b82810360408401526152b38187614e46565b905084606084015282810360808401526152cd8185614e46565b98975050505050505050565b600080821280156001600160ff1b03849003851316156152fb576152fb615567565b600160ff1b839003841281161561531457615314615567565b50500190565b6000821982111561532d5761532d615567565b500190565b6000826153415761534161557d565b500490565b60006001600160ff1b038184138284138082168684048611161561536c5761536c615567565b600160ff1b8487128281168783058912161561538a5761538a615567565b8587129250878205871284841616156153a5576153a5615567565b878505871281841616156153bb576153bb615567565b505050929093029392505050565b60008160001904831182151516156153e3576153e3615567565b500290565b60008160020b8360020b82811281627fffff190183128115161561540e5761540e615567565b81627fffff01831381161561542557615425615567565b5090039392505050565b60008083128015600160ff1b85018412161561544d5761544d615567565b6001600160ff1b038401831381161561546857615468615567565b50500390565b60008282101561548057615480615567565b500390565b60005b838110156154a0578181015183820152602001615488565b838111156133935750506000910152565b6000816154c0576154c0615567565b506000190190565b600181811c908216806154dc57607f821691505b60208210811415611fd457634e487b7160e01b600052602260045260246000fd5b600060001982141561551157615511615567565b5060010190565b6000826155275761552761557d565b500690565b60008160020b627fffff1981141561554657615546615567565b9003919050565b6000600160ff1b82141561556357615563615567565b0390565b634e487b7160e01b600052601160045260246000fd5b634e487b7160e01b600052601260045260246000fd5b634e487b7160e01b600052604160045260246000fd5b6001600160a01b038116811461143457600080fd5b8060020b811461143457600080fd5b6001600160801b038116811461143457600080fd5b62ffffff8116811461143457600080fdfed16b1baf5a6367aef04997ff7695583fd3c7b775ba5d24a74c7ae3f33582f32c52eafc11f6f81f86878bffd31109a0d92f37506527754f00788853ff9f63b130a2646970667358221220ff3150dcd58f2fa3c74a498e3d3135b7baa5df5290ac3c8419e1fffa5adcd8c464736f6c63430008040033",
  "linkReferences": {},
  "deployedLinkReferences": {}
}