{
    "_format": "hh-sol-artifact-1",
    "contractName": "PublicSaleProxyFactory",
    "sourceName": "contracts/factory/PublicSaleProxyFactory.sol",
    "abi": [
        {
            "inputs": [],
            "stateMutability": "nonpayable",
            "type": "constructor"
        },
        {
            "anonymous": false,
            "inputs": [
                {
                    "indexed": false,
                    "internalType": "address",
                    "name": "contractAddress",
                    "type": "address"
                },
                {
                    "indexed": false,
                    "internalType": "string",
                    "name": "name",
                    "type": "string"
                }
            ],
            "name": "CreatedPublicSaleProxy",
            "type": "event"
        },
        {
            "anonymous": false,
            "inputs": [
                {
                    "indexed": true,
                    "internalType": "bytes32",
                    "name": "role",
                    "type": "bytes32"
                },
                {
                    "indexed": true,
                    "internalType": "bytes32",
                    "name": "previousAdminRole",
                    "type": "bytes32"
                },
                {
                    "indexed": true,
                    "internalType": "bytes32",
                    "name": "newAdminRole",
                    "type": "bytes32"
                }
            ],
            "name": "RoleAdminChanged",
            "type": "event"
        },
        {
            "anonymous": false,
            "inputs": [
                {
                    "indexed": true,
                    "internalType": "bytes32",
                    "name": "role",
                    "type": "bytes32"
                },
                {
                    "indexed": true,
                    "internalType": "address",
                    "name": "account",
                    "type": "address"
                },
                {
                    "indexed": true,
                    "internalType": "address",
                    "name": "sender",
                    "type": "address"
                }
            ],
            "name": "RoleGranted",
            "type": "event"
        },
        {
            "anonymous": false,
            "inputs": [
                {
                    "indexed": true,
                    "internalType": "bytes32",
                    "name": "role",
                    "type": "bytes32"
                },
                {
                    "indexed": true,
                    "internalType": "address",
                    "name": "account",
                    "type": "address"
                },
                {
                    "indexed": true,
                    "internalType": "address",
                    "name": "sender",
                    "type": "address"
                }
            ],
            "name": "RoleRevoked",
            "type": "event"
        },
        {
            "inputs": [],
            "name": "ADMIN_ROLE",
            "outputs": [
                {
                    "internalType": "bytes32",
                    "name": "",
                    "type": "bytes32"
                }
            ],
            "stateMutability": "view",
            "type": "function"
        },
        {
            "inputs": [],
            "name": "BURNER_ROLE",
            "outputs": [
                {
                    "internalType": "bytes32",
                    "name": "",
                    "type": "bytes32"
                }
            ],
            "stateMutability": "view",
            "type": "function"
        },
        {
            "inputs": [],
            "name": "DEFAULT_ADMIN_ROLE",
            "outputs": [
                {
                    "internalType": "bytes32",
                    "name": "",
                    "type": "bytes32"
                }
            ],
            "stateMutability": "view",
            "type": "function"
        },
        {
            "inputs": [],
            "name": "MINTER_ROLE",
            "outputs": [
                {
                    "internalType": "bytes32",
                    "name": "",
                    "type": "bytes32"
                }
            ],
            "stateMutability": "view",
            "type": "function"
        },
        {
            "inputs": [],
            "name": "PROJECT_ADMIN_ROLE",
            "outputs": [
                {
                    "internalType": "bytes32",
                    "name": "",
                    "type": "bytes32"
                }
            ],
            "stateMutability": "view",
            "type": "function"
        },
        {
            "inputs": [
                {
                    "internalType": "address",
                    "name": "account",
                    "type": "address"
                }
            ],
            "name": "addAdmin",
            "outputs": [],
            "stateMutability": "nonpayable",
            "type": "function"
        },
        {
            "inputs": [
                {
                    "internalType": "address[3]",
                    "name": "_addr",
                    "type": "address[3]"
                },
                {
                    "internalType": "uint256[7]",
                    "name": "_value",
                    "type": "uint256[7]"
                }
            ],
            "name": "allSet",
            "outputs": [],
            "stateMutability": "nonpayable",
            "type": "function"
        },
        {
            "inputs": [
                {
                    "internalType": "address[6]",
                    "name": "_basicAddress",
                    "type": "address[6]"
                }
            ],
            "name": "basicSet",
            "outputs": [],
            "stateMutability": "nonpayable",
            "type": "function"
        },
        {
            "inputs": [
                {
                    "internalType": "string",
                    "name": "name",
                    "type": "string"
                },
                {
                    "internalType": "address",
                    "name": "_owner",
                    "type": "address"
                },
                {
                    "internalType": "address[3]",
                    "name": "saleAddresses",
                    "type": "address[3]"
                },
                {
                    "internalType": "uint256",
                    "name": "_index",
                    "type": "uint256"
                }
            ],
            "name": "create",
            "outputs": [
                {
                    "internalType": "address",
                    "name": "",
                    "type": "address"
                }
            ],
            "stateMutability": "nonpayable",
            "type": "function"
        },
        {
            "inputs": [
                {
                    "internalType": "uint256",
                    "name": "",
                    "type": "uint256"
                }
            ],
            "name": "createdContracts",
            "outputs": [
                {
                    "internalType": "address",
                    "name": "contractAddress",
                    "type": "address"
                },
                {
                    "internalType": "string",
                    "name": "name",
                    "type": "string"
                }
            ],
            "stateMutability": "view",
            "type": "function"
        },
        {
            "inputs": [],
            "name": "delayTime",
            "outputs": [
                {
                    "internalType": "uint256",
                    "name": "",
                    "type": "uint256"
                }
            ],
            "stateMutability": "view",
            "type": "function"
        },
        {
            "inputs": [
                {
                    "internalType": "uint256",
                    "name": "_index",
                    "type": "uint256"
                }
            ],
            "name": "getContracts",
            "outputs": [
                {
                    "internalType": "address",
                    "name": "contractAddress",
                    "type": "address"
                },
                {
                    "internalType": "string",
                    "name": "name",
                    "type": "string"
                }
            ],
            "stateMutability": "view",
            "type": "function"
        },
        {
            "inputs": [
                {
                    "internalType": "bytes32",
                    "name": "role",
                    "type": "bytes32"
                }
            ],
            "name": "getRoleAdmin",
            "outputs": [
                {
                    "internalType": "bytes32",
                    "name": "",
                    "type": "bytes32"
                }
            ],
            "stateMutability": "view",
            "type": "function"
        },
        {
            "inputs": [
                {
                    "internalType": "bytes32",
                    "name": "role",
                    "type": "bytes32"
                },
                {
                    "internalType": "address",
                    "name": "account",
                    "type": "address"
                }
            ],
            "name": "grantRole",
            "outputs": [],
            "stateMutability": "nonpayable",
            "type": "function"
        },
        {
            "inputs": [
                {
                    "internalType": "bytes32",
                    "name": "role",
                    "type": "bytes32"
                },
                {
                    "internalType": "address",
                    "name": "account",
                    "type": "address"
                }
            ],
            "name": "hasRole",
            "outputs": [
                {
                    "internalType": "bool",
                    "name": "",
                    "type": "bool"
                }
            ],
            "stateMutability": "view",
            "type": "function"
        },
        {
            "inputs": [
                {
                    "internalType": "address",
                    "name": "account",
                    "type": "address"
                }
            ],
            "name": "isAdmin",
            "outputs": [
                {
                    "internalType": "bool",
                    "name": "",
                    "type": "bool"
                }
            ],
            "stateMutability": "view",
            "type": "function"
        },
        {
            "inputs": [],
            "name": "lastestCreated",
            "outputs": [
                {
                    "internalType": "address",
                    "name": "contractAddress",
                    "type": "address"
                },
                {
                    "internalType": "string",
                    "name": "name",
                    "type": "string"
                }
            ],
            "stateMutability": "view",
            "type": "function"
        },
        {
            "inputs": [],
            "name": "logEventAddress",
            "outputs": [
                {
                    "internalType": "address",
                    "name": "",
                    "type": "address"
                }
            ],
            "stateMutability": "view",
            "type": "function"
        },
        {
            "inputs": [],
            "name": "maxTOS",
            "outputs": [
                {
                    "internalType": "uint256",
                    "name": "",
                    "type": "uint256"
                }
            ],
            "stateMutability": "view",
            "type": "function"
        },
        {
            "inputs": [],
            "name": "minTOS",
            "outputs": [
                {
                    "internalType": "uint256",
                    "name": "",
                    "type": "uint256"
                }
            ],
            "stateMutability": "view",
            "type": "function"
        },
        {
            "inputs": [],
            "name": "publicLogic",
            "outputs": [
                {
                    "internalType": "address",
                    "name": "",
                    "type": "address"
                }
            ],
            "stateMutability": "view",
            "type": "function"
        },
        {
            "inputs": [
                {
                    "internalType": "address",
                    "name": "account",
                    "type": "address"
                }
            ],
            "name": "removeAdmin",
            "outputs": [],
            "stateMutability": "nonpayable",
            "type": "function"
        },
        {
            "inputs": [
                {
                    "internalType": "bytes32",
                    "name": "role",
                    "type": "bytes32"
                },
                {
                    "internalType": "address",
                    "name": "account",
                    "type": "address"
                }
            ],
            "name": "renounceRole",
            "outputs": [],
            "stateMutability": "nonpayable",
            "type": "function"
        },
        {
            "inputs": [
                {
                    "internalType": "bytes32",
                    "name": "role",
                    "type": "bytes32"
                },
                {
                    "internalType": "address",
                    "name": "account",
                    "type": "address"
                }
            ],
            "name": "revokeRole",
            "outputs": [],
            "stateMutability": "nonpayable",
            "type": "function"
        },
        {
            "inputs": [],
            "name": "sTOSAddress",
            "outputs": [
                {
                    "internalType": "address",
                    "name": "",
                    "type": "address"
                }
            ],
            "stateMutability": "view",
            "type": "function"
        },
        {
            "inputs": [
                {
                    "internalType": "uint256",
                    "name": "_delay",
                    "type": "uint256"
                }
            ],
            "name": "setDelay",
            "outputs": [],
            "stateMutability": "nonpayable",
            "type": "function"
        },
        {
            "inputs": [
                {
                    "internalType": "address",
                    "name": "_addr",
                    "type": "address"
                }
            ],
            "name": "setEventLog",
            "outputs": [],
            "stateMutability": "nonpayable",
            "type": "function"
        },
        {
            "inputs": [
                {
                    "internalType": "uint256",
                    "name": "_min",
                    "type": "uint256"
                },
                {
                    "internalType": "uint256",
                    "name": "_max",
                    "type": "uint256"
                }
            ],
            "name": "setMaxMin",
            "outputs": [],
            "stateMutability": "nonpayable",
            "type": "function"
        },
        {
            "inputs": [
                {
                    "internalType": "uint256",
                    "name": "_tier1",
                    "type": "uint256"
                },
                {
                    "internalType": "uint256",
                    "name": "_tier2",
                    "type": "uint256"
                },
                {
                    "internalType": "uint256",
                    "name": "_tier3",
                    "type": "uint256"
                },
                {
                    "internalType": "uint256",
                    "name": "_tier4",
                    "type": "uint256"
                }
            ],
            "name": "setSTOS",
            "outputs": [],
            "stateMutability": "nonpayable",
            "type": "function"
        },
        {
            "inputs": [
                {
                    "internalType": "address",
                    "name": "addr",
                    "type": "address"
                }
            ],
            "name": "setUpgradeAdmin",
            "outputs": [],
            "stateMutability": "nonpayable",
            "type": "function"
        },
        {
            "inputs": [
                {
                    "internalType": "address",
                    "name": "_vaultFactory",
                    "type": "address"
                }
            ],
            "name": "setVault",
            "outputs": [],
            "stateMutability": "nonpayable",
            "type": "function"
        },
        {
            "inputs": [
                {
                    "internalType": "bytes4",
                    "name": "interfaceId",
                    "type": "bytes4"
                }
            ],
            "name": "supportsInterface",
            "outputs": [
                {
                    "internalType": "bool",
                    "name": "",
                    "type": "bool"
                }
            ],
            "stateMutability": "view",
            "type": "function"
        },
        {
            "inputs": [],
            "name": "tier1",
            "outputs": [
                {
                    "internalType": "uint256",
                    "name": "",
                    "type": "uint256"
                }
            ],
            "stateMutability": "view",
            "type": "function"
        },
        {
            "inputs": [],
            "name": "tier2",
            "outputs": [
                {
                    "internalType": "uint256",
                    "name": "",
                    "type": "uint256"
                }
            ],
            "stateMutability": "view",
            "type": "function"
        },
        {
            "inputs": [],
            "name": "tier3",
            "outputs": [
                {
                    "internalType": "uint256",
                    "name": "",
                    "type": "uint256"
                }
            ],
            "stateMutability": "view",
            "type": "function"
        },
        {
            "inputs": [],
            "name": "tier4",
            "outputs": [
                {
                    "internalType": "uint256",
                    "name": "",
                    "type": "uint256"
                }
            ],
            "stateMutability": "view",
            "type": "function"
        },
        {
            "inputs": [],
            "name": "tonAddress",
            "outputs": [
                {
                    "internalType": "address",
                    "name": "",
                    "type": "address"
                }
            ],
            "stateMutability": "view",
            "type": "function"
        },
        {
            "inputs": [],
            "name": "tosAddress",
            "outputs": [
                {
                    "internalType": "address",
                    "name": "",
                    "type": "address"
                }
            ],
            "stateMutability": "view",
            "type": "function"
        },
        {
            "inputs": [],
            "name": "totalCreatedContracts",
            "outputs": [
                {
                    "internalType": "uint256",
                    "name": "",
                    "type": "uint256"
                }
            ],
            "stateMutability": "view",
            "type": "function"
        },
        {
            "inputs": [
                {
                    "internalType": "address",
                    "name": "newAdmin",
                    "type": "address"
                }
            ],
            "name": "transferAdmin",
            "outputs": [],
            "stateMutability": "nonpayable",
            "type": "function"
        },
        {
            "inputs": [],
            "name": "uniRouterAddress",
            "outputs": [
                {
                    "internalType": "address",
                    "name": "",
                    "type": "address"
                }
            ],
            "stateMutability": "view",
            "type": "function"
        },
        {
            "inputs": [],
            "name": "upgradeAdmin",
            "outputs": [
                {
                    "internalType": "address",
                    "name": "",
                    "type": "address"
                }
            ],
            "stateMutability": "view",
            "type": "function"
        },
        {
            "inputs": [],
            "name": "vaultFactory",
            "outputs": [
                {
                    "internalType": "address",
                    "name": "",
                    "type": "address"
                }
            ],
            "stateMutability": "view",
            "type": "function"
        },
        {
            "inputs": [],
            "name": "wtonAddress",
            "outputs": [
                {
                    "internalType": "address",
                    "name": "",
                    "type": "address"
                }
            ],
            "stateMutability": "view",
            "type": "function"
        }
    ],
    "bytecode": "0x60806040523480156200001157600080fd5b5060006001556200003260008051602062004fe78339815191528062000065565b6200004d60008051602062004fe783398151915233620000b0565b600c80546001600160a01b0319163317905562000160565b600082815260208190526040808220600101805490849055905190918391839186917fbd79b86ffe0ab8e8776151514217cd7cacd52c909f66475c3af44e129f0b00ff9190a4505050565b620000bc8282620000c0565b5050565b6000828152602081815260408083206001600160a01b038516845290915290205460ff16620000bc576000828152602081815260408083206001600160a01b03851684529091529020805460ff191660011790556200011c3390565b6001600160a01b0316816001600160a01b0316837f2f8788117e7eff1d82e926ec794901d17c78024a50270940304540a733656f0d60405160405180910390a45050565b614e7780620001706000396000f3fe60806040523480156200001157600080fd5b5060043610620002325760003560e01c806301ffc9a714620002375780630881139714620002635780630eec5ef1146200028a5780631042f08d14620002a35780631785f53c14620002c65780631b61aaab14620002dd578063248a9ca314620002f457806324d7806c146200031a578063282c51f314620003315780632f2ff15d1462000359578063338bad5f146200037057806333ae7166146200037a57806336568abe14620003845780633806153e146200039b57806341c04d5e14620003a5578063439e23fd14620003cd5780634a24005114620003e45780634b1740ad14620003f8578063520a63dc14620004025780636817031b146200040c578063693a090b14620004235780636a93d511146200043757806370480275146200044b57806375829def146200046257806375b238fc146200047957806377fc004514620004905780637e2eee5314620004a457806384d3bac314620004ae57806389ae153e14620004b8578063906a5c5a14620004cf57806391d1485414620004e65780639342f41714620004fd578063a217fddf1462000514578063b8ead735146200051d578063bb6b13a11462000531578063c4d5608a146200053b578063d0526187146200054f578063d53913931462000559578063d547741f1462000581578063d8a06f731462000598578063e177246e14620005ac578063eab73ca114620005c3578063eff616f014620005d7578063fc8c974514620005ee575b600080fd5b6200024e6200024836600462001cca565b62000605565b60405190151581526020015b60405180910390f35b6200027a6200027436600462001cf6565b6200063d565b6040516200025a92919062001d64565b620002a16200029b36600462001d92565b620006f4565b005b600754620002b7906001600160a01b031681565b6040516200025a919062001dbc565b620002a1620002d736600462001de6565b62000853565b620002a1620002ee36600462001e06565b6200089b565b6200030b6200030536600462001cf6565b62000933565b6040519081526020016200025a565b6200024e6200032b36600462001de6565b62000948565b6200030b7f9667e80708b6eeeb0053fa0cca44e028ff548e2a9f029edfeac87c118b08b7c881565b620002a16200036a36600462001e39565b62000965565b6200027a6200098c565b6200030b60105481565b620002a16200039536600462001e39565b62000aa5565b6200030b600e5481565b6200030b7f52eafc11f6f81f86878bffd31109a0d92f37506527754f00788853ff9f63b13081565b6200027a620003de36600462001cf6565b62000b27565b600b54620002b7906001600160a01b031681565b6200030b600f5481565b6200030b60025481565b620002a16200041d36600462001de6565b62000c0d565b600854620002b7906001600160a01b031681565b600454620002b7906001600160a01b031681565b620002a16200045c36600462001de6565b62000c8a565b620002a16200047336600462001de6565b62000ccf565b6200030b60008051602062004e2283398151915281565b600654620002b7906001600160a01b031681565b6200030b60115481565b6200030b60035481565b620002a1620004c936600462001e6c565b62000dd5565b620002b7620004e036600462001ea1565b62000e4c565b6200024e620004f736600462001e39565b62001703565b620002a16200050e36600462001de6565b6200172c565b6200030b600081565b600554620002b7906001600160a01b031681565b6200030b600d5481565b600c54620002b7906001600160a01b031681565b6200030b60015481565b6200030b7ff0887ba65ee2024ea881d91b74c2450ef19e1557f03bed3ea9f16b037cbe2dc981565b620002a16200059236600462001e39565b620017d4565b600954620002b7906001600160a01b031681565b620002a1620005bd36600462001cf6565b620017f6565b600a54620002b7906001600160a01b031681565b620002a1620005e836600462001f44565b62001865565b620002a1620005ff36600462001de6565b6200190c565b60006001600160e01b03198216637965db0b60e01b14806200063757506301ffc9a760e01b6001600160e01b03198316145b92915050565b601260205260009081526040902080546001820180546001600160a01b0390921692916200066b9062001f86565b80601f0160208091040260200160405190810160405280929190818152602001828054620006999062001f86565b8015620006ea5780601f10620006be57610100808354040283529160200191620006ea565b820191906000526020600020905b815481529060010190602001808311620006cc57829003601f168201915b5050505050905082565b620006ff3362000948565b620007275760405162461bcd60e51b81526004016200071e9062001fbc565b60405180910390fd5b62000736602082018262001de6565b600480546001600160a01b0319166001600160a01b039290921691909117905562000768604082016020830162001de6565b600580546001600160a01b0319166001600160a01b03929092169190911790556200079a606082016040830162001de6565b600680546001600160a01b0319166001600160a01b0392909216919091179055620007cc608082016060830162001de6565b600780546001600160a01b0319166001600160a01b0392909216919091179055620007fe60a082016080830162001de6565b600880546001600160a01b0319166001600160a01b03929092169190911790556200083060c0820160a0830162001de6565b600b80546001600160a01b0319166001600160a01b039290921691909117905550565b6200085e3362000948565b6200087d5760405162461bcd60e51b81526004016200071e9062001fbc565b6200089860008051602062004e228339815191528262000aa5565b50565b620008a63362000948565b620008c55760405162461bcd60e51b81526004016200071e9062001fbc565b8284108015620008d457508183105b8015620008e057508082105b6200091f5760405162461bcd60e51b815260206004820152600e60248201526d3a34b2b91039b2ba1032b93937b960911b60448201526064016200071e565b600d93909355600e91909155600f55601055565b60009081526020819052604090206001015490565b60006200063760008051602062004e228339815191528362001703565b620009708262000933565b6200097b8162001989565b62000987838362001995565b505050565b600060606000600154111562000a90576012600060018054620009b091906200202a565b81526020810191909152604001600090812054600180546001600160a01b03909216926012929091620009e3916200202a565b815260200190815260200160002060010180805462000a029062001f86565b80601f016020809104026020016040519081016040528092919081815260200182805462000a309062001f86565b801562000a815780601f1062000a555761010080835404028352916020019162000a81565b820191906000526020600020905b81548152906001019060200180831162000a6357829003601f168201915b50505050509050915091509091565b50506040805160208101909152600080825291565b6001600160a01b038116331462000b175760405162461bcd60e51b815260206004820152602f60248201527f416363657373436f6e74726f6c3a2063616e206f6e6c792072656e6f756e636560448201526e103937b632b9903337b91039b2b63360891b60648201526084016200071e565b62000b23828262001a1d565b5050565b6000606060015483101562000bf55760008381526012602052604090208054600190910180546001600160a01b0390921691819062000b669062001f86565b80601f016020809104026020016040519081016040528092919081815260200182805462000b949062001f86565b801562000be55780601f1062000bb95761010080835404028352916020019162000be5565b820191906000526020600020905b81548152906001019060200180831162000bc757829003601f168201915b5050505050905091509150915091565b50506040805160208101909152600080825292909150565b62000c183362000948565b62000c375760405162461bcd60e51b81526004016200071e9062001fbc565b6009546001600160a01b039081169082160362000c685760405162461bcd60e51b81526004016200071e9062002040565b600980546001600160a01b0319166001600160a01b0392909216919091179055565b62000c953362000948565b62000cb45760405162461bcd60e51b81526004016200071e9062001fbc565b6200089860008051602062004e228339815191528262000965565b62000cda3362000948565b62000cf95760405162461bcd60e51b81526004016200071e9062001fbc565b6001600160a01b03811662000d4c5760405162461bcd60e51b815260206004820152601860248201527741636365737369626c653a207a65726f206164647265737360401b60448201526064016200071e565b6001600160a01b038116330362000d9f5760405162461bcd60e51b815260206004820152601660248201527520b1b1b2b9b9b4b136329d1039b0b6b29030b236b4b760511b60448201526064016200071e565b62000dba60008051602062004e228339815191528262000965565b6200089860008051602062004e228339815191523362000aa5565b62000de03362000948565b62000dff5760405162461bcd60e51b81526004016200071e9062001fbc565b80821062000e415760405162461bcd60e51b815260206004820152600e60248201526d0dccacac840dad2dc407840dac2f60931b60448201526064016200071e565b600291909155600355565b6000836001600160a01b03811662000e785760405162461bcd60e51b81526004016200071e9062002064565b62000e87602085018562001de6565b6001600160a01b03811662000eb05760405162461bcd60e51b81526004016200071e9062002064565b62000ec2604086016020870162001de6565b6001600160a01b03811662000eeb5760405162461bcd60e51b81526004016200071e9062002064565b62000efd606087016040880162001de6565b6001600160a01b03811662000f265760405162461bcd60e51b81526004016200071e9062002064565b8862000f655760405162461bcd60e51b815260206004820152600d60248201526c6e616d6520697320656d70747960981b60448201526064016200071e565b600060405162000f759062001cbc565b604051809103906000f08015801562000f92573d6000803e3d6000fd5b5090506001600160a01b03811662000fda5760405162461bcd60e51b815260206004820152600a60248201526970726f7879207a65726f60b01b60448201526064016200071e565b60095460405163439e23fd60e01b8152600481018990526000916001600160a01b03169063439e23fd90602401600060405180830381865afa15801562001025573d6000803e3d6000fd5b505050506040513d6000823e601f3d908101601f191682016040526200104f9190810190620020b0565b5090506200106460608a0160408b0162001de6565b6001600160a01b0316816001600160a01b031614620010bf5760405162461bcd60e51b8152602060048201526016602482015275185b9bdd1a195c881b1a5c5d5a591a5d1e55985d5b1d60521b60448201526064016200071e565b600c546040516325bc555f60e21b81526001600160a01b03848116926396f1557c92620010f3929091169060040162001dbc565b600060405180830381600087803b1580156200110e57600080fd5b505af115801562001123573d6000803e3d6000fd5b5050600c54604051637048027560e01b81526001600160a01b038087169450637048027593506200115992169060040162001dbc565b600060405180830381600087803b1580156200117457600080fd5b505af115801562001189573d6000803e3d6000fd5b5050604051637048027560e01b81526001600160a01b038516925063704802759150620011bb908d9060040162001dbc565b600060405180830381600087803b158015620011d657600080fd5b505af1158015620011eb573d6000803e3d6000fd5b5050600b54604051637cd5f66360e01b81526001600160a01b03918216600482015260006024820152600160448201529085169250637cd5f6639150606401600060405180830381600087803b1580156200124557600080fd5b505af11580156200125a573d6000803e3d6000fd5b5050506001600160a01b038316905063c0c53b8b6200127d60208c018c62001de6565b6200128f60408d0160208e0162001de6565b620012a160608e0160408f0162001de6565b60405160e085901b6001600160e01b03191681526001600160a01b03938416600482015291831660248301529091166044820152606401600060405180830381600087803b158015620012f357600080fd5b505af115801562001308573d6000803e3d6000fd5b505060048054600654600554600854600754604051636d9ff15760e01b81526001600160a01b039586169681019690965292841660248601529083166044850152821660648401528116608483015285169250636d9ff157915060a401600060405180830381600087803b1580156200138057600080fd5b505af115801562001395573d6000803e3d6000fd5b505060025460035460405163653a151b60e01b8152600481019290925260248201526001600160a01b038516925063653a151b9150604401600060405180830381600087803b158015620013e857600080fd5b505af1158015620013fd573d6000803e3d6000fd5b5050600d54600e54600f5460105460405163561e233b60e11b815260048101949094526024840192909252604483015260648201526001600160a01b038516925063ac3c46769150608401600060405180830381600087803b1580156200146357600080fd5b505af115801562001478573d6000803e3d6000fd5b505060115460405163112a3da360e31b815260048101919091526001600160a01b0385169250638951ed189150602401600060405180830381600087803b158015620014c357600080fd5b505af1158015620014d8573d6000803e3d6000fd5b50505050816001600160a01b0316639a202d476040518163ffffffff1660e01b8152600401600060405180830381600087803b1580156200151857600080fd5b505af11580156200152d573d6000803e3d6000fd5b505050506040518060400160405280836001600160a01b031681526020018d8d8080601f0160208091040260200160405190810160405280939291908181526020018383808284376000920182905250939094525050600180548252601260209081526040909220845181546001600160a01b0319166001600160a01b0390911617815591840151919250820190620015c79082620021d2565b50506001805491506000620015dc836200229e565b91905055506000828d8d604051602001620015fa93929190620022ba565b60408051601f1981840301815290829052600a5463beee31bf60e01b83529092506001600160a01b03169063beee31bf9062001681907f5f972b23217734c5c40aaa04980bc647314f310a8679234cf0bc9478803286f5907f28f876e0274a3093ecb1b6a264297d94e351fbdf53f265e39c0f76bb12efedf99030908790600401620022fa565b600060405180830381600087803b1580156200169c57600080fd5b505af1158015620016b1573d6000803e3d6000fd5b505050507fb5f4f34b25ae6ed4df40be765442ea13afd293618f4f3815fee7de7ed6244378838e8e604051620016ea93929190620022ba565b60405180910390a150909b9a5050505050505050505050565b6000918252602082815260408084206001600160a01b0393909316845291905290205460ff1690565b620017373362000948565b620017565760405162461bcd60e51b81526004016200071e9062001fbc565b806001600160a01b038116620017805760405162461bcd60e51b81526004016200071e9062002064565b600c546001600160a01b0390811690831603620017b15760405162461bcd60e51b81526004016200071e9062002040565b50600c80546001600160a01b0319166001600160a01b0392909216919091179055565b620017df8262000933565b620017ea8162001989565b62000987838362001a1d565b620018013362000948565b620018205760405162461bcd60e51b81526004016200071e9062001fbc565b8060115403620018605760405162461bcd60e51b815260206004820152600a60248201526973616d652076616c756560b01b60448201526064016200071e565b601155565b620018703362000948565b6200188f5760405162461bcd60e51b81526004016200071e9062001fbc565b620018a26200050e602084018462001de6565b620018b86200041d604084016020850162001de6565b620018ce620005ff606084016040850162001de6565b620018df8135602083013562000dd5565b620018fd60408201356060830135608084013560a08501356200089b565b62000b2360c0820135620017f6565b620019173362000948565b620019365760405162461bcd60e51b81526004016200071e9062001fbc565b600a546001600160a01b0390811690821603620019675760405162461bcd60e51b81526004016200071e9062002040565b600a80546001600160a01b0319166001600160a01b0392909216919091179055565b62000898813362001a85565b620019a1828262001703565b62000b23576000828152602081815260408083206001600160a01b03851684529091529020805460ff19166001179055620019d93390565b6001600160a01b0316816001600160a01b0316837f2f8788117e7eff1d82e926ec794901d17c78024a50270940304540a733656f0d60405160405180910390a45050565b62001a29828262001703565b1562000b23576000828152602081815260408083206001600160a01b0385168085529252808320805460ff1916905551339285917ff6391f5c32d9c69d2a47ea670b442974b53935d1edc7fd64eb21e047a839171b9190a45050565b62001a91828262001703565b62000b235762001aa18162001ae9565b62001aae83602062001afc565b60405160200162001ac192919062002333565b60408051601f198184030181529082905262461bcd60e51b82526200071e91600401620023a6565b6060620006376001600160a01b03831660145b6060600062001b0d836002620023bb565b62001b1a906002620023dd565b6001600160401b0381111562001b345762001b346200209a565b6040519080825280601f01601f19166020018201604052801562001b5f576020820181803683370190505b509050600360fc1b8160008151811062001b7d5762001b7d62001ffe565b60200101906001600160f81b031916908160001a905350600f60fb1b8160018151811062001baf5762001baf62001ffe565b60200101906001600160f81b031916908160001a905350600062001bd5846002620023bb565b62001be2906001620023dd565b90505b600181111562001c64576f181899199a1a9b1b9c1cb0b131b232b360811b85600f166010811062001c1a5762001c1a62001ffe565b1a60f81b82828151811062001c335762001c3362001ffe565b60200101906001600160f81b031916908160001a90535060049490941c9362001c5c81620023f3565b905062001be5565b50831562001cb55760405162461bcd60e51b815260206004820181905260248201527f537472696e67733a20686578206c656e67746820696e73756666696369656e7460448201526064016200071e565b9392505050565b612a14806200240e83390190565b60006020828403121562001cdd57600080fd5b81356001600160e01b03198116811462001cb557600080fd5b60006020828403121562001d0957600080fd5b5035919050565b60005b8381101562001d2d57818101518382015260200162001d13565b50506000910152565b6000815180845262001d5081602086016020860162001d10565b601f01601f19169290920160200192915050565b6001600160a01b038316815260406020820181905260009062001d8a9083018462001d36565b949350505050565b600060c0828403121562001da557600080fd5b8260c08301111562001db657600080fd5b50919050565b6001600160a01b0391909116815260200190565b6001600160a01b03811681146200089857600080fd5b60006020828403121562001df957600080fd5b813562001cb58162001dd0565b6000806000806080858703121562001e1d57600080fd5b5050823594602084013594506040840135936060013592509050565b6000806040838503121562001e4d57600080fd5b82359150602083013562001e618162001dd0565b809150509250929050565b6000806040838503121562001e8057600080fd5b50508035926020909101359150565b80606081018310156200063757600080fd5b600080600080600060c0868803121562001eba57600080fd5b85356001600160401b038082111562001ed257600080fd5b818801915088601f83011262001ee757600080fd5b81358181111562001ef757600080fd5b89602082850101111562001f0a57600080fd5b6020928301975095505086013562001f228162001dd0565b925062001f33876040880162001e8f565b9497939650919460a0013592915050565b60008061014080848603121562001f5a57600080fd5b62001f66858562001e8f565b925084818501111562001f7857600080fd5b506060830190509250929050565b600181811c9082168062001f9b57607f821691505b60208210810362001db657634e487b7160e01b600052602260045260246000fd5b60208082526022908201527f41636365737369626c653a2043616c6c6572206973206e6f7420616e2061646d60408201526134b760f11b606082015260800190565b634e487b7160e01b600052603260045260246000fd5b634e487b7160e01b600052601160045260246000fd5b8181038181111562000637576200063762002014565b6020808252600a908201526973616d6520616464727360b01b604082015260600190565b6020808252601c908201527b5075626c696353616c6550726f7879466163746f72793a207a65726f60201b604082015260600190565b634e487b7160e01b600052604160045260246000fd5b60008060408385031215620020c457600080fd5b8251620020d18162001dd0565b60208401519092506001600160401b0380821115620020ef57600080fd5b818501915085601f8301126200210457600080fd5b8151818111156200211957620021196200209a565b604051601f8201601f19908116603f011681019083821181831017156200214457620021446200209a565b816040528281528860208487010111156200215e57600080fd5b6200217183602083016020880162001d10565b80955050505050509250929050565b601f8211156200098757600081815260208120601f850160051c81016020861015620021a95750805b601f850160051c820191505b81811015620021ca57828155600101620021b5565b505050505050565b81516001600160401b03811115620021ee57620021ee6200209a565b6200220681620021ff845462001f86565b8462002180565b602080601f8311600181146200223e5760008415620022255750858301515b600019600386901b1c1916600185901b178555620021ca565b600085815260208120601f198616915b828110156200226f578886015182559484019460019091019084016200224e565b50858210156200228e5787850151600019600388901b60f8161c191681555b5050505050600190811b01905550565b600060018201620022b357620022b362002014565b5060010190565b6001600160a01b03841681526040602082018190528101829052818360608301376000818301606090810191909152601f909201601f1916010192915050565b84815283602082015260018060a01b038316604082015260806060820152600062002329608083018462001d36565b9695505050505050565b76020b1b1b2b9b9a1b7b73a3937b61d1030b1b1b7bab73a1604d1b8152600083516200236781601785016020880162001d10565b7001034b99036b4b9b9b4b733903937b6329607d1b60179184019182015283516200239a81602884016020880162001d10565b01602801949350505050565b60208152600062001cb5602083018462001d36565b6000816000190483118215151615620023d857620023d862002014565b500290565b8082018082111562000637576200063762002014565b60008162002405576200240562002014565b50600019019056fe60806040526000805560006003556000600455600060055560006006556000600755600060085560006009556000600a556000600b556000600c556000600d556000600e556000600f5573b27308f9f90d607463bb33ea1bebb41c27ce5ab6602260006101000a8154816001600160a01b0302191690836001600160a01b031602179055503480156200009157600080fd5b50620000ad600080516020620029f48339815191528062000108565b620000c8600080516020620029f48339815191523362000153565b620000d560003362000153565b7f4273ca16e32229270629d776700e1c07e4a1080fc9b26d21f6608efc2b31dc4d620001018162000163565b506200028b565b600082815260376020526040808220600101805490849055905190918391839186917fbd79b86ffe0ab8e8776151514217cd7cacd52c909f66475c3af44e129f0b00ff9190a4505050565b6200015f8282620001e7565b5050565b6001600160e01b03198082169003620001c25760405162461bcd60e51b815260206004820152601c60248201527f4552433136353a20696e76616c696420696e7465726661636520696400000000604482015260640160405180910390fd5b6001600160e01b0319166000908152603c60205260409020805460ff19166001179055565b60008281526037602090815260408083206001600160a01b038516845290915290205460ff166200015f5760008281526037602090815260408083206001600160a01b03851684529091529020805460ff19166001179055620002473390565b6001600160a01b0316816001600160a01b0316837f2f8788117e7eff1d82e926ec794901d17c78024a50270940304540a733656f0d60405160405180910390a45050565b612759806200029b6000396000f3fe6080604052600436106104265760003560e01c80638356ca4f116102275780638356ca4f14610a435780638951ed1814610a6357806389f395de14610a835780638b8f4a6514610aa35780638d4fdb4014610ac35780638d62d94914610ae35780638f68711a14610b0357806391d1485414610b3057806394f641d514610b505780639525269214610b6657806396f1557c14610b7c5780639711715a14610b9c5780639a202d4714610bb25780639d18fde714610bc75780639f87b77f14610bdd578063a055e62514610bf3578063a217fddf14610c09578063a389595f14610c1e578063a55abb1714610c34578063ac3c467614610c4a578063b7182b9514610c6a578063b911135f14610c8a578063b960ca0414610cc0578063be72f2d314610cd6578063bfc630b114610ceb578063bff1f9e114610d01578063c0c53b8b14610d17578063c3e5763514610d37578063c5408d5014610d4d578063c6bbd5a714610d63578063cae9ce1b14610d83578063cf437a8f14610deb578063d539139314610e1d578063d547741f14610e51578063dc560fcd14610e71578063e016bac414610e87578063e4b2fb7914610e9d578063e985e36714610ebd578063eaff056d14610edd578063eb8445f814610ef3578063ed5131f514610f09578063f18d20be14610f29578063f47f2f1d14610f43578063fb86a40414610f63578063fe404c9614610f79578063fe4d5add14610f99578063ff6dac7614610fb95761042d565b806301ffc9a714610437578063039af9eb1461046c578063089fe6aa146104a75780630b433a12146104d15780631bfc751e146104e75780631c53f256146104fd57806321df0da714610513578063226bf1a41461054b578063248a9ca31461056157806324d7806c14610581578063256019d6146105a1578063282c51f3146105b75780632f2ff15d146105eb57806336568abe1461060b5780633659cfe61461062b57806337bf07191461064b5780633ef541b51461066b57806341c04d5e1461068157806341c0cb77146106a35780634a5df50f146107005780634dd199211461072057806350d2a2761461074057806351d28a7e1461077657806351ebde6d1461078c578063550d01a3146107a25780635c60da1b146107d25780635cc797d8146107e757806361a334271461080757806363a8fd891461081d578063653a151b1461083757806366ce72711461085757806367b399a51461086d578063690480051461089a5780636d9ff157146108c757806370480275146108e7578063735de9f71461090757806375829def1461092757806375b238fc14610947578063768b821f1461097b5780637a40624b146109915780637cb00d25146109a75780637cd5f663146109c75780637dc2cd98146109e75780637e2eee53146109fd57806381a9f6d714610a13578063822754a314610a295761042d565b3661042d57005b610435610ff9565b005b34801561044357600080fd5b50610457610452366004612156565b6110a7565b60405190151581526020015b60405180910390f35b34801561047857600080fd5b50610499610487366004612180565b60326020526000908152604090205481565b604051908152602001610463565b3480156104b357600080fd5b506104bd610bb881565b60405162ffffff9091168152602001610463565b3480156104dd57600080fd5b5061049960155481565b3480156104f357600080fd5b5061049960095481565b34801561050957600080fd5b50610499601b5481565b34801561051f57600080fd5b50602554610533906001600160a01b031681565b6040516001600160a01b039091168152602001610463565b34801561055757600080fd5b5061049960145481565b34801561056d57600080fd5b5061049961057c366004612180565b6110b8565b34801561058d57600080fd5b5061045761059c3660046121b0565b6110cd565b3480156105ad57600080fd5b50610499602c5481565b3480156105c357600080fd5b506104997f9667e80708b6eeeb0053fa0cca44e028ff548e2a9f029edfeac87c118b08b7c881565b3480156105f757600080fd5b506104356106063660046121cb565b6110e7565b34801561061757600080fd5b506104356106263660046121cb565b611103565b34801561063757600080fd5b506104356106463660046121b0565b611181565b34801561065757600080fd5b50602854610533906001600160a01b031681565b34801561067757600080fd5b5061049960085481565b34801561068d57600080fd5b506104996000805160206126e483398151915281565b3480156106af57600080fd5b506106e36106be3660046121b0565b60306020526000908152604090208054600182015460029092015460ff909116919083565b604080519315158452602084019290925290820152606001610463565b34801561070c57600080fd5b5061043561071b3660046121f7565b611295565b34801561072c57600080fd5b50602054610533906001600160a01b031681565b34801561074c57600080fd5b5061053361075b366004612156565b603b602052600090815260409020546001600160a01b031681565b34801561078257600080fd5b5061049960135481565b34801561079857600080fd5b50610499601e5481565b3480156107ae57600080fd5b506104576107bd3660046121b0565b603a6020526000908152604090205460ff1681565b3480156107de57600080fd5b50610533611501565b3480156107f357600080fd5b50610435610802366004612288565b611512565b34801561081357600080fd5b50610499600d5481565b34801561082957600080fd5b506038546104579060ff1681565b34801561084357600080fd5b506104356108523660046122bf565b611550565b34801561086357600080fd5b5061049960065481565b34801561087957600080fd5b50610499610888366004612180565b60336020526000908152604090205481565b3480156108a657600080fd5b506104996108b5366004612180565b60356020526000908152604090205481565b3480156108d357600080fd5b506104356108e23660046122e1565b6115c0565b3480156108f357600080fd5b506104356109023660046121b0565b61174e565b34801561091357600080fd5b50602154610533906001600160a01b031681565b34801561093357600080fd5b506104356109423660046121b0565b61178e565b34801561095357600080fd5b506104997fdf8b4c520ffe197c5343c6f5aec59570151ef9a492f2c624fd45ddde6135ec4281565b34801561098757600080fd5b50610499601d5481565b34801561099d57600080fd5b5061049960015481565b3480156109b357600080fd5b506104356109c2366004612346565b611840565b3480156109d357600080fd5b506104356109e2366004612363565b611887565b3480156109f357600080fd5b5061049960165481565b348015610a0957600080fd5b5061049960025481565b348015610a1f57600080fd5b5061049960075481565b348015610a3557600080fd5b506036546104579060ff1681565b348015610a4f57600080fd5b50610435610a5e3660046121b0565b6118c6565b348015610a6f57600080fd5b50610435610a7e366004612180565b61194f565b348015610a8f57600080fd5b50602754610533906001600160a01b031681565b348015610aaf57600080fd5b50610533610abe366004612180565b611979565b348015610acf57600080fd5b50610533610ade366004612156565b611984565b348015610aef57600080fd5b50602454610533906001600160a01b031681565b348015610b0f57600080fd5b50610499610b1e366004612180565b60346020526000908152604090205481565b348015610b3c57600080fd5b50610457610b4b3660046121cb565b611a5c565b348015610b5c57600080fd5b50610499600c5481565b348015610b7257600080fd5b5061049960035481565b348015610b8857600080fd5b50610435610b973660046121b0565b611a87565b348015610ba857600080fd5b5061049960005481565b348015610bbe57600080fd5b50610435611ab7565b348015610bd357600080fd5b5061049960195481565b348015610be957600080fd5b50610499601c5481565b348015610bff57600080fd5b50610499600b5481565b348015610c1557600080fd5b50610499600081565b348015610c2a57600080fd5b50610499601a5481565b348015610c4057600080fd5b50610499600f5481565b348015610c5657600080fd5b50610435610c653660046123a3565b611b05565b348015610c7657600080fd5b50602354610533906001600160a01b031681565b348015610c9657600080fd5b50610533610ca5366004612180565b6039602052600090815260409020546001600160a01b031681565b348015610ccc57600080fd5b5061049960115481565b348015610ce257600080fd5b50610435611b94565b348015610cf757600080fd5b5061049960125481565b348015610d0d57600080fd5b50610499600a5481565b348015610d2357600080fd5b50610435610d323660046123d5565b611bc4565b348015610d4357600080fd5b5061049960045481565b348015610d5957600080fd5b5061049960105481565b348015610d6f57600080fd5b50602254610533906001600160a01b031681565b348015610d8f57600080fd5b50610dc9610d9e3660046121b0565b602f60205260009081526040902080546001820154600283015460039093015460ff90921692909184565b6040805194151585526020850193909352918301526060820152608001610463565b348015610df757600080fd5b50603654610e0a90610100900460020b81565b60405160029190910b8152602001610463565b348015610e2957600080fd5b506104997ff0887ba65ee2024ea881d91b74c2450ef19e1557f03bed3ea9f16b037cbe2dc981565b348015610e5d57600080fd5b50610435610e6c3660046121cb565b611c4c565b348015610e7d57600080fd5b50610499601f5481565b348015610e9357600080fd5b5061049960055481565b348015610ea957600080fd5b50610533610eb8366004612180565b611c68565b348015610ec957600080fd5b50602654610533906001600160a01b031681565b348015610ee957600080fd5b5061049960175481565b348015610eff57600080fd5b50610499600e5481565b348015610f1557600080fd5b50610499610f24366004612180565b611c92565b348015610f3557600080fd5b50602b546104579060ff1681565b348015610f4f57600080fd5b50610457610f5e3660046121b0565b611cb3565b348015610f6f57600080fd5b5061049960185481565b348015610f8557600080fd5b50610499610f94366004612180565b611cbf565b348015610fa557600080fd5b50610533610fb4366004612180565b611ccf565b348015610fc557600080fd5b506106e3610fd43660046121b0565b60316020526000908152604090208054600182015460029092015460ff909116919083565b60006110106000356001600160e01b031916611984565b90506001600160a01b0381161580159061102d575060385460ff16155b61107e5760405162461bcd60e51b815260206004820152601d60248201527f50726f78793a20696d706c204f522070726f78792069732066616c736500000060448201526064015b60405180910390fd5b3660008037600080366000845af43d6000803e80801561109d573d6000f35b3d6000fd5b505050565b60006110b282611cdf565b92915050565b60009081526037602052604090206001015490565b60006110b26000805160206126e483398151915283611a5c565b6110f0826110b8565b6110f981611d10565b6110a28383611d1a565b6001600160a01b03811633146111735760405162461bcd60e51b815260206004820152602f60248201527f416363657373436f6e74726f6c3a2063616e206f6e6c792072656e6f756e636560448201526e103937b632b9903337b91039b2b63360891b6064820152608401611075565b61117d8282611da0565b5050565b61118a336110cd565b80611199575061119933611cb3565b6111b55760405162461bcd60e51b81526004016110759061240f565b6001600160a01b0381166111fb5760405162461bcd60e51b815260206004820152600d60248201526c696e707574206973207a65726f60981b6044820152606401611075565b806001600160a01b031661120f6000611e07565b6001600160a01b0316036112515760405162461bcd60e51b815260206004820152600960248201526839b0b6b29030b2323960b91b6044820152606401611075565b61125e8160006001611e22565b6040516001600160a01b038216907fbc7cd75a20ee27fd9adebab32041f755214dbc6bffa90cc0225b39da2e5c2d3b90600090a250565b61129e336110cd565b806112ad57506112ad33611cb3565b6112c95760405162461bcd60e51b81526004016110759061240f565b816113165760405162461bcd60e51b815260206004820181905260248201527f50726f78793a205f73656c6563746f727327732073697a65206973207a65726f6044820152606401611075565b6001600160a01b0381166000908152603a602052604090205460ff166113795760405162461bcd60e51b815260206004820152601860248201527750726f78793a205f696d70206973206e6f7420616c69766560401b6044820152606401611075565b60005b828110156114fb57816001600160a01b0316603b60008686858181106113a4576113a4612451565b90506020020160208101906113b99190612156565b6001600160e01b03191681526020810191909152604001600020546001600160a01b03160361142a5760405162461bcd60e51b815260206004820152601d60248201527f4c69717569646974795661756c7450726f78793a2073616d6520696d700000006044820152606401611075565b81603b600086868581811061144157611441612451565b90506020020160208101906114569190612156565b6001600160e01b0319168152602081019190915260400160002080546001600160a01b0319166001600160a01b03928316179055821684848381811061149e5761149e612451565b90506020020160208101906114b39190612156565b6001600160e01b0319167f14ebc1c32aa68f4d766e89f3e546cee249f7df25183fc10ab1568d91c2ce9b7b60405160405180910390a3806114f38161247d565b91505061137c565b50505050565b600061150d6000611e07565b905090565b61151b336110cd565b8061152a575061152a33611cb3565b6115465760405162461bcd60e51b81526004016110759061240f565b61117d8282611eab565b61155933611cb3565b6115755760405162461bcd60e51b815260040161107590612496565b8082106115b55760405162461bcd60e51b815260206004820152600e60248201526d0dccacac840dad2dc407840dac2f60931b6044820152606401611075565b601a91909155601b55565b6115c933611cb3565b6115e55760405162461bcd60e51b815260040161107590612496565b600354156116055760405162461bcd60e51b8152600401611075906124de565b602580546001600160a01b038088166001600160a01b0319928316179092556028805487841690831617905560248054868416908316811790915560218054868516908416811790915560278054948616949093169390931790915560405163095ea7b360e01b8152909163095ea7b391611687919060001990600401612526565b6020604051808303816000875af11580156116a6573d6000803e3d6000fd5b505050506040513d601f19601f820116820180604052508101906116ca919061253f565b5060255460245460405163095ea7b360e01b81526001600160a01b039283169263095ea7b3926117039291169060001990600401612526565b6020604051808303816000875af1158015611722573d6000803e3d6000fd5b505050506040513d601f19601f82011682018060405250810190611746919061253f565b505050505050565b61175733611cb3565b6117735760405162461bcd60e51b815260040161107590612496565b61178b6000805160206126e4833981519152826110e7565b50565b611797336110cd565b806117a657506117a633611cb3565b6117c25760405162461bcd60e51b81526004016110759061240f565b6001600160a01b0381166117e85760405162461bcd60e51b81526004016110759061255c565b6001600160a01b03811633036118105760405162461bcd60e51b81526004016110759061258e565b6118286000805160206126e4833981519152826110e7565b61178b6000805160206126e483398151915233611103565b611849336110cd565b80611858575061185833611cb3565b6118745760405162461bcd60e51b81526004016110759061240f565b6038805460ff1916911515919091179055565b611890336110cd565b8061189f575061189f33611cb3565b6118bb5760405162461bcd60e51b81526004016110759061240f565b6110a2838383611e22565b6118cf33611cb3565b6118eb5760405162461bcd60e51b815260040161107590612496565b6001600160a01b0381166119115760405162461bcd60e51b81526004016110759061255c565b6001600160a01b03811633036119395760405162461bcd60e51b81526004016110759061258e565b6119446000826110e7565b61178b600033611103565b61195833611cb3565b6119745760405162461bcd60e51b815260040161107590612496565b600255565b60006110b282611e07565b6001600160e01b031981166000908152603b60205260408120546001600160a01b03166119d2575050600080526039602052600080516020612704833981519152546001600160a01b031690565b6001600160e01b031982166000908152603b60209081526040808320546001600160a01b03168352603a90915290205460ff1615611a3057506001600160e01b0319166000908152603b60205260409020546001600160a01b031690565b5050600080526039602052600080516020612704833981519152546001600160a01b031690565b919050565b60009182526037602090815260408084206001600160a01b0393909316845291905290205460ff1690565b611a9033611cb3565b611aac5760405162461bcd60e51b815260040161107590612496565b61178b600082611f0a565b611ac0336110cd565b80611acf5750611acf33611cb3565b611aeb5760405162461bcd60e51b81526004016110759061240f565b611b036000805160206126e483398151915233611103565b565b611b0e33611cb3565b611b2a5760405162461bcd60e51b815260040161107590612496565b8284108015611b3857508183105b8015611b4357508082105b611b805760405162461bcd60e51b815260206004820152600e60248201526d3a34b2b91039b2ba1032b93937b960911b6044820152606401611075565b601c93909355601d91909155601e55601f55565b611b9d33611cb3565b611bb95760405162461bcd60e51b815260040161107590612496565b611b03600033611103565b611bcd33611cb3565b611be95760405162461bcd60e51b815260040161107590612496565b60035415611c095760405162461bcd60e51b8152600401611075906124de565b602680546001600160a01b039485166001600160a01b03199182161790915560238054938516938216939093179092556020805491909316911617905542600155565b611c55826110b8565b611c5e81611d10565b6110a28383611da0565b60298181548110611c7857600080fd5b6000918252602090912001546001600160a01b0316905081565b602d8181548110611ca257600080fd5b600091825260209091200154905081565b60006110b28183611a5c565b602e8181548110611ca257600080fd5b602a8181548110611c7857600080fd5b6000611cea82611f14565b806110b25750506001600160e01b0319166000908152603c602052604090205460ff1690565b61178b8133611f49565b611d248282611a5c565b61117d5760008281526037602090815260408083206001600160a01b03851684529091529020805460ff19166001179055611d5c3390565b6001600160a01b0316816001600160a01b0316837f2f8788117e7eff1d82e926ec794901d17c78024a50270940304540a733656f0d60405160405180910390a45050565b611daa8282611a5c565b1561117d5760008281526037602090815260408083206001600160a01b0385168085529252808320805460ff1916905551339285917ff6391f5c32d9c69d2a47ea670b442974b53935d1edc7fd64eb21e047a839171b9190a45050565b6000908152603960205260409020546001600160a01b031690565b6001600160a01b0383163b611e775760405162461bcd60e51b815260206004820152601b60248201527a50726f78793a206e6f7420636f6e7472616374206164647265737360281b6044820152606401611075565b8015611ea557600082815260396020526040902080546001600160a01b0319166001600160a01b0385161790555b6110a283825b6001600160a01b0382166000818152603a6020908152604091829020805460ff191685151590811790915591519182527f72558d9bfba4210f9ef095c782589484151f6d90f7a81bb3cb9b33efc695d324910160405180910390a25050565b61117d8282611d1a565b60006001600160e01b03198216637965db0b60e01b14806110b257506301ffc9a760e01b6001600160e01b03198316146110b2565b611f538282611a5c565b61117d57611f6081611fa2565b611f6b836020611fb4565b604051602001611f7c9291906125e2565b60408051601f198184030181529082905262461bcd60e51b825261107591600401612651565b60606110b26001600160a01b03831660145b60606000611fc3836002612684565b611fce9060026126a3565b6001600160401b03811115611fe557611fe56126b6565b6040519080825280601f01601f19166020018201604052801561200f576020820181803683370190505b509050600360fc1b8160008151811061202a5761202a612451565b60200101906001600160f81b031916908160001a905350600f60fb1b8160018151811061205957612059612451565b60200101906001600160f81b031916908160001a905350600061207d846002612684565b6120889060016126a3565b90505b6001811115612100576f181899199a1a9b1b9c1cb0b131b232b360811b85600f16601081106120bc576120bc612451565b1a60f81b8282815181106120d2576120d2612451565b60200101906001600160f81b031916908160001a90535060049490941c936120f9816126cc565b905061208b565b50831561214f5760405162461bcd60e51b815260206004820181905260248201527f537472696e67733a20686578206c656e67746820696e73756666696369656e746044820152606401611075565b9392505050565b60006020828403121561216857600080fd5b81356001600160e01b03198116811461214f57600080fd5b60006020828403121561219257600080fd5b5035919050565b80356001600160a01b0381168114611a5757600080fd5b6000602082840312156121c257600080fd5b61214f82612199565b600080604083850312156121de57600080fd5b823591506121ee60208401612199565b90509250929050565b60008060006040848603121561220c57600080fd5b83356001600160401b038082111561222357600080fd5b818601915086601f83011261223757600080fd5b81358181111561224657600080fd5b8760208260051b850101111561225b57600080fd5b6020928301955093506122719186019050612199565b90509250925092565b801515811461178b57600080fd5b6000806040838503121561229b57600080fd5b6122a483612199565b915060208301356122b48161227a565b809150509250929050565b600080604083850312156122d257600080fd5b50508035926020909101359150565b600080600080600060a086880312156122f957600080fd5b61230286612199565b945061231060208701612199565b935061231e60408701612199565b925061232c60608701612199565b915061233a60808701612199565b90509295509295909350565b60006020828403121561235857600080fd5b813561214f8161227a565b60008060006060848603121561237857600080fd5b61238184612199565b92506020840135915060408401356123988161227a565b809150509250925092565b600080600080608085870312156123b957600080fd5b5050823594602084013594506040840135936060013592509050565b6000806000606084860312156123ea57600080fd5b6123f384612199565b925061240160208501612199565b915061227160408501612199565b60208082526022908201527f41636365737369626c653a2043616c6c6572206973206e6f7420616e2061646d60408201526134b760f11b606082015260800190565b634e487b7160e01b600052603260045260246000fd5b634e487b7160e01b600052601160045260246000fd5b60006001820161248f5761248f612467565b5060010190565b60208082526028908201527f41636365737369626c653a2043616c6c6572206973206e6f7420616e2070726f6040820152673c3c9030b236b4b760c11b606082015260800190565b60208082526028908201527f706f737369626c6520746f2073657474696e672074686520776869746554696d60408201526765206265666f726560c01b606082015260800190565b6001600160a01b03929092168252602082015260400190565b60006020828403121561255157600080fd5b815161214f8161227a565b60208082526018908201527741636365737369626c653a207a65726f206164647265737360401b604082015260600190565b60208082526016908201527520b1b1b2b9b9b4b136329d1039b0b6b29030b236b4b760511b604082015260600190565b60005b838110156125d95781810151838201526020016125c1565b50506000910152565b76020b1b1b2b9b9a1b7b73a3937b61d1030b1b1b7bab73a1604d1b8152600083516126148160178501602088016125be565b7001034b99036b4b9b9b4b733903937b6329607d1b60179184019182015283516126458160288401602088016125be565b01602801949350505050565b60208152600082518060208401526126708160408501602087016125be565b601f01601f19169190910160400192915050565b600081600019048311821515161561269e5761269e612467565b500290565b808201808211156110b2576110b2612467565b634e487b7160e01b600052604160045260246000fd5b6000816126db576126db612467565b50600019019056fe52eafc11f6f81f86878bffd31109a0d92f37506527754f00788853ff9f63b130619fcd35f40c77da8aa64d5f98c1fed669135ecc4f245ce6667721b157f7098fa264697066735822122037250c7007568ec2700d957ae36f0644bbc63984376a774f7ae6e5f9476a80df64736f6c63430008100033df8b4c520ffe197c5343c6f5aec59570151ef9a492f2c624fd45ddde6135ec42df8b4c520ffe197c5343c6f5aec59570151ef9a492f2c624fd45ddde6135ec42a26469706673582212206d02fdc451627dfb77b8237d5e3b6f732a52ae63d23bcc09b8b7c9d2266c1fdc64736f6c63430008100033df8b4c520ffe197c5343c6f5aec59570151ef9a492f2c624fd45ddde6135ec42",
    "linkReferences": {},
    "deployedLinkReferences": {}
}