{
    "_format": "hh-sol-artifact-1",
    "contractName": "PublicSale",
    "sourceName": "contracts/sale/PublicSale.sol",
    "abi": [
        {
            "anonymous": false,
            "inputs": [
                {
                    "indexed": true,
                    "internalType": "address",
                    "name": "from",
                    "type": "address"
                },
                {
                    "indexed": false,
                    "internalType": "uint256",
                    "name": "tier",
                    "type": "uint256"
                }
            ],
            "name": "AddedWhiteList",
            "type": "event"
        },
        {
            "anonymous": false,
            "inputs": [
                {
                    "indexed": true,
                    "internalType": "address",
                    "name": "from",
                    "type": "address"
                },
                {
                    "indexed": false,
                    "internalType": "uint256",
                    "name": "amount",
                    "type": "uint256"
                }
            ],
            "name": "Claimed",
            "type": "event"
        },
        {
            "anonymous": false,
            "inputs": [
                {
                    "indexed": true,
                    "internalType": "address",
                    "name": "from",
                    "type": "address"
                },
                {
                    "indexed": false,
                    "internalType": "uint256",
                    "name": "amount",
                    "type": "uint256"
                },
                {
                    "indexed": false,
                    "internalType": "uint256",
                    "name": "liquidityAmount",
                    "type": "uint256"
                }
            ],
            "name": "DepositWithdrawal",
            "type": "event"
        },
        {
            "anonymous": false,
            "inputs": [
                {
                    "indexed": true,
                    "internalType": "address",
                    "name": "from",
                    "type": "address"
                },
                {
                    "indexed": false,
                    "internalType": "uint256",
                    "name": "amount",
                    "type": "uint256"
                }
            ],
            "name": "Deposited",
            "type": "event"
        },
        {
            "anonymous": false,
            "inputs": [
                {
                    "indexed": true,
                    "internalType": "address",
                    "name": "from",
                    "type": "address"
                },
                {
                    "indexed": false,
                    "internalType": "uint256",
                    "name": "amount",
                    "type": "uint256"
                }
            ],
            "name": "ExclusiveSaled",
            "type": "event"
        },
        {
            "anonymous": false,
            "inputs": [
                {
                    "indexed": true,
                    "internalType": "address",
                    "name": "from",
                    "type": "address"
                },
                {
                    "indexed": false,
                    "internalType": "uint256",
                    "name": "amount",
                    "type": "uint256"
                }
            ],
            "name": "Refunded",
            "type": "event"
        },
        {
            "anonymous": false,
            "inputs": [
                {
                    "indexed": true,
                    "internalType": "bytes32",
                    "name": "role",
                    "type": "bytes32"
                },
                {
                    "indexed": true,
                    "internalType": "bytes32",
                    "name": "previousAdminRole",
                    "type": "bytes32"
                },
                {
                    "indexed": true,
                    "internalType": "bytes32",
                    "name": "newAdminRole",
                    "type": "bytes32"
                }
            ],
            "name": "RoleAdminChanged",
            "type": "event"
        },
        {
            "anonymous": false,
            "inputs": [
                {
                    "indexed": true,
                    "internalType": "bytes32",
                    "name": "role",
                    "type": "bytes32"
                },
                {
                    "indexed": true,
                    "internalType": "address",
                    "name": "account",
                    "type": "address"
                },
                {
                    "indexed": true,
                    "internalType": "address",
                    "name": "sender",
                    "type": "address"
                }
            ],
            "name": "RoleGranted",
            "type": "event"
        },
        {
            "anonymous": false,
            "inputs": [
                {
                    "indexed": true,
                    "internalType": "bytes32",
                    "name": "role",
                    "type": "bytes32"
                },
                {
                    "indexed": true,
                    "internalType": "address",
                    "name": "account",
                    "type": "address"
                },
                {
                    "indexed": true,
                    "internalType": "address",
                    "name": "sender",
                    "type": "address"
                }
            ],
            "name": "RoleRevoked",
            "type": "event"
        },
        {
            "anonymous": false,
            "inputs": [
                {
                    "indexed": true,
                    "internalType": "address",
                    "name": "from",
                    "type": "address"
                },
                {
                    "indexed": false,
                    "internalType": "uint256",
                    "name": "amount",
                    "type": "uint256"
                }
            ],
            "name": "Withdrawal",
            "type": "event"
        },
        {
            "inputs": [],
            "name": "ADMIN_ROLE",
            "outputs": [
                {
                    "internalType": "bytes32",
                    "name": "",
                    "type": "bytes32"
                }
            ],
            "stateMutability": "view",
            "type": "function"
        },
        {
            "inputs": [],
            "name": "BURNER_ROLE",
            "outputs": [
                {
                    "internalType": "bytes32",
                    "name": "",
                    "type": "bytes32"
                }
            ],
            "stateMutability": "view",
            "type": "function"
        },
        {
            "inputs": [],
            "name": "DEFAULT_ADMIN_ROLE",
            "outputs": [
                {
                    "internalType": "bytes32",
                    "name": "",
                    "type": "bytes32"
                }
            ],
            "stateMutability": "view",
            "type": "function"
        },
        {
            "inputs": [],
            "name": "MINTER_ROLE",
            "outputs": [
                {
                    "internalType": "bytes32",
                    "name": "",
                    "type": "bytes32"
                }
            ],
            "stateMutability": "view",
            "type": "function"
        },
        {
            "inputs": [],
            "name": "PROJECT_ADMIN_ROLE",
            "outputs": [
                {
                    "internalType": "bytes32",
                    "name": "",
                    "type": "bytes32"
                }
            ],
            "stateMutability": "view",
            "type": "function"
        },
        {
            "inputs": [
                {
                    "internalType": "uint256",
                    "name": "v",
                    "type": "uint256"
                }
            ],
            "name": "_toWAD",
            "outputs": [
                {
                    "internalType": "uint256",
                    "name": "",
                    "type": "uint256"
                }
            ],
            "stateMutability": "pure",
            "type": "function"
        },
        {
            "inputs": [
                {
                    "internalType": "address",
                    "name": "account",
                    "type": "address"
                }
            ],
            "name": "addAdmin",
            "outputs": [],
            "stateMutability": "nonpayable",
            "type": "function"
        },
        {
            "inputs": [
                {
                    "internalType": "address",
                    "name": "_owner",
                    "type": "address"
                }
            ],
            "name": "addProxyAdmin",
            "outputs": [],
            "stateMutability": "nonpayable",
            "type": "function"
        },
        {
            "inputs": [],
            "name": "addWhiteList",
            "outputs": [],
            "stateMutability": "nonpayable",
            "type": "function"
        },
        {
            "inputs": [],
            "name": "adminWithdraw",
            "outputs": [
                {
                    "internalType": "bool",
                    "name": "",
                    "type": "bool"
                }
            ],
            "stateMutability": "view",
            "type": "function"
        },
        {
            "inputs": [
                {
                    "internalType": "address",
                    "name": "_account",
                    "type": "address"
                },
                {
                    "internalType": "uint256",
                    "name": "_round",
                    "type": "uint256"
                }
            ],
            "name": "calculClaimAmount",
            "outputs": [
                {
                    "internalType": "uint256",
                    "name": "_reward",
                    "type": "uint256"
                },
                {
                    "internalType": "uint256",
                    "name": "_totalClaim",
                    "type": "uint256"
                },
                {
                    "internalType": "uint256",
                    "name": "_refundAmount",
                    "type": "uint256"
                }
            ],
            "stateMutability": "view",
            "type": "function"
        },
        {
            "inputs": [
                {
                    "internalType": "address",
                    "name": "_account",
                    "type": "address"
                },
                {
                    "internalType": "uint256",
                    "name": "_amount",
                    "type": "uint256"
                }
            ],
            "name": "calculOpenSaleAmount",
            "outputs": [
                {
                    "internalType": "uint256",
                    "name": "",
                    "type": "uint256"
                }
            ],
            "stateMutability": "view",
            "type": "function"
        },
        {
            "inputs": [
                {
                    "internalType": "uint256",
                    "name": "_amount",
                    "type": "uint256"
                }
            ],
            "name": "calculPayToken",
            "outputs": [
                {
                    "internalType": "uint256",
                    "name": "",
                    "type": "uint256"
                }
            ],
            "stateMutability": "view",
            "type": "function"
        },
        {
            "inputs": [
                {
                    "internalType": "uint256",
                    "name": "_amount",
                    "type": "uint256"
                }
            ],
            "name": "calculSaleToken",
            "outputs": [
                {
                    "internalType": "uint256",
                    "name": "",
                    "type": "uint256"
                }
            ],
            "stateMutability": "view",
            "type": "function"
        },
        {
            "inputs": [
                {
                    "internalType": "address",
                    "name": "_address",
                    "type": "address"
                }
            ],
            "name": "calculTier",
            "outputs": [
                {
                    "internalType": "uint256",
                    "name": "",
                    "type": "uint256"
                }
            ],
            "stateMutability": "view",
            "type": "function"
        },
        {
            "inputs": [
                {
                    "internalType": "address",
                    "name": "_address",
                    "type": "address"
                }
            ],
            "name": "calculTierAmount",
            "outputs": [
                {
                    "internalType": "uint256",
                    "name": "",
                    "type": "uint256"
                }
            ],
            "stateMutability": "view",
            "type": "function"
        },
        {
            "inputs": [
                {
                    "internalType": "address",
                    "name": "_address",
                    "type": "address"
                }
            ],
            "name": "changeTONOwner",
            "outputs": [],
            "stateMutability": "nonpayable",
            "type": "function"
        },
        {
            "inputs": [],
            "name": "changeTOS",
            "outputs": [
                {
                    "internalType": "uint256",
                    "name": "",
                    "type": "uint256"
                }
            ],
            "stateMutability": "view",
            "type": "function"
        },
        {
            "inputs": [],
            "name": "changeTick",
            "outputs": [
                {
                    "internalType": "int24",
                    "name": "",
                    "type": "int24"
                }
            ],
            "stateMutability": "view",
            "type": "function"
        },
        {
            "inputs": [],
            "name": "claim",
            "outputs": [],
            "stateMutability": "nonpayable",
            "type": "function"
        },
        {
            "inputs": [],
            "name": "claimFirst",
            "outputs": [
                {
                    "internalType": "uint256",
                    "name": "",
                    "type": "uint256"
                }
            ],
            "stateMutability": "view",
            "type": "function"
        },
        {
            "inputs": [],
            "name": "claimInterval",
            "outputs": [
                {
                    "internalType": "uint256",
                    "name": "",
                    "type": "uint256"
                }
            ],
            "stateMutability": "view",
            "type": "function"
        },
        {
            "inputs": [
                {
                    "internalType": "uint256",
                    "name": "",
                    "type": "uint256"
                }
            ],
            "name": "claimPercents",
            "outputs": [
                {
                    "internalType": "uint256",
                    "name": "",
                    "type": "uint256"
                }
            ],
            "stateMutability": "view",
            "type": "function"
        },
        {
            "inputs": [],
            "name": "claimPeriod",
            "outputs": [
                {
                    "internalType": "uint256",
                    "name": "",
                    "type": "uint256"
                }
            ],
            "stateMutability": "view",
            "type": "function"
        },
        {
            "inputs": [
                {
                    "internalType": "uint256",
                    "name": "",
                    "type": "uint256"
                }
            ],
            "name": "claimTimes",
            "outputs": [
                {
                    "internalType": "uint256",
                    "name": "",
                    "type": "uint256"
                }
            ],
            "stateMutability": "view",
            "type": "function"
        },
        {
            "inputs": [],
            "name": "currentRound",
            "outputs": [
                {
                    "internalType": "uint256",
                    "name": "round",
                    "type": "uint256"
                }
            ],
            "stateMutability": "view",
            "type": "function"
        },
        {
            "inputs": [],
            "name": "delayTime",
            "outputs": [
                {
                    "internalType": "uint256",
                    "name": "",
                    "type": "uint256"
                }
            ],
            "stateMutability": "view",
            "type": "function"
        },
        {
            "inputs": [],
            "name": "deployTime",
            "outputs": [
                {
                    "internalType": "uint256",
                    "name": "",
                    "type": "uint256"
                }
            ],
            "stateMutability": "view",
            "type": "function"
        },
        {
            "inputs": [
                {
                    "internalType": "uint256",
                    "name": "_amount",
                    "type": "uint256"
                }
            ],
            "name": "deposit",
            "outputs": [],
            "stateMutability": "nonpayable",
            "type": "function"
        },
        {
            "inputs": [],
            "name": "depositWithdraw",
            "outputs": [],
            "stateMutability": "nonpayable",
            "type": "function"
        },
        {
            "inputs": [
                {
                    "internalType": "uint256",
                    "name": "",
                    "type": "uint256"
                }
            ],
            "name": "depositors",
            "outputs": [
                {
                    "internalType": "address",
                    "name": "",
                    "type": "address"
                }
            ],
            "stateMutability": "view",
            "type": "function"
        },
        {
            "inputs": [],
            "name": "endAddWhiteTime",
            "outputs": [
                {
                    "internalType": "uint256",
                    "name": "",
                    "type": "uint256"
                }
            ],
            "stateMutability": "view",
            "type": "function"
        },
        {
            "inputs": [],
            "name": "endDepositTime",
            "outputs": [
                {
                    "internalType": "uint256",
                    "name": "",
                    "type": "uint256"
                }
            ],
            "stateMutability": "view",
            "type": "function"
        },
        {
            "inputs": [],
            "name": "endExclusiveTime",
            "outputs": [
                {
                    "internalType": "uint256",
                    "name": "",
                    "type": "uint256"
                }
            ],
            "stateMutability": "view",
            "type": "function"
        },
        {
            "inputs": [],
            "name": "exchangeTOS",
            "outputs": [
                {
                    "internalType": "bool",
                    "name": "",
                    "type": "bool"
                }
            ],
            "stateMutability": "view",
            "type": "function"
        },
        {
            "inputs": [
                {
                    "internalType": "uint256",
                    "name": "amountIn",
                    "type": "uint256"
                }
            ],
            "name": "exchangeWTONtoTOS",
            "outputs": [],
            "stateMutability": "nonpayable",
            "type": "function"
        },
        {
            "inputs": [
                {
                    "internalType": "uint256",
                    "name": "_amount",
                    "type": "uint256"
                }
            ],
            "name": "exclusiveSale",
            "outputs": [],
            "stateMutability": "nonpayable",
            "type": "function"
        },
        {
            "inputs": [
                {
                    "internalType": "bytes32",
                    "name": "role",
                    "type": "bytes32"
                }
            ],
            "name": "getRoleAdmin",
            "outputs": [
                {
                    "internalType": "bytes32",
                    "name": "",
                    "type": "bytes32"
                }
            ],
            "stateMutability": "view",
            "type": "function"
        },
        {
            "inputs": [],
            "name": "getToken",
            "outputs": [
                {
                    "internalType": "address",
                    "name": "",
                    "type": "address"
                }
            ],
            "stateMutability": "view",
            "type": "function"
        },
        {
            "inputs": [],
            "name": "getTokenOwner",
            "outputs": [
                {
                    "internalType": "address",
                    "name": "",
                    "type": "address"
                }
            ],
            "stateMutability": "view",
            "type": "function"
        },
        {
            "inputs": [
                {
                    "internalType": "bytes32",
                    "name": "role",
                    "type": "bytes32"
                },
                {
                    "internalType": "address",
                    "name": "account",
                    "type": "address"
                }
            ],
            "name": "grantRole",
            "outputs": [],
            "stateMutability": "nonpayable",
            "type": "function"
        },
        {
            "inputs": [],
            "name": "hardCap",
            "outputs": [
                {
                    "internalType": "uint256",
                    "name": "",
                    "type": "uint256"
                }
            ],
            "stateMutability": "view",
            "type": "function"
        },
        {
            "inputs": [],
            "name": "hardcapCalcul",
            "outputs": [
                {
                    "internalType": "uint256",
                    "name": "",
                    "type": "uint256"
                }
            ],
            "stateMutability": "view",
            "type": "function"
        },
        {
            "inputs": [
                {
                    "internalType": "bytes32",
                    "name": "role",
                    "type": "bytes32"
                },
                {
                    "internalType": "address",
                    "name": "account",
                    "type": "address"
                }
            ],
            "name": "hasRole",
            "outputs": [
                {
                    "internalType": "bool",
                    "name": "",
                    "type": "bool"
                }
            ],
            "stateMutability": "view",
            "type": "function"
        },
        {
            "inputs": [
                {
                    "internalType": "address",
                    "name": "account",
                    "type": "address"
                }
            ],
            "name": "isAdmin",
            "outputs": [
                {
                    "internalType": "bool",
                    "name": "",
                    "type": "bool"
                }
            ],
            "stateMutability": "view",
            "type": "function"
        },
        {
            "inputs": [
                {
                    "internalType": "address",
                    "name": "account",
                    "type": "address"
                }
            ],
            "name": "isProxyAdmin",
            "outputs": [
                {
                    "internalType": "bool",
                    "name": "",
                    "type": "bool"
                }
            ],
            "stateMutability": "view",
            "type": "function"
        },
        {
            "inputs": [],
            "name": "liquidityVaultAddress",
            "outputs": [
                {
                    "internalType": "address",
                    "name": "",
                    "type": "address"
                }
            ],
            "stateMutability": "view",
            "type": "function"
        },
        {
            "inputs": [],
            "name": "maxPer",
            "outputs": [
                {
                    "internalType": "uint256",
                    "name": "",
                    "type": "uint256"
                }
            ],
            "stateMutability": "view",
            "type": "function"
        },
        {
            "inputs": [],
            "name": "minPer",
            "outputs": [
                {
                    "internalType": "uint256",
                    "name": "",
                    "type": "uint256"
                }
            ],
            "stateMutability": "view",
            "type": "function"
        },
        {
            "inputs": [
                {
                    "internalType": "address",
                    "name": "sender",
                    "type": "address"
                },
                {
                    "internalType": "address",
                    "name": "spender",
                    "type": "address"
                },
                {
                    "internalType": "uint256",
                    "name": "amount",
                    "type": "uint256"
                },
                {
                    "internalType": "bytes",
                    "name": "data",
                    "type": "bytes"
                }
            ],
            "name": "onApprove",
            "outputs": [
                {
                    "internalType": "bool",
                    "name": "",
                    "type": "bool"
                }
            ],
            "stateMutability": "nonpayable",
            "type": "function"
        },
        {
            "inputs": [
                {
                    "internalType": "address",
                    "name": "user",
                    "type": "address"
                }
            ],
            "name": "openSaleUserAmount",
            "outputs": [
                {
                    "internalType": "uint256",
                    "name": "_realPayAmount",
                    "type": "uint256"
                },
                {
                    "internalType": "uint256",
                    "name": "_realSaleAmount",
                    "type": "uint256"
                },
                {
                    "internalType": "uint256",
                    "name": "_refundAmount",
                    "type": "uint256"
                }
            ],
            "stateMutability": "view",
            "type": "function"
        },
        {
            "inputs": [],
            "name": "payTokenPrice",
            "outputs": [
                {
                    "internalType": "uint256",
                    "name": "",
                    "type": "uint256"
                }
            ],
            "stateMutability": "view",
            "type": "function"
        },
        {
            "inputs": [],
            "name": "poolFee",
            "outputs": [
                {
                    "internalType": "uint24",
                    "name": "",
                    "type": "uint24"
                }
            ],
            "stateMutability": "view",
            "type": "function"
        },
        {
            "inputs": [],
            "name": "quoter",
            "outputs": [
                {
                    "internalType": "address",
                    "name": "",
                    "type": "address"
                }
            ],
            "stateMutability": "view",
            "type": "function"
        },
        {
            "inputs": [],
            "name": "removeAdmin",
            "outputs": [],
            "stateMutability": "nonpayable",
            "type": "function"
        },
        {
            "inputs": [],
            "name": "removeProxyAdmin",
            "outputs": [],
            "stateMutability": "nonpayable",
            "type": "function"
        },
        {
            "inputs": [
                {
                    "internalType": "bytes32",
                    "name": "role",
                    "type": "bytes32"
                },
                {
                    "internalType": "address",
                    "name": "account",
                    "type": "address"
                }
            ],
            "name": "renounceRole",
            "outputs": [],
            "stateMutability": "nonpayable",
            "type": "function"
        },
        {
            "inputs": [
                {
                    "internalType": "bytes32",
                    "name": "role",
                    "type": "bytes32"
                },
                {
                    "internalType": "address",
                    "name": "account",
                    "type": "address"
                }
            ],
            "name": "revokeRole",
            "outputs": [],
            "stateMutability": "nonpayable",
            "type": "function"
        },
        {
            "inputs": [],
            "name": "sTOS",
            "outputs": [
                {
                    "internalType": "contract ILockTOS",
                    "name": "",
                    "type": "address"
                }
            ],
            "stateMutability": "view",
            "type": "function"
        },
        {
            "inputs": [],
            "name": "saleToken",
            "outputs": [
                {
                    "internalType": "contract IERC20",
                    "name": "",
                    "type": "address"
                }
            ],
            "stateMutability": "view",
            "type": "function"
        },
        {
            "inputs": [],
            "name": "saleTokenPrice",
            "outputs": [
                {
                    "internalType": "uint256",
                    "name": "",
                    "type": "uint256"
                }
            ],
            "stateMutability": "view",
            "type": "function"
        },
        {
            "inputs": [
                {
                    "internalType": "uint256",
                    "name": "_totalExpectSaleAmount",
                    "type": "uint256"
                },
                {
                    "internalType": "uint256",
                    "name": "_totalExpectOpenSaleAmount",
                    "type": "uint256"
                },
                {
                    "internalType": "uint256",
                    "name": "_saleTokenPrice",
                    "type": "uint256"
                },
                {
                    "internalType": "uint256",
                    "name": "_payTokenPrice",
                    "type": "uint256"
                },
                {
                    "internalType": "uint256",
                    "name": "_hardcapAmount",
                    "type": "uint256"
                },
                {
                    "internalType": "uint256",
                    "name": "_changePercent",
                    "type": "uint256"
                }
            ],
            "name": "setAllAmount",
            "outputs": [],
            "stateMutability": "nonpayable",
            "type": "function"
        },
        {
            "inputs": [
                {
                    "internalType": "uint256[4]",
                    "name": "_tier",
                    "type": "uint256[4]"
                },
                {
                    "internalType": "uint256[4]",
                    "name": "_tierPercent",
                    "type": "uint256[4]"
                }
            ],
            "name": "setAllTier",
            "outputs": [],
            "stateMutability": "nonpayable",
            "type": "function"
        },
        {
            "inputs": [
                {
                    "internalType": "uint256[8]",
                    "name": "_Tier",
                    "type": "uint256[8]"
                },
                {
                    "internalType": "uint256[6]",
                    "name": "_amount",
                    "type": "uint256[6]"
                },
                {
                    "internalType": "uint256[8]",
                    "name": "_time",
                    "type": "uint256[8]"
                },
                {
                    "internalType": "uint256[]",
                    "name": "_claimTimes",
                    "type": "uint256[]"
                },
                {
                    "internalType": "uint256[]",
                    "name": "_claimPercents",
                    "type": "uint256[]"
                }
            ],
            "name": "setAllsetting",
            "outputs": [],
            "stateMutability": "nonpayable",
            "type": "function"
        },
        {
            "inputs": [
                {
                    "internalType": "uint256",
                    "name": "_claimCounts",
                    "type": "uint256"
                },
                {
                    "internalType": "uint256[]",
                    "name": "_claimTimes",
                    "type": "uint256[]"
                },
                {
                    "internalType": "uint256[]",
                    "name": "_claimPercents",
                    "type": "uint256[]"
                }
            ],
            "name": "setEachClaim",
            "outputs": [],
            "stateMutability": "nonpayable",
            "type": "function"
        },
        {
            "inputs": [
                {
                    "internalType": "uint256",
                    "name": "_startAddWhiteTime",
                    "type": "uint256"
                },
                {
                    "internalType": "uint256",
                    "name": "_endAddWhiteTime",
                    "type": "uint256"
                },
                {
                    "internalType": "uint256",
                    "name": "_startExclusiveTime",
                    "type": "uint256"
                },
                {
                    "internalType": "uint256",
                    "name": "_endExclusiveTime",
                    "type": "uint256"
                }
            ],
            "name": "setExclusiveTime",
            "outputs": [],
            "stateMutability": "nonpayable",
            "type": "function"
        },
        {
            "inputs": [
                {
                    "internalType": "uint256",
                    "name": "_snapshot",
                    "type": "uint256"
                },
                {
                    "internalType": "uint256",
                    "name": "_startDepositTime",
                    "type": "uint256"
                },
                {
                    "internalType": "uint256",
                    "name": "_endDepositTime",
                    "type": "uint256"
                }
            ],
            "name": "setOpenTime",
            "outputs": [],
            "stateMutability": "nonpayable",
            "type": "function"
        },
        {
            "inputs": [
                {
                    "internalType": "uint256",
                    "name": "_tier1",
                    "type": "uint256"
                },
                {
                    "internalType": "uint256",
                    "name": "_tier2",
                    "type": "uint256"
                },
                {
                    "internalType": "uint256",
                    "name": "_tier3",
                    "type": "uint256"
                },
                {
                    "internalType": "uint256",
                    "name": "_tier4",
                    "type": "uint256"
                }
            ],
            "name": "setTier",
            "outputs": [],
            "stateMutability": "nonpayable",
            "type": "function"
        },
        {
            "inputs": [
                {
                    "internalType": "uint256",
                    "name": "_tier1",
                    "type": "uint256"
                },
                {
                    "internalType": "uint256",
                    "name": "_tier2",
                    "type": "uint256"
                },
                {
                    "internalType": "uint256",
                    "name": "_tier3",
                    "type": "uint256"
                },
                {
                    "internalType": "uint256",
                    "name": "_tier4",
                    "type": "uint256"
                }
            ],
            "name": "setTierPercents",
            "outputs": [],
            "stateMutability": "nonpayable",
            "type": "function"
        },
        {
            "inputs": [],
            "name": "snapshot",
            "outputs": [
                {
                    "internalType": "uint256",
                    "name": "",
                    "type": "uint256"
                }
            ],
            "stateMutability": "view",
            "type": "function"
        },
        {
            "inputs": [],
            "name": "stanTier1",
            "outputs": [
                {
                    "internalType": "uint256",
                    "name": "",
                    "type": "uint256"
                }
            ],
            "stateMutability": "view",
            "type": "function"
        },
        {
            "inputs": [],
            "name": "stanTier2",
            "outputs": [
                {
                    "internalType": "uint256",
                    "name": "",
                    "type": "uint256"
                }
            ],
            "stateMutability": "view",
            "type": "function"
        },
        {
            "inputs": [],
            "name": "stanTier3",
            "outputs": [
                {
                    "internalType": "uint256",
                    "name": "",
                    "type": "uint256"
                }
            ],
            "stateMutability": "view",
            "type": "function"
        },
        {
            "inputs": [],
            "name": "stanTier4",
            "outputs": [
                {
                    "internalType": "uint256",
                    "name": "",
                    "type": "uint256"
                }
            ],
            "stateMutability": "view",
            "type": "function"
        },
        {
            "inputs": [],
            "name": "startAddWhiteTime",
            "outputs": [
                {
                    "internalType": "uint256",
                    "name": "",
                    "type": "uint256"
                }
            ],
            "stateMutability": "view",
            "type": "function"
        },
        {
            "inputs": [],
            "name": "startClaimTime",
            "outputs": [
                {
                    "internalType": "uint256",
                    "name": "",
                    "type": "uint256"
                }
            ],
            "stateMutability": "view",
            "type": "function"
        },
        {
            "inputs": [],
            "name": "startDepositTime",
            "outputs": [
                {
                    "internalType": "uint256",
                    "name": "",
                    "type": "uint256"
                }
            ],
            "stateMutability": "view",
            "type": "function"
        },
        {
            "inputs": [],
            "name": "startExclusiveTime",
            "outputs": [
                {
                    "internalType": "uint256",
                    "name": "",
                    "type": "uint256"
                }
            ],
            "stateMutability": "view",
            "type": "function"
        },
        {
            "inputs": [
                {
                    "internalType": "bytes4",
                    "name": "interfaceId",
                    "type": "bytes4"
                }
            ],
            "name": "supportsInterface",
            "outputs": [
                {
                    "internalType": "bool",
                    "name": "",
                    "type": "bool"
                }
            ],
            "stateMutability": "view",
            "type": "function"
        },
        {
            "inputs": [
                {
                    "internalType": "int24",
                    "name": "_tick",
                    "type": "int24"
                }
            ],
            "name": "tickChange",
            "outputs": [],
            "stateMutability": "nonpayable",
            "type": "function"
        },
        {
            "inputs": [
                {
                    "internalType": "uint256",
                    "name": "",
                    "type": "uint256"
                }
            ],
            "name": "tiers",
            "outputs": [
                {
                    "internalType": "uint256",
                    "name": "",
                    "type": "uint256"
                }
            ],
            "stateMutability": "view",
            "type": "function"
        },
        {
            "inputs": [
                {
                    "internalType": "uint256",
                    "name": "",
                    "type": "uint256"
                }
            ],
            "name": "tiersAccount",
            "outputs": [
                {
                    "internalType": "uint256",
                    "name": "",
                    "type": "uint256"
                }
            ],
            "stateMutability": "view",
            "type": "function"
        },
        {
            "inputs": [
                {
                    "internalType": "uint256",
                    "name": "",
                    "type": "uint256"
                }
            ],
            "name": "tiersExAccount",
            "outputs": [
                {
                    "internalType": "uint256",
                    "name": "",
                    "type": "uint256"
                }
            ],
            "stateMutability": "view",
            "type": "function"
        },
        {
            "inputs": [
                {
                    "internalType": "uint256",
                    "name": "",
                    "type": "uint256"
                }
            ],
            "name": "tiersPercents",
            "outputs": [
                {
                    "internalType": "uint256",
                    "name": "",
                    "type": "uint256"
                }
            ],
            "stateMutability": "view",
            "type": "function"
        },
        {
            "inputs": [],
            "name": "tos",
            "outputs": [
                {
                    "internalType": "contract IERC20",
                    "name": "",
                    "type": "address"
                }
            ],
            "stateMutability": "view",
            "type": "function"
        },
        {
            "inputs": [],
            "name": "totalClaimCounts",
            "outputs": [
                {
                    "internalType": "uint256",
                    "name": "",
                    "type": "uint256"
                }
            ],
            "stateMutability": "view",
            "type": "function"
        },
        {
            "inputs": [],
            "name": "totalDepositAmount",
            "outputs": [
                {
                    "internalType": "uint256",
                    "name": "",
                    "type": "uint256"
                }
            ],
            "stateMutability": "view",
            "type": "function"
        },
        {
            "inputs": [],
            "name": "totalExPurchasedAmount",
            "outputs": [
                {
                    "internalType": "uint256",
                    "name": "",
                    "type": "uint256"
                }
            ],
            "stateMutability": "view",
            "type": "function"
        },
        {
            "inputs": [],
            "name": "totalExSaleAmount",
            "outputs": [
                {
                    "internalType": "uint256",
                    "name": "",
                    "type": "uint256"
                }
            ],
            "stateMutability": "view",
            "type": "function"
        },
        {
            "inputs": [],
            "name": "totalExpectOpenSaleAmount",
            "outputs": [
                {
                    "internalType": "uint256",
                    "name": "",
                    "type": "uint256"
                }
            ],
            "stateMutability": "view",
            "type": "function"
        },
        {
            "inputs": [],
            "name": "totalExpectOpenSaleAmountView",
            "outputs": [
                {
                    "internalType": "uint256",
                    "name": "",
                    "type": "uint256"
                }
            ],
            "stateMutability": "view",
            "type": "function"
        },
        {
            "inputs": [],
            "name": "totalExpectSaleAmount",
            "outputs": [
                {
                    "internalType": "uint256",
                    "name": "",
                    "type": "uint256"
                }
            ],
            "stateMutability": "view",
            "type": "function"
        },
        {
            "inputs": [],
            "name": "totalOpenPurchasedAmount",
            "outputs": [
                {
                    "internalType": "uint256",
                    "name": "",
                    "type": "uint256"
                }
            ],
            "stateMutability": "view",
            "type": "function"
        },
        {
            "inputs": [],
            "name": "totalOpenSaleAmount",
            "outputs": [
                {
                    "internalType": "uint256",
                    "name": "",
                    "type": "uint256"
                }
            ],
            "stateMutability": "view",
            "type": "function"
        },
        {
            "inputs": [],
            "name": "totalRound1NonSaleAmount",
            "outputs": [
                {
                    "internalType": "uint256",
                    "name": "",
                    "type": "uint256"
                }
            ],
            "stateMutability": "view",
            "type": "function"
        },
        {
            "inputs": [],
            "name": "totalRound1Users",
            "outputs": [
                {
                    "internalType": "uint256",
                    "name": "",
                    "type": "uint256"
                }
            ],
            "stateMutability": "view",
            "type": "function"
        },
        {
            "inputs": [],
            "name": "totalRound2Users",
            "outputs": [
                {
                    "internalType": "uint256",
                    "name": "",
                    "type": "uint256"
                }
            ],
            "stateMutability": "view",
            "type": "function"
        },
        {
            "inputs": [],
            "name": "totalRound2UsersClaim",
            "outputs": [
                {
                    "internalType": "uint256",
                    "name": "",
                    "type": "uint256"
                }
            ],
            "stateMutability": "view",
            "type": "function"
        },
        {
            "inputs": [
                {
                    "internalType": "address",
                    "name": "user",
                    "type": "address"
                }
            ],
            "name": "totalSaleUserAmount",
            "outputs": [
                {
                    "internalType": "uint256",
                    "name": "_realPayAmount",
                    "type": "uint256"
                },
                {
                    "internalType": "uint256",
                    "name": "_realSaleAmount",
                    "type": "uint256"
                },
                {
                    "internalType": "uint256",
                    "name": "_refundAmount",
                    "type": "uint256"
                }
            ],
            "stateMutability": "view",
            "type": "function"
        },
        {
            "inputs": [],
            "name": "totalUsers",
            "outputs": [
                {
                    "internalType": "uint256",
                    "name": "",
                    "type": "uint256"
                }
            ],
            "stateMutability": "view",
            "type": "function"
        },
        {
            "inputs": [],
            "name": "totalWhitelists",
            "outputs": [
                {
                    "internalType": "uint256",
                    "name": "",
                    "type": "uint256"
                }
            ],
            "stateMutability": "view",
            "type": "function"
        },
        {
            "inputs": [
                {
                    "internalType": "address",
                    "name": "newAdmin",
                    "type": "address"
                }
            ],
            "name": "transferAdmin",
            "outputs": [],
            "stateMutability": "nonpayable",
            "type": "function"
        },
        {
            "inputs": [
                {
                    "internalType": "address",
                    "name": "newAdmin",
                    "type": "address"
                }
            ],
            "name": "transferProxyAdmin",
            "outputs": [],
            "stateMutability": "nonpayable",
            "type": "function"
        },
        {
            "inputs": [],
            "name": "uniswapRouter",
            "outputs": [
                {
                    "internalType": "contract ISwapRouter",
                    "name": "",
                    "type": "address"
                }
            ],
            "stateMutability": "view",
            "type": "function"
        },
        {
            "inputs": [
                {
                    "internalType": "address",
                    "name": "",
                    "type": "address"
                }
            ],
            "name": "usersClaim",
            "outputs": [
                {
                    "internalType": "bool",
                    "name": "exec",
                    "type": "bool"
                },
                {
                    "internalType": "uint256",
                    "name": "claimAmount",
                    "type": "uint256"
                },
                {
                    "internalType": "uint256",
                    "name": "refundAmount",
                    "type": "uint256"
                }
            ],
            "stateMutability": "view",
            "type": "function"
        },
        {
            "inputs": [
                {
                    "internalType": "address",
                    "name": "",
                    "type": "address"
                }
            ],
            "name": "usersEx",
            "outputs": [
                {
                    "internalType": "bool",
                    "name": "join",
                    "type": "bool"
                },
                {
                    "internalType": "uint256",
                    "name": "tier",
                    "type": "uint256"
                },
                {
                    "internalType": "uint256",
                    "name": "payAmount",
                    "type": "uint256"
                },
                {
                    "internalType": "uint256",
                    "name": "saleAmount",
                    "type": "uint256"
                }
            ],
            "stateMutability": "view",
            "type": "function"
        },
        {
            "inputs": [
                {
                    "internalType": "address",
                    "name": "",
                    "type": "address"
                }
            ],
            "name": "usersOpen",
            "outputs": [
                {
                    "internalType": "bool",
                    "name": "join",
                    "type": "bool"
                },
                {
                    "internalType": "uint256",
                    "name": "depositAmount",
                    "type": "uint256"
                },
                {
                    "internalType": "uint256",
                    "name": "payAmount",
                    "type": "uint256"
                }
            ],
            "stateMutability": "view",
            "type": "function"
        },
        {
            "inputs": [
                {
                    "internalType": "uint256",
                    "name": "",
                    "type": "uint256"
                }
            ],
            "name": "whitelists",
            "outputs": [
                {
                    "internalType": "address",
                    "name": "",
                    "type": "address"
                }
            ],
            "stateMutability": "view",
            "type": "function"
        },
        {
            "inputs": [],
            "name": "wton",
            "outputs": [
                {
                    "internalType": "address",
                    "name": "",
                    "type": "address"
                }
            ],
            "stateMutability": "view",
            "type": "function"
        }
    ],
    "bytecode": "0x60806040526000805560006003556000600455600060055560006006556000600755600060085560006009556000600a556000600b556000600c556000600d556000600e556000600f5573b27308f9f90d607463bb33ea1bebb41c27ce5ab6602260006101000a8154816001600160a01b0302191690836001600160a01b0316021790555034801561009057600080fd5b50615ff880620000a16000396000f3fe608060405234801561001057600080fd5b50600436106104df5760003560e01c8063822754a31161028c578063822754a3146108f35780638356ca4f1461090057806389f395de146109135780638a19c8bc146109265780638d62d9491461092e5780638f68711a14610941578063907784231461096157806391d148541461096957806394f641d51461097c578063952526921461098557806396f1557c1461098e5780639711715a146109a157806397770b9a146109aa57806398d97da4146109bd5780639a202d47146109d05780639d18fde7146109d85780639f87b77f146109e1578063a055e625146109ea578063a1b89b70146109f3578063a217fddf146109fb578063a389595f14610a03578063a38ffdea14610a0c578063a55abb1714610a1f578063b6b55f2514610a28578063b7182b9514610a3b578063b960ca0414610a4e578063be72f2d314610a57578063bfc630b114610a5f578063bfc93b0c14610a68578063bff1f9e114610a7b578063c3e5763514610a84578063c5408d5014610a8d578063c6bbd5a714610a96578063cae9ce1b14610aa9578063cf437a8f14610b04578063d21eb90814610b29578063d539139314610b3c578063d547741f14610b63578063d844578114610b76578063dc560fcd14610b89578063e016bac414610b92578063e30821c614610b9b578063e4b2fb7914610bae578063e801a9b714610bc1578063e985e36714610bd4578063eaff056d14610be7578063eb8445f814610bf0578063ed5131f514610bf9578063f18d20be14610c0c578063f47f2f1d14610c19578063fb86a40414610c2c578063fbd9070f14610c35578063fe404c9614610c3d578063fe4d5add14610c50578063ff6dac7614610c6357600080fd5b806301ffc9a7146104e4578063039af9eb1461050c578063089fe6aa1461053a5780630a888550146105575780630b433a121461056c5780630be4d5f0146105755780630e6e12b4146105885780631a1197e71461059b5780631bfc751e146105ae5780631c53f256146105b7578063218183a3146105c057806321df0da7146105d3578063226bf1a4146105f3578063248a9ca3146105fc57806324d7806c1461060f578063256019d614610622578063282c51f31461062b57806328e50f4b146106525780632cbf31881461065a5780632dcdbfd3146106625780632f2ff15d1461067557806336568abe1461068857806337bf07191461069b5780633ef541b5146106ae57806341c04d5e146106b757806341c0cb77146106cc5780634273ca161461071c578063494600ea1461072f5780634dd19921146107425780634e71d92d1461075557806351d28a7e1461075d57806351ebde6d14610766578063590088bc1461076f5780635f1af7121461079d57806360a2a25c146107b057806361a33427146107c357806366ce7271146107cc57806367b399a5146107d557806369048005146107f55780636bbe48af146108155780636e0e0da214610828578063704802751461083057806370e5410a14610843578063735de9f71461084b57806375829def1461085e57806375b238fc146108715780637676ee3214610898578063768b821f146108ab5780637a40624b146108b45780637dc2cd98146108bd5780637e2eee53146108c65780637ecd5c70146108cf5780638181e847146108e257806381a9f6d7146108ea575b600080fd5b6104f76104f23660046151c7565b610c96565b60405190151581526020015b60405180910390f35b61052c61051a3660046151f1565b60326020526000908152604090205481565b604051908152602001610503565b610543610bb881565b60405162ffffff9091168152602001610503565b61056a61056536600461520a565b610ccd565b005b61052c60155481565b61056a6105833660046151f1565b610e6f565b61056a6105963660046151f1565b6116f0565b61052c6105a9366004615251565b6116fd565b61052c60095481565b61052c601b5481565b61056a6105ce36600461520a565b611818565b6025546105e6906001600160a01b031681565b604051610503919061526e565b61052c60145481565b61052c61060a3660046151f1565b611a3f565b6104f761061d366004615251565b611a54565b61052c602c5481565b61052c7f9667e80708b6eeeb0053fa0cca44e028ff548e2a9f029edfeac87c118b08b7c881565b61052c611a6e565b61052c611a9a565b61056a61067036600461520a565b611ac4565b61056a610683366004615282565b611c4f565b61056a610696366004615282565b611c70565b6028546105e6906001600160a01b031681565b61052c60085481565b61052c600080516020615ee383398151915281565b6106ff6106da366004615251565b60306020526000908152604090208054600182015460029092015460ff909116919083565b604080519315158452602084019290925290820152606001610503565b6104f761072a3660046152b2565b611cee565b61052c61073d366004615350565b611f7a565b6020546105e6906001600160a01b031681565b61056a611fd0565b61052c60135481565b61052c601e5481565b61078261077d366004615251565b6124e0565b60408051938452602084019290925290820152606001610503565b6107826107ab366004615350565b61259a565b61052c6107be3660046151f1565b6127ad565b61052c600d5481565b61052c60065481565b61052c6107e33660046151f1565b60336020526000908152604090205481565b61052c6108033660046151f1565b60356020526000908152604090205481565b61052c6108233660046151f1565b6127d2565b61056a6127e2565b61056a61083e366004615251565b612af3565b61052c612b30565b6021546105e6906001600160a01b031681565b61056a61086c366004615251565b612b6e565b61052c7fdf8b4c520ffe197c5343c6f5aec59570151ef9a492f2c624fd45ddde6135ec4281565b61056a6108a636600461538d565b612c20565b61052c601d5481565b61052c60015481565b61052c60165481565b61052c60025481565b61052c6108dd366004615251565b612d08565b61056a612fcf565b61052c60075481565b6036546104f79060ff1681565b61056a61090e366004615251565b61320c565b6027546105e6906001600160a01b031681565b61052c613295565b6024546105e6906001600160a01b031681565b61052c61094f3660046151f1565b60346020526000908152604090205481565b61052c61331d565b6104f7610977366004615282565b613336565b61052c600c5481565b61052c60035481565b61056a61099c366004615251565b613361565b61052c60005481565b61056a6109b83660046153c3565b613391565b6107826109cb366004615251565b6134ec565b61056a6135c7565b61052c60195481565b61052c601c5481565b61052c600b5481565b602a5461052c565b61052c600081565b61052c601a5481565b61052c610a1a3660046151f1565b613615565b61052c600f5481565b61056a610a363660046151f1565b613633565b6023546105e6906001600160a01b031681565b61052c60115481565b61056a61363d565b61052c60125481565b61056a610a7636600461543a565b61366d565b61052c600a5481565b61052c60045481565b61052c60105481565b6022546105e6906001600160a01b031681565b610ae2610ab7366004615251565b602f60205260009081526040902080546001820154600283015460039093015460ff90921692909184565b6040805194151585526020850193909352918301526060820152608001610503565b603654610b1690610100900460020b81565b60405160029190910b8152602001610503565b61056a610b373660046154c5565b6138b7565b61052c7ff0887ba65ee2024ea881d91b74c2450ef19e1557f03bed3ea9f16b037cbe2dc981565b61056a610b71366004615282565b613c20565b61056a610b84366004615574565b613c3c565b61052c601f5481565b61052c60055481565b61056a610ba9366004615251565b613d80565b6105e6610bbc3660046151f1565b613e1c565b61056a610bcf3660046155c6565b613e46565b6026546105e6906001600160a01b031681565b61052c60175481565b61052c600e5481565b61052c610c073660046151f1565b613ef0565b602b546104f79060ff1681565b6104f7610c27366004615251565b613f11565b61052c60185481565b61052c613f1d565b61052c610c4b3660046151f1565b613f5b565b6105e6610c5e3660046151f1565b613f6b565b6106ff610c71366004615251565b60316020526000908152604090208054600182015460029092015460ff909116919083565b60006001600160e01b03198216637965db0b60e01b1480610cc757506301ffc9a760e01b6001600160e01b03198316145b92915050565b610cd633611a54565b80610ce55750610ce533613f11565b610d0a5760405162461bcd60e51b8152600401610d01906155e3565b60405180910390fd5b8360008111610d2b5760405162461bcd60e51b8152600401610d0190615625565b8360008111610d4c5760405162461bcd60e51b8152600401610d0190615625565b8360008111610d6d5760405162461bcd60e51b8152600401610d0190615625565b8360008111610d8e5760405162461bcd60e51b8152600401610d0190615625565b6003541580610dab57506000600354118015610dab575060035442105b610dc75760405162461bcd60e51b8152600401610d019061564f565b60035415610df457610dd833613f11565b610df45760405162461bcd60e51b8152600401610d0190615696565b8688108015610e0257508587105b8015610e0d57508486105b610e575760405162461bcd60e51b815260206004820152601b60248201527a283ab13634b1a9b0b632901d102937bab73218ba34b6b29032b93960291b6044820152606401610d01565b50505060039490945560049290925560055560065550565b60008111610eb35760405162461bcd60e51b81526020600482015260116024820152701e995c9bc81a5b9c1d5d08185b5bdd5b9d607a1b6044820152606401610d01565b6008544211610f145760405162461bcd60e51b815260206004820152602760248201527f5075626c696353616c653a206e65656420746f20656e6420746865206465706f60448201526673697454696d6560c81b6064820152608401610d01565b6000610f1e613f1d565b905060008111610f7b5760405162461bcd60e51b815260206004820152602260248201527f5075626c696353616c653a20646f6e2774207061737320746865206861726443604482015261061760f41b6064820152608401610d01565b6024546027546040516307f43c1960e31b815260009273__$f3ae6e43c7542422f5e25ce98464524296$__92633fa1e0c892610fc7926001600160a01b039081169216906004016156c0565b602060405180830381865af4158015610fe4573d6000803e3d6000fd5b505050506040513d601f19601f8201168201806040525081019061100891906156da565b9050600080826001600160a01b0316633850c7bd6040518163ffffffff1660e01b815260040160e060405180830381865afa15801561104b573d6000803e3d6000fd5b505050506040513d601f19601f8201168201806040525081019061106f919061571e565b5050505050915091506000826001600160a01b0316116110cb5760405162461bcd60e51b81526020600482015260176024820152761c1bdbdb081a5cc81b9bdd081a5b9a5d1a585b1a5e9959604a1b6044820152606401610d01565b60006110d8846078613f7b565b60405160016263114360e01b03198152600282810b6004830152603c6024830152604482015290915073__$f3ae6e43c7542422f5e25ce98464524296$__9063ff9ceebd90606401602060405180830381865af415801561113d573d6000803e3d6000fd5b505050506040513d601f19601f8201168201806040525081019061116191906157b1565b60020b8260020b126111c15760405162461bcd60e51b8152602060048201526024808201527f49742773206e6f7420616c6c6f776564206368616e676564207469636b2072616044820152633733b29760e11b6064820152608401610d01565b60248054602754603654604051633e1644f160e11b8152600481018b90526001600160a01b03808a169582019590955292841660448401529216606482015261010090910460020b6084820152600090819073__$f3ae6e43c7542422f5e25ce98464524296$__90637c2c89e29060a401606060405180830381865af415801561124f573d6000803e3d6000fd5b505050506040513d601f19601f8201168201806040525081019061127391906157ce565b92505091506112ac6040518060400160405280601281526020017130b6b7bab73a27baba26b4b734b6bab6901d60711b8152508361413a565b602254602480546027546040516001600160a01b039283169381019390935281166044830152610bb86064830152608482018b9052600060a4830181905292169060c40160408051601f198184030181529181526020820180516001600160e01b031663f7729d4360e01b17905251611325919061582b565b6000604051808303816000865af19150503d8060008114611362576040519150601f19603f3d011682016040523d82523d6000602084013e611367565b606091505b5091505060006113768261417f565b90506103e8611387826103e361585d565b6113919190615892565b90506113c86040518060400160405280601381526020017230b6b7bab73a27baba26b4b734b6bab699101d60691b8152508261413a565b838110156114185760405162461bcd60e51b815260206004820152601d60248201527f5075626c696353616c65203a207072696365496d70616374206f7665720000006044820152606401610d01565b6024546040516370a0823160e01b81526000916001600160a01b0316906370a082319061144990309060040161526e565b602060405180830381865afa158015611466573d6000803e3d6000fd5b505050506040513d601f19601f8201168201806040525081019061148a91906158a6565b9050801580156114a2575060365460ff161515600114155b15611528576024805460405163e34869d760e01b8152600481018d90526001600160a01b039091169163e34869d791016020604051808303816000875af11580156114f1573d6000803e3d6000fd5b505050506040513d601f19601f8201168201806040525081019061151591906158bf565b506036805460ff19166001179055611583565b8a8110156115835760405162461bcd60e51b815260206004820152602260248201527f5075626c696353616c65203a20616d6f756e74496e20697320746f6f206c6172604482015261676560f01b6064820152608401610d01565b60408051610100810182526024546001600160a01b0390811682526027548116602080840191909152610bb883850152548116606083015242608083015260a082018e905260c0820185905286811660e0830152602154925163414bf38960e01b8152919260009291169063414bf3899061166690859060040181516001600160a01b03908116825260208084015182169083015260408084015162ffffff16908301526060808401518216908301526080808401519083015260a0838101519083015260c0808401519083015260e09283015116918101919091526101000190565b6020604051808303816000875af1158015611685573d6000803e3d6000fd5b505050506040513d601f19601f820116820180604052508101906116a991906158a6565b60405181815290915033907f7fcf532c15f0a6db0bd6d0e038bea71d30d808c7d98cb3bf7268a95bf5081b659060200160405180910390a250505050505050505050505050565b6116fa3382614216565b50565b6001600160a01b0381166000908152602f602090815260408083208151608081018352815460ff16151581526001820154938101939093526002810154918301919091526003015460608201528161175484612d08565b82519091501515600114801561176a5750600081115b156117ae5760008181526033602090815260408083205460359092528220546011546117a5926127109261179f9283916144e0565b906144ec565b95945050505050565b801561180e576000818152603360205260408120546117ce9060016144f8565b9050600061180461271061179f8461179f60356000898152602001908152602001600020546011546144e090919063ffffffff16565b9695505050505050565b5060009392505050565b61182133611a54565b80611830575061183033613f11565b61184c5760405162461bcd60e51b8152600401610d01906155e3565b836000811161186d5760405162461bcd60e51b8152600401610d0190615625565b836000811161188e5760405162461bcd60e51b8152600401610d0190615625565b83600081116118af5760405162461bcd60e51b8152600401610d0190615625565b83600081116118d05760405162461bcd60e51b8152600401610d0190615625565b60035415806118ed575060006003541180156118ed575060035442105b6119095760405162461bcd60e51b8152600401610d019061564f565b60016000526035602052600080516020615f83833981519152541561194d5761193133613f11565b61194d5760405162461bcd60e51b8152600401610d0190615696565b6119638561195d88818c8c6144f8565b906144f8565b612710146119b35760405162461bcd60e51b815260206004820152601f60248201527f5075626c696353616c653a2053756d2073686f756c64206265203130303030006044820152606401610d01565b505060356020525050600080516020615f83833981519152939093557ff45abd214a7998af36d567f4bc75c5d50e868cf767d965b54d3b0f5c6200ab64919091557fe5602d426990c0b7b248ffeae167f30eba43086d790c7aa793e2bf3d0e5939195560046000527f80eb70dc00a20ebf6b218a7aea19e260b164cf97e49b31f047fca6f74f8ff9ad55565b60009081526037602052604090206001015490565b6000610cc7600080516020615ee383398151915283613336565b6000600654421015611a81575060125490565b611a95611a8c61331d565b601254906144f8565b905090565b600080611aa8601054613615565b90506000611ab4611a6e565b905080821015610cc75750919050565b611acd33611a54565b80611adc5750611adc33613f11565b611af85760405162461bcd60e51b8152600401610d01906155e3565b8360008111611b195760405162461bcd60e51b8152600401610d0190615625565b8360008111611b3a5760405162461bcd60e51b8152600401610d0190615625565b8360008111611b5b5760405162461bcd60e51b8152600401610d0190615625565b8360008111611b7c5760405162461bcd60e51b8152600401610d0190615625565b6003541580611b9957506000600354118015611b99575060035442105b611bb55760405162461bcd60e51b8152600401610d019061564f565b60016000526032602052600080516020615f038339815191525415611bf957611bdd33613f11565b611bf95760405162461bcd60e51b8152600401610d0190615696565b505060326020525050600080516020615f0383398151915293909355600080516020615f4383398151915291909155600080516020615f23833981519152556004600052600080516020615fa383398151915255565b611c5882611a3f565b611c6181614504565b611c6b838361450e565b505050565b6001600160a01b0381163314611ce05760405162461bcd60e51b815260206004820152602f60248201527f416363657373436f6e74726f6c3a2063616e206f6e6c792072656e6f756e636560448201526e103937b632b9903337b91039b2b63360891b6064820152608401610d01565b611cea8282614594565b5050565b6025546000906001600160a01b0316331480611d1457506024546001600160a01b031633145b611d7e5760405162461bcd60e51b815260206004820152603560248201527f5075626c696353616c653a206f6e6c792061636365707420544f4e20616e642060448201527457544f4e20617070726f76652063616c6c6261636b60581b6064820152608401610d01565b6025546001600160a01b03163303611eed5760405163aa5bbf5560e01b815260009073__$f3ae6e43c7542422f5e25ce98464524296$__9063aa5bbf5590611dcc90879087906004016158da565b602060405180830381865af4158015611de9573d6000803e3d6000fd5b505050506040513d601f19601f82011682018060405250810190611e0d91906158a6565b905080600003611e77576005544210158015611e2a575060065442105b15611e3e57611e398786614216565b611ee7565b6007544210158015611e51575060085442105b611e6d5760405162461bcd60e51b8152600401610d0190615909565b611e3987866145fb565b6000611e83828761593b565b90506005544210158015611e98575060065442105b15611eac57611ea78882614216565b611ee5565b6007544210158015611ebf575060085442105b611edb5760405162461bcd60e51b8152600401610d0190615909565b611ee588826145fb565b505b50611f6e565b6024546001600160a01b03163303611f6e576000611f0a856127d2565b90506005544210158015611f1f575060065442105b15611f3357611f2e8782614216565b611f6c565b6007544210158015611f46575060085442105b611f625760405162461bcd60e51b8152600401610d0190615909565b611f6c87826145fb565b505b50600195945050505050565b6001600160a01b0382166000908152603060205260408120600101548190611fa290846144f8565b905060006117a5611fbe856010546144f890919063ffffffff16565b61179f84611fca611a6e565b906144e0565b602d600081548110611fe457611fe461594e565b90600052602060002001544210156120485760405162461bcd60e51b815260206004820152602160248201527f5075626c696353616c653a20646f6e277420737461727420636c61696d54696d6044820152606560f81b6064820152608401610d01565b33600090815260306020908152604080832060319092528220909161206b613f1d565b90508060000361214657815460ff1615156001036120cb5760405162461bcd60e51b815260206004820152601d60248201527f5075626c696353616c653a20616c726561647920676574526566756e640000006044820152606401610d01565b336000908152602f60205260408120600185015460028201549192916120f0916144f8565b845460ff191660011785556002850181905560255490915061211c906001600160a01b031633836147bd565b6040518181523390600080516020615f638339815191529060200160405180910390a25050505050565b600080600061215633600061259a565b925092509250600082116121ac5760405162461bcd60e51b815260206004820152601e60248201527f5075626c696353616c653a206e6f20707572636861736520616d6f756e7400006044820152606401610d01565b600083116121f45760405162461bcd60e51b8152602060048201526015602482015274141d589b1a58d4d85b194e881b9bc81c995dd85c99605a1b6044820152606401610d01565b8261220c86600101548461481390919063ffffffff16565b101561225a5760405162461bcd60e51b815260206004820181905260248201527f5075626c696353616c653a20616c726561647920676574416c6c7265776172646044820152606401610d01565b6026546040516370a0823160e01b815284916001600160a01b0316906370a082319061228a90309060040161526e565b602060405180830381865afa1580156122a7573d6000803e3d6000fd5b505050506040513d601f19601f820116820180604052508101906122cb91906158a6565b10156123295760405162461bcd60e51b815260206004820152602760248201527f5075626c696353616c653a20646f6e7420686176652073616c65546f6b656e206044820152661a5b881c1bdbdb60ca1b6064820152608401610d01565b600185015461233890846144f8565b6001860155602654612354906001600160a01b031633856147bd565b845460ff161580156123675750855460ff165b1561238957600d5461237a9060016144f8565b600d55845460ff191660011785555b60008111801561239b57506002850154155b156124a2576025546040516370a0823160e01b81526001600160a01b03909116906370a08231906123d090309060040161526e565b602060405180830381865afa1580156123ed573d6000803e3d6000fd5b505050506040513d601f19601f8201168201806040525081019061241191906158a6565b8111156124605760405162461bcd60e51b815260206004820181905260248201527f5075626c696353616c653a20646f6e74206861766520726566756e6420746f6e6044820152606401610d01565b6002850181905560255461247e906001600160a01b031633836147bd565b6040518181523390600080516020615f638339815191529060200160405180910390a25b60405183815233907fd8138f8a3f377c5259ca548e70e4c2de94f129f5a11036a15b69513cba2b426a906020015b60405180910390a2505050505050565b6001600160a01b0381166000908152602f602090815260408083208151608081018352815460ff1615801582526001830154948201949094526002820154928101929092526003015460608201528291829190612582576000806000612545886134ec565b9250925092506125628460400151846144f890919063ffffffff16565b60608501516125729084906144f8565b8296509650965050505050612593565b61258b856134ec565b935093509350505b9193909250565b60008060006009544210156125b7575060009150819050806127a6565b602c548411156125cf575060009150819050806127a6565b6001600160a01b03851660009081526031602090815260408083208151606081018352815460ff16151581526001820154938101939093526002015490820152908061261a886124e0565b92509250508160000361263a5760008060009550955095505050506127a6565b818360200151106126585760008060009550955095505050506127a6565b6000612662613295565b9050600081602c54148015612675575088155b1561269b57602085015161268a908590614813565b97509295509093506127a692505050565b886000036126fb576126e2606461179f602e6126b8866001614813565b815481106126c8576126c861594e565b9060005260206000200154876144e090919063ffffffff16565b905061268a85602001518261481390919063ffffffff16565b8860010361271f5761268a606461179f602e6000815481106126c8576126c861594e565b6000612783602e6127318c6002614813565b815481106127415761274161594e565b600091825260209091200154602e61275a8d6001614813565b8154811061276a5761276a61594e565b906000526020600020015461481390919063ffffffff16565b9050612794606461179f87846144e0565b98509396509194506127a69350505050565b9250925092565b6000806127cb60145461179f601354866144e090919063ffffffff16565b9392505050565b6000610cc7633b9aca0083615892565b602b5460ff161515600114801590612801575060365460ff1615156001145b61285d5760405162461bcd60e51b815260206004820152602760248201527f5075626c696353616c65203a206e656564207468652065786368616e676557546044820152664f4e746f544f5360c81b6064820152608401610d01565b6000612867613f1d565b905060006128898261288361287a612b30565b600f54906144f8565b90614813565b6025546040516370a0823160e01b81529192506001600160a01b0316906370a08231906128ba90309060040161526e565b602060405180830381865afa1580156128d7573d6000803e3d6000fd5b505050506040513d601f19601f820116820180604052508101906128fb91906158a6565b81111561294a5760405162461bcd60e51b815260206004820152601f60248201527f5075626c696353616c653a206e6f20746f6b656e20746f2072656365697665006044820152606401610d01565b602b805460ff19166001179055600e5460009061297b9061288361296c611a9a565b601254601154612883916144f8565b602654604051630852cd8d60e31b8152600481018390529192506001600160a01b0316906342966c6890602401600060405180830381600087803b1580156129c257600080fd5b505af11580156129d6573d6000803e3d6000fd5b505060255460235460405163095ea7b360e01b81526001600160a01b03928316945063095ea7b39350612a1192909116908690600401615964565b6020604051808303816000875af1158015612a30573d6000803e3d6000fd5b505050506040513d601f19601f82011682018060405250810190612a5491906158bf565b506023546040516392ca60c160e01b8152600481018490526001600160a01b03909116906392ca60c190602401600060405180830381600087803b158015612a9b57600080fd5b505af1158015612aaf573d6000803e3d6000fd5b505060408051858152602081018790523393507f27084c94a254e82dc8973b962810cb320efedce3c641c38244a13a32eb8fff0892500160405180910390a2505050565b612afc33613f11565b612b185760405162461bcd60e51b8152600401610d019061597d565b6116fa600080516020615ee383398151915282611c4f565b600080612b3e601054613615565b90506000612b4a611a6e565b905080821015612b5e576010549250505090565b612b67816127ad565b9250505090565b612b7733611a54565b80612b865750612b8633613f11565b612ba25760405162461bcd60e51b8152600401610d01906155e3565b6001600160a01b038116612bc85760405162461bcd60e51b8152600401610d01906159c5565b6001600160a01b0381163303612bf05760405162461bcd60e51b8152600401610d01906159f7565b612c08600080516020615ee383398151915282611c4f565b6116fa600080516020615ee383398151915233611c70565b612c2933611a54565b80612c385750612c3833613f11565b612c545760405162461bcd60e51b8152600401610d01906155e3565b601c54823510801590612c6d5750601d54602083013510155b8015612c7f5750601e54604083013510155b8015612c915750601f54606083013510155b612cce5760405162461bcd60e51b815260206004820152600e60248201526d3a34b2b91039b2ba1032b93937b960911b6044820152606401610d01565b612ceb8235602084013560408501358560035b6020020135611ac4565b611cea8135602083013560408401358460035b6020020135611818565b6028546000906001600160a01b031680612d345760405162461bcd60e51b8152600401610d0190615a27565b60016000526032602052600080516020615f038339815191525480612d6b5760405162461bcd60e51b8152600401610d0190615625565b60026000526032602052600080516020615f438339815191525480612da25760405162461bcd60e51b8152600401610d0190615625565b60036000526032602052600080516020615f238339815191525480612dd95760405162461bcd60e51b8152600401610d0190615625565b60046000526032602052600080516020615fa38339815191525480612e105760405162461bcd60e51b8152600401610d0190615625565b6028546000805460405163277166bf60e11b815291926001600160a01b031691634ee2cd7e91612e45918c9190600401615964565b602060405180830381865afa158015612e62573d6000803e3d6000fd5b505050506040513d601f19601f82011682018060405250810190612e8691906158a6565b600160009081526032602052600080516020615f0383398151915254919250908210801590612ecd575060026000526032602052600080516020615f438339815191525482105b15612eda57506001612fc3565b60026000526032602052600080516020615f43833981519152548210801590612f1b575060036000526032602052600080516020615f238339815191525482105b15612f2857506002612fc3565b60036000526032602052600080516020615f23833981519152548210801590612f69575060046000526032602052600080516020615fa38339815191525482105b15612f7657506003612fc3565b60046000526032602052600080516020615fa3833981519152548210612f9e57506004612fc3565b60016000526032602052600080516020615f0383398151915254821015612fc3575060005b98975050505050505050565b6003544210156130375760405162461bcd60e51b815260206004820152602d60248201527f5075626c696353616c653a2077686974656c697374537461727454696d65206860448201526c185cc81b9bdd081c185cdcd959609a1b6064820152608401610d01565b60045442106130925760405162461bcd60e51b815260206004820152602160248201527f5075626c696353616c653a20656e64207468652077686974656c69737454696d6044820152606560f81b6064820152608401610d01565b600061309d33612d08565b905060018110156130f05760405162461bcd60e51b815260206004820152601d60248201527f5075626c696353616c653a206e65656420746f206d6f72652073544f530000006044820152606401610d01565b336000908152602f60205260409020805460ff1615156001036131545760405162461bcd60e51b815260206004820152601c60248201527b141d589b1a58d4d85b194e88185b1c9958591e48185d1d195b99195960221b6044820152606401610d01565b602a805460018181019092557fbeced09521047d05b8960b7e7bcc1d1292cf3e4b2a6b63f48335cbde5f7545d20180546001600160a01b03191633179055815460ff191681178255818101839055600060038301819055838152603360205260409020546131c1916144f8565b600083815260336020908152604091829020929092555183815233917fffc1b88a1c7ff4b7c84aac62283195eb1a6e771eafe7f68ddc27c7539cb0a105910160405180910390a25050565b61321533613f11565b6132315760405162461bcd60e51b8152600401610d019061597d565b6001600160a01b0381166132575760405162461bcd60e51b8152600401610d01906159c5565b6001600160a01b038116330361327f5760405162461bcd60e51b8152600401610d01906159f7565b61328a600082611c4f565b6116fa600033611c70565b6000602d6001602c546132a89190615a59565b815481106132b8576132b861594e565b906000526020600020015442106132d05750602c5490565b60005b602c5481101561331957602d81815481106132f0576132f061594e565b906000526020600020015442101561330757919050565b8061331181615a6c565b9150506132d3565b5090565b6000611a95600e5460115461481390919063ffffffff16565b60009182526037602090815260408084206001600160a01b0393909316845291905290205460ff1690565b61336a33613f11565b6133865760405162461bcd60e51b8152600401610d019061597d565b6116fa60008261481f565b61339a33611a54565b806133a957506133a933613f11565b6133c55760405162461bcd60e51b8152600401610d01906155e3565b82600081116133e65760405162461bcd60e51b8152600401610d0190615625565b82600081116134075760405162461bcd60e51b8152600401610d0190615625565b82600081116134285760405162461bcd60e51b8152600401610d0190615625565b600354158061344557506000600354118015613445575060035442105b6134615760405162461bcd60e51b8152600401610d019061564f565b6000541561348e5761347233613f11565b61348e5760405162461bcd60e51b8152600401610d0190615696565b8385106134db5760405162461bcd60e51b815260206004820152601b60248201527a283ab13634b1a9b0b632901d102937bab732193a34b6b29032b93960291b6044820152606401610d01565b505050600092909255600755600855565b6001600160a01b03811660009081526030602090815260408083208151606081018352815460ff1615801582526001830154948201949094526002909101549181019190915282918291908061354457506020810151155b1561355a57600080600093509350935050612593565b6000613567866000611f7a565b90506000613574826127ad565b6020840151909150600080828410156135a3576135918385614813565b905061359c84613615565b91506135b6565b856020015193506135b383613615565b91505b929990985091965090945050505050565b6135d033611a54565b806135df57506135df33613f11565b6135fb5760405162461bcd60e51b8152600401610d01906155e3565b613613600080516020615ee383398151915233611c70565b565b6000806127cb60135461179f601454866144e090919063ffffffff16565b6116fa33826145fb565b61364633613f11565b6136625760405162461bcd60e51b8152600401610d019061597d565b613613600033611c70565b61367633611a54565b80613685575061368533613f11565b6136a15760405162461bcd60e51b8152600401610d01906155e3565b60035415806136be575060006003541180156136be575060035442105b6136da5760405162461bcd60e51b8152600401610d019061564f565b602c541561371f576136eb33613f11565b6137075760405162461bcd60e51b8152600401610d0190615696565b613713602d6000615199565b61371f602e6000615199565b602c8590556000805b8682101561386a57602d8686848181106137445761374461594e565b8354600181018555600094855260209485902091909402929092013591909201555081156137fd57602d828154811061377f5761377f61594e565b9060005260206000200154602d6001846137999190615a59565b815481106137a9576137a961594e565b9060005260206000200154106137fd5760405162461bcd60e51b8152602060048201526019602482015278283ab13634b1a9b0b6329d1031b630b4b6ba34b6b29032b93960391b6044820152606401610d01565b83838381811061380f5761380f61594e565b9050602002013581613821919061593b565b602e80546001810182556000919091527f37fa166cbdbfbb1561ccd9ea985ec0218b5e68502e230525f544285b2bdf3d7e0181905590508161386281615a6c565b925050613728565b806064146138ae5760405162461bcd60e51b815260206004820152601160248201527031b630b4b6a832b931b2b73a399032b93960791b6044820152606401610d01565b50505050505050565b6138c033611a54565b806138cf57506138cf33613f11565b6138eb5760405162461bcd60e51b8152600401610d01906155e3565b600354158061390857506000600354118015613908575060035442105b6139245760405162461bcd60e51b8152600401610d019061564f565b6026546040516370a0823160e01b81526000916001600160a01b0316906370a082319061395590309060040161526e565b602060405180830381865afa158015613972573d6000803e3d6000fd5b505050506040513d601f19601f8201168201806040525081019061399691906158a6565b9050806139a86020890135893561593b565b111580156139be575080670de0b6b3a764000011155b6139f75760405162461bcd60e51b815260206004820152600a60248201526930b6b7bab73a1032b93960b11b6044820152606401610d01565b84846000818110613a0a57613a0a61594e565b9050602002013586600660088110613a2457613a2461594e565b602002013510613a615760405162461bcd60e51b81526020600482015260086024820152673a34b6b29032b93960c11b6044820152606401610d01565b600254600154873591613a739161593b565b10613ab65760405162461bcd60e51b815260206004820152601360248201527239b730b839b437ba103732b2b2103630ba32b960691b6044820152606401610d01565b6020860135863510613b065760405162461bcd60e51b81526020600482015260196024820152781dda1a5d195b1a5cdd081899599bdc99481cdb985c1cda1bdd603a1b6044820152606401610d01565b8315801590613b1457508382145b613b545760405162461bcd60e51b81526020600482015260116024820152701b995959081d1a194818db185a5b54d95d607a1b6044820152606401610d01565b60005415613b8157613b6533613f11565b613b815760405162461bcd60e51b8152600401610d0190615696565b613b98883560208a013560408b01358b6003612ce1565b613bb2608089013560a08a013560c08b01358b6007612cfe565b613bd58735602089013560408a013560608b013560808c013560a08d0135613c3c565b613bf160208701356040880135606089013560808a0135610ccd565b613c05863560a088013560c0890135613391565b613c1660e08701358686868661366d565b5050505050505050565b613c2982611a3f565b613c3281614504565b611c6b8383614594565b613c4533611a54565b80613c545750613c5433613f11565b613c705760405162461bcd60e51b8152600401610d01906155e3565b6003541580613c8d57506000600354118015613c8d575060035442105b613ca95760405162461bcd60e51b8152600401610d019061564f565b60115415613cd657613cba33613f11565b613cd65760405162461bcd60e51b8152600401610d0190615696565b601b548111158015613cea5750601a548110155b613d365760405162461bcd60e51b815260206004820152601f60248201527f5075626c696353616c653a206e65656420746f20736574206d696e2c6d6178006044820152606401610d01565b601186905560128590556013849055601483905560188290556019819055603654610100900460020b600003613d78576036805463ffffff0019166112001790555b505050505050565b613d8933613f11565b613da55760405162461bcd60e51b8152600401610d019061597d565b6023546001600160a01b03808316911603613dfa5760405162461bcd60e51b8152602060048201526015602482015274283ab13634b1a9b0b6329d1039b0b6b29030b2323960591b6044820152606401610d01565b602380546001600160a01b0319166001600160a01b0392909216919091179055565b60298181548110613e2c57600080fd5b6000918252602090912001546001600160a01b0316905081565b613e4f33611a54565b80613e5e5750613e5e33613f11565b613e7a5760405162461bcd60e51b8152600401610d01906155e3565b603654600282810b610100909204900b03613ed05760405162461bcd60e51b81526020600482015260166024820152755075626c696353616c653a2073616d652076616c756560501b6044820152606401610d01565b6036805462ffffff9092166101000263ffffff0019909216919091179055565b602d8181548110613f0057600080fd5b600091825260209091200154905081565b6000610cc78183613336565b600080613f2b61287a612b30565b905060006018548210613f52576127cb606461179f601954856144e090919063ffffffff16565b60009250505090565b602e8181548110613f0057600080fd5b602a8181548110613e2c57600080fd5b60008163ffffffff16600003613fb85760405162461bcd60e51b8152602060048201526002602482015261042560f41b6044820152606401610d01565b6040805160028082526060820183526000926020830190803683370190505090508281600081518110613fed57613fed61594e565b602002602001019063ffffffff16908163ffffffff168152505060008160018151811061401c5761401c61594e565b63ffffffff9092166020928302919091019091015260405163883bdbfd60e01b81526000906001600160a01b0386169063883bdbfd90614060908590600401615a9b565b600060405180830381865afa15801561407d573d6000803e3d6000fd5b505050506040513d6000823e601f3d908101601f191682016040526140a59190810190615bac565b5090506000816000815181106140bd576140bd61594e565b6020026020010151826001815181106140d8576140d861594e565b60200260200101516140ea9190615c77565b90506140fa600386900b82615ca4565b935060008160060b12801561411e5750614118600386900b82615ce2565b60060b15155b15614131578361412d81615d04565b9450505b50505092915050565b611cea8282604051602401614150929190615d53565b60408051601f198184030181529190526020810180516001600160e01b0316632d839cb360e21b179052614829565b60008151602014614202576044825110156141cf5760405162461bcd60e51b815260206004820152601060248201526f2ab732bc3832b1ba32b21032b93937b960811b6044820152606401610d01565b600482019150818060200190518101906141e99190615d75565b60405162461bcd60e51b8152600401610d019190615e08565b81806020019051810190610cc791906158a6565b80600081116142375760405162461bcd60e51b8152600401610d0190615625565b602c546000811161425a5760405162461bcd60e51b8152600401610d0190615625565b6005544210156142c25760405162461bcd60e51b815260206004820152602d60248201527f5075626c696353616c653a206578636c7573697665537461727454696d65206860448201526c185cc81b9bdd081c185cdcd959609a1b6064820152608401610d01565b600654421061431d5760405162461bcd60e51b815260206004820152602160248201527f5075626c696353616c653a20656e6420746865206578636c757369766554696d6044820152606560f81b6064820152608401610d01565b6001600160a01b0384166000908152602f60205260409020805460ff16151560011461439b5760405162461bcd60e51b815260206004820152602760248201527f5075626c696353616c653a206e6f74207265676973746572656420696e2077686044820152661a5d195b1a5cdd60ca1b6064820152608401610d01565b60006143a685613615565b905060006143b3876116fd565b60038401549091506143c590836144f8565b8110156144295760405162461bcd60e51b815260206004820152602c60248201527f5075626c696353616c653a206a757374206275792074696572277320616c6c6f60448201526b18d85d195908185b5bdd5b9d60a21b6064820152608401610d01565b600061443488612d08565b9050836002015460000361448e57600b546144509060016144f8565b600b55600a546144619060016144f8565b600a5560008181526034602052604090205461447e9060016144f8565b6000828152603460205260409020555b600284015461449d90886144f8565b600285015560038401546144b190846144f8565b6003850155600f546144c390886144f8565b600f55600e546144d390846144f8565b600e55613c16878961484a565b60006127cb828461585d565b60006127cb8284615892565b60006127cb828461593b565b6116fa8133614ce9565b6145188282613336565b611cea5760008281526037602090815260408083206001600160a01b03851684529091529020805460ff191660011790556145503390565b6001600160a01b0316816001600160a01b0316837f2f8788117e7eff1d82e926ec794901d17c78024a50270940304540a733656f0d60405160405180910390a45050565b61459e8282613336565b15611cea5760008281526037602090815260408083206001600160a01b0385168085529252808320805460ff1916905551339285917ff6391f5c32d9c69d2a47ea670b442974b53935d1edc7fd64eb21e047a839171b9190a45050565b806000811161461c5760405162461bcd60e51b8152600401610d0190615625565b60075442101561467a5760405162461bcd60e51b815260206004820152602360248201527f5075626c696353616c653a20646f6e2774207374617274206465706f73697454604482015262696d6560e81b6064820152608401610d01565b60085442106146cb5760405162461bcd60e51b815260206004820152601f60248201527f5075626c696353616c653a20656e6420746865206465706f73697454696d65006044820152606401610d01565b6001600160a01b0383166000908152603060205260409020805460ff166147895760298054600180820183556000929092527fcb7c14ce178f56e2e8d86ab33ebc0ae081ba8556a00cd122038841867181caac0180546001600160a01b0319166001600160a01b038716179055815460ff191681178255600c5461474e916144f8565b600c556001600160a01b0384166000908152602f60205260408120600281015490910361478757600a546147839060016144f8565b600a555b505b600181015461479890846144f8565b60018201556010546147aa90846144f8565b6010556147b7838561484a565b50505050565b611c6b8363a9059cbb60e01b84846040516024016147dc929190615964565b60408051601f198184030181529190526020810180516001600160e01b03166001600160e01b031990931692909217909152614d42565b60006127cb8284615a59565b611cea828261450e565b80516a636f6e736f6c652e6c6f67602083016000808483855afa5050505050565b816000811161486b5760405162461bcd60e51b8152600401610d0190615625565b816001600160a01b0381166148925760405162461bcd60e51b8152600401610d0190615a27565b602554604051636eb1769f60e11b81526000916001600160a01b03169063dd62ed3e906148c590879030906004016156c0565b602060405180830381865afa1580156148e2573d6000803e3d6000fd5b505050506040513d601f19601f8201168201806040525081019061490691906158a6565b6025546040516370a0823160e01b81529192506000916001600160a01b03909116906370a082319061493c90889060040161526e565b602060405180830381865afa158015614959573d6000803e3d6000fd5b505050506040513d601f19601f8201168201806040525081019061497d91906158a6565b90508082111561498b578091505b85821015614c18576000806149a08885614813565b90506149ab81614e14565b602454604051636eb1769f60e11b815291935083916001600160a01b039091169063dd62ed3e906149e2908b9030906004016156c0565b602060405180830381865afa1580156149ff573d6000803e3d6000fd5b505050506040513d601f19601f82011682018060405250810190614a2391906158a6565b1015614a7c5760405162461bcd60e51b815260206004820152602260248201527f5075626c696353616c653a2077746f6e206578636565647320616c6c6f77616e604482015261636560f01b6064820152608401610d01565b6024546040516370a0823160e01b815283916001600160a01b0316906370a0823190614aac908b9060040161526e565b602060405180830381865afa158015614ac9573d6000803e3d6000fd5b505050506040513d601f19601f82011682018060405250810190614aed91906158a6565b1015614b2c5760405162461bcd60e51b815260206004820152600e60248201526d3732b2b21036b7b932903bba37b760911b6044820152606401610d01565b602454614b44906001600160a01b0316883085614e24565b6024805460405163f53fe70f60e01b8152600481018590526001600160a01b039091169163f53fe70f91016020604051808303816000875af1158015614b8e573d6000803e3d6000fd5b505050506040513d601f19601f82011682018060405250810190614bb291906158bf565b50614bbd8882614813565b841015614bdc5760405162461bcd60e51b8152600401610d0190615e1b565b6000614be88983614813565b1115614c1157614c118730614bfd8b85614813565b6025546001600160a01b0316929190614e24565b5050614c5c565b858210158015614c285750858110155b614c445760405162461bcd60e51b8152600401610d0190615e1b565b602554614c5c906001600160a01b0316863089614e24565b600654421015614cae57846001600160a01b03167fc2198f7273f3b4ab95a025cf1f853777ca45149bbc1c005496959a6da70fcb8d87604051614ca191815260200190565b60405180910390a2613d78565b846001600160a01b03167f2da466a7b24304f47e87fa2e1e5a81b9831ce54fec19055ce277ca2f39ba42c4876040516124d091815260200190565b614cf38282613336565b611cea57614d0081614e5c565b614d0b836020614e6e565b604051602001614d1c929190615e5c565b60408051601f198184030181529082905262461bcd60e51b8252610d0191600401615e08565b6000614d97826040518060400160405280602081526020017f5361666545524332303a206c6f772d6c6576656c2063616c6c206661696c6564815250856001600160a01b03166150099092919063ffffffff16565b805190915015611c6b5780806020019051810190614db591906158bf565b611c6b5760405162461bcd60e51b815260206004820152602a60248201527f5361666545524332303a204552433230206f7065726174696f6e20646964206e6044820152691bdd081cdd58d8d9595960b21b6064820152608401610d01565b6000610cc782633b9aca0061585d565b6040516001600160a01b03808516602483015283166044820152606481018290526147b79085906323b872dd60e01b906084016147dc565b6060610cc76001600160a01b03831660145b60606000614e7d83600261585d565b614e8890600261593b565b6001600160401b03811115614e9f57614e9f615a85565b6040519080825280601f01601f191660200182016040528015614ec9576020820181803683370190505b509050600360fc1b81600081518110614ee457614ee461594e565b60200101906001600160f81b031916908160001a905350600f60fb1b81600181518110614f1357614f1361594e565b60200101906001600160f81b031916908160001a9053506000614f3784600261585d565b614f4290600161593b565b90505b6001811115614fba576f181899199a1a9b1b9c1cb0b131b232b360811b85600f1660108110614f7657614f7661594e565b1a60f81b828281518110614f8c57614f8c61594e565b60200101906001600160f81b031916908160001a90535060049490941c93614fb381615ecb565b9050614f45565b5083156127cb5760405162461bcd60e51b815260206004820181905260248201527f537472696e67733a20686578206c656e67746820696e73756666696369656e746044820152606401610d01565b60606150188484600085615020565b949350505050565b6060824710156150815760405162461bcd60e51b815260206004820152602660248201527f416464726573733a20696e73756666696369656e742062616c616e636520666f6044820152651c8818d85b1b60d21b6064820152608401610d01565b600080866001600160a01b0316858760405161509d919061582b565b60006040518083038185875af1925050503d80600081146150da576040519150601f19603f3d011682016040523d82523d6000602084013e6150df565b606091505b50915091506150f0878383876150fb565b979650505050505050565b6060831561516a578251600003615163576001600160a01b0385163b6151635760405162461bcd60e51b815260206004820152601d60248201527f416464726573733a2063616c6c20746f206e6f6e2d636f6e74726163740000006044820152606401610d01565b5081615018565b615018838381511561517f5781518083602001fd5b8060405162461bcd60e51b8152600401610d019190615e08565b50805460008255906000526020600020908101906116fa91905b8082111561331957600081556001016151b3565b6000602082840312156151d957600080fd5b81356001600160e01b0319811681146127cb57600080fd5b60006020828403121561520357600080fd5b5035919050565b6000806000806080858703121561522057600080fd5b5050823594602084013594506040840135936060013592509050565b6001600160a01b03811681146116fa57600080fd5b60006020828403121561526357600080fd5b81356127cb8161523c565b6001600160a01b0391909116815260200190565b6000806040838503121561529557600080fd5b8235915060208301356152a78161523c565b809150509250929050565b6000806000806000608086880312156152ca57600080fd5b85356152d58161523c565b945060208601356152e58161523c565b93506040860135925060608601356001600160401b038082111561530857600080fd5b818801915088601f83011261531c57600080fd5b81358181111561532b57600080fd5b89602082850101111561533d57600080fd5b9699959850939650602001949392505050565b6000806040838503121561536357600080fd5b823561536e8161523c565b946020939093013593505050565b8060808101831015610cc757600080fd5b60008061010083850312156153a157600080fd5b6153ab848461537c565b91506153ba846080850161537c565b90509250929050565b6000806000606084860312156153d857600080fd5b505081359360208301359350604090920135919050565b60008083601f84011261540157600080fd5b5081356001600160401b0381111561541857600080fd5b6020830191508360208260051b850101111561543357600080fd5b9250929050565b60008060008060006060868803121561545257600080fd5b8535945060208601356001600160401b038082111561547057600080fd5b61547c89838a016153ef565b9096509450604088013591508082111561549557600080fd5b506154a2888289016153ef565b969995985093965092949392505050565b806101008101831015610cc757600080fd5b6000806000806000806000610300888a0312156154e157600080fd5b6154eb89896154b3565b96506101c08801898111156154ff57600080fd5b610100890196506155108a826154b3565b9550506102c08801356001600160401b038082111561552e57600080fd5b61553a8b838c016153ef565b90965094506102e08a013591508082111561555457600080fd5b506155618a828b016153ef565b989b979a50959850939692959293505050565b60008060008060008060c0878903121561558d57600080fd5b505084359660208601359650604086013595606081013595506080810135945060a0013592509050565b8060020b81146116fa57600080fd5b6000602082840312156155d857600080fd5b81356127cb816155b7565b60208082526022908201527f41636365737369626c653a2043616c6c6572206973206e6f7420616e2061646d60408201526134b760f11b606082015260800190565b60208082526010908201526f5075626c696353616c653a207a65726f60801b604082015260600190565b60208082526027908201527f5075626c696353616c653a206e6f74206265666f72655374617274416464576860408201526669746554696d6560c81b606082015260800190565b60208082526010908201526f1bdb9b1e48111053c818d85b881cd95d60821b604082015260600190565b6001600160a01b0392831681529116602082015260400190565b6000602082840312156156ec57600080fd5b81516127cb8161523c565b805161ffff8116811461570957600080fd5b919050565b8051801515811461570957600080fd5b600080600080600080600060e0888a03121561573957600080fd5b87516157448161523c565b6020890151909750615755816155b7565b9550615763604089016156f7565b9450615771606089016156f7565b935061577f608089016156f7565b925060a088015160ff8116811461579557600080fd5b91506157a360c0890161570e565b905092959891949750929550565b6000602082840312156157c357600080fd5b81516127cb816155b7565b6000806000606084860312156157e357600080fd5b835192506020840151915060408401516157fc8161523c565b809150509250925092565b60005b8381101561582257818101518382015260200161580a565b50506000910152565b6000825161583d818460208701615807565b9190910192915050565b634e487b7160e01b600052601160045260246000fd5b600081600019048311821515161561587757615877615847565b500290565b634e487b7160e01b600052601260045260246000fd5b6000826158a1576158a161587c565b500490565b6000602082840312156158b857600080fd5b5051919050565b6000602082840312156158d157600080fd5b6127cb8261570e565b60208152816020820152818360408301376000818301604090810191909152601f909201601f19160101919050565b6020808252601890820152775075626c696353616c653a206e6f742053616c6554696d6560401b604082015260600190565b80820180821115610cc757610cc7615847565b634e487b7160e01b600052603260045260246000fd5b6001600160a01b03929092168252602082015260400190565b60208082526028908201527f41636365737369626c653a2043616c6c6572206973206e6f7420616e2070726f6040820152673c3c9030b236b4b760c11b606082015260800190565b60208082526018908201527741636365737369626c653a207a65726f206164647265737360401b604082015260600190565b60208082526016908201527520b1b1b2b9b9b4b136329d1039b0b6b29030b236b4b760511b604082015260600190565b6020808252601890820152775075626c696353616c653a207a65726f206164647265737360401b604082015260600190565b81810381811115610cc757610cc7615847565b600060018201615a7e57615a7e615847565b5060010190565b634e487b7160e01b600052604160045260246000fd5b6020808252825182820181905260009190848201906040850190845b81811015615ad957835163ffffffff1683529284019291840191600101615ab7565b50909695505050505050565b604051601f8201601f191681016001600160401b0381118282101715615b0d57615b0d615a85565b604052919050565b60006001600160401b03821115615b2e57615b2e615a85565b5060051b60200190565b600082601f830112615b4957600080fd5b81516020615b5e615b5983615b15565b615ae5565b82815260059290921b84018101918181019086841115615b7d57600080fd5b8286015b84811015615ba1578051615b948161523c565b8352918301918301615b81565b509695505050505050565b60008060408385031215615bbf57600080fd5b82516001600160401b0380821115615bd657600080fd5b818501915085601f830112615bea57600080fd5b81516020615bfa615b5983615b15565b82815260059290921b84018101918181019089841115615c1957600080fd5b948201945b83861015615c475785518060060b8114615c385760008081fd5b82529482019490820190615c1e565b91880151919650909350505080821115615c6057600080fd5b50615c6d85828601615b38565b9150509250929050565b600682810b9082900b03667fffffffffffff198112667fffffffffffff82131715610cc757610cc7615847565b60008160060b8360060b80615cbb57615cbb61587c565b667fffffffffffff19821460001982141615615cd957615cd9615847565b90059392505050565b60008260060b80615cf557615cf561587c565b808360060b0791505092915050565b60008160020b627fffff198103615d1d57615d1d615847565b6000190192915050565b60008151808452615d3f816020860160208601615807565b601f01601f19169290920160200192915050565b604081526000615d666040830185615d27565b90508260208301529392505050565b600060208284031215615d8757600080fd5b81516001600160401b0380821115615d9e57600080fd5b818401915084601f830112615db257600080fd5b815181811115615dc457615dc4615a85565b615dd7601f8201601f1916602001615ae5565b9150808252856020828501011115615dee57600080fd5b615dff816020840160208601615807565b50949350505050565b6020815260006127cb6020830184615d27565b60208082526021908201527f5075626c696353616c653a20746f6e206578636565647320616c6c6f77616e636040820152606560f81b606082015260800190565b76020b1b1b2b9b9a1b7b73a3937b61d1030b1b1b7bab73a1604d1b815260008351615e8e816017850160208801615807565b7001034b99036b4b9b9b4b733903937b6329607d1b6017918401918201528351615ebf816028840160208801615807565b01602801949350505050565b600081615eda57615eda615847565b50600019019056fe52eafc11f6f81f86878bffd31109a0d92f37506527754f00788853ff9f63b1300d07fe408fa264e656a9c06e272928e4d4bb400d93cd5b5e74ac592f6170c2fd1f20ec30f5e9c102cf5806d0bb8118b98c797a37ea4ca5b5c306ba879366c77c9ff19f865638bb86eeeae31c2a9ec896d92141edd461fe8f31e9e7484e4d2bb5d7dee2702d63ad89917b6a4da9981c90c4d24f8c2bdfd64c604ecae57d8d06518e3caac72b6c5bb0462da38c8c8c3b5fbc00a646bd75367c23c11d594c4e36c93f52cf82629296489b84e1dbb72f035157400392aa100335795b652755f8cddaa2646970667358221220b3fb7bcd9cb70e5c406294595c47656014de96d82eb4212b285a21209f673f8764736f6c63430008100033",
    "linkReferences": {
        "contracts/libraries/LibPublicSale.sol": {
            "LibPublicSale": [
                {
                    "length": 20,
                    "start": 4148
                },
                {
                    "length": 20,
                    "start": 4516
                },
                {
                    "length": 20,
                    "start": 4790
                },
                {
                    "length": 20,
                    "start": 7747
                }
            ]
        }
    },
    "deployedLinkReferences": {
        "contracts/libraries/LibPublicSale.sol": {
            "LibPublicSale": [
                {
                    "length": 20,
                    "start": 3987
                },
                {
                    "length": 20,
                    "start": 4355
                },
                {
                    "length": 20,
                    "start": 4629
                },
                {
                    "length": 20,
                    "start": 7586
                }
            ]
        }
    }
}