{
  "_format": "hh-sol-artifact-1",
  "contractName": "ReceivedFundVaultFactory",
  "sourceName": "contracts/ReceivedFundVaultFactory.sol",
  "abi": [
    {
      "inputs": [],
      "stateMutability": "nonpayable",
      "type": "constructor"
    },
    {
      "anonymous": false,
      "inputs": [
        {
          "indexed": false,
          "internalType": "address",
          "name": "contractAddress",
          "type": "address"
        },
        {
          "indexed": false,
          "internalType": "string",
          "name": "name",
          "type": "string"
        }
      ],
      "name": "CreatedReceivedFundVault",
      "type": "event"
    },
    {
      "anonymous": false,
      "inputs": [
        {
          "indexed": true,
          "internalType": "bytes32",
          "name": "role",
          "type": "bytes32"
        },
        {
          "indexed": true,
          "internalType": "bytes32",
          "name": "previousAdminRole",
          "type": "bytes32"
        },
        {
          "indexed": true,
          "internalType": "bytes32",
          "name": "newAdminRole",
          "type": "bytes32"
        }
      ],
      "name": "RoleAdminChanged",
      "type": "event"
    },
    {
      "anonymous": false,
      "inputs": [
        {
          "indexed": true,
          "internalType": "bytes32",
          "name": "role",
          "type": "bytes32"
        },
        {
          "indexed": true,
          "internalType": "address",
          "name": "account",
          "type": "address"
        },
        {
          "indexed": true,
          "internalType": "address",
          "name": "sender",
          "type": "address"
        }
      ],
      "name": "RoleGranted",
      "type": "event"
    },
    {
      "anonymous": false,
      "inputs": [
        {
          "indexed": true,
          "internalType": "bytes32",
          "name": "role",
          "type": "bytes32"
        },
        {
          "indexed": true,
          "internalType": "address",
          "name": "account",
          "type": "address"
        },
        {
          "indexed": true,
          "internalType": "address",
          "name": "sender",
          "type": "address"
        }
      ],
      "name": "RoleRevoked",
      "type": "event"
    },
    {
      "inputs": [],
      "name": "ADMIN_ROLE",
      "outputs": [
        {
          "internalType": "bytes32",
          "name": "",
          "type": "bytes32"
        }
      ],
      "stateMutability": "view",
      "type": "function"
    },
    {
      "inputs": [],
      "name": "BURNER_ROLE",
      "outputs": [
        {
          "internalType": "bytes32",
          "name": "",
          "type": "bytes32"
        }
      ],
      "stateMutability": "view",
      "type": "function"
    },
    {
      "inputs": [],
      "name": "CLAIMER_ROLE",
      "outputs": [
        {
          "internalType": "bytes32",
          "name": "",
          "type": "bytes32"
        }
      ],
      "stateMutability": "view",
      "type": "function"
    },
    {
      "inputs": [],
      "name": "DEFAULT_ADMIN_ROLE",
      "outputs": [
        {
          "internalType": "bytes32",
          "name": "",
          "type": "bytes32"
        }
      ],
      "stateMutability": "view",
      "type": "function"
    },
    {
      "inputs": [],
      "name": "MINTER_ROLE",
      "outputs": [
        {
          "internalType": "bytes32",
          "name": "",
          "type": "bytes32"
        }
      ],
      "stateMutability": "view",
      "type": "function"
    },
    {
      "inputs": [
        {
          "internalType": "address",
          "name": "account",
          "type": "address"
        }
      ],
      "name": "addAdmin",
      "outputs": [],
      "stateMutability": "nonpayable",
      "type": "function"
    },
    {
      "inputs": [
        {
          "internalType": "string",
          "name": "_name",
          "type": "string"
        },
        {
          "internalType": "address",
          "name": "publicSaleAddress",
          "type": "address"
        }
      ],
      "name": "create",
      "outputs": [
        {
          "internalType": "address",
          "name": "",
          "type": "address"
        }
      ],
      "stateMutability": "nonpayable",
      "type": "function"
    },
    {
      "inputs": [
        {
          "internalType": "uint256",
          "name": "",
          "type": "uint256"
        }
      ],
      "name": "createdContracts",
      "outputs": [
        {
          "internalType": "address",
          "name": "contractAddress",
          "type": "address"
        },
        {
          "internalType": "string",
          "name": "name",
          "type": "string"
        }
      ],
      "stateMutability": "view",
      "type": "function"
    },
    {
      "inputs": [],
      "name": "daoAddress",
      "outputs": [
        {
          "internalType": "address",
          "name": "",
          "type": "address"
        }
      ],
      "stateMutability": "view",
      "type": "function"
    },
    {
      "inputs": [
        {
          "internalType": "uint256",
          "name": "_index",
          "type": "uint256"
        }
      ],
      "name": "getContracts",
      "outputs": [
        {
          "internalType": "address",
          "name": "contractAddress",
          "type": "address"
        },
        {
          "internalType": "string",
          "name": "name",
          "type": "string"
        }
      ],
      "stateMutability": "view",
      "type": "function"
    },
    {
      "inputs": [
        {
          "internalType": "bytes32",
          "name": "role",
          "type": "bytes32"
        }
      ],
      "name": "getRoleAdmin",
      "outputs": [
        {
          "internalType": "bytes32",
          "name": "",
          "type": "bytes32"
        }
      ],
      "stateMutability": "view",
      "type": "function"
    },
    {
      "inputs": [
        {
          "internalType": "bytes32",
          "name": "role",
          "type": "bytes32"
        },
        {
          "internalType": "address",
          "name": "account",
          "type": "address"
        }
      ],
      "name": "grantRole",
      "outputs": [],
      "stateMutability": "nonpayable",
      "type": "function"
    },
    {
      "inputs": [
        {
          "internalType": "bytes32",
          "name": "role",
          "type": "bytes32"
        },
        {
          "internalType": "address",
          "name": "account",
          "type": "address"
        }
      ],
      "name": "hasRole",
      "outputs": [
        {
          "internalType": "bool",
          "name": "",
          "type": "bool"
        }
      ],
      "stateMutability": "view",
      "type": "function"
    },
    {
      "inputs": [
        {
          "internalType": "address",
          "name": "account",
          "type": "address"
        }
      ],
      "name": "isAdmin",
      "outputs": [
        {
          "internalType": "bool",
          "name": "",
          "type": "bool"
        }
      ],
      "stateMutability": "view",
      "type": "function"
    },
    {
      "inputs": [],
      "name": "lastestCreated",
      "outputs": [
        {
          "internalType": "address",
          "name": "contractAddress",
          "type": "address"
        },
        {
          "internalType": "string",
          "name": "name",
          "type": "string"
        }
      ],
      "stateMutability": "view",
      "type": "function"
    },
    {
      "inputs": [],
      "name": "logEventAddress",
      "outputs": [
        {
          "internalType": "address",
          "name": "",
          "type": "address"
        }
      ],
      "stateMutability": "view",
      "type": "function"
    },
    {
      "inputs": [],
      "name": "minimumClaimCounts",
      "outputs": [
        {
          "internalType": "uint16",
          "name": "",
          "type": "uint16"
        }
      ],
      "stateMutability": "view",
      "type": "function"
    },
    {
      "inputs": [],
      "name": "minimumClaimPeriod",
      "outputs": [
        {
          "internalType": "uint16",
          "name": "",
          "type": "uint16"
        }
      ],
      "stateMutability": "view",
      "type": "function"
    },
    {
      "inputs": [
        {
          "internalType": "address",
          "name": "account",
          "type": "address"
        }
      ],
      "name": "removeAdmin",
      "outputs": [],
      "stateMutability": "nonpayable",
      "type": "function"
    },
    {
      "inputs": [
        {
          "internalType": "bytes32",
          "name": "role",
          "type": "bytes32"
        },
        {
          "internalType": "address",
          "name": "account",
          "type": "address"
        }
      ],
      "name": "renounceRole",
      "outputs": [],
      "stateMutability": "nonpayable",
      "type": "function"
    },
    {
      "inputs": [
        {
          "internalType": "bytes32",
          "name": "role",
          "type": "bytes32"
        },
        {
          "internalType": "address",
          "name": "account",
          "type": "address"
        }
      ],
      "name": "revokeRole",
      "outputs": [],
      "stateMutability": "nonpayable",
      "type": "function"
    },
    {
      "inputs": [
        {
          "internalType": "address[2]",
          "name": "addrs",
          "type": "address[2]"
        },
        {
          "internalType": "uint16",
          "name": "_minimumClaimCounts",
          "type": "uint16"
        },
        {
          "internalType": "uint16",
          "name": "_minimumClaimPeriod",
          "type": "uint16"
        }
      ],
      "name": "setBaseInfo",
      "outputs": [],
      "stateMutability": "nonpayable",
      "type": "function"
    },
    {
      "inputs": [
        {
          "internalType": "address",
          "name": "addr",
          "type": "address"
        }
      ],
      "name": "setLogEventAddress",
      "outputs": [],
      "stateMutability": "nonpayable",
      "type": "function"
    },
    {
      "inputs": [
        {
          "internalType": "address",
          "name": "_logic",
          "type": "address"
        }
      ],
      "name": "setLogic",
      "outputs": [],
      "stateMutability": "nonpayable",
      "type": "function"
    },
    {
      "inputs": [
        {
          "internalType": "address",
          "name": "addr",
          "type": "address"
        }
      ],
      "name": "setUpgradeAdmin",
      "outputs": [],
      "stateMutability": "nonpayable",
      "type": "function"
    },
    {
      "inputs": [
        {
          "internalType": "bytes4",
          "name": "interfaceId",
          "type": "bytes4"
        }
      ],
      "name": "supportsInterface",
      "outputs": [
        {
          "internalType": "bool",
          "name": "",
          "type": "bool"
        }
      ],
      "stateMutability": "view",
      "type": "function"
    },
    {
      "inputs": [],
      "name": "token",
      "outputs": [
        {
          "internalType": "address",
          "name": "",
          "type": "address"
        }
      ],
      "stateMutability": "view",
      "type": "function"
    },
    {
      "inputs": [],
      "name": "totalCreatedContracts",
      "outputs": [
        {
          "internalType": "uint256",
          "name": "",
          "type": "uint256"
        }
      ],
      "stateMutability": "view",
      "type": "function"
    },
    {
      "inputs": [
        {
          "internalType": "address",
          "name": "newAdmin",
          "type": "address"
        }
      ],
      "name": "transferAdmin",
      "outputs": [],
      "stateMutability": "nonpayable",
      "type": "function"
    },
    {
      "inputs": [],
      "name": "upgradeAdmin",
      "outputs": [
        {
          "internalType": "address",
          "name": "",
          "type": "address"
        }
      ],
      "stateMutability": "view",
      "type": "function"
    },
    {
      "inputs": [
        {
          "internalType": "address",
          "name": "_contract",
          "type": "address"
        },
        {
          "internalType": "bytes4[]",
          "name": "_selectors",
          "type": "bytes4[]"
        },
        {
          "internalType": "address",
          "name": "_imp",
          "type": "address"
        }
      ],
      "name": "upgradeContractFunction",
      "outputs": [],
      "stateMutability": "nonpayable",
      "type": "function"
    },
    {
      "inputs": [
        {
          "internalType": "address",
          "name": "_contract",
          "type": "address"
        },
        {
          "internalType": "address",
          "name": "_logic",
          "type": "address"
        },
        {
          "internalType": "uint256",
          "name": "_index",
          "type": "uint256"
        },
        {
          "internalType": "bool",
          "name": "_alive",
          "type": "bool"
        }
      ],
      "name": "upgradeContractLogic",
      "outputs": [],
      "stateMutability": "nonpayable",
      "type": "function"
    },
    {
      "inputs": [],
      "name": "vaultLogic",
      "outputs": [
        {
          "internalType": "address",
          "name": "",
          "type": "address"
        }
      ],
      "stateMutability": "view",
      "type": "function"
    }
  ],
  "bytecode": "0x60806040523480156200001157600080fd5b50600060015562000032600080516020620046f58339815191528062000065565b6200004d600080516020620046f583398151915233620000b0565b600380546001600160a01b0319163317905562000160565b600082815260208190526040808220600101805490849055905190918391839186917fbd79b86ffe0ab8e8776151514217cd7cacd52c909f66475c3af44e129f0b00ff9190a4505050565b620000bc8282620000c0565b5050565b6000828152602081815260408083206001600160a01b038516845290915290205460ff16620000bc576000828152602081815260408083206001600160a01b03851684529091529020805460ff191660011790556200011c3390565b6001600160a01b0316816001600160a01b0316837f2f8788117e7eff1d82e926ec794901d17c78024a50270940304540a733656f0d60405160405180910390a45050565b61458580620001706000396000f3fe60806040523480156200001157600080fd5b5060043610620001e15760003560e01c806375b238fc116200010f578063b4d4028011620000aa578063b4d402801462000465578063c4d5608a146200047c578063cc04fbd01462000490578063d052618714620004a6578063d539139314620004b0578063d547741f14620004d8578063eab73ca114620004ef578063fc0c546a1462000503578063fc5f18d3146200051757600080fd5b806375b238fc14620003ab5780637e2826f614620003c257806384b47b0f14620003d957806385de26f914620003f057806391d14854146200041a5780639342f4171462000431578063a217fddf1462000448578063b078147a146200045157600080fd5b80632f2ff15d11620001805780632f2ff15d1462000300578063338bad5f146200031757806336568abe1462000321578063439e23fd146200033857806367c5f8de146200034f57806370480275146200036657806371857000146200037d57806375829def146200039457600080fd5b806301ffc9a714620001e65780630881139714620002125780630f8899af14620002395780631785f53c14620002525780632131c68c1462000269578063248a9ca3146200028c57806324d7806c14620002c1578063282c51f314620002d8575b600080fd5b620001fd620001f736600462001c3f565b6200053f565b60405190151581526020015b60405180910390f35b620002296200022336600462001bf8565b62000577565b6040516200020992919062001e07565b620002506200024a36600462001baa565b6200062e565b005b620002506200026336600462001a9a565b620007ab565b6007546200027d906001600160a01b031681565b60405162000209919062001da0565b620002b26200029d36600462001bf8565b60009081526020819052604090206001015490565b60405190815260200162000209565b620001fd620002d236600462001a9a565b620007f3565b620002b27f9667e80708b6eeeb0053fa0cca44e028ff548e2a9f029edfeac87c118b08b7c881565b620002506200031136600462001c11565b62000810565b620002296200083f565b620002506200033236600462001c11565b62000958565b620002296200034936600462001bf8565b620009da565b620002506200036036600462001ab7565b62000ac0565b620002506200037736600462001a9a565b62000b81565b620002506200038e36600462001a9a565b62000bc6565b62000250620003a536600462001a9a565b62000c98565b620002b26000805160206200453083398151915281565b62000250620003d336600462001a9a565b62000d9f565b6200027d620003ea36600462001c5c565b62000e47565b6007546200040690600160b01b900461ffff1681565b60405161ffff909116815260200162000209565b620001fd6200042b36600462001c11565b620014c0565b620002506200044236600462001a9a565b620014e9565b620002b2600081565b6004546200027d906001600160a01b031681565b620002506200047636600462001b0f565b62001591565b6003546200027d906001600160a01b031681565b6007546200040690600160a01b900461ffff1681565b620002b260015481565b620002b27ff0887ba65ee2024ea881d91b74c2450ef19e1557f03bed3ea9f16b037cbe2dc981565b62000250620004e936600462001c11565b62001617565b6005546200027d906001600160a01b031681565b6006546200027d906001600160a01b031681565b620002b27fe5667d34d7ea8d6fdb3aa71a0a5b85e4cf7f68356dd003cd638556b0eea2bce581565b60006001600160e01b03198216637965db0b60e01b14806200057157506301ffc9a760e01b6001600160e01b03198316145b92915050565b600260205260009081526040902080546001820180546001600160a01b039092169291620005a59062002098565b80601f0160208091040260200160405190810160405280929190818152602001828054620005d39062002098565b8015620006245780601f10620005f85761010080835404028352916020019162000624565b820191906000526020600020905b8154815290600101906020018083116200060657829003601f168201915b5050505050905082565b6200063933620007f3565b620006615760405162461bcd60e51b8152600401620006589062001f8e565b60405180910390fd5b62000670602084018462001a9a565b6001600160a01b038116620006995760405162461bcd60e51b8152600401620006589062001f62565b620006ab604085016020860162001a9a565b6001600160a01b038116620006d45760405162461bcd60e51b8152600401620006589062001f62565b600754600160a01b900461ffff1615801590620006fd5750600754600160b01b900461ffff1615155b6200071c5760405162461bcd60e51b8152600401620006589062001fd0565b6200072b602086018662001a9a565b600680546001600160a01b0319166001600160a01b03929092169190911790556200075d604086016020870162001a9a565b600780546001600160a01b03929092166001600160b01b031990921691909117600160a01b61ffff968716021761ffff60b01b1916600160b01b949095169390930293909317909155505050565b620007b633620007f3565b620007d55760405162461bcd60e51b8152600401620006589062001f8e565b620007f0600080516020620045308339815191528262000958565b50565b6000620005716000805160206200453083398151915283620014c0565b6000828152602081905260409020600101546200082e813362001641565b6200083a8383620016b0565b505050565b60006060600060015411156200094357600260006001805462000863919062002031565b81526020810191909152604001600090812054600180546001600160a01b03909216926002929091620008969162002031565b8152602001908152602001600020600101808054620008b59062002098565b80601f0160208091040260200160405190810160405280929190818152602001828054620008e39062002098565b8015620009345780601f10620009085761010080835404028352916020019162000934565b820191906000526020600020905b8154815290600101906020018083116200091657829003601f168201915b50505050509050915091509091565b50506040805160208101909152600080825291565b6001600160a01b0381163314620009ca5760405162461bcd60e51b815260206004820152602f60248201527f416363657373436f6e74726f6c3a2063616e206f6e6c792072656e6f756e636560448201526e103937b632b9903337b91039b2b63360891b606482015260840162000658565b620009d6828262001738565b5050565b6000606060015483101562000aa85760008381526002602052604090208054600190910180546001600160a01b0390921691819062000a199062002098565b80601f016020809104026020016040519081016040528092919081815260200182805462000a479062002098565b801562000a985780601f1062000a6c5761010080835404028352916020019162000a98565b820191906000526020600020905b81548152906001019060200180831162000a7a57829003601f168201915b5050505050905091509150915091565b50506040805160208101909152600080825292909150565b62000acb33620007f3565b62000aea5760405162461bcd60e51b8152600401620006589062001f8e565b836001600160a01b03811662000b145760405162461bcd60e51b8152600401620006589062001f62565b604051637cd5f66360e01b81526001600160a01b03861690637cd5f6639062000b469087908790879060040162001db4565b600060405180830381600087803b15801562000b6157600080fd5b505af115801562000b76573d6000803e3d6000fd5b505050505050505050565b62000b8c33620007f3565b62000bab5760405162461bcd60e51b8152600401620006589062001f8e565b620007f0600080516020620045308339815191528262000810565b806001600160a01b03811662000bf05760405162461bcd60e51b8152600401620006589062001f62565b62000bfb33620007f3565b62000c1a5760405162461bcd60e51b8152600401620006589062001f8e565b6004546001600160a01b038381169116141562000c755760405162461bcd60e51b815260206004820152601860248201527730b63932b0b23c9039b2ba103a3434b9903b32b939b4b7b760411b604482015260640162000658565b50600480546001600160a01b0319166001600160a01b0392909216919091179055565b62000ca333620007f3565b62000cc25760405162461bcd60e51b8152600401620006589062001f8e565b6001600160a01b03811662000d155760405162461bcd60e51b815260206004820152601860248201527741636365737369626c653a207a65726f206164647265737360401b604482015260640162000658565b336001600160a01b038216141562000d695760405162461bcd60e51b815260206004820152601660248201527520b1b1b2b9b9b4b136329d1039b0b6b29030b236b4b760511b604482015260640162000658565b62000d84600080516020620045308339815191528262000810565b620007f0600080516020620045308339815191523362000958565b62000daa33620007f3565b62000dc95760405162461bcd60e51b8152600401620006589062001f8e565b806001600160a01b03811662000df35760405162461bcd60e51b8152600401620006589062001f62565b6005546001600160a01b038381169116141562000e245760405162461bcd60e51b8152600401620006589062001f3e565b50600580546001600160a01b0319166001600160a01b0392909216919091179055565b6006546000906001600160a01b03168062000e765760405162461bcd60e51b8152600401620006589062001f62565b6007546001600160a01b03168062000ea25760405162461bcd60e51b8152600401620006589062001f62565b6004546001600160a01b03168062000ece5760405162461bcd60e51b8152600401620006589062001f62565b6003546001600160a01b03168062000efa5760405162461bcd60e51b8152600401620006589062001f62565b856001600160a01b03811662000f245760405162461bcd60e51b8152600401620006589062001f62565b600754600160a01b900461ffff161580159062000f4d5750600754600160b01b900461ffff1615155b62000f6c5760405162461bcd60e51b8152600401620006589062001fd0565b8762000fab5760405162461bcd60e51b815260206004820152600d60248201526c6e616d6520697320656d70747960981b604482015260640162000658565b600060405162000fbb906200199d565b604051809103906000f08015801562000fd8573d6000803e3d6000fd5b5090506001600160a01b038116620010315760405162461bcd60e51b815260206004820152601b60248201527a526563656976656446756e645661756c7450726f7879207a65726f60281b604482015260640162000658565b6003546040516325bc555f60e21b81526001600160a01b03838116926396f1557c9262001065929091169060040162001da0565b600060405180830381600087803b1580156200108057600080fd5b505af115801562001095573d6000803e3d6000fd5b5050600354604051637048027560e01b81526001600160a01b03808616945063704802759350620010cb92169060040162001da0565b600060405180830381600087803b158015620010e657600080fd5b505af1158015620010fb573d6000803e3d6000fd5b505060048054604051637cd5f66360e01b81526001600160a01b038087169550637cd5f663945062001137939216916000916001910162001db4565b600060405180830381600087803b1580156200115257600080fd5b505af115801562001167573d6000803e3d6000fd5b5050600554604051630b8717f760e11b81526001600160a01b03918216600482015260016024820152908416925063170e2fee9150604401600060405180830381600087803b158015620011ba57600080fd5b505af1158015620011cf573d6000803e3d6000fd5b50505050806001600160a01b031663b914432d8b8b600660009054906101000a90046001600160a01b0316600760009054906101000a90046001600160a01b03168d600760149054906101000a900461ffff16600760169054906101000a900461ffff166040518863ffffffff1660e01b815260040162001257979695949392919062001ed4565b600060405180830381600087803b1580156200127257600080fd5b505af115801562001287573d6000803e3d6000fd5b50505050806001600160a01b0316639a202d476040518163ffffffff1660e01b8152600401600060405180830381600087803b158015620012c757600080fd5b505af1158015620012dc573d6000803e3d6000fd5b505050506040518060400160405280826001600160a01b031681526020018b8b8080601f0160208091040260200160405190810160405280939291908181526020018383808284376000920182905250939094525050600180548252600260209081526040909220845181546001600160a01b0319166001600160a01b039091161781558483015180519194506200137a93928501920190620019ab565b505060018054915060006200138f83620020d5565b9190505550600560009054906101000a90046001600160a01b03166001600160a01b031663beee31bf7f44dda5b2284e34c27cb5ef8a0d562c9bc5ed1f6d6ff1bb22d8eb48fdaf94abb17f8e79a0ec51eab80c433631af4b8cfd230172d694390aca16a98f9e816e825aa430858f8f604051602001620014129392919062001dd7565b6040516020818303038152906040526040518563ffffffff1660e01b815260040162001442949392919062001e9b565b600060405180830381600087803b1580156200145d57600080fd5b505af115801562001472573d6000803e3d6000fd5b505050507fccf5b6711d5e94ab5777fc6d6433dd42a321a6eb9d5985c508ef32c069c62d0a818b8b604051620014ab9392919062001dd7565b60405180910390a19998505050505050505050565b6000918252602082815260408084206001600160a01b0393909316845291905290205460ff1690565b620014f433620007f3565b620015135760405162461bcd60e51b8152600401620006589062001f8e565b806001600160a01b0381166200153d5760405162461bcd60e51b8152600401620006589062001f62565b6003546001600160a01b03838116911614156200156e5760405162461bcd60e51b8152600401620006589062001f3e565b50600380546001600160a01b0319166001600160a01b0392909216919091179055565b6200159c33620007f3565b620015bb5760405162461bcd60e51b8152600401620006589062001f8e565b836001600160a01b038116620015e55760405162461bcd60e51b8152600401620006589062001f62565b604051634a5df50f60e01b81526001600160a01b03861690634a5df50f9062000b469087908790879060040162001e35565b60008281526020819052604090206001015462001635813362001641565b6200083a838362001738565b6200164d8282620014c0565b620009d65762001668816001600160a01b03166014620017a0565b62001675836020620017a0565b6040516020016200168892919062001d2d565b60408051601f198184030181529082905262461bcd60e51b8252620006589160040162001f29565b620016bc8282620014c0565b620009d6576000828152602081815260408083206001600160a01b03851684529091529020805460ff19166001179055620016f43390565b6001600160a01b0316816001600160a01b0316837f2f8788117e7eff1d82e926ec794901d17c78024a50270940304540a733656f0d60405160405180910390a45050565b620017448282620014c0565b15620009d6576000828152602081815260408083206001600160a01b0385168085529252808320805460ff1916905551339285917ff6391f5c32d9c69d2a47ea670b442974b53935d1edc7fd64eb21e047a839171b9190a45050565b60606000620017b18360026200200f565b620017be90600262001ff4565b67ffffffffffffffff811115620017e557634e487b7160e01b600052604160045260246000fd5b6040519080825280601f01601f19166020018201604052801562001810576020820181803683370190505b509050600360fc1b816000815181106200183a57634e487b7160e01b600052603260045260246000fd5b60200101906001600160f81b031916908160001a905350600f60fb1b816001815181106200187857634e487b7160e01b600052603260045260246000fd5b60200101906001600160f81b031916908160001a90535060006200189e8460026200200f565b620018ab90600162001ff4565b90505b600181111562001945576f181899199a1a9b1b9c1cb0b131b232b360811b85600f1660108110620018ef57634e487b7160e01b600052603260045260246000fd5b1a60f81b8282815181106200191457634e487b7160e01b600052603260045260246000fd5b60200101906001600160f81b031916908160001a90535060049490941c936200193d816200207e565b9050620018ae565b508315620019965760405162461bcd60e51b815260206004820181905260248201527f537472696e67733a20686578206c656e67746820696e73756666696369656e74604482015260640162000658565b9392505050565b612426806200210a83390190565b828054620019b99062002098565b90600052602060002090601f016020900481019282620019dd576000855562001a28565b82601f10620019f857805160ff191683800117855562001a28565b8280016001018555821562001a28579182015b8281111562001a2857825182559160200191906001019062001a0b565b5062001a3692915062001a3a565b5090565b5b8082111562001a36576000815560010162001a3b565b80356001600160a01b038116811462001a6957600080fd5b919050565b80356001600160e01b03198116811462001a6957600080fd5b803561ffff8116811462001a6957600080fd5b60006020828403121562001aac578081fd5b620019968262001a51565b6000806000806080858703121562001acd578283fd5b62001ad88562001a51565b935062001ae86020860162001a51565b9250604085013591506060850135801515811462001b04578182fd5b939692955090935050565b6000806000806060858703121562001b25578384fd5b62001b308562001a51565b9350602085013567ffffffffffffffff8082111562001b4d578485fd5b818701915087601f83011262001b61578485fd5b81358181111562001b70578586fd5b8860208260051b850101111562001b85578586fd5b60208301955080945050505062001b9f6040860162001a51565b905092959194509250565b60008060006080848603121562001bbf578283fd5b604084018581111562001bd0578384fd5b84935062001bde8162001a87565b92505062001bef6060850162001a87565b90509250925092565b60006020828403121562001c0a578081fd5b5035919050565b6000806040838503121562001c24578182fd5b8235915062001c366020840162001a51565b90509250929050565b60006020828403121562001c51578081fd5b620019968262001a6e565b60008060006040848603121562001c71578283fd5b833567ffffffffffffffff8082111562001c89578485fd5b818601915086601f83011262001c9d578485fd5b81358181111562001cac578586fd5b87602082850101111562001cbe578586fd5b60209283019550935062001bef918601905062001a51565b6000815180845262001cf08160208601602086016200204b565b601f01601f19169290920160200192915050565b81835281816020850137506000828201602090810191909152601f909101601f19169091010190565b76020b1b1b2b9b9a1b7b73a3937b61d1030b1b1b7bab73a1604d1b81526000835162001d618160178501602088016200204b565b7001034b99036b4b9b9b4b733903937b6329607d1b601791840191820152835162001d948160288401602088016200204b565b01602801949350505050565b6001600160a01b0391909116815260200190565b6001600160a01b0393909316835260208301919091521515604082015260600190565b6001600160a01b038416815260406020820181905260009062001dfe908301848662001d04565b95945050505050565b6001600160a01b038316815260406020820181905260009062001e2d9083018462001cd6565b949350505050565b6040808252810183905260008460608301825b8681101562001e7b576001600160e01b031962001e658462001a6e565b1682526020928301929091019060010162001e48565b506001600160a01b03949094166020939093019290925250909392505050565b84815283602082015260018060a01b038316604082015260806060820152600062001eca608083018462001cd6565b9695505050505050565b60c08152600062001eea60c08301898b62001d04565b6001600160a01b03978816602084015295871660408301525092909416606083015261ffff908116608083015290921660a09092019190915292915050565b60208152600062001996602083018462001cd6565b6020808252600a908201526973616d6520616464727360b01b604082015260600190565b6020808252601290820152715661756c74466163746f72793a207a65726f60701b604082015260600190565b60208082526022908201527f41636365737369626c653a2043616c6c6572206973206e6f7420616e2061646d60408201526134b760f11b606082015260800190565b6020808252600a90820152697a65726f2076616c756560b01b604082015260600190565b600082198211156200200a576200200a620020f3565b500190565b60008160001904831182151516156200202c576200202c620020f3565b500290565b600082821015620020465762002046620020f3565b500390565b60005b83811015620020685781810151838201526020016200204e565b8381111562002078576000848401525b50505050565b600081620020905762002090620020f3565b506000190190565b600181811c90821680620020ad57607f821691505b60208210811415620020cf57634e487b7160e01b600052602260045260246000fd5b50919050565b6000600019821415620020ec57620020ec620020f3565b5060010190565b634e487b7160e01b600052601160045260246000fdfe608060405260006006553480156200001657600080fd5b50620000437f52eafc11f6f81f86878bffd31109a0d92f37506527754f00788853ff9f63b1308062000082565b6200006f7f52eafc11f6f81f86878bffd31109a0d92f37506527754f00788853ff9f63b13033620000cd565b6200007c600033620000cd565b62000181565b6000828152600f6020526040808220600101805490849055905190918391839186917fbd79b86ffe0ab8e8776151514217cd7cacd52c909f66475c3af44e129f0b00ff9190a4505050565b620000d98282620000dd565b5050565b6000828152600f602090815260408083206001600160a01b038516845290915290205460ff16620000d9576000828152600f602090815260408083206001600160a01b03851684529091529020805460ff191660011790556200013d3390565b6001600160a01b0316816001600160a01b0316837f2f8788117e7eff1d82e926ec794901d17c78024a50270940304540a733656f0d60405160405180910390a45050565b61229580620001916000396000f3fe6080604052600436106102575760003560e01c80636befec3f1161013a578063a217fddf116100b1578063a217fddf1461077b578063b911135f14610790578063b914432d146107c6578063be72f2d3146107e6578063cc04fbd0146107fb578063cfc412be1461081d578063d547741f14610833578063eab73ca114610853578063ed5131f514610878578063f47f2f1d14610898578063fab878a4146108b8578063fc0c546a146108d8576102a0565b80636befec3f146105f1578063704802751461061157806375829def146106315780637cb00d25146106515780637cd5f663146106715780638356ca4f1461069157806385de26f9146106b15780638b8f4a65146106e65780638d4fdb401461070657806391d148541461072657806396f1557c146107465780639a202d4714610766576102a0565b806336568abe116101ce57806336568abe1461044b5780633659cfe61461046b57806336d956ea1461048b57806341c04d5e146104ac5780634a5df50f146104ce57806350d2a276146104ee578063550d01a31461053c578063556400081461056c5780635c60da1b146105825780635cc797d81461059757806363a8fd89146105b75780636545eb1c146105d1576102a0565b806301ffc9a7146102aa57806306fdde03146102df5780630a59fa08146103015780630f4388c01461031b578063117ab87414610349578063170e2fee1461035f57806321cf43701461037f578063248a9ca3146103a057806324d7806c146103d0578063256019d6146103f05780632f2ff15d1461040657806334b38cc314610426576102a0565b366102a05760405162461bcd60e51b815260206004820152601460248201527331b0b73737ba103932b1b2b4bb329022ba3432b960611b60448201526064015b60405180910390fd5b6102a86108f8565b005b3480156102b657600080fd5b506102ca6102c5366004611e18565b6109a1565b60405190151581526020015b60405180910390f35b3480156102eb57600080fd5b506102f46109d8565b6040516102d69190611fe7565b34801561030d57600080fd5b50600e546102ca9060ff1681565b34801561032757600080fd5b5061033b610336366004611dde565b610a66565b6040519081526020016102d6565b34801561035557600080fd5b5061033b60065481565b34801561036b57600080fd5b506102a861037a366004611ce1565b610a87565b34801561038b57600080fd5b506002546102ca90600160a01b900460ff1681565b3480156103ac57600080fd5b5061033b6103bb366004611dde565b6000908152600f602052604090206001015490565b3480156103dc57600080fd5b506102ca6103eb366004611cc7565b610b60565b3480156103fc57600080fd5b5061033b60055481565b34801561041257600080fd5b506102a8610421366004611df6565b610b7a565b34801561043257600080fd5b5061043b610ba0565b6040516102d69493929190612106565b34801561045757600080fd5b506102a8610466366004611df6565b610c63565b34801561047757600080fd5b506102a8610486366004611cc7565b610cdd565b34801561049757600080fd5b506002546102ca90600160a81b900460ff1681565b3480156104b857600080fd5b5061033b60008051602061224083398151915281565b3480156104da57600080fd5b506102a86104e9366004611d4e565b610de3565b3480156104fa57600080fd5b50610524610509366004611e18565b600d602052600090815260409020546001600160a01b031681565b6040516001600160a01b0390911681526020016102d6565b34801561054857600080fd5b506102ca610557366004611cc7565b600c6020526000908152604090205460ff1681565b34801561057857600080fd5b5061033b60045481565b34801561058e57600080fd5b5061052461106b565b3480156105a357600080fd5b506102a86105b2366004611ce1565b61107c565b3480156105c357600080fd5b50600a546102ca9060ff1681565b3480156105dd57600080fd5b50600154610524906001600160a01b031681565b3480156105fd57600080fd5b506102a861060c366004611dc4565b6110ab565b34801561061d57600080fd5b506102a861062c366004611cc7565b611183565b34801561063d57600080fd5b506102a861064c366004611cc7565b6111c3565b34801561065d57600080fd5b506102a861066c366004611dc4565b611276565b34801561067d57600080fd5b506102a861068c366004611d13565b6112bd565b34801561069d57600080fd5b506102a86106ac366004611cc7565b6112ed565b3480156106bd57600080fd5b506002546106d390600160c01b900461ffff1681565b60405161ffff90911681526020016102d6565b3480156106f257600080fd5b50610524610701366004611dde565b611377565b34801561071257600080fd5b50610524610721366004611e18565b611382565b34801561073257600080fd5b506102ca610741366004611df6565b61147e565b34801561075257600080fd5b506102a8610761366004611cc7565b6114a9565b34801561077257600080fd5b506102a86114d9565b34801561078757600080fd5b5061033b600081565b34801561079c57600080fd5b506105246107ab366004611dde565b600b602052600090815260409020546001600160a01b031681565b3480156107d257600080fd5b506102a86107e1366004611e40565b611527565b3480156107f257600080fd5b506102a8611745565b34801561080757600080fd5b506002546106d390600160b01b900461ffff1681565b34801561082957600080fd5b5061033b60075481565b34801561083f57600080fd5b506102a861084e366004611df6565b611775565b34801561085f57600080fd5b50600e546105249061010090046001600160a01b031681565b34801561088457600080fd5b5061033b610893366004611dde565b61179b565b3480156108a457600080fd5b506102ca6108b3366004611cc7565b6117ab565b3480156108c457600080fd5b50600254610524906001600160a01b031681565b3480156108e457600080fd5b50600054610524906001600160a01b031681565b600061090f6000356001600160e01b031916611382565b90506001600160a01b0381161580159061092c5750600a5460ff16155b6109785760405162461bcd60e51b815260206004820152601d60248201527f50726f78793a20696d706c204f522070726f78792069732066616c73650000006044820152606401610297565b3660008037600080366000845af43d6000803e808015610997573d6000f35b3d6000fd5b505050565b60006001600160e01b03198216637965db0b60e01b14806109d257506301ffc9a760e01b6001600160e01b03198316145b92915050565b600380546109e5906121bd565b80601f0160208091040260200160405190810160405280929190818152602001828054610a11906121bd565b8015610a5e5780601f10610a3357610100808354040283529160200191610a5e565b820191906000526020600020905b815481529060010190602001808311610a4157829003601f168201915b505050505081565b60098181548110610a7657600080fd5b600091825260209091200154905081565b610a90336117ab565b610aac5760405162461bcd60e51b81526004016102979061208e565b600e546001600160a01b038381166101009092041614801590610ad757506001600160a01b03821615155b610b185760405162461bcd60e51b815260206004820152601260248201527173616d652076616c7565206f72207a65726f60701b6044820152606401610297565b600e80546001600160a01b03841661010002610100600160a81b03198216811790925560ff918216911617151581151514610b5c57600e805460ff19168215151790555b5050565b60006109d26000805160206122408339815191528361147e565b6000828152600f6020526040902060010154610b9681336117b7565b61099c838361181b565b600060608060006005546008600960065482805480602002602001604051908101604052809291908181526020018280548015610bfc57602002820191906000526020600020905b815481526020019060010190808311610be8575b5050505050925081805480602002602001604051908101604052809291908181526020018280548015610c4e57602002820191906000526020600020905b815481526020019060010190808311610c3a575b50505050509150935093509350935090919293565b6001600160a01b0381163314610cd35760405162461bcd60e51b815260206004820152602f60248201527f416363657373436f6e74726f6c3a2063616e206f6e6c792072656e6f756e636560448201526e103937b632b9903337b91039b2b63360891b6064820152608401610297565b610b5c82826118a1565b610ce6336117ab565b610d025760405162461bcd60e51b81526004016102979061208e565b6001600160a01b038116610d485760405162461bcd60e51b815260206004820152600d60248201526c696e707574206973207a65726f60981b6044820152606401610297565b806001600160a01b0316610d5c6000611908565b6001600160a01b03161415610d9f5760405162461bcd60e51b815260206004820152600960248201526839b0b6b29030b2323960b91b6044820152606401610297565b610dac8160006001611923565b6040516001600160a01b038216907fbc7cd75a20ee27fd9adebab32041f755214dbc6bffa90cc0225b39da2e5c2d3b90600090a250565b610dec336117ab565b610e085760405162461bcd60e51b81526004016102979061208e565b81610e555760405162461bcd60e51b815260206004820181905260248201527f50726f78793a205f73656c6563746f727327732073697a65206973207a65726f6044820152606401610297565b6001600160a01b0381166000908152600c602052604090205460ff16610eb85760405162461bcd60e51b815260206004820152601860248201527750726f78793a205f696d70206973206e6f7420616c69766560401b6044820152606401610297565b60005b8281101561106557816001600160a01b0316600d6000868685818110610ef157634e487b7160e01b600052603260045260246000fd5b9050602002016020810190610f069190611e18565b6001600160e01b03191681526020810191909152604001600020546001600160a01b03161415610f785760405162461bcd60e51b815260206004820152601d60248201527f4c69717569646974795661756c7450726f78793a2073616d6520696d700000006044820152606401610297565b81600d6000868685818110610f9d57634e487b7160e01b600052603260045260246000fd5b9050602002016020810190610fb29190611e18565b6001600160e01b0319168152602081019190915260400160002080546001600160a01b0319166001600160a01b03928316179055821684848381811061100857634e487b7160e01b600052603260045260246000fd5b905060200201602081019061101d9190611e18565b6001600160e01b0319167f14ebc1c32aa68f4d766e89f3e546cee249f7df25183fc10ab1568d91c2ce9b7b60405160405180910390a38061105d816121f8565b915050610ebb565b50505050565b60006110776000611908565b905090565b611085336117ab565b6110a15760405162461bcd60e51b81526004016102979061208e565b610b5c82826119a3565b6110b4336117ab565b6110d05760405162461bcd60e51b81526004016102979061208e565b600e5460ff16151581151514156111165760405162461bcd60e51b815260206004820152600a60248201526973616d652076616c756560b01b6044820152606401610297565b801561117057600e5461010090046001600160a01b03166111705760405162461bcd60e51b81526020600482015260146024820152737a65726f206c6f674576656e744164647265737360601b6044820152606401610297565b600e805460ff1916911515919091179055565b61118c336117ab565b6111a85760405162461bcd60e51b81526004016102979061208e565b6111c060008051602061224083398151915282610b7a565b50565b6111cc33610b60565b806111db57506111db336117ab565b6111f75760405162461bcd60e51b81526004016102979061201a565b6001600160a01b03811661121d5760405162461bcd60e51b81526004016102979061205c565b336001600160a01b03821614156112465760405162461bcd60e51b8152600401610297906120d6565b61125e60008051602061224083398151915282610b7a565b6111c060008051602061224083398151915233610c63565b61127f33610b60565b8061128e575061128e336117ab565b6112aa5760405162461bcd60e51b81526004016102979061201a565b600a805460ff1916911515919091179055565b6112c6336117ab565b6112e25760405162461bcd60e51b81526004016102979061208e565b61099c838383611923565b6112f6336117ab565b6113125760405162461bcd60e51b81526004016102979061208e565b6001600160a01b0381166113385760405162461bcd60e51b81526004016102979061205c565b336001600160a01b03821614156113615760405162461bcd60e51b8152600401610297906120d6565b61136c600082610b7a565b6111c0600033610c63565b60006109d282611908565b6001600160e01b031981166000908152600d60205260408120546001600160a01b03166113e257505060008052600b6020527fdf7de25b7f1fd6d0b5205f0e18f1f35bd7b8d84cce336588d184533ce43a6f76546001600160a01b031690565b6001600160e01b031982166000908152600d60209081526040808320546001600160a01b03168352600c90915290205460ff161561144057506001600160e01b0319166000908152600d60205260409020546001600160a01b031690565b505060008052600b6020527fdf7de25b7f1fd6d0b5205f0e18f1f35bd7b8d84cce336588d184533ce43a6f76546001600160a01b031690565b919050565b6000918252600f602090815260408084206001600160a01b0393909316845291905290205460ff1690565b6114b2336117ab565b6114ce5760405162461bcd60e51b81526004016102979061208e565b6111c0600082611a02565b6114e233610b60565b806114f157506114f1336117ab565b61150d5760405162461bcd60e51b81526004016102979061201a565b61152560008051602061224083398151915233610c63565b565b611530336117ab565b61154c5760405162461bcd60e51b81526004016102979061208e565b60038054611559906121bd565b1590506115965760405162461bcd60e51b815260206004820152600b60248201526a185b1c9958591e481cd95d60aa1b6044820152606401610297565b60008261ffff16116115e45760405162461bcd60e51b81526020600482015260176024820152767a65726f206d696e696d756d436c61696d436f756e747360481b6044820152606401610297565b60008161ffff16116116325760405162461bcd60e51b81526020600482015260176024820152761e995c9bc81b5a5b9a5b5d5b50db185a5b54195c9a5bd9604a1b6044820152606401610297565b6001600160a01b0385161580159061165257506001600160a01b03841615155b801561166657506001600160a01b03831615155b6116a15760405162461bcd60e51b815260206004820152600c60248201526b7a65726f206164647265737360a01b6044820152606401610297565b85516116b4906003906020890190611bf5565b50600080546001600160a01b038088166001600160a01b0319909216919091179091556002805461ffff848116600160c01b0261ffff60c01b19918716600160b01b02600163ffff000160a01b031990931694881694909417919091171691909117905561172184610b60565b61173d5761173d60008051602061224083398151915285611a02565b505050505050565b61174e336117ab565b61176a5760405162461bcd60e51b81526004016102979061208e565b611525600033610c63565b6000828152600f602052604090206001015461179181336117b7565b61099c83836118a1565b60088181548110610a7657600080fd5b60006109d2818361147e565b6117c1828261147e565b610b5c576117d9816001600160a01b03166014611a0c565b6117e4836020611a0c565b6040516020016117f5929190611f78565b60408051601f198184030181529082905262461bcd60e51b825261029791600401611fe7565b611825828261147e565b610b5c576000828152600f602090815260408083206001600160a01b03851684529091529020805460ff1916600117905561185d3390565b6001600160a01b0316816001600160a01b0316837f2f8788117e7eff1d82e926ec794901d17c78024a50270940304540a733656f0d60405160405180910390a45050565b6118ab828261147e565b15610b5c576000828152600f602090815260408083206001600160a01b0385168085529252808320805460ff1916905551339285917ff6391f5c32d9c69d2a47ea670b442974b53935d1edc7fd64eb21e047a839171b9190a45050565b6000908152600b60205260409020546001600160a01b031690565b823b61196f5760405162461bcd60e51b815260206004820152601b60248201527a50726f78793a206e6f7420636f6e7472616374206164647265737360281b6044820152606401610297565b801561199d576000828152600b6020526040902080546001600160a01b0319166001600160a01b0385161790555b61099c83825b6001600160a01b0382166000818152600c6020908152604091829020805460ff191685151590811790915591519182527f72558d9bfba4210f9ef095c782589484151f6d90f7a81bb3cb9b33efc695d324910160405180910390a25050565b610b5c828261181b565b60606000611a1b83600261215b565b611a26906002612143565b67ffffffffffffffff811115611a4c57634e487b7160e01b600052604160045260246000fd5b6040519080825280601f01601f191660200182016040528015611a76576020820181803683370190505b509050600360fc1b81600081518110611a9f57634e487b7160e01b600052603260045260246000fd5b60200101906001600160f81b031916908160001a905350600f60fb1b81600181518110611adc57634e487b7160e01b600052603260045260246000fd5b60200101906001600160f81b031916908160001a9053506000611b0084600261215b565b611b0b906001612143565b90505b6001811115611b9f576f181899199a1a9b1b9c1cb0b131b232b360811b85600f1660108110611b4d57634e487b7160e01b600052603260045260246000fd5b1a60f81b828281518110611b7157634e487b7160e01b600052603260045260246000fd5b60200101906001600160f81b031916908160001a90535060049490941c93611b98816121a6565b9050611b0e565b508315611bee5760405162461bcd60e51b815260206004820181905260248201527f537472696e67733a20686578206c656e67746820696e73756666696369656e746044820152606401610297565b9392505050565b828054611c01906121bd565b90600052602060002090601f016020900481019282611c235760008555611c69565b82601f10611c3c57805160ff1916838001178555611c69565b82800160010185558215611c69579182015b82811115611c69578251825591602001919060010190611c4e565b50611c75929150611c79565b5090565b5b80821115611c755760008155600101611c7a565b80356001600160a01b038116811461147957600080fd5b8035801515811461147957600080fd5b803561ffff8116811461147957600080fd5b600060208284031215611cd8578081fd5b611bee82611c8e565b60008060408385031215611cf3578081fd5b611cfc83611c8e565b9150611d0a60208401611ca5565b90509250929050565b600080600060608486031215611d27578081fd5b611d3084611c8e565b925060208401359150611d4560408501611ca5565b90509250925092565b600080600060408486031215611d62578283fd5b833567ffffffffffffffff80821115611d79578485fd5b818601915086601f830112611d8c578485fd5b813581811115611d9a578586fd5b8760208260051b8501011115611dae578586fd5b602092830195509350611d459186019050611c8e565b600060208284031215611dd5578081fd5b611bee82611ca5565b600060208284031215611def578081fd5b5035919050565b60008060408385031215611e08578182fd5b82359150611d0a60208401611c8e565b600060208284031215611e29578081fd5b81356001600160e01b031981168114611bee578182fd5b60008060008060008060c08789031215611e58578182fd5b863567ffffffffffffffff80821115611e6f578384fd5b818901915089601f830112611e82578384fd5b813581811115611e9457611e94612229565b604051601f8201601f19908116603f01168101908382118183101715611ebc57611ebc612229565b816040528281528c6020848701011115611ed4578687fd5b826020860160208301378660208483010152809a505050505050611efa60208801611c8e565b9450611f0860408801611c8e565b9350611f1660608801611c8e565b9250611f2460808801611cb5565b9150611f3260a08801611cb5565b90509295509295509295565b6000815180845260208085019450808401835b83811015611f6d57815187529582019590820190600101611f51565b509495945050505050565b76020b1b1b2b9b9a1b7b73a3937b61d1030b1b1b7bab73a1604d1b815260008351611faa81601785016020880161217a565b7001034b99036b4b9b9b4b733903937b6329607d1b6017918401918201528351611fdb81602884016020880161217a565b01602801949350505050565b602081526000825180602084015261200681604085016020870161217a565b601f01601f19169190910160400192915050565b60208082526022908201527f41636365737369626c653a2043616c6c6572206973206e6f7420616e2061646d60408201526134b760f11b606082015260800190565b60208082526018908201527741636365737369626c653a207a65726f206164647265737360401b604082015260600190565b60208082526028908201527f41636365737369626c653a2043616c6c6572206973206e6f7420616e2070726f6040820152673c3c9030b236b4b760c11b606082015260800190565b60208082526016908201527520b1b1b2b9b9b4b136329d1039b0b6b29030b236b4b760511b604082015260600190565b84815260806020820152600061211f6080830186611f3e565b82810360408401526121318186611f3e565b91505082606083015295945050505050565b6000821982111561215657612156612213565b500190565b600081600019048311821515161561217557612175612213565b500290565b60005b8381101561219557818101518382015260200161217d565b838111156110655750506000910152565b6000816121b5576121b5612213565b506000190190565b600181811c908216806121d157607f821691505b602082108114156121f257634e487b7160e01b600052602260045260246000fd5b50919050565b600060001982141561220c5761220c612213565b5060010190565b634e487b7160e01b600052601160045260246000fd5b634e487b7160e01b600052604160045260246000fdfe52eafc11f6f81f86878bffd31109a0d92f37506527754f00788853ff9f63b130a264697066735822122054d7cf4b600de4f7e64adae126cc5e9b57d2e52db293aa9886843057d1d1574d64736f6c63430008040033df8b4c520ffe197c5343c6f5aec59570151ef9a492f2c624fd45ddde6135ec42a26469706673582212205c0b5521a1f050868ebcd541b768dc3acfef3167caf5225fbb8560caad55bddd64736f6c63430008040033df8b4c520ffe197c5343c6f5aec59570151ef9a492f2c624fd45ddde6135ec42",
  "linkReferences": {},
  "deployedLinkReferences": {}
}