{
  "_format": "hh-sol-artifact-1",
  "contractName": "ReceivedFundVault",
  "sourceName": "contracts/ReceivedFundVault/ReceivedFundVault.sol",
  "abi": [
    {
      "inputs": [],
      "stateMutability": "nonpayable",
      "type": "constructor"
    },
    {
      "anonymous": false,
      "inputs": [
        {
          "indexed": false,
          "internalType": "address",
          "name": "caller",
          "type": "address"
        },
        {
          "indexed": false,
          "internalType": "address",
          "name": "to",
          "type": "address"
        },
        {
          "indexed": false,
          "internalType": "uint256",
          "name": "amount",
          "type": "uint256"
        }
      ],
      "name": "Claimed",
      "type": "event"
    },
    {
      "anonymous": false,
      "inputs": [
        {
          "indexed": false,
          "internalType": "address",
          "name": "from",
          "type": "address"
        },
        {
          "indexed": false,
          "internalType": "uint256",
          "name": "amount",
          "type": "uint256"
        }
      ],
      "name": "Funded",
      "type": "event"
    },
    {
      "anonymous": false,
      "inputs": [
        {
          "indexed": true,
          "internalType": "bytes32",
          "name": "role",
          "type": "bytes32"
        },
        {
          "indexed": true,
          "internalType": "bytes32",
          "name": "previousAdminRole",
          "type": "bytes32"
        },
        {
          "indexed": true,
          "internalType": "bytes32",
          "name": "newAdminRole",
          "type": "bytes32"
        }
      ],
      "name": "RoleAdminChanged",
      "type": "event"
    },
    {
      "anonymous": false,
      "inputs": [
        {
          "indexed": true,
          "internalType": "bytes32",
          "name": "role",
          "type": "bytes32"
        },
        {
          "indexed": true,
          "internalType": "address",
          "name": "account",
          "type": "address"
        },
        {
          "indexed": true,
          "internalType": "address",
          "name": "sender",
          "type": "address"
        }
      ],
      "name": "RoleGranted",
      "type": "event"
    },
    {
      "anonymous": false,
      "inputs": [
        {
          "indexed": true,
          "internalType": "bytes32",
          "name": "role",
          "type": "bytes32"
        },
        {
          "indexed": true,
          "internalType": "address",
          "name": "account",
          "type": "address"
        },
        {
          "indexed": true,
          "internalType": "address",
          "name": "sender",
          "type": "address"
        }
      ],
      "name": "RoleRevoked",
      "type": "event"
    },
    {
      "inputs": [],
      "name": "DEFAULT_ADMIN_ROLE",
      "outputs": [
        {
          "internalType": "bytes32",
          "name": "",
          "type": "bytes32"
        }
      ],
      "stateMutability": "view",
      "type": "function"
    },
    {
      "inputs": [],
      "name": "PROJECT_ADMIN_ROLE",
      "outputs": [
        {
          "internalType": "bytes32",
          "name": "",
          "type": "bytes32"
        }
      ],
      "stateMutability": "view",
      "type": "function"
    },
    {
      "inputs": [
        {
          "internalType": "address",
          "name": "account",
          "type": "address"
        }
      ],
      "name": "addAdmin",
      "outputs": [],
      "stateMutability": "nonpayable",
      "type": "function"
    },
    {
      "inputs": [
        {
          "internalType": "address",
          "name": "_owner",
          "type": "address"
        }
      ],
      "name": "addProxyAdmin",
      "outputs": [],
      "stateMutability": "nonpayable",
      "type": "function"
    },
    {
      "inputs": [
        {
          "internalType": "address",
          "name": "",
          "type": "address"
        }
      ],
      "name": "aliveImplementation",
      "outputs": [
        {
          "internalType": "bool",
          "name": "",
          "type": "bool"
        }
      ],
      "stateMutability": "view",
      "type": "function"
    },
    {
      "inputs": [],
      "name": "allClaimInfos",
      "outputs": [
        {
          "internalType": "uint256",
          "name": "",
          "type": "uint256"
        },
        {
          "internalType": "uint256[]",
          "name": "",
          "type": "uint256[]"
        },
        {
          "internalType": "uint256[]",
          "name": "",
          "type": "uint256[]"
        },
        {
          "internalType": "uint256",
          "name": "",
          "type": "uint256"
        }
      ],
      "stateMutability": "view",
      "type": "function"
    },
    {
      "inputs": [],
      "name": "boolLogEvent",
      "outputs": [
        {
          "internalType": "bool",
          "name": "",
          "type": "bool"
        }
      ],
      "stateMutability": "view",
      "type": "function"
    },
    {
      "inputs": [
        {
          "internalType": "uint256",
          "name": "_round",
          "type": "uint256"
        }
      ],
      "name": "calculClaimAmount",
      "outputs": [
        {
          "internalType": "uint256",
          "name": "amount",
          "type": "uint256"
        }
      ],
      "stateMutability": "view",
      "type": "function"
    },
    {
      "inputs": [
        {
          "internalType": "address",
          "name": "_token",
          "type": "address"
        },
        {
          "internalType": "address",
          "name": "_receivedAddress",
          "type": "address"
        },
        {
          "internalType": "address",
          "name": "_publicSaleVaultAddress",
          "type": "address"
        }
      ],
      "name": "changeAddr",
      "outputs": [],
      "stateMutability": "nonpayable",
      "type": "function"
    },
    {
      "inputs": [],
      "name": "claim",
      "outputs": [],
      "stateMutability": "nonpayable",
      "type": "function"
    },
    {
      "inputs": [
        {
          "internalType": "uint256",
          "name": "",
          "type": "uint256"
        }
      ],
      "name": "claimAmounts",
      "outputs": [
        {
          "internalType": "uint256",
          "name": "",
          "type": "uint256"
        }
      ],
      "stateMutability": "view",
      "type": "function"
    },
    {
      "inputs": [
        {
          "internalType": "uint256",
          "name": "",
          "type": "uint256"
        }
      ],
      "name": "claimTimes",
      "outputs": [
        {
          "internalType": "uint256",
          "name": "",
          "type": "uint256"
        }
      ],
      "stateMutability": "view",
      "type": "function"
    },
    {
      "inputs": [],
      "name": "currentRound",
      "outputs": [
        {
          "internalType": "uint256",
          "name": "round",
          "type": "uint256"
        }
      ],
      "stateMutability": "view",
      "type": "function"
    },
    {
      "inputs": [
        {
          "internalType": "uint256",
          "name": "amount",
          "type": "uint256"
        }
      ],
      "name": "funding",
      "outputs": [],
      "stateMutability": "nonpayable",
      "type": "function"
    },
    {
      "inputs": [
        {
          "internalType": "bytes32",
          "name": "role",
          "type": "bytes32"
        }
      ],
      "name": "getRoleAdmin",
      "outputs": [
        {
          "internalType": "bytes32",
          "name": "",
          "type": "bytes32"
        }
      ],
      "stateMutability": "view",
      "type": "function"
    },
    {
      "inputs": [
        {
          "internalType": "bytes32",
          "name": "role",
          "type": "bytes32"
        },
        {
          "internalType": "address",
          "name": "account",
          "type": "address"
        }
      ],
      "name": "grantRole",
      "outputs": [],
      "stateMutability": "nonpayable",
      "type": "function"
    },
    {
      "inputs": [
        {
          "internalType": "bytes32",
          "name": "role",
          "type": "bytes32"
        },
        {
          "internalType": "address",
          "name": "account",
          "type": "address"
        }
      ],
      "name": "hasRole",
      "outputs": [
        {
          "internalType": "bool",
          "name": "",
          "type": "bool"
        }
      ],
      "stateMutability": "view",
      "type": "function"
    },
    {
      "inputs": [
        {
          "internalType": "uint256",
          "name": "_claimCounts",
          "type": "uint256"
        },
        {
          "internalType": "uint256[]",
          "name": "_claimTimes",
          "type": "uint256[]"
        },
        {
          "internalType": "uint256[]",
          "name": "_claimAmounts",
          "type": "uint256[]"
        }
      ],
      "name": "initialize",
      "outputs": [],
      "stateMutability": "nonpayable",
      "type": "function"
    },
    {
      "inputs": [
        {
          "internalType": "address",
          "name": "account",
          "type": "address"
        }
      ],
      "name": "isAdmin",
      "outputs": [
        {
          "internalType": "bool",
          "name": "",
          "type": "bool"
        }
      ],
      "stateMutability": "view",
      "type": "function"
    },
    {
      "inputs": [
        {
          "internalType": "address",
          "name": "account",
          "type": "address"
        }
      ],
      "name": "isProxyAdmin",
      "outputs": [
        {
          "internalType": "bool",
          "name": "",
          "type": "bool"
        }
      ],
      "stateMutability": "view",
      "type": "function"
    },
    {
      "inputs": [],
      "name": "logEventAddress",
      "outputs": [
        {
          "internalType": "address",
          "name": "",
          "type": "address"
        }
      ],
      "stateMutability": "view",
      "type": "function"
    },
    {
      "inputs": [],
      "name": "minimumClaimCounts",
      "outputs": [
        {
          "internalType": "uint16",
          "name": "",
          "type": "uint16"
        }
      ],
      "stateMutability": "view",
      "type": "function"
    },
    {
      "inputs": [],
      "name": "name",
      "outputs": [
        {
          "internalType": "string",
          "name": "",
          "type": "string"
        }
      ],
      "stateMutability": "view",
      "type": "function"
    },
    {
      "inputs": [],
      "name": "nowClaimRound",
      "outputs": [
        {
          "internalType": "uint256",
          "name": "",
          "type": "uint256"
        }
      ],
      "stateMutability": "view",
      "type": "function"
    },
    {
      "inputs": [
        {
          "internalType": "uint256",
          "name": "_claimCounts",
          "type": "uint256"
        },
        {
          "internalType": "uint256[]",
          "name": "_claimTimes",
          "type": "uint256[]"
        },
        {
          "internalType": "uint256[]",
          "name": "_claimAmounts",
          "type": "uint256[]"
        }
      ],
      "name": "ownerSetting",
      "outputs": [],
      "stateMutability": "nonpayable",
      "type": "function"
    },
    {
      "inputs": [],
      "name": "pauseProxy",
      "outputs": [
        {
          "internalType": "bool",
          "name": "",
          "type": "bool"
        }
      ],
      "stateMutability": "view",
      "type": "function"
    },
    {
      "inputs": [
        {
          "internalType": "uint256",
          "name": "",
          "type": "uint256"
        }
      ],
      "name": "proxyImplementation",
      "outputs": [
        {
          "internalType": "address",
          "name": "",
          "type": "address"
        }
      ],
      "stateMutability": "view",
      "type": "function"
    },
    {
      "inputs": [],
      "name": "publicSaleVaultAddress",
      "outputs": [
        {
          "internalType": "address",
          "name": "",
          "type": "address"
        }
      ],
      "stateMutability": "view",
      "type": "function"
    },
    {
      "inputs": [],
      "name": "receivedAddress",
      "outputs": [
        {
          "internalType": "address",
          "name": "",
          "type": "address"
        }
      ],
      "stateMutability": "view",
      "type": "function"
    },
    {
      "inputs": [],
      "name": "removeAdmin",
      "outputs": [],
      "stateMutability": "nonpayable",
      "type": "function"
    },
    {
      "inputs": [],
      "name": "removeProxyAdmin",
      "outputs": [],
      "stateMutability": "nonpayable",
      "type": "function"
    },
    {
      "inputs": [
        {
          "internalType": "bytes32",
          "name": "role",
          "type": "bytes32"
        },
        {
          "internalType": "address",
          "name": "account",
          "type": "address"
        }
      ],
      "name": "renounceRole",
      "outputs": [],
      "stateMutability": "nonpayable",
      "type": "function"
    },
    {
      "inputs": [
        {
          "internalType": "bytes32",
          "name": "role",
          "type": "bytes32"
        },
        {
          "internalType": "address",
          "name": "account",
          "type": "address"
        }
      ],
      "name": "revokeRole",
      "outputs": [],
      "stateMutability": "nonpayable",
      "type": "function"
    },
    {
      "inputs": [
        {
          "internalType": "bytes4",
          "name": "",
          "type": "bytes4"
        }
      ],
      "name": "selectorImplementation",
      "outputs": [
        {
          "internalType": "address",
          "name": "",
          "type": "address"
        }
      ],
      "stateMutability": "view",
      "type": "function"
    },
    {
      "inputs": [
        {
          "internalType": "uint16",
          "name": "_count",
          "type": "uint16"
        }
      ],
      "name": "setMinimumClaimCounts",
      "outputs": [],
      "stateMutability": "nonpayable",
      "type": "function"
    },
    {
      "inputs": [
        {
          "internalType": "bool",
          "name": "_pause",
          "type": "bool"
        }
      ],
      "name": "setVestingPause",
      "outputs": [],
      "stateMutability": "nonpayable",
      "type": "function"
    },
    {
      "inputs": [],
      "name": "settingCheck",
      "outputs": [
        {
          "internalType": "bool",
          "name": "",
          "type": "bool"
        }
      ],
      "stateMutability": "view",
      "type": "function"
    },
    {
      "inputs": [
        {
          "internalType": "bytes4",
          "name": "interfaceId",
          "type": "bytes4"
        }
      ],
      "name": "supportsInterface",
      "outputs": [
        {
          "internalType": "bool",
          "name": "",
          "type": "bool"
        }
      ],
      "stateMutability": "view",
      "type": "function"
    },
    {
      "inputs": [],
      "name": "token",
      "outputs": [
        {
          "internalType": "address",
          "name": "",
          "type": "address"
        }
      ],
      "stateMutability": "view",
      "type": "function"
    },
    {
      "inputs": [],
      "name": "totalAllocatedAmount",
      "outputs": [
        {
          "internalType": "uint256",
          "name": "",
          "type": "uint256"
        }
      ],
      "stateMutability": "view",
      "type": "function"
    },
    {
      "inputs": [],
      "name": "totalClaimCounts",
      "outputs": [
        {
          "internalType": "uint256",
          "name": "",
          "type": "uint256"
        }
      ],
      "stateMutability": "view",
      "type": "function"
    },
    {
      "inputs": [],
      "name": "totalClaimsAmount",
      "outputs": [
        {
          "internalType": "uint256",
          "name": "",
          "type": "uint256"
        }
      ],
      "stateMutability": "view",
      "type": "function"
    },
    {
      "inputs": [
        {
          "internalType": "address",
          "name": "newAdmin",
          "type": "address"
        }
      ],
      "name": "transferAdmin",
      "outputs": [],
      "stateMutability": "nonpayable",
      "type": "function"
    },
    {
      "inputs": [
        {
          "internalType": "address",
          "name": "newAdmin",
          "type": "address"
        }
      ],
      "name": "transferProxyAdmin",
      "outputs": [],
      "stateMutability": "nonpayable",
      "type": "function"
    },
    {
      "inputs": [],
      "name": "vestingPause",
      "outputs": [
        {
          "internalType": "bool",
          "name": "",
          "type": "bool"
        }
      ],
      "stateMutability": "view",
      "type": "function"
    }
  ],
  "bytecode": "0x6080604052600060065534801561001557600080fd5b50612661806100256000396000f3fe608060405234801561001057600080fd5b506004361061023f5760003560e01c8063704802751161013c578063a217fddf116100be578063a217fddf146104df578063a4de9179146104e7578063b911135f146104fa578063be72f2d314610523578063cc04fbd01461052b578063cfc412be14610553578063d547741f1461055c578063eab73ca11461056f578063ed5131f514610587578063f47f2f1d1461059a578063fab878a4146105ad578063fc0c546a146105c057600080fd5b8063704802751461042457806375829def146104375780638356ca4f1461044a5780638953acb71461045d5780638a19c8bc1461047057806391d1485414610478578063923ab01c1461048b57806392ca60c11461049e57806396f1557c146104b15780639a202d47146104c45780639e045901146104cc57600080fd5b806336568abe116101c557806336568abe14610338578063369c272a1461034b57806336d956ea1461035e57806341c04d5e146103725780634e71d92d1461038757806350d2a2761461038f578063550d01a3146103c557806355640008146103e857806363a8fd89146103f15780636545eb1c146103fe5780636a7184681461041157600080fd5b806301ffc9a71461024457806306fdde031461026c5780630a59fa08146102815780630f4388c01461028e578063117ab874146102af57806321cf4370146102b8578063248a9ca3146102cc57806324d7806c146102ef578063256019d6146103025780632f2ff15d1461030b57806334b38cc314610320575b600080fd5b610257610252366004612179565b6105d3565b60405190151581526020015b60405180910390f35b61027461060a565b6040516102639190612341565b600e546102579060ff1681565b6102a161029c366004612136565b610698565b604051908152602001610263565b6102a160065481565b60025461025790600160a01b900460ff1681565b6102a16102da366004612136565b6000908152600f602052604090206001015490565b6102576102fd3660046120a2565b6106b9565b6102a160055481565b61031e61031936600461214e565b6106d3565b005b6103286106fe565b604051610263949392919061248d565b61031e61034636600461214e565b6107c1565b61031e6103593660046121db565b610844565b60025461025790600160a81b900460ff1681565b6102a160008051602061260c83398151915281565b61031e6108d1565b6103b861039d366004612179565b600d602052600090815260409020546001600160a01b031681565b6040516102639190612309565b6102576103d33660046120a2565b600c6020526000908152604090205460ff1681565b6102a160045481565b600a546102579060ff1681565b6001546103b8906001600160a01b031681565b61031e61041f3660046120bc565b610bca565b61031e6104323660046120a2565b610ca6565b61031e6104453660046120a2565b610ce6565b61031e6104583660046120a2565b610d99565b61031e61046b3660046121db565b610e23565b6102a1610ec7565b61025761048636600461214e565b610fad565b61031e6104993660046120fe565b610fd8565b61031e6104ac366004612136565b611079565b61031e6104bf3660046120a2565b611218565b61031e611248565b61031e6104da3660046121a1565b611296565b6102a1600081565b6102a16104f5366004612136565b61136c565b6103b8610508366004612136565b600b602052600090815260409020546001600160a01b031681565b61031e611419565b60025461054090600160b01b900461ffff1681565b60405161ffff9091168152602001610263565b6102a160075481565b61031e61056a36600461214e565b611449565b600e546103b89061010090046001600160a01b031681565b6102a1610595366004612136565b61146f565b6102576105a83660046120a2565b61147f565b6002546103b8906001600160a01b031681565b6000546103b8906001600160a01b031681565b60006001600160e01b03198216637965db0b60e01b148061060457506301ffc9a760e01b6001600160e01b03198316145b92915050565b600380546106179061257b565b80601f01602080910402602001604051908101604052809291908181526020018280546106439061257b565b80156106905780601f1061066557610100808354040283529160200191610690565b820191906000526020600020905b81548152906001019060200180831161067357829003601f168201915b505050505081565b600981815481106106a857600080fd5b600091825260209091200154905081565b600061060460008051602061260c83398151915283610fad565b6000828152600f60205260409020600101546106ef813361148b565b6106f983836114ef565b505050565b60006060806000600554600860096006548280548060200260200160405190810160405280929190818152602001828054801561075a57602002820191906000526020600020905b815481526020019060010190808311610746575b50505050509250818054806020026020016040519081016040528092919081815260200182805480156107ac57602002820191906000526020600020905b815481526020019060010190808311610798575b50505050509150935093509350935090919293565b6001600160a01b03811633146108365760405162461bcd60e51b815260206004820152602f60248201527f416363657373436f6e74726f6c3a2063616e206f6e6c792072656e6f756e636560448201526e103937b632b9903337b91039b2b63360891b60648201526084015b60405180910390fd5b6108408282611575565b5050565b61084d3361147f565b6108695760405162461bcd60e51b815260040161082d90612415565b600254600160a01b900460ff161515600114156108985761088c60086000611f78565b61089860096000611f78565b6108a38383836115dc565b600254600160a01b900460ff1615156001146106f9576002805460ff60a01b1916600160a01b179055505050565b600254600160a81b900460ff161561091f5760405162461bcd60e51b815260206004820152601160248201527015995cdd1a5b99c81a5cc81c185d5cd959607a1b604482015260640161082d565b6000600860008154811061094357634e487b7160e01b600052603260045260246000fd5b90600052602060002001541180156109865750600860008154811061097857634e487b7160e01b600052603260045260246000fd5b906000526020600020015442115b6109cb5760405162461bcd60e51b815260206004820152601660248201527515985d5b1d0e881b9bdd081cdd185c9d1959081e595d60521b604482015260640161082d565b60075460045411610a175760405162461bcd60e51b815260206004820152601660248201527515985d5b1d0e88185b1c9958591e48105b1b0819d95d60521b604482015260640161082d565b6000610a21610ec7565b90506000610a2e8261136c565b905060008111610a7c5760405162461bcd60e51b815260206004820152601960248201527831b630b4b6b0b136329030b6b7bab73a1034b9903d32b9379760391b604482015260640161082d565b6000546040516370a0823160e01b815282916001600160a01b0316906370a0823190610aac903090600401612309565b60206040518083038186803b158015610ac457600080fd5b505afa158015610ad8573d6000803e3d6000fd5b505050506040513d601f19601f82011682018060405250810190610afc91906121c3565b1015610b4a5760405162461bcd60e51b815260206004820152601f60248201527f5661756c743a2062616c616e636520697320696e73756666696369656e742e00604482015260640161082d565b6006829055600754610b5d9082906124ca565b600755600154600054610b7f916001600160a01b039182169130911684611ae4565b6001546040517ff7a40077ff7a04c7e61f6f26fb13774259ddf1b6bce9ecf26a8276cdd399268391610bbe9133916001600160a01b031690859061231d565b60405180910390a15050565b610bd33361147f565b610bef5760405162461bcd60e51b815260040161082d90612415565b826001600160a01b038116610c165760405162461bcd60e51b815260040161082d90612374565b826001600160a01b038116610c3d5760405162461bcd60e51b815260040161082d90612374565b826001600160a01b038116610c645760405162461bcd60e51b815260040161082d90612374565b5050600080546001600160a01b039586166001600160a01b03199182161790915560018054948616948216949094179093555060028054919093169116179055565b610caf3361147f565b610ccb5760405162461bcd60e51b815260040161082d90612415565b610ce360008051602061260c833981519152826106d3565b50565b610cef336106b9565b80610cfe5750610cfe3361147f565b610d1a5760405162461bcd60e51b815260040161082d906123a1565b6001600160a01b038116610d405760405162461bcd60e51b815260040161082d906123e3565b336001600160a01b0382161415610d695760405162461bcd60e51b815260040161082d9061245d565b610d8160008051602061260c833981519152826106d3565b610ce360008051602061260c833981519152336107c1565b610da23361147f565b610dbe5760405162461bcd60e51b815260040161082d90612415565b6001600160a01b038116610de45760405162461bcd60e51b815260040161082d906123e3565b336001600160a01b0382161415610e0d5760405162461bcd60e51b815260040161082d9061245d565b610e186000826106d3565b610ce36000336107c1565b610e2c336106b9565b80610e3b5750610e3b3361147f565b610e575760405162461bcd60e51b815260040161082d906123a1565b600254600160a01b900460ff16151560011415610ea45760405162461bcd60e51b815260206004820152600b60248201526a185b1c9958591e481cd95d60aa1b604482015260640161082d565b610eaf8383836115dc565b50506002805460ff60a01b1916600160a01b17905550565b60006008600081548110610eeb57634e487b7160e01b600052603260045260246000fd5b9060005260206000200154421015610f01575060005b60086001600554610f129190612521565b81548110610f3057634e487b7160e01b600052603260045260246000fd5b90600052602060002001544210610f4657506005545b60005b600554811015610f97574260088281548110610f7557634e487b7160e01b600052603260045260246000fd5b906000526020600020015411610f9757610f908160016124ca565b9150610f9b565b5090565b80610fa5816125b6565b915050610f49565b6000918252600f602090815260408084206001600160a01b0393909316845291905290205460ff1690565b610fe1336106b9565b80610ff05750610ff03361147f565b61100c5760405162461bcd60e51b815260040161082d906123a1565b60025460ff600160a81b909104161515811515141561105b5760405162461bcd60e51b815260206004820152600b60248201526a73616d65205f706175736560a81b604482015260640161082d565b60028054911515600160a81b0260ff60a81b19909216919091179055565b6002546001600160a01b031633146110d35760405162461bcd60e51b815260206004820152601e60248201527f63616c6c6572206973206e6f74207075626c696353616c655661756c742e0000604482015260640161082d565b600054600254604051636eb1769f60e11b81526001600160a01b0391821660048201523060248201528392919091169063dd62ed3e9060440160206040518083038186803b15801561112457600080fd5b505afa158015611138573d6000803e3d6000fd5b505050506040513d601f19601f8201168201806040525081019061115c91906121c3565b10156111a75760405162461bcd60e51b815260206004820152601a60248201527930b63637bbb0b731b29034b99034b739bab33334b1b4b2b73a1760311b604482015260640161082d565b80600460008282546111b991906124ca565b90915550506002546000546111dc916001600160a01b0391821691163084611ae4565b60408051338152602081018390527f5af8184bef8e4b45eb9f6ed7734d04da38ced226495548f46e0c8ff8d7d9a524910160405180910390a150565b6112213361147f565b61123d5760405162461bcd60e51b815260040161082d90612415565b610ce3600082611b3c565b611251336106b9565b8061126057506112603361147f565b61127c5760405162461bcd60e51b815260040161082d906123a1565b61129460008051602061260c833981519152336107c1565b565b61129f3361147f565b6112bb5760405162461bcd60e51b815260040161082d90612415565b60008161ffff16116112fd5760405162461bcd60e51b815260206004820152600b60248201526a1e995c9bc817d8dbdd5b9d60aa1b604482015260640161082d565b60025461ffff828116600160b01b90920416141561134a5760405162461bcd60e51b815260206004820152600a60248201526973616d652076616c756560b01b604482015260640161082d565b6002805461ffff909216600160b01b0261ffff60b01b19909216919091179055565b6000611376610ec7565b61138257506000919050565b60055415806113915750600454155b1561139e57506000919050565b8160055414156113b8576007546004546106049190612521565b600754606460096113ca600186612521565b815481106113e857634e487b7160e01b600052603260045260246000fd5b90600052602060002001546004546114009190612502565b61140a91906124e2565b6106049190612521565b919050565b6114223361147f565b61143e5760405162461bcd60e51b815260040161082d90612415565b6112946000336107c1565b6000828152600f6020526040902060010154611465813361148b565b6106f98383611575565b600881815481106106a857600080fd5b60006106048183610fad565b6114958282610fad565b610840576114ad816001600160a01b03166014611b46565b6114b8836020611b46565b6040516020016114c992919061229a565b60408051601f198184030181529082905262461bcd60e51b825261082d91600401612341565b6114f98282610fad565b610840576000828152600f602090815260408083206001600160a01b03851684529091529020805460ff191660011790556115313390565b6001600160a01b0316816001600160a01b0316837f2f8788117e7eff1d82e926ec794901d17c78024a50270940304540a733656f0d60405160405180910390a45050565b61157f8282610fad565b15610840576000828152600f602090815260408083206001600160a01b0385168085529252808320805460ff1916905551339285917ff6391f5c32d9c69d2a47ea670b442974b53935d1edc7fd64eb21e047a839171b9190a45050565b6000831180156115f95750600254600160b01b900461ffff168310155b6116615760405162461bcd60e51b815260206004820152603360248201527f636c61696d436f756e7473206d7573742062652067726561746572207468616e604482015272206d696e696d756d436c61696d436f756e747360681b606482015260840161082d565b8151831480156116715750805183145b6116cc5760405162461bcd60e51b815260206004820152602660248201527f77726f6e67205f636c61696d54696d65732f5f636c61696d416d6f756e7473206044820152650d8cadccee8d60d31b606482015260840161082d565b603260096000815481106116f057634e487b7160e01b600052603260045260246000fd5b90600052602060002001541061175e5760405162461bcd60e51b815260206004820152602d60248201527f63616e6e6f7420636c61696d206d6f7265207468616e2035302520696e20746860448201526c1948199a5c9cdd081c9bdd5b99609a1b606482015260840161082d565b600961176b600185612521565b8154811061178957634e487b7160e01b600052603260045260246000fd5b90600052602060002001546064146117dd5760405162461bcd60e51b815260206004820152601760248201527677726f6e67206c61737420636c61696d416d6f756e747360481b604482015260640161082d565b60015b838110156119405760086117f5600183612521565b8154811061181357634e487b7160e01b600052603260045260246000fd5b90600052602060002001546008828154811061183f57634e487b7160e01b600052603260045260246000fd5b90600052602060002001541161188a5760405162461bcd60e51b815260206004820152601060248201526f77726f6e6720636c61696d54696d657360801b604482015260640161082d565b6009611897600183612521565b815481106118b557634e487b7160e01b600052603260045260246000fd5b9060005260206000200154600982815481106118e157634e487b7160e01b600052603260045260246000fd5b90600052602060002001541161192e5760405162461bcd60e51b815260206004820152601260248201527177726f6e6720636c61696d416d6f756e747360701b604482015260640161082d565b80611938816125b6565b9150506117e0565b6005849055836001600160401b0381111561196b57634e487b7160e01b600052604160045260246000fd5b604051908082528060200260200182016040528015611994578160200160208202803683370190505b5080516119a991600891602090910190611f96565b50836001600160401b038111156119d057634e487b7160e01b600052604160045260246000fd5b6040519080825280602002602001820160405280156119f9578160200160208202803683370190505b508051611a0e91600991602090910190611f96565b50600090505b83811015611ade57828181518110611a3c57634e487b7160e01b600052603260045260246000fd5b602002602001015160088281548110611a6557634e487b7160e01b600052603260045260246000fd5b906000526020600020018190555060098181548110611a9457634e487b7160e01b600052603260045260246000fd5b906000526020600020015460098281548110611ac057634e487b7160e01b600052603260045260246000fd5b60009182526020909120015580611ad6816125b6565b915050611a14565b50505050565b611ade846323b872dd60e01b858585604051602401611b059392919061231d565b60408051601f198184030181529190526020810180516001600160e01b03166001600160e01b031990931692909217909152611d2e565b61084082826114ef565b60606000611b55836002612502565b611b609060026124ca565b6001600160401b03811115611b8557634e487b7160e01b600052604160045260246000fd5b6040519080825280601f01601f191660200182016040528015611baf576020820181803683370190505b509050600360fc1b81600081518110611bd857634e487b7160e01b600052603260045260246000fd5b60200101906001600160f81b031916908160001a905350600f60fb1b81600181518110611c1557634e487b7160e01b600052603260045260246000fd5b60200101906001600160f81b031916908160001a9053506000611c39846002612502565b611c449060016124ca565b90505b6001811115611cd8576f181899199a1a9b1b9c1cb0b131b232b360811b85600f1660108110611c8657634e487b7160e01b600052603260045260246000fd5b1a60f81b828281518110611caa57634e487b7160e01b600052603260045260246000fd5b60200101906001600160f81b031916908160001a90535060049490941c93611cd181612564565b9050611c47565b508315611d275760405162461bcd60e51b815260206004820181905260248201527f537472696e67733a20686578206c656e67746820696e73756666696369656e74604482015260640161082d565b9392505050565b6000611d83826040518060400160405280602081526020017f5361666545524332303a206c6f772d6c6576656c2063616c6c206661696c6564815250856001600160a01b0316611e009092919063ffffffff16565b8051909150156106f95780806020019051810190611da1919061211a565b6106f95760405162461bcd60e51b815260206004820152602a60248201527f5361666545524332303a204552433230206f7065726174696f6e20646964206e6044820152691bdd081cdd58d8d9595960b21b606482015260840161082d565b6060611e0f8484600085611e17565b949350505050565b606082471015611e785760405162461bcd60e51b815260206004820152602660248201527f416464726573733a20696e73756666696369656e742062616c616e636520666f6044820152651c8818d85b1b60d21b606482015260840161082d565b843b611ec65760405162461bcd60e51b815260206004820152601d60248201527f416464726573733a2063616c6c20746f206e6f6e2d636f6e7472616374000000604482015260640161082d565b600080866001600160a01b03168587604051611ee2919061227e565b60006040518083038185875af1925050503d8060008114611f1f576040519150601f19603f3d011682016040523d82523d6000602084013e611f24565b606091505b5091509150611f34828286611f3f565b979650505050505050565b60608315611f4e575081611d27565b825115611f5e5782518084602001fd5b8160405162461bcd60e51b815260040161082d9190612341565b5080546000825590600052602060002090810190610ce39190611fd9565b828054828255906000526020600020908101928215611fd1579160200282015b82811115611fd1578251825591602001919060010190611fb6565b50610f979291505b5b80821115610f975760008155600101611fda565b80356001600160a01b038116811461141457600080fd5b600082601f830112612015578081fd5b813560206001600160401b0380831115612031576120316125e7565b8260051b604051601f19603f83011681018181108482111715612056576120566125e7565b60405284815283810192508684018288018501891015612074578687fd5b8692505b85831015612096578035845292840192600192909201918401612078565b50979650505050505050565b6000602082840312156120b3578081fd5b611d2782611fee565b6000806000606084860312156120d0578182fd5b6120d984611fee565b92506120e760208501611fee565b91506120f560408501611fee565b90509250925092565b60006020828403121561210f578081fd5b8135611d27816125fd565b60006020828403121561212b578081fd5b8151611d27816125fd565b600060208284031215612147578081fd5b5035919050565b60008060408385031215612160578182fd5b8235915061217060208401611fee565b90509250929050565b60006020828403121561218a578081fd5b81356001600160e01b031981168114611d27578182fd5b6000602082840312156121b2578081fd5b813561ffff81168114611d27578182fd5b6000602082840312156121d4578081fd5b5051919050565b6000806000606084860312156121ef578283fd5b8335925060208401356001600160401b038082111561220c578384fd5b61221887838801612005565b9350604086013591508082111561222d578283fd5b5061223a86828701612005565b9150509250925092565b6000815180845260208085019450808401835b8381101561227357815187529582019590820190600101612257565b509495945050505050565b60008251612290818460208701612538565b9190910192915050565b76020b1b1b2b9b9a1b7b73a3937b61d1030b1b1b7bab73a1604d1b8152600083516122cc816017850160208801612538565b7001034b99036b4b9b9b4b733903937b6329607d1b60179184019182015283516122fd816028840160208801612538565b01602801949350505050565b6001600160a01b0391909116815260200190565b6001600160a01b039384168152919092166020820152604081019190915260600190565b6020815260008251806020840152612360816040850160208701612538565b601f01601f19169190910160400192915050565b6020808252601390820152725661756c743a207a65726f206164647265737360681b604082015260600190565b60208082526022908201527f41636365737369626c653a2043616c6c6572206973206e6f7420616e2061646d60408201526134b760f11b606082015260800190565b60208082526018908201527741636365737369626c653a207a65726f206164647265737360401b604082015260600190565b60208082526028908201527f41636365737369626c653a2043616c6c6572206973206e6f7420616e2070726f6040820152673c3c9030b236b4b760c11b606082015260800190565b60208082526016908201527520b1b1b2b9b9b4b136329d1039b0b6b29030b236b4b760511b604082015260600190565b8481526080602082015260006124a66080830186612244565b82810360408401526124b88186612244565b91505082606083015295945050505050565b600082198211156124dd576124dd6125d1565b500190565b6000826124fd57634e487b7160e01b81526012600452602481fd5b500490565b600081600019048311821515161561251c5761251c6125d1565b500290565b600082821015612533576125336125d1565b500390565b60005b8381101561255357818101518382015260200161253b565b83811115611ade5750506000910152565b600081612573576125736125d1565b506000190190565b600181811c9082168061258f57607f821691505b602082108114156125b057634e487b7160e01b600052602260045260246000fd5b50919050565b60006000198214156125ca576125ca6125d1565b5060010190565b634e487b7160e01b600052601160045260246000fd5b634e487b7160e01b600052604160045260246000fd5b8015158114610ce357600080fdfe52eafc11f6f81f86878bffd31109a0d92f37506527754f00788853ff9f63b130a2646970667358221220e27ef179200fe39bc841cc3b72f08eb6327f5aaf0f051fd4113d8f950854c6c364736f6c63430008040033",
  "linkReferences": {},
  "deployedLinkReferences": {}
}