{
  "_format": "hh-sol-artifact-1",
  "contractName": "ReceivedFundVault",
  "sourceName": "contracts/ReceivedFundVault/ReceivedFundVault.sol",
  "abi": [
    {
      "inputs": [],
      "stateMutability": "nonpayable",
      "type": "constructor"
    },
    {
      "anonymous": false,
      "inputs": [
        {
          "indexed": false,
          "internalType": "address",
          "name": "caller",
          "type": "address"
        },
        {
          "indexed": false,
          "internalType": "address",
          "name": "to",
          "type": "address"
        },
        {
          "indexed": false,
          "internalType": "uint256",
          "name": "amount",
          "type": "uint256"
        }
      ],
      "name": "Claimed",
      "type": "event"
    },
    {
      "anonymous": false,
      "inputs": [
        {
          "indexed": false,
          "internalType": "address",
          "name": "from",
          "type": "address"
        },
        {
          "indexed": false,
          "internalType": "uint256",
          "name": "amount",
          "type": "uint256"
        }
      ],
      "name": "Funded",
      "type": "event"
    },
    {
      "anonymous": false,
      "inputs": [
        {
          "indexed": false,
          "internalType": "uint256",
          "name": "_claimCounts",
          "type": "uint256"
        },
        {
          "indexed": false,
          "internalType": "uint256[]",
          "name": "_claimTimes",
          "type": "uint256[]"
        },
        {
          "indexed": false,
          "internalType": "uint256[]",
          "name": "_claimAmounts",
          "type": "uint256[]"
        }
      ],
      "name": "Initialized",
      "type": "event"
    },
    {
      "anonymous": false,
      "inputs": [
        {
          "indexed": true,
          "internalType": "bytes32",
          "name": "role",
          "type": "bytes32"
        },
        {
          "indexed": true,
          "internalType": "bytes32",
          "name": "previousAdminRole",
          "type": "bytes32"
        },
        {
          "indexed": true,
          "internalType": "bytes32",
          "name": "newAdminRole",
          "type": "bytes32"
        }
      ],
      "name": "RoleAdminChanged",
      "type": "event"
    },
    {
      "anonymous": false,
      "inputs": [
        {
          "indexed": true,
          "internalType": "bytes32",
          "name": "role",
          "type": "bytes32"
        },
        {
          "indexed": true,
          "internalType": "address",
          "name": "account",
          "type": "address"
        },
        {
          "indexed": true,
          "internalType": "address",
          "name": "sender",
          "type": "address"
        }
      ],
      "name": "RoleGranted",
      "type": "event"
    },
    {
      "anonymous": false,
      "inputs": [
        {
          "indexed": true,
          "internalType": "bytes32",
          "name": "role",
          "type": "bytes32"
        },
        {
          "indexed": true,
          "internalType": "address",
          "name": "account",
          "type": "address"
        },
        {
          "indexed": true,
          "internalType": "address",
          "name": "sender",
          "type": "address"
        }
      ],
      "name": "RoleRevoked",
      "type": "event"
    },
    {
      "anonymous": false,
      "inputs": [
        {
          "indexed": false,
          "internalType": "uint16",
          "name": "_count",
          "type": "uint16"
        }
      ],
      "name": "SetMinimumClaimCounts",
      "type": "event"
    },
    {
      "anonymous": false,
      "inputs": [
        {
          "indexed": false,
          "internalType": "uint16",
          "name": "_period",
          "type": "uint16"
        }
      ],
      "name": "SetMinimumClaimPeriod",
      "type": "event"
    },
    {
      "anonymous": false,
      "inputs": [
        {
          "indexed": false,
          "internalType": "bool",
          "name": "_pause",
          "type": "bool"
        }
      ],
      "name": "SetVestingPaused",
      "type": "event"
    },
    {
      "inputs": [],
      "name": "DEFAULT_ADMIN_ROLE",
      "outputs": [
        {
          "internalType": "bytes32",
          "name": "",
          "type": "bytes32"
        }
      ],
      "stateMutability": "view",
      "type": "function"
    },
    {
      "inputs": [],
      "name": "PROJECT_ADMIN_ROLE",
      "outputs": [
        {
          "internalType": "bytes32",
          "name": "",
          "type": "bytes32"
        }
      ],
      "stateMutability": "view",
      "type": "function"
    },
    {
      "inputs": [
        {
          "internalType": "address",
          "name": "account",
          "type": "address"
        }
      ],
      "name": "addAdmin",
      "outputs": [],
      "stateMutability": "nonpayable",
      "type": "function"
    },
    {
      "inputs": [
        {
          "internalType": "address",
          "name": "_owner",
          "type": "address"
        }
      ],
      "name": "addProxyAdmin",
      "outputs": [],
      "stateMutability": "nonpayable",
      "type": "function"
    },
    {
      "inputs": [
        {
          "internalType": "address",
          "name": "",
          "type": "address"
        }
      ],
      "name": "aliveImplementation",
      "outputs": [
        {
          "internalType": "bool",
          "name": "",
          "type": "bool"
        }
      ],
      "stateMutability": "view",
      "type": "function"
    },
    {
      "inputs": [],
      "name": "allClaimInfos",
      "outputs": [
        {
          "internalType": "uint256",
          "name": "",
          "type": "uint256"
        },
        {
          "internalType": "uint256[]",
          "name": "",
          "type": "uint256[]"
        },
        {
          "internalType": "uint256[]",
          "name": "",
          "type": "uint256[]"
        },
        {
          "internalType": "uint256",
          "name": "",
          "type": "uint256"
        }
      ],
      "stateMutability": "view",
      "type": "function"
    },
    {
      "inputs": [],
      "name": "boolLogEvent",
      "outputs": [
        {
          "internalType": "bool",
          "name": "",
          "type": "bool"
        }
      ],
      "stateMutability": "view",
      "type": "function"
    },
    {
      "inputs": [
        {
          "internalType": "uint256",
          "name": "_round",
          "type": "uint256"
        }
      ],
      "name": "calculClaimAmount",
      "outputs": [
        {
          "internalType": "uint256",
          "name": "amount",
          "type": "uint256"
        }
      ],
      "stateMutability": "view",
      "type": "function"
    },
    {
      "inputs": [
        {
          "internalType": "address",
          "name": "_token",
          "type": "address"
        },
        {
          "internalType": "address",
          "name": "_receivedAddress",
          "type": "address"
        },
        {
          "internalType": "address",
          "name": "_publicSaleVaultAddress",
          "type": "address"
        }
      ],
      "name": "changeAddr",
      "outputs": [],
      "stateMutability": "nonpayable",
      "type": "function"
    },
    {
      "inputs": [],
      "name": "claim",
      "outputs": [],
      "stateMutability": "nonpayable",
      "type": "function"
    },
    {
      "inputs": [
        {
          "internalType": "uint256",
          "name": "",
          "type": "uint256"
        }
      ],
      "name": "claimAmounts",
      "outputs": [
        {
          "internalType": "uint256",
          "name": "",
          "type": "uint256"
        }
      ],
      "stateMutability": "view",
      "type": "function"
    },
    {
      "inputs": [
        {
          "internalType": "uint256",
          "name": "",
          "type": "uint256"
        }
      ],
      "name": "claimTimes",
      "outputs": [
        {
          "internalType": "uint256",
          "name": "",
          "type": "uint256"
        }
      ],
      "stateMutability": "view",
      "type": "function"
    },
    {
      "inputs": [],
      "name": "currentRound",
      "outputs": [
        {
          "internalType": "uint256",
          "name": "round",
          "type": "uint256"
        }
      ],
      "stateMutability": "view",
      "type": "function"
    },
    {
      "inputs": [
        {
          "internalType": "uint256",
          "name": "amount",
          "type": "uint256"
        }
      ],
      "name": "funding",
      "outputs": [],
      "stateMutability": "nonpayable",
      "type": "function"
    },
    {
      "inputs": [
        {
          "internalType": "bytes32",
          "name": "role",
          "type": "bytes32"
        }
      ],
      "name": "getRoleAdmin",
      "outputs": [
        {
          "internalType": "bytes32",
          "name": "",
          "type": "bytes32"
        }
      ],
      "stateMutability": "view",
      "type": "function"
    },
    {
      "inputs": [
        {
          "internalType": "bytes32",
          "name": "role",
          "type": "bytes32"
        },
        {
          "internalType": "address",
          "name": "account",
          "type": "address"
        }
      ],
      "name": "grantRole",
      "outputs": [],
      "stateMutability": "nonpayable",
      "type": "function"
    },
    {
      "inputs": [
        {
          "internalType": "bytes32",
          "name": "role",
          "type": "bytes32"
        },
        {
          "internalType": "address",
          "name": "account",
          "type": "address"
        }
      ],
      "name": "hasRole",
      "outputs": [
        {
          "internalType": "bool",
          "name": "",
          "type": "bool"
        }
      ],
      "stateMutability": "view",
      "type": "function"
    },
    {
      "inputs": [
        {
          "internalType": "uint256",
          "name": "_claimCounts",
          "type": "uint256"
        },
        {
          "internalType": "uint256[]",
          "name": "_claimTimes",
          "type": "uint256[]"
        },
        {
          "internalType": "uint256[]",
          "name": "_claimAmounts",
          "type": "uint256[]"
        }
      ],
      "name": "initialize",
      "outputs": [],
      "stateMutability": "nonpayable",
      "type": "function"
    },
    {
      "inputs": [
        {
          "internalType": "address",
          "name": "account",
          "type": "address"
        }
      ],
      "name": "isAdmin",
      "outputs": [
        {
          "internalType": "bool",
          "name": "",
          "type": "bool"
        }
      ],
      "stateMutability": "view",
      "type": "function"
    },
    {
      "inputs": [
        {
          "internalType": "address",
          "name": "account",
          "type": "address"
        }
      ],
      "name": "isProxyAdmin",
      "outputs": [
        {
          "internalType": "bool",
          "name": "",
          "type": "bool"
        }
      ],
      "stateMutability": "view",
      "type": "function"
    },
    {
      "inputs": [],
      "name": "logEventAddress",
      "outputs": [
        {
          "internalType": "address",
          "name": "",
          "type": "address"
        }
      ],
      "stateMutability": "view",
      "type": "function"
    },
    {
      "inputs": [],
      "name": "minimumClaimCounts",
      "outputs": [
        {
          "internalType": "uint16",
          "name": "",
          "type": "uint16"
        }
      ],
      "stateMutability": "view",
      "type": "function"
    },
    {
      "inputs": [],
      "name": "minimumClaimPeriod",
      "outputs": [
        {
          "internalType": "uint16",
          "name": "",
          "type": "uint16"
        }
      ],
      "stateMutability": "view",
      "type": "function"
    },
    {
      "inputs": [],
      "name": "name",
      "outputs": [
        {
          "internalType": "string",
          "name": "",
          "type": "string"
        }
      ],
      "stateMutability": "view",
      "type": "function"
    },
    {
      "inputs": [],
      "name": "nowClaimRound",
      "outputs": [
        {
          "internalType": "uint256",
          "name": "",
          "type": "uint256"
        }
      ],
      "stateMutability": "view",
      "type": "function"
    },
    {
      "inputs": [
        {
          "internalType": "uint256",
          "name": "_claimCounts",
          "type": "uint256"
        },
        {
          "internalType": "uint256[]",
          "name": "_claimTimes",
          "type": "uint256[]"
        },
        {
          "internalType": "uint256[]",
          "name": "_claimAmounts",
          "type": "uint256[]"
        }
      ],
      "name": "ownerSetting",
      "outputs": [],
      "stateMutability": "nonpayable",
      "type": "function"
    },
    {
      "inputs": [],
      "name": "pauseProxy",
      "outputs": [
        {
          "internalType": "bool",
          "name": "",
          "type": "bool"
        }
      ],
      "stateMutability": "view",
      "type": "function"
    },
    {
      "inputs": [
        {
          "internalType": "uint256",
          "name": "",
          "type": "uint256"
        }
      ],
      "name": "proxyImplementation",
      "outputs": [
        {
          "internalType": "address",
          "name": "",
          "type": "address"
        }
      ],
      "stateMutability": "view",
      "type": "function"
    },
    {
      "inputs": [],
      "name": "publicSaleVaultAddress",
      "outputs": [
        {
          "internalType": "address",
          "name": "",
          "type": "address"
        }
      ],
      "stateMutability": "view",
      "type": "function"
    },
    {
      "inputs": [],
      "name": "receivedAddress",
      "outputs": [
        {
          "internalType": "address",
          "name": "",
          "type": "address"
        }
      ],
      "stateMutability": "view",
      "type": "function"
    },
    {
      "inputs": [],
      "name": "removeAdmin",
      "outputs": [],
      "stateMutability": "nonpayable",
      "type": "function"
    },
    {
      "inputs": [],
      "name": "removeProxyAdmin",
      "outputs": [],
      "stateMutability": "nonpayable",
      "type": "function"
    },
    {
      "inputs": [
        {
          "internalType": "bytes32",
          "name": "role",
          "type": "bytes32"
        },
        {
          "internalType": "address",
          "name": "account",
          "type": "address"
        }
      ],
      "name": "renounceRole",
      "outputs": [],
      "stateMutability": "nonpayable",
      "type": "function"
    },
    {
      "inputs": [
        {
          "internalType": "bytes32",
          "name": "role",
          "type": "bytes32"
        },
        {
          "internalType": "address",
          "name": "account",
          "type": "address"
        }
      ],
      "name": "revokeRole",
      "outputs": [],
      "stateMutability": "nonpayable",
      "type": "function"
    },
    {
      "inputs": [
        {
          "internalType": "bytes4",
          "name": "",
          "type": "bytes4"
        }
      ],
      "name": "selectorImplementation",
      "outputs": [
        {
          "internalType": "address",
          "name": "",
          "type": "address"
        }
      ],
      "stateMutability": "view",
      "type": "function"
    },
    {
      "inputs": [
        {
          "internalType": "uint16",
          "name": "_count",
          "type": "uint16"
        }
      ],
      "name": "setMinimumClaimCounts",
      "outputs": [],
      "stateMutability": "nonpayable",
      "type": "function"
    },
    {
      "inputs": [
        {
          "internalType": "uint16",
          "name": "_period",
          "type": "uint16"
        }
      ],
      "name": "setMinimumClaimPeriod",
      "outputs": [],
      "stateMutability": "nonpayable",
      "type": "function"
    },
    {
      "inputs": [
        {
          "internalType": "bool",
          "name": "_pause",
          "type": "bool"
        }
      ],
      "name": "setVestingPause",
      "outputs": [],
      "stateMutability": "nonpayable",
      "type": "function"
    },
    {
      "inputs": [],
      "name": "settingCheck",
      "outputs": [
        {
          "internalType": "bool",
          "name": "",
          "type": "bool"
        }
      ],
      "stateMutability": "view",
      "type": "function"
    },
    {
      "inputs": [
        {
          "internalType": "bytes4",
          "name": "interfaceId",
          "type": "bytes4"
        }
      ],
      "name": "supportsInterface",
      "outputs": [
        {
          "internalType": "bool",
          "name": "",
          "type": "bool"
        }
      ],
      "stateMutability": "view",
      "type": "function"
    },
    {
      "inputs": [],
      "name": "token",
      "outputs": [
        {
          "internalType": "address",
          "name": "",
          "type": "address"
        }
      ],
      "stateMutability": "view",
      "type": "function"
    },
    {
      "inputs": [],
      "name": "totalAllocatedAmount",
      "outputs": [
        {
          "internalType": "uint256",
          "name": "",
          "type": "uint256"
        }
      ],
      "stateMutability": "view",
      "type": "function"
    },
    {
      "inputs": [],
      "name": "totalClaimCounts",
      "outputs": [
        {
          "internalType": "uint256",
          "name": "",
          "type": "uint256"
        }
      ],
      "stateMutability": "view",
      "type": "function"
    },
    {
      "inputs": [],
      "name": "totalClaimsAmount",
      "outputs": [
        {
          "internalType": "uint256",
          "name": "",
          "type": "uint256"
        }
      ],
      "stateMutability": "view",
      "type": "function"
    },
    {
      "inputs": [
        {
          "internalType": "address",
          "name": "newAdmin",
          "type": "address"
        }
      ],
      "name": "transferAdmin",
      "outputs": [],
      "stateMutability": "nonpayable",
      "type": "function"
    },
    {
      "inputs": [
        {
          "internalType": "address",
          "name": "newAdmin",
          "type": "address"
        }
      ],
      "name": "transferProxyAdmin",
      "outputs": [],
      "stateMutability": "nonpayable",
      "type": "function"
    },
    {
      "inputs": [],
      "name": "vestingPause",
      "outputs": [
        {
          "internalType": "bool",
          "name": "",
          "type": "bool"
        }
      ],
      "stateMutability": "view",
      "type": "function"
    }
  ],
  "bytecode": "0x6080604052600060065534801561001557600080fd5b5061287f806100256000396000f3fe608060405234801561001057600080fd5b50600436106102555760003560e01c806375829def11610147578063a4de9179116100be578063a4de917914610525578063a93728a314610538578063b911135f1461054b578063be72f2d314610574578063cc04fbd01461057c578063cfc412be14610591578063d547741f1461059a578063eab73ca1146105ad578063ed5131f5146105c5578063f47f2f1d146105d8578063fab878a4146105eb578063fc0c546a146105fe57600080fd5b806375829def1461044d5780638356ca4f1461046057806385de26f9146104735780638953acb71461049b5780638a19c8bc146104ae57806391d14854146104b6578063923ab01c146104c957806392ca60c1146104dc57806396f1557c146104ef5780639a202d47146105025780639e0459011461050a578063a217fddf1461051d57600080fd5b806336568abe116101db57806336568abe1461034e578063369c272a1461036157806336d956ea1461037457806341c04d5e146103885780634e71d92d1461039d57806350d2a276146103a5578063550d01a3146103db57806355640008146103fe57806363a8fd89146104075780636545eb1c146104145780636a71846814610427578063704802751461043a57600080fd5b806301ffc9a71461025a57806306fdde03146102825780630a59fa08146102975780630f4388c0146102a4578063117ab874146102c557806321cf4370146102ce578063248a9ca3146102e257806324d7806c14610305578063256019d6146103185780632f2ff15d1461032157806334b38cc314610336575b600080fd5b61026d61026836600461233e565b610611565b60405190151581526020015b60405180910390f35b61028a610648565b6040516102799190612506565b600e5461026d9060ff1681565b6102b76102b23660046122fb565b6106d6565b604051908152602001610279565b6102b760065481565b60025461026d90600160a01b900460ff1681565b6102b76102f03660046122fb565b6000908152600f602052604090206001015490565b61026d610313366004612267565b6106f7565b6102b760055481565b61033461032f366004612313565b610711565b005b61033e61073c565b60405161027994939291906126ab565b61033461035c366004612313565b6107ff565b61033461036f3660046123a0565b610882565b60025461026d90600160a81b900460ff1681565b6102b760008051602061282a83398151915281565b61033461090f565b6103ce6103b336600461233e565b600d602052600090815260409020546001600160a01b031681565b60405161027991906124ce565b61026d6103e9366004612267565b600c6020526000908152604090205460ff1681565b6102b760045481565b600a5461026d9060ff1681565b6001546103ce906001600160a01b031681565b610334610435366004612281565b610c08565b610334610448366004612267565b610ce4565b61033461045b366004612267565b610d24565b61033461046e366004612267565b610dd7565b60025461048890600160c01b900461ffff1681565b60405161ffff9091168152602001610279565b6103346104a93660046123a0565b610e61565b6102b7610f05565b61026d6104c4366004612313565b610feb565b6103346104d73660046122c3565b611016565b6103346104ea3660046122fb565b6110f1565b6103346104fd366004612267565b61128a565b6103346112ba565b610334610518366004612366565b611308565b6102b7600081565b6102b76105333660046122fb565b6113ef565b610334610546366004612366565b61149c565b6103ce6105593660046122fb565b600b602052600090815260409020546001600160a01b031681565b610334611584565b60025461048890600160b01b900461ffff1681565b6102b760075481565b6103346105a8366004612313565b6115b4565b600e546103ce9061010090046001600160a01b031681565b6102b76105d33660046122fb565b6115da565b61026d6105e6366004612267565b6115ea565b6002546103ce906001600160a01b031681565b6000546103ce906001600160a01b031681565b60006001600160e01b03198216637965db0b60e01b148061064257506301ffc9a760e01b6001600160e01b03198316145b92915050565b6003805461065590612799565b80601f016020809104026020016040519081016040528092919081815260200182805461068190612799565b80156106ce5780601f106106a3576101008083540402835291602001916106ce565b820191906000526020600020905b8154815290600101906020018083116106b157829003601f168201915b505050505081565b600981815481106106e657600080fd5b600091825260209091200154905081565b600061064260008051602061282a83398151915283610feb565b6000828152600f602052604090206001015461072d81336115f6565b610737838361165a565b505050565b60006060806000600554600860096006548280548060200260200160405190810160405280929190818152602001828054801561079857602002820191906000526020600020905b815481526020019060010190808311610784575b50505050509250818054806020026020016040519081016040528092919081815260200182805480156107ea57602002820191906000526020600020905b8154815260200190600101908083116107d6575b50505050509150935093509350935090919293565b6001600160a01b03811633146108745760405162461bcd60e51b815260206004820152602f60248201527f416363657373436f6e74726f6c3a2063616e206f6e6c792072656e6f756e636560448201526e103937b632b9903337b91039b2b63360891b60648201526084015b60405180910390fd5b61087e82826116e0565b5050565b61088b336115ea565b6108a75760405162461bcd60e51b815260040161086b906125da565b600254600160a01b900460ff161515600114156108d6576108ca6008600061213d565b6108d66009600061213d565b6108e1838383611747565b600254600160a01b900460ff161515600114610737576002805460ff60a01b1916600160a01b179055505050565b600254600160a81b900460ff161561095d5760405162461bcd60e51b815260206004820152601160248201527015995cdd1a5b99c81a5cc81c185d5cd959607a1b604482015260640161086b565b6000600860008154811061098157634e487b7160e01b600052603260045260246000fd5b90600052602060002001541180156109c4575060086000815481106109b657634e487b7160e01b600052603260045260246000fd5b906000526020600020015442115b610a095760405162461bcd60e51b815260206004820152601660248201527515985d5b1d0e881b9bdd081cdd185c9d1959081e595d60521b604482015260640161086b565b60075460045411610a555760405162461bcd60e51b815260206004820152601660248201527515985d5b1d0e88185b1c9958591e48105b1b0819d95d60521b604482015260640161086b565b6000610a5f610f05565b90506000610a6c826113ef565b905060008111610aba5760405162461bcd60e51b815260206004820152601960248201527831b630b4b6b0b136329030b6b7bab73a1034b9903d32b9379760391b604482015260640161086b565b6000546040516370a0823160e01b815282916001600160a01b0316906370a0823190610aea9030906004016124ce565b60206040518083038186803b158015610b0257600080fd5b505afa158015610b16573d6000803e3d6000fd5b505050506040513d601f19601f82011682018060405250810190610b3a9190612388565b1015610b885760405162461bcd60e51b815260206004820152601f60248201527f5661756c743a2062616c616e636520697320696e73756666696369656e742e00604482015260640161086b565b6006829055600754610b9b9082906126e8565b600755600154600054610bbd916001600160a01b039182169130911684611ca3565b6001546040517ff7a40077ff7a04c7e61f6f26fb13774259ddf1b6bce9ecf26a8276cdd399268391610bfc9133916001600160a01b03169085906124e2565b60405180910390a15050565b610c11336115ea565b610c2d5760405162461bcd60e51b815260040161086b906125da565b826001600160a01b038116610c545760405162461bcd60e51b815260040161086b90612539565b826001600160a01b038116610c7b5760405162461bcd60e51b815260040161086b90612539565b826001600160a01b038116610ca25760405162461bcd60e51b815260040161086b90612539565b5050600080546001600160a01b039586166001600160a01b03199182161790915560018054948616948216949094179093555060028054919093169116179055565b610ced336115ea565b610d095760405162461bcd60e51b815260040161086b906125da565b610d2160008051602061282a83398151915282610711565b50565b610d2d336106f7565b80610d3c5750610d3c336115ea565b610d585760405162461bcd60e51b815260040161086b90612566565b6001600160a01b038116610d7e5760405162461bcd60e51b815260040161086b906125a8565b336001600160a01b0382161415610da75760405162461bcd60e51b815260040161086b90612622565b610dbf60008051602061282a83398151915282610711565b610d2160008051602061282a833981519152336107ff565b610de0336115ea565b610dfc5760405162461bcd60e51b815260040161086b906125da565b6001600160a01b038116610e225760405162461bcd60e51b815260040161086b906125a8565b336001600160a01b0382161415610e4b5760405162461bcd60e51b815260040161086b90612622565b610e56600082610711565b610d216000336107ff565b610e6a336106f7565b80610e795750610e79336115ea565b610e955760405162461bcd60e51b815260040161086b90612566565b600254600160a01b900460ff16151560011415610ee25760405162461bcd60e51b815260206004820152600b60248201526a185b1c9958591e481cd95d60aa1b604482015260640161086b565b610eed838383611747565b50506002805460ff60a01b1916600160a01b17905550565b60006008600081548110610f2957634e487b7160e01b600052603260045260246000fd5b9060005260206000200154421015610f3f575060005b60086001600554610f50919061273f565b81548110610f6e57634e487b7160e01b600052603260045260246000fd5b90600052602060002001544210610f8457506005545b60005b600554811015610fd5574260088281548110610fb357634e487b7160e01b600052603260045260246000fd5b906000526020600020015411610fd557610fce8160016126e8565b9150610fd9565b5090565b80610fe3816127d4565b915050610f87565b6000918252600f602090815260408084206001600160a01b0393909316845291905290205460ff1690565b61101f336106f7565b8061102e575061102e336115ea565b61104a5760405162461bcd60e51b815260040161086b90612566565b60025460ff600160a81b90910416151581151514156110995760405162461bcd60e51b815260206004820152600b60248201526a73616d65205f706175736560a81b604482015260640161086b565b60028054821515600160a81b0260ff60a81b199091161790556040517f35aa854f11289d7130153444d4897af359b30fb84724d4d646079f8464bd264f906110e690831515815260200190565b60405180910390a150565b6002546001600160a01b0316331461114b5760405162461bcd60e51b815260206004820152601e60248201527f63616c6c6572206973206e6f74207075626c696353616c655661756c742e0000604482015260640161086b565b600054600254604051636eb1769f60e11b81526001600160a01b0391821660048201523060248201528392919091169063dd62ed3e9060440160206040518083038186803b15801561119c57600080fd5b505afa1580156111b0573d6000803e3d6000fd5b505050506040513d601f19601f820116820180604052508101906111d49190612388565b101561121f5760405162461bcd60e51b815260206004820152601a60248201527930b63637bbb0b731b29034b99034b739bab33334b1b4b2b73a1760311b604482015260640161086b565b806004600082825461123191906126e8565b9091555050600254600054611254916001600160a01b0391821691163084611ca3565b60408051338152602081018390527f5af8184bef8e4b45eb9f6ed7734d04da38ced226495548f46e0c8ff8d7d9a52491016110e6565b611293336115ea565b6112af5760405162461bcd60e51b815260040161086b906125da565b610d21600082611d01565b6112c3336106f7565b806112d257506112d2336115ea565b6112ee5760405162461bcd60e51b815260040161086b90612566565b61130660008051602061282a833981519152336107ff565b565b611311336115ea565b61132d5760405162461bcd60e51b815260040161086b906125da565b60008161ffff161161136f5760405162461bcd60e51b815260206004820152600b60248201526a1e995c9bc817d8dbdd5b9d60aa1b604482015260640161086b565b60025461ffff828116600160b01b90920416141561139f5760405162461bcd60e51b815260040161086b90612652565b6002805461ffff60b01b1916600160b01b61ffff8416908102919091179091556040519081527f1fdf6c263b84f17bf980b123995652f53b22c07ac633a4b7c860dadca395297d906020016110e6565b60006113f9610f05565b61140557506000919050565b60055415806114145750600454155b1561142157506000919050565b81600554141561143b57600754600454610642919061273f565b6007546064600961144d60018661273f565b8154811061146b57634e487b7160e01b600052603260045260246000fd5b90600052602060002001546004546114839190612720565b61148d9190612700565b610642919061273f565b919050565b6114a5336115ea565b6114c15760405162461bcd60e51b815260040161086b906125da565b60008161ffff16116115045760405162461bcd60e51b815260206004820152600c60248201526b1e995c9bc817dc195c9a5bd960a21b604482015260640161086b565b60025461ffff828116600160c01b9092041614156115345760405162461bcd60e51b815260040161086b90612652565b6002805461ffff60c01b1916600160c01b61ffff8416908102919091179091556040519081527fce2106a8b7957d03d04beffe68f4e60315d199f204627009433f0439460b480c906020016110e6565b61158d336115ea565b6115a95760405162461bcd60e51b815260040161086b906125da565b6113066000336107ff565b6000828152600f60205260409020600101546115d081336115f6565b61073783836116e0565b600881815481106106e657600080fd5b60006106428183610feb565b6116008282610feb565b61087e57611618816001600160a01b03166014611d0b565b611623836020611d0b565b60405160200161163492919061245f565b60408051601f198184030181529082905262461bcd60e51b825261086b91600401612506565b6116648282610feb565b61087e576000828152600f602090815260408083206001600160a01b03851684529091529020805460ff1916600117905561169c3390565b6001600160a01b0316816001600160a01b0316837f2f8788117e7eff1d82e926ec794901d17c78024a50270940304540a733656f0d60405160405180910390a45050565b6116ea8282610feb565b1561087e576000828152600f602090815260408083206001600160a01b0385168085529252808320805460ff1916905551339285917ff6391f5c32d9c69d2a47ea670b442974b53935d1edc7fd64eb21e047a839171b9190a45050565b6000831180156117645750600254600160b01b900461ffff168310155b6117cc5760405162461bcd60e51b815260206004820152603360248201527f636c61696d436f756e7473206d7573742062652067726561746572207468616e604482015272206d696e696d756d436c61696d436f756e747360681b606482015260840161086b565b8151831480156117dc5750805183145b6118375760405162461bcd60e51b815260206004820152602660248201527f77726f6e67205f636c61696d54696d65732f5f636c61696d416d6f756e7473206044820152650d8cadccee8d60d31b606482015260840161086b565b6032600960008154811061185b57634e487b7160e01b600052603260045260246000fd5b9060005260206000200154106118c95760405162461bcd60e51b815260206004820152602d60248201527f63616e6e6f7420636c61696d206d6f7265207468616e2035302520696e20746860448201526c1948199a5c9cdd081c9bdd5b99609a1b606482015260840161086b565b60096118d660018561273f565b815481106118f457634e487b7160e01b600052603260045260246000fd5b90600052602060002001546064146119485760405162461bcd60e51b815260206004820152601760248201527677726f6e67206c61737420636c61696d416d6f756e747360481b604482015260640161086b565b60015b83811015611ac457600254600160c01b900461ffff16600861196e60018461273f565b8154811061198c57634e487b7160e01b600052603260045260246000fd5b90600052602060002001546119a191906126e8565b600882815481106119c257634e487b7160e01b600052603260045260246000fd5b90600052602060002001541015611a0e5760405162461bcd60e51b815260206004820152601060248201526f77726f6e6720636c61696d54696d657360801b604482015260640161086b565b6009611a1b60018361273f565b81548110611a3957634e487b7160e01b600052603260045260246000fd5b906000526020600020015460098281548110611a6557634e487b7160e01b600052603260045260246000fd5b906000526020600020015411611ab25760405162461bcd60e51b815260206004820152601260248201527177726f6e6720636c61696d416d6f756e747360701b604482015260640161086b565b80611abc816127d4565b91505061194b565b6005849055836001600160401b03811115611aef57634e487b7160e01b600052604160045260246000fd5b604051908082528060200260200182016040528015611b18578160200160208202803683370190505b508051611b2d9160089160209091019061215b565b50836001600160401b03811115611b5457634e487b7160e01b600052604160045260246000fd5b604051908082528060200260200182016040528015611b7d578160200160208202803683370190505b508051611b929160099160209091019061215b565b50600090505b83811015611c6257828181518110611bc057634e487b7160e01b600052603260045260246000fd5b602002602001015160088281548110611be957634e487b7160e01b600052603260045260246000fd5b906000526020600020018190555060098181548110611c1857634e487b7160e01b600052603260045260246000fd5b906000526020600020015460098281548110611c4457634e487b7160e01b600052603260045260246000fd5b60009182526020909120015580611c5a816127d4565b915050611b98565b7f12873a1ba5439c01ce32f029af47fb34c77d83bb82778dc104901021ac0a73e0848484604051611c9593929190612676565b60405180910390a150505050565b611cfb846323b872dd60e01b858585604051602401611cc4939291906124e2565b60408051601f198184030181529190526020810180516001600160e01b03166001600160e01b031990931692909217909152611ef3565b50505050565b61087e828261165a565b60606000611d1a836002612720565b611d259060026126e8565b6001600160401b03811115611d4a57634e487b7160e01b600052604160045260246000fd5b6040519080825280601f01601f191660200182016040528015611d74576020820181803683370190505b509050600360fc1b81600081518110611d9d57634e487b7160e01b600052603260045260246000fd5b60200101906001600160f81b031916908160001a905350600f60fb1b81600181518110611dda57634e487b7160e01b600052603260045260246000fd5b60200101906001600160f81b031916908160001a9053506000611dfe846002612720565b611e099060016126e8565b90505b6001811115611e9d576f181899199a1a9b1b9c1cb0b131b232b360811b85600f1660108110611e4b57634e487b7160e01b600052603260045260246000fd5b1a60f81b828281518110611e6f57634e487b7160e01b600052603260045260246000fd5b60200101906001600160f81b031916908160001a90535060049490941c93611e9681612782565b9050611e0c565b508315611eec5760405162461bcd60e51b815260206004820181905260248201527f537472696e67733a20686578206c656e67746820696e73756666696369656e74604482015260640161086b565b9392505050565b6000611f48826040518060400160405280602081526020017f5361666545524332303a206c6f772d6c6576656c2063616c6c206661696c6564815250856001600160a01b0316611fc59092919063ffffffff16565b8051909150156107375780806020019051810190611f6691906122df565b6107375760405162461bcd60e51b815260206004820152602a60248201527f5361666545524332303a204552433230206f7065726174696f6e20646964206e6044820152691bdd081cdd58d8d9595960b21b606482015260840161086b565b6060611fd48484600085611fdc565b949350505050565b60608247101561203d5760405162461bcd60e51b815260206004820152602660248201527f416464726573733a20696e73756666696369656e742062616c616e636520666f6044820152651c8818d85b1b60d21b606482015260840161086b565b843b61208b5760405162461bcd60e51b815260206004820152601d60248201527f416464726573733a2063616c6c20746f206e6f6e2d636f6e7472616374000000604482015260640161086b565b600080866001600160a01b031685876040516120a79190612443565b60006040518083038185875af1925050503d80600081146120e4576040519150601f19603f3d011682016040523d82523d6000602084013e6120e9565b606091505b50915091506120f9828286612104565b979650505050505050565b60608315612113575081611eec565b8251156121235782518084602001fd5b8160405162461bcd60e51b815260040161086b9190612506565b5080546000825590600052602060002090810190610d21919061219e565b828054828255906000526020600020908101928215612196579160200282015b8281111561219657825182559160200191906001019061217b565b50610fd59291505b5b80821115610fd5576000815560010161219f565b80356001600160a01b038116811461149757600080fd5b600082601f8301126121da578081fd5b813560206001600160401b03808311156121f6576121f6612805565b8260051b604051601f19603f8301168101818110848211171561221b5761221b612805565b60405284815283810192508684018288018501891015612239578687fd5b8692505b8583101561225b57803584529284019260019290920191840161223d565b50979650505050505050565b600060208284031215612278578081fd5b611eec826121b3565b600080600060608486031215612295578182fd5b61229e846121b3565b92506122ac602085016121b3565b91506122ba604085016121b3565b90509250925092565b6000602082840312156122d4578081fd5b8135611eec8161281b565b6000602082840312156122f0578081fd5b8151611eec8161281b565b60006020828403121561230c578081fd5b5035919050565b60008060408385031215612325578182fd5b82359150612335602084016121b3565b90509250929050565b60006020828403121561234f578081fd5b81356001600160e01b031981168114611eec578182fd5b600060208284031215612377578081fd5b813561ffff81168114611eec578182fd5b600060208284031215612399578081fd5b5051919050565b6000806000606084860312156123b4578283fd5b8335925060208401356001600160401b03808211156123d1578384fd5b6123dd878388016121ca565b935060408601359150808211156123f2578283fd5b506123ff868287016121ca565b9150509250925092565b6000815180845260208085019450808401835b838110156124385781518752958201959082019060010161241c565b509495945050505050565b60008251612455818460208701612756565b9190910192915050565b76020b1b1b2b9b9a1b7b73a3937b61d1030b1b1b7bab73a1604d1b815260008351612491816017850160208801612756565b7001034b99036b4b9b9b4b733903937b6329607d1b60179184019182015283516124c2816028840160208801612756565b01602801949350505050565b6001600160a01b0391909116815260200190565b6001600160a01b039384168152919092166020820152604081019190915260600190565b6020815260008251806020840152612525816040850160208701612756565b601f01601f19169190910160400192915050565b6020808252601390820152725661756c743a207a65726f206164647265737360681b604082015260600190565b60208082526022908201527f41636365737369626c653a2043616c6c6572206973206e6f7420616e2061646d60408201526134b760f11b606082015260800190565b60208082526018908201527741636365737369626c653a207a65726f206164647265737360401b604082015260600190565b60208082526028908201527f41636365737369626c653a2043616c6c6572206973206e6f7420616e2070726f6040820152673c3c9030b236b4b760c11b606082015260800190565b60208082526016908201527520b1b1b2b9b9b4b136329d1039b0b6b29030b236b4b760511b604082015260600190565b6020808252600a908201526973616d652076616c756560b01b604082015260600190565b83815260606020820152600061268f6060830185612409565b82810360408401526126a18185612409565b9695505050505050565b8481526080602082015260006126c46080830186612409565b82810360408401526126d68186612409565b91505082606083015295945050505050565b600082198211156126fb576126fb6127ef565b500190565b60008261271b57634e487b7160e01b81526012600452602481fd5b500490565b600081600019048311821515161561273a5761273a6127ef565b500290565b600082821015612751576127516127ef565b500390565b60005b83811015612771578181015183820152602001612759565b83811115611cfb5750506000910152565b600081612791576127916127ef565b506000190190565b600181811c908216806127ad57607f821691505b602082108114156127ce57634e487b7160e01b600052602260045260246000fd5b50919050565b60006000198214156127e8576127e86127ef565b5060010190565b634e487b7160e01b600052601160045260246000fd5b634e487b7160e01b600052604160045260246000fd5b8015158114610d2157600080fdfe52eafc11f6f81f86878bffd31109a0d92f37506527754f00788853ff9f63b130a26469706673582212203b3fc9c35d1d683a638bc8bf324fd14e926269070771e9f4f0b41c4745d5666e64736f6c63430008040033",
  "linkReferences": {},
  "deployedLinkReferences": {}
}