{
  "_format": "hh-sol-artifact-1",
  "contractName": "RewardProgramVault",
  "sourceName": "contracts/typeEVault/RewardProgramVault.sol",
  "abi": [
    {
      "inputs": [],
      "stateMutability": "nonpayable",
      "type": "constructor"
    },
    {
      "anonymous": false,
      "inputs": [
        {
          "indexed": false,
          "internalType": "uint256",
          "name": "idx",
          "type": "uint256"
        },
        {
          "indexed": true,
          "internalType": "address",
          "name": "rewardToken",
          "type": "address"
        },
        {
          "indexed": true,
          "internalType": "address",
          "name": "pool",
          "type": "address"
        },
        {
          "indexed": false,
          "internalType": "uint256",
          "name": "startTime",
          "type": "uint256"
        },
        {
          "indexed": false,
          "internalType": "uint256",
          "name": "endTime",
          "type": "uint256"
        },
        {
          "indexed": false,
          "internalType": "address",
          "name": "refundee",
          "type": "address"
        },
        {
          "indexed": false,
          "internalType": "uint256",
          "name": "reward",
          "type": "uint256"
        }
      ],
      "name": "IncentiveCreatedByRewardProgram",
      "type": "event"
    },
    {
      "anonymous": false,
      "inputs": [
        {
          "indexed": true,
          "internalType": "address",
          "name": "rewardToken",
          "type": "address"
        },
        {
          "indexed": true,
          "internalType": "address",
          "name": "pool",
          "type": "address"
        },
        {
          "indexed": false,
          "internalType": "uint256",
          "name": "startTime",
          "type": "uint256"
        },
        {
          "indexed": false,
          "internalType": "uint256",
          "name": "endTime",
          "type": "uint256"
        },
        {
          "indexed": false,
          "internalType": "address",
          "name": "refundee",
          "type": "address"
        },
        {
          "indexed": false,
          "internalType": "uint256",
          "name": "refund",
          "type": "uint256"
        }
      ],
      "name": "IncentiveEndedByRewardProgram",
      "type": "event"
    },
    {
      "anonymous": false,
      "inputs": [
        {
          "indexed": false,
          "internalType": "uint256",
          "name": "_totalAllocatedAmount",
          "type": "uint256"
        },
        {
          "indexed": false,
          "internalType": "uint256",
          "name": "_claimCounts",
          "type": "uint256"
        },
        {
          "indexed": false,
          "internalType": "uint256[]",
          "name": "_claimTimes",
          "type": "uint256[]"
        },
        {
          "indexed": false,
          "internalType": "uint256[]",
          "name": "_claimAmounts",
          "type": "uint256[]"
        }
      ],
      "name": "Initialized",
      "type": "event"
    },
    {
      "anonymous": false,
      "inputs": [
        {
          "indexed": true,
          "internalType": "bytes32",
          "name": "role",
          "type": "bytes32"
        },
        {
          "indexed": true,
          "internalType": "bytes32",
          "name": "previousAdminRole",
          "type": "bytes32"
        },
        {
          "indexed": true,
          "internalType": "bytes32",
          "name": "newAdminRole",
          "type": "bytes32"
        }
      ],
      "name": "RoleAdminChanged",
      "type": "event"
    },
    {
      "anonymous": false,
      "inputs": [
        {
          "indexed": true,
          "internalType": "bytes32",
          "name": "role",
          "type": "bytes32"
        },
        {
          "indexed": true,
          "internalType": "address",
          "name": "account",
          "type": "address"
        },
        {
          "indexed": true,
          "internalType": "address",
          "name": "sender",
          "type": "address"
        }
      ],
      "name": "RoleGranted",
      "type": "event"
    },
    {
      "anonymous": false,
      "inputs": [
        {
          "indexed": true,
          "internalType": "bytes32",
          "name": "role",
          "type": "bytes32"
        },
        {
          "indexed": true,
          "internalType": "address",
          "name": "account",
          "type": "address"
        },
        {
          "indexed": true,
          "internalType": "address",
          "name": "sender",
          "type": "address"
        }
      ],
      "name": "RoleRevoked",
      "type": "event"
    },
    {
      "inputs": [],
      "name": "DEFAULT_ADMIN_ROLE",
      "outputs": [
        {
          "internalType": "bytes32",
          "name": "",
          "type": "bytes32"
        }
      ],
      "stateMutability": "view",
      "type": "function"
    },
    {
      "inputs": [
        {
          "internalType": "uint256",
          "name": "idx",
          "type": "uint256"
        },
        {
          "internalType": "uint256[]",
          "name": "tokenIds",
          "type": "uint256[]"
        }
      ],
      "name": "IncentiveEnded",
      "outputs": [],
      "stateMutability": "nonpayable",
      "type": "function"
    },
    {
      "inputs": [],
      "name": "PROJECT_ADMIN_ROLE",
      "outputs": [
        {
          "internalType": "bytes32",
          "name": "",
          "type": "bytes32"
        }
      ],
      "stateMutability": "view",
      "type": "function"
    },
    {
      "inputs": [
        {
          "internalType": "address",
          "name": "account",
          "type": "address"
        }
      ],
      "name": "addAdmin",
      "outputs": [],
      "stateMutability": "nonpayable",
      "type": "function"
    },
    {
      "inputs": [
        {
          "internalType": "address",
          "name": "_owner",
          "type": "address"
        }
      ],
      "name": "addProxyAdmin",
      "outputs": [],
      "stateMutability": "nonpayable",
      "type": "function"
    },
    {
      "inputs": [
        {
          "internalType": "address",
          "name": "",
          "type": "address"
        }
      ],
      "name": "aliveImplementation",
      "outputs": [
        {
          "internalType": "bool",
          "name": "",
          "type": "bool"
        }
      ],
      "stateMutability": "view",
      "type": "function"
    },
    {
      "inputs": [],
      "name": "allClaimInfos",
      "outputs": [
        {
          "internalType": "uint256",
          "name": "",
          "type": "uint256"
        },
        {
          "internalType": "uint256[]",
          "name": "",
          "type": "uint256[]"
        },
        {
          "internalType": "uint256[]",
          "name": "",
          "type": "uint256[]"
        },
        {
          "internalType": "uint256",
          "name": "",
          "type": "uint256"
        }
      ],
      "stateMutability": "view",
      "type": "function"
    },
    {
      "inputs": [
        {
          "internalType": "uint256",
          "name": "_round",
          "type": "uint256"
        }
      ],
      "name": "availableUseAmount",
      "outputs": [
        {
          "internalType": "uint256",
          "name": "amount",
          "type": "uint256"
        }
      ],
      "stateMutability": "view",
      "type": "function"
    },
    {
      "inputs": [],
      "name": "boolLogEvent",
      "outputs": [
        {
          "internalType": "bool",
          "name": "",
          "type": "bool"
        }
      ],
      "stateMutability": "view",
      "type": "function"
    },
    {
      "inputs": [
        {
          "internalType": "address",
          "name": "_pool",
          "type": "address"
        }
      ],
      "name": "changePool",
      "outputs": [],
      "stateMutability": "nonpayable",
      "type": "function"
    },
    {
      "inputs": [
        {
          "internalType": "uint256",
          "name": "_startWaitTime",
          "type": "uint256"
        }
      ],
      "name": "changeSetting",
      "outputs": [],
      "stateMutability": "nonpayable",
      "type": "function"
    },
    {
      "inputs": [
        {
          "internalType": "address",
          "name": "_staker",
          "type": "address"
        }
      ],
      "name": "changeStaker",
      "outputs": [],
      "stateMutability": "nonpayable",
      "type": "function"
    },
    {
      "inputs": [
        {
          "internalType": "address",
          "name": "_token",
          "type": "address"
        }
      ],
      "name": "changeToken",
      "outputs": [],
      "stateMutability": "nonpayable",
      "type": "function"
    },
    {
      "inputs": [
        {
          "internalType": "uint256",
          "name": "",
          "type": "uint256"
        }
      ],
      "name": "claimAmounts",
      "outputs": [
        {
          "internalType": "uint256",
          "name": "",
          "type": "uint256"
        }
      ],
      "stateMutability": "view",
      "type": "function"
    },
    {
      "inputs": [
        {
          "internalType": "uint256",
          "name": "",
          "type": "uint256"
        }
      ],
      "name": "claimTimes",
      "outputs": [
        {
          "internalType": "uint256",
          "name": "",
          "type": "uint256"
        }
      ],
      "stateMutability": "view",
      "type": "function"
    },
    {
      "inputs": [],
      "name": "createProgram",
      "outputs": [],
      "stateMutability": "nonpayable",
      "type": "function"
    },
    {
      "inputs": [],
      "name": "currentRound",
      "outputs": [
        {
          "internalType": "uint256",
          "name": "round",
          "type": "uint256"
        }
      ],
      "stateMutability": "view",
      "type": "function"
    },
    {
      "inputs": [],
      "name": "getClaimInfo",
      "outputs": [
        {
          "internalType": "uint256",
          "name": "_totalClaimCounts",
          "type": "uint256"
        },
        {
          "internalType": "uint256[]",
          "name": "_claimTimes",
          "type": "uint256[]"
        },
        {
          "internalType": "uint256[]",
          "name": "_claimAmounts",
          "type": "uint256[]"
        },
        {
          "internalType": "uint256",
          "name": "_totalClaimsAmount",
          "type": "uint256"
        }
      ],
      "stateMutability": "view",
      "type": "function"
    },
    {
      "inputs": [
        {
          "internalType": "uint256",
          "name": "_round",
          "type": "uint256"
        }
      ],
      "name": "getProgramDuration",
      "outputs": [
        {
          "internalType": "uint256",
          "name": "period",
          "type": "uint256"
        }
      ],
      "stateMutability": "view",
      "type": "function"
    },
    {
      "inputs": [
        {
          "internalType": "bytes32",
          "name": "role",
          "type": "bytes32"
        }
      ],
      "name": "getRoleAdmin",
      "outputs": [
        {
          "internalType": "bytes32",
          "name": "",
          "type": "bytes32"
        }
      ],
      "stateMutability": "view",
      "type": "function"
    },
    {
      "inputs": [
        {
          "internalType": "bytes32",
          "name": "role",
          "type": "bytes32"
        },
        {
          "internalType": "address",
          "name": "account",
          "type": "address"
        }
      ],
      "name": "grantRole",
      "outputs": [],
      "stateMutability": "nonpayable",
      "type": "function"
    },
    {
      "inputs": [
        {
          "internalType": "bytes32",
          "name": "role",
          "type": "bytes32"
        },
        {
          "internalType": "address",
          "name": "account",
          "type": "address"
        }
      ],
      "name": "hasRole",
      "outputs": [
        {
          "internalType": "bool",
          "name": "",
          "type": "bool"
        }
      ],
      "stateMutability": "view",
      "type": "function"
    },
    {
      "inputs": [
        {
          "internalType": "uint256",
          "name": "_totalAllocatedAmount",
          "type": "uint256"
        },
        {
          "internalType": "uint256",
          "name": "_claimCounts",
          "type": "uint256"
        },
        {
          "internalType": "uint256[]",
          "name": "_claimTimes",
          "type": "uint256[]"
        },
        {
          "internalType": "uint256[]",
          "name": "_claimAmounts",
          "type": "uint256[]"
        }
      ],
      "name": "initialize",
      "outputs": [],
      "stateMutability": "nonpayable",
      "type": "function"
    },
    {
      "inputs": [
        {
          "internalType": "uint256",
          "name": "_totalAllocatedAmount",
          "type": "uint256"
        },
        {
          "internalType": "uint256",
          "name": "_claimCounts",
          "type": "uint256"
        },
        {
          "internalType": "uint256[]",
          "name": "_claimTimes",
          "type": "uint256[]"
        },
        {
          "internalType": "uint256[]",
          "name": "_claimAmounts",
          "type": "uint256[]"
        }
      ],
      "name": "initializeByProxyOwner",
      "outputs": [],
      "stateMutability": "nonpayable",
      "type": "function"
    },
    {
      "inputs": [
        {
          "internalType": "address",
          "name": "account",
          "type": "address"
        }
      ],
      "name": "isAdmin",
      "outputs": [
        {
          "internalType": "bool",
          "name": "",
          "type": "bool"
        }
      ],
      "stateMutability": "view",
      "type": "function"
    },
    {
      "inputs": [
        {
          "internalType": "address",
          "name": "account",
          "type": "address"
        }
      ],
      "name": "isProxyAdmin",
      "outputs": [
        {
          "internalType": "bool",
          "name": "",
          "type": "bool"
        }
      ],
      "stateMutability": "view",
      "type": "function"
    },
    {
      "inputs": [],
      "name": "logEventAddress",
      "outputs": [
        {
          "internalType": "address",
          "name": "",
          "type": "address"
        }
      ],
      "stateMutability": "view",
      "type": "function"
    },
    {
      "inputs": [],
      "name": "name",
      "outputs": [
        {
          "internalType": "string",
          "name": "",
          "type": "string"
        }
      ],
      "stateMutability": "view",
      "type": "function"
    },
    {
      "inputs": [],
      "name": "nowClaimRound",
      "outputs": [
        {
          "internalType": "uint256",
          "name": "",
          "type": "uint256"
        }
      ],
      "stateMutability": "view",
      "type": "function"
    },
    {
      "inputs": [],
      "name": "pauseProxy",
      "outputs": [
        {
          "internalType": "bool",
          "name": "",
          "type": "bool"
        }
      ],
      "stateMutability": "view",
      "type": "function"
    },
    {
      "inputs": [],
      "name": "pool",
      "outputs": [
        {
          "internalType": "contract IUniswapV3Pool",
          "name": "",
          "type": "address"
        }
      ],
      "stateMutability": "view",
      "type": "function"
    },
    {
      "inputs": [
        {
          "internalType": "uint256",
          "name": "",
          "type": "uint256"
        }
      ],
      "name": "programs",
      "outputs": [
        {
          "components": [
            {
              "internalType": "contract IERC20Minimal",
              "name": "rewardToken",
              "type": "address"
            },
            {
              "internalType": "contract IUniswapV3Pool",
              "name": "pool",
              "type": "address"
            },
            {
              "internalType": "uint256",
              "name": "startTime",
              "type": "uint256"
            },
            {
              "internalType": "uint256",
              "name": "endTime",
              "type": "uint256"
            },
            {
              "internalType": "address",
              "name": "refundee",
              "type": "address"
            }
          ],
          "internalType": "struct IUniswapV3Staker.IncentiveKey",
          "name": "key",
          "type": "tuple"
        },
        {
          "internalType": "uint256",
          "name": "reward",
          "type": "uint256"
        },
        {
          "internalType": "bool",
          "name": "end",
          "type": "bool"
        }
      ],
      "stateMutability": "view",
      "type": "function"
    },
    {
      "inputs": [
        {
          "internalType": "uint256",
          "name": "",
          "type": "uint256"
        }
      ],
      "name": "proxyImplementation",
      "outputs": [
        {
          "internalType": "address",
          "name": "",
          "type": "address"
        }
      ],
      "stateMutability": "view",
      "type": "function"
    },
    {
      "inputs": [],
      "name": "removeAdmin",
      "outputs": [],
      "stateMutability": "nonpayable",
      "type": "function"
    },
    {
      "inputs": [],
      "name": "removeProxyAdmin",
      "outputs": [],
      "stateMutability": "nonpayable",
      "type": "function"
    },
    {
      "inputs": [
        {
          "internalType": "bytes32",
          "name": "role",
          "type": "bytes32"
        },
        {
          "internalType": "address",
          "name": "account",
          "type": "address"
        }
      ],
      "name": "renounceRole",
      "outputs": [],
      "stateMutability": "nonpayable",
      "type": "function"
    },
    {
      "inputs": [
        {
          "internalType": "bytes32",
          "name": "role",
          "type": "bytes32"
        },
        {
          "internalType": "address",
          "name": "account",
          "type": "address"
        }
      ],
      "name": "revokeRole",
      "outputs": [],
      "stateMutability": "nonpayable",
      "type": "function"
    },
    {
      "inputs": [
        {
          "internalType": "bytes4",
          "name": "",
          "type": "bytes4"
        }
      ],
      "name": "selectorImplementation",
      "outputs": [
        {
          "internalType": "address",
          "name": "",
          "type": "address"
        }
      ],
      "stateMutability": "view",
      "type": "function"
    },
    {
      "inputs": [],
      "name": "staker",
      "outputs": [
        {
          "internalType": "contract IUniswapV3Staker",
          "name": "",
          "type": "address"
        }
      ],
      "stateMutability": "view",
      "type": "function"
    },
    {
      "inputs": [],
      "name": "startWaitTime",
      "outputs": [
        {
          "internalType": "uint256",
          "name": "",
          "type": "uint256"
        }
      ],
      "stateMutability": "view",
      "type": "function"
    },
    {
      "inputs": [
        {
          "internalType": "bytes4",
          "name": "interfaceId",
          "type": "bytes4"
        }
      ],
      "name": "supportsInterface",
      "outputs": [
        {
          "internalType": "bool",
          "name": "",
          "type": "bool"
        }
      ],
      "stateMutability": "view",
      "type": "function"
    },
    {
      "inputs": [],
      "name": "token",
      "outputs": [
        {
          "internalType": "contract IERC20Minimal",
          "name": "",
          "type": "address"
        }
      ],
      "stateMutability": "view",
      "type": "function"
    },
    {
      "inputs": [],
      "name": "totalAllocatedAmount",
      "outputs": [
        {
          "internalType": "uint256",
          "name": "",
          "type": "uint256"
        }
      ],
      "stateMutability": "view",
      "type": "function"
    },
    {
      "inputs": [],
      "name": "totalClaimCounts",
      "outputs": [
        {
          "internalType": "uint256",
          "name": "",
          "type": "uint256"
        }
      ],
      "stateMutability": "view",
      "type": "function"
    },
    {
      "inputs": [],
      "name": "totalClaimsAmount",
      "outputs": [
        {
          "internalType": "uint256",
          "name": "",
          "type": "uint256"
        }
      ],
      "stateMutability": "view",
      "type": "function"
    },
    {
      "inputs": [],
      "name": "totalProgramCount",
      "outputs": [
        {
          "internalType": "uint256",
          "name": "",
          "type": "uint256"
        }
      ],
      "stateMutability": "view",
      "type": "function"
    },
    {
      "inputs": [
        {
          "internalType": "address",
          "name": "newAdmin",
          "type": "address"
        }
      ],
      "name": "transferAdmin",
      "outputs": [],
      "stateMutability": "nonpayable",
      "type": "function"
    },
    {
      "inputs": [
        {
          "internalType": "address",
          "name": "newAdmin",
          "type": "address"
        }
      ],
      "name": "transferProxyAdmin",
      "outputs": [],
      "stateMutability": "nonpayable",
      "type": "function"
    }
  ],
  "bytecode": "0x60806040526000600b5534801561001557600080fd5b50600160005561304d8061002a6000396000f3fe608060405234801561001057600080fd5b50600436106102a05760003560e01c806375829def11610167578063a77a29fc116100ce578063d547741f11610087578063d547741f14610632578063e37c6df214610645578063eab73ca114610658578063ed5131f514610670578063f47f2f1d14610683578063fc0c546a1461069657600080fd5b8063a77a29fc146105bf578063ab55979d146105d2578063b911135f146105e5578063be72f2d31461060e578063c5db704914610616578063cfc412be1461062957600080fd5b806391d148541161012057806391d14854146104f157806392db28161461050457806396f1557c1461058957806397aca93b1461059c5780639a202d47146105af578063a217fddf146105b757600080fd5b806375829def1461049f5780637a6072af146104b257806382403813146104bb5780638356ca4f146104ce57806385182416146104e15780638a19c8bc146104e957600080fd5b80633505243f1161020b57806355640008116101c457806355640008146104475780635ebaf1db146104505780635f41e81d1461046357806363a8fd891461046c57806366829b1614610479578063704802751461048c57600080fd5b80633505243f146103ad57806336568abe146103c057806341c04d5e146103d35780634339bc30146103e857806350d2a276146103fb578063550d01a31461042457600080fd5b8063248a9ca31161025d578063248a9ca31461033957806324d7806c1461035c578063256019d61461036f57806327377051146103785780632f2ff15d1461038257806334b38cc31461039557600080fd5b806301ffc9a7146102a557806306fdde03146102cd5780630a59fa08146102e25780630f4388c0146102ef578063117ab8741461031057806316f0115b14610319575b600080fd5b6102b86102b3366004612887565b6106a9565b60405190151581526020015b60405180910390f35b6102d56106e0565b6040516102c49190612bca565b6013546102b89060ff1681565b6103026102fd366004612840565b61076e565b6040519081526020016102c4565b610302600b5481565b60025461032c906001600160a01b031681565b6040516102c49190612bb6565b610302610347366004612840565b60009081526014602052604090206001015490565b6102b861036a3660046127e8565b61078f565b610302600a5481565b6103806107a9565b005b610380610390366004612858565b610ac2565b61039d610aed565b6040516102c49493929190612e4e565b6103806103bb3660046129e0565b610bb0565b6103806103ce366004612858565b610ffc565b610302600080516020612ff883398151915281565b6103806103f63660046127e8565b61107a565b61032c610409366004612887565b6012602052600090815260409020546001600160a01b031681565b6102b86104323660046127e8565b60116020526000908152604090205460ff1681565b61030260095481565b60035461032c906001600160a01b031681565b61030260065481565b600f546102b89060ff1681565b6103806104873660046127e8565b611117565b61038061049a3660046127e8565b611219565b6103806104ad3660046127e8565b611259565b61030260055481565b6103806104c93660046128c7565b61130c565b6103806104dc3660046127e8565b611808565b61039d611892565b610302611951565b6102b86104ff366004612858565b611a4c565b61057a610512366004612840565b600460208181526000928352604092839020835160a08101855281546001600160a01b03908116825260018301548116938201939093526002820154948101949094526003810154606085015291820154166080830152600581015460069091015460ff1683565b6040516102c493929190612e0e565b6103806105973660046127e8565b611a77565b6103026105aa366004612840565b611aa7565b610380611bc6565b610302600081565b6103806105cd3660046129e0565b611c14565b6103806105e03660046127e8565b611eea565b61032c6105f3366004612840565b6010602052600090815260409020546001600160a01b031681565b610380611f87565b610380610624366004612840565b611fb7565b610302600c5481565b610380610640366004612858565b612036565b610302610653366004612840565b61205c565b60135461032c9061010090046001600160a01b031681565b61030261067e366004612840565b612174565b6102b86106913660046127e8565b612184565b60015461032c906001600160a01b031681565b60006001600160e01b03198216637965db0b60e01b14806106da57506301ffc9a760e01b6001600160e01b03198316145b92915050565b600880546106ed90612f60565b80601f016020809104026020016040519081016040528092919081815260200182805461071990612f60565b80156107665780601f1061073b57610100808354040283529160200191610766565b820191906000526020600020905b81548152906001019060200180831161074957829003601f168201915b505050505081565b600e818154811061077e57600080fd5b600091825260209091200154905081565b60006106da600080516020612ff883398151915283611a4c565b600260005414156107d55760405162461bcd60e51b81526004016107cc90612d97565b60405180910390fd5b60026000819055546001600160a01b0316806108035760405162461bcd60e51b81526004016107cc90612bfd565b60025460408051630dfe168160e01b815290516000926001600160a01b031691630dfe1681916004808301926020929190829003018186803b15801561084857600080fd5b505afa15801561085c573d6000803e3d6000fd5b505050506040513d601f19601f820116820180604052508101906108809190612804565b6001600160a01b03161415801561091b57506002546040805163d21220a760e01b815290516000926001600160a01b03169163d21220a7916004808301926020929190829003018186803b1580156108d757600080fd5b505afa1580156108eb573d6000803e3d6000fd5b505050506040513d601f19601f8201168201806040525081019061090f9190612804565b6001600160a01b031614155b6109565760405162461bcd60e51b815260206004820152600c60248201526b706f6f6c206973207a65726f60a01b60448201526064016107cc565b600c54600954116109a25760405162461bcd60e51b815260206004820152601660248201527515985d5b1d0e88185b1c9958591e48105b1b0819d95d60521b60448201526064016107cc565b60006109ac611951565b905060006109b982611aa7565b905060008111610a015760405162461bcd60e51b81526020600482015260136024820152721b9bc818db185a5b58589b1948185b5bdd5b9d606a1b60448201526064016107cc565b600b8290556000610a118361205c565b905060008111610a535760405162461bcd60e51b815260206004820152600d60248201526c3d32b93790323ab930ba34b7b760991b60448201526064016107cc565b6040805160a0810182526001546001600160a01b039081168252600254166020820152600654610ab792820190610a8a9042612ecb565b81526020018360065442610a9e9190612ecb565b610aa89190612ecb565b81523060209091015283612190565b505060016000555050565b600082815260146020526040902060010154610ade813361245a565b610ae883836124be565b505050565b60006060806000600a54600d600e600b5482805480602002602001604051908101604052809291908181526020018280548015610b4957602002820191906000526020600020905b815481526020019060010190808311610b35575b5050505050925081805480602002602001604051908101604052809291908181526020018280548015610b9b57602002820191906000526020600020905b815481526020019060010190808311610b87575b50505050509150935093509350935090919293565b610bb933612184565b610bd55760405162461bcd60e51b81526004016107cc90612cc8565b600a541580610c1b5750600d5415801590610c1b5750600d600081548110610c0d57634e487b7160e01b600052603260045260246000fd5b906000526020600020015442105b610c375760405162461bcd60e51b81526004016107cc90612dce565b600085118015610c4657508285145b8015610c5157508085145b610c6d5760405162461bcd60e51b81526004016107cc90612c2a565b6001546040516370a0823160e01b81526001600160a01b03909116906370a0823190610c9d903090600401612bb6565b60206040518083038186803b158015610cb557600080fd5b505afa158015610cc9573d6000803e3d6000fd5b505050506040513d601f19601f82011682018060405250810190610ced91906128af565b861115610d0c5760405162461bcd60e51b81526004016107cc90612d40565b6009869055600a8590556000805b600a54811015610db257600d5415610d6257600d805480610d4b57634e487b7160e01b600052603160045260246000fd5b600190038181906000526020600020016000905590555b600e5415610da057600e805480610d8957634e487b7160e01b600052603160045260246000fd5b600190038181906000526020600020016000905590555b80610daa81612f9b565b915050610d1a565b5060005b86811015610f5257600d548110610e1057600d868683818110610de957634e487b7160e01b600052603260045260246000fd5b83546001810185556000948552602094859020919094029290920135919092015550610e65565b858582818110610e3057634e487b7160e01b600052603260045260246000fd5b90506020020135600d8281548110610e5857634e487b7160e01b600052603260045260246000fd5b6000918252602090912001555b600e548110610eb757600e848483818110610e9057634e487b7160e01b600052603260045260246000fd5b83546001810185556000948552602094859020919094029290920135919092015550610f0c565b838382818110610ed757634e487b7160e01b600052603260045260246000fd5b90506020020135600e8281548110610eff57634e487b7160e01b600052603260045260246000fd5b6000918252602090912001555b838382818110610f2c57634e487b7160e01b600052603260045260246000fd5b9050602002013582610f3e9190612ecb565b915080610f4a81612f9b565b915050610db6565b508060095414610fa45760405162461bcd60e51b815260206004820152601e60248201527f636865636b207468652073756d206f66205f636c61696d416d6f756e7473000060448201526064016107cc565b6007805460ff191660011790556040517f71f6556aa6e2b0794b08114e76e8b43767586d3c024af0f9ff122b38f0efb0b390610feb90899089908990899089908990612e8b565b60405180910390a150505050505050565b6001600160a01b038116331461106c5760405162461bcd60e51b815260206004820152602f60248201527f416363657373436f6e74726f6c3a2063616e206f6e6c792072656e6f756e636560448201526e103937b632b9903337b91039b2b63360891b60648201526084016107cc565b6110768282612544565b5050565b61108333612184565b61109f5760405162461bcd60e51b81526004016107cc90612cc8565b806001600160a01b0381166110c65760405162461bcd60e51b81526004016107cc90612bfd565b6002546001600160a01b03838116911614156110f45760405162461bcd60e51b81526004016107cc90612d71565b50600280546001600160a01b0319166001600160a01b0392909216919091179055565b61112033612184565b61113c5760405162461bcd60e51b81526004016107cc90612cc8565b806001600160a01b0381166111635760405162461bcd60e51b81526004016107cc90612bfd565b600a54156111c85760405162461bcd60e51b815260206004820152602c60248201527f616c72656164792073657420636c61696d20696e666f2c2063616e6e6f74206360448201526b3430b733b2903a37b5b2b71760a11b60648201526084016107cc565b6001546001600160a01b03838116911614156111f65760405162461bcd60e51b81526004016107cc90612d71565b50600180546001600160a01b0319166001600160a01b0392909216919091179055565b61122233612184565b61123e5760405162461bcd60e51b81526004016107cc90612cc8565b611256600080516020612ff883398151915282610ac2565b50565b6112623361078f565b80611271575061127133612184565b61128d5760405162461bcd60e51b81526004016107cc90612c54565b6001600160a01b0381166112b35760405162461bcd60e51b81526004016107cc90612c96565b336001600160a01b03821614156112dc5760405162461bcd60e51b81526004016107cc90612d10565b6112f4600080516020612ff883398151915282610ac2565b611256600080516020612ff883398151915233610ffc565b6002600054141561132f5760405162461bcd60e51b81526004016107cc90612d97565b60026000819055546001600160a01b03168061135d5760405162461bcd60e51b81526004016107cc90612bfd565b60006005541161139d5760405162461bcd60e51b815260206004820152600b60248201526a6e6f2070726f6772616d7360a81b60448201526064016107cc565b60055483106113de5760405162461bcd60e51b815260206004820152600d60248201526c0d2dcecc2d8d2c840d2dcc8caf609b1b60448201526064016107cc565b60008381526004602052604090206006015460ff161561142e5760405162461bcd60e51b815260206004820152600b60248201526a185b1c9958591e48195b9960aa1b60448201526064016107cc565b600083815260046020908152604080832060068101805460ff19166001179055905161145a9201612e32565b60408051808303601f19018152908290528051602090910120600354636077779560e01b8352600483018290529092506000916001600160a01b039091169063607777959060240160606040518083038186803b1580156114ba57600080fd5b505afa1580156114ce573d6000803e3d6000fd5b505050506040513d601f19601f820116820180604052508101906114f29190612993565b925050506001600160601b0381161561154b57600084511161154b5760405162461bcd60e51b81526020600482015260126024820152713a3432b9329030b9329039ba30b5b2b9399760711b60448201526064016107cc565b60005b845181101561160757600354600087815260046020526040902086516001600160a01b039092169163f549ab42919088908590811061159d57634e487b7160e01b600052603260045260246000fd5b60200260200101516040518363ffffffff1660e01b81526004016115c2929190612e40565b600060405180830381600087803b1580156115dc57600080fd5b505af11580156115f0573d6000803e3d6000fd5b5050505080806115ff90612f9b565b91505061154e565b50600354604051636077779560e01b8152600481018490526000916001600160a01b03169063607777959060240160606040518083038186803b15801561164d57600080fd5b505afa158015611661573d6000803e3d6000fd5b505050506040513d601f19601f820116820180604052508101906116859190612993565b925050506001600160601b038116156116eb5760405162461bcd60e51b815260206004820152602260248201527f616674657220756e7374616b65732c20746865726520617265207374616b6572604482015261399760f11b60648201526084016107cc565b60035460008781526004602081905260408083209051632d6b69b960e21b815292936001600160a01b03169263b5ada6e492611728929101612e32565b602060405180830381600087803b15801561174257600080fd5b505af1158015611756573d6000803e3d6000fd5b505050506040513d601f19601f8201168201806040525081019061177a91906128af565b600088815260046020818152604092839020600181015481546002830154600384015493909501548651958652938501929092526001600160a01b0392831684860152606084018690529351949550928116939216917ff004ab52f939a9f312e63b42fec19eee6d90d9f47aeb3700af751357902564339181900360800190a3505060016000555050505050565b61181133612184565b61182d5760405162461bcd60e51b81526004016107cc90612cc8565b6001600160a01b0381166118535760405162461bcd60e51b81526004016107cc90612c96565b336001600160a01b038216141561187c5760405162461bcd60e51b81526004016107cc90612d10565b611887600082610ac2565b611256600033610ffc565b60006060806000600a54600d600e600c5482805480602002602001604051908101604052809291908181526020018280548015610b495760200282019190600052602060002090815481526020019060010190808311610b35575050505050925081805480602002602001604051908101604052809291908181526020018280548015610b9b5760200282019190600052602060002090815481526020019060010190808311610b875750505050509150935093509350935090919293565b6000600a546000148061198f5750600d60008154811061198157634e487b7160e01b600052603260045260246000fd5b906000526020600020015442105b1561199a5750600090565b6000600a541180156119e55750600d6001600a546119b89190612f02565b815481106119d657634e487b7160e01b600052603260045260246000fd5b90600052602060002001544210155b156119f15750600a5490565b60015b600a54811015611a4857600d8181548110611a1f57634e487b7160e01b600052603260045260246000fd5b9060005260206000200154421015611a3657919050565b80611a4081612f9b565b9150506119f4565b5090565b60009182526014602090815260408084206001600160a01b0393909316845291905290205460ff1690565b611a8033612184565b611a9c5760405162461bcd60e51b81526004016107cc90612cc8565b6112566000826125ab565b6000811580611ab75750600e5482115b15611ac457506000919050565b6001546040516370a0823160e01b81526000916001600160a01b0316906370a0823190611af5903090600401612bb6565b60206040518083038186803b158015611b0d57600080fd5b505afa158015611b21573d6000803e3d6000fd5b505050506040513d601f19601f82011682018060405250810190611b4591906128af565b90506000835b600e54811015611ba057600e8181548110611b7657634e487b7160e01b600052603260045260246000fd5b906000526020600020015482611b8c9190612ecb565b915080611b9881612f9b565b915050611b4b565b5080821115611bba57611bb38183612f02565b9250611bbf565b600092505b5050919050565b611bcf3361078f565b80611bde5750611bde33612184565b611bfa5760405162461bcd60e51b81526004016107cc90612c54565b611c12600080516020612ff883398151915233610ffc565b565b611c1d3361078f565b80611c2c5750611c2c33612184565b611c485760405162461bcd60e51b81526004016107cc90612c54565b60075460ff1615611c6b5760405162461bcd60e51b81526004016107cc90612dce565b600085118015611c7a57508285145b8015611c8557508085145b611ca15760405162461bcd60e51b81526004016107cc90612c2a565b6001546040516370a0823160e01b81526001600160a01b03909116906370a0823190611cd1903090600401612bb6565b60206040518083038186803b158015611ce957600080fd5b505afa158015611cfd573d6000803e3d6000fd5b505050506040513d601f19601f82011682018060405250810190611d2191906128af565b861115611d405760405162461bcd60e51b81526004016107cc90612d40565b6009869055600a8590556000805b86811015610f5257600d548110611da857600d868683818110611d8157634e487b7160e01b600052603260045260246000fd5b83546001810185556000948552602094859020919094029290920135919092015550611dfd565b858582818110611dc857634e487b7160e01b600052603260045260246000fd5b90506020020135600d8281548110611df057634e487b7160e01b600052603260045260246000fd5b6000918252602090912001555b600e548110611e4f57600e848483818110611e2857634e487b7160e01b600052603260045260246000fd5b83546001810185556000948552602094859020919094029290920135919092015550611ea4565b838382818110611e6f57634e487b7160e01b600052603260045260246000fd5b90506020020135600e8281548110611e9757634e487b7160e01b600052603260045260246000fd5b6000918252602090912001555b838382818110611ec457634e487b7160e01b600052603260045260246000fd5b9050602002013582611ed69190612ecb565b915080611ee281612f9b565b915050611d4e565b611ef333612184565b611f0f5760405162461bcd60e51b81526004016107cc90612cc8565b806001600160a01b038116611f365760405162461bcd60e51b81526004016107cc90612bfd565b6003546001600160a01b0383811691161415611f645760405162461bcd60e51b81526004016107cc90612d71565b50600380546001600160a01b0319166001600160a01b0392909216919091179055565b611f9033612184565b611fac5760405162461bcd60e51b81526004016107cc90612cc8565b611c12600033610ffc565b611fc03361078f565b80611fcf5750611fcf33612184565b611feb5760405162461bcd60e51b81526004016107cc90612c54565b80600081116120305760405162461bcd60e51b81526020600482015260116024820152705661756c743a207a65726f2076616c756560781b60448201526064016107cc565b50600655565b600082815260146020526040902060010154612052813361245a565b610ae88383612544565b6000600182101561206f57506000919050565b600a5482141561210b57600a546001141561208e575062278d00919050565b600d805461209e90600290612f02565b815481106120bc57634e487b7160e01b600052603260045260246000fd5b600091825260209091200154600d80546120d890600190612f02565b815481106120f657634e487b7160e01b600052603260045260246000fd5b90600052602060002001546106da9190612f02565b600d5482101561216c57600d612122600184612f02565b8154811061214057634e487b7160e01b600052603260045260246000fd5b9060005260206000200154600d83815481106120f657634e487b7160e01b600052603260045260246000fd5b506000919050565b600d818154811061077e57600080fd5b60006106da8183611a4c565b600154600354604051636eb1769f60e11b81523060048201526001600160a01b0391821660248201528392919091169063dd62ed3e9060440160206040518083038186803b1580156121e157600080fd5b505afa1580156121f5573d6000803e3d6000fd5b505050506040513d601f19601f8201168201806040525081019061221991906128af565b10156122ad5760015460035460095460405163095ea7b360e01b81526001600160a01b039283166004820152602481019190915291169063095ea7b390604401602060405180830381600087803b15801561227357600080fd5b505af1158015612287573d6000803e3d6000fd5b505050506040513d601f19601f820116820180604052508101906122ab9190612820565b505b80600c60008282546122bf9190612ecb565b90915550506005805460408051606080820183528682526020808301878152600084860181815287825260048085528783209651805188546001600160a01b03199081166001600160a01b03928316178a559682015160018a018054891691831691909117905598810151600289015595860151600388015560809095015194860180549094169490961693909317909155518286015591516006909101805460ff1916911515919091179055825491929061237a83612f9b565b9091555050600354604051635cc5e3d960e01b81526001600160a01b0390911690635cc5e3d9906123b19086908690600401612df3565b600060405180830381600087803b1580156123cb57600080fd5b505af11580156123df573d6000803e3d6000fd5b50505060208085015185516040808801516060808a01516080808c015185518b815298890194909452938701526001600160a01b0391821690860152908401879052918216935016907f3e20e2fe976b54d05e21a488ed708fe20f7d9613447272c19e75a311e321de679060a00160405180910390a3505050565b6124648282611a4c565b6110765761247c816001600160a01b031660146125b5565b6124878360206125b5565b604051602001612498929190612b47565b60408051601f198184030181529082905262461bcd60e51b82526107cc91600401612bca565b6124c88282611a4c565b6110765760008281526014602090815260408083206001600160a01b03851684529091529020805460ff191660011790556125003390565b6001600160a01b0316816001600160a01b0316837f2f8788117e7eff1d82e926ec794901d17c78024a50270940304540a733656f0d60405160405180910390a45050565b61254e8282611a4c565b156110765760008281526014602090815260408083206001600160a01b0385168085529252808320805460ff1916905551339285917ff6391f5c32d9c69d2a47ea670b442974b53935d1edc7fd64eb21e047a839171b9190a45050565b61107682826124be565b606060006125c4836002612ee3565b6125cf906002612ecb565b67ffffffffffffffff8111156125f557634e487b7160e01b600052604160045260246000fd5b6040519080825280601f01601f19166020018201604052801561261f576020820181803683370190505b509050600360fc1b8160008151811061264857634e487b7160e01b600052603260045260246000fd5b60200101906001600160f81b031916908160001a905350600f60fb1b8160018151811061268557634e487b7160e01b600052603260045260246000fd5b60200101906001600160f81b031916908160001a90535060006126a9846002612ee3565b6126b4906001612ecb565b90505b6001811115612748576f181899199a1a9b1b9c1cb0b131b232b360811b85600f16601081106126f657634e487b7160e01b600052603260045260246000fd5b1a60f81b82828151811061271a57634e487b7160e01b600052603260045260246000fd5b60200101906001600160f81b031916908160001a90535060049490941c9361274181612f49565b90506126b7565b5083156127975760405162461bcd60e51b815260206004820181905260248201527f537472696e67733a20686578206c656e67746820696e73756666696369656e7460448201526064016107cc565b9392505050565b60008083601f8401126127af578081fd5b50813567ffffffffffffffff8111156127c6578182fd5b6020830191508360208260051b85010111156127e157600080fd5b9250929050565b6000602082840312156127f9578081fd5b813561279781612fe2565b600060208284031215612815578081fd5b815161279781612fe2565b600060208284031215612831578081fd5b81518015158114612797578182fd5b600060208284031215612851578081fd5b5035919050565b6000806040838503121561286a578081fd5b82359150602083013561287c81612fe2565b809150509250929050565b600060208284031215612898578081fd5b81356001600160e01b031981168114612797578182fd5b6000602082840312156128c0578081fd5b5051919050565b600080604083850312156128d9578182fd5b8235915060208084013567ffffffffffffffff808211156128f8578384fd5b818601915086601f83011261290b578384fd5b81358181111561291d5761291d612fcc565b8060051b604051601f19603f8301168101818110858211171561294257612942612fcc565b604052828152858101935084860182860187018b1015612960578788fd5b8795505b83861015612982578035855260019590950194938601938601612964565b508096505050505050509250929050565b6000806000606084860312156129a7578081fd5b8351925060208401516129b981612fe2565b60408501519092506001600160601b03811681146129d5578182fd5b809150509250925092565b600080600080600080608087890312156129f8578182fd5b8635955060208701359450604087013567ffffffffffffffff80821115612a1d578384fd5b612a298a838b0161279e565b90965094506060890135915080821115612a41578384fd5b50612a4e89828a0161279e565b979a9699509497509295939492505050565b81835260006001600160fb1b03831115612a78578081fd5b8260051b80836020870137939093016020019283525090919050565b6000815180845260208085019450808401835b83811015612ac357815187529582019590820190600101612aa7565b509495945050505050565b80516001600160a01b039081168352602080830151821690840152604080830151908401526060808301519084015260809182015116910152565b80546001600160a01b039081168352600182015481166020840152600282015460408401526003820154606084015260049091015416608090910152565b76020b1b1b2b9b9a1b7b73a3937b61d1030b1b1b7bab73a1604d1b815260008351612b79816017850160208801612f19565b7001034b99036b4b9b9b4b733903937b6329607d1b6017918401918201528351612baa816028840160208801612f19565b01602801949350505050565b6001600160a01b0391909116815260200190565b6020815260008251806020840152612be9816040850160208701612f19565b601f01601f19169190910160400192915050565b6020808252601390820152725661756c743a207a65726f206164647265737360681b604082015260600190565b60208082526010908201526f77726f6e6720636c61696d206461746160801b604082015260600190565b60208082526022908201527f41636365737369626c653a2043616c6c6572206973206e6f7420616e2061646d60408201526134b760f11b606082015260800190565b60208082526018908201527741636365737369626c653a207a65726f206164647265737360401b604082015260600190565b60208082526028908201527f41636365737369626c653a2043616c6c6572206973206e6f7420616e2070726f6040820152673c3c9030b236b4b760c11b606082015260800190565b60208082526016908201527520b1b1b2b9b9b4b136329d1039b0b6b29030b236b4b760511b604082015260600190565b6020808252601790820152763732b2b2103a379034b7383aba103a3432903a37b5b2b760491b604082015260600190565b6020808252600c908201526b73616d65206164647265737360a01b604082015260600190565b6020808252601f908201527f5265656e7472616e637947756172643a207265656e7472616e742063616c6c00604082015260600190565b6020808252600b908201526a185b1c9958591e481cd95d60aa1b604082015260600190565b60c08101612e018285612ace565b8260a08301529392505050565b60e08101612e1c8286612ace565b8360a083015282151560c0830152949350505050565b60a081016106da8284612b09565b60c08101612e018285612b09565b848152608060208201526000612e676080830186612a94565b8281036040840152612e798186612a94565b91505082606083015295945050505050565b868152856020820152608060408201526000612eab608083018688612a60565b8281036060840152612ebe818587612a60565b9998505050505050505050565b60008219821115612ede57612ede612fb6565b500190565b6000816000190483118215151615612efd57612efd612fb6565b500290565b600082821015612f1457612f14612fb6565b500390565b60005b83811015612f34578181015183820152602001612f1c565b83811115612f43576000848401525b50505050565b600081612f5857612f58612fb6565b506000190190565b600181811c90821680612f7457607f821691505b60208210811415612f9557634e487b7160e01b600052602260045260246000fd5b50919050565b6000600019821415612faf57612faf612fb6565b5060010190565b634e487b7160e01b600052601160045260246000fd5b634e487b7160e01b600052604160045260246000fd5b6001600160a01b038116811461125657600080fdfe52eafc11f6f81f86878bffd31109a0d92f37506527754f00788853ff9f63b130a26469706673582212206b20031c7f992c8f49ff14f4191bcfcb8ae23a43cf85777b4cd674e63d4d47e264736f6c63430008040033",
  "linkReferences": {},
  "deployedLinkReferences": {}
}