{
  "_format": "hh-sol-artifact-1",
  "contractName": "RewardProgramVault",
  "sourceName": "contracts/typeEVault/RewardProgramVault.sol",
  "abi": [
    {
      "inputs": [],
      "stateMutability": "nonpayable",
      "type": "constructor"
    },
    {
      "anonymous": false,
      "inputs": [
        {
          "indexed": false,
          "internalType": "uint256",
          "name": "idx",
          "type": "uint256"
        },
        {
          "indexed": true,
          "internalType": "address",
          "name": "rewardToken",
          "type": "address"
        },
        {
          "indexed": true,
          "internalType": "address",
          "name": "pool",
          "type": "address"
        },
        {
          "indexed": false,
          "internalType": "uint256",
          "name": "startTime",
          "type": "uint256"
        },
        {
          "indexed": false,
          "internalType": "uint256",
          "name": "endTime",
          "type": "uint256"
        },
        {
          "indexed": false,
          "internalType": "address",
          "name": "refundee",
          "type": "address"
        },
        {
          "indexed": false,
          "internalType": "uint256",
          "name": "reward",
          "type": "uint256"
        }
      ],
      "name": "IncentiveCreatedByRewardProgram",
      "type": "event"
    },
    {
      "anonymous": false,
      "inputs": [
        {
          "indexed": false,
          "internalType": "uint256",
          "name": "_totalAllocatedAmount",
          "type": "uint256"
        },
        {
          "indexed": false,
          "internalType": "uint256",
          "name": "_claimCounts",
          "type": "uint256"
        },
        {
          "indexed": false,
          "internalType": "uint256[]",
          "name": "_claimTimes",
          "type": "uint256[]"
        },
        {
          "indexed": false,
          "internalType": "uint256[]",
          "name": "_claimAmounts",
          "type": "uint256[]"
        }
      ],
      "name": "Initialized",
      "type": "event"
    },
    {
      "anonymous": false,
      "inputs": [
        {
          "indexed": true,
          "internalType": "bytes32",
          "name": "role",
          "type": "bytes32"
        },
        {
          "indexed": true,
          "internalType": "bytes32",
          "name": "previousAdminRole",
          "type": "bytes32"
        },
        {
          "indexed": true,
          "internalType": "bytes32",
          "name": "newAdminRole",
          "type": "bytes32"
        }
      ],
      "name": "RoleAdminChanged",
      "type": "event"
    },
    {
      "anonymous": false,
      "inputs": [
        {
          "indexed": true,
          "internalType": "bytes32",
          "name": "role",
          "type": "bytes32"
        },
        {
          "indexed": true,
          "internalType": "address",
          "name": "account",
          "type": "address"
        },
        {
          "indexed": true,
          "internalType": "address",
          "name": "sender",
          "type": "address"
        }
      ],
      "name": "RoleGranted",
      "type": "event"
    },
    {
      "anonymous": false,
      "inputs": [
        {
          "indexed": true,
          "internalType": "bytes32",
          "name": "role",
          "type": "bytes32"
        },
        {
          "indexed": true,
          "internalType": "address",
          "name": "account",
          "type": "address"
        },
        {
          "indexed": true,
          "internalType": "address",
          "name": "sender",
          "type": "address"
        }
      ],
      "name": "RoleRevoked",
      "type": "event"
    },
    {
      "inputs": [],
      "name": "DEFAULT_ADMIN_ROLE",
      "outputs": [
        {
          "internalType": "bytes32",
          "name": "",
          "type": "bytes32"
        }
      ],
      "stateMutability": "view",
      "type": "function"
    },
    {
      "inputs": [],
      "name": "PROJECT_ADMIN_ROLE",
      "outputs": [
        {
          "internalType": "bytes32",
          "name": "",
          "type": "bytes32"
        }
      ],
      "stateMutability": "view",
      "type": "function"
    },
    {
      "inputs": [
        {
          "internalType": "address",
          "name": "account",
          "type": "address"
        }
      ],
      "name": "addAdmin",
      "outputs": [],
      "stateMutability": "nonpayable",
      "type": "function"
    },
    {
      "inputs": [
        {
          "internalType": "address",
          "name": "_owner",
          "type": "address"
        }
      ],
      "name": "addProxyAdmin",
      "outputs": [],
      "stateMutability": "nonpayable",
      "type": "function"
    },
    {
      "inputs": [
        {
          "internalType": "address",
          "name": "",
          "type": "address"
        }
      ],
      "name": "aliveImplementation",
      "outputs": [
        {
          "internalType": "bool",
          "name": "",
          "type": "bool"
        }
      ],
      "stateMutability": "view",
      "type": "function"
    },
    {
      "inputs": [
        {
          "internalType": "uint256",
          "name": "_round",
          "type": "uint256"
        }
      ],
      "name": "availableUseAmount",
      "outputs": [
        {
          "internalType": "uint256",
          "name": "amount",
          "type": "uint256"
        }
      ],
      "stateMutability": "view",
      "type": "function"
    },
    {
      "inputs": [
        {
          "internalType": "address",
          "name": "_pool",
          "type": "address"
        }
      ],
      "name": "changePool",
      "outputs": [],
      "stateMutability": "nonpayable",
      "type": "function"
    },
    {
      "inputs": [
        {
          "internalType": "uint256",
          "name": "_startWaitTime",
          "type": "uint256"
        },
        {
          "internalType": "uint256",
          "name": "_programDuration",
          "type": "uint256"
        }
      ],
      "name": "changeSetting",
      "outputs": [],
      "stateMutability": "nonpayable",
      "type": "function"
    },
    {
      "inputs": [
        {
          "internalType": "address",
          "name": "_staker",
          "type": "address"
        }
      ],
      "name": "changeStaker",
      "outputs": [],
      "stateMutability": "nonpayable",
      "type": "function"
    },
    {
      "inputs": [
        {
          "internalType": "address",
          "name": "_token",
          "type": "address"
        }
      ],
      "name": "changeToken",
      "outputs": [],
      "stateMutability": "nonpayable",
      "type": "function"
    },
    {
      "inputs": [
        {
          "internalType": "uint256",
          "name": "",
          "type": "uint256"
        }
      ],
      "name": "claimAmounts",
      "outputs": [
        {
          "internalType": "uint256",
          "name": "",
          "type": "uint256"
        }
      ],
      "stateMutability": "view",
      "type": "function"
    },
    {
      "inputs": [
        {
          "internalType": "uint256",
          "name": "",
          "type": "uint256"
        }
      ],
      "name": "claimTimes",
      "outputs": [
        {
          "internalType": "uint256",
          "name": "",
          "type": "uint256"
        }
      ],
      "stateMutability": "view",
      "type": "function"
    },
    {
      "inputs": [],
      "name": "createProgram",
      "outputs": [],
      "stateMutability": "nonpayable",
      "type": "function"
    },
    {
      "inputs": [],
      "name": "currentRound",
      "outputs": [
        {
          "internalType": "uint256",
          "name": "round",
          "type": "uint256"
        }
      ],
      "stateMutability": "view",
      "type": "function"
    },
    {
      "inputs": [],
      "name": "getClaimInfo",
      "outputs": [
        {
          "internalType": "uint256",
          "name": "_totalClaimCounts",
          "type": "uint256"
        },
        {
          "internalType": "uint256[]",
          "name": "_claimTimes",
          "type": "uint256[]"
        },
        {
          "internalType": "uint256[]",
          "name": "_claimAmounts",
          "type": "uint256[]"
        },
        {
          "internalType": "uint256",
          "name": "_totalClaimsAmount",
          "type": "uint256"
        }
      ],
      "stateMutability": "view",
      "type": "function"
    },
    {
      "inputs": [
        {
          "internalType": "bytes32",
          "name": "role",
          "type": "bytes32"
        }
      ],
      "name": "getRoleAdmin",
      "outputs": [
        {
          "internalType": "bytes32",
          "name": "",
          "type": "bytes32"
        }
      ],
      "stateMutability": "view",
      "type": "function"
    },
    {
      "inputs": [
        {
          "internalType": "bytes32",
          "name": "role",
          "type": "bytes32"
        },
        {
          "internalType": "address",
          "name": "account",
          "type": "address"
        }
      ],
      "name": "grantRole",
      "outputs": [],
      "stateMutability": "nonpayable",
      "type": "function"
    },
    {
      "inputs": [
        {
          "internalType": "bytes32",
          "name": "role",
          "type": "bytes32"
        },
        {
          "internalType": "address",
          "name": "account",
          "type": "address"
        }
      ],
      "name": "hasRole",
      "outputs": [
        {
          "internalType": "bool",
          "name": "",
          "type": "bool"
        }
      ],
      "stateMutability": "view",
      "type": "function"
    },
    {
      "inputs": [
        {
          "internalType": "uint256",
          "name": "_totalAllocatedAmount",
          "type": "uint256"
        },
        {
          "internalType": "uint256",
          "name": "_claimCounts",
          "type": "uint256"
        },
        {
          "internalType": "uint256[]",
          "name": "_claimTimes",
          "type": "uint256[]"
        },
        {
          "internalType": "uint256[]",
          "name": "_claimAmounts",
          "type": "uint256[]"
        }
      ],
      "name": "initialize",
      "outputs": [],
      "stateMutability": "nonpayable",
      "type": "function"
    },
    {
      "inputs": [
        {
          "internalType": "address",
          "name": "account",
          "type": "address"
        }
      ],
      "name": "isAdmin",
      "outputs": [
        {
          "internalType": "bool",
          "name": "",
          "type": "bool"
        }
      ],
      "stateMutability": "view",
      "type": "function"
    },
    {
      "inputs": [
        {
          "internalType": "address",
          "name": "account",
          "type": "address"
        }
      ],
      "name": "isProxyAdmin",
      "outputs": [
        {
          "internalType": "bool",
          "name": "",
          "type": "bool"
        }
      ],
      "stateMutability": "view",
      "type": "function"
    },
    {
      "inputs": [],
      "name": "name",
      "outputs": [
        {
          "internalType": "string",
          "name": "",
          "type": "string"
        }
      ],
      "stateMutability": "view",
      "type": "function"
    },
    {
      "inputs": [],
      "name": "nowClaimRound",
      "outputs": [
        {
          "internalType": "uint256",
          "name": "",
          "type": "uint256"
        }
      ],
      "stateMutability": "view",
      "type": "function"
    },
    {
      "inputs": [],
      "name": "pauseProxy",
      "outputs": [
        {
          "internalType": "bool",
          "name": "",
          "type": "bool"
        }
      ],
      "stateMutability": "view",
      "type": "function"
    },
    {
      "inputs": [],
      "name": "pool",
      "outputs": [
        {
          "internalType": "contract IUniswapV3Pool",
          "name": "",
          "type": "address"
        }
      ],
      "stateMutability": "view",
      "type": "function"
    },
    {
      "inputs": [],
      "name": "programDuration",
      "outputs": [
        {
          "internalType": "uint256",
          "name": "",
          "type": "uint256"
        }
      ],
      "stateMutability": "view",
      "type": "function"
    },
    {
      "inputs": [
        {
          "internalType": "uint256",
          "name": "",
          "type": "uint256"
        }
      ],
      "name": "programs",
      "outputs": [
        {
          "components": [
            {
              "internalType": "contract IERC20Minimal",
              "name": "rewardToken",
              "type": "address"
            },
            {
              "internalType": "contract IUniswapV3Pool",
              "name": "pool",
              "type": "address"
            },
            {
              "internalType": "uint256",
              "name": "startTime",
              "type": "uint256"
            },
            {
              "internalType": "uint256",
              "name": "endTime",
              "type": "uint256"
            },
            {
              "internalType": "address",
              "name": "refundee",
              "type": "address"
            }
          ],
          "internalType": "struct IUniswapV3Staker.IncentiveKey",
          "name": "key",
          "type": "tuple"
        },
        {
          "internalType": "uint256",
          "name": "reward",
          "type": "uint256"
        }
      ],
      "stateMutability": "view",
      "type": "function"
    },
    {
      "inputs": [
        {
          "internalType": "uint256",
          "name": "",
          "type": "uint256"
        }
      ],
      "name": "proxyImplementation",
      "outputs": [
        {
          "internalType": "address",
          "name": "",
          "type": "address"
        }
      ],
      "stateMutability": "view",
      "type": "function"
    },
    {
      "inputs": [],
      "name": "removeAdmin",
      "outputs": [],
      "stateMutability": "nonpayable",
      "type": "function"
    },
    {
      "inputs": [],
      "name": "removeProxyAdmin",
      "outputs": [],
      "stateMutability": "nonpayable",
      "type": "function"
    },
    {
      "inputs": [
        {
          "internalType": "bytes32",
          "name": "role",
          "type": "bytes32"
        },
        {
          "internalType": "address",
          "name": "account",
          "type": "address"
        }
      ],
      "name": "renounceRole",
      "outputs": [],
      "stateMutability": "nonpayable",
      "type": "function"
    },
    {
      "inputs": [
        {
          "internalType": "bytes32",
          "name": "role",
          "type": "bytes32"
        },
        {
          "internalType": "address",
          "name": "account",
          "type": "address"
        }
      ],
      "name": "revokeRole",
      "outputs": [],
      "stateMutability": "nonpayable",
      "type": "function"
    },
    {
      "inputs": [
        {
          "internalType": "bytes4",
          "name": "",
          "type": "bytes4"
        }
      ],
      "name": "selectorImplementation",
      "outputs": [
        {
          "internalType": "address",
          "name": "",
          "type": "address"
        }
      ],
      "stateMutability": "view",
      "type": "function"
    },
    {
      "inputs": [],
      "name": "staker",
      "outputs": [
        {
          "internalType": "contract IUniswapV3Staker",
          "name": "",
          "type": "address"
        }
      ],
      "stateMutability": "view",
      "type": "function"
    },
    {
      "inputs": [],
      "name": "startWaitTime",
      "outputs": [
        {
          "internalType": "uint256",
          "name": "",
          "type": "uint256"
        }
      ],
      "stateMutability": "view",
      "type": "function"
    },
    {
      "inputs": [
        {
          "internalType": "bytes4",
          "name": "interfaceId",
          "type": "bytes4"
        }
      ],
      "name": "supportsInterface",
      "outputs": [
        {
          "internalType": "bool",
          "name": "",
          "type": "bool"
        }
      ],
      "stateMutability": "view",
      "type": "function"
    },
    {
      "inputs": [],
      "name": "token",
      "outputs": [
        {
          "internalType": "contract IERC20Minimal",
          "name": "",
          "type": "address"
        }
      ],
      "stateMutability": "view",
      "type": "function"
    },
    {
      "inputs": [],
      "name": "totalAllocatedAmount",
      "outputs": [
        {
          "internalType": "uint256",
          "name": "",
          "type": "uint256"
        }
      ],
      "stateMutability": "view",
      "type": "function"
    },
    {
      "inputs": [],
      "name": "totalClaimCounts",
      "outputs": [
        {
          "internalType": "uint256",
          "name": "",
          "type": "uint256"
        }
      ],
      "stateMutability": "view",
      "type": "function"
    },
    {
      "inputs": [],
      "name": "totalClaimsAmount",
      "outputs": [
        {
          "internalType": "uint256",
          "name": "",
          "type": "uint256"
        }
      ],
      "stateMutability": "view",
      "type": "function"
    },
    {
      "inputs": [],
      "name": "totalProgramCount",
      "outputs": [
        {
          "internalType": "uint256",
          "name": "",
          "type": "uint256"
        }
      ],
      "stateMutability": "view",
      "type": "function"
    },
    {
      "inputs": [
        {
          "internalType": "address",
          "name": "newAdmin",
          "type": "address"
        }
      ],
      "name": "transferAdmin",
      "outputs": [],
      "stateMutability": "nonpayable",
      "type": "function"
    },
    {
      "inputs": [
        {
          "internalType": "address",
          "name": "newAdmin",
          "type": "address"
        }
      ],
      "name": "transferProxyAdmin",
      "outputs": [],
      "stateMutability": "nonpayable",
      "type": "function"
    }
  ],
  "bytecode": "0x60806040526000600a5534801561001557600080fd5b5061212c806100256000396000f3fe608060405234801561001057600080fd5b50600436106102695760003560e01c806375829def11610151578063a77a29fc116100c3578063be72f2d311610087578063be72f2d3146105ad578063cfc412be146105b5578063d547741f146105be578063ed5131f5146105d1578063f47f2f1d146105e4578063fc0c546a146105f757600080fd5b8063a77a29fc14610542578063ab55979d14610555578063b911135f14610568578063b99473d914610591578063b9b548501461059a57600080fd5b806391d148541161011557806391d148541461047f57806392db28161461049257806396f1557c1461050c57806397aca93b1461051f5780639a202d4714610532578063a217fddf1461053a57600080fd5b806375829def146104305780637a6072af146104435780638356ca4f1461044c578063851824161461045f5780638a19c8bc1461047757600080fd5b806336568abe116101ea57806355640008116101ae57806355640008146103d85780635ebaf1db146103e15780635f41e81d146103f457806363a8fd89146103fd57806366829b161461040a578063704802751461041d57600080fd5b806336568abe1461035157806341c04d5e146103645780634339bc301461037957806350d2a2761461038c578063550d01a3146103b557600080fd5b8063248a9ca311610231578063248a9ca3146102f557806324d7806c14610318578063256019d61461032b57806327377051146103345780632f2ff15d1461033e57600080fd5b806301ffc9a71461026e57806306fdde03146102965780630f4388c0146102ab578063117ab874146102cc57806316f0115b146102d5575b600080fd5b61028161027c366004611ba1565b61060a565b60405190151581526020015b60405180910390f35b61029e610641565b60405161028d9190611d73565b6102be6102b9366004611b5e565b6106cf565b60405190815260200161028d565b6102be600a5481565b6001546102e8906001600160a01b031681565b60405161028d9190611d5f565b6102be610303366004611b5e565b60009081526012602052604090206001015490565b610281610326366004611b24565b6106f0565b6102be60095481565b61033c61070a565b005b61033c61034c366004611b76565b61086e565b61033c61035f366004611b76565b610899565b6102be6000805160206120d783398151915281565b61033c610387366004611b24565b610917565b6102e861039a366004611ba1565b6011602052600090815260409020546001600160a01b031681565b6102816103c3366004611b24565b60106020526000908152604090205460ff1681565b6102be60085481565b6002546102e8906001600160a01b031681565b6102be60055481565b600e546102819060ff1681565b61033c610418366004611b24565b6109b4565b61033c61042b366004611b24565b610ab6565b61033c61043e366004611b24565b610af6565b6102be60045481565b61033c61045a366004611b24565b610ba9565b610467610c33565b60405161028d9493929190611f58565b6102be610cf6565b61028161048d366004611b76565b610df7565b6104fe6104a0366004611b5e565b600360208181526000928352604092839020835160a08101855281546001600160a01b039081168252600183015481169382019390935260028201549481019490945291820154606084015260048201541660808301526005015482565b60405161028d929190611f10565b61033c61051a366004611b24565b610e22565b6102be61052d366004611b5e565b610e52565b61033c610f72565b6102be600081565b61033c610550366004611c02565b610fc0565b61033c610563366004611b24565b611355565b6102e8610576366004611b5e565b600f602052600090815260409020546001600160a01b031681565b6102be60065481565b61033c6105a8366004611be1565b6113f2565b61033c611475565b6102be600b5481565b61033c6105cc366004611b76565b6114a5565b6102be6105df366004611b5e565b6114cb565b6102816105f2366004611b24565b6114db565b6000546102e8906001600160a01b031681565b60006001600160e01b03198216637965db0b60e01b148061063b57506301ffc9a760e01b6001600160e01b03198316145b92915050565b6007805461064e9061206a565b80601f016020809104026020016040519081016040528092919081815260200182805461067a9061206a565b80156106c75780601f1061069c576101008083540402835291602001916106c7565b820191906000526020600020905b8154815290600101906020018083116106aa57829003601f168201915b505050505081565b600d81815481106106df57600080fd5b600091825260209091200154905081565b600061063b6000805160206120d783398151915283610df7565b6001546001600160a01b03168061073c5760405162461bcd60e51b815260040161073390611da6565b60405180910390fd5b600b54600854116107885760405162461bcd60e51b815260206004820152601660248201527515985d5b1d0e88185b1c9958591e48105b1b0819d95d60521b6044820152606401610733565b6000610792610cf6565b9050600061079f82610e52565b9050600081116107e75760405162461bcd60e51b81526020600482015260136024820152721b9bc818db185a5b58589b1948185b5bdd5b9d606a1b6044820152606401610733565b600a8290556040805160a0810182526000546001600160a01b039081168252600154166020820152600554610852928201906108239042611fd5565b8152602001600654600554426108399190611fd5565b6108439190611fd5565b815230602090910152826114e7565b80600b60008282546108649190611fd5565b9091555050505050565b60008281526012602052604090206001015461088a813361177f565b61089483836117e3565b505050565b6001600160a01b03811633146109095760405162461bcd60e51b815260206004820152602f60248201527f416363657373436f6e74726f6c3a2063616e206f6e6c792072656e6f756e636560448201526e103937b632b9903337b91039b2b63360891b6064820152608401610733565b6109138282611869565b5050565b610920336114db565b61093c5760405162461bcd60e51b815260040161073390611e47565b806001600160a01b0381166109635760405162461bcd60e51b815260040161073390611da6565b6001546001600160a01b03838116911614156109915760405162461bcd60e51b815260040161073390611eea565b50600180546001600160a01b0319166001600160a01b0392909216919091179055565b6109bd336114db565b6109d95760405162461bcd60e51b815260040161073390611e47565b806001600160a01b038116610a005760405162461bcd60e51b815260040161073390611da6565b60095415610a655760405162461bcd60e51b815260206004820152602c60248201527f616c72656164792073657420636c61696d20696e666f2c2063616e6e6f74206360448201526b3430b733b2903a37b5b2b71760a11b6064820152608401610733565b6000546001600160a01b0383811691161415610a935760405162461bcd60e51b815260040161073390611eea565b50600080546001600160a01b0319166001600160a01b0392909216919091179055565b610abf336114db565b610adb5760405162461bcd60e51b815260040161073390611e47565b610af36000805160206120d78339815191528261086e565b50565b610aff336106f0565b80610b0e5750610b0e336114db565b610b2a5760405162461bcd60e51b815260040161073390611dd3565b6001600160a01b038116610b505760405162461bcd60e51b815260040161073390611e15565b336001600160a01b0382161415610b795760405162461bcd60e51b815260040161073390611eba565b610b916000805160206120d78339815191528261086e565b610af36000805160206120d783398151915233610899565b610bb2336114db565b610bce5760405162461bcd60e51b815260040161073390611e47565b6001600160a01b038116610bf45760405162461bcd60e51b815260040161073390611e15565b336001600160a01b0382161415610c1d5760405162461bcd60e51b815260040161073390611eba565b610c2860008261086e565b610af3600033610899565b60006060806000600954600c600d600b5482805480602002602001604051908101604052809291908181526020018280548015610c8f57602002820191906000526020600020905b815481526020019060010190808311610c7b575b5050505050925081805480602002602001604051908101604052809291908181526020018280548015610ce157602002820191906000526020600020905b815481526020019060010190808311610ccd575b50505050509150935093509350935090919293565b6009546000905b8015610df357600c600081548110610d2557634e487b7160e01b600052603260045260246000fd5b9060005260206000200154421015610d405760009150610de1565b600c610d4d60018361200c565b81548110610d6b57634e487b7160e01b600052603260045260246000fd5b906000526020600020015442108015610d8357508015155b15610d9a57610d9360018261200c565b9150610de1565b600c6001600954610dab919061200c565b81548110610dc957634e487b7160e01b600052603260045260246000fd5b9060005260206000200154421115610de15760095491505b80610deb81612053565b915050610cfd565b5090565b60009182526012602090815260408084206001600160a01b0393909316845291905290205460ff1690565b610e2b336114db565b610e475760405162461bcd60e51b815260040161073390611e47565b610af36000826118d0565b6000811580610e625750600d5482115b15610e6f57506000919050565b600080546040516370a0823160e01b81526001600160a01b03909116906370a0823190610ea0903090600401611d5f565b60206040518083038186803b158015610eb857600080fd5b505afa158015610ecc573d6000803e3d6000fd5b505050506040513d601f19601f82011682018060405250810190610ef09190611bc9565b90506000835b600d54811015610f4b57600d8181548110610f2157634e487b7160e01b600052603260045260246000fd5b906000526020600020015482610f379190611fd5565b915080610f43816120a5565b915050610ef6565b5080821115610f6557610f5e818361200c565b9250610f6a565b600092505b50505b919050565b610f7b336106f0565b80610f8a5750610f8a336114db565b610fa65760405162461bcd60e51b815260040161073390611dd3565b610fbe6000805160206120d783398151915233610899565b565b610fc9336106f0565b80610fd85750610fd8336114db565b610ff45760405162461bcd60e51b815260040161073390611dd3565b600954158061103a5750600c541580159061103a5750600c60008154811061102c57634e487b7160e01b600052603260045260246000fd5b906000526020600020015442105b6110745760405162461bcd60e51b815260206004820152600b60248201526a185b1c9958591e481cd95d60aa1b6044820152606401610733565b60008511801561108357508285145b801561108e57508085145b6110cd5760405162461bcd60e51b815260206004820152601060248201526f77726f6e6720636c61696d206461746160801b6044820152606401610733565b6000546040516370a0823160e01b81526001600160a01b03909116906370a08231906110fd903090600401611d5f565b60206040518083038186803b15801561111557600080fd5b505afa158015611129573d6000803e3d6000fd5b505050506040513d601f19601f8201168201806040525081019061114d9190611bc9565b8611156111965760405162461bcd60e51b81526020600482015260176024820152763732b2b2103a379034b7383aba103a3432903a37b5b2b760491b6044820152606401610733565b6008869055600985905560005b8581101561130b57600c5481106111fd57600c8585838181106111d657634e487b7160e01b600052603260045260246000fd5b83546001810185556000948552602094859020919094029290920135919092015550611252565b84848281811061121d57634e487b7160e01b600052603260045260246000fd5b90506020020135600c828154811061124557634e487b7160e01b600052603260045260246000fd5b6000918252602090912001555b600d5481106112a457600d83838381811061127d57634e487b7160e01b600052603260045260246000fd5b835460018101855560009485526020948590209190940292909201359190920155506112f9565b8282828181106112c457634e487b7160e01b600052603260045260246000fd5b90506020020135600d82815481106112ec57634e487b7160e01b600052603260045260246000fd5b6000918252602090912001555b80611303816120a5565b9150506111a3565b507f71f6556aa6e2b0794b08114e76e8b43767586d3c024af0f9ff122b38f0efb0b386868686868660405161134596959493929190611f95565b60405180910390a1505050505050565b61135e336114db565b61137a5760405162461bcd60e51b815260040161073390611e47565b806001600160a01b0381166113a15760405162461bcd60e51b815260040161073390611da6565b6002546001600160a01b03838116911614156113cf5760405162461bcd60e51b815260040161073390611eea565b50600280546001600160a01b0319166001600160a01b0392909216919091179055565b6113fb336106f0565b8061140a575061140a336114db565b6114265760405162461bcd60e51b815260040161073390611dd3565b81600081116114475760405162461bcd60e51b815260040161073390611e8f565b81600081116114685760405162461bcd60e51b815260040161073390611e8f565b5050600591909155600655565b61147e336114db565b61149a5760405162461bcd60e51b815260040161073390611e47565b610fbe600033610899565b6000828152601260205260409020600101546114c1813361177f565b6108948383611869565b600c81815481106106df57600080fd5b600061063b8183610df7565b600054600254604051636eb1769f60e11b81523060048201526001600160a01b0391821660248201528392919091169063dd62ed3e9060440160206040518083038186803b15801561153857600080fd5b505afa15801561154c573d6000803e3d6000fd5b505050506040513d601f19601f820116820180604052508101906115709190611bc9565b10156116045760005460025460085460405163095ea7b360e01b81526001600160a01b039283166004820152602481019190915291169063095ea7b390604401602060405180830381600087803b1580156115ca57600080fd5b505af11580156115de573d6000803e3d6000fd5b505050506040513d601f19601f820116820180604052508101906116029190611b3e565b505b600254604051635cc5e3d960e01b81526001600160a01b0390911690635cc5e3d9906116369085908590600401611f10565b600060405180830381600087803b15801561165057600080fd5b505af1158015611664573d6000803e3d6000fd5b5050600480546040805180820182528781526020808201888152600085815260038084528582209451805186546001600160a01b03199081166001600160a01b03928316178855958201516001880180548816918316919091179055968101516002870155606081015191860191909155608001518488018054909416951694909417909155516005909101558254919450909250611702836120a5565b909155505060208084015184516040808701516060808901516080808b015185518a815298890194909452938701526001600160a01b0391821690860152908401869052918216929116907f3e20e2fe976b54d05e21a488ed708fe20f7d9613447272c19e75a311e321de679060a00160405180910390a3505050565b6117898282610df7565b610913576117a1816001600160a01b031660146118da565b6117ac8360206118da565b6040516020016117bd929190611cf0565b60408051601f198184030181529082905262461bcd60e51b825261073391600401611d73565b6117ed8282610df7565b6109135760008281526012602090815260408083206001600160a01b03851684529091529020805460ff191660011790556118253390565b6001600160a01b0316816001600160a01b0316837f2f8788117e7eff1d82e926ec794901d17c78024a50270940304540a733656f0d60405160405180910390a45050565b6118738282610df7565b156109135760008281526012602090815260408083206001600160a01b0385168085529252808320805460ff1916905551339285917ff6391f5c32d9c69d2a47ea670b442974b53935d1edc7fd64eb21e047a839171b9190a45050565b61091382826117e3565b606060006118e9836002611fed565b6118f4906002611fd5565b67ffffffffffffffff81111561191a57634e487b7160e01b600052604160045260246000fd5b6040519080825280601f01601f191660200182016040528015611944576020820181803683370190505b509050600360fc1b8160008151811061196d57634e487b7160e01b600052603260045260246000fd5b60200101906001600160f81b031916908160001a905350600f60fb1b816001815181106119aa57634e487b7160e01b600052603260045260246000fd5b60200101906001600160f81b031916908160001a90535060006119ce846002611fed565b6119d9906001611fd5565b90505b6001811115611a6d576f181899199a1a9b1b9c1cb0b131b232b360811b85600f1660108110611a1b57634e487b7160e01b600052603260045260246000fd5b1a60f81b828281518110611a3f57634e487b7160e01b600052603260045260246000fd5b60200101906001600160f81b031916908160001a90535060049490941c93611a6681612053565b90506119dc565b508315611abc5760405162461bcd60e51b815260206004820181905260248201527f537472696e67733a20686578206c656e67746820696e73756666696369656e746044820152606401610733565b9392505050565b80356001600160a01b0381168114610f6d57600080fd5b60008083601f840112611aeb578182fd5b50813567ffffffffffffffff811115611b02578182fd5b6020830191508360208260051b8501011115611b1d57600080fd5b9250929050565b600060208284031215611b35578081fd5b611abc82611ac3565b600060208284031215611b4f578081fd5b81518015158114611abc578182fd5b600060208284031215611b6f578081fd5b5035919050565b60008060408385031215611b88578081fd5b82359150611b9860208401611ac3565b90509250929050565b600060208284031215611bb2578081fd5b81356001600160e01b031981168114611abc578182fd5b600060208284031215611bda578081fd5b5051919050565b60008060408385031215611bf3578182fd5b50508035926020909101359150565b60008060008060008060808789031215611c1a578182fd5b8635955060208701359450604087013567ffffffffffffffff80821115611c3f578384fd5b611c4b8a838b01611ada565b90965094506060890135915080821115611c63578384fd5b50611c7089828a01611ada565b979a9699509497509295939492505050565b81835260006001600160fb1b03831115611c9a578081fd5b8260051b80836020870137939093016020019283525090919050565b6000815180845260208085019450808401835b83811015611ce557815187529582019590820190600101611cc9565b509495945050505050565b76020b1b1b2b9b9a1b7b73a3937b61d1030b1b1b7bab73a1604d1b815260008351611d22816017850160208801612023565b7001034b99036b4b9b9b4b733903937b6329607d1b6017918401918201528351611d53816028840160208801612023565b01602801949350505050565b6001600160a01b0391909116815260200190565b6020815260008251806020840152611d92816040850160208701612023565b601f01601f19169190910160400192915050565b6020808252601390820152725661756c743a207a65726f206164647265737360681b604082015260600190565b60208082526022908201527f41636365737369626c653a2043616c6c6572206973206e6f7420616e2061646d60408201526134b760f11b606082015260800190565b60208082526018908201527741636365737369626c653a207a65726f206164647265737360401b604082015260600190565b60208082526028908201527f41636365737369626c653a2043616c6c6572206973206e6f7420616e2070726f6040820152673c3c9030b236b4b760c11b606082015260800190565b6020808252601190820152705661756c743a207a65726f2076616c756560781b604082015260600190565b60208082526016908201527520b1b1b2b9b9b4b136329d1039b0b6b29030b236b4b760511b604082015260600190565b6020808252600c908201526b73616d65206164647265737360a01b604082015260600190565b82516001600160a01b0390811682526020808501518216908301526040808501519083015260608085015190830152608093840151169281019290925260a082015260c00190565b848152608060208201526000611f716080830186611cb6565b8281036040840152611f838186611cb6565b91505082606083015295945050505050565b868152856020820152608060408201526000611fb5608083018688611c82565b8281036060840152611fc8818587611c82565b9998505050505050505050565b60008219821115611fe857611fe86120c0565b500190565b6000816000190483118215151615612007576120076120c0565b500290565b60008282101561201e5761201e6120c0565b500390565b60005b8381101561203e578181015183820152602001612026565b8381111561204d576000848401525b50505050565b600081612062576120626120c0565b506000190190565b600181811c9082168061207e57607f821691505b6020821081141561209f57634e487b7160e01b600052602260045260246000fd5b50919050565b60006000198214156120b9576120b96120c0565b5060010190565b634e487b7160e01b600052601160045260246000fdfe52eafc11f6f81f86878bffd31109a0d92f37506527754f00788853ff9f63b130a2646970667358221220b7e57f18878392869e610b39151eaf5bace6238d99d660294039066a546b6ef064736f6c63430008040033",
  "linkReferences": {},
  "deployedLinkReferences": {}
}