{
  "_format": "hh-sol-artifact-1",
  "contractName": "RewardProgramVaultFactory",
  "sourceName": "contracts/RewardProgramVaultFactory.sol",
  "abi": [
    {
      "anonymous": false,
      "inputs": [
        {
          "indexed": false,
          "internalType": "address",
          "name": "contractAddress",
          "type": "address"
        },
        {
          "indexed": false,
          "internalType": "string",
          "name": "name",
          "type": "string"
        }
      ],
      "name": "CreatedRewardProgramVault",
      "type": "event"
    },
    {
      "anonymous": false,
      "inputs": [
        {
          "indexed": true,
          "internalType": "bytes32",
          "name": "role",
          "type": "bytes32"
        },
        {
          "indexed": true,
          "internalType": "bytes32",
          "name": "previousAdminRole",
          "type": "bytes32"
        },
        {
          "indexed": true,
          "internalType": "bytes32",
          "name": "newAdminRole",
          "type": "bytes32"
        }
      ],
      "name": "RoleAdminChanged",
      "type": "event"
    },
    {
      "anonymous": false,
      "inputs": [
        {
          "indexed": true,
          "internalType": "bytes32",
          "name": "role",
          "type": "bytes32"
        },
        {
          "indexed": true,
          "internalType": "address",
          "name": "account",
          "type": "address"
        },
        {
          "indexed": true,
          "internalType": "address",
          "name": "sender",
          "type": "address"
        }
      ],
      "name": "RoleGranted",
      "type": "event"
    },
    {
      "anonymous": false,
      "inputs": [
        {
          "indexed": true,
          "internalType": "bytes32",
          "name": "role",
          "type": "bytes32"
        },
        {
          "indexed": true,
          "internalType": "address",
          "name": "account",
          "type": "address"
        },
        {
          "indexed": true,
          "internalType": "address",
          "name": "sender",
          "type": "address"
        }
      ],
      "name": "RoleRevoked",
      "type": "event"
    },
    {
      "inputs": [],
      "name": "ADMIN_ROLE",
      "outputs": [
        {
          "internalType": "bytes32",
          "name": "",
          "type": "bytes32"
        }
      ],
      "stateMutability": "view",
      "type": "function"
    },
    {
      "inputs": [],
      "name": "BURNER_ROLE",
      "outputs": [
        {
          "internalType": "bytes32",
          "name": "",
          "type": "bytes32"
        }
      ],
      "stateMutability": "view",
      "type": "function"
    },
    {
      "inputs": [],
      "name": "CLAIMER_ROLE",
      "outputs": [
        {
          "internalType": "bytes32",
          "name": "",
          "type": "bytes32"
        }
      ],
      "stateMutability": "view",
      "type": "function"
    },
    {
      "inputs": [],
      "name": "DEFAULT_ADMIN_ROLE",
      "outputs": [
        {
          "internalType": "bytes32",
          "name": "",
          "type": "bytes32"
        }
      ],
      "stateMutability": "view",
      "type": "function"
    },
    {
      "inputs": [],
      "name": "MINTER_ROLE",
      "outputs": [
        {
          "internalType": "bytes32",
          "name": "",
          "type": "bytes32"
        }
      ],
      "stateMutability": "view",
      "type": "function"
    },
    {
      "inputs": [
        {
          "internalType": "address",
          "name": "account",
          "type": "address"
        }
      ],
      "name": "addAdmin",
      "outputs": [],
      "stateMutability": "nonpayable",
      "type": "function"
    },
    {
      "inputs": [
        {
          "internalType": "string",
          "name": "_name",
          "type": "string"
        },
        {
          "internalType": "address",
          "name": "pool",
          "type": "address"
        },
        {
          "internalType": "address",
          "name": "rewardToken",
          "type": "address"
        },
        {
          "internalType": "address",
          "name": "_admin",
          "type": "address"
        }
      ],
      "name": "create",
      "outputs": [
        {
          "internalType": "address",
          "name": "",
          "type": "address"
        }
      ],
      "stateMutability": "nonpayable",
      "type": "function"
    },
    {
      "inputs": [
        {
          "internalType": "uint256",
          "name": "",
          "type": "uint256"
        }
      ],
      "name": "createdContracts",
      "outputs": [
        {
          "internalType": "address",
          "name": "contractAddress",
          "type": "address"
        },
        {
          "internalType": "string",
          "name": "name",
          "type": "string"
        }
      ],
      "stateMutability": "view",
      "type": "function"
    },
    {
      "inputs": [
        {
          "internalType": "uint256",
          "name": "_index",
          "type": "uint256"
        }
      ],
      "name": "getContracts",
      "outputs": [
        {
          "internalType": "address",
          "name": "contractAddress",
          "type": "address"
        },
        {
          "internalType": "string",
          "name": "name",
          "type": "string"
        }
      ],
      "stateMutability": "view",
      "type": "function"
    },
    {
      "inputs": [
        {
          "internalType": "bytes32",
          "name": "role",
          "type": "bytes32"
        }
      ],
      "name": "getRoleAdmin",
      "outputs": [
        {
          "internalType": "bytes32",
          "name": "",
          "type": "bytes32"
        }
      ],
      "stateMutability": "view",
      "type": "function"
    },
    {
      "inputs": [
        {
          "internalType": "bytes32",
          "name": "role",
          "type": "bytes32"
        },
        {
          "internalType": "address",
          "name": "account",
          "type": "address"
        }
      ],
      "name": "grantRole",
      "outputs": [],
      "stateMutability": "nonpayable",
      "type": "function"
    },
    {
      "inputs": [
        {
          "internalType": "bytes32",
          "name": "role",
          "type": "bytes32"
        },
        {
          "internalType": "address",
          "name": "account",
          "type": "address"
        }
      ],
      "name": "hasRole",
      "outputs": [
        {
          "internalType": "bool",
          "name": "",
          "type": "bool"
        }
      ],
      "stateMutability": "view",
      "type": "function"
    },
    {
      "inputs": [
        {
          "internalType": "address",
          "name": "account",
          "type": "address"
        }
      ],
      "name": "isAdmin",
      "outputs": [
        {
          "internalType": "bool",
          "name": "",
          "type": "bool"
        }
      ],
      "stateMutability": "view",
      "type": "function"
    },
    {
      "inputs": [],
      "name": "lastestCreated",
      "outputs": [
        {
          "internalType": "address",
          "name": "contractAddress",
          "type": "address"
        },
        {
          "internalType": "string",
          "name": "name",
          "type": "string"
        }
      ],
      "stateMutability": "view",
      "type": "function"
    },
    {
      "inputs": [],
      "name": "logEventAddress",
      "outputs": [
        {
          "internalType": "address",
          "name": "",
          "type": "address"
        }
      ],
      "stateMutability": "view",
      "type": "function"
    },
    {
      "inputs": [
        {
          "internalType": "address",
          "name": "account",
          "type": "address"
        }
      ],
      "name": "removeAdmin",
      "outputs": [],
      "stateMutability": "nonpayable",
      "type": "function"
    },
    {
      "inputs": [
        {
          "internalType": "bytes32",
          "name": "role",
          "type": "bytes32"
        },
        {
          "internalType": "address",
          "name": "account",
          "type": "address"
        }
      ],
      "name": "renounceRole",
      "outputs": [],
      "stateMutability": "nonpayable",
      "type": "function"
    },
    {
      "inputs": [
        {
          "internalType": "bytes32",
          "name": "role",
          "type": "bytes32"
        },
        {
          "internalType": "address",
          "name": "account",
          "type": "address"
        }
      ],
      "name": "revokeRole",
      "outputs": [],
      "stateMutability": "nonpayable",
      "type": "function"
    },
    {
      "inputs": [
        {
          "internalType": "address",
          "name": "addr",
          "type": "address"
        }
      ],
      "name": "setLogEventAddress",
      "outputs": [],
      "stateMutability": "nonpayable",
      "type": "function"
    },
    {
      "inputs": [
        {
          "internalType": "address",
          "name": "_logic",
          "type": "address"
        }
      ],
      "name": "setLogic",
      "outputs": [],
      "stateMutability": "nonpayable",
      "type": "function"
    },
    {
      "inputs": [
        {
          "internalType": "address",
          "name": "_staker",
          "type": "address"
        }
      ],
      "name": "setStaker",
      "outputs": [],
      "stateMutability": "nonpayable",
      "type": "function"
    },
    {
      "inputs": [
        {
          "internalType": "address",
          "name": "addr",
          "type": "address"
        }
      ],
      "name": "setUpgradeAdmin",
      "outputs": [],
      "stateMutability": "nonpayable",
      "type": "function"
    },
    {
      "inputs": [
        {
          "internalType": "uint256",
          "name": "_waitStartSeconds",
          "type": "uint256"
        }
      ],
      "name": "setWaitStartSeconds",
      "outputs": [],
      "stateMutability": "nonpayable",
      "type": "function"
    },
    {
      "inputs": [],
      "name": "staker",
      "outputs": [
        {
          "internalType": "address",
          "name": "",
          "type": "address"
        }
      ],
      "stateMutability": "view",
      "type": "function"
    },
    {
      "inputs": [
        {
          "internalType": "bytes4",
          "name": "interfaceId",
          "type": "bytes4"
        }
      ],
      "name": "supportsInterface",
      "outputs": [
        {
          "internalType": "bool",
          "name": "",
          "type": "bool"
        }
      ],
      "stateMutability": "view",
      "type": "function"
    },
    {
      "inputs": [],
      "name": "totalCreatedContracts",
      "outputs": [
        {
          "internalType": "uint256",
          "name": "",
          "type": "uint256"
        }
      ],
      "stateMutability": "view",
      "type": "function"
    },
    {
      "inputs": [
        {
          "internalType": "address",
          "name": "newAdmin",
          "type": "address"
        }
      ],
      "name": "transferAdmin",
      "outputs": [],
      "stateMutability": "nonpayable",
      "type": "function"
    },
    {
      "inputs": [],
      "name": "upgradeAdmin",
      "outputs": [
        {
          "internalType": "address",
          "name": "",
          "type": "address"
        }
      ],
      "stateMutability": "view",
      "type": "function"
    },
    {
      "inputs": [
        {
          "internalType": "address",
          "name": "_contract",
          "type": "address"
        },
        {
          "internalType": "bytes4[]",
          "name": "_selectors",
          "type": "bytes4[]"
        },
        {
          "internalType": "address",
          "name": "_imp",
          "type": "address"
        }
      ],
      "name": "upgradeContractFunction",
      "outputs": [],
      "stateMutability": "nonpayable",
      "type": "function"
    },
    {
      "inputs": [
        {
          "internalType": "address",
          "name": "_contract",
          "type": "address"
        },
        {
          "internalType": "address",
          "name": "_logic",
          "type": "address"
        },
        {
          "internalType": "uint256",
          "name": "_index",
          "type": "uint256"
        },
        {
          "internalType": "bool",
          "name": "_alive",
          "type": "bool"
        }
      ],
      "name": "upgradeContractLogic",
      "outputs": [],
      "stateMutability": "nonpayable",
      "type": "function"
    },
    {
      "inputs": [],
      "name": "vaultLogic",
      "outputs": [
        {
          "internalType": "address",
          "name": "",
          "type": "address"
        }
      ],
      "stateMutability": "view",
      "type": "function"
    },
    {
      "inputs": [],
      "name": "waitStartSeconds",
      "outputs": [
        {
          "internalType": "uint256",
          "name": "",
          "type": "uint256"
        }
      ],
      "stateMutability": "view",
      "type": "function"
    }
  ],
  "bytecode": "0x60806040523480156200001157600080fd5b50600060015562000032600080516020620045b18339815191528062000065565b6200004d600080516020620045b183398151915233620000b0565b600380546001600160a01b0319163317905562000160565b600082815260208190526040808220600101805490849055905190918391839186917fbd79b86ffe0ab8e8776151514217cd7cacd52c909f66475c3af44e129f0b00ff9190a4505050565b620000bc8282620000c0565b5050565b6000828152602081815260408083206001600160a01b038516845290915290205460ff16620000bc576000828152602081815260408083206001600160a01b03851684529091529020805460ff191660011790556200011c3390565b6001600160a01b0316816001600160a01b0316837f2f8788117e7eff1d82e926ec794901d17c78024a50270940304540a733656f0d60405160405180910390a45050565b61444180620001706000396000f3fe60806040523480156200001157600080fd5b5060043610620001d55760003560e01c806375829def1162000103578063b4d40280116200009e578063b4d402801462000439578063c4d5608a1462000450578063d05261871462000464578063d5391393146200046e578063d547741f1462000496578063e2cb771614620004ad578063eab73ca114620004c4578063fc5f18d314620004d857600080fd5b806375829def146200039257806375b238fc14620003a95780637e2826f614620003c057806391d1485414620003d75780639342f41714620003ee578063a217fddf1462000405578063a29a43bb146200040e578063b078147a146200042557600080fd5b8063338bad5f1162000174578063338bad5f14620002db5780633437a01514620002e557806336568abe14620002fc578063439e23fd14620003135780635ebaf1db146200032a57806367c5f8de146200034d57806370480275146200036457806371857000146200037b57600080fd5b806301ffc9a714620001da578063088113971462000206578063176d69da146200022d5780631785f53c1462000246578063248a9ca3146200025f57806324d7806c1462000285578063282c51f3146200029c5780632f2ff15d14620002c4575b600080fd5b620001f1620001eb36600462001b13565b62000500565b60405190151581526020015b60405180910390f35b6200021d6200021736600462001acc565b62000538565b604051620001fd92919062001cb1565b6200023760075481565b604051908152602001620001fd565b6200025d62000257366004620019bc565b620005ef565b005b620002376200027036600462001acc565b60009081526020819052604090206001015490565b620001f162000296366004620019bc565b62000640565b620002377f9667e80708b6eeeb0053fa0cca44e028ff548e2a9f029edfeac87c118b08b7c881565b6200025d620002d536600462001ae5565b6200065d565b6200021d6200068c565b6200025d620002f636600462001acc565b620007a5565b6200025d6200030d36600462001ae5565b62000845565b6200021d6200032436600462001acc565b620008c7565b6006546200033e906001600160a01b031681565b604051620001fd919062001c7a565b6200025d6200035e366004620019d9565b620009ad565b6200025d62000375366004620019bc565b62000a6e565b6200025d6200038c366004620019bc565b62000ab3565b6200025d620003a3366004620019bc565b62000b85565b62000237600080516020620043ec83398151915281565b6200025d620003d1366004620019bc565b62000c8c565b620001f1620003e836600462001ae5565b62000d34565b6200025d620003ff366004620019bc565b62000d5d565b62000237600081565b6200025d6200041f366004620019bc565b62000e05565b6004546200033e906001600160a01b031681565b6200025d6200044a36600462001a31565b62000eca565b6003546200033e906001600160a01b031681565b6200023760015481565b620002377ff0887ba65ee2024ea881d91b74c2450ef19e1557f03bed3ea9f16b037cbe2dc981565b6200025d620004a736600462001ae5565b62000f50565b6200033e620004be36600462001b30565b62000f7a565b6005546200033e906001600160a01b031681565b620002377fe5667d34d7ea8d6fdb3aa71a0a5b85e4cf7f68356dd003cd638556b0eea2bce581565b60006001600160e01b03198216637965db0b60e01b14806200053257506301ffc9a760e01b6001600160e01b03198316145b92915050565b600260205260009081526040902080546001820180546001600160a01b039092169291620005669062001f4a565b80601f0160208091040260200160405190810160405280929190818152602001828054620005949062001f4a565b8015620005e55780601f10620005b957610100808354040283529160200191620005e5565b820191906000526020600020905b815481529060010190602001808311620005c757829003601f168201915b5050505050905082565b620005fa3362000640565b620006225760405162461bcd60e51b8152600401620006199062001e64565b60405180910390fd5b6200063d600080516020620043ec8339815191528262000845565b50565b600062000532600080516020620043ec8339815191528362000d34565b6000828152602081905260409020600101546200067b813362001576565b620006878383620015e5565b505050565b600060606000600154111562000790576002600060018054620006b0919062001ee3565b81526020810191909152604001600090812054600180546001600160a01b03909216926002929091620006e39162001ee3565b8152602001908152602001600020600101808054620007029062001f4a565b80601f0160208091040260200160405190810160405280929190818152602001828054620007309062001f4a565b8015620007815780601f10620007555761010080835404028352916020019162000781565b820191906000526020600020905b8154815290600101906020018083116200076357829003601f168201915b50505050509050915091509091565b50506040805160208101909152600080825291565b8060008111620007c95760405162461bcd60e51b8152600401620006199062001df0565b620007d43362000640565b620007f35760405162461bcd60e51b8152600401620006199062001e64565b8160075414156200083f5760405162461bcd60e51b815260206004820152601560248201527473616d65207761697453746172745365636f6e647360581b604482015260640162000619565b50600755565b6001600160a01b0381163314620008b75760405162461bcd60e51b815260206004820152602f60248201527f416363657373436f6e74726f6c3a2063616e206f6e6c792072656e6f756e636560448201526e103937b632b9903337b91039b2b63360891b606482015260840162000619565b620008c382826200166d565b5050565b60006060600154831015620009955760008381526002602052604090208054600190910180546001600160a01b03909216918190620009069062001f4a565b80601f0160208091040260200160405190810160405280929190818152602001828054620009349062001f4a565b8015620009855780601f10620009595761010080835404028352916020019162000985565b820191906000526020600020905b8154815290600101906020018083116200096757829003601f168201915b5050505050905091509150915091565b50506040805160208101909152600080825292909150565b620009b83362000640565b620009d75760405162461bcd60e51b8152600401620006199062001e64565b836001600160a01b03811662000a015760405162461bcd60e51b8152600401620006199062001e38565b604051637cd5f66360e01b81526001600160a01b03861690637cd5f6639062000a339087908790879060040162001c8e565b600060405180830381600087803b15801562000a4e57600080fd5b505af115801562000a63573d6000803e3d6000fd5b505050505050505050565b62000a793362000640565b62000a985760405162461bcd60e51b8152600401620006199062001e64565b6200063d600080516020620043ec833981519152826200065d565b806001600160a01b03811662000add5760405162461bcd60e51b8152600401620006199062001e38565b62000ae83362000640565b62000b075760405162461bcd60e51b8152600401620006199062001e64565b6004546001600160a01b038381169116141562000b625760405162461bcd60e51b815260206004820152601860248201527730b63932b0b23c9039b2ba103a3434b9903b32b939b4b7b760411b604482015260640162000619565b50600480546001600160a01b0319166001600160a01b0392909216919091179055565b62000b903362000640565b62000baf5760405162461bcd60e51b8152600401620006199062001e64565b6001600160a01b03811662000c025760405162461bcd60e51b815260206004820152601860248201527741636365737369626c653a207a65726f206164647265737360401b604482015260640162000619565b336001600160a01b038216141562000c565760405162461bcd60e51b815260206004820152601660248201527520b1b1b2b9b9b4b136329d1039b0b6b29030b236b4b760511b604482015260640162000619565b62000c71600080516020620043ec833981519152826200065d565b6200063d600080516020620043ec8339815191523362000845565b62000c973362000640565b62000cb65760405162461bcd60e51b8152600401620006199062001e64565b806001600160a01b03811662000ce05760405162461bcd60e51b8152600401620006199062001e38565b6005546001600160a01b038381169116141562000d115760405162461bcd60e51b8152600401620006199062001e14565b50600580546001600160a01b0319166001600160a01b0392909216919091179055565b6000918252602082815260408084206001600160a01b0393909316845291905290205460ff1690565b62000d683362000640565b62000d875760405162461bcd60e51b8152600401620006199062001e64565b806001600160a01b03811662000db15760405162461bcd60e51b8152600401620006199062001e38565b6003546001600160a01b038381169116141562000de25760405162461bcd60e51b8152600401620006199062001e14565b50600380546001600160a01b0319166001600160a01b0392909216919091179055565b806001600160a01b03811662000e2f5760405162461bcd60e51b8152600401620006199062001e38565b62000e3a3362000640565b62000e595760405162461bcd60e51b8152600401620006199062001e64565b6006546001600160a01b038381169116141562000ea75760405162461bcd60e51b815260206004820152600b60248201526a39b0b6b29039ba30b5b2b960a91b604482015260640162000619565b50600680546001600160a01b0319166001600160a01b0392909216919091179055565b62000ed53362000640565b62000ef45760405162461bcd60e51b8152600401620006199062001e64565b836001600160a01b03811662000f1e5760405162461bcd60e51b8152600401620006199062001e38565b604051634a5df50f60e01b81526001600160a01b03861690634a5df50f9062000a339087908790879060040162001cdf565b60008281526020819052604090206001015462000f6e813362001576565b6200068783836200166d565b6003546000906001600160a01b03168062000fa95760405162461bcd60e51b8152600401620006199062001e38565b6004546001600160a01b03168062000fd55760405162461bcd60e51b8152600401620006199062001e38565b6005546001600160a01b031680620010015760405162461bcd60e51b8152600401620006199062001e38565b60075460008111620010275760405162461bcd60e51b8152600401620006199062001df0565b88620010665760405162461bcd60e51b815260206004820152600d60248201526c6e616d6520697320656d70747960981b604482015260640162000619565b60006040516200107690620018d2565b604051809103906000f08015801562001093573d6000803e3d6000fd5b5090506001600160a01b038116620010ee5760405162461bcd60e51b815260206004820152601c60248201527f52657761726450726f6772616d5661756c7450726f7879207a65726f00000000604482015260640162000619565b60008b8b8080601f016020809104026020016040519081016040528093929190818152602001838380828437600092019190915250506003546040516325bc555f60e21b81529394506001600160a01b03808716946396f1557c94506200115c935091169060040162001c7a565b600060405180830381600087803b1580156200117757600080fd5b505af11580156200118c573d6000803e3d6000fd5b5050600354604051637048027560e01b81526001600160a01b03808716945063704802759350620011c292169060040162001c7a565b600060405180830381600087803b158015620011dd57600080fd5b505af1158015620011f2573d6000803e3d6000fd5b505060048054604051637cd5f66360e01b81526001600160a01b038088169550637cd5f66394506200122e939216916000916001910162001c8e565b600060405180830381600087803b1580156200124957600080fd5b505af11580156200125e573d6000803e3d6000fd5b5050600554604051630b8717f760e11b81526001600160a01b03918216600482015260016024820152908516925063170e2fee9150604401600060405180830381600087803b158015620012b157600080fd5b505af1158015620012c6573d6000803e3d6000fd5b50505050816001600160a01b0316630b66855f8d8d8d8d600660009054906101000a90046001600160a01b03168e6007546040518863ffffffff1660e01b81526004016200131b979695949392919062001d7e565b600060405180830381600087803b1580156200133657600080fd5b505af11580156200134b573d6000803e3d6000fd5b50505050816001600160a01b0316639a202d476040518163ffffffff1660e01b8152600401600060405180830381600087803b1580156200138b57600080fd5b505af1158015620013a0573d6000803e3d6000fd5b505050506040518060400160405280836001600160a01b031681526020018d8d8080601f0160208091040260200160405190810160405280939291908181526020018383808284376000920182905250939094525050600180548252600260209081526040909220845181546001600160a01b0319166001600160a01b039091161781558483015180519194506200143e93928501920190620018e0565b50506001805491506000620014538362001f87565b90915550506005546040516001600160a01b039091169063beee31bf907fe334e8cbab038224e7ff5428f14d8d49ba93d697d91477b62a6493a777da4be2907fdc7c452653a6ba15bb1ec81b8a25798f9f4af714d4d57ac68c9df4a087477f7d903090620014c8908890889060200162001cb1565b6040516020818303038152906040526040518563ffffffff1660e01b8152600401620014f8949392919062001d45565b600060405180830381600087803b1580156200151357600080fd5b505af115801562001528573d6000803e3d6000fd5b505050507fe27dba5fb92d65a5e01c2203d892a911f7b0c4da959a2a2a9df9e5431f40d04d82826040516200155f92919062001cb1565b60405180910390a1509a9950505050505050505050565b62001582828262000d34565b620008c3576200159d816001600160a01b03166014620016d5565b620015aa836020620016d5565b604051602001620015bd92919062001c07565b60408051601f198184030181529082905262461bcd60e51b8252620006199160040162001ddb565b620015f1828262000d34565b620008c3576000828152602081815260408083206001600160a01b03851684529091529020805460ff19166001179055620016293390565b6001600160a01b0316816001600160a01b0316837f2f8788117e7eff1d82e926ec794901d17c78024a50270940304540a733656f0d60405160405180910390a45050565b62001679828262000d34565b15620008c3576000828152602081815260408083206001600160a01b0385168085529252808320805460ff1916905551339285917ff6391f5c32d9c69d2a47ea670b442974b53935d1edc7fd64eb21e047a839171b9190a45050565b60606000620016e683600262001ec1565b620016f390600262001ea6565b67ffffffffffffffff8111156200171a57634e487b7160e01b600052604160045260246000fd5b6040519080825280601f01601f19166020018201604052801562001745576020820181803683370190505b509050600360fc1b816000815181106200176f57634e487b7160e01b600052603260045260246000fd5b60200101906001600160f81b031916908160001a905350600f60fb1b81600181518110620017ad57634e487b7160e01b600052603260045260246000fd5b60200101906001600160f81b031916908160001a9053506000620017d384600262001ec1565b620017e090600162001ea6565b90505b60018111156200187a576f181899199a1a9b1b9c1cb0b131b232b360811b85600f16601081106200182457634e487b7160e01b600052603260045260246000fd5b1a60f81b8282815181106200184957634e487b7160e01b600052603260045260246000fd5b60200101906001600160f81b031916908160001a90535060049490941c93620018728162001f30565b9050620017e3565b508315620018cb5760405162461bcd60e51b815260206004820181905260248201527f537472696e67733a20686578206c656e67746820696e73756666696369656e74604482015260640162000619565b9392505050565b6124308062001fbc83390190565b828054620018ee9062001f4a565b90600052602060002090601f0160209004810192826200191257600085556200195d565b82601f106200192d57805160ff19168380011785556200195d565b828001600101855582156200195d579182015b828111156200195d57825182559160200191906001019062001940565b506200196b9291506200196f565b5090565b5b808211156200196b576000815560010162001970565b80356001600160a01b03811681146200199e57600080fd5b919050565b80356001600160e01b0319811681146200199e57600080fd5b600060208284031215620019ce578081fd5b620018cb8262001986565b60008060008060808587031215620019ef578283fd5b620019fa8562001986565b935062001a0a6020860162001986565b9250604085013591506060850135801515811462001a26578182fd5b939692955090935050565b6000806000806060858703121562001a47578384fd5b62001a528562001986565b9350602085013567ffffffffffffffff8082111562001a6f578485fd5b818701915087601f83011262001a83578485fd5b81358181111562001a92578586fd5b8860208260051b850101111562001aa7578586fd5b60208301955080945050505062001ac16040860162001986565b905092959194509250565b60006020828403121562001ade578081fd5b5035919050565b6000806040838503121562001af8578182fd5b8235915062001b0a6020840162001986565b90509250929050565b60006020828403121562001b25578081fd5b620018cb82620019a3565b60008060008060006080868803121562001b48578081fd5b853567ffffffffffffffff8082111562001b60578283fd5b818801915088601f83011262001b74578283fd5b81358181111562001b83578384fd5b89602082850101111562001b95578384fd5b60209283019750955062001bad918801905062001986565b925062001bbd6040870162001986565b915062001bcd6060870162001986565b90509295509295909350565b6000815180845262001bf381602086016020860162001efd565b601f01601f19169290920160200192915050565b76020b1b1b2b9b9a1b7b73a3937b61d1030b1b1b7bab73a1604d1b81526000835162001c3b81601785016020880162001efd565b7001034b99036b4b9b9b4b733903937b6329607d1b601791840191820152835162001c6e81602884016020880162001efd565b01602801949350505050565b6001600160a01b0391909116815260200190565b6001600160a01b0393909316835260208301919091521515604082015260600190565b6001600160a01b038316815260406020820181905260009062001cd79083018462001bd9565b949350505050565b6040808252810183905260008460608301825b8681101562001d25576001600160e01b031962001d0f84620019a3565b1682526020928301929091019060010162001cf2565b506001600160a01b03949094166020939093019290925250909392505050565b84815283602082015260018060a01b038316604082015260806060820152600062001d74608083018462001bd9565b9695505050505050565b60c081528660c0820152868860e0830137600060e08883018101919091526001600160a01b039687166020830152948616604082015292851660608401529316608082015260a0810192909252601f909201601f19160101919050565b602081526000620018cb602083018462001bd9565b6020808252600a90820152697a65726f207661756c6560b01b604082015260600190565b6020808252600a908201526973616d6520616464727360b01b604082015260600190565b6020808252601290820152715661756c74466163746f72793a207a65726f60701b604082015260600190565b60208082526022908201527f41636365737369626c653a2043616c6c6572206973206e6f7420616e2061646d60408201526134b760f11b606082015260800190565b6000821982111562001ebc5762001ebc62001fa5565b500190565b600081600019048311821515161562001ede5762001ede62001fa5565b500290565b60008282101562001ef85762001ef862001fa5565b500390565b60005b8381101562001f1a57818101518382015260200162001f00565b8381111562001f2a576000848401525b50505050565b60008162001f425762001f4262001fa5565b506000190190565b600181811c9082168062001f5f57607f821691505b6020821081141562001f8157634e487b7160e01b600052602260045260246000fd5b50919050565b600060001982141562001f9e5762001f9e62001fa5565b5060010190565b634e487b7160e01b600052601160045260246000fdfe60806040526000600b553480156200001657600080fd5b506001600055620000487f52eafc11f6f81f86878bffd31109a0d92f37506527754f00788853ff9f63b1308062000087565b620000747f52eafc11f6f81f86878bffd31109a0d92f37506527754f00788853ff9f63b13033620000d2565b62000081600033620000d2565b62000186565b600082815260146020526040808220600101805490849055905190918391839186917fbd79b86ffe0ab8e8776151514217cd7cacd52c909f66475c3af44e129f0b00ff9190a4505050565b620000de8282620000e2565b5050565b60008281526014602090815260408083206001600160a01b038516845290915290205460ff16620000de5760008281526014602090815260408083206001600160a01b03851684529091529020805460ff19166001179055620001423390565b6001600160a01b0316816001600160a01b0316837f2f8788117e7eff1d82e926ec794901d17c78024a50270940304540a733656f0d60405160405180910390a45050565b61229a80620001966000396000f3fe60806040526004361061024c5760003560e01c80635f41e81d1161013a57806392db2816116100b157806392db28161461073057806396f1557c1461080f5780639a202d471461082f578063a217fddf14610844578063b911135f14610859578063be72f2d31461088f578063cfc412be146108a4578063d547741f146108ba578063eab73ca1146108da578063ed5131f5146108ff578063f47f2f1d1461091f578063fc0c546a1461093f57610295565b80635f41e81d146105ca57806363a8fd89146105e05780636befec3f146105fa578063704802751461061a57806375829def1461063a5780637a6072af1461065a5780637cb00d25146106705780637cd5f663146106905780638356ca4f146106b05780638b8f4a65146106d05780638d4fdb40146106f057806391d148541461071057610295565b80632f2ff15d116101ce5780632f2ff15d1461043257806334b38cc31461045257806336568abe146104775780633659cfe61461049757806341c04d5e146104b75780634a5df50f146104d957806350d2a276146104f9578063550d01a31461052f578063556400081461055f5780635c60da1b146105755780635cc797d81461058a5780635ebaf1db146105aa57610295565b806301ffc9a71461029f57806306fdde03146102d45780630a59fa08146102f65780630b66855f146103105780630f4388c014610330578063117ab8741461035e57806316f0115b14610374578063170e2fee146103ac578063248a9ca3146103cc57806324d7806c146103fc578063256019d61461041c57610295565b366102955760405162461bcd60e51b815260206004820152601460248201527331b0b73737ba103932b1b2b4bb329022ba3432b960611b60448201526064015b60405180910390fd5b61029d61095f565b005b3480156102ab57600080fd5b506102bf6102ba366004611e24565b610a08565b60405190151581526020015b60405180910390f35b3480156102e057600080fd5b506102e9610a3f565b6040516102cb9190611fec565b34801561030257600080fd5b506013546102bf9060ff1681565b34801561031c57600080fd5b5061029d61032b366004611e4c565b610acd565b34801561033c57600080fd5b5061035061034b366004611dea565b610ca2565b6040519081526020016102cb565b34801561036a57600080fd5b50610350600b5481565b34801561038057600080fd5b50600254610394906001600160a01b031681565b6040516001600160a01b0390911681526020016102cb565b3480156103b857600080fd5b5061029d6103c7366004611ced565b610cc3565b3480156103d857600080fd5b506103506103e7366004611dea565b60009081526014602052604090206001015490565b34801561040857600080fd5b506102bf610417366004611cd3565b610d9c565b34801561042857600080fd5b50610350600a5481565b34801561043e57600080fd5b5061029d61044d366004611e02565b610db6565b34801561045e57600080fd5b50610467610ddc565b6040516102cb949392919061210b565b34801561048357600080fd5b5061029d610492366004611e02565b610e9f565b3480156104a357600080fd5b5061029d6104b2366004611cd3565b610f19565b3480156104c357600080fd5b5061035060008051602061224583398151915281565b3480156104e557600080fd5b5061029d6104f4366004611d5a565b61101f565b34801561050557600080fd5b50610394610514366004611e24565b6012602052600090815260409020546001600160a01b031681565b34801561053b57600080fd5b506102bf61054a366004611cd3565b60116020526000908152604090205460ff1681565b34801561056b57600080fd5b5061035060095481565b34801561058157600080fd5b506103946112a7565b34801561059657600080fd5b5061029d6105a5366004611ced565b6112b8565b3480156105b657600080fd5b50600354610394906001600160a01b031681565b3480156105d657600080fd5b5061035060065481565b3480156105ec57600080fd5b50600f546102bf9060ff1681565b34801561060657600080fd5b5061029d610615366004611dd0565b6112e7565b34801561062657600080fd5b5061029d610635366004611cd3565b6113bf565b34801561064657600080fd5b5061029d610655366004611cd3565b6113ff565b34801561066657600080fd5b5061035060055481565b34801561067c57600080fd5b5061029d61068b366004611dd0565b6114b2565b34801561069c57600080fd5b5061029d6106ab366004611d1f565b6114f9565b3480156106bc57600080fd5b5061029d6106cb366004611cd3565b611529565b3480156106dc57600080fd5b506103946106eb366004611dea565b6115b3565b3480156106fc57600080fd5b5061039461070b366004611e24565b6115be565b34801561071c57600080fd5b506102bf61072b366004611e02565b6116ba565b34801561073c57600080fd5b506107b361074b366004611dea565b600460208181526000928352604092839020835160a08101855281546001600160a01b03908116825260018301548116938201939093526002820154948101949094526003810154606085015291820154166080830152600581015460069091015460ff1683565b6040516102cb9392919083516001600160a01b0390811682526020808601518216908301526040808601519083015260608086015190830152608094850151169381019390935260a0830191909152151560c082015260e00190565b34801561081b57600080fd5b5061029d61082a366004611cd3565b6116e5565b34801561083b57600080fd5b5061029d611715565b34801561085057600080fd5b50610350600081565b34801561086557600080fd5b50610394610874366004611dea565b6010602052600090815260409020546001600160a01b031681565b34801561089b57600080fd5b5061029d611763565b3480156108b057600080fd5b50610350600c5481565b3480156108c657600080fd5b5061029d6108d5366004611e02565b611793565b3480156108e657600080fd5b506013546103949061010090046001600160a01b031681565b34801561090b57600080fd5b5061035061091a366004611dea565b6117b9565b34801561092b57600080fd5b506102bf61093a366004611cd3565b6117c9565b34801561094b57600080fd5b50600154610394906001600160a01b031681565b60006109766000356001600160e01b0319166115be565b90506001600160a01b038116158015906109935750600f5460ff16155b6109df5760405162461bcd60e51b815260206004820152601d60248201527f50726f78793a20696d706c204f522070726f78792069732066616c7365000000604482015260640161028c565b3660008037600080366000845af43d6000803e8080156109fe573d6000f35b3d6000fd5b505050565b60006001600160e01b03198216637965db0b60e01b1480610a3957506301ffc9a760e01b6001600160e01b03198316145b92915050565b60088054610a4c906121c2565b80601f0160208091040260200160405190810160405280929190818152602001828054610a78906121c2565b8015610ac55780601f10610a9a57610100808354040283529160200191610ac5565b820191906000526020600020905b815481529060010190602001808311610aa857829003601f168201915b505050505081565b610ad633610d9c565b80610ae55750610ae5336117c9565b610b015760405162461bcd60e51b815260040161028c9061201f565b60088054610b0e906121c2565b159050610b4b5760405162461bcd60e51b815260206004820152600b60248201526a185b1c9958591e481cd95d60aa1b604482015260640161028c565b6001600160a01b03831615801590610b6b57506001600160a01b03851615155b8015610b7f57506001600160a01b03841615155b8015610b9357506001600160a01b03821615155b610bce5760405162461bcd60e51b815260206004820152600c60248201526b7a65726f206164647265737360a01b604482015260640161028c565b601e811015610c1f5760405162461bcd60e51b815260206004820152601e60248201527f5f73746172745761697454696d65206973206c657373207468616e2033300000604482015260640161028c565b8551610c32906008906020890190611c13565b50600180546001600160a01b038087166001600160a01b0319928316179092556002805488841690831617905560038054928616929091169190911790556006819055610c7e82610d9c565b610c9a57610c9a600080516020612245833981519152836117d5565b505050505050565b600e8181548110610cb257600080fd5b600091825260209091200154905081565b610ccc336117c9565b610ce85760405162461bcd60e51b815260040161028c90612093565b6013546001600160a01b038381166101009092041614801590610d1357506001600160a01b03821615155b610d545760405162461bcd60e51b815260206004820152601260248201527173616d652076616c7565206f72207a65726f60701b604482015260640161028c565b601380546001600160a01b03841661010002610100600160a81b03198216811790925560ff918216911617151581151514610d98576013805460ff19168215151790555b5050565b6000610a39600080516020612245833981519152836116ba565b600082815260146020526040902060010154610dd281336117df565b610a038383611843565b60006060806000600a54600d600e600b5482805480602002602001604051908101604052809291908181526020018280548015610e3857602002820191906000526020600020905b815481526020019060010190808311610e24575b5050505050925081805480602002602001604051908101604052809291908181526020018280548015610e8a57602002820191906000526020600020905b815481526020019060010190808311610e76575b50505050509150935093509350935090919293565b6001600160a01b0381163314610f0f5760405162461bcd60e51b815260206004820152602f60248201527f416363657373436f6e74726f6c3a2063616e206f6e6c792072656e6f756e636560448201526e103937b632b9903337b91039b2b63360891b606482015260840161028c565b610d9882826118c9565b610f22336117c9565b610f3e5760405162461bcd60e51b815260040161028c90612093565b6001600160a01b038116610f845760405162461bcd60e51b815260206004820152600d60248201526c696e707574206973207a65726f60981b604482015260640161028c565b806001600160a01b0316610f986000611930565b6001600160a01b03161415610fdb5760405162461bcd60e51b815260206004820152600960248201526839b0b6b29030b2323960b91b604482015260640161028c565b610fe8816000600161194b565b6040516001600160a01b038216907fbc7cd75a20ee27fd9adebab32041f755214dbc6bffa90cc0225b39da2e5c2d3b90600090a250565b611028336117c9565b6110445760405162461bcd60e51b815260040161028c90612093565b816110915760405162461bcd60e51b815260206004820181905260248201527f50726f78793a205f73656c6563746f727327732073697a65206973207a65726f604482015260640161028c565b6001600160a01b03811660009081526011602052604090205460ff166110f45760405162461bcd60e51b815260206004820152601860248201527750726f78793a205f696d70206973206e6f7420616c69766560401b604482015260640161028c565b60005b828110156112a157816001600160a01b03166012600086868581811061112d57634e487b7160e01b600052603260045260246000fd5b90506020020160208101906111429190611e24565b6001600160e01b03191681526020810191909152604001600020546001600160a01b031614156111b45760405162461bcd60e51b815260206004820152601d60248201527f4c69717569646974795661756c7450726f78793a2073616d6520696d70000000604482015260640161028c565b81601260008686858181106111d957634e487b7160e01b600052603260045260246000fd5b90506020020160208101906111ee9190611e24565b6001600160e01b0319168152602081019190915260400160002080546001600160a01b0319166001600160a01b03928316179055821684848381811061124457634e487b7160e01b600052603260045260246000fd5b90506020020160208101906112599190611e24565b6001600160e01b0319167f14ebc1c32aa68f4d766e89f3e546cee249f7df25183fc10ab1568d91c2ce9b7b60405160405180910390a380611299816121fd565b9150506110f7565b50505050565b60006112b36000611930565b905090565b6112c1336117c9565b6112dd5760405162461bcd60e51b815260040161028c90612093565b610d9882826119cb565b6112f0336117c9565b61130c5760405162461bcd60e51b815260040161028c90612093565b60135460ff16151581151514156113525760405162461bcd60e51b815260206004820152600a60248201526973616d652076616c756560b01b604482015260640161028c565b80156113ac5760135461010090046001600160a01b03166113ac5760405162461bcd60e51b81526020600482015260146024820152737a65726f206c6f674576656e744164647265737360601b604482015260640161028c565b6013805460ff1916911515919091179055565b6113c8336117c9565b6113e45760405162461bcd60e51b815260040161028c90612093565b6113fc60008051602061224583398151915282610db6565b50565b61140833610d9c565b806114175750611417336117c9565b6114335760405162461bcd60e51b815260040161028c9061201f565b6001600160a01b0381166114595760405162461bcd60e51b815260040161028c90612061565b336001600160a01b03821614156114825760405162461bcd60e51b815260040161028c906120db565b61149a60008051602061224583398151915282610db6565b6113fc60008051602061224583398151915233610e9f565b6114bb33610d9c565b806114ca57506114ca336117c9565b6114e65760405162461bcd60e51b815260040161028c9061201f565b600f805460ff1916911515919091179055565b611502336117c9565b61151e5760405162461bcd60e51b815260040161028c90612093565b610a0383838361194b565b611532336117c9565b61154e5760405162461bcd60e51b815260040161028c90612093565b6001600160a01b0381166115745760405162461bcd60e51b815260040161028c90612061565b336001600160a01b038216141561159d5760405162461bcd60e51b815260040161028c906120db565b6115a8600082610db6565b6113fc600033610e9f565b6000610a3982611930565b6001600160e01b031981166000908152601260205260408120546001600160a01b031661161e5750506000805260106020527f6e0956cda88cad152e89927e53611735b61a5c762d1428573c6931b0a5efcb01546001600160a01b031690565b6001600160e01b031982166000908152601260209081526040808320546001600160a01b03168352601190915290205460ff161561167c57506001600160e01b0319166000908152601260205260409020546001600160a01b031690565b50506000805260106020527f6e0956cda88cad152e89927e53611735b61a5c762d1428573c6931b0a5efcb01546001600160a01b031690565b919050565b60009182526014602090815260408084206001600160a01b0393909316845291905290205460ff1690565b6116ee336117c9565b61170a5760405162461bcd60e51b815260040161028c90612093565b6113fc6000826117d5565b61171e33610d9c565b8061172d575061172d336117c9565b6117495760405162461bcd60e51b815260040161028c9061201f565b61176160008051602061224583398151915233610e9f565b565b61176c336117c9565b6117885760405162461bcd60e51b815260040161028c90612093565b611761600033610e9f565b6000828152601460205260409020600101546117af81336117df565b610a0383836118c9565b600d8181548110610cb257600080fd5b6000610a3981836116ba565b610d988282611843565b6117e982826116ba565b610d9857611801816001600160a01b03166014611a2a565b61180c836020611a2a565b60405160200161181d929190611f7d565b60408051601f198184030181529082905262461bcd60e51b825261028c91600401611fec565b61184d82826116ba565b610d985760008281526014602090815260408083206001600160a01b03851684529091529020805460ff191660011790556118853390565b6001600160a01b0316816001600160a01b0316837f2f8788117e7eff1d82e926ec794901d17c78024a50270940304540a733656f0d60405160405180910390a45050565b6118d382826116ba565b15610d985760008281526014602090815260408083206001600160a01b0385168085529252808320805460ff1916905551339285917ff6391f5c32d9c69d2a47ea670b442974b53935d1edc7fd64eb21e047a839171b9190a45050565b6000908152601060205260409020546001600160a01b031690565b823b6119975760405162461bcd60e51b815260206004820152601b60248201527a50726f78793a206e6f7420636f6e7472616374206164647265737360281b604482015260640161028c565b80156119c557600082815260106020526040902080546001600160a01b0319166001600160a01b0385161790555b610a0383825b6001600160a01b038216600081815260116020908152604091829020805460ff191685151590811790915591519182527f72558d9bfba4210f9ef095c782589484151f6d90f7a81bb3cb9b33efc695d324910160405180910390a25050565b60606000611a39836002612160565b611a44906002612148565b67ffffffffffffffff811115611a6a57634e487b7160e01b600052604160045260246000fd5b6040519080825280601f01601f191660200182016040528015611a94576020820181803683370190505b509050600360fc1b81600081518110611abd57634e487b7160e01b600052603260045260246000fd5b60200101906001600160f81b031916908160001a905350600f60fb1b81600181518110611afa57634e487b7160e01b600052603260045260246000fd5b60200101906001600160f81b031916908160001a9053506000611b1e846002612160565b611b29906001612148565b90505b6001811115611bbd576f181899199a1a9b1b9c1cb0b131b232b360811b85600f1660108110611b6b57634e487b7160e01b600052603260045260246000fd5b1a60f81b828281518110611b8f57634e487b7160e01b600052603260045260246000fd5b60200101906001600160f81b031916908160001a90535060049490941c93611bb6816121ab565b9050611b2c565b508315611c0c5760405162461bcd60e51b815260206004820181905260248201527f537472696e67733a20686578206c656e67746820696e73756666696369656e74604482015260640161028c565b9392505050565b828054611c1f906121c2565b90600052602060002090601f016020900481019282611c415760008555611c87565b82601f10611c5a57805160ff1916838001178555611c87565b82800160010185558215611c87579182015b82811115611c87578251825591602001919060010190611c6c565b50611c93929150611c97565b5090565b5b80821115611c935760008155600101611c98565b80356001600160a01b03811681146116b557600080fd5b803580151581146116b557600080fd5b600060208284031215611ce4578081fd5b611c0c82611cac565b60008060408385031215611cff578081fd5b611d0883611cac565b9150611d1660208401611cc3565b90509250929050565b600080600060608486031215611d33578081fd5b611d3c84611cac565b925060208401359150611d5160408501611cc3565b90509250925092565b600080600060408486031215611d6e578283fd5b833567ffffffffffffffff80821115611d85578485fd5b818601915086601f830112611d98578485fd5b813581811115611da6578586fd5b8760208260051b8501011115611dba578586fd5b602092830195509350611d519186019050611cac565b600060208284031215611de1578081fd5b611c0c82611cc3565b600060208284031215611dfb578081fd5b5035919050565b60008060408385031215611e14578182fd5b82359150611d1660208401611cac565b600060208284031215611e35578081fd5b81356001600160e01b031981168114611c0c578182fd5b60008060008060008060c08789031215611e64578182fd5b863567ffffffffffffffff80821115611e7b578384fd5b818901915089601f830112611e8e578384fd5b813581811115611ea057611ea061222e565b604051601f8201601f19908116603f01168101908382118183101715611ec857611ec861222e565b816040528281528c6020848701011115611ee0578687fd5b826020860160208301378660208483010152809a505050505050611f0660208801611cac565b9450611f1460408801611cac565b9350611f2260608801611cac565b9250611f3060808801611cac565b915060a087013590509295509295509295565b6000815180845260208085019450808401835b83811015611f7257815187529582019590820190600101611f56565b509495945050505050565b76020b1b1b2b9b9a1b7b73a3937b61d1030b1b1b7bab73a1604d1b815260008351611faf81601785016020880161217f565b7001034b99036b4b9b9b4b733903937b6329607d1b6017918401918201528351611fe081602884016020880161217f565b01602801949350505050565b602081526000825180602084015261200b81604085016020870161217f565b601f01601f19169190910160400192915050565b60208082526022908201527f41636365737369626c653a2043616c6c6572206973206e6f7420616e2061646d60408201526134b760f11b606082015260800190565b60208082526018908201527741636365737369626c653a207a65726f206164647265737360401b604082015260600190565b60208082526028908201527f41636365737369626c653a2043616c6c6572206973206e6f7420616e2070726f6040820152673c3c9030b236b4b760c11b606082015260800190565b60208082526016908201527520b1b1b2b9b9b4b136329d1039b0b6b29030b236b4b760511b604082015260600190565b8481526080602082015260006121246080830186611f43565b82810360408401526121368186611f43565b91505082606083015295945050505050565b6000821982111561215b5761215b612218565b500190565b600081600019048311821515161561217a5761217a612218565b500290565b60005b8381101561219a578181015183820152602001612182565b838111156112a15750506000910152565b6000816121ba576121ba612218565b506000190190565b600181811c908216806121d657607f821691505b602082108114156121f757634e487b7160e01b600052602260045260246000fd5b50919050565b600060001982141561221157612211612218565b5060010190565b634e487b7160e01b600052601160045260246000fd5b634e487b7160e01b600052604160045260246000fdfe52eafc11f6f81f86878bffd31109a0d92f37506527754f00788853ff9f63b130a2646970667358221220f8e8675cdf1587a2a03843d30e099563d448d319766757f5b5f1061f142696a364736f6c63430008040033df8b4c520ffe197c5343c6f5aec59570151ef9a492f2c624fd45ddde6135ec42a264697066735822122022ceae59d46641cc13c101edf4a91649a2ea40a01cd566430596b6c70993734b64736f6c63430008040033df8b4c520ffe197c5343c6f5aec59570151ef9a492f2c624fd45ddde6135ec42",
  "linkReferences": {},
  "deployedLinkReferences": {}
}