{
  "_format": "hh-sol-artifact-1",
  "contractName": "TokenDividendPoolProxy",
  "sourceName": "contracts/stake/TokenDividendPoolProxy.sol",
  "abi": [
    {
      "inputs": [
        {
          "internalType": "address",
          "name": "_impl",
          "type": "address"
        },
        {
          "internalType": "address",
          "name": "_admin",
          "type": "address"
        }
      ],
      "stateMutability": "nonpayable",
      "type": "constructor"
    },
    {
      "anonymous": false,
      "inputs": [
        {
          "indexed": true,
          "internalType": "bytes32",
          "name": "role",
          "type": "bytes32"
        },
        {
          "indexed": true,
          "internalType": "bytes32",
          "name": "previousAdminRole",
          "type": "bytes32"
        },
        {
          "indexed": true,
          "internalType": "bytes32",
          "name": "newAdminRole",
          "type": "bytes32"
        }
      ],
      "name": "RoleAdminChanged",
      "type": "event"
    },
    {
      "anonymous": false,
      "inputs": [
        {
          "indexed": true,
          "internalType": "bytes32",
          "name": "role",
          "type": "bytes32"
        },
        {
          "indexed": true,
          "internalType": "address",
          "name": "account",
          "type": "address"
        },
        {
          "indexed": true,
          "internalType": "address",
          "name": "sender",
          "type": "address"
        }
      ],
      "name": "RoleGranted",
      "type": "event"
    },
    {
      "anonymous": false,
      "inputs": [
        {
          "indexed": true,
          "internalType": "bytes32",
          "name": "role",
          "type": "bytes32"
        },
        {
          "indexed": true,
          "internalType": "address",
          "name": "account",
          "type": "address"
        },
        {
          "indexed": true,
          "internalType": "address",
          "name": "sender",
          "type": "address"
        }
      ],
      "name": "RoleRevoked",
      "type": "event"
    },
    {
      "anonymous": false,
      "inputs": [
        {
          "indexed": true,
          "internalType": "address",
          "name": "implementation",
          "type": "address"
        }
      ],
      "name": "Upgraded",
      "type": "event"
    },
    {
      "stateMutability": "payable",
      "type": "fallback"
    },
    {
      "inputs": [],
      "name": "ADMIN_ROLE",
      "outputs": [
        {
          "internalType": "bytes32",
          "name": "",
          "type": "bytes32"
        }
      ],
      "stateMutability": "view",
      "type": "function"
    },
    {
      "inputs": [],
      "name": "BURNER_ROLE",
      "outputs": [
        {
          "internalType": "bytes32",
          "name": "",
          "type": "bytes32"
        }
      ],
      "stateMutability": "view",
      "type": "function"
    },
    {
      "inputs": [],
      "name": "DEFAULT_ADMIN_ROLE",
      "outputs": [
        {
          "internalType": "bytes32",
          "name": "",
          "type": "bytes32"
        }
      ],
      "stateMutability": "view",
      "type": "function"
    },
    {
      "inputs": [],
      "name": "MINTER_ROLE",
      "outputs": [
        {
          "internalType": "bytes32",
          "name": "",
          "type": "bytes32"
        }
      ],
      "stateMutability": "view",
      "type": "function"
    },
    {
      "inputs": [
        {
          "internalType": "address",
          "name": "account",
          "type": "address"
        }
      ],
      "name": "addAdmin",
      "outputs": [],
      "stateMutability": "nonpayable",
      "type": "function"
    },
    {
      "inputs": [
        {
          "internalType": "uint256",
          "name": "",
          "type": "uint256"
        }
      ],
      "name": "distributedTokens",
      "outputs": [
        {
          "internalType": "address",
          "name": "",
          "type": "address"
        }
      ],
      "stateMutability": "view",
      "type": "function"
    },
    {
      "inputs": [
        {
          "internalType": "address",
          "name": "",
          "type": "address"
        }
      ],
      "name": "distributions",
      "outputs": [
        {
          "internalType": "bool",
          "name": "exists",
          "type": "bool"
        },
        {
          "internalType": "uint256",
          "name": "totalDistribution",
          "type": "uint256"
        },
        {
          "internalType": "uint256",
          "name": "lastBalance",
          "type": "uint256"
        }
      ],
      "stateMutability": "view",
      "type": "function"
    },
    {
      "inputs": [],
      "name": "erc20DividendAddress",
      "outputs": [
        {
          "internalType": "address",
          "name": "",
          "type": "address"
        }
      ],
      "stateMutability": "view",
      "type": "function"
    },
    {
      "inputs": [
        {
          "internalType": "bytes32",
          "name": "role",
          "type": "bytes32"
        }
      ],
      "name": "getRoleAdmin",
      "outputs": [
        {
          "internalType": "bytes32",
          "name": "",
          "type": "bytes32"
        }
      ],
      "stateMutability": "view",
      "type": "function"
    },
    {
      "inputs": [
        {
          "internalType": "bytes32",
          "name": "role",
          "type": "bytes32"
        },
        {
          "internalType": "address",
          "name": "account",
          "type": "address"
        }
      ],
      "name": "grantRole",
      "outputs": [],
      "stateMutability": "nonpayable",
      "type": "function"
    },
    {
      "inputs": [
        {
          "internalType": "bytes32",
          "name": "role",
          "type": "bytes32"
        },
        {
          "internalType": "address",
          "name": "account",
          "type": "address"
        }
      ],
      "name": "hasRole",
      "outputs": [
        {
          "internalType": "bool",
          "name": "",
          "type": "bool"
        }
      ],
      "stateMutability": "view",
      "type": "function"
    },
    {
      "inputs": [],
      "name": "implementation",
      "outputs": [
        {
          "internalType": "address",
          "name": "",
          "type": "address"
        }
      ],
      "stateMutability": "view",
      "type": "function"
    },
    {
      "inputs": [
        {
          "internalType": "address",
          "name": "_erc20RewardAddress",
          "type": "address"
        }
      ],
      "name": "initialize",
      "outputs": [],
      "stateMutability": "nonpayable",
      "type": "function"
    },
    {
      "inputs": [
        {
          "internalType": "address",
          "name": "account",
          "type": "address"
        }
      ],
      "name": "isAdmin",
      "outputs": [
        {
          "internalType": "bool",
          "name": "",
          "type": "bool"
        }
      ],
      "stateMutability": "view",
      "type": "function"
    },
    {
      "inputs": [],
      "name": "migratedL2",
      "outputs": [
        {
          "internalType": "bool",
          "name": "",
          "type": "bool"
        }
      ],
      "stateMutability": "view",
      "type": "function"
    },
    {
      "inputs": [],
      "name": "pauseProxy",
      "outputs": [
        {
          "internalType": "bool",
          "name": "",
          "type": "bool"
        }
      ],
      "stateMutability": "view",
      "type": "function"
    },
    {
      "inputs": [
        {
          "internalType": "address",
          "name": "account",
          "type": "address"
        }
      ],
      "name": "removeAdmin",
      "outputs": [],
      "stateMutability": "nonpayable",
      "type": "function"
    },
    {
      "inputs": [
        {
          "internalType": "bytes32",
          "name": "role",
          "type": "bytes32"
        },
        {
          "internalType": "address",
          "name": "account",
          "type": "address"
        }
      ],
      "name": "renounceRole",
      "outputs": [],
      "stateMutability": "nonpayable",
      "type": "function"
    },
    {
      "inputs": [
        {
          "internalType": "bytes32",
          "name": "role",
          "type": "bytes32"
        },
        {
          "internalType": "address",
          "name": "account",
          "type": "address"
        }
      ],
      "name": "revokeRole",
      "outputs": [],
      "stateMutability": "nonpayable",
      "type": "function"
    },
    {
      "inputs": [
        {
          "internalType": "bool",
          "name": "_pause",
          "type": "bool"
        }
      ],
      "name": "setProxyPause",
      "outputs": [],
      "stateMutability": "nonpayable",
      "type": "function"
    },
    {
      "inputs": [],
      "name": "stakeRegistry",
      "outputs": [
        {
          "internalType": "address",
          "name": "",
          "type": "address"
        }
      ],
      "stateMutability": "view",
      "type": "function"
    },
    {
      "inputs": [
        {
          "internalType": "bytes4",
          "name": "interfaceId",
          "type": "bytes4"
        }
      ],
      "name": "supportsInterface",
      "outputs": [
        {
          "internalType": "bool",
          "name": "",
          "type": "bool"
        }
      ],
      "stateMutability": "view",
      "type": "function"
    },
    {
      "inputs": [
        {
          "internalType": "address",
          "name": "newAdmin",
          "type": "address"
        }
      ],
      "name": "transferAdmin",
      "outputs": [],
      "stateMutability": "nonpayable",
      "type": "function"
    },
    {
      "inputs": [
        {
          "internalType": "address",
          "name": "impl",
          "type": "address"
        }
      ],
      "name": "upgradeTo",
      "outputs": [],
      "stateMutability": "nonpayable",
      "type": "function"
    },
    {
      "stateMutability": "payable",
      "type": "receive"
    }
  ],
  "bytecode": "0x608060405260016004553480156200001657600080fd5b50604051620014d9380380620014d9833981016040819052620000399162000320565b6200006660017f360894a13ba1a3210667c828492db98dca3e2076cc3735a920a3ca505d382bbd62000357565b60008051602062001499833981519152146200009257634e487b7160e01b600052600160045260246000fd5b6001600160a01b038216620000ee5760405162461bcd60e51b815260206004820152601b60248201527f4c6f636b544f5350726f78793a206c6f676963206973207a65726f000000000060448201526064015b60405180910390fd5b620000f98262000152565b62000114600080516020620014b983398151915280620001fe565b6200012f600080516020620014b98339815191528262000249565b6200014a600080516020620014b98339815191523062000249565b50506200037b565b62000168816200025960201b62000a731760201c565b620001eb5760405162461bcd60e51b815260206004820152604660248201527f50726f7879426173653a2043616e6e6f742073657420612070726f787920696d60448201527f706c656d656e746174696f6e20746f2061206e6f6e2d636f6e7472616374206160648201526564647265737360d01b608482015260a401620000e5565b6000805160206200149983398151915255565b600082815260056020526040808220600101805490849055905190918391839186917fbd79b86ffe0ab8e8776151514217cd7cacd52c909f66475c3af44e129f0b00ff9190a4505050565b6200025582826200025f565b5050565b3b151590565b60008281526005602090815260408083206001600160a01b038516845290915290205460ff16620002555760008281526005602090815260408083206001600160a01b03851684529091529020805460ff19166001179055620002bf3390565b6001600160a01b0316816001600160a01b0316837f2f8788117e7eff1d82e926ec794901d17c78024a50270940304540a733656f0d60405160405180910390a45050565b80516001600160a01b03811681146200031b57600080fd5b919050565b6000806040838503121562000333578182fd5b6200033e8362000303565b91506200034e6020840162000303565b90509250929050565b6000828210156200037657634e487b7160e01b81526011600452602481fd5b500390565b61110e806200038b6000396000f3fe60806040526004361061014f5760003560e01c806368304835116100b65780639353b9df1161006f5780639353b9df14610437578063a1f5f50e14610495578063a217fddf146104b6578063c4d66de8146104cb578063d5391393146104eb578063d547741f1461051f57610198565b80636830483514610370578063704802751461039557806375829def146103b557806375b238fc146103d55780637cb00d25146103f757806391d148541461041757610198565b80632f2ff15d116101085780632f2ff15d146102c157806336568abe146102e15780633659cfe61461030157806337a15503146103215780635c60da1b1461034157806363a8fd891461035657610198565b806301ffc9a7146101a25780630a41dcd6146101d75780631785f53c1461020f578063248a9ca31461022f57806324d7806c1461026d578063282c51f31461028d57610198565b366101985760405162461bcd60e51b815260206004820152601460248201527331b0b73737ba103932b1b2b4bb329022ba3432b960611b60448201526064015b60405180910390fd5b6101a061053f565b005b3480156101ae57600080fd5b506101c26101bd366004610f18565b6105e7565b60405190151581526020015b60405180910390f35b3480156101e357600080fd5b506001546101f7906001600160a01b031681565b6040516001600160a01b0390911681526020016101ce565b34801561021b57600080fd5b506101a061022a366004610e9b565b61061e565b34801561023b57600080fd5b5061025f61024a366004610ed5565b60009081526005602052604090206001015490565b6040519081526020016101ce565b34801561027957600080fd5b506101c2610288366004610e9b565b61065e565b34801561029957600080fd5b5061025f7f9667e80708b6eeeb0053fa0cca44e028ff548e2a9f029edfeac87c118b08b7c881565b3480156102cd57600080fd5b506101a06102dc366004610eed565b610678565b3480156102ed57600080fd5b506101a06102fc366004610eed565b61069e565b34801561030d57600080fd5b506101a061031c366004610e9b565b61071c565b34801561032d57600080fd5b506101f761033c366004610ed5565b610835565b34801561034d57600080fd5b506101f761085f565b34801561036257600080fd5b506000546101c29060ff1681565b34801561037c57600080fd5b506000546101f79061010090046001600160a01b031681565b3480156103a157600080fd5b506101a06103b0366004610e9b565b61086e565b3480156103c157600080fd5b506101a06103d0366004610e9b565b6108ab565b3480156103e157600080fd5b5061025f6000805160206110b983398151915281565b34801561040357600080fd5b506101a0610412366004610eb5565b6109a3565b34801561042357600080fd5b506101c2610432366004610eed565b6109db565b34801561044357600080fd5b50610478610452366004610e9b565b600260208190526000918252604090912080546001820154919092015460ff9092169183565b6040805193151584526020840192909252908201526060016101ce565b3480156104a157600080fd5b506000546101c290600160a81b900460ff1681565b3480156104c257600080fd5b5061025f600081565b3480156104d757600080fd5b506101a06104e6366004610e9b565b610a06565b3480156104f757600080fd5b5061025f7ff0887ba65ee2024ea881d91b74c2450ef19e1557f03bed3ea9f16b037cbe2dc981565b34801561052b57600080fd5b506101a061053a366004610eed565b610a4d565b6000610549610a79565b90506001600160a01b03811615801590610566575060005460ff16155b6105be5760405162461bcd60e51b8152602060048201526024808201527f4c6f636b544f5350726f78793a20696d706c204f522070726f78792069732066604482015263616c736560e01b606482015260840161018f565b3660008037600080366000845af43d6000803e8080156105dd573d6000f35b3d6000fd5b505050565b60006001600160e01b03198216637965db0b60e01b148061061857506301ffc9a760e01b6001600160e01b03198316145b92915050565b6106273361065e565b6106435760405162461bcd60e51b815260040161018f90610fe2565b61065b6000805160206110b98339815191528261069e565b50565b60006106186000805160206110b9833981519152836109db565b6000828152600560205260409020600101546106948133610a9e565b6105e28383610b02565b6001600160a01b038116331461070e5760405162461bcd60e51b815260206004820152602f60248201527f416363657373436f6e74726f6c3a2063616e206f6e6c792072656e6f756e636560448201526e103937b632b9903337b91039b2b63360891b606482015260840161018f565b6107188282610b88565b5050565b6107253361065e565b6107415760405162461bcd60e51b815260040161018f90610fe2565b6001600160a01b0381166107975760405162461bcd60e51b815260206004820152601b60248201527f4c6f636b544f5350726f78793a20696e707574206973207a65726f0000000000604482015260640161018f565b806001600160a01b03166107a9610a79565b6001600160a01b031614156107f55760405162461bcd60e51b81526020600482015260126024820152714c6f636b544f5350726f78793a2073616d6560701b604482015260640161018f565b6107fe81610bef565b6040516001600160a01b038216907fbc7cd75a20ee27fd9adebab32041f755214dbc6bffa90cc0225b39da2e5c2d3b90600090a250565b6003818154811061084557600080fd5b6000918252602090912001546001600160a01b0316905081565b6000610869610a79565b905090565b6108773361065e565b6108935760405162461bcd60e51b815260040161018f90610fe2565b61065b6000805160206110b983398151915282610678565b6108b43361065e565b6108d05760405162461bcd60e51b815260040161018f90610fe2565b6001600160a01b0381166109215760405162461bcd60e51b815260206004820152601860248201527741636365737369626c653a207a65726f206164647265737360401b604482015260640161018f565b336001600160a01b03821614156109735760405162461bcd60e51b815260206004820152601660248201527520b1b1b2b9b9b4b136329d1039b0b6b29030b236b4b760511b604482015260640161018f565b61098b6000805160206110b983398151915282610678565b61065b6000805160206110b98339815191523361069e565b6109ac3361065e565b6109c85760405162461bcd60e51b815260040161018f90610fe2565b6000805460ff1916911515919091179055565b60009182526005602090815260408084206001600160a01b0393909316845291905290205460ff1690565b610a0f3361065e565b610a2b5760405162461bcd60e51b815260040161018f90610fe2565b600180546001600160a01b0319166001600160a01b0392909216919091179055565b600082815260056020526040902060010154610a698133610a9e565b6105e28383610b88565b3b151590565b7f360894a13ba1a3210667c828492db98dca3e2076cc3735a920a3ca505d382bbc5490565b610aa882826109db565b61071857610ac0816001600160a01b03166014610c96565b610acb836020610c96565b604051602001610adc929190610f40565b60408051601f198184030181529082905262461bcd60e51b825261018f91600401610faf565b610b0c82826109db565b6107185760008281526005602090815260408083206001600160a01b03851684529091529020805460ff19166001179055610b443390565b6001600160a01b0316816001600160a01b0316837f2f8788117e7eff1d82e926ec794901d17c78024a50270940304540a733656f0d60405160405180910390a45050565b610b9282826109db565b156107185760008281526005602090815260408083206001600160a01b0385168085529252808320805460ff1916905551339285917ff6391f5c32d9c69d2a47ea670b442974b53935d1edc7fd64eb21e047a839171b9190a45050565b803b610c725760405162461bcd60e51b815260206004820152604660248201527f50726f7879426173653a2043616e6e6f742073657420612070726f787920696d60448201527f706c656d656e746174696f6e20746f2061206e6f6e2d636f6e7472616374206160648201526564647265737360d01b608482015260a40161018f565b7f360894a13ba1a3210667c828492db98dca3e2076cc3735a920a3ca505d382bbc55565b60606000610ca583600261103c565b610cb0906002611024565b67ffffffffffffffff811115610cd657634e487b7160e01b600052604160045260246000fd5b6040519080825280601f01601f191660200182016040528015610d00576020820181803683370190505b509050600360fc1b81600081518110610d2957634e487b7160e01b600052603260045260246000fd5b60200101906001600160f81b031916908160001a905350600f60fb1b81600181518110610d6657634e487b7160e01b600052603260045260246000fd5b60200101906001600160f81b031916908160001a9053506000610d8a84600261103c565b610d95906001611024565b90505b6001811115610e29576f181899199a1a9b1b9c1cb0b131b232b360811b85600f1660108110610dd757634e487b7160e01b600052603260045260246000fd5b1a60f81b828281518110610dfb57634e487b7160e01b600052603260045260246000fd5b60200101906001600160f81b031916908160001a90535060049490941c93610e228161108b565b9050610d98565b508315610e785760405162461bcd60e51b815260206004820181905260248201527f537472696e67733a20686578206c656e67746820696e73756666696369656e74604482015260640161018f565b9392505050565b80356001600160a01b0381168114610e9657600080fd5b919050565b600060208284031215610eac578081fd5b610e7882610e7f565b600060208284031215610ec6578081fd5b81358015158114610e78578182fd5b600060208284031215610ee6578081fd5b5035919050565b60008060408385031215610eff578081fd5b82359150610f0f60208401610e7f565b90509250929050565b600060208284031215610f29578081fd5b81356001600160e01b031981168114610e78578182fd5b76020b1b1b2b9b9a1b7b73a3937b61d1030b1b1b7bab73a1604d1b815260008351610f7281601785016020880161105b565b7001034b99036b4b9b9b4b733903937b6329607d1b6017918401918201528351610fa381602884016020880161105b565b01602801949350505050565b6020815260008251806020840152610fce81604085016020870161105b565b601f01601f19169190910160400192915050565b60208082526022908201527f41636365737369626c653a2043616c6c6572206973206e6f7420616e2061646d60408201526134b760f11b606082015260800190565b60008219821115611037576110376110a2565b500190565b6000816000190483118215151615611056576110566110a2565b500290565b60005b8381101561107657818101518382015260200161105e565b83811115611085576000848401525b50505050565b60008161109a5761109a6110a2565b506000190190565b634e487b7160e01b600052601160045260246000fdfedf8b4c520ffe197c5343c6f5aec59570151ef9a492f2c624fd45ddde6135ec42a26469706673582212204c5fa208b99d44099c04d9f533923f0d84042196daa1a6ef79ec4b94f4971d7c64736f6c63430008040033360894a13ba1a3210667c828492db98dca3e2076cc3735a920a3ca505d382bbcdf8b4c520ffe197c5343c6f5aec59570151ef9a492f2c624fd45ddde6135ec42",
  "linkReferences": {},
  "deployedLinkReferences": {}
}