{
  "_format": "hh-sol-artifact-1",
  "contractName": "TokenDividendPool",
  "sourceName": "contracts/stake/TokenDividendPool.sol",
  "abi": [
    {
      "anonymous": false,
      "inputs": [
        {
          "indexed": true,
          "internalType": "address",
          "name": "token",
          "type": "address"
        },
        {
          "indexed": false,
          "internalType": "uint256",
          "name": "amount",
          "type": "uint256"
        },
        {
          "indexed": false,
          "internalType": "uint256",
          "name": "snapshotId",
          "type": "uint256"
        }
      ],
      "name": "Claim",
      "type": "event"
    },
    {
      "anonymous": false,
      "inputs": [
        {
          "indexed": true,
          "internalType": "address",
          "name": "token",
          "type": "address"
        },
        {
          "indexed": false,
          "internalType": "uint256",
          "name": "amount",
          "type": "uint256"
        }
      ],
      "name": "Distribute",
      "type": "event"
    },
    {
      "anonymous": false,
      "inputs": [
        {
          "indexed": true,
          "internalType": "bytes32",
          "name": "role",
          "type": "bytes32"
        },
        {
          "indexed": true,
          "internalType": "bytes32",
          "name": "previousAdminRole",
          "type": "bytes32"
        },
        {
          "indexed": true,
          "internalType": "bytes32",
          "name": "newAdminRole",
          "type": "bytes32"
        }
      ],
      "name": "RoleAdminChanged",
      "type": "event"
    },
    {
      "anonymous": false,
      "inputs": [
        {
          "indexed": true,
          "internalType": "bytes32",
          "name": "role",
          "type": "bytes32"
        },
        {
          "indexed": true,
          "internalType": "address",
          "name": "account",
          "type": "address"
        },
        {
          "indexed": true,
          "internalType": "address",
          "name": "sender",
          "type": "address"
        }
      ],
      "name": "RoleGranted",
      "type": "event"
    },
    {
      "anonymous": false,
      "inputs": [
        {
          "indexed": true,
          "internalType": "bytes32",
          "name": "role",
          "type": "bytes32"
        },
        {
          "indexed": true,
          "internalType": "address",
          "name": "account",
          "type": "address"
        },
        {
          "indexed": true,
          "internalType": "address",
          "name": "sender",
          "type": "address"
        }
      ],
      "name": "RoleRevoked",
      "type": "event"
    },
    {
      "inputs": [],
      "name": "ADMIN_ROLE",
      "outputs": [
        {
          "internalType": "bytes32",
          "name": "",
          "type": "bytes32"
        }
      ],
      "stateMutability": "view",
      "type": "function"
    },
    {
      "inputs": [],
      "name": "BURNER_ROLE",
      "outputs": [
        {
          "internalType": "bytes32",
          "name": "",
          "type": "bytes32"
        }
      ],
      "stateMutability": "view",
      "type": "function"
    },
    {
      "inputs": [],
      "name": "DEFAULT_ADMIN_ROLE",
      "outputs": [
        {
          "internalType": "bytes32",
          "name": "",
          "type": "bytes32"
        }
      ],
      "stateMutability": "view",
      "type": "function"
    },
    {
      "inputs": [],
      "name": "MINTER_ROLE",
      "outputs": [
        {
          "internalType": "bytes32",
          "name": "",
          "type": "bytes32"
        }
      ],
      "stateMutability": "view",
      "type": "function"
    },
    {
      "inputs": [
        {
          "internalType": "address",
          "name": "account",
          "type": "address"
        }
      ],
      "name": "addAdmin",
      "outputs": [],
      "stateMutability": "nonpayable",
      "type": "function"
    },
    {
      "inputs": [
        {
          "internalType": "address",
          "name": "_token",
          "type": "address"
        }
      ],
      "name": "claim",
      "outputs": [],
      "stateMutability": "nonpayable",
      "type": "function"
    },
    {
      "inputs": [
        {
          "internalType": "address[]",
          "name": "_tokens",
          "type": "address[]"
        }
      ],
      "name": "claimBatch",
      "outputs": [],
      "stateMutability": "nonpayable",
      "type": "function"
    },
    {
      "inputs": [
        {
          "internalType": "address",
          "name": "_token",
          "type": "address"
        },
        {
          "internalType": "uint256",
          "name": "_endSnapshotId",
          "type": "uint256"
        }
      ],
      "name": "claimUpTo",
      "outputs": [],
      "stateMutability": "nonpayable",
      "type": "function"
    },
    {
      "inputs": [
        {
          "internalType": "address",
          "name": "_token",
          "type": "address"
        },
        {
          "internalType": "address",
          "name": "_account",
          "type": "address"
        }
      ],
      "name": "claimable",
      "outputs": [
        {
          "internalType": "uint256",
          "name": "",
          "type": "uint256"
        }
      ],
      "stateMutability": "view",
      "type": "function"
    },
    {
      "inputs": [
        {
          "internalType": "address",
          "name": "_token",
          "type": "address"
        },
        {
          "internalType": "address",
          "name": "_account",
          "type": "address"
        },
        {
          "internalType": "uint256",
          "name": "_endSnapshotId",
          "type": "uint256"
        }
      ],
      "name": "claimableUpTo",
      "outputs": [
        {
          "internalType": "uint256",
          "name": "",
          "type": "uint256"
        }
      ],
      "stateMutability": "view",
      "type": "function"
    },
    {
      "inputs": [
        {
          "internalType": "address",
          "name": "_token",
          "type": "address"
        },
        {
          "internalType": "uint256",
          "name": "_amount",
          "type": "uint256"
        }
      ],
      "name": "distribute",
      "outputs": [],
      "stateMutability": "nonpayable",
      "type": "function"
    },
    {
      "inputs": [
        {
          "internalType": "uint256",
          "name": "",
          "type": "uint256"
        }
      ],
      "name": "distributedTokens",
      "outputs": [
        {
          "internalType": "address",
          "name": "",
          "type": "address"
        }
      ],
      "stateMutability": "view",
      "type": "function"
    },
    {
      "inputs": [
        {
          "internalType": "address",
          "name": "",
          "type": "address"
        }
      ],
      "name": "distributions",
      "outputs": [
        {
          "internalType": "bool",
          "name": "exists",
          "type": "bool"
        },
        {
          "internalType": "uint256",
          "name": "totalDistribution",
          "type": "uint256"
        },
        {
          "internalType": "uint256",
          "name": "lastBalance",
          "type": "uint256"
        }
      ],
      "stateMutability": "view",
      "type": "function"
    },
    {
      "inputs": [],
      "name": "erc20DividendAddress",
      "outputs": [
        {
          "internalType": "address",
          "name": "",
          "type": "address"
        }
      ],
      "stateMutability": "view",
      "type": "function"
    },
    {
      "inputs": [
        {
          "internalType": "address",
          "name": "_account",
          "type": "address"
        }
      ],
      "name": "getAvailableClaims",
      "outputs": [
        {
          "internalType": "address[]",
          "name": "claimableTokens",
          "type": "address[]"
        },
        {
          "internalType": "uint256[]",
          "name": "claimableAmounts",
          "type": "uint256[]"
        }
      ],
      "stateMutability": "view",
      "type": "function"
    },
    {
      "inputs": [
        {
          "internalType": "bytes32",
          "name": "role",
          "type": "bytes32"
        }
      ],
      "name": "getRoleAdmin",
      "outputs": [
        {
          "internalType": "bytes32",
          "name": "",
          "type": "bytes32"
        }
      ],
      "stateMutability": "view",
      "type": "function"
    },
    {
      "inputs": [
        {
          "internalType": "bytes32",
          "name": "role",
          "type": "bytes32"
        },
        {
          "internalType": "address",
          "name": "account",
          "type": "address"
        }
      ],
      "name": "grantRole",
      "outputs": [],
      "stateMutability": "nonpayable",
      "type": "function"
    },
    {
      "inputs": [
        {
          "internalType": "bytes32",
          "name": "role",
          "type": "bytes32"
        },
        {
          "internalType": "address",
          "name": "account",
          "type": "address"
        }
      ],
      "name": "hasRole",
      "outputs": [
        {
          "internalType": "bool",
          "name": "",
          "type": "bool"
        }
      ],
      "stateMutability": "view",
      "type": "function"
    },
    {
      "inputs": [
        {
          "internalType": "address",
          "name": "account",
          "type": "address"
        }
      ],
      "name": "isAdmin",
      "outputs": [
        {
          "internalType": "bool",
          "name": "",
          "type": "bool"
        }
      ],
      "stateMutability": "view",
      "type": "function"
    },
    {
      "inputs": [],
      "name": "migratedL2",
      "outputs": [
        {
          "internalType": "bool",
          "name": "",
          "type": "bool"
        }
      ],
      "stateMutability": "view",
      "type": "function"
    },
    {
      "inputs": [],
      "name": "pauseProxy",
      "outputs": [
        {
          "internalType": "bool",
          "name": "",
          "type": "bool"
        }
      ],
      "stateMutability": "view",
      "type": "function"
    },
    {
      "inputs": [
        {
          "internalType": "address",
          "name": "account",
          "type": "address"
        }
      ],
      "name": "removeAdmin",
      "outputs": [],
      "stateMutability": "nonpayable",
      "type": "function"
    },
    {
      "inputs": [
        {
          "internalType": "bytes32",
          "name": "role",
          "type": "bytes32"
        },
        {
          "internalType": "address",
          "name": "account",
          "type": "address"
        }
      ],
      "name": "renounceRole",
      "outputs": [],
      "stateMutability": "nonpayable",
      "type": "function"
    },
    {
      "inputs": [
        {
          "internalType": "bytes32",
          "name": "role",
          "type": "bytes32"
        },
        {
          "internalType": "address",
          "name": "account",
          "type": "address"
        }
      ],
      "name": "revokeRole",
      "outputs": [],
      "stateMutability": "nonpayable",
      "type": "function"
    },
    {
      "inputs": [],
      "name": "stakeRegistry",
      "outputs": [
        {
          "internalType": "address",
          "name": "",
          "type": "address"
        }
      ],
      "stateMutability": "view",
      "type": "function"
    },
    {
      "inputs": [
        {
          "internalType": "bytes4",
          "name": "interfaceId",
          "type": "bytes4"
        }
      ],
      "name": "supportsInterface",
      "outputs": [
        {
          "internalType": "bool",
          "name": "",
          "type": "bool"
        }
      ],
      "stateMutability": "view",
      "type": "function"
    },
    {
      "inputs": [
        {
          "internalType": "address",
          "name": "_token",
          "type": "address"
        }
      ],
      "name": "totalDistribution",
      "outputs": [
        {
          "internalType": "uint256",
          "name": "",
          "type": "uint256"
        }
      ],
      "stateMutability": "view",
      "type": "function"
    },
    {
      "inputs": [
        {
          "internalType": "address",
          "name": "newAdmin",
          "type": "address"
        }
      ],
      "name": "transferAdmin",
      "outputs": [],
      "stateMutability": "nonpayable",
      "type": "function"
    }
  ],
  "bytecode": "0x6080604052600160045534801561001557600080fd5b50611c4d806100256000396000f3fe608060405234801561001057600080fd5b50600436106101845760003560e01c806370480275116100d9578063d4570c1c11610087578063d4570c1c146103d5578063d4abe717146103e8578063d5391393146103fb578063d547741f14610422578063e3ba18a514610435578063f2cf0aca14610448578063fb9321081461045b57600080fd5b8063704802751461031a57806375829def1461032d57806375b238fc1461034057806391d14854146103555780639353b9df14610368578063a1f5f50e146103b9578063a217fddf146103cd57600080fd5b8063282c51f311610136578063282c51f3146102745780632f2ff15d1461029b57806336568abe146102ae57806337a15503146102c157806362e40c24146102d457806363a8fd89146102f5578063683048351461030257600080fd5b806301ffc9a71461018957806304e44f5d146101b15780630a41dcd6146101eb5780631785f53c146102165780631e83409a1461022b578063248a9ca31461023e57806324d7806c14610261575b600080fd5b61019c6101973660046118ca565b61046e565b60405190151581526020015b60405180910390f35b6101dd6101bf366004611750565b6001600160a01b031660009081526002602052604090206001015490565b6040519081526020016101a8565b6001546101fe906001600160a01b031681565b6040516001600160a01b0390911681526020016101a8565b610229610224366004611750565b6104a5565b005b610229610239366004611750565b6104ee565b6101dd61024c366004611890565b60009081526005602052604090206001015490565b61019c61026f366004611750565b610517565b6101dd7f9667e80708b6eeeb0053fa0cca44e028ff548e2a9f029edfeac87c118b08b7c881565b6102296102a93660046118a8565b610531565b6102296102bc3660046118a8565b61055c565b6101fe6102cf366004611890565b6105da565b6102e76102e2366004611750565b610604565b6040516101a8929190611979565b60005461019c9060ff1681565b6000546101fe9061010090046001600160a01b031681565b610229610328366004611750565b6108ff565b61022961033b366004611750565b61093c565b6101dd600080516020611bf883398151915281565b61019c6103633660046118a8565b610a34565b61039c610376366004611750565b600260208190526000918252604090912080546001820154919092015460ff9092169183565b6040805193151584526020840192909252908201526060016101a8565b60005461019c90600160a81b900460ff1681565b6101dd600081565b6101dd6103e336600461176a565b610a5f565b6102296103f6366004611800565b610aa8565b6101dd7ff0887ba65ee2024ea881d91b74c2450ef19e1557f03bed3ea9f16b037cbe2dc981565b6102296104303660046118a8565b610afb565b6102296104433660046117d7565b610b21565b6101dd61045636600461179c565b610b9a565b6102296104693660046117d7565b610c21565b60006001600160e01b03198216637965db0b60e01b148061049f57506301ffc9a760e01b6001600160e01b03198316145b92915050565b6104ae33610517565b6104d35760405162461bcd60e51b81526004016104ca90611a2f565b60405180910390fd5b6104eb600080516020611bf88339815191528261055c565b50565b6001600160a01b0381166000908152600260205260409020600501546104eb9082903390610fce565b600061049f600080516020611bf883398151915283610a34565b60008281526005602052604090206001015461054d8133611146565b61055783836111aa565b505050565b6001600160a01b03811633146105cc5760405162461bcd60e51b815260206004820152602f60248201527f416363657373436f6e74726f6c3a2063616e206f6e6c792072656e6f756e636560448201526e103937b632b9903337b91039b2b63360891b60648201526084016104ca565b6105d68282611230565b5050565b600381815481106105ea57600080fd5b6000918252602090912001546001600160a01b0316905081565b606080600060038054905067ffffffffffffffff81111561063557634e487b7160e01b600052604160045260246000fd5b60405190808252806020026020018201604052801561065e578160200160208202803683370190505b5090506000805b600354811015610728576106ae6003828154811061069357634e487b7160e01b600052603260045260246000fd5b6000918252602090912001546001600160a01b031687610a5f565b8382815181106106ce57634e487b7160e01b600052603260045260246000fd5b60200260200101818152505060008382815181106106fc57634e487b7160e01b600052603260045260246000fd5b6020026020010151111561071857610715600183611b11565b91505b61072181611bc6565b9050610665565b508067ffffffffffffffff81111561075057634e487b7160e01b600052604160045260246000fd5b604051908082528060200260200182016040528015610779578160200160208202803683370190505b5092508067ffffffffffffffff8111156107a357634e487b7160e01b600052604160045260246000fd5b6040519080825280602002602001820160405280156107cc578160200160208202803683370190505b5093506000805b6003548110156108f65760008482815181106107ff57634e487b7160e01b600052603260045260246000fd5b602002602001015111156108e65783818151811061082d57634e487b7160e01b600052603260045260246000fd5b602002602001015185838151811061085557634e487b7160e01b600052603260045260246000fd5b6020026020010181815250506003818154811061088257634e487b7160e01b600052603260045260246000fd5b9060005260206000200160009054906101000a90046001600160a01b03168683815181106108c057634e487b7160e01b600052603260045260246000fd5b6001600160a01b0390921660209283029190910190910152816108e281611bc6565b9250505b6108ef81611bc6565b90506107d3565b50505050915091565b61090833610517565b6109245760405162461bcd60e51b81526004016104ca90611a2f565b6104eb600080516020611bf883398151915282610531565b61094533610517565b6109615760405162461bcd60e51b81526004016104ca90611a2f565b6001600160a01b0381166109b25760405162461bcd60e51b815260206004820152601860248201527741636365737369626c653a207a65726f206164647265737360401b60448201526064016104ca565b336001600160a01b0382161415610a045760405162461bcd60e51b815260206004820152601660248201527520b1b1b2b9b9b4b136329d1039b0b6b29030b236b4b760511b60448201526064016104ca565b610a1c600080516020611bf883398151915282610531565b6104eb600080516020611bf88339815191523361055c565b60009182526005602090815260408084206001600160a01b0393909316845291905290205460ff1690565b6001600160a01b0380831660009081526002602090815260408083209385168352600484019091528120546005830154919291610a9e86868484611297565b9695505050505050565b60005b8181101561055757610aeb838383818110610ad657634e487b7160e01b600052603260045260246000fd5b90506020020160208101906102399190611750565b610af481611bc6565b9050610aab565b600082815260056020526040902060010154610b178133611146565b6105578383611230565b6000610b2e833384610b9a565b11610b4b5760405162461bcd60e51b81526004016104ca90611a71565b600080610b588484611364565b9150915081610b795760405162461bcd60e51b81526004016104ca90611aa8565b6000610b86826001611b11565b9050610b93853383610fce565b5050505050565b6000806000610ba98685611364565b9150915081610bca5760405162461bcd60e51b81526004016104ca90611aa8565b6000610bd7826001611b11565b6001600160a01b038089166000908152600260209081526040808320938b1683526004840190915290205491925090610c1289898386611297565b955050505050505b9392505050565b600454600114610c435760405162461bcd60e51b81526004016104ca90611adf565b60006004818155600154604080516318160ddd60e01b815290516001600160a01b03909216926318160ddd928282019260209290829003018186803b158015610c8b57600080fd5b505afa158015610c9f573d6000803e3d6000fd5b505050506040513d601f19601f82011682018060405250810190610cc391906118f2565b11610d075760405162461bcd60e51b8152602060048201526014602482015273546f74616c20537570706c79206973207a65726f60601b60448201526064016104ca565b6001600160a01b0382166000818152600260205260409081902090516323b872dd60e01b8152336004820152306024820152604481018490529091906323b872dd90606401602060405180830381600087803b158015610d6657600080fd5b505af1158015610d7a573d6000803e3d6000fd5b505050506040513d601f19601f82011682018060405250810190610d9e9190611870565b50805460ff16610df457600380546001810182556000919091527fc2575a0e9e593c00f959f8c92f12db2869c3395a3b0502d05e2516446f71f85b0180546001600160a01b0319166001600160a01b0385161790555b6040516370a0823160e01b81523060048201526000906001600160a01b038516906370a082319060240160206040518083038186803b158015610e3657600080fd5b505afa158015610e4a573d6000803e3d6000fd5b505050506040513d601f19601f82011682018060405250810190610e6e91906118f2565b90506000826002015482610e829190611b68565b835460ff19166001908117855560028501849055840154909150610ea7908290611b11565b6001808501919091555460408051634b88b8ad60e11b815290516000926001600160a01b031691639711715a91600480830192602092919082900301818787803b158015610ef457600080fd5b505af1158015610f08573d6000803e3d6000fd5b505050506040513d601f19601f82011682018060405250810190610f2c91906118f2565b6040805160608101825282815260208082018681524283850190815260058a018054600181810183556000928352949091209451600390910290940193845590519183019190915551600290910155519091506001600160a01b038716907fc1d32ad5cca423e7dda2123dbf8c482f8e77d00b631c06e903a47f2cec1334df90610fb99088815260200190565b60405180910390a25050600160045550505050565b600454600114610ff05760405162461bcd60e51b81526004016104ca90611adf565b600060048181556001600160a01b0380861683526002602090815260408085209287168552928201905290822054909161102c86868487611297565b90506000811161104e5760405162461bcd60e51b81526004016104ca90611a71565b60405163a9059cbb60e01b8152336004820152602481018290526001600160a01b0387169063a9059cbb90604401602060405180830381600087803b15801561109657600080fd5b505af11580156110aa573d6000803e3d6000fd5b505050506040513d601f19601f820116820180604052508101906110ce9190611870565b506001600160a01b03851660009081526004840160205260408120859055600284018054839290611100908490611b68565b909155505060408051828152602081018690526001600160a01b038816917f34fcbac0073d7c3d388e51312faf357774904998eeb8fca628b9e6f65ee1cbf79101610fb9565b6111508282610a34565b6105d657611168816001600160a01b03166014611415565b611173836020611415565b60405160200161118492919061190a565b60408051601f198184030181529082905262461bcd60e51b82526104ca916004016119fc565b6111b48282610a34565b6105d65760008281526005602090815260408083206001600160a01b03851684529091529020805460ff191660011790556111ec3390565b6001600160a01b0316816001600160a01b0316837f2f8788117e7eff1d82e926ec794901d17c78024a50270940304540a733656f0d60405160405180910390a45050565b61123a8282610a34565b156105d65760008281526005602090815260408083206001600160a01b0385168085529252808320805460ff1916905551339285917ff6391f5c32d9c69d2a47ea670b442974b53935d1edc7fd64eb21e047a839171b9190a45050565b6001600160a01b038416600090815260026020526040812081845b848110156113595760008360050182815481106112df57634e487b7160e01b600052603260045260246000fd5b9060005260206000209060030201600001549050600084600501838154811061131857634e487b7160e01b600052603260045260246000fd5b90600052602060002090600302016001015490506113378983836115f7565b6113419085611b11565b935050508060016113529190611b11565b90506112b2565b509695505050505050565b6001600160a01b0382166000908152600260205260408120600501805482919061139557600080925092505061140e565b80546113a390600190611b68565b91505b838183815481106113c757634e487b7160e01b600052603260045260246000fd5b90600052602060002090600302016000015414156113e957600192505061140e565b816113f357611405565b816113fd81611baf565b9250506113a6565b60008092509250505b9250929050565b60606000611424836002611b49565b61142f906002611b11565b67ffffffffffffffff81111561145557634e487b7160e01b600052604160045260246000fd5b6040519080825280601f01601f19166020018201604052801561147f576020820181803683370190505b509050600360fc1b816000815181106114a857634e487b7160e01b600052603260045260246000fd5b60200101906001600160f81b031916908160001a905350600f60fb1b816001815181106114e557634e487b7160e01b600052603260045260246000fd5b60200101906001600160f81b031916908160001a9053506000611509846002611b49565b611514906001611b11565b90505b60018111156115a8576f181899199a1a9b1b9c1cb0b131b232b360811b85600f166010811061155657634e487b7160e01b600052603260045260246000fd5b1a60f81b82828151811061157a57634e487b7160e01b600052603260045260246000fd5b60200101906001600160f81b031916908160001a90535060049490941c936115a181611baf565b9050611517565b508315610c1a5760405162461bcd60e51b815260206004820181905260248201527f537472696e67733a20686578206c656e67746820696e73756666696369656e7460448201526064016104ca565b60015460405163277166bf60e11b81526001600160a01b038581166004830152602482018590526000928392911690634ee2cd7e9060440160206040518083038186803b15801561164757600080fd5b505afa15801561165b573d6000803e3d6000fd5b505050506040513d601f19601f8201168201806040525081019061167f91906118f2565b905080611690576000915050610c1a565b600154604051630981b24d60e41b8152600481018690526000916001600160a01b03169063981b24d09060240160206040518083038186803b1580156116d557600080fd5b505afa1580156116e9573d6000803e3d6000fd5b505050506040513d601f19601f8201168201806040525081019061170d91906118f2565b90508061171f57600092505050610c1a565b8061172a8386611b49565b610a9e9190611b29565b80356001600160a01b038116811461174b57600080fd5b919050565b600060208284031215611761578081fd5b610c1a82611734565b6000806040838503121561177c578081fd5b61178583611734565b915061179360208401611734565b90509250929050565b6000806000606084860312156117b0578081fd5b6117b984611734565b92506117c760208501611734565b9150604084013590509250925092565b600080604083850312156117e9578182fd5b6117f283611734565b946020939093013593505050565b60008060208385031215611812578182fd5b823567ffffffffffffffff80821115611829578384fd5b818501915085601f83011261183c578384fd5b81358181111561184a578485fd5b8660208260051b850101111561185e578485fd5b60209290920196919550909350505050565b600060208284031215611881578081fd5b81518015158114610c1a578182fd5b6000602082840312156118a1578081fd5b5035919050565b600080604083850312156118ba578182fd5b8235915061179360208401611734565b6000602082840312156118db578081fd5b81356001600160e01b031981168114610c1a578182fd5b600060208284031215611903578081fd5b5051919050565b76020b1b1b2b9b9a1b7b73a3937b61d1030b1b1b7bab73a1604d1b81526000835161193c816017850160208801611b7f565b7001034b99036b4b9b9b4b733903937b6329607d1b601791840191820152835161196d816028840160208801611b7f565b01602801949350505050565b604080825283519082018190526000906020906060840190828701845b828110156119bb5781516001600160a01b031684529284019290840190600101611996565b50505083810382850152845180825285830191830190845b818110156119ef578351835292840192918401916001016119d3565b5090979650505050505050565b6020815260008251806020840152611a1b816040850160208701611b7f565b601f01601f19169190910160400192915050565b60208082526022908201527f41636365737369626c653a2043616c6c6572206973206e6f7420616e2061646d60408201526134b760f11b606082015260800190565b6020808252601c908201527f416d6f756e7420746f20626520636c61696d6564206973207a65726f00000000604082015260600190565b6020808252601c908201527f4e6f207375636820736e617073686f7420494420697320666f756e6400000000604082015260600190565b6020808252601890820152774c6f636b496420697320616c726561647920696e2075736560401b604082015260600190565b60008219821115611b2457611b24611be1565b500190565b600082611b4457634e487b7160e01b81526012600452602481fd5b500490565b6000816000190483118215151615611b6357611b63611be1565b500290565b600082821015611b7a57611b7a611be1565b500390565b60005b83811015611b9a578181015183820152602001611b82565b83811115611ba9576000848401525b50505050565b600081611bbe57611bbe611be1565b506000190190565b6000600019821415611bda57611bda611be1565b5060010190565b634e487b7160e01b600052601160045260246000fdfedf8b4c520ffe197c5343c6f5aec59570151ef9a492f2c624fd45ddde6135ec42a26469706673582212209c08e1c306d97086434d6485706d88473515fbca55c5cd6d4750eb5e88c9cfc164736f6c63430008040033",
  "linkReferences": {},
  "deployedLinkReferences": {}
}