{
  "_format": "hh-sol-artifact-1",
  "contractName": "TokenDistribute",
  "sourceName": "contracts/TokenDistribute.sol",
  "abi": [
    {
      "anonymous": false,
      "inputs": [
        {
          "indexed": false,
          "internalType": "address",
          "name": "projectToken_",
          "type": "address"
        },
        {
          "indexed": false,
          "internalType": "uint256",
          "name": "totalDistributeAmount_",
          "type": "uint256"
        },
        {
          "components": [
            {
              "internalType": "address",
              "name": "to",
              "type": "address"
            },
            {
              "internalType": "uint256",
              "name": "amount",
              "type": "uint256"
            }
          ],
          "indexed": false,
          "internalType": "struct TokenDistribute.DistributeInfo[]",
          "name": "tokens_",
          "type": "tuple[]"
        }
      ],
      "name": "Distributed",
      "type": "event"
    },
    {
      "inputs": [
        {
          "internalType": "address",
          "name": "projectToken",
          "type": "address"
        },
        {
          "internalType": "uint256",
          "name": "totalDistributeAmount",
          "type": "uint256"
        },
        {
          "components": [
            {
              "internalType": "address",
              "name": "to",
              "type": "address"
            },
            {
              "internalType": "uint256",
              "name": "amount",
              "type": "uint256"
            }
          ],
          "internalType": "struct TokenDistribute.DistributeInfo[]",
          "name": "tokens",
          "type": "tuple[]"
        }
      ],
      "name": "distribute",
      "outputs": [],
      "stateMutability": "nonpayable",
      "type": "function"
    }
  ],
  "bytecode": "0x608060405234801561001057600080fd5b50610858806100206000396000f3fe608060405234801561001057600080fd5b506004361061002b5760003560e01c8063b4b49d3314610030575b600080fd5b61004361003e366004610575565b610045565b005b8161007c5760405162461bcd60e51b8152602060048201526002602482015261045360f41b60448201526064015b60405180910390fd5b80516100af5760405162461bcd60e51b8152602060048201526002602482015261453160f01b6044820152606401610073565b80516000805b8281101561016a5760008482815181106100df57634e487b7160e01b600052603260045260246000fd5b6020026020010151905060006001600160a01b031681600001516001600160a01b031614158015610114575060008160200151115b6101455760405162461bcd60e51b8152602060048201526002602482015261229960f11b6044820152606401610073565b60208101516101549084610797565b9250508080610162906107db565b9150506100b5565b5083811461019f5760405162461bcd60e51b8152602060048201526002602482015261114d60f21b6044820152606401610073565b6101b46001600160a01b038616333087610267565b60005b828110156102245760008482815181106101e157634e487b7160e01b600052603260045260246000fd5b6020026020010151905061021181600001518260200151896001600160a01b03166102d89092919063ffffffff16565b508061021c816107db565b9150506101b7565b507f40bceecfcda96eeeca1afa1d18b60c7ba3e6f6436a827b4351f983579931bc1c8585856040516102589392919061069f565b60405180910390a15050505050565b6040516001600160a01b03808516602483015283166044820152606481018290526102d29085906323b872dd60e01b906084015b60408051601f198184030181529190526020810180516001600160e01b03166001600160e01b03199093169290921790915261030d565b50505050565b6040516001600160a01b03831660248201526044810182905261030890849063a9059cbb60e01b9060640161029b565b505050565b6000610362826040518060400160405280602081526020017f5361666545524332303a206c6f772d6c6576656c2063616c6c206661696c6564815250856001600160a01b03166103df9092919063ffffffff16565b80519091501561030857808060200190518101906103809190610663565b6103085760405162461bcd60e51b815260206004820152602a60248201527f5361666545524332303a204552433230206f7065726174696f6e20646964206e6044820152691bdd081cdd58d8d9595960b21b6064820152608401610073565b60606103ee84846000856103f8565b90505b9392505050565b6060824710156104595760405162461bcd60e51b815260206004820152602660248201527f416464726573733a20696e73756666696369656e742062616c616e636520666f6044820152651c8818d85b1b60d21b6064820152608401610073565b843b6104a75760405162461bcd60e51b815260206004820152601d60248201527f416464726573733a2063616c6c20746f206e6f6e2d636f6e74726163740000006044820152606401610073565b600080866001600160a01b031685876040516104c39190610683565b60006040518083038185875af1925050503d8060008114610500576040519150601f19603f3d011682016040523d82523d6000602084013e610505565b606091505b5091509150610515828286610520565b979650505050505050565b6060831561052f5750816103f1565b82511561053f5782518084602001fd5b8160405162461bcd60e51b8152600401610073919061070a565b80356001600160a01b038116811461057057600080fd5b919050565b600080600060608486031215610589578283fd5b61059284610559565b9250602080850135925060408086013567ffffffffffffffff808211156105b7578485fd5b818801915088601f8301126105ca578485fd5b8135818111156105dc576105dc61080c565b6105ea858260051b01610766565b8181528581019250838601600683901b850187018c1015610609578788fd5b8794505b828510156106525785818d031215610623578788fd5b61062b61073d565b61063482610559565b8152818801358882015284526001949094019392860192850161060d565b508096505050505050509250925092565b600060208284031215610674578081fd5b815180151581146103f1578182fd5b600082516106958184602087016107af565b9190910192915050565b60006060820160018060a01b0380871684526020868186015260406060818701528387518086526080880191508389019550865b818110156106fa5786518051871684528501518584015295840195918301916001016106d3565b50909a9950505050505050505050565b60208152600082518060208401526107298160408501602087016107af565b601f01601f19169190910160400192915050565b6040805190810167ffffffffffffffff811182821017156107605761076061080c565b60405290565b604051601f8201601f1916810167ffffffffffffffff8111828210171561078f5761078f61080c565b604052919050565b600082198211156107aa576107aa6107f6565b500190565b60005b838110156107ca5781810151838201526020016107b2565b838111156102d25750506000910152565b60006000198214156107ef576107ef6107f6565b5060010190565b634e487b7160e01b600052601160045260246000fd5b634e487b7160e01b600052604160045260246000fdfea2646970667358221220a99d34be2cc0a88d8b56ef33e2bfd2ce63b4618b02cc7b280fe6c8a630b721d964736f6c63430008040033",
  "linkReferences": {},
  "deployedLinkReferences": {}
}