{
  "_format": "hh-sol-artifact-1",
  "contractName": "TokenDividendPoolProxy",
  "sourceName": "contracts/stake/TokenDividendPoolProxy.sol",
  "abi": [
    {
      "inputs": [
        {
          "internalType": "address",
          "name": "_impl",
          "type": "address"
        },
        {
          "internalType": "address",
          "name": "_admin",
          "type": "address"
        }
      ],
      "stateMutability": "nonpayable",
      "type": "constructor"
    },
    {
      "anonymous": false,
      "inputs": [
        {
          "indexed": true,
          "internalType": "bytes32",
          "name": "role",
          "type": "bytes32"
        },
        {
          "indexed": true,
          "internalType": "bytes32",
          "name": "previousAdminRole",
          "type": "bytes32"
        },
        {
          "indexed": true,
          "internalType": "bytes32",
          "name": "newAdminRole",
          "type": "bytes32"
        }
      ],
      "name": "RoleAdminChanged",
      "type": "event"
    },
    {
      "anonymous": false,
      "inputs": [
        {
          "indexed": true,
          "internalType": "bytes32",
          "name": "role",
          "type": "bytes32"
        },
        {
          "indexed": true,
          "internalType": "address",
          "name": "account",
          "type": "address"
        },
        {
          "indexed": true,
          "internalType": "address",
          "name": "sender",
          "type": "address"
        }
      ],
      "name": "RoleGranted",
      "type": "event"
    },
    {
      "anonymous": false,
      "inputs": [
        {
          "indexed": true,
          "internalType": "bytes32",
          "name": "role",
          "type": "bytes32"
        },
        {
          "indexed": true,
          "internalType": "address",
          "name": "account",
          "type": "address"
        },
        {
          "indexed": true,
          "internalType": "address",
          "name": "sender",
          "type": "address"
        }
      ],
      "name": "RoleRevoked",
      "type": "event"
    },
    {
      "anonymous": false,
      "inputs": [
        {
          "indexed": true,
          "internalType": "address",
          "name": "implementation",
          "type": "address"
        }
      ],
      "name": "Upgraded",
      "type": "event"
    },
    {
      "stateMutability": "payable",
      "type": "fallback"
    },
    {
      "inputs": [],
      "name": "ADMIN_ROLE",
      "outputs": [
        {
          "internalType": "bytes32",
          "name": "",
          "type": "bytes32"
        }
      ],
      "stateMutability": "view",
      "type": "function"
    },
    {
      "inputs": [],
      "name": "BURNER_ROLE",
      "outputs": [
        {
          "internalType": "bytes32",
          "name": "",
          "type": "bytes32"
        }
      ],
      "stateMutability": "view",
      "type": "function"
    },
    {
      "inputs": [],
      "name": "DEFAULT_ADMIN_ROLE",
      "outputs": [
        {
          "internalType": "bytes32",
          "name": "",
          "type": "bytes32"
        }
      ],
      "stateMutability": "view",
      "type": "function"
    },
    {
      "inputs": [],
      "name": "MINTER_ROLE",
      "outputs": [
        {
          "internalType": "bytes32",
          "name": "",
          "type": "bytes32"
        }
      ],
      "stateMutability": "view",
      "type": "function"
    },
    {
      "inputs": [
        {
          "internalType": "address",
          "name": "account",
          "type": "address"
        }
      ],
      "name": "addAdmin",
      "outputs": [],
      "stateMutability": "nonpayable",
      "type": "function"
    },
    {
      "inputs": [
        {
          "internalType": "uint256",
          "name": "",
          "type": "uint256"
        }
      ],
      "name": "distributedTokens",
      "outputs": [
        {
          "internalType": "address",
          "name": "",
          "type": "address"
        }
      ],
      "stateMutability": "view",
      "type": "function"
    },
    {
      "inputs": [
        {
          "internalType": "address",
          "name": "",
          "type": "address"
        }
      ],
      "name": "distributions",
      "outputs": [
        {
          "internalType": "bool",
          "name": "exists",
          "type": "bool"
        },
        {
          "internalType": "uint256",
          "name": "totalDistribution",
          "type": "uint256"
        },
        {
          "internalType": "uint256",
          "name": "lastBalance",
          "type": "uint256"
        }
      ],
      "stateMutability": "view",
      "type": "function"
    },
    {
      "inputs": [],
      "name": "erc20DividendAddress",
      "outputs": [
        {
          "internalType": "address",
          "name": "",
          "type": "address"
        }
      ],
      "stateMutability": "view",
      "type": "function"
    },
    {
      "inputs": [
        {
          "internalType": "bytes32",
          "name": "role",
          "type": "bytes32"
        }
      ],
      "name": "getRoleAdmin",
      "outputs": [
        {
          "internalType": "bytes32",
          "name": "",
          "type": "bytes32"
        }
      ],
      "stateMutability": "view",
      "type": "function"
    },
    {
      "inputs": [
        {
          "internalType": "bytes32",
          "name": "role",
          "type": "bytes32"
        },
        {
          "internalType": "address",
          "name": "account",
          "type": "address"
        }
      ],
      "name": "grantRole",
      "outputs": [],
      "stateMutability": "nonpayable",
      "type": "function"
    },
    {
      "inputs": [
        {
          "internalType": "bytes32",
          "name": "role",
          "type": "bytes32"
        },
        {
          "internalType": "address",
          "name": "account",
          "type": "address"
        }
      ],
      "name": "hasRole",
      "outputs": [
        {
          "internalType": "bool",
          "name": "",
          "type": "bool"
        }
      ],
      "stateMutability": "view",
      "type": "function"
    },
    {
      "inputs": [],
      "name": "implementation",
      "outputs": [
        {
          "internalType": "address",
          "name": "",
          "type": "address"
        }
      ],
      "stateMutability": "view",
      "type": "function"
    },
    {
      "inputs": [
        {
          "internalType": "address",
          "name": "_erc20RewardAddress",
          "type": "address"
        }
      ],
      "name": "initialize",
      "outputs": [],
      "stateMutability": "nonpayable",
      "type": "function"
    },
    {
      "inputs": [
        {
          "internalType": "address",
          "name": "account",
          "type": "address"
        }
      ],
      "name": "isAdmin",
      "outputs": [
        {
          "internalType": "bool",
          "name": "",
          "type": "bool"
        }
      ],
      "stateMutability": "view",
      "type": "function"
    },
    {
      "inputs": [],
      "name": "migratedL2",
      "outputs": [
        {
          "internalType": "bool",
          "name": "",
          "type": "bool"
        }
      ],
      "stateMutability": "view",
      "type": "function"
    },
    {
      "inputs": [],
      "name": "pauseProxy",
      "outputs": [
        {
          "internalType": "bool",
          "name": "",
          "type": "bool"
        }
      ],
      "stateMutability": "view",
      "type": "function"
    },
    {
      "inputs": [
        {
          "internalType": "address",
          "name": "account",
          "type": "address"
        }
      ],
      "name": "removeAdmin",
      "outputs": [],
      "stateMutability": "nonpayable",
      "type": "function"
    },
    {
      "inputs": [
        {
          "internalType": "bytes32",
          "name": "role",
          "type": "bytes32"
        },
        {
          "internalType": "address",
          "name": "account",
          "type": "address"
        }
      ],
      "name": "renounceRole",
      "outputs": [],
      "stateMutability": "nonpayable",
      "type": "function"
    },
    {
      "inputs": [
        {
          "internalType": "bytes32",
          "name": "role",
          "type": "bytes32"
        },
        {
          "internalType": "address",
          "name": "account",
          "type": "address"
        }
      ],
      "name": "revokeRole",
      "outputs": [],
      "stateMutability": "nonpayable",
      "type": "function"
    },
    {
      "inputs": [
        {
          "internalType": "bool",
          "name": "_pause",
          "type": "bool"
        }
      ],
      "name": "setProxyPause",
      "outputs": [],
      "stateMutability": "nonpayable",
      "type": "function"
    },
    {
      "inputs": [
        {
          "internalType": "bytes4",
          "name": "interfaceId",
          "type": "bytes4"
        }
      ],
      "name": "supportsInterface",
      "outputs": [
        {
          "internalType": "bool",
          "name": "",
          "type": "bool"
        }
      ],
      "stateMutability": "view",
      "type": "function"
    },
    {
      "inputs": [
        {
          "internalType": "address",
          "name": "newAdmin",
          "type": "address"
        }
      ],
      "name": "transferAdmin",
      "outputs": [],
      "stateMutability": "nonpayable",
      "type": "function"
    },
    {
      "inputs": [
        {
          "internalType": "address",
          "name": "impl",
          "type": "address"
        }
      ],
      "name": "upgradeTo",
      "outputs": [],
      "stateMutability": "nonpayable",
      "type": "function"
    },
    {
      "stateMutability": "payable",
      "type": "receive"
    }
  ],
  "bytecode": "0x608060405260016003553480156200001657600080fd5b506040516200147738038062001477833981016040819052620000399162000310565b6200006660017f360894a13ba1a3210667c828492db98dca3e2076cc3735a920a3ca505d382bbd62000347565b60008051602062001437833981519152146200009257634e487b7160e01b600052600160045260246000fd5b6001600160a01b038216620000de5760405162461bcd60e51b815260206004820152600d60248201526c6c6f676963206973207a65726f60981b60448201526064015b60405180910390fd5b620000e98262000142565b620001046000805160206200145783398151915280620001ee565b6200011f600080516020620014578339815191528262000239565b6200013a600080516020620014578339815191523062000239565b50506200036b565b62000158816200024960201b62000a211760201c565b620001db5760405162461bcd60e51b815260206004820152604660248201527f50726f7879426173653a2043616e6e6f742073657420612070726f787920696d60448201527f706c656d656e746174696f6e20746f2061206e6f6e2d636f6e7472616374206160648201526564647265737360d01b608482015260a401620000d5565b6000805160206200143783398151915255565b600082815260046020526040808220600101805490849055905190918391839186917fbd79b86ffe0ab8e8776151514217cd7cacd52c909f66475c3af44e129f0b00ff9190a4505050565b6200024582826200024f565b5050565b3b151590565b60008281526004602090815260408083206001600160a01b038516845290915290205460ff16620002455760008281526004602090815260408083206001600160a01b03851684529091529020805460ff19166001179055620002af3390565b6001600160a01b0316816001600160a01b0316837f2f8788117e7eff1d82e926ec794901d17c78024a50270940304540a733656f0d60405160405180910390a45050565b80516001600160a01b03811681146200030b57600080fd5b919050565b6000806040838503121562000323578182fd5b6200032e83620002f3565b91506200033e60208401620002f3565b90509250929050565b6000828210156200036657634e487b7160e01b81526011600452602481fd5b500390565b6110bc806200037b6000396000f3fe6080604052600436106101445760003560e01c806363a8fd89116100b65780639353b9df1161006f5780639353b9df1461040d578063a1f5f50e1461046b578063a217fddf1461048a578063c4d66de81461049f578063d5391393146104bf578063d547741f146104f35761018d565b806363a8fd8914610351578063704802751461036b57806375829def1461038b57806375b238fc146103ab5780637cb00d25146103cd57806391d14854146103ed5761018d565b8063282c51f311610108578063282c51f3146102885780632f2ff15d146102bc57806336568abe146102dc5780633659cfe6146102fc57806337a155031461031c5780635c60da1b1461033c5761018d565b806301ffc9a7146101975780630a41dcd6146101cc5780631785f53c1461020a578063248a9ca31461022a57806324d7806c146102685761018d565b3661018d5760405162461bcd60e51b815260206004820152601460248201527331b0b73737ba103932b1b2b4bb329022ba3432b960611b60448201526064015b60405180910390fd5b610195610513565b005b3480156101a357600080fd5b506101b76101b2366004610ec6565b6105a9565b60405190151581526020015b60405180910390f35b3480156101d857600080fd5b506000546101f2906201000090046001600160a01b031681565b6040516001600160a01b0390911681526020016101c3565b34801561021657600080fd5b50610195610225366004610e49565b6105e0565b34801561023657600080fd5b5061025a610245366004610e83565b60009081526004602052604090206001015490565b6040519081526020016101c3565b34801561027457600080fd5b506101b7610283366004610e49565b610620565b34801561029457600080fd5b5061025a7f9667e80708b6eeeb0053fa0cca44e028ff548e2a9f029edfeac87c118b08b7c881565b3480156102c857600080fd5b506101956102d7366004610e9b565b61063a565b3480156102e857600080fd5b506101956102f7366004610e9b565b610660565b34801561030857600080fd5b50610195610317366004610e49565b6106de565b34801561032857600080fd5b506101f2610337366004610e83565b6107db565b34801561034857600080fd5b506101f2610805565b34801561035d57600080fd5b506000546101b79060ff1681565b34801561037757600080fd5b50610195610386366004610e49565b610814565b34801561039757600080fd5b506101956103a6366004610e49565b610851565b3480156103b757600080fd5b5061025a60008051602061106783398151915281565b3480156103d957600080fd5b506101956103e8366004610e63565b610949565b3480156103f957600080fd5b506101b7610408366004610e9b565b610981565b34801561041957600080fd5b5061044e610428366004610e49565b600160208190526000918252604090912080549181015460029091015460ff9092169183565b6040805193151584526020840192909252908201526060016101c3565b34801561047757600080fd5b506000546101b790610100900460ff1681565b34801561049657600080fd5b5061025a600081565b3480156104ab57600080fd5b506101956104ba366004610e49565b6109ac565b3480156104cb57600080fd5b5061025a7ff0887ba65ee2024ea881d91b74c2450ef19e1557f03bed3ea9f16b037cbe2dc981565b3480156104ff57600080fd5b5061019561050e366004610e9b565b6109fb565b600061051d610a27565b90506001600160a01b0381161580159061053a575060005460ff16155b6105805760405162461bcd60e51b815260206004820152601760248201527620696d706c204f522070726f78792069732066616c736560481b6044820152606401610184565b3660008037600080366000845af43d6000803e80801561059f573d6000f35b3d6000fd5b505050565b60006001600160e01b03198216637965db0b60e01b14806105da57506301ffc9a760e01b6001600160e01b03198316145b92915050565b6105e933610620565b6106055760405162461bcd60e51b815260040161018490610f90565b61061d60008051602061106783398151915282610660565b50565b60006105da60008051602061106783398151915283610981565b6000828152600460205260409020600101546106568133610a4c565b6105a48383610ab0565b6001600160a01b03811633146106d05760405162461bcd60e51b815260206004820152602f60248201527f416363657373436f6e74726f6c3a2063616e206f6e6c792072656e6f756e636560448201526e103937b632b9903337b91039b2b63360891b6064820152608401610184565b6106da8282610b36565b5050565b6106e733610620565b6107035760405162461bcd60e51b815260040161018490610f90565b6001600160a01b0381166107495760405162461bcd60e51b815260206004820152600d60248201526c696e707574206973207a65726f60981b6044820152606401610184565b806001600160a01b031661075b610a27565b6001600160a01b0316141561079b5760405162461bcd60e51b81526004016101849060208082526004908201526373616d6560e01b604082015260600190565b6107a481610b9d565b6040516001600160a01b038216907fbc7cd75a20ee27fd9adebab32041f755214dbc6bffa90cc0225b39da2e5c2d3b90600090a250565b600281815481106107eb57600080fd5b6000918252602090912001546001600160a01b0316905081565b600061080f610a27565b905090565b61081d33610620565b6108395760405162461bcd60e51b815260040161018490610f90565b61061d6000805160206110678339815191528261063a565b61085a33610620565b6108765760405162461bcd60e51b815260040161018490610f90565b6001600160a01b0381166108c75760405162461bcd60e51b815260206004820152601860248201527741636365737369626c653a207a65726f206164647265737360401b6044820152606401610184565b336001600160a01b03821614156109195760405162461bcd60e51b815260206004820152601660248201527520b1b1b2b9b9b4b136329d1039b0b6b29030b236b4b760511b6044820152606401610184565b6109316000805160206110678339815191528261063a565b61061d60008051602061106783398151915233610660565b61095233610620565b61096e5760405162461bcd60e51b815260040161018490610f90565b6000805460ff1916911515919091179055565b60009182526004602090815260408084206001600160a01b0393909316845291905290205460ff1690565b6109b533610620565b6109d15760405162461bcd60e51b815260040161018490610f90565b600080546001600160a01b03909216620100000262010000600160b01b0319909216919091179055565b600082815260046020526040902060010154610a178133610a4c565b6105a48383610b36565b3b151590565b7f360894a13ba1a3210667c828492db98dca3e2076cc3735a920a3ca505d382bbc5490565b610a568282610981565b6106da57610a6e816001600160a01b03166014610c44565b610a79836020610c44565b604051602001610a8a929190610eee565b60408051601f198184030181529082905262461bcd60e51b825261018491600401610f5d565b610aba8282610981565b6106da5760008281526004602090815260408083206001600160a01b03851684529091529020805460ff19166001179055610af23390565b6001600160a01b0316816001600160a01b0316837f2f8788117e7eff1d82e926ec794901d17c78024a50270940304540a733656f0d60405160405180910390a45050565b610b408282610981565b156106da5760008281526004602090815260408083206001600160a01b0385168085529252808320805460ff1916905551339285917ff6391f5c32d9c69d2a47ea670b442974b53935d1edc7fd64eb21e047a839171b9190a45050565b803b610c205760405162461bcd60e51b815260206004820152604660248201527f50726f7879426173653a2043616e6e6f742073657420612070726f787920696d60448201527f706c656d656e746174696f6e20746f2061206e6f6e2d636f6e7472616374206160648201526564647265737360d01b608482015260a401610184565b7f360894a13ba1a3210667c828492db98dca3e2076cc3735a920a3ca505d382bbc55565b60606000610c53836002610fea565b610c5e906002610fd2565b67ffffffffffffffff811115610c8457634e487b7160e01b600052604160045260246000fd5b6040519080825280601f01601f191660200182016040528015610cae576020820181803683370190505b509050600360fc1b81600081518110610cd757634e487b7160e01b600052603260045260246000fd5b60200101906001600160f81b031916908160001a905350600f60fb1b81600181518110610d1457634e487b7160e01b600052603260045260246000fd5b60200101906001600160f81b031916908160001a9053506000610d38846002610fea565b610d43906001610fd2565b90505b6001811115610dd7576f181899199a1a9b1b9c1cb0b131b232b360811b85600f1660108110610d8557634e487b7160e01b600052603260045260246000fd5b1a60f81b828281518110610da957634e487b7160e01b600052603260045260246000fd5b60200101906001600160f81b031916908160001a90535060049490941c93610dd081611039565b9050610d46565b508315610e265760405162461bcd60e51b815260206004820181905260248201527f537472696e67733a20686578206c656e67746820696e73756666696369656e746044820152606401610184565b9392505050565b80356001600160a01b0381168114610e4457600080fd5b919050565b600060208284031215610e5a578081fd5b610e2682610e2d565b600060208284031215610e74578081fd5b81358015158114610e26578182fd5b600060208284031215610e94578081fd5b5035919050565b60008060408385031215610ead578081fd5b82359150610ebd60208401610e2d565b90509250929050565b600060208284031215610ed7578081fd5b81356001600160e01b031981168114610e26578182fd5b76020b1b1b2b9b9a1b7b73a3937b61d1030b1b1b7bab73a1604d1b815260008351610f20816017850160208801611009565b7001034b99036b4b9b9b4b733903937b6329607d1b6017918401918201528351610f51816028840160208801611009565b01602801949350505050565b6020815260008251806020840152610f7c816040850160208701611009565b601f01601f19169190910160400192915050565b60208082526022908201527f41636365737369626c653a2043616c6c6572206973206e6f7420616e2061646d60408201526134b760f11b606082015260800190565b60008219821115610fe557610fe5611050565b500190565b600081600019048311821515161561100457611004611050565b500290565b60005b8381101561102457818101518382015260200161100c565b83811115611033576000848401525b50505050565b60008161104857611048611050565b506000190190565b634e487b7160e01b600052601160045260246000fdfedf8b4c520ffe197c5343c6f5aec59570151ef9a492f2c624fd45ddde6135ec42a2646970667358221220b993b369a48e11d5ee11702905034d7525e653484535862f524dcd27dc28e08264736f6c63430008040033360894a13ba1a3210667c828492db98dca3e2076cc3735a920a3ca505d382bbcdf8b4c520ffe197c5343c6f5aec59570151ef9a492f2c624fd45ddde6135ec42",
  "linkReferences": {},
  "deployedLinkReferences": {}
}