{
  "_format": "hh-sol-artifact-1",
  "contractName": "VestingPublicFund",
  "sourceName": "contracts/VestingPublicFund/VestingPublicFund.sol",
  "abi": [
    {
      "inputs": [],
      "stateMutability": "nonpayable",
      "type": "constructor"
    },
    {
      "anonymous": false,
      "inputs": [
        {
          "indexed": false,
          "internalType": "address",
          "name": "caller",
          "type": "address"
        },
        {
          "indexed": false,
          "internalType": "address",
          "name": "to",
          "type": "address"
        },
        {
          "indexed": false,
          "internalType": "uint256",
          "name": "amount",
          "type": "uint256"
        }
      ],
      "name": "Claimed",
      "type": "event"
    },
    {
      "anonymous": false,
      "inputs": [
        {
          "indexed": false,
          "internalType": "address",
          "name": "from",
          "type": "address"
        },
        {
          "indexed": false,
          "internalType": "uint256",
          "name": "amount",
          "type": "uint256"
        }
      ],
      "name": "Funded",
      "type": "event"
    },
    {
      "anonymous": false,
      "inputs": [
        {
          "indexed": false,
          "internalType": "uint256",
          "name": "_claimCounts",
          "type": "uint256"
        },
        {
          "indexed": false,
          "internalType": "uint256[]",
          "name": "_claimTimes",
          "type": "uint256[]"
        },
        {
          "indexed": false,
          "internalType": "uint256[]",
          "name": "_claimAmounts",
          "type": "uint256[]"
        }
      ],
      "name": "Initialized",
      "type": "event"
    },
    {
      "anonymous": false,
      "inputs": [
        {
          "indexed": true,
          "internalType": "bytes32",
          "name": "role",
          "type": "bytes32"
        },
        {
          "indexed": true,
          "internalType": "bytes32",
          "name": "previousAdminRole",
          "type": "bytes32"
        },
        {
          "indexed": true,
          "internalType": "bytes32",
          "name": "newAdminRole",
          "type": "bytes32"
        }
      ],
      "name": "RoleAdminChanged",
      "type": "event"
    },
    {
      "anonymous": false,
      "inputs": [
        {
          "indexed": true,
          "internalType": "bytes32",
          "name": "role",
          "type": "bytes32"
        },
        {
          "indexed": true,
          "internalType": "address",
          "name": "account",
          "type": "address"
        },
        {
          "indexed": true,
          "internalType": "address",
          "name": "sender",
          "type": "address"
        }
      ],
      "name": "RoleGranted",
      "type": "event"
    },
    {
      "anonymous": false,
      "inputs": [
        {
          "indexed": true,
          "internalType": "bytes32",
          "name": "role",
          "type": "bytes32"
        },
        {
          "indexed": true,
          "internalType": "address",
          "name": "account",
          "type": "address"
        },
        {
          "indexed": true,
          "internalType": "address",
          "name": "sender",
          "type": "address"
        }
      ],
      "name": "RoleRevoked",
      "type": "event"
    },
    {
      "anonymous": false,
      "inputs": [
        {
          "indexed": false,
          "internalType": "bool",
          "name": "_pause",
          "type": "bool"
        }
      ],
      "name": "SetVestingPaused",
      "type": "event"
    },
    {
      "anonymous": false,
      "inputs": [],
      "name": "SetVestingStopped",
      "type": "event"
    },
    {
      "anonymous": false,
      "inputs": [
        {
          "indexed": false,
          "internalType": "address",
          "name": "to",
          "type": "address"
        },
        {
          "indexed": false,
          "internalType": "uint256",
          "name": "amount",
          "type": "uint256"
        }
      ],
      "name": "Withdrawals",
      "type": "event"
    },
    {
      "inputs": [],
      "name": "DEFAULT_ADMIN_ROLE",
      "outputs": [
        {
          "internalType": "bytes32",
          "name": "",
          "type": "bytes32"
        }
      ],
      "stateMutability": "view",
      "type": "function"
    },
    {
      "inputs": [],
      "name": "PROJECT_ADMIN_ROLE",
      "outputs": [
        {
          "internalType": "bytes32",
          "name": "",
          "type": "bytes32"
        }
      ],
      "stateMutability": "view",
      "type": "function"
    },
    {
      "inputs": [
        {
          "internalType": "address",
          "name": "account",
          "type": "address"
        }
      ],
      "name": "addAdmin",
      "outputs": [],
      "stateMutability": "nonpayable",
      "type": "function"
    },
    {
      "inputs": [
        {
          "internalType": "address",
          "name": "_owner",
          "type": "address"
        }
      ],
      "name": "addProxyAdmin",
      "outputs": [],
      "stateMutability": "nonpayable",
      "type": "function"
    },
    {
      "inputs": [
        {
          "internalType": "address",
          "name": "",
          "type": "address"
        }
      ],
      "name": "aliveImplementation",
      "outputs": [
        {
          "internalType": "bool",
          "name": "",
          "type": "bool"
        }
      ],
      "stateMutability": "view",
      "type": "function"
    },
    {
      "inputs": [],
      "name": "allClaimInfos",
      "outputs": [
        {
          "internalType": "uint256",
          "name": "",
          "type": "uint256"
        },
        {
          "internalType": "uint256[]",
          "name": "",
          "type": "uint256[]"
        },
        {
          "internalType": "uint256[]",
          "name": "",
          "type": "uint256[]"
        },
        {
          "internalType": "uint256",
          "name": "",
          "type": "uint256"
        }
      ],
      "stateMutability": "view",
      "type": "function"
    },
    {
      "inputs": [],
      "name": "boolLogEvent",
      "outputs": [
        {
          "internalType": "bool",
          "name": "",
          "type": "bool"
        }
      ],
      "stateMutability": "view",
      "type": "function"
    },
    {
      "inputs": [
        {
          "internalType": "uint256",
          "name": "_round",
          "type": "uint256"
        }
      ],
      "name": "calculClaimAmount",
      "outputs": [
        {
          "internalType": "uint256",
          "name": "amount",
          "type": "uint256"
        }
      ],
      "stateMutability": "view",
      "type": "function"
    },
    {
      "inputs": [
        {
          "internalType": "address",
          "name": "_token",
          "type": "address"
        },
        {
          "internalType": "address",
          "name": "_receivedAddress",
          "type": "address"
        },
        {
          "internalType": "address",
          "name": "_publicSaleVaultAddress",
          "type": "address"
        }
      ],
      "name": "changeAddr",
      "outputs": [],
      "stateMutability": "nonpayable",
      "type": "function"
    },
    {
      "inputs": [],
      "name": "claim",
      "outputs": [],
      "stateMutability": "nonpayable",
      "type": "function"
    },
    {
      "inputs": [
        {
          "internalType": "uint256",
          "name": "",
          "type": "uint256"
        }
      ],
      "name": "claimAmounts",
      "outputs": [
        {
          "internalType": "uint256",
          "name": "",
          "type": "uint256"
        }
      ],
      "stateMutability": "view",
      "type": "function"
    },
    {
      "inputs": [
        {
          "internalType": "uint256",
          "name": "",
          "type": "uint256"
        }
      ],
      "name": "claimTimes",
      "outputs": [
        {
          "internalType": "uint256",
          "name": "",
          "type": "uint256"
        }
      ],
      "stateMutability": "view",
      "type": "function"
    },
    {
      "inputs": [],
      "name": "currentRound",
      "outputs": [
        {
          "internalType": "uint256",
          "name": "round",
          "type": "uint256"
        }
      ],
      "stateMutability": "view",
      "type": "function"
    },
    {
      "inputs": [
        {
          "internalType": "uint256",
          "name": "amount",
          "type": "uint256"
        }
      ],
      "name": "funding",
      "outputs": [],
      "stateMutability": "nonpayable",
      "type": "function"
    },
    {
      "inputs": [
        {
          "internalType": "bytes32",
          "name": "role",
          "type": "bytes32"
        }
      ],
      "name": "getRoleAdmin",
      "outputs": [
        {
          "internalType": "bytes32",
          "name": "",
          "type": "bytes32"
        }
      ],
      "stateMutability": "view",
      "type": "function"
    },
    {
      "inputs": [
        {
          "internalType": "bytes32",
          "name": "role",
          "type": "bytes32"
        },
        {
          "internalType": "address",
          "name": "account",
          "type": "address"
        }
      ],
      "name": "grantRole",
      "outputs": [],
      "stateMutability": "nonpayable",
      "type": "function"
    },
    {
      "inputs": [
        {
          "internalType": "bytes32",
          "name": "role",
          "type": "bytes32"
        },
        {
          "internalType": "address",
          "name": "account",
          "type": "address"
        }
      ],
      "name": "hasRole",
      "outputs": [
        {
          "internalType": "bool",
          "name": "",
          "type": "bool"
        }
      ],
      "stateMutability": "view",
      "type": "function"
    },
    {
      "inputs": [
        {
          "internalType": "address",
          "name": "_publicSaleVault",
          "type": "address"
        },
        {
          "internalType": "uint256",
          "name": "_claimCounts",
          "type": "uint256"
        },
        {
          "internalType": "uint256[]",
          "name": "_claimTimes",
          "type": "uint256[]"
        },
        {
          "internalType": "uint256[]",
          "name": "_claimAmounts",
          "type": "uint256[]"
        }
      ],
      "name": "initialize",
      "outputs": [],
      "stateMutability": "nonpayable",
      "type": "function"
    },
    {
      "inputs": [
        {
          "internalType": "address",
          "name": "account",
          "type": "address"
        }
      ],
      "name": "isAdmin",
      "outputs": [
        {
          "internalType": "bool",
          "name": "",
          "type": "bool"
        }
      ],
      "stateMutability": "view",
      "type": "function"
    },
    {
      "inputs": [
        {
          "internalType": "address",
          "name": "account",
          "type": "address"
        }
      ],
      "name": "isProxyAdmin",
      "outputs": [
        {
          "internalType": "bool",
          "name": "",
          "type": "bool"
        }
      ],
      "stateMutability": "view",
      "type": "function"
    },
    {
      "inputs": [],
      "name": "logEventAddress",
      "outputs": [
        {
          "internalType": "address",
          "name": "",
          "type": "address"
        }
      ],
      "stateMutability": "view",
      "type": "function"
    },
    {
      "inputs": [],
      "name": "name",
      "outputs": [
        {
          "internalType": "string",
          "name": "",
          "type": "string"
        }
      ],
      "stateMutability": "view",
      "type": "function"
    },
    {
      "inputs": [],
      "name": "nowClaimRound",
      "outputs": [
        {
          "internalType": "uint256",
          "name": "",
          "type": "uint256"
        }
      ],
      "stateMutability": "view",
      "type": "function"
    },
    {
      "inputs": [
        {
          "internalType": "uint256",
          "name": "_claimCounts",
          "type": "uint256"
        },
        {
          "internalType": "uint256[]",
          "name": "_claimTimes",
          "type": "uint256[]"
        },
        {
          "internalType": "uint256[]",
          "name": "_claimAmounts",
          "type": "uint256[]"
        }
      ],
      "name": "ownerSetting",
      "outputs": [],
      "stateMutability": "nonpayable",
      "type": "function"
    },
    {
      "inputs": [],
      "name": "pauseProxy",
      "outputs": [
        {
          "internalType": "bool",
          "name": "",
          "type": "bool"
        }
      ],
      "stateMutability": "view",
      "type": "function"
    },
    {
      "inputs": [
        {
          "internalType": "uint256",
          "name": "",
          "type": "uint256"
        }
      ],
      "name": "proxyImplementation",
      "outputs": [
        {
          "internalType": "address",
          "name": "",
          "type": "address"
        }
      ],
      "stateMutability": "view",
      "type": "function"
    },
    {
      "inputs": [],
      "name": "publicSaleVaultAddress",
      "outputs": [
        {
          "internalType": "address",
          "name": "",
          "type": "address"
        }
      ],
      "stateMutability": "view",
      "type": "function"
    },
    {
      "inputs": [],
      "name": "receivedAddress",
      "outputs": [
        {
          "internalType": "address",
          "name": "",
          "type": "address"
        }
      ],
      "stateMutability": "view",
      "type": "function"
    },
    {
      "inputs": [],
      "name": "removeAdmin",
      "outputs": [],
      "stateMutability": "nonpayable",
      "type": "function"
    },
    {
      "inputs": [],
      "name": "removeProxyAdmin",
      "outputs": [],
      "stateMutability": "nonpayable",
      "type": "function"
    },
    {
      "inputs": [
        {
          "internalType": "bytes32",
          "name": "role",
          "type": "bytes32"
        },
        {
          "internalType": "address",
          "name": "account",
          "type": "address"
        }
      ],
      "name": "renounceRole",
      "outputs": [],
      "stateMutability": "nonpayable",
      "type": "function"
    },
    {
      "inputs": [
        {
          "internalType": "bytes32",
          "name": "role",
          "type": "bytes32"
        },
        {
          "internalType": "address",
          "name": "account",
          "type": "address"
        }
      ],
      "name": "revokeRole",
      "outputs": [],
      "stateMutability": "nonpayable",
      "type": "function"
    },
    {
      "inputs": [
        {
          "internalType": "bytes4",
          "name": "",
          "type": "bytes4"
        }
      ],
      "name": "selectorImplementation",
      "outputs": [
        {
          "internalType": "address",
          "name": "",
          "type": "address"
        }
      ],
      "stateMutability": "view",
      "type": "function"
    },
    {
      "inputs": [
        {
          "internalType": "bool",
          "name": "_pause",
          "type": "bool"
        }
      ],
      "name": "setVestingPause",
      "outputs": [],
      "stateMutability": "nonpayable",
      "type": "function"
    },
    {
      "inputs": [],
      "name": "setVestingStop",
      "outputs": [],
      "stateMutability": "nonpayable",
      "type": "function"
    },
    {
      "inputs": [],
      "name": "settingCheck",
      "outputs": [
        {
          "internalType": "bool",
          "name": "",
          "type": "bool"
        }
      ],
      "stateMutability": "view",
      "type": "function"
    },
    {
      "inputs": [
        {
          "internalType": "bytes4",
          "name": "interfaceId",
          "type": "bytes4"
        }
      ],
      "name": "supportsInterface",
      "outputs": [
        {
          "internalType": "bool",
          "name": "",
          "type": "bool"
        }
      ],
      "stateMutability": "view",
      "type": "function"
    },
    {
      "inputs": [],
      "name": "token",
      "outputs": [
        {
          "internalType": "address",
          "name": "",
          "type": "address"
        }
      ],
      "stateMutability": "view",
      "type": "function"
    },
    {
      "inputs": [],
      "name": "totalAllocatedAmount",
      "outputs": [
        {
          "internalType": "uint256",
          "name": "",
          "type": "uint256"
        }
      ],
      "stateMutability": "view",
      "type": "function"
    },
    {
      "inputs": [],
      "name": "totalClaimCounts",
      "outputs": [
        {
          "internalType": "uint256",
          "name": "",
          "type": "uint256"
        }
      ],
      "stateMutability": "view",
      "type": "function"
    },
    {
      "inputs": [],
      "name": "totalClaimsAmount",
      "outputs": [
        {
          "internalType": "uint256",
          "name": "",
          "type": "uint256"
        }
      ],
      "stateMutability": "view",
      "type": "function"
    },
    {
      "inputs": [
        {
          "internalType": "address",
          "name": "newAdmin",
          "type": "address"
        }
      ],
      "name": "transferAdmin",
      "outputs": [],
      "stateMutability": "nonpayable",
      "type": "function"
    },
    {
      "inputs": [
        {
          "internalType": "address",
          "name": "newAdmin",
          "type": "address"
        }
      ],
      "name": "transferProxyAdmin",
      "outputs": [],
      "stateMutability": "nonpayable",
      "type": "function"
    },
    {
      "inputs": [],
      "name": "vestingPause",
      "outputs": [
        {
          "internalType": "bool",
          "name": "",
          "type": "bool"
        }
      ],
      "stateMutability": "view",
      "type": "function"
    },
    {
      "inputs": [],
      "name": "vestingStop",
      "outputs": [
        {
          "internalType": "bool",
          "name": "",
          "type": "bool"
        }
      ],
      "stateMutability": "view",
      "type": "function"
    },
    {
      "inputs": [
        {
          "internalType": "address",
          "name": "to",
          "type": "address"
        },
        {
          "internalType": "uint256",
          "name": "amount",
          "type": "uint256"
        }
      ],
      "name": "withdraw",
      "outputs": [],
      "stateMutability": "nonpayable",
      "type": "function"
    }
  ],
  "bytecode": "0x6080604052600060065534801561001557600080fd5b50612829806100256000396000f3fe608060405234801561001057600080fd5b506004361061024a5760003560e01c80636a7184681161013c578063a217fddf116100be578063a217fddf146104f3578063a4de9179146104fb578063b911135f1461050e578063be72f2d314610537578063cfc412be1461053f578063d547741f14610548578063eab73ca11461055b578063ed5131f514610573578063f3fef3a314610586578063f47f2f1d14610599578063fab878a4146105ac578063fc0c546a146105bf57600080fd5b80636a71846814610437578063704802751461044a57806375829def1461045d5780638356ca4f146104705780638a19c8bc1461048357806391d148541461048b578063923ab01c1461049e57806392ca60c1146104b157806393e22659146104c457806396f1557c146104d85780639a202d47146104eb57600080fd5b80632f2ff15d116101d05780632f2ff15d1461033357806334b38cc31461034657806336568abe1461035e578063369c272a1461037157806336d956ea1461038457806341c04d5e146103985780634e71d92d146103ad57806350d2a276146103b5578063550d01a3146103eb578063556400081461040e57806363a8fd89146104175780636545eb1c1461042457600080fd5b806301ffc9a71461024f57806306fdde03146102775780630a59fa081461028c5780630be98b71146102995780630f4388c0146102ae578063117ab874146102cf578063205badc1146102d857806321cf4370146102e0578063248a9ca3146102f457806324d7806c14610317578063256019d61461032a575b600080fd5b61026261025d3660046122f6565b6105d2565b60405190151581526020015b60405180910390f35b61027f610609565b60405161026e9190612499565b600e546102629060ff1681565b6102ac6102a7366004612201565b610697565b005b6102c16102bc3660046122b3565b6107ae565b60405190815260200161026e565b6102c160065481565b6102ac6107cf565b60025461026290600160a01b900460ff1681565b6102c16103023660046122b3565b6000908152600f602052604090206001015490565b61026261032536600461217c565b61088d565b6102c160055481565b6102ac6103413660046122cb565b6108a7565b61034e6108d2565b60405161026e9493929190612651565b6102ac61036c3660046122cb565b610995565b6102ac61037f366004612336565b610a13565b60025461026290600160a81b900460ff1681565b6102c16000805160206127d483398151915281565b6102ac610aa0565b6103de6103c33660046122f6565b600d602052600090815260409020546001600160a01b031681565b60405161026e9190612448565b6102626103f936600461217c565b600c6020526000908152604090205460ff1681565b6102c160045481565b600a546102629060ff1681565b6001546103de906001600160a01b031681565b6102ac610445366004612196565b610e22565b6102ac61045836600461217c565b610efe565b6102ac61046b36600461217c565b610f3e565b6102ac61047e36600461217c565b610ff1565b6102c161107b565b6102626104993660046122cb565b61116f565b6102ac6104ac36600461227b565b61119a565b6102ac6104bf3660046122b3565b611275565b60025461026290600160b01b900460ff1681565b6102ac6104e636600461217c565b611476565b6102ac6114a6565b6102c1600081565b6102c16105093660046122b3565b6114f4565b6103de61051c3660046122b3565b600b602052600090815260409020546001600160a01b031681565b6102ac6115a1565b6102c160075481565b6102ac6105563660046122cb565b6115d1565b600e546103de9061010090046001600160a01b031681565b6102c16105813660046122b3565b6115f7565b6102ac6105943660046121d8565b611607565b6102626105a736600461217c565b61185f565b6002546103de906001600160a01b031681565b6000546103de906001600160a01b031681565b60006001600160e01b03198216637965db0b60e01b148061060357506301ffc9a760e01b6001600160e01b03198316145b92915050565b6003805461061690612743565b80601f016020809104026020016040519081016040528092919081815260200182805461064290612743565b801561068f5780601f106106645761010080835404028352916020019161068f565b820191906000526020600020905b81548152906001019060200180831161067257829003601f168201915b505050505081565b836001600160a01b0381166106c75760405162461bcd60e51b81526004016106be906124cc565b60405180910390fd5b6001546001600160a01b031633146107215760405162461bcd60e51b815260206004820152601d60248201527f63616c6c6572206973206e6f742072656365697665644164647265737300000060448201526064016106be565b600254600160a01b900460ff1615156001141561076e5760405162461bcd60e51b815260206004820152600b60248201526a185b1c9958591e481cd95d60aa1b60448201526064016106be565b600280546001600160a01b0319166001600160a01b03871617905561079484848461186b565b50506002805460ff60a01b1916600160a01b179055505050565b600981815481106107be57600080fd5b600091825260209091200154905081565b6107d83361088d565b806107e757506107e73361185f565b6108035760405162461bcd60e51b81526004016106be906124f9565b600254600160b01b900460ff161561084f5760405162461bcd60e51b815260206004820152600f60248201526e185b1c9958591e481cdd1bdc1c1959608a1b60448201526064016106be565b6002805460ff60b01b1916600160b01b1790556040517f7178788d5f2881b0a1a182fc51c1e571a8ccbf552294b3e812cee5d6c95344de90600090a1565b60006106036000805160206127d48339815191528361116f565b6000828152600f60205260409020600101546108c38133611d0f565b6108cd8383611d73565b505050565b60006060806000600554600860096006548280548060200260200160405190810160405280929190818152602001828054801561092e57602002820191906000526020600020905b81548152602001906001019080831161091a575b505050505092508180548060200260200160405190810160405280929190818152602001828054801561098057602002820191906000526020600020905b81548152602001906001019080831161096c575b50505050509150935093509350935090919293565b6001600160a01b0381163314610a055760405162461bcd60e51b815260206004820152602f60248201527f416363657373436f6e74726f6c3a2063616e206f6e6c792072656e6f756e636560448201526e103937b632b9903337b91039b2b63360891b60648201526084016106be565b610a0f8282611df9565b5050565b610a1c3361185f565b610a385760405162461bcd60e51b81526004016106be9061256d565b600254600160a01b900460ff16151560011415610a6757610a5b60086000612052565b610a6760096000612052565b610a7283838361186b565b600254600160a01b900460ff1615156001146108cd576002805460ff60a01b1916600160a01b179055505050565b600254600160a81b900460ff1615610aee5760405162461bcd60e51b815260206004820152601160248201527015995cdd1a5b99c81a5cc81c185d5cd959607a1b60448201526064016106be565b600254600160b01b900460ff1615610b3d5760405162461bcd60e51b815260206004820152601260248201527115995cdd1a5b99c81a5cc81cdd1bdc1c195960721b60448201526064016106be565b60006008600081548110610b6157634e487b7160e01b600052603260045260246000fd5b9060005260206000200154118015610ba457506008600081548110610b9657634e487b7160e01b600052603260045260246000fd5b906000526020600020015442115b610be95760405162461bcd60e51b815260206004820152601660248201527515985d5b1d0e881b9bdd081cdd185c9d1959081e595d60521b60448201526064016106be565b60075460045411610c355760405162461bcd60e51b815260206004820152601660248201527515985d5b1d0e88185b1c9958591e48105b1b0819d95d60521b60448201526064016106be565b6000610c3f61107b565b90506000610c4c826114f4565b905060008111610c9a5760405162461bcd60e51b815260206004820152601960248201527831b630b4b6b0b136329030b6b7bab73a1034b9903d32b9379760391b60448201526064016106be565b6000546040516370a0823160e01b815282916001600160a01b0316906370a0823190610cca903090600401612448565b60206040518083038186803b158015610ce257600080fd5b505afa158015610cf6573d6000803e3d6000fd5b505050506040513d601f19601f82011682018060405250810190610d1a919061231e565b1015610d385760405162461bcd60e51b81526004016106be906125e5565b6006829055600754610d4b90829061268e565b60075560005460015460405163a9059cbb60e01b81526001600160a01b039283169263a9059cbb92610d84929116908590600401612480565b602060405180830381600087803b158015610d9e57600080fd5b505af1158015610db2573d6000803e3d6000fd5b505050506040513d601f19601f82011682018060405250810190610dd69190612297565b506001546040517ff7a40077ff7a04c7e61f6f26fb13774259ddf1b6bce9ecf26a8276cdd399268391610e169133916001600160a01b031690859061245c565b60405180910390a15050565b610e2b3361185f565b610e475760405162461bcd60e51b81526004016106be9061256d565b826001600160a01b038116610e6e5760405162461bcd60e51b81526004016106be906124cc565b826001600160a01b038116610e955760405162461bcd60e51b81526004016106be906124cc565b826001600160a01b038116610ebc5760405162461bcd60e51b81526004016106be906124cc565b5050600080546001600160a01b039586166001600160a01b03199182161790915560018054948616948216949094179093555060028054919093169116179055565b610f073361185f565b610f235760405162461bcd60e51b81526004016106be9061256d565b610f3b6000805160206127d4833981519152826108a7565b50565b610f473361088d565b80610f565750610f563361185f565b610f725760405162461bcd60e51b81526004016106be906124f9565b6001600160a01b038116610f985760405162461bcd60e51b81526004016106be9061253b565b336001600160a01b0382161415610fc15760405162461bcd60e51b81526004016106be906125b5565b610fd96000805160206127d4833981519152826108a7565b610f3b6000805160206127d483398151915233610995565b610ffa3361185f565b6110165760405162461bcd60e51b81526004016106be9061256d565b6001600160a01b03811661103c5760405162461bcd60e51b81526004016106be9061253b565b336001600160a01b03821614156110655760405162461bcd60e51b81526004016106be906125b5565b6110706000826108a7565b610f3b600033610995565b60085460009061108b5750600090565b60086000815481106110ad57634e487b7160e01b600052603260045260246000fd5b90600052602060002001544210156110c3575060005b600860016005546110d491906126e5565b815481106110f257634e487b7160e01b600052603260045260246000fd5b9060005260206000200154421061110857506005545b60005b60055481101561115957426008828154811061113757634e487b7160e01b600052603260045260246000fd5b9060005260206000200154116111595761115281600161268e565b915061115d565b5090565b806111678161277e565b91505061110b565b6000918252600f602090815260408084206001600160a01b0393909316845291905290205460ff1690565b6111a33361088d565b806111b257506111b23361185f565b6111ce5760405162461bcd60e51b81526004016106be906124f9565b60025460ff600160a81b909104161515811515141561121d5760405162461bcd60e51b815260206004820152600b60248201526a73616d65205f706175736560a81b60448201526064016106be565b60028054821515600160a81b0260ff60a81b199091161790556040517f35aa854f11289d7130153444d4897af359b30fb84724d4d646079f8464bd264f9061126a90831515815260200190565b60405180910390a150565b6002546001600160a01b031633146112cf5760405162461bcd60e51b815260206004820152601e60248201527f63616c6c6572206973206e6f74207075626c696353616c655661756c742e000060448201526064016106be565b600054600254604051636eb1769f60e11b81526001600160a01b0391821660048201523060248201528392919091169063dd62ed3e9060440160206040518083038186803b15801561132057600080fd5b505afa158015611334573d6000803e3d6000fd5b505050506040513d601f19601f82011682018060405250810190611358919061231e565b10156113a35760405162461bcd60e51b815260206004820152601a60248201527930b63637bbb0b731b29034b99034b739bab33334b1b4b2b73a1760311b60448201526064016106be565b80600460008282546113b5919061268e565b90915550506000546002546040516323b872dd60e01b81526001600160a01b03928316926323b872dd926113f2929116903090869060040161245c565b602060405180830381600087803b15801561140c57600080fd5b505af1158015611420573d6000803e3d6000fd5b505050506040513d601f19601f820116820180604052508101906114449190612297565b507f5af8184bef8e4b45eb9f6ed7734d04da38ced226495548f46e0c8ff8d7d9a524338260405161126a929190612480565b61147f3361185f565b61149b5760405162461bcd60e51b81526004016106be9061256d565b610f3b600082611e60565b6114af3361088d565b806114be57506114be3361185f565b6114da5760405162461bcd60e51b81526004016106be906124f9565b6114f26000805160206127d483398151915233610995565b565b60006114fe61107b565b61150a57506000919050565b60055415806115195750600454155b1561152657506000919050565b8160055414156115405760075460045461060391906126e5565b600754606460096115526001866126e5565b8154811061157057634e487b7160e01b600052603260045260246000fd5b906000526020600020015460045461158891906126c6565b61159291906126a6565b61060391906126e5565b919050565b6115aa3361185f565b6115c65760405162461bcd60e51b81526004016106be9061256d565b6114f2600033610995565b6000828152600f60205260409020600101546115ed8133611d0f565b6108cd8383611df9565b600881815481106107be57600080fd5b6116103361088d565b8061161f575061161f3361185f565b61163b5760405162461bcd60e51b81526004016106be906124f9565b816001600160a01b0381166116625760405162461bcd60e51b81526004016106be906124cc565b81600081116116a75760405162461bcd60e51b81526020600482015260116024820152705661756c743a207a65726f2076616c756560781b60448201526064016106be565b600254600160b01b900460ff1615156001146116fe5760405162461bcd60e51b815260206004820152601660248201527534ba1034b9903737ba1039ba37b81039ba30ba3ab99760511b60448201526064016106be565b6000546040516370a0823160e01b815284916001600160a01b0316906370a082319061172e903090600401612448565b60206040518083038186803b15801561174657600080fd5b505afa15801561175a573d6000803e3d6000fd5b505050506040513d601f19601f8201168201806040525081019061177e919061231e565b101561179c5760405162461bcd60e51b81526004016106be906125e5565b60005460405163a9059cbb60e01b81526001600160a01b039091169063a9059cbb906117ce9087908790600401612480565b602060405180830381600087803b1580156117e857600080fd5b505af11580156117fc573d6000803e3d6000fd5b505050506040513d601f19601f820116820180604052508101906118209190612297565b507e01239a3f8c8e8316dc2cd2a06b4c1794fc40cae544de07c5d2dcd5799f30c38484604051611851929190612480565b60405180910390a150505050565b6000610603818361116f565b600083116118c95760405162461bcd60e51b815260206004820152602560248201527f636c61696d436f756e7473206d7573742062652067726561746572207468616e604482015264207a65726f60d81b60648201526084016106be565b8151831480156118d95750805183145b6119345760405162461bcd60e51b815260206004820152602660248201527f77726f6e67205f636c61696d54696d65732f5f636c61696d416d6f756e7473206044820152650d8cadccee8d60d31b60648201526084016106be565b806119406001856126e5565b8151811061195e57634e487b7160e01b600052603260045260246000fd5b60200260200101516064146119b35760405162461bcd60e51b815260206004820152601b60248201527a77726f6e6720746865206c61737420636c61696d416d6f756e747360281b60448201526064016106be565b60015b83811015611b425742836119cb6001846126e5565b815181106119e957634e487b7160e01b600052603260045260246000fd5b6020026020010151118015611a55575082611a056001836126e5565b81518110611a2357634e487b7160e01b600052603260045260246000fd5b6020026020010151838281518110611a4b57634e487b7160e01b600052603260045260246000fd5b6020026020010151115b611a945760405162461bcd60e51b815260206004820152601060248201526f77726f6e6720636c61696d54696d657360801b60448201526064016106be565b81611aa06001836126e5565b81518110611abe57634e487b7160e01b600052603260045260246000fd5b6020026020010151828281518110611ae657634e487b7160e01b600052603260045260246000fd5b602002602001015111611b305760405162461bcd60e51b815260206004820152601260248201527177726f6e6720636c61696d416d6f756e747360701b60448201526064016106be565b80611b3a8161277e565b9150506119b6565b6005849055836001600160401b03811115611b6d57634e487b7160e01b600052604160045260246000fd5b604051908082528060200260200182016040528015611b96578160200160208202803683370190505b508051611bab91600891602090910190612070565b50836001600160401b03811115611bd257634e487b7160e01b600052604160045260246000fd5b604051908082528060200260200182016040528015611bfb578160200160208202803683370190505b508051611c1091600991602090910190612070565b50600090505b83811015611cdc57828181518110611c3e57634e487b7160e01b600052603260045260246000fd5b602002602001015160088281548110611c6757634e487b7160e01b600052603260045260246000fd5b9060005260206000200181905550818181518110611c9557634e487b7160e01b600052603260045260246000fd5b602002602001015160098281548110611cbe57634e487b7160e01b600052603260045260246000fd5b60009182526020909120015580611cd48161277e565b915050611c16565b7f12873a1ba5439c01ce32f029af47fb34c77d83bb82778dc104901021ac0a73e08484846040516118519392919061261c565b611d19828261116f565b610a0f57611d31816001600160a01b03166014611e6a565b611d3c836020611e6a565b604051602001611d4d9291906123d9565b60408051601f198184030181529082905262461bcd60e51b82526106be91600401612499565b611d7d828261116f565b610a0f576000828152600f602090815260408083206001600160a01b03851684529091529020805460ff19166001179055611db53390565b6001600160a01b0316816001600160a01b0316837f2f8788117e7eff1d82e926ec794901d17c78024a50270940304540a733656f0d60405160405180910390a45050565b611e03828261116f565b15610a0f576000828152600f602090815260408083206001600160a01b0385168085529252808320805460ff1916905551339285917ff6391f5c32d9c69d2a47ea670b442974b53935d1edc7fd64eb21e047a839171b9190a45050565b610a0f8282611d73565b60606000611e798360026126c6565b611e8490600261268e565b6001600160401b03811115611ea957634e487b7160e01b600052604160045260246000fd5b6040519080825280601f01601f191660200182016040528015611ed3576020820181803683370190505b509050600360fc1b81600081518110611efc57634e487b7160e01b600052603260045260246000fd5b60200101906001600160f81b031916908160001a905350600f60fb1b81600181518110611f3957634e487b7160e01b600052603260045260246000fd5b60200101906001600160f81b031916908160001a9053506000611f5d8460026126c6565b611f6890600161268e565b90505b6001811115611ffc576f181899199a1a9b1b9c1cb0b131b232b360811b85600f1660108110611faa57634e487b7160e01b600052603260045260246000fd5b1a60f81b828281518110611fce57634e487b7160e01b600052603260045260246000fd5b60200101906001600160f81b031916908160001a90535060049490941c93611ff58161272c565b9050611f6b565b50831561204b5760405162461bcd60e51b815260206004820181905260248201527f537472696e67733a20686578206c656e67746820696e73756666696369656e7460448201526064016106be565b9392505050565b5080546000825590600052602060002090810190610f3b91906120b3565b8280548282559060005260206000209081019282156120ab579160200282015b828111156120ab578251825591602001919060010190612090565b506111599291505b5b8082111561115957600081556001016120b4565b80356001600160a01b038116811461159c57600080fd5b600082601f8301126120ef578081fd5b813560206001600160401b038083111561210b5761210b6127af565b8260051b604051601f19603f83011681018181108482111715612130576121306127af565b6040528481528381019250868401828801850189101561214e578687fd5b8692505b85831015612170578035845292840192600192909201918401612152565b50979650505050505050565b60006020828403121561218d578081fd5b61204b826120c8565b6000806000606084860312156121aa578182fd5b6121b3846120c8565b92506121c1602085016120c8565b91506121cf604085016120c8565b90509250925092565b600080604083850312156121ea578182fd5b6121f3836120c8565b946020939093013593505050565b60008060008060808587031215612216578081fd5b61221f856120c8565b93506020850135925060408501356001600160401b0380821115612241578283fd5b61224d888389016120df565b93506060870135915080821115612262578283fd5b5061226f878288016120df565b91505092959194509250565b60006020828403121561228c578081fd5b813561204b816127c5565b6000602082840312156122a8578081fd5b815161204b816127c5565b6000602082840312156122c4578081fd5b5035919050565b600080604083850312156122dd578182fd5b823591506122ed602084016120c8565b90509250929050565b600060208284031215612307578081fd5b81356001600160e01b03198116811461204b578182fd5b60006020828403121561232f578081fd5b5051919050565b60008060006060848603121561234a578283fd5b8335925060208401356001600160401b0380821115612367578384fd5b612373878388016120df565b93506040860135915080821115612388578283fd5b50612395868287016120df565b9150509250925092565b6000815180845260208085019450808401835b838110156123ce578151875295820195908201906001016123b2565b509495945050505050565b76020b1b1b2b9b9a1b7b73a3937b61d1030b1b1b7bab73a1604d1b81526000835161240b8160178501602088016126fc565b7001034b99036b4b9b9b4b733903937b6329607d1b601791840191820152835161243c8160288401602088016126fc565b01602801949350505050565b6001600160a01b0391909116815260200190565b6001600160a01b039384168152919092166020820152604081019190915260600190565b6001600160a01b03929092168252602082015260400190565b60208152600082518060208401526124b88160408501602087016126fc565b601f01601f19169190910160400192915050565b6020808252601390820152725661756c743a207a65726f206164647265737360681b604082015260600190565b60208082526022908201527f41636365737369626c653a2043616c6c6572206973206e6f7420616e2061646d60408201526134b760f11b606082015260800190565b60208082526018908201527741636365737369626c653a207a65726f206164647265737360401b604082015260600190565b60208082526028908201527f41636365737369626c653a2043616c6c6572206973206e6f7420616e2070726f6040820152673c3c9030b236b4b760c11b606082015260800190565b60208082526016908201527520b1b1b2b9b9b4b136329d1039b0b6b29030b236b4b760511b604082015260600190565b6020808252601f908201527f5661756c743a2062616c616e636520697320696e73756666696369656e742e00604082015260600190565b838152606060208201526000612635606083018561239f565b8281036040840152612647818561239f565b9695505050505050565b84815260806020820152600061266a608083018661239f565b828103604084015261267c818661239f565b91505082606083015295945050505050565b600082198211156126a1576126a1612799565b500190565b6000826126c157634e487b7160e01b81526012600452602481fd5b500490565b60008160001904831182151516156126e0576126e0612799565b500290565b6000828210156126f7576126f7612799565b500390565b60005b838110156127175781810151838201526020016126ff565b83811115612726576000848401525b50505050565b60008161273b5761273b612799565b506000190190565b600181811c9082168061275757607f821691505b6020821081141561277857634e487b7160e01b600052602260045260246000fd5b50919050565b600060001982141561279257612792612799565b5060010190565b634e487b7160e01b600052601160045260246000fd5b634e487b7160e01b600052604160045260246000fd5b8015158114610f3b57600080fdfe52eafc11f6f81f86878bffd31109a0d92f37506527754f00788853ff9f63b130a26469706673582212206b8c9413d7a4e19bba94b7f7924cdd6cd88fa8c3846eb34c85b1f1a84791c99b64736f6c63430008040033",
  "linkReferences": {},
  "deployedLinkReferences": {}
}