{
  "_format": "hh-sol-artifact-1",
  "contractName": "VestingPublicFundFactory",
  "sourceName": "contracts/VestingPublicFundFactory.sol",
  "abi": [
    {
      "inputs": [],
      "stateMutability": "nonpayable",
      "type": "constructor"
    },
    {
      "anonymous": false,
      "inputs": [
        {
          "indexed": false,
          "internalType": "address",
          "name": "contractAddress",
          "type": "address"
        },
        {
          "indexed": false,
          "internalType": "string",
          "name": "name",
          "type": "string"
        }
      ],
      "name": "CreatedVestingPublicFund",
      "type": "event"
    },
    {
      "anonymous": false,
      "inputs": [
        {
          "indexed": true,
          "internalType": "bytes32",
          "name": "role",
          "type": "bytes32"
        },
        {
          "indexed": true,
          "internalType": "bytes32",
          "name": "previousAdminRole",
          "type": "bytes32"
        },
        {
          "indexed": true,
          "internalType": "bytes32",
          "name": "newAdminRole",
          "type": "bytes32"
        }
      ],
      "name": "RoleAdminChanged",
      "type": "event"
    },
    {
      "anonymous": false,
      "inputs": [
        {
          "indexed": true,
          "internalType": "bytes32",
          "name": "role",
          "type": "bytes32"
        },
        {
          "indexed": true,
          "internalType": "address",
          "name": "account",
          "type": "address"
        },
        {
          "indexed": true,
          "internalType": "address",
          "name": "sender",
          "type": "address"
        }
      ],
      "name": "RoleGranted",
      "type": "event"
    },
    {
      "anonymous": false,
      "inputs": [
        {
          "indexed": true,
          "internalType": "bytes32",
          "name": "role",
          "type": "bytes32"
        },
        {
          "indexed": true,
          "internalType": "address",
          "name": "account",
          "type": "address"
        },
        {
          "indexed": true,
          "internalType": "address",
          "name": "sender",
          "type": "address"
        }
      ],
      "name": "RoleRevoked",
      "type": "event"
    },
    {
      "inputs": [],
      "name": "ADMIN_ROLE",
      "outputs": [
        {
          "internalType": "bytes32",
          "name": "",
          "type": "bytes32"
        }
      ],
      "stateMutability": "view",
      "type": "function"
    },
    {
      "inputs": [],
      "name": "BURNER_ROLE",
      "outputs": [
        {
          "internalType": "bytes32",
          "name": "",
          "type": "bytes32"
        }
      ],
      "stateMutability": "view",
      "type": "function"
    },
    {
      "inputs": [],
      "name": "CLAIMER_ROLE",
      "outputs": [
        {
          "internalType": "bytes32",
          "name": "",
          "type": "bytes32"
        }
      ],
      "stateMutability": "view",
      "type": "function"
    },
    {
      "inputs": [],
      "name": "DEFAULT_ADMIN_ROLE",
      "outputs": [
        {
          "internalType": "bytes32",
          "name": "",
          "type": "bytes32"
        }
      ],
      "stateMutability": "view",
      "type": "function"
    },
    {
      "inputs": [],
      "name": "MINTER_ROLE",
      "outputs": [
        {
          "internalType": "bytes32",
          "name": "",
          "type": "bytes32"
        }
      ],
      "stateMutability": "view",
      "type": "function"
    },
    {
      "inputs": [
        {
          "internalType": "address",
          "name": "account",
          "type": "address"
        }
      ],
      "name": "addAdmin",
      "outputs": [],
      "stateMutability": "nonpayable",
      "type": "function"
    },
    {
      "inputs": [
        {
          "internalType": "string",
          "name": "_name",
          "type": "string"
        },
        {
          "internalType": "address",
          "name": "receivedAddress",
          "type": "address"
        }
      ],
      "name": "create",
      "outputs": [
        {
          "internalType": "address",
          "name": "",
          "type": "address"
        }
      ],
      "stateMutability": "nonpayable",
      "type": "function"
    },
    {
      "inputs": [
        {
          "internalType": "uint256",
          "name": "",
          "type": "uint256"
        }
      ],
      "name": "createdContracts",
      "outputs": [
        {
          "internalType": "address",
          "name": "contractAddress",
          "type": "address"
        },
        {
          "internalType": "string",
          "name": "name",
          "type": "string"
        }
      ],
      "stateMutability": "view",
      "type": "function"
    },
    {
      "inputs": [],
      "name": "daoAddress",
      "outputs": [
        {
          "internalType": "address",
          "name": "",
          "type": "address"
        }
      ],
      "stateMutability": "view",
      "type": "function"
    },
    {
      "inputs": [
        {
          "internalType": "uint256",
          "name": "_index",
          "type": "uint256"
        }
      ],
      "name": "getContracts",
      "outputs": [
        {
          "internalType": "address",
          "name": "contractAddress",
          "type": "address"
        },
        {
          "internalType": "string",
          "name": "name",
          "type": "string"
        }
      ],
      "stateMutability": "view",
      "type": "function"
    },
    {
      "inputs": [
        {
          "internalType": "bytes32",
          "name": "role",
          "type": "bytes32"
        }
      ],
      "name": "getRoleAdmin",
      "outputs": [
        {
          "internalType": "bytes32",
          "name": "",
          "type": "bytes32"
        }
      ],
      "stateMutability": "view",
      "type": "function"
    },
    {
      "inputs": [
        {
          "internalType": "bytes32",
          "name": "role",
          "type": "bytes32"
        },
        {
          "internalType": "address",
          "name": "account",
          "type": "address"
        }
      ],
      "name": "grantRole",
      "outputs": [],
      "stateMutability": "nonpayable",
      "type": "function"
    },
    {
      "inputs": [
        {
          "internalType": "bytes32",
          "name": "role",
          "type": "bytes32"
        },
        {
          "internalType": "address",
          "name": "account",
          "type": "address"
        }
      ],
      "name": "hasRole",
      "outputs": [
        {
          "internalType": "bool",
          "name": "",
          "type": "bool"
        }
      ],
      "stateMutability": "view",
      "type": "function"
    },
    {
      "inputs": [
        {
          "internalType": "address",
          "name": "account",
          "type": "address"
        }
      ],
      "name": "isAdmin",
      "outputs": [
        {
          "internalType": "bool",
          "name": "",
          "type": "bool"
        }
      ],
      "stateMutability": "view",
      "type": "function"
    },
    {
      "inputs": [],
      "name": "lastestCreated",
      "outputs": [
        {
          "internalType": "address",
          "name": "contractAddress",
          "type": "address"
        },
        {
          "internalType": "string",
          "name": "name",
          "type": "string"
        }
      ],
      "stateMutability": "view",
      "type": "function"
    },
    {
      "inputs": [],
      "name": "logEventAddress",
      "outputs": [
        {
          "internalType": "address",
          "name": "",
          "type": "address"
        }
      ],
      "stateMutability": "view",
      "type": "function"
    },
    {
      "inputs": [
        {
          "internalType": "address",
          "name": "account",
          "type": "address"
        }
      ],
      "name": "removeAdmin",
      "outputs": [],
      "stateMutability": "nonpayable",
      "type": "function"
    },
    {
      "inputs": [
        {
          "internalType": "bytes32",
          "name": "role",
          "type": "bytes32"
        },
        {
          "internalType": "address",
          "name": "account",
          "type": "address"
        }
      ],
      "name": "renounceRole",
      "outputs": [],
      "stateMutability": "nonpayable",
      "type": "function"
    },
    {
      "inputs": [
        {
          "internalType": "bytes32",
          "name": "role",
          "type": "bytes32"
        },
        {
          "internalType": "address",
          "name": "account",
          "type": "address"
        }
      ],
      "name": "revokeRole",
      "outputs": [],
      "stateMutability": "nonpayable",
      "type": "function"
    },
    {
      "inputs": [
        {
          "internalType": "address[2]",
          "name": "addrs",
          "type": "address[2]"
        }
      ],
      "name": "setBaseInfo",
      "outputs": [],
      "stateMutability": "nonpayable",
      "type": "function"
    },
    {
      "inputs": [
        {
          "internalType": "address",
          "name": "addr",
          "type": "address"
        }
      ],
      "name": "setLogEventAddress",
      "outputs": [],
      "stateMutability": "nonpayable",
      "type": "function"
    },
    {
      "inputs": [
        {
          "internalType": "address",
          "name": "_logic",
          "type": "address"
        }
      ],
      "name": "setLogic",
      "outputs": [],
      "stateMutability": "nonpayable",
      "type": "function"
    },
    {
      "inputs": [
        {
          "internalType": "address",
          "name": "addr",
          "type": "address"
        }
      ],
      "name": "setUpgradeAdmin",
      "outputs": [],
      "stateMutability": "nonpayable",
      "type": "function"
    },
    {
      "inputs": [
        {
          "internalType": "bytes4",
          "name": "interfaceId",
          "type": "bytes4"
        }
      ],
      "name": "supportsInterface",
      "outputs": [
        {
          "internalType": "bool",
          "name": "",
          "type": "bool"
        }
      ],
      "stateMutability": "view",
      "type": "function"
    },
    {
      "inputs": [],
      "name": "token",
      "outputs": [
        {
          "internalType": "address",
          "name": "",
          "type": "address"
        }
      ],
      "stateMutability": "view",
      "type": "function"
    },
    {
      "inputs": [],
      "name": "totalCreatedContracts",
      "outputs": [
        {
          "internalType": "uint256",
          "name": "",
          "type": "uint256"
        }
      ],
      "stateMutability": "view",
      "type": "function"
    },
    {
      "inputs": [
        {
          "internalType": "address",
          "name": "newAdmin",
          "type": "address"
        }
      ],
      "name": "transferAdmin",
      "outputs": [],
      "stateMutability": "nonpayable",
      "type": "function"
    },
    {
      "inputs": [],
      "name": "upgradeAdmin",
      "outputs": [
        {
          "internalType": "address",
          "name": "",
          "type": "address"
        }
      ],
      "stateMutability": "view",
      "type": "function"
    },
    {
      "inputs": [
        {
          "internalType": "address",
          "name": "_contract",
          "type": "address"
        },
        {
          "internalType": "bytes4[]",
          "name": "_selectors",
          "type": "bytes4[]"
        },
        {
          "internalType": "address",
          "name": "_imp",
          "type": "address"
        }
      ],
      "name": "upgradeContractFunction",
      "outputs": [],
      "stateMutability": "nonpayable",
      "type": "function"
    },
    {
      "inputs": [
        {
          "internalType": "address",
          "name": "_contract",
          "type": "address"
        },
        {
          "internalType": "address",
          "name": "_logic",
          "type": "address"
        },
        {
          "internalType": "uint256",
          "name": "_index",
          "type": "uint256"
        },
        {
          "internalType": "bool",
          "name": "_alive",
          "type": "bool"
        }
      ],
      "name": "upgradeContractLogic",
      "outputs": [],
      "stateMutability": "nonpayable",
      "type": "function"
    },
    {
      "inputs": [],
      "name": "vaultLogic",
      "outputs": [
        {
          "internalType": "address",
          "name": "",
          "type": "address"
        }
      ],
      "stateMutability": "view",
      "type": "function"
    }
  ],
  "bytecode": "0x60806040523480156200001157600080fd5b50600060015562000032600080516020620043828339815191528062000065565b6200004d6000805160206200438283398151915233620000b0565b600380546001600160a01b0319163317905562000160565b600082815260208190526040808220600101805490849055905190918391839186917fbd79b86ffe0ab8e8776151514217cd7cacd52c909f66475c3af44e129f0b00ff9190a4505050565b620000bc8282620000c0565b5050565b6000828152602081815260408083206001600160a01b038516845290915290205460ff16620000bc576000828152602081815260408083206001600160a01b03851684529091529020805460ff191660011790556200011c3390565b6001600160a01b0316816001600160a01b0316837f2f8788117e7eff1d82e926ec794901d17c78024a50270940304540a733656f0d60405160405180910390a45050565b61421280620001706000396000f3fe60806040523480156200001157600080fd5b5060043610620001b85760003560e01c806375b238fc1162000103578063c4d5608a116200009e578063c4d5608a1462000412578063d05261871462000426578063d53913931462000430578063d547741f1462000458578063e97ad288146200046f578063eab73ca11462000486578063fc0c546a146200049a578063fc5f18d314620004ae57600080fd5b806375b238fc146200036b5780637e2826f6146200038257806384b47b0f146200039957806391d1485414620003b05780639342f41714620003c7578063a217fddf14620003de578063b078147a14620003e7578063b4d4028014620003fb57600080fd5b806301ffc9a714620001bd5780630881139714620001e95780631785f53c14620002105780632131c68c1462000229578063248a9ca3146200024c57806324d7806c1462000281578063282c51f314620002985780632f2ff15d14620002c0578063338bad5f14620002d757806336568abe14620002e1578063439e23fd14620002f857806367c5f8de146200030f57806370480275146200032657806371857000146200033d57806375829def1462000354575b600080fd5b620001d4620001ce36600462001a60565b620004d6565b60405190151581526020015b60405180910390f35b62000200620001fa36600462001a19565b6200050e565b604051620001e092919062001c31565b6200022762000221366004620018e1565b620005c5565b005b6007546200023d906001600160a01b031681565b604051620001e0919062001bca565b620002726200025d36600462001a19565b60009081526020819052604090206001015490565b604051908152602001620001e0565b620001d462000292366004620018e1565b62000616565b620002727f9667e80708b6eeeb0053fa0cca44e028ff548e2a9f029edfeac87c118b08b7c881565b62000227620002d136600462001a32565b62000633565b6200020062000662565b62000227620002f236600462001a32565b6200077b565b620002006200030936600462001a19565b620007fd565b6200022762000320366004620018fe565b620008e3565b6200022762000337366004620018e1565b620009a4565b620002276200034e366004620018e1565b620009e9565b6200022762000365366004620018e1565b62000abb565b62000272600080516020620041bd83398151915281565b6200022762000393366004620018e1565b62000bc2565b6200023d620003aa36600462001a7d565b62000c6a565b620001d4620003c136600462001a32565b62001217565b62000227620003d8366004620018e1565b62001240565b62000272600081565b6004546200023d906001600160a01b031681565b620002276200040c36600462001956565b620012e8565b6003546200023d906001600160a01b031681565b6200027260015481565b620002727ff0887ba65ee2024ea881d91b74c2450ef19e1557f03bed3ea9f16b037cbe2dc981565b620002276200046936600462001a32565b6200136e565b6200022762000480366004620019f1565b62001398565b6005546200023d906001600160a01b031681565b6006546200023d906001600160a01b031681565b620002727fe5667d34d7ea8d6fdb3aa71a0a5b85e4cf7f68356dd003cd638556b0eea2bce581565b60006001600160e01b03198216637965db0b60e01b14806200050857506301ffc9a760e01b6001600160e01b03198316145b92915050565b600260205260009081526040902080546001820180546001600160a01b0390921692916200053c9062001e89565b80601f01602080910402602001604051908101604052809291908181526020018280546200056a9062001e89565b8015620005bb5780601f106200058f57610100808354040283529160200191620005bb565b820191906000526020600020905b8154815290600101906020018083116200059d57829003601f168201915b5050505050905082565b620005d03362000616565b620005f85760405162461bcd60e51b8152600401620005ef9062001da3565b60405180910390fd5b62000613600080516020620041bd833981519152826200077b565b50565b600062000508600080516020620041bd8339815191528362001217565b6000828152602081905260409020600101546200065181336200149b565b6200065d83836200150a565b505050565b60006060600060015411156200076657600260006001805462000686919062001e22565b81526020810191909152604001600090812054600180546001600160a01b03909216926002929091620006b99162001e22565b8152602001908152602001600020600101808054620006d89062001e89565b80601f0160208091040260200160405190810160405280929190818152602001828054620007069062001e89565b8015620007575780601f106200072b5761010080835404028352916020019162000757565b820191906000526020600020905b8154815290600101906020018083116200073957829003601f168201915b50505050509050915091509091565b50506040805160208101909152600080825291565b6001600160a01b0381163314620007ed5760405162461bcd60e51b815260206004820152602f60248201527f416363657373436f6e74726f6c3a2063616e206f6e6c792072656e6f756e636560448201526e103937b632b9903337b91039b2b63360891b6064820152608401620005ef565b620007f9828262001592565b5050565b60006060600154831015620008cb5760008381526002602052604090208054600190910180546001600160a01b039092169181906200083c9062001e89565b80601f01602080910402602001604051908101604052809291908181526020018280546200086a9062001e89565b8015620008bb5780601f106200088f57610100808354040283529160200191620008bb565b820191906000526020600020905b8154815290600101906020018083116200089d57829003601f168201915b5050505050905091509150915091565b50506040805160208101909152600080825292909150565b620008ee3362000616565b6200090d5760405162461bcd60e51b8152600401620005ef9062001da3565b836001600160a01b038116620009375760405162461bcd60e51b8152600401620005ef9062001d77565b604051637cd5f66360e01b81526001600160a01b03861690637cd5f66390620009699087908790879060040162001bde565b600060405180830381600087803b1580156200098457600080fd5b505af115801562000999573d6000803e3d6000fd5b505050505050505050565b620009af3362000616565b620009ce5760405162461bcd60e51b8152600401620005ef9062001da3565b62000613600080516020620041bd8339815191528262000633565b806001600160a01b03811662000a135760405162461bcd60e51b8152600401620005ef9062001d77565b62000a1e3362000616565b62000a3d5760405162461bcd60e51b8152600401620005ef9062001da3565b6004546001600160a01b038381169116141562000a985760405162461bcd60e51b815260206004820152601860248201527730b63932b0b23c9039b2ba103a3434b9903b32b939b4b7b760411b6044820152606401620005ef565b50600480546001600160a01b0319166001600160a01b0392909216919091179055565b62000ac63362000616565b62000ae55760405162461bcd60e51b8152600401620005ef9062001da3565b6001600160a01b03811662000b385760405162461bcd60e51b815260206004820152601860248201527741636365737369626c653a207a65726f206164647265737360401b6044820152606401620005ef565b336001600160a01b038216141562000b8c5760405162461bcd60e51b815260206004820152601660248201527520b1b1b2b9b9b4b136329d1039b0b6b29030b236b4b760511b6044820152606401620005ef565b62000ba7600080516020620041bd8339815191528262000633565b62000613600080516020620041bd833981519152336200077b565b62000bcd3362000616565b62000bec5760405162461bcd60e51b8152600401620005ef9062001da3565b806001600160a01b03811662000c165760405162461bcd60e51b8152600401620005ef9062001d77565b6005546001600160a01b038381169116141562000c475760405162461bcd60e51b8152600401620005ef9062001d53565b50600580546001600160a01b0319166001600160a01b0392909216919091179055565b60008262000cab5760405162461bcd60e51b815260206004820152600d60248201526c6e616d6520697320656d70747960981b6044820152606401620005ef565b6006546001600160a01b03161580159062000cd057506007546001600160a01b031615155b801562000ce757506004546001600160a01b031615155b801562000cfe57506003546001600160a01b031615155b801562000d1357506001600160a01b03821615155b62000d585760405162461bcd60e51b8152602060048201526014602482015273736f6d652061646472657373206973207a65726f60601b6044820152606401620005ef565b600060405162000d6890620017f7565b604051809103906000f08015801562000d85573d6000803e3d6000fd5b5090506001600160a01b03811662000dde5760405162461bcd60e51b815260206004820152601b60248201527a56657374696e675075626c696346756e6450726f7879207a65726f60281b6044820152606401620005ef565b6003546040516325bc555f60e21b81526001600160a01b03838116926396f1557c9262000e12929091169060040162001bca565b600060405180830381600087803b15801562000e2d57600080fd5b505af115801562000e42573d6000803e3d6000fd5b5050600354604051637048027560e01b81526001600160a01b0380861694506370480275935062000e7892169060040162001bca565b600060405180830381600087803b15801562000e9357600080fd5b505af115801562000ea8573d6000803e3d6000fd5b505060048054604051637cd5f66360e01b81526001600160a01b038087169550637cd5f663945062000ee4939216916000916001910162001bde565b600060405180830381600087803b15801562000eff57600080fd5b505af115801562000f14573d6000803e3d6000fd5b5050600554604051630b8717f760e11b81526001600160a01b03918216600482015260016024820152908416925063170e2fee9150604401600060405180830381600087803b15801562000f6757600080fd5b505af115801562000f7c573d6000803e3d6000fd5b5050600654600754604051631e85337b60e31b81526001600160a01b03808716955063f4299bd8945062000fbf938b938b939183169216908a9060040162001cfe565b600060405180830381600087803b15801562000fda57600080fd5b505af115801562000fef573d6000803e3d6000fd5b50505050806001600160a01b031663be72f2d36040518163ffffffff1660e01b8152600401600060405180830381600087803b1580156200102f57600080fd5b505af115801562001044573d6000803e3d6000fd5b505050506040518060400160405280826001600160a01b0316815260200186868080601f0160208091040260200160405190810160405280939291908181526020018383808284376000920182905250939094525050600180548252600260209081526040909220845181546001600160a01b0319166001600160a01b03909116178155848301518051919450620010e29392850192019062001805565b50506001805491506000620010f78362001ec0565b90915550506005546040516001600160a01b039091169063beee31bf907f4588b6e126fef4a2d4bbbd0e0ac55095582563c9be28e8a5ff0d1e78e1e09b0f907f40f46bf4443f90ffeab6fa7b455ce7d86edd010fd44ec7ec62afaed1254a02959030906200116e9087908c908c9060200162001c01565b6040516020818303038152906040526040518563ffffffff1660e01b81526004016200119e949392919062001cc5565b600060405180830381600087803b158015620011b957600080fd5b505af1158015620011ce573d6000803e3d6000fd5b505050507fd3627a4b6003ef29cef20aa68e9c9403369a12866b9aa218f8452ab355dc4ba9818686604051620012079392919062001c01565b60405180910390a1949350505050565b6000918252602082815260408084206001600160a01b0393909316845291905290205460ff1690565b6200124b3362000616565b6200126a5760405162461bcd60e51b8152600401620005ef9062001da3565b806001600160a01b038116620012945760405162461bcd60e51b8152600401620005ef9062001d77565b6003546001600160a01b0383811691161415620012c55760405162461bcd60e51b8152600401620005ef9062001d53565b50600380546001600160a01b0319166001600160a01b0392909216919091179055565b620012f33362000616565b620013125760405162461bcd60e51b8152600401620005ef9062001da3565b836001600160a01b0381166200133c5760405162461bcd60e51b8152600401620005ef9062001d77565b604051634a5df50f60e01b81526001600160a01b03861690634a5df50f90620009699087908790879060040162001c5f565b6000828152602081905260409020600101546200138c81336200149b565b6200065d838362001592565b620013a33362000616565b620013c25760405162461bcd60e51b8152600401620005ef9062001da3565b620013d16020820182620018e1565b6001600160a01b038116620013fa5760405162461bcd60e51b8152600401620005ef9062001d77565b6200140c6040830160208401620018e1565b6001600160a01b038116620014355760405162461bcd60e51b8152600401620005ef9062001d77565b620014446020840184620018e1565b600680546001600160a01b0319166001600160a01b0392909216919091179055620014766040840160208501620018e1565b600780546001600160a01b0319166001600160a01b0392909216919091179055505050565b620014a7828262001217565b620007f957620014c2816001600160a01b03166014620015fa565b620014cf836020620015fa565b604051602001620014e292919062001b57565b60408051601f198184030181529082905262461bcd60e51b8252620005ef9160040162001d3e565b62001516828262001217565b620007f9576000828152602081815260408083206001600160a01b03851684529091529020805460ff191660011790556200154e3390565b6001600160a01b0316816001600160a01b0316837f2f8788117e7eff1d82e926ec794901d17c78024a50270940304540a733656f0d60405160405180910390a45050565b6200159e828262001217565b15620007f9576000828152602081815260408083206001600160a01b0385168085529252808320805460ff1916905551339285917ff6391f5c32d9c69d2a47ea670b442974b53935d1edc7fd64eb21e047a839171b9190a45050565b606060006200160b83600262001e00565b6200161890600262001de5565b67ffffffffffffffff8111156200163f57634e487b7160e01b600052604160045260246000fd5b6040519080825280601f01601f1916602001820160405280156200166a576020820181803683370190505b509050600360fc1b816000815181106200169457634e487b7160e01b600052603260045260246000fd5b60200101906001600160f81b031916908160001a905350600f60fb1b81600181518110620016d257634e487b7160e01b600052603260045260246000fd5b60200101906001600160f81b031916908160001a9053506000620016f884600262001e00565b6200170590600162001de5565b90505b60018111156200179f576f181899199a1a9b1b9c1cb0b131b232b360811b85600f16601081106200174957634e487b7160e01b600052603260045260246000fd5b1a60f81b8282815181106200176e57634e487b7160e01b600052603260045260246000fd5b60200101906001600160f81b031916908160001a90535060049490941c93620017978162001e6f565b905062001708565b508315620017f05760405162461bcd60e51b815260206004820181905260248201527f537472696e67733a20686578206c656e67746820696e73756666696369656e746044820152606401620005ef565b9392505050565b6122c88062001ef583390190565b828054620018139062001e89565b90600052602060002090601f01602090048101928262001837576000855562001882565b82601f106200185257805160ff191683800117855562001882565b8280016001018555821562001882579182015b828111156200188257825182559160200191906001019062001865565b506200189092915062001894565b5090565b5b8082111562001890576000815560010162001895565b80356001600160a01b0381168114620018c357600080fd5b919050565b80356001600160e01b031981168114620018c357600080fd5b600060208284031215620018f3578081fd5b620017f082620018ab565b6000806000806080858703121562001914578283fd5b6200191f85620018ab565b93506200192f60208601620018ab565b925060408501359150606085013580151581146200194b578182fd5b939692955090935050565b600080600080606085870312156200196c578384fd5b6200197785620018ab565b9350602085013567ffffffffffffffff8082111562001994578485fd5b818701915087601f830112620019a8578485fd5b813581811115620019b7578586fd5b8860208260051b8501011115620019cc578586fd5b602083019550809450505050620019e660408601620018ab565b905092959194509250565b60006040828403121562001a03578081fd5b8260408301111562001a13578081fd5b50919050565b60006020828403121562001a2b578081fd5b5035919050565b6000806040838503121562001a45578182fd5b8235915062001a5760208401620018ab565b90509250929050565b60006020828403121562001a72578081fd5b620017f082620018c8565b60008060006040848603121562001a92578283fd5b833567ffffffffffffffff8082111562001aaa578485fd5b818601915086601f83011262001abe578485fd5b81358181111562001acd578586fd5b87602082850101111562001adf578586fd5b60209283019550935062001af79186019050620018ab565b90509250925092565b6000815180845262001b1a81602086016020860162001e3c565b601f01601f19169290920160200192915050565b81835281816020850137506000828201602090810191909152601f909101601f19169091010190565b76020b1b1b2b9b9a1b7b73a3937b61d1030b1b1b7bab73a1604d1b81526000835162001b8b81601785016020880162001e3c565b7001034b99036b4b9b9b4b733903937b6329607d1b601791840191820152835162001bbe81602884016020880162001e3c565b01602801949350505050565b6001600160a01b0391909116815260200190565b6001600160a01b0393909316835260208301919091521515604082015260600190565b6001600160a01b038416815260406020820181905260009062001c28908301848662001b2e565b95945050505050565b6001600160a01b038316815260406020820181905260009062001c579083018462001b00565b949350505050565b6040808252810183905260008460608301825b8681101562001ca5576001600160e01b031962001c8f84620018c8565b1682526020928301929091019060010162001c72565b506001600160a01b03949094166020939093019290925250909392505050565b84815283602082015260018060a01b038316604082015260806060820152600062001cf4608083018462001b00565b9695505050505050565b60808152600062001d1460808301878962001b2e565b6001600160a01b039586166020840152938516604083015250921660609092019190915292915050565b602081526000620017f0602083018462001b00565b6020808252600a908201526973616d6520616464727360b01b604082015260600190565b6020808252601290820152715661756c74466163746f72793a207a65726f60701b604082015260600190565b60208082526022908201527f41636365737369626c653a2043616c6c6572206973206e6f7420616e2061646d60408201526134b760f11b606082015260800190565b6000821982111562001dfb5762001dfb62001ede565b500190565b600081600019048311821515161562001e1d5762001e1d62001ede565b500290565b60008282101562001e375762001e3762001ede565b500390565b60005b8381101562001e5957818101518382015260200162001e3f565b8381111562001e69576000848401525b50505050565b60008162001e815762001e8162001ede565b506000190190565b600181811c9082168062001e9e57607f821691505b6020821081141562001a1357634e487b7160e01b600052602260045260246000fd5b600060001982141562001ed75762001ed762001ede565b5060010190565b634e487b7160e01b600052601160045260246000fdfe608060405260006006553480156200001657600080fd5b50620000437f52eafc11f6f81f86878bffd31109a0d92f37506527754f00788853ff9f63b1308062000082565b6200006f7f52eafc11f6f81f86878bffd31109a0d92f37506527754f00788853ff9f63b13033620000cd565b6200007c600033620000cd565b62000181565b6000828152600f6020526040808220600101805490849055905190918391839186917fbd79b86ffe0ab8e8776151514217cd7cacd52c909f66475c3af44e129f0b00ff9190a4505050565b620000d98282620000dd565b5050565b6000828152600f602090815260408083206001600160a01b038516845290915290205460ff16620000d9576000828152600f602090815260408083206001600160a01b03851684529091529020805460ff191660011790556200013d3390565b6001600160a01b0316816001600160a01b0316837f2f8788117e7eff1d82e926ec794901d17c78024a50270940304540a733656f0d60405160405180910390a45050565b61213780620001916000396000f3fe60806040526004361061024c5760003560e01c80636545eb1c1161013a5780639a202d47116100b15780639a202d4714610747578063a217fddf1461075c578063b911135f14610771578063be72f2d3146107a7578063cfc412be146107bc578063d547741f146107d2578063eab73ca1146107f2578063ed5131f514610817578063f4299bd814610837578063f47f2f1d14610857578063fab878a414610877578063fc0c546a1461089757610295565b80636545eb1c146105c65780636befec3f146105e6578063704802751461060657806375829def146106265780637cb00d25146106465780637cd5f663146106665780638356ca4f146106865780638b8f4a65146106a65780638d4fdb40146106c657806391d14854146106e657806393e226591461070657806396f1557c1461072757610295565b806334b38cc3116101ce57806334b38cc31461041b57806336568abe146104405780633659cfe61461046057806336d956ea1461048057806341c04d5e146104a15780634a5df50f146104c357806350d2a276146104e3578063550d01a31461053157806355640008146105615780635c60da1b146105775780635cc797d81461058c57806363a8fd89146105ac57610295565b806301ffc9a71461029f57806306fdde03146102d45780630a59fa08146102f65780630f4388c014610310578063117ab8741461033e578063170e2fee1461035457806321cf437014610374578063248a9ca31461039557806324d7806c146103c5578063256019d6146103e55780632f2ff15d146103fb57610295565b366102955760405162461bcd60e51b815260206004820152601460248201527331b0b73737ba103932b1b2b4bb329022ba3432b960611b60448201526064015b60405180910390fd5b61029d6108b7565b005b3480156102ab57600080fd5b506102bf6102ba366004611cda565b610960565b60405190151581526020015b60405180910390f35b3480156102e057600080fd5b506102e9610997565b6040516102cb9190611e89565b34801561030257600080fd5b50600e546102bf9060ff1681565b34801561031c57600080fd5b5061033061032b366004611ca0565b610a25565b6040519081526020016102cb565b34801561034a57600080fd5b5061033060065481565b34801561036057600080fd5b5061029d61036f366004611ba3565b610a46565b34801561038057600080fd5b506002546102bf90600160a01b900460ff1681565b3480156103a157600080fd5b506103306103b0366004611ca0565b6000908152600f602052604090206001015490565b3480156103d157600080fd5b506102bf6103e0366004611b89565b610b1f565b3480156103f157600080fd5b5061033060055481565b34801561040757600080fd5b5061029d610416366004611cb8565b610b39565b34801561042757600080fd5b50610430610b5f565b6040516102cb9493929190611fa8565b34801561044c57600080fd5b5061029d61045b366004611cb8565b610c22565b34801561046c57600080fd5b5061029d61047b366004611b89565b610c9c565b34801561048c57600080fd5b506002546102bf90600160a81b900460ff1681565b3480156104ad57600080fd5b506103306000805160206120e283398151915281565b3480156104cf57600080fd5b5061029d6104de366004611c10565b610da2565b3480156104ef57600080fd5b506105196104fe366004611cda565b600d602052600090815260409020546001600160a01b031681565b6040516001600160a01b0390911681526020016102cb565b34801561053d57600080fd5b506102bf61054c366004611b89565b600c6020526000908152604090205460ff1681565b34801561056d57600080fd5b5061033060045481565b34801561058357600080fd5b5061051961102a565b34801561059857600080fd5b5061029d6105a7366004611ba3565b61103b565b3480156105b857600080fd5b50600a546102bf9060ff1681565b3480156105d257600080fd5b50600154610519906001600160a01b031681565b3480156105f257600080fd5b5061029d610601366004611c86565b61106a565b34801561061257600080fd5b5061029d610621366004611b89565b611142565b34801561063257600080fd5b5061029d610641366004611b89565b611182565b34801561065257600080fd5b5061029d610661366004611c86565b611235565b34801561067257600080fd5b5061029d610681366004611bd5565b61127c565b34801561069257600080fd5b5061029d6106a1366004611b89565b6112ac565b3480156106b257600080fd5b506105196106c1366004611ca0565b611336565b3480156106d257600080fd5b506105196106e1366004611cda565b611341565b3480156106f257600080fd5b506102bf610701366004611cb8565b61143d565b34801561071257600080fd5b506002546102bf90600160b01b900460ff1681565b34801561073357600080fd5b5061029d610742366004611b89565b611468565b34801561075357600080fd5b5061029d611498565b34801561076857600080fd5b50610330600081565b34801561077d57600080fd5b5061051961078c366004611ca0565b600b602052600090815260409020546001600160a01b031681565b3480156107b357600080fd5b5061029d6114e6565b3480156107c857600080fd5b5061033060075481565b3480156107de57600080fd5b5061029d6107ed366004611cb8565b611516565b3480156107fe57600080fd5b50600e546105199061010090046001600160a01b031681565b34801561082357600080fd5b50610330610832366004611ca0565b61153c565b34801561084357600080fd5b5061029d610852366004611d02565b61154c565b34801561086357600080fd5b506102bf610872366004611b89565b61167f565b34801561088357600080fd5b50600254610519906001600160a01b031681565b3480156108a357600080fd5b50600054610519906001600160a01b031681565b60006108ce6000356001600160e01b031916611341565b90506001600160a01b038116158015906108eb5750600a5460ff16155b6109375760405162461bcd60e51b815260206004820152601d60248201527f50726f78793a20696d706c204f522070726f78792069732066616c7365000000604482015260640161028c565b3660008037600080366000845af43d6000803e808015610956573d6000f35b3d6000fd5b505050565b60006001600160e01b03198216637965db0b60e01b148061099157506301ffc9a760e01b6001600160e01b03198316145b92915050565b600380546109a49061205f565b80601f01602080910402602001604051908101604052809291908181526020018280546109d09061205f565b8015610a1d5780601f106109f257610100808354040283529160200191610a1d565b820191906000526020600020905b815481529060010190602001808311610a0057829003601f168201915b505050505081565b60098181548110610a3557600080fd5b600091825260209091200154905081565b610a4f3361167f565b610a6b5760405162461bcd60e51b815260040161028c90611f30565b600e546001600160a01b038381166101009092041614801590610a9657506001600160a01b03821615155b610ad75760405162461bcd60e51b815260206004820152601260248201527173616d652076616c7565206f72207a65726f60701b604482015260640161028c565b600e80546001600160a01b03841661010002610100600160a81b03198216811790925560ff918216911617151581151514610b1b57600e805460ff19168215151790555b5050565b60006109916000805160206120e28339815191528361143d565b6000828152600f6020526040902060010154610b55813361168b565b61095b83836116ef565b600060608060006005546008600960065482805480602002602001604051908101604052809291908181526020018280548015610bbb57602002820191906000526020600020905b815481526020019060010190808311610ba7575b5050505050925081805480602002602001604051908101604052809291908181526020018280548015610c0d57602002820191906000526020600020905b815481526020019060010190808311610bf9575b50505050509150935093509350935090919293565b6001600160a01b0381163314610c925760405162461bcd60e51b815260206004820152602f60248201527f416363657373436f6e74726f6c3a2063616e206f6e6c792072656e6f756e636560448201526e103937b632b9903337b91039b2b63360891b606482015260840161028c565b610b1b8282611775565b610ca53361167f565b610cc15760405162461bcd60e51b815260040161028c90611f30565b6001600160a01b038116610d075760405162461bcd60e51b815260206004820152600d60248201526c696e707574206973207a65726f60981b604482015260640161028c565b806001600160a01b0316610d1b60006117dc565b6001600160a01b03161415610d5e5760405162461bcd60e51b815260206004820152600960248201526839b0b6b29030b2323960b91b604482015260640161028c565b610d6b81600060016117f7565b6040516001600160a01b038216907fbc7cd75a20ee27fd9adebab32041f755214dbc6bffa90cc0225b39da2e5c2d3b90600090a250565b610dab3361167f565b610dc75760405162461bcd60e51b815260040161028c90611f30565b81610e145760405162461bcd60e51b815260206004820181905260248201527f50726f78793a205f73656c6563746f727327732073697a65206973207a65726f604482015260640161028c565b6001600160a01b0381166000908152600c602052604090205460ff16610e775760405162461bcd60e51b815260206004820152601860248201527750726f78793a205f696d70206973206e6f7420616c69766560401b604482015260640161028c565b60005b8281101561102457816001600160a01b0316600d6000868685818110610eb057634e487b7160e01b600052603260045260246000fd5b9050602002016020810190610ec59190611cda565b6001600160e01b03191681526020810191909152604001600020546001600160a01b03161415610f375760405162461bcd60e51b815260206004820152601d60248201527f4c69717569646974795661756c7450726f78793a2073616d6520696d70000000604482015260640161028c565b81600d6000868685818110610f5c57634e487b7160e01b600052603260045260246000fd5b9050602002016020810190610f719190611cda565b6001600160e01b0319168152602081019190915260400160002080546001600160a01b0319166001600160a01b039283161790558216848483818110610fc757634e487b7160e01b600052603260045260246000fd5b9050602002016020810190610fdc9190611cda565b6001600160e01b0319167f14ebc1c32aa68f4d766e89f3e546cee249f7df25183fc10ab1568d91c2ce9b7b60405160405180910390a38061101c8161209a565b915050610e7a565b50505050565b600061103660006117dc565b905090565b6110443361167f565b6110605760405162461bcd60e51b815260040161028c90611f30565b610b1b8282611877565b6110733361167f565b61108f5760405162461bcd60e51b815260040161028c90611f30565b600e5460ff16151581151514156110d55760405162461bcd60e51b815260206004820152600a60248201526973616d652076616c756560b01b604482015260640161028c565b801561112f57600e5461010090046001600160a01b031661112f5760405162461bcd60e51b81526020600482015260146024820152737a65726f206c6f674576656e744164647265737360601b604482015260640161028c565b600e805460ff1916911515919091179055565b61114b3361167f565b6111675760405162461bcd60e51b815260040161028c90611f30565b61117f6000805160206120e283398151915282610b39565b50565b61118b33610b1f565b8061119a575061119a3361167f565b6111b65760405162461bcd60e51b815260040161028c90611ebc565b6001600160a01b0381166111dc5760405162461bcd60e51b815260040161028c90611efe565b336001600160a01b03821614156112055760405162461bcd60e51b815260040161028c90611f78565b61121d6000805160206120e283398151915282610b39565b61117f6000805160206120e283398151915233610c22565b61123e33610b1f565b8061124d575061124d3361167f565b6112695760405162461bcd60e51b815260040161028c90611ebc565b600a805460ff1916911515919091179055565b6112853361167f565b6112a15760405162461bcd60e51b815260040161028c90611f30565b61095b8383836117f7565b6112b53361167f565b6112d15760405162461bcd60e51b815260040161028c90611f30565b6001600160a01b0381166112f75760405162461bcd60e51b815260040161028c90611efe565b336001600160a01b03821614156113205760405162461bcd60e51b815260040161028c90611f78565b61132b600082610b39565b61117f600033610c22565b6000610991826117dc565b6001600160e01b031981166000908152600d60205260408120546001600160a01b03166113a157505060008052600b6020527fdf7de25b7f1fd6d0b5205f0e18f1f35bd7b8d84cce336588d184533ce43a6f76546001600160a01b031690565b6001600160e01b031982166000908152600d60209081526040808320546001600160a01b03168352600c90915290205460ff16156113ff57506001600160e01b0319166000908152600d60205260409020546001600160a01b031690565b505060008052600b6020527fdf7de25b7f1fd6d0b5205f0e18f1f35bd7b8d84cce336588d184533ce43a6f76546001600160a01b031690565b919050565b6000918252600f602090815260408084206001600160a01b0393909316845291905290205460ff1690565b6114713361167f565b61148d5760405162461bcd60e51b815260040161028c90611f30565b61117f6000826118d6565b6114a133610b1f565b806114b057506114b03361167f565b6114cc5760405162461bcd60e51b815260040161028c90611ebc565b6114e46000805160206120e283398151915233610c22565b565b6114ef3361167f565b61150b5760405162461bcd60e51b815260040161028c90611f30565b6114e4600033610c22565b6000828152600f6020526040902060010154611532813361168b565b61095b8383611775565b60088181548110610a3557600080fd5b6115553361167f565b6115715760405162461bcd60e51b815260040161028c90611f30565b6003805461157e9061205f565b1590506115bb5760405162461bcd60e51b815260206004820152600b60248201526a185b1c9958591e481cd95d60aa1b604482015260640161028c565b6001600160a01b038316158015906115db57506001600160a01b03821615155b6116165760405162461bcd60e51b815260206004820152600c60248201526b7a65726f206164647265737360a01b604482015260640161028c565b8351611629906003906020870190611ac9565b50600080546001600160a01b038086166001600160a01b031992831617909255600180549284169290911691909117905561166382610b1f565b611024576110246000805160206120e2833981519152836118d6565b6000610991818361143d565b611695828261143d565b610b1b576116ad816001600160a01b031660146118e0565b6116b88360206118e0565b6040516020016116c9929190611e1a565b60408051601f198184030181529082905262461bcd60e51b825261028c91600401611e89565b6116f9828261143d565b610b1b576000828152600f602090815260408083206001600160a01b03851684529091529020805460ff191660011790556117313390565b6001600160a01b0316816001600160a01b0316837f2f8788117e7eff1d82e926ec794901d17c78024a50270940304540a733656f0d60405160405180910390a45050565b61177f828261143d565b15610b1b576000828152600f602090815260408083206001600160a01b0385168085529252808320805460ff1916905551339285917ff6391f5c32d9c69d2a47ea670b442974b53935d1edc7fd64eb21e047a839171b9190a45050565b6000908152600b60205260409020546001600160a01b031690565b823b6118435760405162461bcd60e51b815260206004820152601b60248201527a50726f78793a206e6f7420636f6e7472616374206164647265737360281b604482015260640161028c565b8015611871576000828152600b6020526040902080546001600160a01b0319166001600160a01b0385161790555b61095b83825b6001600160a01b0382166000818152600c6020908152604091829020805460ff191685151590811790915591519182527f72558d9bfba4210f9ef095c782589484151f6d90f7a81bb3cb9b33efc695d324910160405180910390a25050565b610b1b82826116ef565b606060006118ef836002611ffd565b6118fa906002611fe5565b67ffffffffffffffff81111561192057634e487b7160e01b600052604160045260246000fd5b6040519080825280601f01601f19166020018201604052801561194a576020820181803683370190505b509050600360fc1b8160008151811061197357634e487b7160e01b600052603260045260246000fd5b60200101906001600160f81b031916908160001a905350600f60fb1b816001815181106119b057634e487b7160e01b600052603260045260246000fd5b60200101906001600160f81b031916908160001a90535060006119d4846002611ffd565b6119df906001611fe5565b90505b6001811115611a73576f181899199a1a9b1b9c1cb0b131b232b360811b85600f1660108110611a2157634e487b7160e01b600052603260045260246000fd5b1a60f81b828281518110611a4557634e487b7160e01b600052603260045260246000fd5b60200101906001600160f81b031916908160001a90535060049490941c93611a6c81612048565b90506119e2565b508315611ac25760405162461bcd60e51b815260206004820181905260248201527f537472696e67733a20686578206c656e67746820696e73756666696369656e74604482015260640161028c565b9392505050565b828054611ad59061205f565b90600052602060002090601f016020900481019282611af75760008555611b3d565b82601f10611b1057805160ff1916838001178555611b3d565b82800160010185558215611b3d579182015b82811115611b3d578251825591602001919060010190611b22565b50611b49929150611b4d565b5090565b5b80821115611b495760008155600101611b4e565b80356001600160a01b038116811461143857600080fd5b8035801515811461143857600080fd5b600060208284031215611b9a578081fd5b611ac282611b62565b60008060408385031215611bb5578081fd5b611bbe83611b62565b9150611bcc60208401611b79565b90509250929050565b600080600060608486031215611be9578081fd5b611bf284611b62565b925060208401359150611c0760408501611b79565b90509250925092565b600080600060408486031215611c24578283fd5b833567ffffffffffffffff80821115611c3b578485fd5b818601915086601f830112611c4e578485fd5b813581811115611c5c578586fd5b8760208260051b8501011115611c70578586fd5b602092830195509350611c079186019050611b62565b600060208284031215611c97578081fd5b611ac282611b79565b600060208284031215611cb1578081fd5b5035919050565b60008060408385031215611cca578182fd5b82359150611bcc60208401611b62565b600060208284031215611ceb578081fd5b81356001600160e01b031981168114611ac2578182fd5b60008060008060808587031215611d17578081fd5b843567ffffffffffffffff80821115611d2e578283fd5b818701915087601f830112611d41578283fd5b813581811115611d5357611d536120cb565b604051601f8201601f19908116603f01168101908382118183101715611d7b57611d7b6120cb565b816040528281528a6020848701011115611d93578586fd5b8260208601602083013785602084830101528098505050505050611db960208601611b62565b9250611dc760408601611b62565b9150611dd560608601611b62565b905092959194509250565b6000815180845260208085019450808401835b83811015611e0f57815187529582019590820190600101611df3565b509495945050505050565b76020b1b1b2b9b9a1b7b73a3937b61d1030b1b1b7bab73a1604d1b815260008351611e4c81601785016020880161201c565b7001034b99036b4b9b9b4b733903937b6329607d1b6017918401918201528351611e7d81602884016020880161201c565b01602801949350505050565b6020815260008251806020840152611ea881604085016020870161201c565b601f01601f19169190910160400192915050565b60208082526022908201527f41636365737369626c653a2043616c6c6572206973206e6f7420616e2061646d60408201526134b760f11b606082015260800190565b60208082526018908201527741636365737369626c653a207a65726f206164647265737360401b604082015260600190565b60208082526028908201527f41636365737369626c653a2043616c6c6572206973206e6f7420616e2070726f6040820152673c3c9030b236b4b760c11b606082015260800190565b60208082526016908201527520b1b1b2b9b9b4b136329d1039b0b6b29030b236b4b760511b604082015260600190565b848152608060208201526000611fc16080830186611de0565b8281036040840152611fd38186611de0565b91505082606083015295945050505050565b60008219821115611ff857611ff86120b5565b500190565b6000816000190483118215151615612017576120176120b5565b500290565b60005b8381101561203757818101518382015260200161201f565b838111156110245750506000910152565b600081612057576120576120b5565b506000190190565b600181811c9082168061207357607f821691505b6020821081141561209457634e487b7160e01b600052602260045260246000fd5b50919050565b60006000198214156120ae576120ae6120b5565b5060010190565b634e487b7160e01b600052601160045260246000fd5b634e487b7160e01b600052604160045260246000fdfe52eafc11f6f81f86878bffd31109a0d92f37506527754f00788853ff9f63b130a2646970667358221220c7d001ca9637d87c9ba6200713978270f79678b16f6730407ac56c1d6d60389c64736f6c63430008040033df8b4c520ffe197c5343c6f5aec59570151ef9a492f2c624fd45ddde6135ec42a2646970667358221220733212d21ca16a19c5c85b59d298512d263fc874161c3c446742743eaf95fb5264736f6c63430008040033df8b4c520ffe197c5343c6f5aec59570151ef9a492f2c624fd45ddde6135ec42",
  "linkReferences": {},
  "deployedLinkReferences": {}
}